{
  "address": "0xDA4b623f41D1331Affc5fcC4eeb5CEc36AF4eF35",
  "abi": [
    {
      "inputs": [
        {
          "internalType": "address",
          "name": "_quoteToken",
          "type": "address"
        },
        {
          "internalType": "address",
          "name": "_factory",
          "type": "address"
        }
      ],
      "stateMutability": "nonpayable",
      "type": "constructor"
    },
    {
      "inputs": [],
      "name": "ONE",
      "outputs": [
        {
          "internalType": "uint256",
          "name": "",
          "type": "uint256"
        }
      ],
      "stateMutability": "view",
      "type": "function"
    },
    {
      "inputs": [],
      "name": "factory",
      "outputs": [
        {
          "internalType": "address",
          "name": "",
          "type": "address"
        }
      ],
      "stateMutability": "view",
      "type": "function"
    },
    {
      "inputs": [
        {
          "internalType": "address",
          "name": "_token",
          "type": "address"
        }
      ],
      "name": "getPrice",
      "outputs": [
        {
          "internalType": "uint256",
          "name": "",
          "type": "uint256"
        }
      ],
      "stateMutability": "nonpayable",
      "type": "function"
    },
    {
      "inputs": [
        {
          "internalType": "address",
          "name": "_base",
          "type": "address"
        },
        {
          "internalType": "address",
          "name": "_quote",
          "type": "address"
        }
      ],
      "name": "getPriceQuote",
      "outputs": [
        {
          "internalType": "uint256",
          "name": "",
          "type": "uint256"
        }
      ],
      "stateMutability": "nonpayable",
      "type": "function"
    },
    {
      "inputs": [
        {
          "internalType": "address",
          "name": "_token",
          "type": "address"
        }
      ],
      "name": "getPriceStatic",
      "outputs": [
        {
          "internalType": "uint256",
          "name": "",
          "type": "uint256"
        }
      ],
      "stateMutability": "view",
      "type": "function"
    },
    {
      "inputs": [
        {
          "internalType": "address",
          "name": "",
          "type": "address"
        }
      ],
      "name": "oracles",
      "outputs": [
        {
          "internalType": "address",
          "name": "oracleImpl",
          "type": "address"
        },
        {
          "internalType": "bytes",
          "name": "data",
          "type": "bytes"
        }
      ],
      "stateMutability": "view",
      "type": "function"
    },
    {
      "inputs": [],
      "name": "quoteToken",
      "outputs": [
        {
          "internalType": "address",
          "name": "",
          "type": "address"
        }
      ],
      "stateMutability": "view",
      "type": "function"
    },
    {
      "inputs": [
        {
          "internalType": "address",
          "name": "_token",
          "type": "address"
        },
        {
          "internalType": "address",
          "name": "_oracle",
          "type": "address"
        },
        {
          "internalType": "bytes",
          "name": "_data",
          "type": "bytes"
        }
      ],
      "name": "registerToken",
      "outputs": [],
      "stateMutability": "nonpayable",
      "type": "function"
    }
  ],
  "transactionHash": "0x7a360b9a043fd8247cffcd6f06458943e2d9d8b3462941a9774503a48cc83b44",
  "args": [
    "0x0d500B1d8E8eF31E21C99d1Db9A6444d3ADf1270",
    "0x43C06bD9a8D4F08f4F1a863b2108f22794FAEc18"
  ],
  "solcInputHash": "ad3604c16830b09dacbe1e16d71c93a2",
  "bytecode": "0x60a060405234801561001057600080fd5b5060405161110138038061110183398101604081905261002f91610080565b60601b6001600160601b031916608052600080546001600160a01b0319166001600160a01b03929092169190911790556100b3565b80516001600160a01b038116811461007b57600080fd5b919050565b6000806040838503121561009357600080fd5b61009c83610064565b91506100aa60208401610064565b90509250929050565b60805160601c6110296100d86000396000818161014e01526107bd01526110296000f3fe608060405234801561001057600080fd5b50600436106100885760003560e01c8063addd50991161005b578063addd509914610104578063b02d478a14610125578063c2ee3a081461013a578063c45a01551461014957600080fd5b8063054cc48b1461008d578063217a4b70146100b35780632f04d584146100de57806341976e09146100f1575b600080fd5b6100a061009b366004610c89565b610170565b6040519081526020015b60405180910390f35b6000546100c6906001600160a01b031681565b6040516001600160a01b0390911681526020016100aa565b6100a06100ec366004610c6e565b61043e565b6100a06100ff366004610c6e565b6106b8565b610117610112366004610c6e565b610702565b6040516100aa929190610f17565b610138610133366004610cbc565b6107b2565b005b6100a0670de0b6b3a764000081565b6100c67f000000000000000000000000000000000000000000000000000000000000000081565b6000816001600160a01b0316836001600160a01b0316141561019b5750670de0b6b3a7640000610438565b604080518082018252601981527f6f7261636c65735b5f626173655d2e6f7261636c65496d706c000000000000006020808301919091526001600160a01b0380871660009081526001909252929020546101f59216610a85565b61021c604051806040016040528060058152602001645f6261736560d81b81525084610a85565b610244604051806040016040528060068152602001655f71756f746560d01b81525083610a85565b6102b76040518060400160405280601a81526020017f6f7261636c65735b5f626173655d2e646174612e6c656e67746800000000000081525060016000866001600160a01b03166001600160a01b0316815260200190815260200160002060010180546102b090610fa2565b9050610ace565b6102eb604051806040016040528060138152602001726f7261636c65735b5f626173655d2e6461746160681b815250610b13565b6001600160a01b038316600090815260016020819052604090912001805461039a919061031790610fa2565b80601f016020809104026020016040519081016040528092919081815260200182805461034390610fa2565b80156103905780601f1061036557610100808354040283529160200191610390565b820191906000526020600020905b81548152906001019060200180831161037357829003601f168201915b5050505050610b59565b6001600160a01b038084166000908152600160208190526040918290208054925163355efdd960e01b8152929093169263355efdd9926103e39288928892910190600401610e52565b602060405180830381600087803b1580156103fd57600080fd5b505af1158015610411573d6000803e3d6000fd5b505050506040513d601f19601f820116820180604052508101906104359190610db7565b90505b92915050565b60006104716040518060400160405280600f81526020016e33b2ba283934b1b2972fba37b5b2b760891b81525083610a85565b6000546001600160a01b03838116911614156104965750670de0b6b3a7640000919050565b604080518082018252601a81527f6f7261636c65735b5f746f6b656e5d2e6f7261636c65496d706c0000000000006020808301919091526001600160a01b0380861660009081526001909252929020546104f09216610a85565b610518604051806040016040528060068152602001652fba37b5b2b760d11b81525083610a85565b60408051808201909152600a81526938bab7ba32aa37b5b2b760b11b602082015260005461054f91906001600160a01b0316610a85565b6105bb6040518060400160405280601b81526020017f6f7261636c65735b5f746f6b656e5d2e646174612e6c656e677468000000000081525060016000856001600160a01b03166001600160a01b0316815260200190815260200160002060010180546102b090610fa2565b6105f0604051806040016040528060148152602001736f7261636c65735b5f746f6b656e5d2e6461746160601b815250610b13565b6001600160a01b038216600090815260016020819052604090912001805461061c919061031790610fa2565b6001600160a01b038083166000908152600160208190526040808320805493549151631287cdeb60e01b815293851694631287cdeb946106689489949092169290910190600401610e52565b60206040518083038186803b15801561068057600080fd5b505afa158015610694573d6000803e3d6000fd5b505050506040513d601f19601f820116820180604052508101906104389190610db7565b60006106eb6040518060400160405280600f81526020016e33b2ba283934b1b2972fba37b5b2b760891b81525083610a85565b6000546104389083906001600160a01b0316610170565b6001602081905260009182526040909120805491810180546001600160a01b039093169261072f90610fa2565b80601f016020809104026020016040519081016040528092919081815260200182805461075b90610fa2565b80156107a85780601f1061077d576101008083540402835291602001916107a8565b820191906000526020600020905b81548152906001019060200180831161078b57829003601f168201915b5050505050905082565b336001600160a01b037f0000000000000000000000000000000000000000000000000000000000000000161461082f5760405162461bcd60e51b815260206004820152601760248201527f53696c6f4f7261636c653a206f6e6c79466163746f727900000000000000000060448201526064015b60405180910390fd5b816001600160a01b031663ecdcb0ff6040518163ffffffff1660e01b815260040160206040518083038186803b15801561086857600080fd5b505afa15801561087c573d6000803e3d6000fd5b505050506040513d601f19601f820116820180604052508101906108a09190610d8e565b6108ec5760405162461bcd60e51b815260206004820152601960248201527f53696c6f4f7261636c653a206e6f7420616e206f7261636c65000000000000006044820152606401610826565b6040805180820182526001600160a01b038481168252602080830185815287831660009081526001808452959020845181546001600160a01b031916941693909317835551805193949293610948938501929190910190610bb9565b505060005460405163c77a494960e01b81526001600160a01b03858116935063c77a494992610981928892909116908690600401610e1d565b600060405180830381600087803b15801561099b57600080fd5b505af11580156109af573d6000803e3d6000fd5b50505050610a1f6040518060400160405280601b81526020017f6f7261636c65735b5f746f6b656e5d2e646174612e6c656e677468000000000081525060016000866001600160a01b03166001600160a01b0316815260200190815260200160002060010180546102b090610fa2565b610a54604051806040016040528060148152602001736f7261636c65735b5f746f6b656e5d2e6461746160601b815250610b13565b6001600160a01b0383166000908152600160208190526040909120018054610a80919061031790610fa2565b505050565b610aca8282604051602401610a9b929190610f56565b60408051601f198184030181529190526020810180516001600160e01b031663319af33360e01b179052610b98565b5050565b610aca8282604051602401610ae4929190610f80565b60408051601f198184030181529190526020810180516001600160e01b03166309710a9d60e41b179052610b98565b610b5681604051602401610b279190610f43565b60408051601f198184030181529190526020810180516001600160e01b031663104c13eb60e21b179052610b98565b50565b610b5681604051602401610b6d9190610f43565b60408051601f198184030181529190526020810180516001600160e01b03166305f3bfab60e11b1790525b80516a636f6e736f6c652e6c6f67602083016000808483855afa5050505050565b828054610bc590610fa2565b90600052602060002090601f016020900481019282610be75760008555610c2d565b82601f10610c0057805160ff1916838001178555610c2d565b82800160010185558215610c2d579182015b82811115610c2d578251825591602001919060010190610c12565b50610c39929150610c3d565b5090565b5b80821115610c395760008155600101610c3e565b80356001600160a01b0381168114610c6957600080fd5b919050565b600060208284031215610c8057600080fd5b61043582610c52565b60008060408385031215610c9c57600080fd5b610ca583610c52565b9150610cb360208401610c52565b90509250929050565b600080600060608486031215610cd157600080fd5b610cda84610c52565b9250610ce860208501610c52565b9150604084013567ffffffffffffffff80821115610d0557600080fd5b818601915086601f830112610d1957600080fd5b813581811115610d2b57610d2b610fdd565b604051601f8201601f19908116603f01168101908382118183101715610d5357610d53610fdd565b81604052828152896020848701011115610d6c57600080fd5b8260208601602083013760006020848301015280955050505050509250925092565b600060208284031215610da057600080fd5b81518015158114610db057600080fd5b9392505050565b600060208284031215610dc957600080fd5b5051919050565b6000815180845260005b81811015610df657602081850181015186830182015201610dda565b81811115610e08576000602083870101525b50601f01601f19169290920160200192915050565b6001600160a01b03848116825283166020820152606060408201819052600090610e4990830184610dd0565b95945050505050565b6001600160a01b03848116825283166020808301919091526060604083015282546000918291600181811c9082811680610e8d57607f831692505b848310811415610eab57634e487b7160e01b86526022600452602486fd5b6060880183905260808801818015610eca5760018114610edb57610f06565b60ff19861682528682019750610f06565b60008b81526020902060005b86811015610f0057815484820152908501908801610ee7565b83019850505b50959b9a5050505050505050505050565b6001600160a01b0383168152604060208201819052600090610f3b90830184610dd0565b949350505050565b6020815260006104356020830184610dd0565b604081526000610f696040830185610dd0565b905060018060a01b03831660208301529392505050565b604081526000610f936040830185610dd0565b90508260208301529392505050565b600181811c90821680610fb657607f821691505b60208210811415610fd757634e487b7160e01b600052602260045260246000fd5b50919050565b634e487b7160e01b600052604160045260246000fdfea26469706673582212202f86ae3deaa3be32459c28ef9f4ac402ed0ccff0dfc88111f904e6df6c18a0fd64736f6c63430008070033",
  "devdoc": {
    "kind": "dev",
    "methods": {},
    "version": 1
  },
  "userdoc": {
    "kind": "user",
    "methods": {},
    "version": 1
  },
  "storageLayout": {
    "storage": [
      {
        "astId": 7288,
        "contract": "contracts/SiloOracle.sol:SiloOracle",
        "label": "quoteToken",
        "offset": 0,
        "slot": "0",
        "type": "t_address"
      },
      {
        "astId": 7298,
        "contract": "contracts/SiloOracle.sol:SiloOracle",
        "label": "oracles",
        "offset": 0,
        "slot": "1",
        "type": "t_mapping(t_address,t_struct(OracleData)7293_storage)"
      }
    ],
    "types": {
      "t_address": {
        "encoding": "inplace",
        "label": "address",
        "numberOfBytes": "20"
      },
      "t_bytes_storage": {
        "encoding": "bytes",
        "label": "bytes",
        "numberOfBytes": "32"
      },
      "t_mapping(t_address,t_struct(OracleData)7293_storage)": {
        "encoding": "mapping",
        "key": "t_address",
        "label": "mapping(address => struct SiloOracle.OracleData)",
        "numberOfBytes": "32",
        "value": "t_struct(OracleData)7293_storage"
      },
      "t_struct(OracleData)7293_storage": {
        "encoding": "inplace",
        "label": "struct SiloOracle.OracleData",
        "members": [
          {
            "astId": 7290,
            "contract": "contracts/SiloOracle.sol:SiloOracle",
            "label": "oracleImpl",
            "offset": 0,
            "slot": "0",
            "type": "t_address"
          },
          {
            "astId": 7292,
            "contract": "contracts/SiloOracle.sol:SiloOracle",
            "label": "data",
            "offset": 0,
            "slot": "1",
            "type": "t_bytes_storage"
          }
        ],
        "numberOfBytes": "64"
      }
    }
  }
}