{
  "address": "0x0EDb1858D27F31afD4f7f00CEF95f5406e9afd39",
  "abi": [
    {
      "inputs": [
        {
          "internalType": "address",
          "name": "_factory",
          "type": "address"
        }
      ],
      "stateMutability": "nonpayable",
      "type": "constructor"
    },
    {
      "anonymous": false,
      "inputs": [
        {
          "indexed": true,
          "internalType": "address",
          "name": "silo",
          "type": "address"
        },
        {
          "indexed": true,
          "internalType": "address",
          "name": "user",
          "type": "address"
        },
        {
          "indexed": false,
          "internalType": "uint256",
          "name": "amount",
          "type": "uint256"
        }
      ],
      "name": "Borrow",
      "type": "event"
    },
    {
      "anonymous": false,
      "inputs": [
        {
          "indexed": true,
          "internalType": "address",
          "name": "silo",
          "type": "address"
        },
        {
          "indexed": true,
          "internalType": "address",
          "name": "user",
          "type": "address"
        },
        {
          "indexed": false,
          "internalType": "uint256",
          "name": "amount",
          "type": "uint256"
        }
      ],
      "name": "Deposit",
      "type": "event"
    },
    {
      "anonymous": false,
      "inputs": [
        {
          "indexed": true,
          "internalType": "address",
          "name": "silo",
          "type": "address"
        },
        {
          "indexed": true,
          "internalType": "address",
          "name": "_user",
          "type": "address"
        },
        {
          "indexed": false,
          "internalType": "uint256",
          "name": "amountRepaid",
          "type": "uint256"
        },
        {
          "indexed": false,
          "internalType": "uint256",
          "name": "seizedCollateral",
          "type": "uint256"
        }
      ],
      "name": "Liquidate",
      "type": "event"
    },
    {
      "anonymous": false,
      "inputs": [
        {
          "indexed": true,
          "internalType": "address",
          "name": "silo",
          "type": "address"
        },
        {
          "indexed": true,
          "internalType": "address",
          "name": "user",
          "type": "address"
        },
        {
          "indexed": false,
          "internalType": "uint256",
          "name": "amount",
          "type": "uint256"
        }
      ],
      "name": "Repay",
      "type": "event"
    },
    {
      "anonymous": false,
      "inputs": [
        {
          "indexed": true,
          "internalType": "address",
          "name": "silo",
          "type": "address"
        },
        {
          "indexed": true,
          "internalType": "address",
          "name": "user",
          "type": "address"
        },
        {
          "indexed": false,
          "internalType": "uint256",
          "name": "amount",
          "type": "uint256"
        }
      ],
      "name": "Withdraw",
      "type": "event"
    },
    {
      "inputs": [],
      "name": "BASIS_POINTS",
      "outputs": [
        {
          "internalType": "uint256",
          "name": "",
          "type": "uint256"
        }
      ],
      "stateMutability": "view",
      "type": "function"
    },
    {
      "inputs": [],
      "name": "DECIMAL_POINTS",
      "outputs": [
        {
          "internalType": "uint256",
          "name": "",
          "type": "uint256"
        }
      ],
      "stateMutability": "view",
      "type": "function"
    },
    {
      "inputs": [],
      "name": "INFINITY",
      "outputs": [
        {
          "internalType": "uint256",
          "name": "",
          "type": "uint256"
        }
      ],
      "stateMutability": "view",
      "type": "function"
    },
    {
      "inputs": [],
      "name": "SECONDS_PER_YEAR",
      "outputs": [
        {
          "internalType": "uint256",
          "name": "",
          "type": "uint256"
        }
      ],
      "stateMutability": "view",
      "type": "function"
    },
    {
      "inputs": [
        {
          "internalType": "address",
          "name": "_silo",
          "type": "address"
        }
      ],
      "name": "accrueInterest",
      "outputs": [],
      "stateMutability": "nonpayable",
      "type": "function"
    },
    {
      "inputs": [
        {
          "internalType": "address",
          "name": "_silo",
          "type": "address"
        },
        {
          "internalType": "string",
          "name": "_name",
          "type": "string"
        },
        {
          "internalType": "string",
          "name": "_symbol",
          "type": "string"
        }
      ],
      "name": "addSilo",
      "outputs": [],
      "stateMutability": "nonpayable",
      "type": "function"
    },
    {
      "inputs": [],
      "name": "asset",
      "outputs": [
        {
          "internalType": "address",
          "name": "",
          "type": "address"
        }
      ],
      "stateMutability": "view",
      "type": "function"
    },
    {
      "inputs": [
        {
          "internalType": "address",
          "name": "_silo",
          "type": "address"
        },
        {
          "internalType": "address",
          "name": "_user",
          "type": "address"
        }
      ],
      "name": "balanceOfUnderlying",
      "outputs": [
        {
          "internalType": "uint256",
          "name": "",
          "type": "uint256"
        }
      ],
      "stateMutability": "view",
      "type": "function"
    },
    {
      "inputs": [
        {
          "internalType": "address",
          "name": "_silo",
          "type": "address"
        },
        {
          "internalType": "uint256",
          "name": "_amount",
          "type": "uint256"
        }
      ],
      "name": "borrow",
      "outputs": [],
      "stateMutability": "nonpayable",
      "type": "function"
    },
    {
      "inputs": [
        {
          "internalType": "address",
          "name": "_silo",
          "type": "address"
        },
        {
          "internalType": "address",
          "name": "_user",
          "type": "address"
        },
        {
          "internalType": "address",
          "name": "_to",
          "type": "address"
        },
        {
          "internalType": "uint256",
          "name": "_amount",
          "type": "uint256"
        }
      ],
      "name": "borrowFor",
      "outputs": [],
      "stateMutability": "nonpayable",
      "type": "function"
    },
    {
      "inputs": [
        {
          "internalType": "uint256",
          "name": "_amount",
          "type": "uint256"
        }
      ],
      "name": "calcFee",
      "outputs": [
        {
          "internalType": "uint256",
          "name": "",
          "type": "uint256"
        }
      ],
      "stateMutability": "view",
      "type": "function"
    },
    {
      "inputs": [
        {
          "internalType": "address",
          "name": "_silo",
          "type": "address"
        },
        {
          "internalType": "uint256",
          "name": "_amount",
          "type": "uint256"
        }
      ],
      "name": "deposit",
      "outputs": [],
      "stateMutability": "nonpayable",
      "type": "function"
    },
    {
      "inputs": [
        {
          "internalType": "address",
          "name": "_silo",
          "type": "address"
        },
        {
          "internalType": "address",
          "name": "_user",
          "type": "address"
        },
        {
          "internalType": "uint256",
          "name": "_amount",
          "type": "uint256"
        }
      ],
      "name": "depositFor",
      "outputs": [],
      "stateMutability": "nonpayable",
      "type": "function"
    },
    {
      "inputs": [],
      "name": "emergencyExit",
      "outputs": [],
      "stateMutability": "nonpayable",
      "type": "function"
    },
    {
      "inputs": [],
      "name": "factory",
      "outputs": [
        {
          "internalType": "contract ISiloFactory",
          "name": "",
          "type": "address"
        }
      ],
      "stateMutability": "view",
      "type": "function"
    },
    {
      "inputs": [
        {
          "internalType": "address",
          "name": "_silo",
          "type": "address"
        },
        {
          "internalType": "uint256",
          "name": "_amount",
          "type": "uint256"
        },
        {
          "internalType": "address",
          "name": "_to",
          "type": "address"
        },
        {
          "internalType": "bytes",
          "name": "_data",
          "type": "bytes"
        }
      ],
      "name": "flashBorrow",
      "outputs": [],
      "stateMutability": "nonpayable",
      "type": "function"
    },
    {
      "inputs": [
        {
          "internalType": "address",
          "name": "_silo",
          "type": "address"
        },
        {
          "internalType": "address",
          "name": "_user",
          "type": "address"
        }
      ],
      "name": "getBorrowShare",
      "outputs": [
        {
          "internalType": "uint256",
          "name": "",
          "type": "uint256"
        }
      ],
      "stateMutability": "view",
      "type": "function"
    },
    {
      "inputs": [
        {
          "internalType": "address",
          "name": "_silo",
          "type": "address"
        },
        {
          "internalType": "address",
          "name": "_user",
          "type": "address"
        }
      ],
      "name": "getCollateralValue",
      "outputs": [
        {
          "internalType": "uint256",
          "name": "",
          "type": "uint256"
        }
      ],
      "stateMutability": "nonpayable",
      "type": "function"
    },
    {
      "inputs": [
        {
          "internalType": "address",
          "name": "_silo",
          "type": "address"
        },
        {
          "internalType": "address",
          "name": "_user",
          "type": "address"
        }
      ],
      "name": "getCollateralization",
      "outputs": [
        {
          "internalType": "uint256",
          "name": "",
          "type": "uint256"
        }
      ],
      "stateMutability": "nonpayable",
      "type": "function"
    },
    {
      "inputs": [
        {
          "internalType": "address",
          "name": "_silo",
          "type": "address"
        },
        {
          "internalType": "address",
          "name": "_user",
          "type": "address"
        }
      ],
      "name": "getDebtValue",
      "outputs": [
        {
          "internalType": "uint256",
          "name": "",
          "type": "uint256"
        }
      ],
      "stateMutability": "nonpayable",
      "type": "function"
    },
    {
      "inputs": [
        {
          "internalType": "address",
          "name": "_silo",
          "type": "address"
        },
        {
          "internalType": "address",
          "name": "_user",
          "type": "address"
        }
      ],
      "name": "isSolvent",
      "outputs": [
        {
          "internalType": "bool",
          "name": "",
          "type": "bool"
        }
      ],
      "stateMutability": "nonpayable",
      "type": "function"
    },
    {
      "inputs": [
        {
          "internalType": "address",
          "name": "_silo",
          "type": "address"
        },
        {
          "internalType": "address[]",
          "name": "_users",
          "type": "address[]"
        }
      ],
      "name": "liquidate",
      "outputs": [
        {
          "internalType": "uint256[]",
          "name": "",
          "type": "uint256[]"
        }
      ],
      "stateMutability": "nonpayable",
      "type": "function"
    },
    {
      "inputs": [],
      "name": "liquidity",
      "outputs": [
        {
          "internalType": "uint256",
          "name": "",
          "type": "uint256"
        }
      ],
      "stateMutability": "view",
      "type": "function"
    },
    {
      "inputs": [
        {
          "internalType": "address",
          "name": "_silo",
          "type": "address"
        },
        {
          "internalType": "uint256",
          "name": "_amount",
          "type": "uint256"
        }
      ],
      "name": "repay",
      "outputs": [],
      "stateMutability": "nonpayable",
      "type": "function"
    },
    {
      "inputs": [
        {
          "internalType": "address",
          "name": "_silo",
          "type": "address"
        },
        {
          "internalType": "address",
          "name": "_user",
          "type": "address"
        },
        {
          "internalType": "uint256",
          "name": "_amount",
          "type": "uint256"
        }
      ],
      "name": "repayFor",
      "outputs": [],
      "stateMutability": "nonpayable",
      "type": "function"
    },
    {
      "inputs": [
        {
          "internalType": "address",
          "name": "_user",
          "type": "address"
        },
        {
          "internalType": "address",
          "name": "_liquidator",
          "type": "address"
        }
      ],
      "name": "seizeCollateral",
      "outputs": [
        {
          "internalType": "uint256",
          "name": "",
          "type": "uint256"
        }
      ],
      "stateMutability": "nonpayable",
      "type": "function"
    },
    {
      "inputs": [
        {
          "internalType": "address",
          "name": "",
          "type": "address"
        }
      ],
      "name": "state",
      "outputs": [
        {
          "internalType": "contract BridgeERC20",
          "name": "token",
          "type": "address"
        },
        {
          "internalType": "uint256",
          "name": "lastUpdateTimestamp",
          "type": "uint256"
        },
        {
          "internalType": "uint256",
          "name": "totalDeposits",
          "type": "uint256"
        },
        {
          "internalType": "uint256",
          "name": "totalBorrowShare",
          "type": "uint256"
        },
        {
          "internalType": "uint256",
          "name": "totalBorrowAmount",
          "type": "uint256"
        },
        {
          "internalType": "uint256",
          "name": "interestRate",
          "type": "uint256"
        },
        {
          "internalType": "uint256",
          "name": "protocolFees",
          "type": "uint256"
        },
        {
          "internalType": "uint256",
          "name": "liquidity",
          "type": "uint256"
        }
      ],
      "stateMutability": "view",
      "type": "function"
    },
    {
      "inputs": [
        {
          "internalType": "address",
          "name": "_silo",
          "type": "address"
        },
        {
          "internalType": "uint256",
          "name": "_amount",
          "type": "uint256"
        }
      ],
      "name": "withdraw",
      "outputs": [],
      "stateMutability": "nonpayable",
      "type": "function"
    },
    {
      "inputs": [
        {
          "internalType": "address",
          "name": "_silo",
          "type": "address"
        },
        {
          "internalType": "address",
          "name": "_user",
          "type": "address"
        },
        {
          "internalType": "uint256",
          "name": "_amount",
          "type": "uint256"
        }
      ],
      "name": "withdrawFor",
      "outputs": [],
      "stateMutability": "nonpayable",
      "type": "function"
    }
  ],
  "transactionHash": "0x445127c41a9fa9886241dbbbc6a6fec8f47152f27f4cbdbc0938e8d46d0aa0e8",
  "args": [
    "0x43C06bD9a8D4F08f4F1a863b2108f22794FAEc18"
  ],
  "solcInputHash": "ad3604c16830b09dacbe1e16d71c93a2",
  "bytecode": "0x60c06040523480156200001157600080fd5b506040516200482e3803806200482e83398101604081905262000034916200016f565b60016000556001600160601b0319606082901b1660a052604080516304d8775560e41b815290516001600160a01b03831691634d877550916004808301926020929190829003018186803b1580156200008c57600080fd5b505afa158015620000a1573d6000803e3d6000fd5b505050506040513d601f19601f82011682018060405250810190620000c791906200016f565b600180546001600160a01b0319166001600160a01b039290921691821790556040805163313ce56760e01b8152905163313ce56791600480820192602092909190829003018186803b1580156200011d57600080fd5b505afa15801562000132573d6000803e3d6000fd5b505050506040513d601f19601f82011682018060405250810190620001589190620001a1565b6200016590600a6200020f565b60805250620002e6565b6000602082840312156200018257600080fd5b81516001600160a01b03811681146200019a57600080fd5b9392505050565b600060208284031215620001b457600080fd5b815160ff811681146200019a57600080fd5b600181815b8085111562000207578160001904821115620001eb57620001eb620002d0565b80851615620001f957918102915b93841c9390800290620001cb565b509250929050565b60006200019a60ff8416836000826200022b57506001620002ca565b816200023a57506000620002ca565b81600181146200025357600281146200025e576200027e565b6001915050620002ca565b60ff841115620002725762000272620002d0565b50506001821b620002ca565b5060208310610133831016604e8410600b8410161715620002a3575081810a620002ca565b620002af8383620001c6565b8060001904821115620002c657620002c6620002d0565b0290505b92915050565b634e487b7160e01b600052601160045260246000fd5b60805160a05160601c6144a862000386600039600081816104d501528181610585015281816108d601528181610b4c01528181610e1701528181610fca0152818161119c01528181611303015281816114500152818161157a015281816116bf015281816117950152818161193b01528181611aa401528181611b660152611c5e01526000818161051401528181610d820152610f6d01526144a86000f3fe60806040523480156200001157600080fd5b5060043610620001f45760003560e01c80635f48f44b1162000119578063b3db428b11620000af578063dbc5b481116200007a578063dbc5b4811462000536578063e1f1c4a7146200054d578063e6a69ab81462000557578063f3fef3a3146200056357600080fd5b8063b3db428b14620004b8578063c45a015514620004cf578063cce5b64314620004f7578063ce47696f146200050e57600080fd5b8063976ce49511620000f0578063976ce49514620004245780639f1d9267146200043b578063a00a10341462000452578063b02b5409146200049257600080fd5b80635f48f44b14620003ec57806375dc7d8c14620003f65780639198e515146200040d57600080fd5b806338d52e0f116200018f5780634b8a352911620001665780634b8a3529146200038c5780635641ec0314620003a3578063590630f014620003ad5780635a1de42714620003d557600080fd5b806338d52e0f146200033157806347e7ef24146200035e5780634aa967b0146200037557600080fd5b80631d5f143e11620001d05780631d5f143e14620002465780631eee3aa3146200025d57806322867d78146200027457806331e658a5146200028b57600080fd5b8062ebe35014620001f95780631a68650214620002125780631be655e8146200022f575b600080fd5b620002106200020a36600462002d17565b6200057a565b005b6200021c620006f7565b6040519081526020015b60405180910390f35b6200021c6200024036600462002b5e565b6200077c565b6200021c6200025736600462002b5e565b620008be565b6200021c6200026e36600462002b5e565b62000b1e565b620002106200028536600462002d96565b62000dc4565b620002eb6200029c36600462002b1e565b6002602081905260009182526040909120805460018201549282015460038301546004840154600585015460068601546007909601546001600160a01b03909516969593949293919290919088565b604080516001600160a01b0390991689526020890197909752958701949094526060860192909252608085015260a084015260c083015260e08201526101000162000226565b60015462000345906001600160a01b031681565b6040516001600160a01b03909116815260200162000226565b620002106200036f36600462002d96565b62000dd7565b6200021c6200038636600462002b5e565b62000de9565b620002106200039d36600462002d96565b62000f98565b6200021062001083565b620003c4620003be36600462002b5e565b6200111f565b604051901515815260200162000226565b6200021c620003e636600462002b5e565b6200123b565b6200021c60001981565b6200021c6200040736600462002e72565b620012fe565b620002106200041e36600462002b1e565b620013c9565b620002106200043536600462002bf4565b620016bd565b620002106200044c36600462002bf4565b62001793565b6200021c6200046336600462002b5e565b6001600160a01b0391821660009081526002602090815260408083209390941682526008909201909152205490565b620004a9620004a336600462002c3a565b62001868565b60405162000226919062002f7c565b62000210620004c936600462002bf4565b62001939565b620003457f000000000000000000000000000000000000000000000000000000000000000081565b620002106200050836600462002dc5565b62001a0f565b6200021c7f000000000000000000000000000000000000000000000000000000000000000081565b620002106200054736600462002b9c565b62001b64565b6200021c61271081565b6200021c6301e1338081565b620002106200057436600462002d96565b62001c96565b336001600160a01b037f00000000000000000000000000000000000000000000000000000000000000001614620005f85760405162461bcd60e51b815260206004820152601b60248201527f53696c6f427269646765506f6f6c3a206f6e6c79466163746f7279000000000060448201526064015b60405180910390fd5b6001600160a01b03831660009081526002602090815260408083208151808301835260078152660213934b233b2960cd1b81850152915190939262000641929187910162002f17565b60405160208183030381529060405290506000604051806040016040528060078152602001666272696467652d60c81b815250846040516020016200068892919062002f17565b60405160208183030381529060405290508181604051620006a99062002a8f565b620006b692919062002fd7565b604051809103906000f080158015620006d3573d6000803e3d6000fd5b5083546001600160a01b0319166001600160a01b0391909116179092555050505050565b6001546040516370a0823160e01b81523060048201526000916001600160a01b0316906370a082319060240160206040518083038186803b1580156200073c57600080fd5b505afa15801562000751573d6000803e3d6000fd5b505050506040513d601f19601f8201168201806040525081019062000777919062002e8c565b905090565b6001600160a01b03828116600090815260026020526040808220805491516370a0823160e01b81528585166004820152929390928492909116906370a082319060240160206040518083038186803b158015620007d857600080fd5b505afa158015620007ed573d6000803e3d6000fd5b505050506040513d601f19601f8201168201806040525081019062000813919062002e8c565b9050620008b382600201548360000160009054906101000a90046001600160a01b03166001600160a01b03166318160ddd6040518163ffffffff1660e01b815260040160206040518083038186803b1580156200086f57600080fd5b505afa15801562000884573d6000803e3d6000fd5b505050506040513d601f19601f82011682018060405250810190620008aa919062002e8c565b83919062001ca3565b925050505b92915050565b60405163025e1b9b60e31b81523360048201526000907f00000000000000000000000000000000000000000000000000000000000000006001600160a01b0316906312f0dcd89060240160206040518083038186803b1580156200092157600080fd5b505afa15801562000936573d6000803e3d6000fd5b505050506040513d601f19601f820116820180604052508101906200095c919062002e4e565b620009aa5760405162461bcd60e51b815260206004820152601860248201527f53696c6f427269646765506f6f6c3a206f6e6c7953696c6f00000000000000006044820152606401620005ef565b33600090815260026020526040808220805491516370a0823160e01b81526001600160a01b03878116600483015291939291909116906370a082319060240160206040518083038186803b15801562000a0257600080fd5b505afa15801562000a17573d6000803e3d6000fd5b505050506040513d601f19601f8201168201806040525081019062000a3d919062002e8c565b82546040516333bebb7760e01b81526001600160a01b0388811660048301528781166024830152604482018490529293509116906333bebb7790606401602060405180830381600087803b15801562000a9557600080fd5b505af115801562000aaa573d6000803e3d6000fd5b505050506040513d601f19601f8201168201806040525081019062000ad0919062002e4e565b5060028201548254604080516318160ddd60e01b81529051620008b393926001600160a01b0316916318160ddd916004808301926020929190829003018186803b1580156200086f57600080fd5b60008060026000856001600160a01b03166001600160a01b03168152602001908152602001600020905060007f00000000000000000000000000000000000000000000000000000000000000006001600160a01b0316637dc0d1d06040518163ffffffff1660e01b815260040160206040518083038186803b15801562000ba457600080fd5b505afa15801562000bb9573d6000803e3d6000fd5b505050506040513d601f19601f8201168201806040525081019062000bdf919062002b3e565b6001546040516341976e0960e01b81526001600160a01b039182166004820152919250600091908316906341976e0990602401602060405180830381600087803b15801562000c2d57600080fd5b505af115801562000c42573d6000803e3d6000fd5b505050506040513d601f19601f8201168201806040525081019062000c68919062002e8c565b60028401548454604080516318160ddd60e01b8152905193945060009362000d7e93926001600160a01b0316916318160ddd916004808301926020929190829003018186803b15801562000cbb57600080fd5b505afa15801562000cd0573d6000803e3d6000fd5b505050506040513d601f19601f8201168201806040525081019062000cf6919062002e8c565b86546040516370a0823160e01b81526001600160a01b038b81166004830152909116906370a082319060240160206040518083038186803b15801562000d3b57600080fd5b505afa15801562000d50573d6000803e3d6000fd5b505050506040513d601f19601f8201168201806040525081019062000d76919062002e8c565b919062001ca3565b90507f000000000000000000000000000000000000000000000000000000000000000062000dad838362003124565b62000db9919062003101565b979650505050505050565b62000dd28233338462001ce1565b505050565b62000de58233338462001e96565b5050565b60008060026000856001600160a01b03166001600160a01b03168152602001908152602001600020905060007f00000000000000000000000000000000000000000000000000000000000000006001600160a01b0316637dc0d1d06040518163ffffffff1660e01b815260040160206040518083038186803b15801562000e6f57600080fd5b505afa15801562000e84573d6000803e3d6000fd5b505050506040513d601f19601f8201168201806040525081019062000eaa919062002b3e565b600483015460038401546001600160a01b03871660009081526008860160205260408120549394509262000ee092909162001ca3565b6001546040516341976e0960e01b81526001600160a01b039182166004820152919250600091908416906341976e0990602401602060405180830381600087803b15801562000f2e57600080fd5b505af115801562000f43573d6000803e3d6000fd5b505050506040513d601f19601f8201168201806040525081019062000f69919062002e8c565b90507f000000000000000000000000000000000000000000000000000000000000000062000dad828462003124565b81338362000fa681620013c9565b62000fb485333387620020bf565b50604051631295de1f60e11b81523060048201527f00000000000000000000000000000000000000000000000000000000000000006001600160a01b03169063252bbc3e9060240160206040518083038186803b1580156200101557600080fd5b505afa1580156200102a573d6000803e3d6000fd5b505050506040513d601f19601f8201168201806040525081019062001050919062002e8c565b6200105c83836200123b565b10156200107d5760405162461bcd60e51b8152600401620005ef9062003000565b50505050565b6001546040516370a0823160e01b81523060048201526200111d9133916001600160a01b03909116906370a082319060240160206040518083038186803b158015620010ce57600080fd5b505afa158015620010e3573d6000803e3d6000fd5b505050506040513d601f19601f8201168201806040525081019062001109919062002e8c565b6001546001600160a01b03169190620022b8565b565b60006001600160a01b038216620011845760405162461bcd60e51b815260206004820152602260248201527f53696c6f427269646765506f6f6c3a207573657220213d206164647265737328604482015261302960f01b6064820152608401620005ef565b60405163041f3f0560e51b81523060048201526000907f00000000000000000000000000000000000000000000000000000000000000006001600160a01b0316906383e7e0a09060240160206040518083038186803b158015620011e757600080fd5b505afa158015620011fc573d6000803e3d6000fd5b505050506040513d601f19601f8201168201806040525081019062001222919062002e8c565b9050806200123185856200123b565b1015949350505050565b6000806200124a848462000de9565b9050806200125e57600019915050620008b8565b604051634bc8272160e11b81526001600160a01b038481166004830152600091908616906397904e4290602401602060405180830381600087803b158015620012a657600080fd5b505af1158015620012bb573d6000803e3d6000fd5b505050506040513d601f19601f82011682018060405250810190620012e1919062002e8c565b905081620012f26127108362003124565b620008b3919062003101565b6000807f00000000000000000000000000000000000000000000000000000000000000006001600160a01b031663072ea61c6040518163ffffffff1660e01b815260040160206040518083038186803b1580156200135b57600080fd5b505afa15801562001370573d6000803e3d6000fd5b505050506040513d601f19601f8201168201806040525081019062001396919062002e8c565b905080620013a75750600092915050565b612710620013b6828562003124565b620013c2919062003101565b9392505050565b6001600160a01b03811660009081526002602052604081206001810154909190620013f5904262003146565b9050806200140257505050565b60006301e13380612710838560050154866004015462001423919062003124565b6200142f919062003124565b6200143b919062003101565b62001447919062003101565b905060006127107f00000000000000000000000000000000000000000000000000000000000000006001600160a01b03166325ed3d446040518163ffffffff1660e01b815260040160206040518083038186803b158015620014a857600080fd5b505afa158015620014bd573d6000803e3d6000fd5b505050506040513d601f19601f82011682018060405250810190620014e3919062002e8c565b620014ef908462003124565b620014fb919062003101565b905060006200150b828462003146565b905082856004016000828254620015239190620030e6565b9250508190555081856006016000828254620015409190620030e6565b92505081905550808560020160008282546200155d9190620030e6565b90915550506040516354a0577160e01b81523060048201526000907f00000000000000000000000000000000000000000000000000000000000000006001600160a01b0316906354a057719060240160206040518083038186803b158015620015c557600080fd5b505afa158015620015da573d6000803e3d6000fd5b505050506040513d601f19601f8201168201806040525081019062001600919062002b3e565b600487810154600289015460058a015460018b01546040516370ebc61760e11b8152948501939093526024840191909152604483015260648201529091506001600160a01b0382169063e1d78c2e906084016040805180830381600087803b1580156200166c57600080fd5b505af115801562001681573d6000803e3d6000fd5b505050506040513d601f19601f82011682018060405250810190620016a7919062002ea6565b6001880155600590960195909555505050505050565b7f00000000000000000000000000000000000000000000000000000000000000006001600160a01b031663f887ea406040518163ffffffff1660e01b815260040160206040518083038186803b1580156200171757600080fd5b505afa1580156200172c573d6000803e3d6000fd5b505050506040513d601f19601f8201168201806040525081019062001752919062002b3e565b6001600160a01b0316336001600160a01b031614620017855760405162461bcd60e51b8152600401620005ef9062003044565b6200107d8383338462001ce1565b7f00000000000000000000000000000000000000000000000000000000000000006001600160a01b031663f887ea406040518163ffffffff1660e01b815260040160206040518083038186803b158015620017ed57600080fd5b505afa15801562001802573d6000803e3d6000fd5b505050506040513d601f19601f8201168201806040525081019062001828919062002b3e565b6001600160a01b0316336001600160a01b0316146200185b5760405162461bcd60e51b8152600401620005ef9062003044565b62000dd28383836200231d565b6060826200187681620013c9565b6000835167ffffffffffffffff811115620018955762001895620031d9565b604051908082528060200260200182016040528015620018bf578160200160208202803683370190505b50845190915060005b818110156200192e57620018f987878381518110620018eb57620018eb620031c3565b6020026020010151620026a8565b8382815181106200190e576200190e620031c3565b60209081029190910101528062001925816200318f565b915050620018c8565b509095945050505050565b7f00000000000000000000000000000000000000000000000000000000000000006001600160a01b031663f887ea406040518163ffffffff1660e01b815260040160206040518083038186803b1580156200199357600080fd5b505afa158015620019a8573d6000803e3d6000fd5b505050506040513d601f19601f82011682018060405250810190620019ce919062002b3e565b6001600160a01b0316336001600160a01b03161462001a015760405162461bcd60e51b8152600401620005ef9062003044565b62000dd28383338462001e96565b83338562001a1d81620013c9565b62001a2b87333389620020bf565b604051633a04425160e11b81526001600160a01b0386169063740884a29062001a5d9033908a90899060040162002f4a565b600060405180830381600087803b15801562001a7857600080fd5b505af115801562001a8d573d6000803e3d6000fd5b5050604051631295de1f60e11b81523060048201527f00000000000000000000000000000000000000000000000000000000000000006001600160a01b0316935063252bbc3e925060240190505b60206040518083038186803b15801562001af457600080fd5b505afa15801562001b09573d6000803e3d6000fd5b505050506040513d601f19601f8201168201806040525081019062001b2f919062002e8c565b62001b3b83836200123b565b101562001b5c5760405162461bcd60e51b8152600401620005ef9062003000565b505050505050565b7f00000000000000000000000000000000000000000000000000000000000000006001600160a01b031663f887ea406040518163ffffffff1660e01b815260040160206040518083038186803b15801562001bbe57600080fd5b505afa15801562001bd3573d6000803e3d6000fd5b505050506040513d601f19601f8201168201806040525081019062001bf9919062002b3e565b6001600160a01b0316336001600160a01b03161462001c2c5760405162461bcd60e51b8152600401620005ef9062003044565b83838562001c3a81620013c9565b62001c4887878787620020bf565b50604051631295de1f60e11b81523060048201527f00000000000000000000000000000000000000000000000000000000000000006001600160a01b03169063252bbc3e9060240162001adb565b62000de58233836200231d565b600081158062001cb1575082155b1562001cc057506000620013c2565b8162001ccd848662003124565b62001cd9919062003101565b949350505050565b60006002600054141562001d095760405162461bcd60e51b8152600401620005ef906200307b565b60026000558462001d1a81620013c9565b6001600160a01b03861660009081526002602052604081209060001985141562001d7957506001600160a01b03861660009081526008820160205260409020546004820154600383015462001d7191839162001ca3565b945062001d93565b6004820154600383015462001d909187916200284b565b90505b6001600160a01b03871660009081526008830160205260408120805483929062001dbf90849062003146565b925050819055508082600301600082825462001ddc919062003146565b925050819055508482600401600082825462001df9919062003146565b925050819055508482600701600082825462001e169190620030e6565b92505081905550866001600160a01b0316886001600160a01b03167f05f2eeda0e08e4b437f487c8d7d29b14537d15e3488170dc3de5dbdf8dac46848760405162001e6391815260200190565b60405180910390a360015462001e85906001600160a01b031687308862002874565b505060016000555090949350505050565b6002600054141562001ebc5760405162461bcd60e51b8152600401620005ef906200307b565b60026000558362001ecd81620013c9565b600062001ed9620006f7565b60015490915062001ef6906001600160a01b031685308662002874565b600062001f02620006f7565b6001600160a01b038816600090815260026020526040902090915062001f29838362003146565b60028201548254604080516318160ddd60e01b8152905193985060009362001fc093926001600160a01b0316916318160ddd916004808301926020929190829003018186803b15801562001f7c57600080fd5b505afa15801562001f91573d6000803e3d6000fd5b505050506040513d601f19601f8201168201806040525081019062001fb7919062002e8c565b8891906200284b565b90508582600201600082825462001fd89190620030e6565b925050819055508582600701600082825462001ff59190620030e6565b909155505081546040516340c10f1960e01b81526001600160a01b038a8116600483015260248201849052909116906340c10f1990604401600060405180830381600087803b1580156200204857600080fd5b505af11580156200205d573d6000803e3d6000fd5b50505050876001600160a01b0316896001600160a01b03167f5548c837ab068cf56a2c2479df0882a4922fd203edb7517321831d95078c5f6288604051620020a791815260200190565b60405180910390a35050600160005550505050505050565b60026000541415620020e55760405162461bcd60e51b8152600401620005ef906200307b565b600260008181556001600160a01b0386168152602091909152604090206007810154821115620021585760405162461bcd60e51b815260206004820152601e60248201527f53696c6f4272696467653a206c69717569646974792073686f727461676500006044820152606401620005ef565b60006200216583620012fe565b905060006200218d836004015484600301548487620021859190620030e6565b91906200284b565b6001600160a01b0387166000908152600885016020526040812080549293508392909190620021be908490620030e6565b9250508190555080836003016000828254620021db9190620030e6565b90915550620021ed90508285620030e6565b836004016000828254620022029190620030e6565b92505081905550818360060160008282546200221f9190620030e6565b92505081905550838360070160008282546200223c919062003146565b92505081905550856001600160a01b0316876001600160a01b03167f312a5e5e1079f5dda4e95dbbd0b908b291fd5b992ef22073643ab691572c5b52866040516200228991815260200190565b60405180910390a3600154620022aa906001600160a01b03168686620022b8565b505060016000555050505050565b6040516001600160a01b03831660248201526044810182905262000dd290849063a9059cbb60e01b906064015b60408051601f198184030181529190526020810180516001600160e01b03166001600160e01b031990931692909217909152620028ae565b60026000541415620023435760405162461bcd60e51b8152600401620005ef906200307b565b60026000558282816200235681620013c9565b6001600160a01b0386166000908152600260205260408120906000198614156200245e5781546040516370a0823160e01b81526001600160a01b038981166004830152909116906370a082319060240160206040518083038186803b158015620023bf57600080fd5b505afa158015620023d4573d6000803e3d6000fd5b505050506040513d601f19601f82011682018060405250810190620023fa919062002e8c565b90506200245682600201548360000160009054906101000a90046001600160a01b03166001600160a01b03166318160ddd6040518163ffffffff1660e01b815260040160206040518083038186803b1580156200086f57600080fd5b9550620024ae565b60028201548254604080516318160ddd60e01b81529051620024ab93926001600160a01b0316916318160ddd916004808301926020929190829003018186803b15801562001f7c57600080fd5b90505b85826002016000828254620024c4919062003146565b9250508190555085826007016000828254620024e1919062003146565b90915550508154604051632770a7eb60e21b81526001600160a01b0389811660048301526024820184905290911690639dc29fac90604401600060405180830381600087803b1580156200253457600080fd5b505af115801562002549573d6000803e3d6000fd5b50505050866001600160a01b0316886001600160a01b03167f9b1bfa7fa9ee420a16e124f794c35ac9f90472acc99140eb2f6447c714cad8eb886040516200259391815260200190565b60405180910390a3600154620025b4906001600160a01b03168888620022b8565b50506040516338b51ce160e01b81526001600160a01b038381166004830152841691506338b51ce190602401602060405180830381600087803b158015620025fb57600080fd5b505af115801562002610573d6000803e3d6000fd5b505050506040513d601f19601f8201168201806040525081019062002636919062002e4e565b6200269c5760405162461bcd60e51b815260206004820152602f60248201527f53696c6f427269646765506f6f6c3a206e6f7420736f6c7665726e7420696e2060448201526e313934b3b232903837b9b4ba34b7b760891b6064820152608401620005ef565b50506001600055505050565b600060026000541415620026d05760405162461bcd60e51b8152600401620005ef906200307b565b6002600055620026e183836200111f565b15620026f05750600062002840565b60006200270284843360001962001ce1565b604051630eaf8a1f60e11b81526001600160a01b03858116600483015233602483015291925090851690631d5f143e90604401602060405180830381600087803b1580156200275057600080fd5b505af115801562002765573d6000803e3d6000fd5b505050506040513d601f19601f820116820180604052508101906200278b919062002e8c565b9150826001600160a01b0316846001600160a01b03167ff3fa0eaee8f258c23b013654df25d1527f98a5c7ccd5e951dd77caca400ef9728385604051620027dc929190918252602082015260400190565b60405180910390a3620027f084846200111f565b6200283e5760405162461bcd60e51b815260206004820181905260248201527f53696c6f427269646765506f6f6c3a2075736572206e6f7420736f6c76656e746044820152606401620005ef565b505b600160005592915050565b600081158062002859575082155b1562002867575082620013c2565b8262001ccd838662003124565b6040516001600160a01b03808516602483015283166044820152606481018290526200107d9085906323b872dd60e01b90608401620022e5565b600062002905826040518060400160405280602081526020017f5361666545524332303a206c6f772d6c6576656c2063616c6c206661696c6564815250856001600160a01b0316620029879092919063ffffffff16565b80519091501562000dd2578080602001905181019062002926919062002e4e565b62000dd25760405162461bcd60e51b815260206004820152602a60248201527f5361666545524332303a204552433230206f7065726174696f6e20646964206e6044820152691bdd081cdd58d8d9595960b21b6064820152608401620005ef565b606062001cd9848460008585843b620029e35760405162461bcd60e51b815260206004820152601d60248201527f416464726573733a2063616c6c20746f206e6f6e2d636f6e74726163740000006044820152606401620005ef565b600080866001600160a01b0316858760405162002a01919062002ef9565b60006040518083038185875af1925050503d806000811462002a40576040519150601f19603f3d011682016040523d82523d6000602084013e62002a45565b606091505b509150915062000db98282866060831562002a62575081620013c2565b82511562002a735782518084602001fd5b8160405162461bcd60e51b8152600401620005ef919062002fc2565b61126a806200320983390190565b600067ffffffffffffffff83111562002aba5762002aba620031d9565b62002acf601f8401601f1916602001620030b2565b905082815283838301111562002ae457600080fd5b828260208301376000602084830101529392505050565b600082601f83011262002b0d57600080fd5b620013c28383356020850162002a9d565b60006020828403121562002b3157600080fd5b8135620013c281620031ef565b60006020828403121562002b5157600080fd5b8151620013c281620031ef565b6000806040838503121562002b7257600080fd5b823562002b7f81620031ef565b9150602083013562002b9181620031ef565b809150509250929050565b6000806000806080858703121562002bb357600080fd5b843562002bc081620031ef565b9350602085013562002bd281620031ef565b9250604085013562002be481620031ef565b9396929550929360600135925050565b60008060006060848603121562002c0a57600080fd5b833562002c1781620031ef565b9250602084013562002c2981620031ef565b929592945050506040919091013590565b6000806040838503121562002c4e57600080fd5b823562002c5b81620031ef565b915060208381013567ffffffffffffffff8082111562002c7a57600080fd5b818601915086601f83011262002c8f57600080fd5b81358181111562002ca45762002ca4620031d9565b8060051b915062002cb7848301620030b2565b8181528481019084860184860187018b101562002cd357600080fd5b600095505b8386101562002d06578035945062002cf085620031ef565b8483526001959095019491860191860162002cd8565b508096505050505050509250929050565b60008060006060848603121562002d2d57600080fd5b833562002d3a81620031ef565b9250602084013567ffffffffffffffff8082111562002d5857600080fd5b62002d668783880162002afb565b9350604086013591508082111562002d7d57600080fd5b5062002d8c8682870162002afb565b9150509250925092565b6000806040838503121562002daa57600080fd5b823562002db781620031ef565b946020939093013593505050565b6000806000806080858703121562002ddc57600080fd5b843562002de981620031ef565b935060208501359250604085013562002e0281620031ef565b9150606085013567ffffffffffffffff81111562002e1f57600080fd5b8501601f8101871362002e3157600080fd5b62002e428782356020840162002a9d565b91505092959194509250565b60006020828403121562002e6157600080fd5b81518015158114620013c257600080fd5b60006020828403121562002e8557600080fd5b5035919050565b60006020828403121562002e9f57600080fd5b5051919050565b6000806040838503121562002eba57600080fd5b505080516020909101519092909150565b6000815180845262002ee581602086016020860162003160565b601f01601f19169290920160200192915050565b6000825162002f0d81846020870162003160565b9190910192915050565b6000835162002f2b81846020880162003160565b83519083019062002f4181836020880162003160565b01949350505050565b60018060a01b038416815282602082015260606040820152600062002f73606083018462002ecb565b95945050505050565b6020808252825182820181905260009190848201906040850190845b8181101562002fb65783518352928401929184019160010162002f98565b50909695505050505050565b602081526000620013c2602083018462002ecb565b60408152600062002fec604083018562002ecb565b828103602084015262002f73818562002ecb565b60208082526024908201527f53696c6f4272696467653a2021626f72726f77436f6c6c61746572616c697a616040820152633a34b7b760e11b606082015260800190565b6020808252601a908201527f53696c6f427269646765506f6f6c3a206f6e6c79526f75746572000000000000604082015260600190565b6020808252601f908201527f5265656e7472616e637947756172643a207265656e7472616e742063616c6c00604082015260600190565b604051601f8201601f1916810167ffffffffffffffff81118282101715620030de57620030de620031d9565b604052919050565b60008219821115620030fc57620030fc620031ad565b500190565b6000826200311f57634e487b7160e01b600052601260045260246000fd5b500490565b6000816000190483118215151615620031415762003141620031ad565b500290565b6000828210156200315b576200315b620031ad565b500390565b60005b838110156200317d57818101518382015260200162003163565b838111156200107d5750506000910152565b6000600019821415620031a657620031a6620031ad565b5060010190565b634e487b7160e01b600052601160045260246000fd5b634e487b7160e01b600052603260045260246000fd5b634e487b7160e01b600052604160045260246000fd5b6001600160a01b03811681146200320557600080fd5b5056fe60806040523480156200001157600080fd5b506040516200126a3803806200126a83398101604081905262000034916200023b565b8151829082906200004d906003906020850190620000de565b50805162000063906004906020840190620000de565b505050620000806200007a6200008860201b60201c565b6200008c565b5050620002f8565b3390565b600580546001600160a01b038381166001600160a01b0319831681179093556040519116919082907f8be0079c531659141344cd1fd0a4f28419497f9722a3daafe3b4186f6b6457e090600090a35050565b828054620000ec90620002a5565b90600052602060002090601f0160209004810192826200011057600085556200015b565b82601f106200012b57805160ff19168380011785556200015b565b828001600101855582156200015b579182015b828111156200015b5782518255916020019190600101906200013e565b50620001699291506200016d565b5090565b5b808211156200016957600081556001016200016e565b600082601f8301126200019657600080fd5b81516001600160401b0380821115620001b357620001b3620002e2565b604051601f8301601f19908116603f01168101908282118183101715620001de57620001de620002e2565b81604052838152602092508683858801011115620001fb57600080fd5b600091505b838210156200021f578582018301518183018401529082019062000200565b83821115620002315760008385830101525b9695505050505050565b600080604083850312156200024f57600080fd5b82516001600160401b03808211156200026757600080fd5b620002758683870162000184565b935060208501519150808211156200028c57600080fd5b506200029b8582860162000184565b9150509250929050565b600181811c90821680620002ba57607f821691505b60208210811415620002dc57634e487b7160e01b600052602260045260246000fd5b50919050565b634e487b7160e01b600052604160045260246000fd5b610f6280620003086000396000f3fe608060405234801561001057600080fd5b506004361061012c5760003560e01c8063715018a6116100ad578063a457c2d711610071578063a457c2d71461026d578063a9059cbb14610280578063dd62ed3e14610293578063e30c3978146102cc578063f2fde38b146102dd57600080fd5b8063715018a61461021d57806379ba5097146102255780638da5cb5b1461022d57806395d89b41146102525780639dc29fac1461025a57600080fd5b80633278c694116100f45780633278c694146101a657806333bebb77146101bb57806339509351146101ce57806340c10f19146101e157806370a08231146101f457600080fd5b806306fdde0314610131578063095ea7b31461014f57806318160ddd1461017257806323b872dd14610184578063313ce56714610197575b600080fd5b6101396102f0565b6040516101469190610e22565b60405180910390f35b61016261015d366004610df8565b610382565b6040519015158152602001610146565b6002545b604051908152602001610146565b610162610192366004610dbc565b610398565b60405160128152602001610146565b6101b96101b4366004610d67565b610447565b005b6101626101c9366004610dbc565b6104e4565b6101626101dc366004610df8565b610526565b6101b96101ef366004610df8565b610562565b610176610202366004610d67565b6001600160a01b031660009081526020819052604090205490565b6101b961059a565b6101b96105d0565b6005546001600160a01b03165b6040516001600160a01b039091168152602001610146565b610139610666565b6101b9610268366004610df8565b610675565b61016261027b366004610df8565b6106a9565b61016261028e366004610df8565b610738565b6101766102a1366004610d89565b6001600160a01b03918216600090815260016020908152604080832093909416825291909152205490565b6006546001600160a01b031661023a565b6101b96102eb366004610d67565b610745565b6060600380546102ff90610edb565b80601f016020809104026020016040519081016040528092919081815260200182805461032b90610edb565b80156103785780601f1061034d57610100808354040283529160200191610378565b820191906000526020600020905b81548152906001019060200180831161035b57829003601f168201915b5050505050905090565b600061038f3384846107e0565b50600192915050565b60006103a5848484610905565b6001600160a01b03841660009081526001602090815260408083203384529091529020548281101561042f5760405162461bcd60e51b815260206004820152602860248201527f45524332303a207472616e7366657220616d6f756e74206578636565647320616044820152676c6c6f77616e636560c01b60648201526084015b60405180910390fd5b61043c85338584036107e0565b506001949350505050565b6005546001600160a01b031633146104715760405162461bcd60e51b815260040161042690610e77565b806001600160a01b031661048d6005546001600160a01b031690565b6001600160a01b03167f3c672e6c16e239c29e969deaf4eae15d7002350bf5490175e7481155af04c83a60405160405180910390a3600680546001600160a01b0319166001600160a01b0392909216919091179055565b6005546000906001600160a01b031633146105115760405162461bcd60e51b815260040161042690610e77565b61051c848484610905565b5060019392505050565b3360008181526001602090815260408083206001600160a01b0387168452909152812054909161038f91859061055d908690610eac565b6107e0565b6005546001600160a01b0316331461058c5760405162461bcd60e51b815260040161042690610e77565b6105968282610ad4565b5050565b6005546001600160a01b031633146105c45760405162461bcd60e51b815260040161042690610e77565b6105ce6000610bb3565b565b6006546001600160a01b0316331461063a5760405162461bcd60e51b815260206004820152602760248201527f4f776e61626c653a2063616c6c6572206973206e6f74207468652070656e64696044820152663733a7bbb732b960c91b6064820152608401610426565b61065461064f6006546001600160a01b031690565b610bb3565b600680546001600160a01b0319169055565b6060600480546102ff90610edb565b6005546001600160a01b0316331461069f5760405162461bcd60e51b815260040161042690610e77565b6105968282610c05565b3360009081526001602090815260408083206001600160a01b03861684529091528120548281101561072b5760405162461bcd60e51b815260206004820152602560248201527f45524332303a2064656372656173656420616c6c6f77616e63652062656c6f77604482015264207a65726f60d81b6064820152608401610426565b61051c33858584036107e0565b600061038f338484610905565b6005546001600160a01b0316331461076f5760405162461bcd60e51b815260040161042690610e77565b6001600160a01b0381166107d45760405162461bcd60e51b815260206004820152602660248201527f4f776e61626c653a206e6577206f776e657220697320746865207a65726f206160448201526564647265737360d01b6064820152608401610426565b6107dd81610bb3565b50565b6001600160a01b0383166108425760405162461bcd60e51b8152602060048201526024808201527f45524332303a20617070726f76652066726f6d20746865207a65726f206164646044820152637265737360e01b6064820152608401610426565b6001600160a01b0382166108a35760405162461bcd60e51b815260206004820152602260248201527f45524332303a20617070726f766520746f20746865207a65726f206164647265604482015261737360f01b6064820152608401610426565b6001600160a01b0383811660008181526001602090815260408083209487168084529482529182902085905590518481527f8c5be1e5ebec7d5bd14f71427d1e84f3dd0314c0f7b2291e5b200ac8c7c3b92591015b60405180910390a3505050565b6001600160a01b0383166109695760405162461bcd60e51b815260206004820152602560248201527f45524332303a207472616e736665722066726f6d20746865207a65726f206164604482015264647265737360d81b6064820152608401610426565b6001600160a01b0382166109cb5760405162461bcd60e51b815260206004820152602360248201527f45524332303a207472616e7366657220746f20746865207a65726f206164647260448201526265737360e81b6064820152608401610426565b6001600160a01b03831660009081526020819052604090205481811015610a435760405162461bcd60e51b815260206004820152602660248201527f45524332303a207472616e7366657220616d6f756e7420657863656564732062604482015265616c616e636560d01b6064820152608401610426565b6001600160a01b03808516600090815260208190526040808220858503905591851681529081208054849290610a7a908490610eac565b92505081905550826001600160a01b0316846001600160a01b03167fddf252ad1be2c89b69c2b068fc378daa952ba7f163c4a11628f55a4df523b3ef84604051610ac691815260200190565b60405180910390a350505050565b6001600160a01b038216610b2a5760405162461bcd60e51b815260206004820152601f60248201527f45524332303a206d696e7420746f20746865207a65726f2061646472657373006044820152606401610426565b8060026000828254610b3c9190610eac565b90915550506001600160a01b03821660009081526020819052604081208054839290610b69908490610eac565b90915550506040518181526001600160a01b038316906000907fddf252ad1be2c89b69c2b068fc378daa952ba7f163c4a11628f55a4df523b3ef9060200160405180910390a35050565b600580546001600160a01b038381166001600160a01b0319831681179093556040519116919082907f8be0079c531659141344cd1fd0a4f28419497f9722a3daafe3b4186f6b6457e090600090a35050565b6001600160a01b038216610c655760405162461bcd60e51b815260206004820152602160248201527f45524332303a206275726e2066726f6d20746865207a65726f206164647265736044820152607360f81b6064820152608401610426565b6001600160a01b03821660009081526020819052604090205481811015610cd95760405162461bcd60e51b815260206004820152602260248201527f45524332303a206275726e20616d6f756e7420657863656564732062616c616e604482015261636560f01b6064820152608401610426565b6001600160a01b0383166000908152602081905260408120838303905560028054849290610d08908490610ec4565b90915550506040518281526000906001600160a01b038516907fddf252ad1be2c89b69c2b068fc378daa952ba7f163c4a11628f55a4df523b3ef906020016108f8565b80356001600160a01b0381168114610d6257600080fd5b919050565b600060208284031215610d7957600080fd5b610d8282610d4b565b9392505050565b60008060408385031215610d9c57600080fd5b610da583610d4b565b9150610db360208401610d4b565b90509250929050565b600080600060608486031215610dd157600080fd5b610dda84610d4b565b9250610de860208501610d4b565b9150604084013590509250925092565b60008060408385031215610e0b57600080fd5b610e1483610d4b565b946020939093013593505050565b600060208083528351808285015260005b81811015610e4f57858101830151858201604001528201610e33565b81811115610e61576000604083870101525b50601f01601f1916929092016040019392505050565b6020808252818101527f4f776e61626c653a2063616c6c6572206973206e6f7420746865206f776e6572604082015260600190565b60008219821115610ebf57610ebf610f16565b500190565b600082821015610ed657610ed6610f16565b500390565b600181811c90821680610eef57607f821691505b60208210811415610f1057634e487b7160e01b600052602260045260246000fd5b50919050565b634e487b7160e01b600052601160045260246000fdfea26469706673582212204054dc0336c71ac7a5912958bffeb43380718ad832ce108ef436d16ca81360a764736f6c63430008070033a264697066735822122028b4924d7d4ed2ec5a2d5fd679ed9397516ce201245d9ac9dd3101c89f05025664736f6c63430008070033",
  "devdoc": {
    "kind": "dev",
    "methods": {
      "getCollateralValue(address,address)": {
        "details": "value of collateral (asset) provided by user"
      },
      "getCollateralization(address,address)": {
        "details": "ratio between value borrowed by user in this silo to collateral value provided in bridge pool for this silo"
      },
      "getDebtValue(address,address)": {
        "details": "value of asset borrowed by user"
      }
    },
    "version": 1
  },
  "userdoc": {
    "kind": "user",
    "methods": {
      "emergencyExit()": {
        "notice": "utility for hackathon only :)"
      }
    },
    "version": 1
  },
  "storageLayout": {
    "storage": [
      {
        "astId": 732,
        "contract": "contracts/SiloBridgePool.sol:SiloBridgePool",
        "label": "_status",
        "offset": 0,
        "slot": "0",
        "type": "t_uint256"
      },
      {
        "astId": 5382,
        "contract": "contracts/SiloBridgePool.sol:SiloBridgePool",
        "label": "asset",
        "offset": 0,
        "slot": "1",
        "type": "t_address"
      },
      {
        "astId": 5409,
        "contract": "contracts/SiloBridgePool.sol:SiloBridgePool",
        "label": "state",
        "offset": 0,
        "slot": "2",
        "type": "t_mapping(t_address,t_struct(BridgeSiloStorage)5404_storage)"
      }
    ],
    "types": {
      "t_address": {
        "encoding": "inplace",
        "label": "address",
        "numberOfBytes": "20"
      },
      "t_contract(BridgeERC20)8947": {
        "encoding": "inplace",
        "label": "contract BridgeERC20",
        "numberOfBytes": "20"
      },
      "t_mapping(t_address,t_struct(BridgeSiloStorage)5404_storage)": {
        "encoding": "mapping",
        "key": "t_address",
        "label": "mapping(address => struct SiloBridgePool.BridgeSiloStorage)",
        "numberOfBytes": "32",
        "value": "t_struct(BridgeSiloStorage)5404_storage"
      },
      "t_mapping(t_address,t_uint256)": {
        "encoding": "mapping",
        "key": "t_address",
        "label": "mapping(address => uint256)",
        "numberOfBytes": "32",
        "value": "t_uint256"
      },
      "t_struct(BridgeSiloStorage)5404_storage": {
        "encoding": "inplace",
        "label": "struct SiloBridgePool.BridgeSiloStorage",
        "members": [
          {
            "astId": 5385,
            "contract": "contracts/SiloBridgePool.sol:SiloBridgePool",
            "label": "token",
            "offset": 0,
            "slot": "0",
            "type": "t_contract(BridgeERC20)8947"
          },
          {
            "astId": 5387,
            "contract": "contracts/SiloBridgePool.sol:SiloBridgePool",
            "label": "lastUpdateTimestamp",
            "offset": 0,
            "slot": "1",
            "type": "t_uint256"
          },
          {
            "astId": 5389,
            "contract": "contracts/SiloBridgePool.sol:SiloBridgePool",
            "label": "totalDeposits",
            "offset": 0,
            "slot": "2",
            "type": "t_uint256"
          },
          {
            "astId": 5391,
            "contract": "contracts/SiloBridgePool.sol:SiloBridgePool",
            "label": "totalBorrowShare",
            "offset": 0,
            "slot": "3",
            "type": "t_uint256"
          },
          {
            "astId": 5393,
            "contract": "contracts/SiloBridgePool.sol:SiloBridgePool",
            "label": "totalBorrowAmount",
            "offset": 0,
            "slot": "4",
            "type": "t_uint256"
          },
          {
            "astId": 5395,
            "contract": "contracts/SiloBridgePool.sol:SiloBridgePool",
            "label": "interestRate",
            "offset": 0,
            "slot": "5",
            "type": "t_uint256"
          },
          {
            "astId": 5397,
            "contract": "contracts/SiloBridgePool.sol:SiloBridgePool",
            "label": "protocolFees",
            "offset": 0,
            "slot": "6",
            "type": "t_uint256"
          },
          {
            "astId": 5399,
            "contract": "contracts/SiloBridgePool.sol:SiloBridgePool",
            "label": "liquidity",
            "offset": 0,
            "slot": "7",
            "type": "t_uint256"
          },
          {
            "astId": 5403,
            "contract": "contracts/SiloBridgePool.sol:SiloBridgePool",
            "label": "borrowShare",
            "offset": 0,
            "slot": "8",
            "type": "t_mapping(t_address,t_uint256)"
          }
        ],
        "numberOfBytes": "288"
      },
      "t_uint256": {
        "encoding": "inplace",
        "label": "uint256",
        "numberOfBytes": "32"
      }
    }
  }
}