{
  "address": "0x43C06bD9a8D4F08f4F1a863b2108f22794FAEc18",
  "abi": [
    {
      "inputs": [
        {
          "internalType": "uint256",
          "name": "_borrowCollateralization",
          "type": "uint256"
        },
        {
          "internalType": "uint256",
          "name": "_minCollateralization",
          "type": "uint256"
        },
        {
          "internalType": "address",
          "name": "_bridgeAsset",
          "type": "address"
        }
      ],
      "stateMutability": "nonpayable",
      "type": "constructor"
    },
    {
      "anonymous": false,
      "inputs": [
        {
          "indexed": false,
          "internalType": "address",
          "name": "oldPool",
          "type": "address"
        },
        {
          "indexed": false,
          "internalType": "address",
          "name": "newPool",
          "type": "address"
        }
      ],
      "name": "BridgePoolUpdate",
      "type": "event"
    },
    {
      "anonymous": false,
      "inputs": [
        {
          "indexed": false,
          "internalType": "uint256",
          "name": "oldEntryFee",
          "type": "uint256"
        },
        {
          "indexed": false,
          "internalType": "uint256",
          "name": "newEntryFee",
          "type": "uint256"
        },
        {
          "indexed": false,
          "internalType": "uint256",
          "name": "oldProtocolShareFee",
          "type": "uint256"
        },
        {
          "indexed": false,
          "internalType": "uint256",
          "name": "newProtocolShareFee",
          "type": "uint256"
        },
        {
          "indexed": false,
          "internalType": "uint256",
          "name": "oldProtocolLiquidationFee",
          "type": "uint256"
        },
        {
          "indexed": false,
          "internalType": "uint256",
          "name": "newProtocolLiquidationFee",
          "type": "uint256"
        }
      ],
      "name": "FeeUpdate",
      "type": "event"
    },
    {
      "anonymous": false,
      "inputs": [
        {
          "indexed": false,
          "internalType": "address",
          "name": "oldModel",
          "type": "address"
        },
        {
          "indexed": false,
          "internalType": "address",
          "name": "newModel",
          "type": "address"
        }
      ],
      "name": "InterestRateModel",
      "type": "event"
    },
    {
      "anonymous": false,
      "inputs": [
        {
          "indexed": true,
          "internalType": "address",
          "name": "silo",
          "type": "address"
        },
        {
          "indexed": true,
          "internalType": "address",
          "name": "asset",
          "type": "address"
        },
        {
          "indexed": false,
          "internalType": "string",
          "name": "name",
          "type": "string"
        },
        {
          "indexed": false,
          "internalType": "string",
          "name": "symbol",
          "type": "string"
        }
      ],
      "name": "NewSilo",
      "type": "event"
    },
    {
      "anonymous": false,
      "inputs": [
        {
          "indexed": false,
          "internalType": "address",
          "name": "oldOracle",
          "type": "address"
        },
        {
          "indexed": false,
          "internalType": "address",
          "name": "newOracle",
          "type": "address"
        }
      ],
      "name": "OracleUpdate",
      "type": "event"
    },
    {
      "anonymous": false,
      "inputs": [
        {
          "indexed": true,
          "internalType": "address",
          "name": "previousOwner",
          "type": "address"
        },
        {
          "indexed": true,
          "internalType": "address",
          "name": "newOwner",
          "type": "address"
        }
      ],
      "name": "OwnershipPending",
      "type": "event"
    },
    {
      "anonymous": false,
      "inputs": [
        {
          "indexed": true,
          "internalType": "address",
          "name": "previousOwner",
          "type": "address"
        },
        {
          "indexed": true,
          "internalType": "address",
          "name": "newOwner",
          "type": "address"
        }
      ],
      "name": "OwnershipTransferred",
      "type": "event"
    },
    {
      "anonymous": false,
      "inputs": [
        {
          "indexed": false,
          "internalType": "address",
          "name": "oldRouter",
          "type": "address"
        },
        {
          "indexed": false,
          "internalType": "address",
          "name": "newRouter",
          "type": "address"
        }
      ],
      "name": "RouterUpdate",
      "type": "event"
    },
    {
      "inputs": [],
      "name": "BASIS_POINTS",
      "outputs": [
        {
          "internalType": "uint256",
          "name": "",
          "type": "uint256"
        }
      ],
      "stateMutability": "view",
      "type": "function"
    },
    {
      "inputs": [],
      "name": "acceptOwnership",
      "outputs": [],
      "stateMutability": "nonpayable",
      "type": "function"
    },
    {
      "inputs": [],
      "name": "borrowCollateralization",
      "outputs": [
        {
          "internalType": "uint256",
          "name": "",
          "type": "uint256"
        }
      ],
      "stateMutability": "view",
      "type": "function"
    },
    {
      "inputs": [],
      "name": "bridgeAsset",
      "outputs": [
        {
          "internalType": "address",
          "name": "",
          "type": "address"
        }
      ],
      "stateMutability": "view",
      "type": "function"
    },
    {
      "inputs": [],
      "name": "bridgePool",
      "outputs": [
        {
          "internalType": "address",
          "name": "",
          "type": "address"
        }
      ],
      "stateMutability": "view",
      "type": "function"
    },
    {
      "inputs": [],
      "name": "entryFee",
      "outputs": [
        {
          "internalType": "uint256",
          "name": "",
          "type": "uint256"
        }
      ],
      "stateMutability": "view",
      "type": "function"
    },
    {
      "inputs": [
        {
          "internalType": "address",
          "name": "_silo",
          "type": "address"
        }
      ],
      "name": "getBorrowCollateralization",
      "outputs": [
        {
          "internalType": "uint256",
          "name": "",
          "type": "uint256"
        }
      ],
      "stateMutability": "view",
      "type": "function"
    },
    {
      "inputs": [
        {
          "internalType": "address",
          "name": "_silo",
          "type": "address"
        }
      ],
      "name": "getInterestRateModel",
      "outputs": [
        {
          "internalType": "address",
          "name": "",
          "type": "address"
        }
      ],
      "stateMutability": "view",
      "type": "function"
    },
    {
      "inputs": [
        {
          "internalType": "address",
          "name": "_silo",
          "type": "address"
        }
      ],
      "name": "getMinCollateralization",
      "outputs": [
        {
          "internalType": "uint256",
          "name": "",
          "type": "uint256"
        }
      ],
      "stateMutability": "view",
      "type": "function"
    },
    {
      "inputs": [],
      "name": "interestRateModel",
      "outputs": [
        {
          "internalType": "address",
          "name": "",
          "type": "address"
        }
      ],
      "stateMutability": "view",
      "type": "function"
    },
    {
      "inputs": [
        {
          "internalType": "address",
          "name": "_silo",
          "type": "address"
        }
      ],
      "name": "isSilo",
      "outputs": [
        {
          "internalType": "bool",
          "name": "",
          "type": "bool"
        }
      ],
      "stateMutability": "view",
      "type": "function"
    },
    {
      "inputs": [],
      "name": "minCollateralization",
      "outputs": [
        {
          "internalType": "uint256",
          "name": "",
          "type": "uint256"
        }
      ],
      "stateMutability": "view",
      "type": "function"
    },
    {
      "inputs": [
        {
          "internalType": "address",
          "name": "_asset",
          "type": "address"
        },
        {
          "internalType": "address",
          "name": "_assetOracle",
          "type": "address"
        },
        {
          "internalType": "bytes",
          "name": "_oracleData",
          "type": "bytes"
        }
      ],
      "name": "newSilo",
      "outputs": [],
      "stateMutability": "nonpayable",
      "type": "function"
    },
    {
      "inputs": [],
      "name": "oracle",
      "outputs": [
        {
          "internalType": "address",
          "name": "",
          "type": "address"
        }
      ],
      "stateMutability": "view",
      "type": "function"
    },
    {
      "inputs": [],
      "name": "owner",
      "outputs": [
        {
          "internalType": "address",
          "name": "",
          "type": "address"
        }
      ],
      "stateMutability": "view",
      "type": "function"
    },
    {
      "inputs": [],
      "name": "pendingOwner",
      "outputs": [
        {
          "internalType": "address",
          "name": "",
          "type": "address"
        }
      ],
      "stateMutability": "view",
      "type": "function"
    },
    {
      "inputs": [],
      "name": "protocolLiquidationFee",
      "outputs": [
        {
          "internalType": "uint256",
          "name": "",
          "type": "uint256"
        }
      ],
      "stateMutability": "view",
      "type": "function"
    },
    {
      "inputs": [],
      "name": "protocolShareFee",
      "outputs": [
        {
          "internalType": "uint256",
          "name": "",
          "type": "uint256"
        }
      ],
      "stateMutability": "view",
      "type": "function"
    },
    {
      "inputs": [],
      "name": "renounceOwnership",
      "outputs": [],
      "stateMutability": "nonpayable",
      "type": "function"
    },
    {
      "inputs": [],
      "name": "router",
      "outputs": [
        {
          "internalType": "address",
          "name": "",
          "type": "address"
        }
      ],
      "stateMutability": "view",
      "type": "function"
    },
    {
      "inputs": [
        {
          "internalType": "address",
          "name": "_bridgePool",
          "type": "address"
        }
      ],
      "name": "setBridgePool",
      "outputs": [],
      "stateMutability": "nonpayable",
      "type": "function"
    },
    {
      "inputs": [
        {
          "internalType": "uint256",
          "name": "_entryFee",
          "type": "uint256"
        },
        {
          "internalType": "uint256",
          "name": "_protocolShareFee",
          "type": "uint256"
        },
        {
          "internalType": "uint256",
          "name": "_protocolLiquidationFee",
          "type": "uint256"
        }
      ],
      "name": "setFees",
      "outputs": [],
      "stateMutability": "nonpayable",
      "type": "function"
    },
    {
      "inputs": [
        {
          "internalType": "address",
          "name": "_interestRateModel",
          "type": "address"
        }
      ],
      "name": "setInterestRateModel",
      "outputs": [],
      "stateMutability": "nonpayable",
      "type": "function"
    },
    {
      "inputs": [
        {
          "internalType": "address",
          "name": "_oracle",
          "type": "address"
        }
      ],
      "name": "setOracle",
      "outputs": [],
      "stateMutability": "nonpayable",
      "type": "function"
    },
    {
      "inputs": [
        {
          "internalType": "address",
          "name": "_router",
          "type": "address"
        }
      ],
      "name": "setRouter",
      "outputs": [],
      "stateMutability": "nonpayable",
      "type": "function"
    },
    {
      "inputs": [
        {
          "internalType": "address",
          "name": "",
          "type": "address"
        }
      ],
      "name": "silo",
      "outputs": [
        {
          "internalType": "address",
          "name": "",
          "type": "address"
        }
      ],
      "stateMutability": "view",
      "type": "function"
    },
    {
      "inputs": [
        {
          "internalType": "address",
          "name": "",
          "type": "address"
        }
      ],
      "name": "siloReverse",
      "outputs": [
        {
          "internalType": "address",
          "name": "",
          "type": "address"
        }
      ],
      "stateMutability": "view",
      "type": "function"
    },
    {
      "inputs": [
        {
          "internalType": "address",
          "name": "newOwner",
          "type": "address"
        }
      ],
      "name": "transferOwnership",
      "outputs": [],
      "stateMutability": "nonpayable",
      "type": "function"
    },
    {
      "inputs": [
        {
          "internalType": "address",
          "name": "newPendingOwner",
          "type": "address"
        }
      ],
      "name": "transferPendingOwnership",
      "outputs": [],
      "stateMutability": "nonpayable",
      "type": "function"
    }
  ],
  "transactionHash": "0xa21dae245d90561edb2cc3fe7c01d2966374bd848e2eadb8d8b8a8aa6f7d4905",
  "args": [
    "20000",
    "16000",
    "0x0d500B1d8E8eF31E21C99d1Db9A6444d3ADf1270"
  ],
  "solcInputHash": "ad3604c16830b09dacbe1e16d71c93a2",
  "bytecode": "0x608060405234801561001057600080fd5b50604051614b32380380614b3283398101604081905261002f916100b5565b61003833610065565b600292909255600355600480546001600160a01b0319166001600160a01b039092169190911790556100fb565b600080546001600160a01b038381166001600160a01b0319831681178455604051919092169283917f8be0079c531659141344cd1fd0a4f28419497f9722a3daafe3b4186f6b6457e09190a35050565b6000806000606084860312156100ca57600080fd5b83516020850151604086015191945092506001600160a01b03811681146100f057600080fd5b809150509250925092565b614a288061010a6000396000f3fe60806040523480156200001157600080fd5b5060043610620001f55760003560e01c80637adbf9731162000119578063cec10c1111620000af578063f16f41e8116200007a578063f16f41e8146200045a578063f2fde38b1462000464578063f3fdb15a146200047b578063f887ea40146200048f57600080fd5b8063cec10c11146200041d578063e1f1c4a71462000434578063e30c3978146200043e578063eafecffa146200045057600080fd5b80638bcd401611620000f05780638bcd401614620003d35780638da5cb5b14620003ea578063ba5d006714620003fc578063c0d78655146200040657600080fd5b80637adbf97314620003905780637dc0d1d014620003a757806383e7e0a014620003bb57600080fd5b8063450f8d28116200018f5780635e46bea511620001665780635e46bea5146200033c578063715018a61462000350578063791183d1146200035a57806379ba5097146200038657600080fd5b8063450f8d2814620002f05780634d877550146200030757806354a05771146200031b57600080fd5b806325458e0b11620001d057806325458e0b146200027157806325ed3d44146200028a5780633278c694146200029457806337f9a6bd14620002ab57600080fd5b8063072ea61c14620001fa57806312f0dcd81462000217578063252bbc3e1462000259575b600080fd5b6200020460055481565b6040519081526020015b60405180910390f35b620002486200022836600462000efb565b6001600160a01b039081166000908152600d602052604090205416151590565b60405190151581526020016200020e565b620002046200026a36600462000efb565b5060025490565b620002886200028236600462000f20565b620004a3565b005b6200020460065481565b62000288620002a536600462000efb565b62000889565b620002d7620002bc36600462000efb565b600c602052600090815260409020546001600160a01b031681565b6040516001600160a01b0390911681526020016200020e565b620002886200030136600462000efb565b6200092a565b600454620002d7906001600160a01b031681565b620002d76200032c36600462000efb565b506008546001600160a01b031690565b600954620002d7906001600160a01b031681565b62000288620009e9565b620002d76200036b36600462000efb565b600d602052600090815260409020546001600160a01b031681565b6200028862000a24565b62000288620003a136600462000efb565b62000abf565b600a54620002d7906001600160a01b031681565b62000204620003cc36600462000efb565b5060035490565b62000288620003e436600462000efb565b62000b7e565b6000546001600160a01b0316620002d7565b6200020460035481565b620002886200041736600462000efb565b62000c87565b620002886200042e3660046200104d565b62000d46565b6200020461271081565b6001546001600160a01b0316620002d7565b6200020460075481565b6200020460025481565b620002886200047536600462000efb565b62000dde565b600854620002d7906001600160a01b031681565b600b54620002d7906001600160a01b031681565b6004546001600160a01b0384811691161415620005075760405162461bcd60e51b815260206004820152601960248201527f53696c6f466163746f72793a206272696467652061737365740000000000000060448201526064015b60405180910390fd5b6001600160a01b038381166000908152600c60205260409020541615620005715760405162461bcd60e51b815260206004820152601860248201527f53696c6f466163746f72793a2073696c6f2065786973747300000000000000006044820152606401620004fe565b600060405180604001604052806005815260200164029b4b637960dd1b815250846001600160a01b03166306fdde036040518163ffffffff1660e01b815260040160006040518083038186803b158015620005cb57600080fd5b505afa158015620005e0573d6000803e3d6000fd5b505050506040513d6000823e601f3d908101601f191682016040526200060a919081019062000fcd565b6040516020016200061d929190620010a8565b604051602081830303815290604052905060006040518060400160405280600481526020016373696c6f60e01b815250856001600160a01b03166395d89b416040518163ffffffff1660e01b815260040160006040518083038186803b1580156200068757600080fd5b505afa1580156200069c573d6000803e3d6000fd5b505050506040513d6000823e601f3d908101601f19168201604052620006c6919081019062000fcd565b604051602001620006d9929190620010a8565b60405160208183030381529060405290506000858383604051620006fd9062000ed0565b6200070b9392919062001109565b604051809103906000f08015801562000728573d6000803e3d6000fd5b506001600160a01b038088166000818152600c6020908152604080832080549587166001600160a01b03199687168117909155808452600d909252918290208054909416831790935551929350917f8d69f1b2a9d562b521219e6bfdfc472a6d567c648f96fa78fd6218ab9c27184c90620007a790879087906200114d565b60405180910390a3600954604051620ebe3560e41b81526001600160a01b039091169062ebe35090620007e39084908790879060040162001109565b600060405180830381600087803b158015620007fe57600080fd5b505af115801562000813573d6000803e3d6000fd5b5050600a54604051635816a3c560e11b81526001600160a01b03909116925063b02d478a91506200084d90899089908990600401620010db565b600060405180830381600087803b1580156200086857600080fd5b505af11580156200087d573d6000803e3d6000fd5b50505050505050505050565b6000546001600160a01b03163314620008b65760405162461bcd60e51b8152600401620004fe9062001176565b806001600160a01b0316620008d36000546001600160a01b031690565b6001600160a01b03167f3c672e6c16e239c29e969deaf4eae15d7002350bf5490175e7481155af04c83a60405160405180910390a3600180546001600160a01b0319166001600160a01b0392909216919091179055565b6000546001600160a01b03163314620009575760405162461bcd60e51b8152600401620004fe9062001176565b6001600160a01b038116620009805760405162461bcd60e51b8152600401620004fe90620011ab565b600954604080516001600160a01b03928316815291831660208301527fc8cbf611d53cdc41bcf01185d8634e8176b4d2fd0615f093c1107a888af0eb03910160405180910390a1600980546001600160a01b0319166001600160a01b0392909216919091179055565b6000546001600160a01b0316331462000a165760405162461bcd60e51b8152600401620004fe9062001176565b62000a22600062000e80565b565b6001546001600160a01b0316331462000a905760405162461bcd60e51b815260206004820152602760248201527f4f776e61626c653a2063616c6c6572206973206e6f74207468652070656e64696044820152663733a7bbb732b960c91b6064820152608401620004fe565b62000aad62000aa76001546001600160a01b031690565b62000e80565b600180546001600160a01b0319169055565b6000546001600160a01b0316331462000aec5760405162461bcd60e51b8152600401620004fe9062001176565b6001600160a01b03811662000b155760405162461bcd60e51b8152600401620004fe90620011ab565b600a54604080516001600160a01b03928316815291831660208301527f93450534569bdbb3109b44eef77c9b236897f4caa4f201be10252d6462a56937910160405180910390a1600a80546001600160a01b0319166001600160a01b0392909216919091179055565b6000546001600160a01b0316331462000bab5760405162461bcd60e51b8152600401620004fe9062001176565b6001600160a01b03811662000c1e5760405162461bcd60e51b815260206004820152603260248201527f53696c6f466163746f72793a206e657720696e746572657374526174654d6f64604482015271656c206973207a65726f206164647265737360701b6064820152608401620004fe565b600854604080516001600160a01b03928316815291831660208301527f1248f8750c9f60e1f800102d9248fa767877fba538403657d414e2d25b6025ce910160405180910390a1600880546001600160a01b0319166001600160a01b0392909216919091179055565b6000546001600160a01b0316331462000cb45760405162461bcd60e51b8152600401620004fe9062001176565b6001600160a01b03811662000cdd5760405162461bcd60e51b8152600401620004fe90620011ab565b600b54604080516001600160a01b03928316815291831660208301527f363beda10ebf02584eda9ab4ca38e353bc57591b50714ba84692ed584280672d910160405180910390a1600b80546001600160a01b0319166001600160a01b0392909216919091179055565b6000546001600160a01b0316331462000d735760405162461bcd60e51b8152600401620004fe9062001176565b600554600654600754604080519384526020840187905283019190915260608201849052608082015260a081018290527fa3f1bea221509c108990ce42d4e5863cfc867e2278ddb0866dec442c2082fdcf9060c00160405180910390a1600592909255600655600755565b6000546001600160a01b0316331462000e0b5760405162461bcd60e51b8152600401620004fe9062001176565b6001600160a01b03811662000e725760405162461bcd60e51b815260206004820152602660248201527f4f776e61626c653a206e6577206f776e657220697320746865207a65726f206160448201526564647265737360d01b6064820152608401620004fe565b62000e7d8162000e80565b50565b600080546001600160a01b038381166001600160a01b0319831681178455604051919092169283917f8be0079c531659141344cd1fd0a4f28419497f9722a3daafe3b4186f6b6457e09190a35050565b613754806200129f83390190565b80356001600160a01b038116811462000ef657600080fd5b919050565b60006020828403121562000f0e57600080fd5b62000f198262000ede565b9392505050565b60008060006060848603121562000f3657600080fd5b62000f418462000ede565b925062000f516020850162000ede565b9150604084013567ffffffffffffffff81111562000f6e57600080fd5b8401601f8101861362000f8057600080fd5b803562000f9762000f91826200122a565b620011f6565b81815287602083850101111562000fad57600080fd5b816020840160208301376000602083830101528093505050509250925092565b60006020828403121562000fe057600080fd5b815167ffffffffffffffff81111562000ff857600080fd5b8201601f810184136200100a57600080fd5b80516200101b62000f91826200122a565b8181528560208385010111156200103157600080fd5b6200104482602083016020860162001255565b95945050505050565b6000806000606084860312156200106357600080fd5b505081359360208301359350604090920135919050565b600081518084526200109481602086016020860162001255565b601f01601f19169290920160200192915050565b60008351620010bc81846020880162001255565b835190830190620010d281836020880162001255565b01949350505050565b6001600160a01b0384811682528316602082015260606040820181905260009062001044908301846200107a565b6001600160a01b03841681526060602082018190526000906200112f908301856200107a565b82810360408401526200114381856200107a565b9695505050505050565b6040815260006200116260408301856200107a565b82810360208401526200104481856200107a565b6020808252818101527f4f776e61626c653a2063616c6c6572206973206e6f7420746865206f776e6572604082015260600190565b6020808252602b908201527f53696c6f466163746f72793a206e657720627269646765506f6f6c206973207a60408201526a65726f206164647265737360a81b606082015260800190565b604051601f8201601f1916810167ffffffffffffffff8111828210171562001222576200122262001288565b604052919050565b600067ffffffffffffffff82111562001247576200124762001288565b50601f01601f191660200190565b60005b838110156200127257818101518382015260200162001258565b8381111562001282576000848401525b50505050565b634e487b7160e01b600052604160045260246000fdfe60c06040523480156200001157600080fd5b506040516200375438038062003754833981016040819052620000349162000279565b8151829082906200004d9060039060208501906200011c565b508051620000639060049060208401906200011c565b50506001600555503360601b60a052600680546001600160a01b0319166001600160a01b0385169081179091556040805163313ce56760e01b8152905163313ce56791600480820192602092909190829003018186803b158015620000c757600080fd5b505afa158015620000dc573d6000803e3d6000fd5b505050506040513d601f19601f8201168201806040525081019062000102919062000303565b6200010f90600a62000378565b60805250620004a2915050565b8280546200012a9062000439565b90600052602060002090601f0160209004810192826200014e576000855562000199565b82601f106200016957805160ff191683800117855562000199565b8280016001018555821562000199579182015b82811115620001995782518255916020019190600101906200017c565b50620001a7929150620001ab565b5090565b5b80821115620001a75760008155600101620001ac565b600082601f830112620001d457600080fd5b81516001600160401b0380821115620001f157620001f16200048c565b604051601f8301601f19908116603f011681019082821181831017156200021c576200021c6200048c565b816040528381526020925086838588010111156200023957600080fd5b600091505b838210156200025d57858201830151818301840152908201906200023e565b838211156200026f5760008385830101525b9695505050505050565b6000806000606084860312156200028f57600080fd5b83516001600160a01b0381168114620002a757600080fd5b60208501519093506001600160401b0380821115620002c557600080fd5b620002d387838801620001c2565b93506040860151915080821115620002ea57600080fd5b50620002f986828701620001c2565b9150509250925092565b6000602082840312156200031657600080fd5b815160ff811681146200032857600080fd5b9392505050565b600181815b808511156200037057816000190482111562000354576200035462000476565b808516156200036257918102915b93841c939080029062000334565b509250929050565b60006200032860ff841683600082620003945750600162000433565b81620003a35750600062000433565b8160018114620003bc5760028114620003c757620003e7565b600191505062000433565b60ff841115620003db57620003db62000476565b50506001821b62000433565b5060208310610133831016604e8410600b84101617156200040c575081810a62000433565b6200041883836200032f565b80600019048211156200042f576200042f62000476565b0290505b92915050565b600181811c908216806200044e57607f821691505b602082108114156200047057634e487b7160e01b600052602260045260246000fd5b50919050565b634e487b7160e01b600052601160045260246000fd5b634e487b7160e01b600052604160045260246000fd5b60805160a05160601c6132046200055060003960008181610509015281816107180152818161086f015281816109fe01528181610ace01528181610bb601528181610d4201528181610ef401528181611031015281816110fb0152818161136401528181611478015281816116c90152818161182b01528181611866015281816119340152818161203f01526125c5015260008181610543015281816112460152611ad201526132046000f3fe608060405234801561001057600080fd5b50600436106102745760003560e01c80636912959911610151578063a985994b116100c3578063d429913411610087578063d429913414610565578063db518db214610578578063dd62ed3e1461058b578063e1f1c4a7146105c4578063e6a69ab8146105cd578063ebf5a908146105d857600080fd5b8063a985994b146104d1578063b6b55f25146104f1578063c45a015514610504578063c5ebeaec1461052b578063ce47696f1461053e57600080fd5b806395d89b411161011557806395d89b411461047f57806397904e4214610487578063a457c2d71461049a578063a6afed95146104ad578063a79660f2146104b5578063a9059cbb146104be57600080fd5b8063691295991461041e57806370a082311461043157806375dc7d8c1461045a5780637c3a00fd1461046d5780637d8820971461047657600080fd5b80632f4f21e2116101ea57806338d52e0f116101ae57806338d52e0f146103b357806339509351146103de5780633af9e669146103f15780634550079d146104045780635641ec031461040d5780635f48f44b1461041557600080fd5b80632f4f21e214610358578063308804411461036b578063313ce5671461037e578063371fd8e61461038d57806338b51ce1146103a057600080fd5b80631ad8b03b1161023c5780631ad8b03b146102e15780631d5f143e146102ea57806323a27622146102fd57806323b872dd146103125780632c9cbca2146103255780632e1a7d4d1461034557600080fd5b806306fdde0314610279578063095ea7b31461029757806314bcec9f146102ba57806318160ddd146102d15780631a686502146102d9575b600080fd5b6102816105eb565b60405161028e9190612fb6565b60405180910390f35b6102aa6102a5366004612cf5565b61067d565b604051901515815260200161028e565b6102c360075481565b60405190815260200161028e565b6002546102c3565b6102c3610693565b6102c3600c5481565b6102c36102f8366004612c7b565b610714565b61031061030b366004612cf5565b610842565b005b6102aa610320366004612cb4565b610943565b6102c3610333366004612c41565b600d6020526000908152604090205481565b610310610353366004612dfc565b6109ef565b610310610366366004612cf5565b6109fc565b610310610379366004612cb4565b610acc565b6040516012815260200161028e565b61031061039b366004612dfc565b610c96565b6102aa6103ae366004612c41565b610cd2565b6006546103c6906001600160a01b031681565b6040516001600160a01b03909116815260200161028e565b6102aa6103ec366004612cf5565b610dd9565b6102c36103ff366004612c41565b610e15565b6102c3600a5481565b610310610e3d565b6102c360001981565b6102c361042c366004612c41565b610ed3565b6102c361043f366004612c41565b6001600160a01b031660009081526020819052604090205490565b6102c3610468366004612dfc565b61102c565b6102c3600b5481565b6102c360085481565b6102816110e7565b6102c3610495366004612c41565b6110f6565b6102aa6104a8366004612cf5565b61126f565b610310611308565b6102c360095481565b6102aa6104cc366004612cf5565b6115a2565b6104e46104df366004612d21565b6115af565b60405161028e9190612f72565b6103106104ff366004612dfc565b611695565b6103c67f000000000000000000000000000000000000000000000000000000000000000081565b610310610539366004612dfc565b6116a0565b6102c37f000000000000000000000000000000000000000000000000000000000000000081565b610310610573366004612e2e565b6117a2565b610310610586366004612cf5565b611864565b6102c3610599366004612c7b565b6001600160a01b03918216600090815260016020908152604080832093909416825291909152205490565b6102c361271081565b6102c36301e1338081565b6102c36105e6366004612c41565b61192f565b6060600380546105fa90613121565b80601f016020809104026020016040519081016040528092919081815260200182805461062690613121565b80156106735780601f1061064857610100808354040283529160200191610673565b820191906000526020600020905b81548152906001019060200180831161065657829003601f168201915b5050505050905090565b600061068a338484611afb565b50600192915050565b6006546040516370a0823160e01b81523060048201526000916001600160a01b0316906370a082319060240160206040518083038186803b1580156106d757600080fd5b505afa1580156106eb573d6000803e3d6000fd5b505050506040513d601f19601f8201168201806040525081019061070f9190612e15565b905090565b60007f00000000000000000000000000000000000000000000000000000000000000006001600160a01b0316635e46bea56040518163ffffffff1660e01b815260040160206040518083038186803b15801561076f57600080fd5b505afa158015610783573d6000803e3d6000fd5b505050506040513d601f19601f820116820180604052508101906107a79190612c5e565b6001600160a01b0316336001600160a01b0316146107ff5760405162461bcd60e51b815260206004820152601060248201526f53696c6f3a206f6e6c7942726964676560801b60448201526064015b60405180910390fd5b6001600160a01b038316600090815260208190526040902054610823848483611c1f565b61083a60085461083260025490565b839190611ded565b949350505050565b600260055414156108655760405162461bcd60e51b81526004016107f69061301d565b60026005819055507f00000000000000000000000000000000000000000000000000000000000000006001600160a01b031663f887ea406040518163ffffffff1660e01b815260040160206040518083038186803b1580156108c657600080fd5b505afa1580156108da573d6000803e3d6000fd5b505050506040513d601f19601f820116820180604052508101906108fe9190612c5e565b6001600160a01b0316336001600160a01b03161461092e5760405162461bcd60e51b81526004016107f690612ff3565b610939823383611e1c565b5050600160055550565b6000610950848484611c1f565b6001600160a01b0384166000908152600160209081526040808320338452909152902054828110156109d55760405162461bcd60e51b815260206004820152602860248201527f45524332303a207472616e7366657220616d6f756e74206578636565647320616044820152676c6c6f77616e636560c01b60648201526084016107f6565b6109e28533858403611afb565b60019150505b9392505050565b6109f93382611f36565b50565b7f00000000000000000000000000000000000000000000000000000000000000006001600160a01b031663f887ea406040518163ffffffff1660e01b815260040160206040518083038186803b158015610a5557600080fd5b505afa158015610a69573d6000803e3d6000fd5b505050506040513d601f19601f82011682018060405250810190610a8d9190612c5e565b6001600160a01b0316336001600160a01b031614610abd5760405162461bcd60e51b81526004016107f690612ff3565b610ac88233836121b6565b5050565b7f00000000000000000000000000000000000000000000000000000000000000006001600160a01b031663f887ea406040518163ffffffff1660e01b815260040160206040518083038186803b158015610b2557600080fd5b505afa158015610b39573d6000803e3d6000fd5b505050506040513d601f19601f82011682018060405250810190610b5d9190612c5e565b6001600160a01b0316336001600160a01b031614610b8d5760405162461bcd60e51b81526004016107f690612ff3565b82610b96611308565b610ba1848484612325565b604051631295de1f60e11b81523060048201527f00000000000000000000000000000000000000000000000000000000000000006001600160a01b03169063252bbc3e906024015b60206040518083038186803b158015610c0157600080fd5b505afa158015610c15573d6000803e3d6000fd5b505050506040513d601f19601f82011682018060405250810190610c399190612e15565b610c4282610ed3565b1015610c905760405162461bcd60e51b815260206004820152601e60248201527f53696c6f3a2021626f72726f77436f6c6c61746572616c697a6174696f6e000060448201526064016107f6565b50505050565b60026005541415610cb95760405162461bcd60e51b81526004016107f69061301d565b6002600555610cc9338083611e1c565b50506001600555565b60006001600160a01b038216610d2a5760405162461bcd60e51b815260206004820152601860248201527f53696c6f3a207573657220213d2061646472657373283029000000000000000060448201526064016107f6565b60405163041f3f0560e51b81523060048201526000907f00000000000000000000000000000000000000000000000000000000000000006001600160a01b0316906383e7e0a09060240160206040518083038186803b158015610d8c57600080fd5b505afa158015610da0573d6000803e3d6000fd5b505050506040513d601f19601f82011682018060405250810190610dc49190612e15565b905080610dd084610ed3565b10159392505050565b3360008181526001602090815260408083206001600160a01b0387168452909152812054909161068a918590610e10908690613085565b611afb565b6001600160a01b0381166000908152602081905260408120546109e860085461083260025490565b6006546040516370a0823160e01b8152306004820152610ed19133916001600160a01b03909116906370a082319060240160206040518083038186803b158015610e8657600080fd5b505afa158015610e9a573d6000803e3d6000fd5b505050506040513d601f19601f82011682018060405250810190610ebe9190612e15565b6006546001600160a01b03169190612530565b565b600080610edf8361192f565b905080610ef0575060001992915050565b60007f00000000000000000000000000000000000000000000000000000000000000006001600160a01b0316635e46bea56040518163ffffffff1660e01b815260040160206040518083038186803b158015610f4b57600080fd5b505afa158015610f5f573d6000803e3d6000fd5b505050506040513d601f19601f82011682018060405250810190610f839190612c5e565b604051631eee3aa360e01b81523060048201526001600160a01b038681166024830152919250600091831690631eee3aa390604401602060405180830381600087803b158015610fd257600080fd5b505af1158015610fe6573d6000803e3d6000fd5b505050506040513d601f19601f8201168201806040525081019061100a9190612e15565b905082611019612710836130bf565b611023919061309d565b95945050505050565b6000807f00000000000000000000000000000000000000000000000000000000000000006001600160a01b031663072ea61c6040518163ffffffff1660e01b815260040160206040518083038186803b15801561108857600080fd5b505afa15801561109c573d6000803e3d6000fd5b505050506040513d601f19601f820116820180604052508101906110c09190612e15565b9050806110d05750600092915050565b6127106110dd82856130bf565b6109e8919061309d565b6060600480546105fa90613121565b6000807f00000000000000000000000000000000000000000000000000000000000000006001600160a01b0316637dc0d1d06040518163ffffffff1660e01b815260040160206040518083038186803b15801561115257600080fd5b505afa158015611166573d6000803e3d6000fd5b505050506040513d601f19601f8201168201806040525081019061118a9190612c5e565b6006546040516341976e0960e01b81526001600160a01b039182166004820152919250600091908316906341976e0990602401602060405180830381600087803b1580156111d757600080fd5b505af11580156111eb573d6000803e3d6000fd5b505050506040513d601f19601f8201168201806040525081019061120f9190612e15565b9050600061124260085461122260025490565b6001600160a01b0388166000908152602081905260409020549190611ded565b90507f000000000000000000000000000000000000000000000000000000000000000061101983836130bf565b3360009081526001602090815260408083206001600160a01b0386168452909152812054828110156112f15760405162461bcd60e51b815260206004820152602560248201527f45524332303a2064656372656173656420616c6c6f77616e63652062656c6f77604482015264207a65726f60d81b60648201526084016107f6565b6112fe3385858403611afb565b5060019392505050565b60006007544261131891906130de565b9050806113225750565b60006301e1338061271083600b54600a5461133d91906130bf565b61134791906130bf565b611351919061309d565b61135b919061309d565b905060006127107f00000000000000000000000000000000000000000000000000000000000000006001600160a01b03166325ed3d446040518163ffffffff1660e01b815260040160206040518083038186803b1580156113bb57600080fd5b505afa1580156113cf573d6000803e3d6000fd5b505050506040513d601f19601f820116820180604052508101906113f39190612e15565b6113fd90846130bf565b611407919061309d565b9050600061141582846130de565b905082600a60008282546114299190613085565b9250508190555081600c60008282546114429190613085565b92505081905550806008600082825461145b9190613085565b90915550506040516354a0577160e01b81523060048201526000907f00000000000000000000000000000000000000000000000000000000000000006001600160a01b0316906354a057719060240160206040518083038186803b1580156114c257600080fd5b505afa1580156114d6573d6000803e3d6000fd5b505050506040513d601f19601f820116820180604052508101906114fa9190612c5e565b600a54600854600b546007546040516370ebc61760e11b815260048101949094526024840192909252604483015260648201529091506001600160a01b0382169063e1d78c2e906084016040805180830381600087803b15801561155d57600080fd5b505af1158015611571573d6000803e3d6000fd5b505050506040513d601f19601f820116820180604052508101906115959190612edf565b600755600b555050505050565b600061068a338484611c1f565b6060600260055414156115d45760405162461bcd60e51b81526004016107f69061301d565b60026005556115e1611308565b6000825167ffffffffffffffff8111156115fd576115fd6131a3565b604051908082528060200260200182016040528015611626578160200160208202803683370190505b50835190915060005b818110156116885761165985828151811061164c5761164c61318d565b6020026020010151612598565b83828151811061166b5761166b61318d565b6020908102919091010152806116808161315c565b91505061162f565b5050600160055592915050565b6109f93333836121b6565b336116a9611308565b6116b4333384612325565b604051631295de1f60e11b81523060048201527f00000000000000000000000000000000000000000000000000000000000000006001600160a01b03169063252bbc3e9060240160206040518083038186803b15801561171357600080fd5b505afa158015611727573d6000803e3d6000fd5b505050506040513d601f19601f8201168201806040525081019061174b9190612e15565b61175482610ed3565b1015610ac85760405162461bcd60e51b815260206004820152601e60248201527f53696c6f3a2021626f72726f77436f6c6c61746572616c697a6174696f6e000060448201526064016107f6565b336117ab611308565b6117b6333386612325565b604051633a04425160e11b81526001600160a01b0384169063740884a2906117e690339088908790600401612f4b565b600060405180830381600087803b15801561180057600080fd5b505af1158015611814573d6000803e3d6000fd5b5050604051631295de1f60e11b81523060048201527f00000000000000000000000000000000000000000000000000000000000000006001600160a01b0316925063252bbc3e9150602401610be9565b7f00000000000000000000000000000000000000000000000000000000000000006001600160a01b031663f887ea406040518163ffffffff1660e01b815260040160206040518083038186803b1580156118bd57600080fd5b505afa1580156118d1573d6000803e3d6000fd5b505050506040513d601f19601f820116820180604052508101906118f59190612c5e565b6001600160a01b0316336001600160a01b0316146119255760405162461bcd60e51b81526004016107f690612ff3565b610ac88282611f36565b6000807f00000000000000000000000000000000000000000000000000000000000000006001600160a01b0316637dc0d1d06040518163ffffffff1660e01b815260040160206040518083038186803b15801561198b57600080fd5b505afa15801561199f573d6000803e3d6000fd5b505050506040513d601f19601f820116820180604052508101906119c39190612c5e565b600a546009546001600160a01b0386166000908152600d6020526040812054939450926119f1929091611ded565b9050611a1b604051806040016040528060068152602001656f7261636c6560d01b81525083612775565b604080518082019091526005815264185cdcd95d60da1b6020820152600654611a4d91906001600160a01b0316612775565b6006546040516341976e0960e01b81526001600160a01b0391821660048201526000918416906341976e0990602401602060405180830381600087803b158015611a9657600080fd5b505af1158015611aaa573d6000803e3d6000fd5b505050506040513d601f19601f82011682018060405250810190611ace9190612e15565b90507f000000000000000000000000000000000000000000000000000000000000000061101982846130bf565b6001600160a01b038316611b5d5760405162461bcd60e51b8152602060048201526024808201527f45524332303a20617070726f76652066726f6d20746865207a65726f206164646044820152637265737360e01b60648201526084016107f6565b6001600160a01b038216611bbe5760405162461bcd60e51b815260206004820152602260248201527f45524332303a20617070726f766520746f20746865207a65726f206164647265604482015261737360f01b60648201526084016107f6565b6001600160a01b0383811660008181526001602090815260408083209487168084529482529182902085905590518481527f8c5be1e5ebec7d5bd14f71427d1e84f3dd0314c0f7b2291e5b200ac8c7c3b925910160405180910390a3505050565b6001600160a01b038316611c835760405162461bcd60e51b815260206004820152602560248201527f45524332303a207472616e736665722066726f6d20746865207a65726f206164604482015264647265737360d81b60648201526084016107f6565b6001600160a01b038216611ce55760405162461bcd60e51b815260206004820152602360248201527f45524332303a207472616e7366657220746f20746865207a65726f206164647260448201526265737360e81b60648201526084016107f6565b6001600160a01b03831660009081526020819052604090205481811015611d5d5760405162461bcd60e51b815260206004820152602660248201527f45524332303a207472616e7366657220616d6f756e7420657863656564732062604482015265616c616e636560d01b60648201526084016107f6565b6001600160a01b03808516600090815260208190526040808220858503905591851681529081208054849290611d94908490613085565b92505081905550826001600160a01b0316846001600160a01b03167fddf252ad1be2c89b69c2b068fc378daa952ba7f163c4a11628f55a4df523b3ef84604051611de091815260200190565b60405180910390a3610c90565b6000811580611dfa575082155b15611e07575060006109e8565b81611e1284866130bf565b61083a919061309d565b6000611e26611308565b6000600019831415611e6457506001600160a01b0384166000908152600d6020526040902054600a54600954611e5d918391611ded565b9250611e78565b600a54600954611e759185916127ba565b90505b6001600160a01b0385166000908152600d602052604081208054839290611ea09084906130de565b925050819055508060096000828254611eb991906130de565b9250508190555082600a6000828254611ed291906130de565b90915550506040518381526001600160a01b038616907f5c16de4f8b59bd9caf0f49a545f25819a895ed223294290b408242e72a5942319060200160405180910390a2600654611f2d906001600160a01b03168530866127de565b50909392505050565b60026005541415611f595760405162461bcd60e51b81526004016107f69061301d565b600260055581611f67611308565b6000600019831415611fa4576001600160a01b0384166000908152602081905260409020549050611f9d60085461083260025490565b9250611fbe565b611fbb600854611fb360025490565b8591906127ba565b90505b8260086000828254611fd091906130de565b90915550611fe090508482612816565b836001600160a01b03167f884edad9ce6fa2440d8a54cc123490eb96d2768479d49ff9c7366125a94243648460405161201b91815260200190565b60405180910390a260065461203a906001600160a01b03168585612530565b5060007f00000000000000000000000000000000000000000000000000000000000000006001600160a01b0316635e46bea56040518163ffffffff1660e01b815260040160206040518083038186803b15801561209657600080fd5b505afa1580156120aa573d6000803e3d6000fd5b505050506040513d601f19601f820116820180604052508101906120ce9190612c5e565b604051630590630f60e41b81523060048201526001600160a01b0384811660248301529192509082169063590630f090604401602060405180830381600087803b15801561211b57600080fd5b505af115801561212f573d6000803e3d6000fd5b505050506040513d601f19601f820116820180604052508101906121539190612dda565b6121ab5760405162461bcd60e51b8152602060048201526024808201527f53696c6f3a206e6f7420736f6c76656e7420696e2062726967646520706f73696044820152633a34b7b760e11b60648201526084016107f6565b505060016005555050565b600260055414156121d95760405162461bcd60e51b81526004016107f69061301d565b60026005556121e6611308565b6001600160a01b0383166000908152600d6020526040902054156122615760405162461bcd60e51b815260206004820152602c60248201527f53696c6f3a2063616e6e6f74206465706f736974202620626f72726f7720746860448201526b19481cd85b5948185cdcd95d60a21b60648201526084016107f6565b600061226b610693565b600654909150612286906001600160a01b03168430856127de565b6000612290610693565b905061229c82826130de565b925060006122b76008546122af60025490565b8691906127ba565b905083600860008282546122cb9190613085565b90915550506040518481526001600160a01b038716907fe1fffcc4923d04b559f4d29a8bfc6cda04eb5b0d3c460751c2402c5c5cc9109c9060200160405180910390a26123188682612964565b5050600160055550505050565b600260055414156123485760405162461bcd60e51b81526004016107f69061301d565b60026005556001600160a01b038316600090815260208190526040902054156123c85760405162461bcd60e51b815260206004820152602c60248201527f53696c6f3a2063616e6e6f7420626f72726f772026206465706f73697420746860448201526b19481cd85b5948185cdcd95d60a21b60648201526084016107f6565b806123d1610693565b101561241f5760405162461bcd60e51b815260206004820152601860248201527f53696c6f3a206c69717569646974792073686f7274616765000000000000000060448201526064016107f6565b600061242a8261102c565b9050600061244a600a5460095484866124439190613085565b91906127ba565b6001600160a01b0386166000908152600d6020526040812080549293508392909190612477908490613085565b9250508190555080600960008282546124909190613085565b909155506124a090508284613085565b600a60008282546124b19190613085565b9250508190555081600c60008282546124ca9190613085565b90915550506040518381526001600160a01b038616907fcbc04eca7e9da35cb1393a6135a199ca52e450d5e9251cbd99f7847d33a367509060200160405180910390a2600654612524906001600160a01b03168585612530565b50506001600555505050565b6040516001600160a01b03831660248201526044810182905261259390849063a9059cbb60e01b906064015b60408051601f198184030181529190526020810180516001600160e01b03166001600160e01b031990931692909217909152612a43565b505050565b60006125a382610cd2565b156125b057506000919050565b60006125bf8333600019611e1c565b905060007f00000000000000000000000000000000000000000000000000000000000000006001600160a01b0316635e46bea56040518163ffffffff1660e01b815260040160206040518083038186803b15801561261c57600080fd5b505afa158015612630573d6000803e3d6000fd5b505050506040513d601f19601f820116820180604052508101906126549190612c5e565b604051630eaf8a1f60e11b81526001600160a01b03868116600483015233602483015291925090821690631d5f143e90604401602060405180830381600087803b1580156126a157600080fd5b505af11580156126b5573d6000803e3d6000fd5b505050506040513d601f19601f820116820180604052508101906126d99190612e15565b60408051848152602081018390529194506001600160a01b038616917f3c4b1d42b9c7fa283f6fe657533f6a5a8a7ad1d36f9ef1d9d89ad04485e10d2c910160405180910390a261272984610cd2565b61276e5760405162461bcd60e51b815260206004820152601660248201527514da5b1bce881d5cd95c881b9bdd081cdbdb1d995b9d60521b60448201526064016107f6565b5050919050565b610ac8828260405160240161278b929190612fc9565b60408051601f198184030181529190526020810180516001600160e01b031663319af33360e01b179052612b15565b60008115806127c7575082155b156127d35750826109e8565b82611e1283866130bf565b6040516001600160a01b0380851660248301528316604482015260648101829052610c909085906323b872dd60e01b9060840161255c565b6001600160a01b0382166128765760405162461bcd60e51b815260206004820152602160248201527f45524332303a206275726e2066726f6d20746865207a65726f206164647265736044820152607360f81b60648201526084016107f6565b6001600160a01b038216600090815260208190526040902054818110156128ea5760405162461bcd60e51b815260206004820152602260248201527f45524332303a206275726e20616d6f756e7420657863656564732062616c616e604482015261636560f01b60648201526084016107f6565b6001600160a01b03831660009081526020819052604081208383039055600280548492906129199084906130de565b90915550506040518281526000906001600160a01b038516907fddf252ad1be2c89b69c2b068fc378daa952ba7f163c4a11628f55a4df523b3ef9060200160405180910390a3505050565b6001600160a01b0382166129ba5760405162461bcd60e51b815260206004820152601f60248201527f45524332303a206d696e7420746f20746865207a65726f20616464726573730060448201526064016107f6565b80600260008282546129cc9190613085565b90915550506001600160a01b038216600090815260208190526040812080548392906129f9908490613085565b90915550506040518181526001600160a01b038316906000907fddf252ad1be2c89b69c2b068fc378daa952ba7f163c4a11628f55a4df523b3ef9060200160405180910390a35050565b6000612a98826040518060400160405280602081526020017f5361666545524332303a206c6f772d6c6576656c2063616c6c206661696c6564815250856001600160a01b0316612b369092919063ffffffff16565b8051909150156125935780806020019051810190612ab69190612dda565b6125935760405162461bcd60e51b815260206004820152602a60248201527f5361666545524332303a204552433230206f7065726174696f6e20646964206e6044820152691bdd081cdd58d8d9595960b21b60648201526084016107f6565b80516a636f6e736f6c652e6c6f67602083016000808483855afa5050505050565b606061083a848460008585843b612b8f5760405162461bcd60e51b815260206004820152601d60248201527f416464726573733a2063616c6c20746f206e6f6e2d636f6e747261637400000060448201526064016107f6565b600080866001600160a01b03168587604051612bab9190612f2f565b60006040518083038185875af1925050503d8060008114612be8576040519150601f19603f3d011682016040523d82523d6000602084013e612bed565b606091505b5091509150612bfd828286612c08565b979650505050505050565b60608315612c175750816109e8565b825115612c275782518084602001fd5b8160405162461bcd60e51b81526004016107f69190612fb6565b600060208284031215612c5357600080fd5b81356109e8816131b9565b600060208284031215612c7057600080fd5b81516109e8816131b9565b60008060408385031215612c8e57600080fd5b8235612c99816131b9565b91506020830135612ca9816131b9565b809150509250929050565b600080600060608486031215612cc957600080fd5b8335612cd4816131b9565b92506020840135612ce4816131b9565b929592945050506040919091013590565b60008060408385031215612d0857600080fd5b8235612d13816131b9565b946020939093013593505050565b60006020808385031215612d3457600080fd5b823567ffffffffffffffff80821115612d4c57600080fd5b818501915085601f830112612d6057600080fd5b813581811115612d7257612d726131a3565b8060051b9150612d83848301613054565b8181528481019084860184860187018a1015612d9e57600080fd5b600095505b83861015612dcd5780359450612db8856131b9565b84835260019590950194918601918601612da3565b5098975050505050505050565b600060208284031215612dec57600080fd5b815180151581146109e857600080fd5b600060208284031215612e0e57600080fd5b5035919050565b600060208284031215612e2757600080fd5b5051919050565b600080600060608486031215612e4357600080fd5b83359250602080850135612e56816131b9565b9250604085013567ffffffffffffffff80821115612e7357600080fd5b818701915087601f830112612e8757600080fd5b813581811115612e9957612e996131a3565b612eab601f8201601f19168501613054565b91508082528884828501011115612ec157600080fd5b80848401858401376000848284010152508093505050509250925092565b60008060408385031215612ef257600080fd5b505080516020909101519092909150565b60008151808452612f1b8160208601602086016130f5565b601f01601f19169290920160200192915050565b60008251612f418184602087016130f5565b9190910192915050565b60018060a01b03841681528260208201526060604082015260006110236060830184612f03565b6020808252825182820181905260009190848201906040850190845b81811015612faa57835183529284019291840191600101612f8e565b50909695505050505050565b6020815260006109e86020830184612f03565b604081526000612fdc6040830185612f03565b905060018060a01b03831660208301529392505050565b60208082526010908201526f29b4b6379d1037b7363ca937baba32b960811b604082015260600190565b6020808252601f908201527f5265656e7472616e637947756172643a207265656e7472616e742063616c6c00604082015260600190565b604051601f8201601f1916810167ffffffffffffffff8111828210171561307d5761307d6131a3565b604052919050565b6000821982111561309857613098613177565b500190565b6000826130ba57634e487b7160e01b600052601260045260246000fd5b500490565b60008160001904831182151516156130d9576130d9613177565b500290565b6000828210156130f0576130f0613177565b500390565b60005b838110156131105781810151838201526020016130f8565b83811115610c905750506000910152565b600181811c9082168061313557607f821691505b6020821081141561315657634e487b7160e01b600052602260045260246000fd5b50919050565b600060001982141561317057613170613177565b5060010190565b634e487b7160e01b600052601160045260246000fd5b634e487b7160e01b600052603260045260246000fd5b634e487b7160e01b600052604160045260246000fd5b6001600160a01b03811681146109f957600080fdfea2646970667358221220990bb485fa9b382ed06a33876bca2b3cbe6043193af804d7767e31f60b4f9d0264736f6c63430008070033a26469706673582212202c8520bc0dcdcd5162ed6e190f6441a6701ddd17f4890879d07de742f8d28a4264736f6c63430008070033",
  "devdoc": {
    "kind": "dev",
    "methods": {
      "acceptOwnership()": {
        "details": "Transfers ownership of the contract to a pending owner Can only be called by the pending owner."
      },
      "owner()": {
        "details": "Returns the address of the current owner."
      },
      "pendingOwner()": {
        "details": "Returns the address of the pending owner."
      },
      "renounceOwnership()": {
        "details": "Leaves the contract without owner. It will not be possible to call `onlyOwner` functions anymore. Can only be called by the current owner. NOTE: Renouncing ownership will leave the contract without an owner, thereby removing any functionality that is only available to the owner."
      },
      "transferOwnership(address)": {
        "details": "Transfers ownership of the contract to a new account (`newOwner`). Can only be called by the current owner."
      },
      "transferPendingOwnership(address)": {
        "details": "Transfers pending ownership of the contract to a new account (`newPendingOwner`). Can only be called by the current owner."
      }
    },
    "stateVariables": {
      "borrowCollateralization": {
        "details": "default value for the number of basis points of deposited collateral that can be borrowed      ie. 6000 == 60%, meaning 1000 USDC deposits allows for 600 USDC borrow, 10000 == 100%"
      },
      "entryFee": {
        "details": "one time protocol fee for opening a borrow position in basis points"
      },
      "protocolLiquidationFee": {
        "details": "protocol share in liquidation profit"
      },
      "protocolShareFee": {
        "details": "protocol revenue share in interest paid"
      },
      "silo": {
        "details": "maps token address to silo address, token => silo"
      },
      "siloReverse": {
        "details": "maps token address to silo address, silo => token"
      }
    },
    "version": 1
  },
  "userdoc": {
    "kind": "user",
    "methods": {},
    "version": 1
  },
  "storageLayout": {
    "storage": [
      {
        "astId": 8954,
        "contract": "contracts/SiloFactory.sol:SiloFactory",
        "label": "_owner",
        "offset": 0,
        "slot": "0",
        "type": "t_address"
      },
      {
        "astId": 8956,
        "contract": "contracts/SiloFactory.sol:SiloFactory",
        "label": "_pendingOwner",
        "offset": 0,
        "slot": "1",
        "type": "t_address"
      },
      {
        "astId": 6840,
        "contract": "contracts/SiloFactory.sol:SiloFactory",
        "label": "borrowCollateralization",
        "offset": 0,
        "slot": "2",
        "type": "t_uint256"
      },
      {
        "astId": 6842,
        "contract": "contracts/SiloFactory.sol:SiloFactory",
        "label": "minCollateralization",
        "offset": 0,
        "slot": "3",
        "type": "t_uint256"
      },
      {
        "astId": 6845,
        "contract": "contracts/SiloFactory.sol:SiloFactory",
        "label": "bridgeAsset",
        "offset": 0,
        "slot": "4",
        "type": "t_address"
      },
      {
        "astId": 6849,
        "contract": "contracts/SiloFactory.sol:SiloFactory",
        "label": "entryFee",
        "offset": 0,
        "slot": "5",
        "type": "t_uint256"
      },
      {
        "astId": 6853,
        "contract": "contracts/SiloFactory.sol:SiloFactory",
        "label": "protocolShareFee",
        "offset": 0,
        "slot": "6",
        "type": "t_uint256"
      },
      {
        "astId": 6856,
        "contract": "contracts/SiloFactory.sol:SiloFactory",
        "label": "protocolLiquidationFee",
        "offset": 0,
        "slot": "7",
        "type": "t_uint256"
      },
      {
        "astId": 6858,
        "contract": "contracts/SiloFactory.sol:SiloFactory",
        "label": "interestRateModel",
        "offset": 0,
        "slot": "8",
        "type": "t_address"
      },
      {
        "astId": 6861,
        "contract": "contracts/SiloFactory.sol:SiloFactory",
        "label": "bridgePool",
        "offset": 0,
        "slot": "9",
        "type": "t_address"
      },
      {
        "astId": 6864,
        "contract": "contracts/SiloFactory.sol:SiloFactory",
        "label": "oracle",
        "offset": 0,
        "slot": "10",
        "type": "t_address"
      },
      {
        "astId": 6867,
        "contract": "contracts/SiloFactory.sol:SiloFactory",
        "label": "router",
        "offset": 0,
        "slot": "11",
        "type": "t_address"
      },
      {
        "astId": 6873,
        "contract": "contracts/SiloFactory.sol:SiloFactory",
        "label": "silo",
        "offset": 0,
        "slot": "12",
        "type": "t_mapping(t_address,t_address)"
      },
      {
        "astId": 6878,
        "contract": "contracts/SiloFactory.sol:SiloFactory",
        "label": "siloReverse",
        "offset": 0,
        "slot": "13",
        "type": "t_mapping(t_address,t_address)"
      }
    ],
    "types": {
      "t_address": {
        "encoding": "inplace",
        "label": "address",
        "numberOfBytes": "20"
      },
      "t_mapping(t_address,t_address)": {
        "encoding": "mapping",
        "key": "t_address",
        "label": "mapping(address => address)",
        "numberOfBytes": "32",
        "value": "t_address"
      },
      "t_uint256": {
        "encoding": "inplace",
        "label": "uint256",
        "numberOfBytes": "32"
      }
    }
  }
}