{
  "address": "0xCA8F47e8E2A4b64ffbc34b913242f7dF2822172A",
  "abi": [
    {
      "inputs": [
        {
          "internalType": "address",
          "name": "_factory",
          "type": "address"
        }
      ],
      "stateMutability": "nonpayable",
      "type": "constructor"
    },
    {
      "inputs": [
        {
          "components": [
            {
              "internalType": "address",
              "name": "collateral",
              "type": "address"
            },
            {
              "internalType": "address",
              "name": "borrow",
              "type": "address"
            },
            {
              "internalType": "uint256",
              "name": "depositAmount",
              "type": "uint256"
            },
            {
              "internalType": "uint256",
              "name": "borrowAmount",
              "type": "uint256"
            }
          ],
          "internalType": "struct SiloRouter.Position[]",
          "name": "positions",
          "type": "tuple[]"
        }
      ],
      "name": "borrow",
      "outputs": [],
      "stateMutability": "payable",
      "type": "function"
    },
    {
      "inputs": [],
      "name": "bridgePool",
      "outputs": [
        {
          "internalType": "contract ISiloBridgePool",
          "name": "",
          "type": "address"
        }
      ],
      "stateMutability": "view",
      "type": "function"
    },
    {
      "inputs": [],
      "name": "factory",
      "outputs": [
        {
          "internalType": "contract ISiloFactory",
          "name": "",
          "type": "address"
        }
      ],
      "stateMutability": "view",
      "type": "function"
    },
    {
      "inputs": [],
      "name": "wrappedToken",
      "outputs": [
        {
          "internalType": "contract IWrappedToken",
          "name": "",
          "type": "address"
        }
      ],
      "stateMutability": "view",
      "type": "function"
    },
    {
      "stateMutability": "payable",
      "type": "receive"
    }
  ],
  "transactionHash": "0xb85f3a221412dcffe065b33fe84ba37ee2ccd3fda7ca8e62feeaa6d36d0a04e3",
  "args": [
    "0x43C06bD9a8D4F08f4F1a863b2108f22794FAEc18"
  ],
  "solcInputHash": "ad3604c16830b09dacbe1e16d71c93a2",
  "bytecode": "0x60e06040523480156200001157600080fd5b50604051620014953803806200149583398101604081905262000034916200015a565b806001600160a01b0316634d8775506040518163ffffffff1660e01b815260040160206040518083038186803b1580156200006e57600080fd5b505afa15801562000083573d6000803e3d6000fd5b505050506040513d601f19601f82011682018060405250810190620000a991906200015a565b6001600160a01b03166080816001600160a01b031660601b81525050806001600160a01b0316635e46bea56040518163ffffffff1660e01b815260040160206040518083038186803b158015620000ff57600080fd5b505afa15801562000114573d6000803e3d6000fd5b505050506040513d601f19601f820116820180604052508101906200013a91906200015a565b6001600160601b0319606091821b811660a05291901b1660c0526200018c565b6000602082840312156200016d57600080fd5b81516001600160a01b03811681146200018557600080fd5b9392505050565b60805160601c60a05160601c60c05160601c61128d620002086000396000818160fa0152818161030501526105a1015260008181606101528181610399015281816103f0015261075a01526000818160c6015281816102a20152818161080f015281816108a401528181610b160152610b64015261128d6000f3fe6080604052600436106100435760003560e01c80635e46bea51461004f57806376947ef61461009f578063996c6cc3146100b4578063c45a0155146100e857600080fd5b3661004a57005b600080fd5b34801561005b57600080fd5b506100837f000000000000000000000000000000000000000000000000000000000000000081565b6040516001600160a01b03909116815260200160405180910390f35b6100b26100ad366004610f6c565b61011c565b005b3480156100c057600080fd5b506100837f000000000000000000000000000000000000000000000000000000000000000081565b3480156100f457600080fd5b506100837f000000000000000000000000000000000000000000000000000000000000000081565b6101628160008151811061013257610132611213565b6020026020010151600001518260008151811061015157610151611213565b60200260200101516040015161080d565b805160028111156101cf5760405162461bcd60e51b815260206004820152602c60248201527f53696c6f526f757465723a20737570706f727473206f6e6c79203220706f736960448201526b746f6e73206174206f6e636560a01b60648201526084015b60405180910390fd5b60005b818110156107cd576101fd604051806040016040528060018152602001606960f81b81525082610933565b600083828151811061021157610211611213565b6020026020010151905080602001516001600160a01b031681600001516001600160a01b031614156102a05760405162461bcd60e51b815260206004820152603260248201527f53696c6f526f757465723a2063616e6e6f742064657069736974202620626f726044820152711c9bddc81d1a19481cd85b5948185cdcd95d60721b60648201526084016101c6565b7f00000000000000000000000000000000000000000000000000000000000000006001600160a01b031681600001516001600160a01b0316141561057d5760208101516040516337f9a6bd60e01b81526001600160a01b0391821660048201526000917f000000000000000000000000000000000000000000000000000000000000000016906337f9a6bd9060240160206040518083038186803b15801561034757600080fd5b505afa15801561035b573d6000803e3d6000fd5b505050506040513d601f19601f8201168201806040525081019061037f9190610f4f565b604083015183519192506103be916001600160a01b0316907f000000000000000000000000000000000000000000000000000000000000000090610978565b604082810151905163b3db428b60e01b81526001600160a01b03838116600483015233602483015260448201929092527f00000000000000000000000000000000000000000000000000000000000000009091169063b3db428b90606401600060405180830381600087803b15801561043657600080fd5b505af115801561044a573d6000803e3d6000fd5b5050505061048560405180604001604052806015815260200174626f72726f7753696c6f2e626f72726f7753696c6f60581b81525082610acf565b6104c86040518060400160405280601c81526020017f626f72726f7753696c6f2e706f732e6465706f736974416d6f756e74000000008152508360400151610933565b61050b6040518060400160405280601b81526020017f626f72726f7753696c6f2e706f732e626f72726f77416d6f756e7400000000008152508360600151610933565b6060820151604051633088044160e01b815233600482015230602482015260448101919091526001600160a01b03821690633088044190606401600060405180830381600087803b15801561055f57600080fd5b505af1158015610573573d6000803e3d6000fd5b50505050506107ba565b80516040516337f9a6bd60e01b81526001600160a01b0391821660048201526000917f000000000000000000000000000000000000000000000000000000000000000016906337f9a6bd9060240160206040518083038186803b1580156105e357600080fd5b505afa1580156105f7573d6000803e3d6000fd5b505050506040513d601f19601f8201168201806040525081019061061b9190610f4f565b6040830151835191925061063a916001600160a01b0316908390610978565b60408281015190516317a790f160e11b815233600482015260248101919091526001600160a01b03821690632f4f21e290604401600060405180830381600087803b15801561068857600080fd5b505af115801561069c573d6000803e3d6000fd5b505050506106df6040518060400160405280601981526020017f627269646765506f6f6c2e636f6c6c61746572616c53696c6f0000000000000081525082610acf565b6107226040518060400160405280601b81526020017f627269646765506f6f6c2e706f732e626f72726f77416d6f756e7400000000008152508360600151610933565b606082015160405163dbc5b48160e01b81526001600160a01b03838116600483015233602483015230604483015260648201929092527f00000000000000000000000000000000000000000000000000000000000000009091169063dbc5b48190608401600060405180830381600087803b1580156107a057600080fd5b505af11580156107b4573d6000803e3d6000fd5b50505050505b50806107c5816111e2565b9150506101d2565b506000826107dc60018461119f565b815181106107ec576107ec611213565b6020026020010151905061080881602001518260600151610b14565b505050565b7f00000000000000000000000000000000000000000000000000000000000000006001600160a01b0316826001600160a01b031614801561084e5750600034115b1561091a578034146108a25760405162461bcd60e51b815260206004820152601f60248201527f53696c6f526f757465723a20696e636f7272656374204554482076616c75650060448201526064016101c6565b7f00000000000000000000000000000000000000000000000000000000000000006001600160a01b031663d0e30db0346040518263ffffffff1660e01b81526004016000604051808303818588803b1580156108fd57600080fd5b505af1158015610911573d6000803e3d6000fd5b50505050505050565b61092f6001600160a01b038316333084610c74565b5050565b61092f8282604051602401610949929190611123565b60408051601f198184030181529190526020810180516001600160e01b03166309710a9d60e41b179052610cb2565b801580610a015750604051636eb1769f60e11b81523060048201526001600160a01b03838116602483015284169063dd62ed3e9060440160206040518083038186803b1580156109c757600080fd5b505afa1580156109db573d6000803e3d6000fd5b505050506040513d601f19601f820116820180604052508101906109ff9190611085565b155b610a6c5760405162461bcd60e51b815260206004820152603660248201527f5361666545524332303a20617070726f76652066726f6d206e6f6e2d7a65726f60448201527520746f206e6f6e2d7a65726f20616c6c6f77616e636560501b60648201526084016101c6565b6040516001600160a01b03831660248201526044810182905261080890849063095ea7b360e01b906064015b60408051601f198184030181529190526020810180516001600160e01b03166001600160e01b031990931692909217909152610cd3565b61092f8282604051602401610ae59291906110f9565b60408051601f198184030181529190526020810180516001600160e01b031663319af33360e01b179052610cb2565b7f00000000000000000000000000000000000000000000000000000000000000006001600160a01b0316826001600160a01b03161415610c6057604051632e1a7d4d60e01b8152600481018290527f00000000000000000000000000000000000000000000000000000000000000006001600160a01b031690632e1a7d4d90602401600060405180830381600087803b158015610bb057600080fd5b505af1158015610bc4573d6000803e3d6000fd5b50506040516000925033915083908381818185875af1925050503d8060008114610c0a576040519150601f19603f3d011682016040523d82523d6000602084013e610c0f565b606091505b50509050806108085760405162461bcd60e51b815260206004820181905260248201527f53696c6f526f757465723a20455448205472616e73666572206661696c65642e60448201526064016101c6565b61092f6001600160a01b0383163383610da5565b6040516001600160a01b0380851660248301528316604482015260648101829052610cac9085906323b872dd60e01b90608401610a98565b50505050565b80516a636f6e736f6c652e6c6f67602083016000808483855afa5050505050565b6000610d28826040518060400160405280602081526020017f5361666545524332303a206c6f772d6c6576656c2063616c6c206661696c6564815250856001600160a01b0316610dd59092919063ffffffff16565b8051909150156108085780806020019051810190610d469190611063565b6108085760405162461bcd60e51b815260206004820152602a60248201527f5361666545524332303a204552433230206f7065726174696f6e20646964206e6044820152691bdd081cdd58d8d9595960b21b60648201526084016101c6565b6040516001600160a01b03831660248201526044810182905261080890849063a9059cbb60e01b90606401610a98565b6060610de48484600085610dee565b90505b9392505050565b606082471015610e4f5760405162461bcd60e51b815260206004820152602660248201527f416464726573733a20696e73756666696369656e742062616c616e636520666f6044820152651c8818d85b1b60d21b60648201526084016101c6565b843b610e9d5760405162461bcd60e51b815260206004820152601d60248201527f416464726573733a2063616c6c20746f206e6f6e2d636f6e747261637400000060448201526064016101c6565b600080866001600160a01b03168587604051610eb991906110ca565b60006040518083038185875af1925050503d8060008114610ef6576040519150601f19603f3d011682016040523d82523d6000602084013e610efb565b606091505b5091509150610f0b828286610f16565b979650505050505050565b60608315610f25575081610de7565b825115610f355782518084602001fd5b8160405162461bcd60e51b81526004016101c691906110e6565b600060208284031215610f6157600080fd5b8151610de78161123f565b60006020808385031215610f7f57600080fd5b823567ffffffffffffffff80821115610f9757600080fd5b818501915085601f830112610fab57600080fd5b813581811115610fbd57610fbd611229565b610fcb848260051b0161116e565b8181528481019250838501600783901b85018601891015610feb57600080fd5b60009450845b8381101561105557608080838c031215611009578687fd5b611011611145565b833561101c8161123f565b81528389013561102b8161123f565b818a0152604084810135908201526060808501359082015286529487019490910190600101610ff1565b509098975050505050505050565b60006020828403121561107557600080fd5b81518015158114610de757600080fd5b60006020828403121561109757600080fd5b5051919050565b600081518084526110b68160208601602086016111b6565b601f01601f19169290920160200192915050565b600082516110dc8184602087016111b6565b9190910192915050565b602081526000610de7602083018461109e565b60408152600061110c604083018561109e565b905060018060a01b03831660208301529392505050565b604081526000611136604083018561109e565b90508260208301529392505050565b6040516080810167ffffffffffffffff8111828210171561116857611168611229565b60405290565b604051601f8201601f1916810167ffffffffffffffff8111828210171561119757611197611229565b604052919050565b6000828210156111b1576111b16111fd565b500390565b60005b838110156111d15781810151838201526020016111b9565b83811115610cac5750506000910152565b60006000198214156111f6576111f66111fd565b5060010190565b634e487b7160e01b600052601160045260246000fd5b634e487b7160e01b600052603260045260246000fd5b634e487b7160e01b600052604160045260246000fd5b6001600160a01b038116811461125457600080fd5b5056fea26469706673582212207d938ee9a083e85744ba94d99ab2b6e2200abc2039ad1d4deb49eaa54edb781d64736f6c63430008070033",
  "devdoc": {
    "kind": "dev",
    "methods": {},
    "version": 1
  },
  "userdoc": {
    "kind": "user",
    "methods": {},
    "version": 1
  },
  "storageLayout": {
    "storage": [],
    "types": null
  }
}