{
  "address": "0x53871Af79d65d6EAB12Cc9EF2f14597883027721",
  "abi": [
    {
      "inputs": [
        {
          "internalType": "address",
          "name": "_factory",
          "type": "address"
        }
      ],
      "stateMutability": "nonpayable",
      "type": "constructor"
    },
    {
      "inputs": [],
      "name": "PERIOD",
      "outputs": [
        {
          "internalType": "uint256",
          "name": "",
          "type": "uint256"
        }
      ],
      "stateMutability": "view",
      "type": "function"
    },
    {
      "inputs": [
        {
          "internalType": "address",
          "name": "_base",
          "type": "address"
        },
        {
          "internalType": "address",
          "name": "_quote",
          "type": "address"
        },
        {
          "internalType": "bytes",
          "name": "",
          "type": "bytes"
        }
      ],
      "name": "getPrice",
      "outputs": [
        {
          "internalType": "uint256",
          "name": "price",
          "type": "uint256"
        }
      ],
      "stateMutability": "nonpayable",
      "type": "function"
    },
    {
      "inputs": [
        {
          "internalType": "address",
          "name": "_base",
          "type": "address"
        },
        {
          "internalType": "address",
          "name": "_quote",
          "type": "address"
        },
        {
          "internalType": "bytes",
          "name": "",
          "type": "bytes"
        }
      ],
      "name": "getPriceStatic",
      "outputs": [
        {
          "internalType": "uint256",
          "name": "",
          "type": "uint256"
        }
      ],
      "stateMutability": "view",
      "type": "function"
    },
    {
      "inputs": [
        {
          "internalType": "address",
          "name": "_base",
          "type": "address"
        },
        {
          "internalType": "address",
          "name": "_quote",
          "type": "address"
        },
        {
          "internalType": "bytes",
          "name": "",
          "type": "bytes"
        }
      ],
      "name": "initToken",
      "outputs": [],
      "stateMutability": "nonpayable",
      "type": "function"
    },
    {
      "inputs": [],
      "name": "isSiloOracle",
      "outputs": [
        {
          "internalType": "bool",
          "name": "",
          "type": "bool"
        }
      ],
      "stateMutability": "pure",
      "type": "function"
    },
    {
      "inputs": [],
      "name": "uniswapV2Factory",
      "outputs": [
        {
          "internalType": "address",
          "name": "",
          "type": "address"
        }
      ],
      "stateMutability": "view",
      "type": "function"
    }
  ],
  "transactionHash": "0x37555fc21b15cc3dfed73e858e1a86309b8af98190b150106b874cfb176c10d9",
  "args": [
    "0xc35DADB65012eC5796536bD9864eD8773aBc74C4"
  ],
  "solcInputHash": "ae73929953eeb599c719b1ca2ccc8833",
  "bytecode": "0x60a060405234801561001057600080fd5b50604051610e46380380610e468339818101604052602081101561003357600080fd5b5051606081901b6001600160601b0319166080526001600160a01b0316610dda61006c6000398061032a52806105935250610dda6000f3fe608060405234801561001057600080fd5b50600436106100625760003560e01c80631287cdeb14610067578063355efdd91461010257806359d0f713146101c1578063b4d1d795146101e5578063c77a4949146101ed578063ecdcb0ff146102ae575b600080fd5b6100f06004803603606081101561007d57600080fd5b6001600160a01b0382358116926020810135909116918101906060810160408201356401000000008111156100b157600080fd5b8201836020820111156100c357600080fd5b803590602001918460018302840111640100000000831117156100e557600080fd5b5090925090506102ca565b60408051918252519081900360200190f35b6100f06004803603606081101561011857600080fd5b6001600160a01b03823581169260208101359091169181019060608101604082013564010000000081111561014c57600080fd5b82018360208201111561015e57600080fd5b8035906020019184600183028401116401000000008311171561018057600080fd5b91908080601f0160208091040260200160405190810160405280939291908181526020018383808284376000920191909152509295506102e1945050505050565b6101c9610328565b604080516001600160a01b039092168252519081900360200190f35b6100f061034c565b6102ac6004803603606081101561020357600080fd5b6001600160a01b03823581169260208101359091169181019060608101604082013564010000000081111561023757600080fd5b82018360208201111561024957600080fd5b8035906020019184600183028401116401000000008311171561026b57600080fd5b91908080601f016020809104026020016040519081016040528093929190818152602001838380828437600092019190915250929550610352945050505050565b005b6102b6610363565b604080519115158252519081900360200190f35b60006102d885856001610368565b95945050505050565b60006102ef84846001610458565b506001600160a01b03808416600090815260208181526040808320938616835292905220600101546001600160901b03165b9392505050565b7f000000000000000000000000000000000000000000000000000000000000000081565b61038481565b61035e83836000610458565b505050565b600190565b6001600160a01b0380841660009081526020818152604080832093861683529290529081208180610399878761058c565b6001850154919350915063ffffffff600160901b90910481168203906103849082161015806103e257506001840154600160b01b810463ffffffff908116600160901b90920416145b156104415761042d610428670de0b6b3a764000060405180602001604052808563ffffffff16896000015489038161041657fe5b046001600160e01b031690529061082a565b6108c0565b6001600160901b0316945050505050610321565b505050600101546001600160901b03169050610321565b6001600160a01b0380841660009081526020818152604080832093861683529290529081209080610489868661058c565b6001850154919350915063ffffffff600160901b90910481168203906103849082161015806104d257506001840154600160b01b810463ffffffff908116600160901b90920416145b1561058357610506610428670de0b6b3a764000060405180602001604052808563ffffffff16896000015489038161041657fe5b60018501805485875563ffffffff808616600160901b0263ffffffff60901b196001600160901b039590951671ffffffffffffffffffffffffffffffffffff1990931692909217939093161790819055600160b01b9004166105835760018401805463ffffffff60b01b1916600160b01b63ffffffff8516021790555b50505050505050565b60008060007f00000000000000000000000000000000000000000000000000000000000000006001600160a01b031663e6a4390586866040518363ffffffff1660e01b815260040180836001600160a01b03168152602001826001600160a01b031681526020019250505060206040518083038186803b15801561060f57600080fd5b505afa158015610623573d6000803e3d6000fd5b505050506040513d602081101561063957600080fd5b505190506001600160a01b038116610698576040805162461bcd60e51b815260206004820152601860248201527f556e697377617056324f7261636c653a204e4f5f504149520000000000000000604482015290519081900360640190fd5b600080826001600160a01b0316630902f1ac6040518163ffffffff1660e01b815260040160606040518083038186803b1580156106d457600080fd5b505afa1580156106e8573d6000803e3d6000fd5b505050506040513d60608110156106fe57600080fd5b50805160209091015190925090506001600160701b0382161580159061072c57506001600160701b03811615155b61077d576040805162461bcd60e51b815260206004820152601c60248201527f556e697377617056324f7261636c653a204e4f5f524553455256455300000000604482015290519081900360640190fd5b600080600061078b866108c7565b92509250925060008a6001600160a01b0316876001600160a01b0316630dfe16816040518163ffffffff1660e01b815260040160206040518083038186803b1580156107d657600080fd5b505afa1580156107ea573d6000803e3d6000fd5b505050506040513d602081101561080057600080fd5b50516001600160a01b0316141561081857508261081b565b50815b9a909950975050505050505050565b610832610d7f565b600082158061085857505082516001600160e01b03168281029083828161085557fe5b04145b6108a9576040805162461bcd60e51b815260206004820152601960248201527f4669786564506f696e743a3a6d756c3a206f766572666c6f7700000000000000604482015290519081900360640190fd5b604080516020810190915290815290505b92915050565b5160701c90565b60008060006108d4610ab6565b9050836001600160a01b0316635909c0d56040518163ffffffff1660e01b815260040160206040518083038186803b15801561090f57600080fd5b505afa158015610923573d6000803e3d6000fd5b505050506040513d602081101561093957600080fd5b505160408051635a3d549360e01b815290519194506001600160a01b03861691635a3d549391600480820192602092909190829003018186803b15801561097f57600080fd5b505afa158015610993573d6000803e3d6000fd5b505050506040513d60208110156109a957600080fd5b505160408051630240bc6b60e21b81529051919350600091829182916001600160a01b03891691630902f1ac916004808301926060929190829003018186803b1580156109f557600080fd5b505afa158015610a09573d6000803e3d6000fd5b505050506040513d6060811015610a1f57600080fd5b5080516020820151604090920151909450909250905063ffffffff80821690851614610aac5780840363ffffffff8116610a656001600160701b03808616908716610ac0565b600001516001600160e01b031602870196508063ffffffff16610a9a856001600160701b0316856001600160701b0316610ac0565b516001600160e01b0316029590950194505b5050509193909250565b63ffffffff421690565b610ac8610d92565b60008211610b1d576040805162461bcd60e51b815260206004820152601e60248201527f4669786564506f696e743a3a6672616374696f6e3a2064697620627920300000604482015290519081900360640190fd5b82610b3757506040805160208101909152600081526108ba565b6001600160901b038311610bd357600082607085901b81610b5457fe5b0490506001600160e01b03811115610bb3576040805162461bcd60e51b815260206004820152601e60248201527f4669786564506f696e743a3a6672616374696f6e3a206f766572666c6f770000604482015290519081900360640190fd5b6040518060200160405280826001600160e01b03168152509150506108ba565b6000610be484600160701b85610c42565b90506001600160e01b03811115610bb3576040805162461bcd60e51b815260206004820152601e60248201527f4669786564506f696e743a3a6672616374696f6e3a206f766572666c6f770000604482015290519081900360640190fd5b6000806000610c518686610ce2565b9150915060008480610c5f57fe5b868809905082811115610c73576001820391505b8083039250848210610ccc576040805162461bcd60e51b815260206004820152601a60248201527f46756c6c4d6174683a3a6d756c4469763a206f766572666c6f77000000000000604482015290519081900360640190fd5b610cd7838387610d0f565b979650505050505050565b6000808060001984860990508385029250828103915082811015610d07576001820391505b509250929050565b60008181038216808381610d1f57fe5b049250808581610d2b57fe5b049450808160000381610d3a57fe5b60028581038087028203028087028203028087028203028087028203028087028203028087028203029586029003909402930460010193909302939093010292915050565b6040518060200160405280600081525090565b6040805160208101909152600081529056fea2646970667358221220ae4d389395e06dad9a8c54b75f6f6a74673d683dbb17342b64e26a04f422cbd964736f6c634300060c0033",
  "devdoc": {
    "kind": "dev",
    "methods": {},
    "version": 1
  },
  "userdoc": {
    "kind": "user",
    "methods": {},
    "version": 1
  },
  "storageLayout": {
    "storage": [
      {
        "astId": 1466,
        "contract": "contracts/oracles/UniswapV2Oracle.sol:UniswapV2Oracle",
        "label": "prices",
        "offset": 0,
        "slot": "0",
        "type": "t_mapping(t_address,t_mapping(t_address,t_struct(PriceData)1460_storage))"
      }
    ],
    "types": {
      "t_address": {
        "encoding": "inplace",
        "label": "address",
        "numberOfBytes": "20"
      },
      "t_mapping(t_address,t_mapping(t_address,t_struct(PriceData)1460_storage))": {
        "encoding": "mapping",
        "key": "t_address",
        "label": "mapping(address => mapping(address => struct UniswapV2Oracle.PriceData))",
        "numberOfBytes": "32",
        "value": "t_mapping(t_address,t_struct(PriceData)1460_storage)"
      },
      "t_mapping(t_address,t_struct(PriceData)1460_storage)": {
        "encoding": "mapping",
        "key": "t_address",
        "label": "mapping(address => struct UniswapV2Oracle.PriceData)",
        "numberOfBytes": "32",
        "value": "t_struct(PriceData)1460_storage"
      },
      "t_struct(PriceData)1460_storage": {
        "encoding": "inplace",
        "label": "struct UniswapV2Oracle.PriceData",
        "members": [
          {
            "astId": 1453,
            "contract": "contracts/oracles/UniswapV2Oracle.sol:UniswapV2Oracle",
            "label": "priceCumulativeLast",
            "offset": 0,
            "slot": "0",
            "type": "t_uint256"
          },
          {
            "astId": 1455,
            "contract": "contracts/oracles/UniswapV2Oracle.sol:UniswapV2Oracle",
            "label": "priceAverage",
            "offset": 0,
            "slot": "1",
            "type": "t_uint144"
          },
          {
            "astId": 1457,
            "contract": "contracts/oracles/UniswapV2Oracle.sol:UniswapV2Oracle",
            "label": "blockTimestampLast",
            "offset": 18,
            "slot": "1",
            "type": "t_uint32"
          },
          {
            "astId": 1459,
            "contract": "contracts/oracles/UniswapV2Oracle.sol:UniswapV2Oracle",
            "label": "genesisTimestamp",
            "offset": 22,
            "slot": "1",
            "type": "t_uint32"
          }
        ],
        "numberOfBytes": "64"
      },
      "t_uint144": {
        "encoding": "inplace",
        "label": "uint144",
        "numberOfBytes": "18"
      },
      "t_uint256": {
        "encoding": "inplace",
        "label": "uint256",
        "numberOfBytes": "32"
      },
      "t_uint32": {
        "encoding": "inplace",
        "label": "uint32",
        "numberOfBytes": "4"
      }
    }
  }
}