{
  "_format": "hh-sol-artifact-1",
  "contractName": "LiquidationHelper",
  "sourceName": "contracts/liquidation/LiquidationHelper.sol",
  "abi": [
    {
      "inputs": [
        {
          "internalType": "address",
          "name": "_repository",
          "type": "address"
        },
        {
          "internalType": "address",
          "name": "_lens",
          "type": "address"
        },
        {
          "internalType": "contract IPriceProvider[]",
          "name": "_priceProvidersWithSwapOption",
          "type": "address[]"
        },
        {
          "internalType": "contract ISwapper[]",
          "name": "_swappers",
          "type": "address[]"
        }
      ],
      "stateMutability": "nonpayable",
      "type": "constructor"
    },
    {
      "anonymous": false,
      "inputs": [
        {
          "indexed": false,
          "internalType": "address",
          "name": "user",
          "type": "address"
        },
        {
          "indexed": false,
          "internalType": "uint256",
          "name": "quoteAmountFromCollaterals",
          "type": "uint256"
        },
        {
          "indexed": false,
          "internalType": "int256",
          "name": "quoteLeftAfterRepay",
          "type": "int256"
        },
        {
          "indexed": false,
          "internalType": "uint256",
          "name": "gasSpend",
          "type": "uint256"
        }
      ],
      "name": "LiquidationBalance",
      "type": "event"
    },
    {
      "anonymous": false,
      "inputs": [
        {
          "indexed": true,
          "internalType": "address",
          "name": "previousOwner",
          "type": "address"
        },
        {
          "indexed": true,
          "internalType": "address",
          "name": "newOwner",
          "type": "address"
        }
      ],
      "name": "OwnershipTransferred",
      "type": "event"
    },
    {
      "inputs": [
        {
          "internalType": "address[]",
          "name": "_users",
          "type": "address[]"
        },
        {
          "internalType": "contract ISilo[]",
          "name": "_silos",
          "type": "address[]"
        }
      ],
      "name": "checkDebt",
      "outputs": [
        {
          "internalType": "bool[]",
          "name": "",
          "type": "bool[]"
        }
      ],
      "stateMutability": "view",
      "type": "function"
    },
    {
      "inputs": [
        {
          "internalType": "address[]",
          "name": "_users",
          "type": "address[]"
        },
        {
          "internalType": "contract ISilo[]",
          "name": "_silos",
          "type": "address[]"
        }
      ],
      "name": "checkSolvency",
      "outputs": [
        {
          "internalType": "bool[]",
          "name": "",
          "type": "bool[]"
        }
      ],
      "stateMutability": "view",
      "type": "function"
    },
    {
      "inputs": [
        {
          "internalType": "address",
          "name": "",
          "type": "address"
        }
      ],
      "name": "earnings",
      "outputs": [
        {
          "internalType": "uint256",
          "name": "",
          "type": "uint256"
        }
      ],
      "stateMutability": "view",
      "type": "function"
    },
    {
      "inputs": [
        {
          "internalType": "address[]",
          "name": "_users",
          "type": "address[]"
        },
        {
          "internalType": "contract ISilo",
          "name": "_silo",
          "type": "address"
        }
      ],
      "name": "executeLiquidation",
      "outputs": [],
      "stateMutability": "nonpayable",
      "type": "function"
    },
    {
      "inputs": [
        {
          "internalType": "address",
          "name": "_asset",
          "type": "address"
        }
      ],
      "name": "findPriceProvider",
      "outputs": [
        {
          "internalType": "contract IPriceProvider",
          "name": "",
          "type": "address"
        }
      ],
      "stateMutability": "view",
      "type": "function"
    },
    {
      "inputs": [],
      "name": "lens",
      "outputs": [
        {
          "internalType": "contract SiloLens",
          "name": "",
          "type": "address"
        }
      ],
      "stateMutability": "view",
      "type": "function"
    },
    {
      "inputs": [],
      "name": "owner",
      "outputs": [
        {
          "internalType": "address",
          "name": "",
          "type": "address"
        }
      ],
      "stateMutability": "view",
      "type": "function"
    },
    {
      "inputs": [
        {
          "internalType": "uint256",
          "name": "",
          "type": "uint256"
        }
      ],
      "name": "priceProvidersWithSwapOption",
      "outputs": [
        {
          "internalType": "contract IPriceProvider",
          "name": "",
          "type": "address"
        }
      ],
      "stateMutability": "view",
      "type": "function"
    },
    {
      "inputs": [],
      "name": "priceProvidersWithSwapOptionCount",
      "outputs": [
        {
          "internalType": "uint256",
          "name": "",
          "type": "uint256"
        }
      ],
      "stateMutability": "view",
      "type": "function"
    },
    {
      "inputs": [],
      "name": "quoteToken",
      "outputs": [
        {
          "internalType": "contract IERC20",
          "name": "",
          "type": "address"
        }
      ],
      "stateMutability": "view",
      "type": "function"
    },
    {
      "inputs": [],
      "name": "renounceOwnership",
      "outputs": [],
      "stateMutability": "nonpayable",
      "type": "function"
    },
    {
      "inputs": [
        {
          "internalType": "contract IPriceProvider",
          "name": "_oracle",
          "type": "address"
        },
        {
          "internalType": "contract ISwapper",
          "name": "_swapper",
          "type": "address"
        }
      ],
      "name": "setSwapper",
      "outputs": [],
      "stateMutability": "nonpayable",
      "type": "function"
    },
    {
      "inputs": [
        {
          "internalType": "address",
          "name": "_user",
          "type": "address"
        },
        {
          "internalType": "address[]",
          "name": "_assets",
          "type": "address[]"
        },
        {
          "internalType": "uint256[]",
          "name": "_receivedCollaterals",
          "type": "uint256[]"
        },
        {
          "internalType": "uint256[]",
          "name": "_shareAmountsToRepaid",
          "type": "uint256[]"
        },
        {
          "internalType": "bytes",
          "name": "_flashReceiverData",
          "type": "bytes"
        }
      ],
      "name": "siloLiquidationCallback",
      "outputs": [],
      "stateMutability": "nonpayable",
      "type": "function"
    },
    {
      "inputs": [],
      "name": "siloRepository",
      "outputs": [
        {
          "internalType": "contract ISiloRepository",
          "name": "",
          "type": "address"
        }
      ],
      "stateMutability": "view",
      "type": "function"
    },
    {
      "inputs": [
        {
          "internalType": "contract IPriceProvider",
          "name": "",
          "type": "address"
        }
      ],
      "name": "swappers",
      "outputs": [
        {
          "internalType": "contract ISwapper",
          "name": "",
          "type": "address"
        }
      ],
      "stateMutability": "view",
      "type": "function"
    },
    {
      "inputs": [
        {
          "internalType": "address",
          "name": "newOwner",
          "type": "address"
        }
      ],
      "name": "transferOwnership",
      "outputs": [],
      "stateMutability": "nonpayable",
      "type": "function"
    },
    {
      "inputs": [],
      "name": "withdraw",
      "outputs": [],
      "stateMutability": "nonpayable",
      "type": "function"
    },
    {
      "inputs": [],
      "name": "withdrawEth",
      "outputs": [],
      "stateMutability": "nonpayable",
      "type": "function"
    }
  ],
  "bytecode": "0x60e06040523480156200001157600080fd5b5060405162004857380380620048578339818101604052810190620000379190620008c5565b620000576200004b6200040a60201b60201c565b6200041260201b60201c565b620000758463e99ed41d60e01b620004d660201b620015ee1760201c565b620000b7576040517f08c379a0000000000000000000000000000000000000000000000000000000008152600401620000ae9062000ac0565b60405180910390fd5b620000d58363035054cd60e01b620004d660201b620015ee1760201c565b62000117576040517f08c379a00000000000000000000000000000000000000000000000000000000081526004016200010e9062000a9e565b60405180910390fd5b81518151146200015e576040517f08c379a0000000000000000000000000000000000000000000000000000000008152600401620001559062000ae2565b60405180910390fd5b8373ffffffffffffffffffffffffffffffffffffffff1660808173ffffffffffffffffffffffffffffffffffffffff1660601b815250508273ffffffffffffffffffffffffffffffffffffffff1660a08173ffffffffffffffffffffffffffffffffffffffff1660601b8152505060005b8151811015620002a757818181518110620001ef57620001ee62000d21565b5b60200260200101516002600085848151811062000211576200021062000d21565b5b602002602001015173ffffffffffffffffffffffffffffffffffffffff1673ffffffffffffffffffffffffffffffffffffffff16815260200190815260200160002060006101000a81548173ffffffffffffffffffffffffffffffffffffffff021916908373ffffffffffffffffffffffffffffffffffffffff16021790555080806200029e9062000ca4565b915050620001cf565b508160039080519060200190620002c092919062000616565b5060008473ffffffffffffffffffffffffffffffffffffffff16635ddf2be36040518163ffffffff1660e01b815260040160206040518083038186803b1580156200030a57600080fd5b505afa1580156200031f573d6000803e3d6000fd5b505050506040513d601f19601f82011682018060405250810190620003459190620009a7565b90508073ffffffffffffffffffffffffffffffffffffffff1663217a4b706040518163ffffffff1660e01b815260040160206040518083038186803b1580156200038e57600080fd5b505afa158015620003a3573d6000803e3d6000fd5b505050506040513d601f19601f82011682018060405250810190620003c9919062000893565b73ffffffffffffffffffffffffffffffffffffffff1660c08173ffffffffffffffffffffffffffffffffffffffff1660601b81525050505050505062000ea1565b600033905090565b60008060009054906101000a900473ffffffffffffffffffffffffffffffffffffffff169050816000806101000a81548173ffffffffffffffffffffffffffffffffffffffff021916908373ffffffffffffffffffffffffffffffffffffffff1602179055508173ffffffffffffffffffffffffffffffffffffffff168173ffffffffffffffffffffffffffffffffffffffff167f8be0079c531659141344cd1fd0a4f28419497f9722a3daafe3b4186f6b6457e060405160405180910390a35050565b60008073ffffffffffffffffffffffffffffffffffffffff168373ffffffffffffffffffffffffffffffffffffffff16141562000517576000905062000610565b6000808473ffffffffffffffffffffffffffffffffffffffff1684604051602401604051602081830303815290604052907bffffffffffffffffffffffffffffffffffffffffffffffffffffffff19166020820180517bffffffffffffffffffffffffffffffffffffffffffffffffffffffff8381831617835250505050604051620005a4919062000a85565b600060405180830381855afa9150503d8060008114620005e1576040519150601f19603f3d011682016040523d82523d6000602084013e620005e6565b606091505b50915091508180156200060b5750808060200190518101906200060a919062000975565b5b925050505b92915050565b82805482825590600052602060002090810192821562000692579160200282015b82811115620006915782518260006101000a81548173ffffffffffffffffffffffffffffffffffffffff021916908373ffffffffffffffffffffffffffffffffffffffff1602179055509160200191906001019062000637565b5b509050620006a19190620006a5565b5090565b5b80821115620006c0576000816000905550600101620006a6565b5090565b6000620006db620006d58462000b2d565b62000b04565b9050808382526020820190508285602086028201111562000701576200070062000d84565b5b60005b858110156200073557816200071a88826200084e565b84526020840193506020830192505060018101905062000704565b5050509392505050565b600062000756620007508462000b5c565b62000b04565b905080838252602082019050828560208602820111156200077c576200077b62000d84565b5b60005b85811015620007b057816200079588826200087c565b8452602084019350602083019250506001810190506200077f565b5050509392505050565b600081519050620007cb8162000e1f565b92915050565b600082601f830112620007e957620007e862000d7f565b5b8151620007fb848260208601620006c4565b91505092915050565b600082601f8301126200081c576200081b62000d7f565b5b81516200082e8482602086016200073f565b91505092915050565b600081519050620008488162000e39565b92915050565b6000815190506200085f8162000e53565b92915050565b600081519050620008768162000e6d565b92915050565b6000815190506200088d8162000e87565b92915050565b600060208284031215620008ac57620008ab62000d8e565b5b6000620008bc84828501620007ba565b91505092915050565b60008060008060808587031215620008e257620008e162000d8e565b5b6000620008f287828801620007ba565b94505060206200090587828801620007ba565b935050604085015167ffffffffffffffff81111562000929576200092862000d89565b5b6200093787828801620007d1565b925050606085015167ffffffffffffffff8111156200095b576200095a62000d89565b5b620009698782880162000804565b91505092959194509250565b6000602082840312156200098e576200098d62000d8e565b5b60006200099e8482850162000837565b91505092915050565b600060208284031215620009c057620009bf62000d8e565b5b6000620009d08482850162000865565b91505092915050565b6000620009e68262000b8b565b620009f2818562000b96565b935062000a0481856020860162000c38565b80840191505092915050565b600062000a1f600d8362000ba1565b915062000a2c8262000da4565b602082019050919050565b600062000a4660138362000ba1565b915062000a538262000dcd565b602082019050919050565b600062000a6d60158362000ba1565b915062000a7a8262000df6565b602082019050919050565b600062000a938284620009d9565b915081905092915050565b6000602082019050818103600083015262000ab98162000a10565b9050919050565b6000602082019050818103600083015262000adb8162000a37565b9050919050565b6000602082019050818103600083015262000afd8162000a5e565b9050919050565b600062000b1062000b23565b905062000b1e828262000c6e565b919050565b6000604051905090565b600067ffffffffffffffff82111562000b4b5762000b4a62000d50565b5b602082029050602081019050919050565b600067ffffffffffffffff82111562000b7a5762000b7962000d50565b5b602082029050602081019050919050565b600081519050919050565b600081905092915050565b600082825260208201905092915050565b600062000bbf8262000c0e565b9050919050565b60008115159050919050565b600062000bdf8262000bb2565b9050919050565b600062000bf38262000bb2565b9050919050565b600062000c078262000bb2565b9050919050565b600073ffffffffffffffffffffffffffffffffffffffff82169050919050565b6000819050919050565b60005b8381101562000c5857808201518184015260208101905062000c3b565b8381111562000c68576000848401525b50505050565b62000c798262000d93565b810181811067ffffffffffffffff8211171562000c9b5762000c9a62000d50565b5b80604052505050565b600062000cb18262000c2e565b91507fffffffffffffffffffffffffffffffffffffffffffffffffffffffffffffffff82141562000ce75762000ce662000cf2565b5b600182019050919050565b7f4e487b7100000000000000000000000000000000000000000000000000000000600052601160045260246000fd5b7f4e487b7100000000000000000000000000000000000000000000000000000000600052603260045260246000fd5b7f4e487b7100000000000000000000000000000000000000000000000000000000600052604160045260246000fd5b600080fd5b600080fd5b600080fd5b600080fd5b6000601f19601f8301169050919050565b7f696e76616c6964205f6c656e7300000000000000000000000000000000000000600082015250565b7f696e76616c6964205f7265706f7369746f727900000000000000000000000000600082015250565b7f737761707065727320213d2070726f7669646572730000000000000000000000600082015250565b62000e2a8162000bb2565b811462000e3657600080fd5b50565b62000e448162000bc6565b811462000e5057600080fd5b50565b62000e5e8162000bd2565b811462000e6a57600080fd5b50565b62000e788162000be6565b811462000e8457600080fd5b50565b62000e928162000bfa565b811462000e9e57600080fd5b50565b60805160601c60a05160601c60c05160601c61393762000f2060003960008181610542015281816105fe015281816109f6015281816117fe015281816118f001528181611b8301528181611c5d01528181611d770152611ef20152600081816103bd01526104df015260008181610acc0152610d7201526139376000f3fe608060405234801561001057600080fd5b50600436106101165760003560e01c806394fa3add116100a2578063bf0cbdb711610071578063bf0cbdb7146102bf578063dde64303146102db578063e7b43da51461030b578063effca70514610327578063f2fde38b1461034357610116565b806394fa3add146102495780639d3ac04c14610279578063a0ef91df14610297578063bde12718146102a157610116565b80633ccfd60b116100e95780633ccfd60b146101b7578063543fd313146101c1578063715018a6146101f15780638cad7fbe146101fb5780638da5cb5b1461022b57610116565b806303a69c9a1461011b578063112666b71461014b5780631b2df30a14610169578063217a4b7014610199575b600080fd5b610135600480360381019061013091906127c8565b61035f565b6040516101429190612e0e565b60405180910390f35b6101536104dd565b6040516101609190612f18565b60405180910390f35b610183600480360381019061017e9190612907565b610501565b6040516101909190612e9e565b60405180910390f35b6101a1610540565b6040516101ae9190612e30565b60405180910390f35b6101bf610564565b005b6101db60048036038101906101d6919061256f565b6106ae565b6040516101e89190613033565b60405180910390f35b6101f96106c6565b005b6102156004803603810190610210919061286d565b61074e565b6040516102229190612efd565b60405180910390f35b610233610781565b6040516102409190612c99565b60405180910390f35b610263600480360381019061025e919061256f565b6107aa565b6040516102709190612e9e565b60405180910390f35b61028161094f565b60405161028e9190613033565b60405180910390f35b61029f61095c565b005b6102a9610aca565b6040516102b69190612eb9565b60405180910390f35b6102d960048036038101906102d491906126c1565b610aee565b005b6102f560048036038101906102f091906127c8565b610bb3565b6040516103029190612e0e565b60405180910390f35b610325600480360381019061032091906125c9565b610d53565b005b610341600480360381019061033c919061289a565b6113f8565b005b61035d6004803603810190610358919061256f565b6114f6565b005b60606000835167ffffffffffffffff81111561037e5761037d61368f565b5b6040519080825280602002602001820160405280156103ac5781602001602082028036833780820191505090505b50905060005b84518110156104d2577f000000000000000000000000000000000000000000000000000000000000000073ffffffffffffffffffffffffffffffffffffffff16638705c35985838151811061040a57610409613660565b5b602002602001015187848151811061042557610424613660565b5b60200260200101516040518363ffffffff1660e01b815260040161044a929190612ed4565b60206040518083038186803b15801561046257600080fd5b505afa158015610476573d6000803e3d6000fd5b505050506040513d601f19601f8201168201806040525081019061049a9190612840565b8282815181106104ad576104ac613660565b5b60200260200101901515908115158152505080806104ca906135e8565b9150506103b2565b508091505092915050565b7f000000000000000000000000000000000000000000000000000000000000000081565b6003818154811061051157600080fd5b906000526020600020016000915054906101000a900473ffffffffffffffffffffffffffffffffffffffff1681565b7f000000000000000000000000000000000000000000000000000000000000000081565b6000600160003373ffffffffffffffffffffffffffffffffffffffff1673ffffffffffffffffffffffffffffffffffffffff16815260200190815260200160002054905060008114156105b757506106ac565b6000600160003373ffffffffffffffffffffffffffffffffffffffff1673ffffffffffffffffffffffffffffffffffffffff168152602001908152602001600020819055507f000000000000000000000000000000000000000000000000000000000000000073ffffffffffffffffffffffffffffffffffffffff1663a9059cbb33836040518363ffffffff1660e01b8152600401610657929190612d67565b602060405180830381600087803b15801561067157600080fd5b505af1158015610685573d6000803e3d6000fd5b505050506040513d601f19601f820116820180604052508101906106a99190612840565b50505b565b60016020528060005260406000206000915090505481565b6106ce611725565b73ffffffffffffffffffffffffffffffffffffffff166106ec610781565b73ffffffffffffffffffffffffffffffffffffffff1614610742576040517f08c379a000000000000000000000000000000000000000000000000000000000815260040161073990612fb3565b60405180910390fd5b61074c600061172d565b565b60026020528060005260406000206000915054906101000a900473ffffffffffffffffffffffffffffffffffffffff1681565b60008060009054906101000a900473ffffffffffffffffffffffffffffffffffffffff16905090565b600080600380548060200260200160405190810160405280929190818152602001828054801561082f57602002820191906000526020600020905b8160009054906101000a900473ffffffffffffffffffffffffffffffffffffffff1673ffffffffffffffffffffffffffffffffffffffff16815260200190600101908083116107e5575b5050505050905060005b815181101561090e57600082828151811061085757610856613660565b5b602002602001015190508073ffffffffffffffffffffffffffffffffffffffff1663b31fb256866040518263ffffffff1660e01b815260040161089a9190612c99565b60206040518083038186803b1580156108b257600080fd5b505afa1580156108c6573d6000803e3d6000fd5b505050506040513d601f19601f820116820180604052508101906108ea9190612840565b156108fa5780935050505061094a565b508080610906906135e8565b915050610839565b506040517f08c379a000000000000000000000000000000000000000000000000000000000815260040161094190612f73565b60405180910390fd5b919050565b6000600380549050905090565b6000600160003373ffffffffffffffffffffffffffffffffffffffff1673ffffffffffffffffffffffffffffffffffffffff16815260200190815260200160002054905060008114156109af5750610ac8565b6000600160003373ffffffffffffffffffffffffffffffffffffffff1673ffffffffffffffffffffffffffffffffffffffff168152602001908152602001600020819055507f000000000000000000000000000000000000000000000000000000000000000073ffffffffffffffffffffffffffffffffffffffff16632e1a7d4d826040518263ffffffff1660e01b8152600401610a4d9190613033565b600060405180830381600087803b158015610a6757600080fd5b505af1158015610a7b573d6000803e3d6000fd5b505050503373ffffffffffffffffffffffffffffffffffffffff166108fc829081150290604051600060405180830381858888f19350505050158015610ac5573d6000803e3d6000fd5b50505b565b7f000000000000000000000000000000000000000000000000000000000000000081565b60006301ba87db90508173ffffffffffffffffffffffffffffffffffffffff166393a94ca3858584604051602001610b269190613033565b6040516020818303038152906040526040518463ffffffff1660e01b8152600401610b5393929190612dd5565b600060405180830381600087803b158015610b6d57600080fd5b505af1158015610b81573d6000803e3d6000fd5b505050506040513d6000823e3d601f19601f82011682018060405250810190610baa9190612721565b50505050505050565b60608151835114610bf9576040517f08c379a0000000000000000000000000000000000000000000000000000000008152600401610bf090612ff3565b60405180910390fd5b6000835167ffffffffffffffff811115610c1657610c1561368f565b5b604051908082528060200260200182016040528015610c445781602001602082028036833780820191505090505b50905060005b8451811015610d4857838181518110610c6657610c65613660565b5b602002602001015173ffffffffffffffffffffffffffffffffffffffff166338b51ce1868381518110610c9c57610c9b613660565b5b60200260200101516040518263ffffffff1660e01b8152600401610cc09190612c99565b60206040518083038186803b158015610cd857600080fd5b505afa158015610cec573d6000803e3d6000fd5b505050506040513d601f19601f82011682018060405250810190610d109190612840565b828281518110610d2357610d22613660565b5b6020026020010190151590811515815250508080610d40906135e8565b915050610c4a565b508091505092915050565b600081806020019051810190610d699190612934565b905060003390507f000000000000000000000000000000000000000000000000000000000000000073ffffffffffffffffffffffffffffffffffffffff166312f0dcd8826040518263ffffffff1660e01b8152600401610dc99190612c99565b60206040518083038186803b158015610de157600080fd5b505afa158015610df5573d6000803e3d6000fd5b505050506040513d601f19601f82011682018060405250810190610e199190612840565b610e58576040517f08c379a0000000000000000000000000000000000000000000000000000000008152600401610e4f90612fd3565b60405180910390fd5b600080600090505b8a8a9050811015610ec657610eb58b8b83818110610e8157610e80613660565b5b9050602002016020810190610e96919061256f565b8a8a84818110610ea957610ea8613660565b5b905060200201356117f1565b820191508080600101915050610e60565b50600080600090505b8b8b905081101561125e576000888883818110610eef57610eee613660565b5b905060200201351415610f015761124b565b610f4b8c8c83818110610f1757610f16613660565b5b9050602002016020810190610f2c919061256f565b898984818110610f3f57610f3e613660565b5b90506020020135611b5f565b820191508b8b82818110610f6257610f61613660565b5b9050602002016020810190610f77919061256f565b73ffffffffffffffffffffffffffffffffffffffff1663095ea7b3858a8a85818110610fa657610fa5613660565b5b905060200201356040518363ffffffff1660e01b8152600401610fca929190612d67565b602060405180830381600087803b158015610fe457600080fd5b505af1158015610ff8573d6000803e3d6000fd5b505050506040513d601f19601f8201168201806040525081019061101c9190612840565b508373ffffffffffffffffffffffffffffffffffffffff1663976ce4958d8d8481811061104c5761104b613660565b5b9050602002016020810190611061919061256f565b8f8b8b8681811061107557611074613660565b5b905060200201356040518463ffffffff1660e01b815260040161109a93929190612cb4565b600060405180830381600087803b1580156110b457600080fd5b505af11580156110c8573d6000803e3d6000fd5b5050505060008473ffffffffffffffffffffffffffffffffffffffff1663bf2730418e8e858181106110fd576110fc613660565b5b9050602002016020810190611112919061256f565b6040518263ffffffff1660e01b815260040161112e9190612c99565b60c06040518083038186803b15801561114657600080fd5b505afa15801561115a573d6000803e3d6000fd5b505050506040513d601f19601f8201168201806040525081019061117e91906128da565b6040015173ffffffffffffffffffffffffffffffffffffffff166370a082318f6040518263ffffffff1660e01b81526004016111ba9190612c99565b60206040518083038186803b1580156111d257600080fd5b505afa1580156111e6573d6000803e3d6000fd5b505050506040513d601f19601f8201168201806040525081019061120a9190612934565b1461124a576040517f08c379a000000000000000000000000000000000000000000000000000000000815260040161124190613013565b60405180910390fd5b5b8080611256906135e8565b915050610ecf565b506000818361126d9190613371565b90506000611279610781565b9050600082126112d35781600160008373ffffffffffffffffffffffffffffffffffffffff1673ffffffffffffffffffffffffffffffffffffffff168152602001908152602001600020546112ce9190613204565b61134a565b817fffffffffffffffffffffffffffffffffffffffffffffffffffffffffffffffff6112ff919061325a565b600160008373ffffffffffffffffffffffffffffffffffffffff1673ffffffffffffffffffffffffffffffffffffffff168152602001908152602001600020546113499190613405565b5b600160008373ffffffffffffffffffffffffffffffffffffffff1673ffffffffffffffffffffffffffffffffffffffff1681526020019081526020016000208190555060006152085a8861139e9190613405565b6113a89190613405565b90507f6e1a737bede5a157b5cc67b23d86a07ed1b1529f80df499c7808cc7c2fa8052f8f8685846040516113df9493929190612d90565b60405180910390a1505050505050505050505050505050565b611400611725565b73ffffffffffffffffffffffffffffffffffffffff1661141e610781565b73ffffffffffffffffffffffffffffffffffffffff1614611474576040517f08c379a000000000000000000000000000000000000000000000000000000000815260040161146b90612fb3565b60405180910390fd5b80600260008473ffffffffffffffffffffffffffffffffffffffff1673ffffffffffffffffffffffffffffffffffffffff16815260200190815260200160002060006101000a81548173ffffffffffffffffffffffffffffffffffffffff021916908373ffffffffffffffffffffffffffffffffffffffff1602179055505050565b6114fe611725565b73ffffffffffffffffffffffffffffffffffffffff1661151c610781565b73ffffffffffffffffffffffffffffffffffffffff1614611572576040517f08c379a000000000000000000000000000000000000000000000000000000000815260040161156990612fb3565b60405180910390fd5b600073ffffffffffffffffffffffffffffffffffffffff168173ffffffffffffffffffffffffffffffffffffffff1614156115e2576040517f08c379a00000000000000000000000000000000000000000000000000000000081526004016115d990612f33565b60405180910390fd5b6115eb8161172d565b50565b60008073ffffffffffffffffffffffffffffffffffffffff168373ffffffffffffffffffffffffffffffffffffffff16141561162d576000905061171f565b6000808473ffffffffffffffffffffffffffffffffffffffff1684604051602401604051602081830303815290604052907bffffffffffffffffffffffffffffffffffffffffffffffffffffffff19166020820180517bffffffffffffffffffffffffffffffffffffffffffffffffffffffff83818316178352505050506040516116b89190612c82565b600060405180830381855afa9150503d80600081146116f3576040519150601f19603f3d011682016040523d82523d6000602084013e6116f8565b606091505b509150915081801561171a5750808060200190518101906117199190612840565b5b925050505b92915050565b600033905090565b60008060009054906101000a900473ffffffffffffffffffffffffffffffffffffffff169050816000806101000a81548173ffffffffffffffffffffffffffffffffffffffff021916908373ffffffffffffffffffffffffffffffffffffffff1602179055508173ffffffffffffffffffffffffffffffffffffffff168173ffffffffffffffffffffffffffffffffffffffff167f8be0079c531659141344cd1fd0a4f28419497f9722a3daafe3b4186f6b6457e060405160405180910390a35050565b60008082148061184c57507f000000000000000000000000000000000000000000000000000000000000000073ffffffffffffffffffffffffffffffffffffffff168373ffffffffffffffffffffffffffffffffffffffff16145b1561185957819050611b59565b6000611864846107aa565b90506000600260008373ffffffffffffffffffffffffffffffffffffffff1673ffffffffffffffffffffffffffffffffffffffff16815260200190815260200160002060009054906101000a900473ffffffffffffffffffffffffffffffffffffffff16905060007f9cffaf6fb5a9865a918eb304cffc7751c01747ee00e8e35a30144c35b800d32e867f000000000000000000000000000000000000000000000000000000000000000087868a604051602401611926959493929190612ceb565b604051602081830303815290604052907bffffffffffffffffffffffffffffffffffffffffffffffffffffffff19166020820180517bffffffffffffffffffffffffffffffffffffffffffffffffffffffff838183161783525050505090508573ffffffffffffffffffffffffffffffffffffffff1663095ea7b38373ffffffffffffffffffffffffffffffffffffffff1663db36eb2e6040518163ffffffff1660e01b815260040160206040518083038186803b1580156119e757600080fd5b505afa1580156119fb573d6000803e3d6000fd5b505050506040513d601f19601f82011682018060405250810190611a1f919061259c565b876040518363ffffffff1660e01b8152600401611a3d929190612d67565b602060405180830381600087803b158015611a5757600080fd5b505af1158015611a6b573d6000803e3d6000fd5b505050506040513d601f19601f82011682018060405250810190611a8f9190612840565b506000808373ffffffffffffffffffffffffffffffffffffffff1683604051611ab89190612c82565b600060405180830381855af49150503d8060008114611af3576040519150601f19603f3d011682016040523d82523d6000602084013e611af8565b606091505b509150915081611b3d576040517f08c379a0000000000000000000000000000000000000000000000000000000008152600401611b3490612f93565b60405180910390fd5b80806020019051810190611b519190612934565b955050505050505b92915050565b600080821480611bba57508273ffffffffffffffffffffffffffffffffffffffff167f000000000000000000000000000000000000000000000000000000000000000073ffffffffffffffffffffffffffffffffffffffff16145b15611bc757819050611fbc565b6000611bd2846107aa565b90506000600260008373ffffffffffffffffffffffffffffffffffffffff1673ffffffffffffffffffffffffffffffffffffffff16815260200190815260200160002060009054906101000a900473ffffffffffffffffffffffffffffffffffffffff16905060007f168c66b4ef41014cf231456cf6fce893ddb0a4a9bbef08aa50af66187c72fa1c7f00000000000000000000000000000000000000000000000000000000000000008787868a604051602401611c94959493929190612e4b565b604051602081830303815290604052907bffffffffffffffffffffffffffffffffffffffffffffffffffffffff19166020820180517bffffffffffffffffffffffffffffffffffffffffffffffffffffffff8381831617835250505050905060008273ffffffffffffffffffffffffffffffffffffffff1663db36eb2e6040518163ffffffff1660e01b815260040160206040518083038186803b158015611d3b57600080fd5b505afa158015611d4f573d6000803e3d6000fd5b505050506040513d601f19601f82011682018060405250810190611d73919061259c565b90507f000000000000000000000000000000000000000000000000000000000000000073ffffffffffffffffffffffffffffffffffffffff1663095ea7b3827fffffffffffffffffffffffffffffffffffffffffffffffffffffffffffffffff6040518363ffffffff1660e01b8152600401611df0929190612d67565b602060405180830381600087803b158015611e0a57600080fd5b505af1158015611e1e573d6000803e3d6000fd5b505050506040513d601f19601f82011682018060405250810190611e429190612840565b506000808473ffffffffffffffffffffffffffffffffffffffff1684604051611e6b9190612c82565b600060405180830381855af49150503d8060008114611ea6576040519150601f19603f3d011682016040523d82523d6000602084013e611eab565b606091505b509150915081611ef0576040517f08c379a0000000000000000000000000000000000000000000000000000000008152600401611ee790612f53565b60405180910390fd5b7f000000000000000000000000000000000000000000000000000000000000000073ffffffffffffffffffffffffffffffffffffffff1663095ea7b38460006040518363ffffffff1660e01b8152600401611f4c929190612d3e565b602060405180830381600087803b158015611f6657600080fd5b505af1158015611f7a573d6000803e3d6000fd5b505050506040513d601f19601f82011682018060405250810190611f9e9190612840565b5080806020019051810190611fb39190612934565b96505050505050505b92915050565b6000611fd5611fd084613073565b61304e565b90508083825260208201905082856020860282011115611ff857611ff76136cd565b5b60005b85811015612028578161200e8882612252565b845260208401935060208301925050600181019050611ffb565b5050509392505050565b600061204561204084613073565b61304e565b90508083825260208201905082856020860282011115612068576120676136cd565b5b60005b85811015612098578161207e8882612267565b84526020840193506020830192505060018101905061206b565b5050509392505050565b60006120b56120b08461309f565b61304e565b905080838252602082019050828560208602820111156120d8576120d76136cd565b5b60005b8581101561212657815167ffffffffffffffff8111156120fe576120fd6136c3565b5b80860161210b89826123e0565b855260208501945060208401935050506001810190506120db565b5050509392505050565b600061214361213e846130cb565b61304e565b90508083825260208201905082856020860282011115612166576121656136cd565b5b60005b85811015612196578161217c888261247b565b845260208401935060208301925050600181019050612169565b5050509392505050565b60006121b36121ae846130f7565b61304e565b905080838252602082019050828560208602820111156121d6576121d56136cd565b5b60005b8581101561220657816121ec888261255a565b8452602084019350602083019250506001810190506121d9565b5050509392505050565b600061222361221e84613123565b61304e565b90508281526020810184848401111561223f5761223e6136d2565b5b61224a848285613575565b509392505050565b60008135905061226181613860565b92915050565b60008151905061227681613860565b92915050565b60008083601f840112612292576122916136c3565b5b8235905067ffffffffffffffff8111156122af576122ae6136be565b5b6020830191508360208202830111156122cb576122ca6136cd565b5b9250929050565b600082601f8301126122e7576122e66136c3565b5b81356122f7848260208601611fc2565b91505092915050565b600082601f830112612315576123146136c3565b5b8151612325848260208601612032565b91505092915050565b600082601f830112612343576123426136c3565b5b81516123538482602086016120a2565b91505092915050565b600082601f830112612371576123706136c3565b5b8135612381848260208601612130565b91505092915050565b60008083601f8401126123a05761239f6136c3565b5b8235905067ffffffffffffffff8111156123bd576123bc6136be565b5b6020830191508360208202830111156123d9576123d86136cd565b5b9250929050565b600082601f8301126123f5576123f46136c3565b5b81516124058482602086016121a0565b91505092915050565b60008151905061241d81613877565b92915050565b600082601f830112612438576124376136c3565b5b8135612448848260208601612210565b91505092915050565b6000813590506124608161388e565b92915050565b600081519050612475816138a5565b92915050565b60008135905061248a816138bc565b92915050565b60008135905061249f816138d3565b92915050565b600060c082840312156124bb576124ba6136c8565b5b6124c560c061304e565b905060006124d584828501612466565b60008301525060206124e984828501612466565b60208301525060406124fd84828501612466565b60408301525060606125118482850161255a565b60608301525060806125258482850161255a565b60808301525060a06125398482850161255a565b60a08301525092915050565b600081359050612554816138ea565b92915050565b600081519050612569816138ea565b92915050565b600060208284031215612585576125846136dc565b5b600061259384828501612252565b91505092915050565b6000602082840312156125b2576125b16136dc565b5b60006125c084828501612267565b91505092915050565b60008060008060008060008060a0898b0312156125e9576125e86136dc565b5b60006125f78b828c01612252565b985050602089013567ffffffffffffffff811115612618576126176136d7565b5b6126248b828c0161227c565b9750975050604089013567ffffffffffffffff811115612647576126466136d7565b5b6126538b828c0161238a565b9550955050606089013567ffffffffffffffff811115612676576126756136d7565b5b6126828b828c0161238a565b9350935050608089013567ffffffffffffffff8111156126a5576126a46136d7565b5b6126b18b828c01612423565b9150509295985092959890939650565b6000806000604084860312156126da576126d96136dc565b5b600084013567ffffffffffffffff8111156126f8576126f76136d7565b5b6127048682870161227c565b935093505060206127178682870161247b565b9150509250925092565b60008060006060848603121561273a576127396136dc565b5b600084015167ffffffffffffffff811115612758576127576136d7565b5b61276486828701612300565b935050602084015167ffffffffffffffff811115612785576127846136d7565b5b6127918682870161232e565b925050604084015167ffffffffffffffff8111156127b2576127b16136d7565b5b6127be8682870161232e565b9150509250925092565b600080604083850312156127df576127de6136dc565b5b600083013567ffffffffffffffff8111156127fd576127fc6136d7565b5b612809858286016122d2565b925050602083013567ffffffffffffffff81111561282a576128296136d7565b5b6128368582860161235c565b9150509250929050565b600060208284031215612856576128556136dc565b5b60006128648482850161240e565b91505092915050565b600060208284031215612883576128826136dc565b5b600061289184828501612451565b91505092915050565b600080604083850312156128b1576128b06136dc565b5b60006128bf85828601612451565b92505060206128d085828601612490565b9150509250929050565b600060c082840312156128f0576128ef6136dc565b5b60006128fe848285016124a5565b91505092915050565b60006020828403121561291d5761291c6136dc565b5b600061292b84828501612545565b91505092915050565b60006020828403121561294a576129496136dc565b5b60006129588482850161255a565b91505092915050565b600061296d8383612991565b60208301905092915050565b60006129858383612a6a565b60208301905092915050565b61299a81613439565b82525050565b6129a981613439565b82525050565b60006129bb838561319e565b93506129c682613154565b8060005b858110156129ff576129dc82846131ed565b6129e68882612961565b97506129f183613184565b9250506001810190506129ca565b5085925050509392505050565b6000612a178261316e565b612a2181856131af565b9350612a2c8361315e565b8060005b83811015612a5d578151612a448882612979565b9750612a4f83613191565b925050600181019050612a30565b5085935050505092915050565b612a738161344b565b82525050565b6000612a8482613179565b612a8e81856131c0565b9350612a9e818560208601613584565b612aa7816136e1565b840191505092915050565b6000612abd82613179565b612ac781856131d1565b9350612ad7818560208601613584565b80840191505092915050565b612aec816134d3565b82525050565b612afb816134e5565b82525050565b612b0a816134f7565b82525050565b612b1981613509565b82525050565b612b288161351b565b82525050565b612b378161352d565b82525050565b612b468161349f565b82525050565b612b558161353f565b82525050565b6000612b686026836131dc565b9150612b73826136f2565b604082019050919050565b6000612b8b6014836131dc565b9150612b9682613741565b602082019050919050565b6000612bae6012836131dc565b9150612bb98261376a565b602082019050919050565b6000612bd16013836131dc565b9150612bdc82613793565b602082019050919050565b6000612bf46020836131dc565b9150612bff826137bc565b602082019050919050565b6000612c17600a836131dc565b9150612c22826137e5565b602082019050919050565b6000612c3a6004836131dc565b9150612c458261380e565b602082019050919050565b6000612c5d600c836131dc565b9150612c6882613837565b602082019050919050565b612c7c816134c9565b82525050565b6000612c8e8284612ab2565b915081905092915050565b6000602082019050612cae60008301846129a0565b92915050565b6000606082019050612cc960008301866129a0565b612cd660208301856129a0565b612ce36040830184612c73565b949350505050565b600060a082019050612d0060008301886129a0565b612d0d6020830187612ae3565b612d1a6040830186612c73565b612d276060830185612af2565b612d3460808301846129a0565b9695505050505050565b6000604082019050612d5360008301856129a0565b612d606020830184612b4c565b9392505050565b6000604082019050612d7c60008301856129a0565b612d896020830184612c73565b9392505050565b6000608082019050612da560008301876129a0565b612db26020830186612c73565b612dbf6040830185612b3d565b612dcc6060830184612c73565b95945050505050565b60006040820190508181036000830152612df08185876129af565b90508181036020830152612e048184612a79565b9050949350505050565b60006020820190508181036000830152612e288184612a0c565b905092915050565b6000602082019050612e456000830184612ae3565b92915050565b600060a082019050612e606000830188612ae3565b612e6d60208301876129a0565b612e7a6040830186612c73565b612e876060830185612af2565b612e9460808301846129a0565b9695505050505050565b6000602082019050612eb36000830184612af2565b92915050565b6000602082019050612ece6000830184612b01565b92915050565b6000604082019050612ee96000830185612b10565b612ef660208301846129a0565b9392505050565b6000602082019050612f126000830184612b1f565b92915050565b6000602082019050612f2d6000830184612b2e565b92915050565b60006020820190508181036000830152612f4c81612b5b565b9050919050565b60006020820190508181036000830152612f6c81612b7e565b9050919050565b60006020820190508181036000830152612f8c81612ba1565b9050919050565b60006020820190508181036000830152612fac81612bc4565b9050919050565b60006020820190508181036000830152612fcc81612be7565b9050919050565b60006020820190508181036000830152612fec81612c0a565b9050919050565b6000602082019050818103600083015261300c81612c2d565b9050919050565b6000602082019050818103600083015261302c81612c50565b9050919050565b60006020820190506130486000830184612c73565b92915050565b6000613058613069565b905061306482826135b7565b919050565b6000604051905090565b600067ffffffffffffffff82111561308e5761308d61368f565b5b602082029050602081019050919050565b600067ffffffffffffffff8211156130ba576130b961368f565b5b602082029050602081019050919050565b600067ffffffffffffffff8211156130e6576130e561368f565b5b602082029050602081019050919050565b600067ffffffffffffffff8211156131125761311161368f565b5b602082029050602081019050919050565b600067ffffffffffffffff82111561313e5761313d61368f565b5b613147826136e1565b9050602081019050919050565b6000819050919050565b6000819050602082019050919050565b600081519050919050565b600081519050919050565b6000602082019050919050565b6000602082019050919050565b600082825260208201905092915050565b600082825260208201905092915050565b600082825260208201905092915050565b600081905092915050565b600082825260208201905092915050565b60006131fc6020840184612252565b905092915050565b600061320f826134c9565b915061321a836134c9565b9250827fffffffffffffffffffffffffffffffffffffffffffffffffffffffffffffffff0382111561324f5761324e613631565b5b828201905092915050565b60006132658261349f565b91506132708361349f565b9250827f7fffffffffffffffffffffffffffffffffffffffffffffffffffffffffffffff04821160008413600084131616156132af576132ae613631565b5b817f800000000000000000000000000000000000000000000000000000000000000005831260008412600084131616156132ec576132eb613631565b5b827f8000000000000000000000000000000000000000000000000000000000000000058212600084136000841216161561332957613328613631565b5b827f7fffffffffffffffffffffffffffffffffffffffffffffffffffffffffffffff058212600084126000841216161561336657613365613631565b5b828202905092915050565b600061337c8261349f565b91506133878361349f565b9250827f8000000000000000000000000000000000000000000000000000000000000000018212600084121516156133c2576133c1613631565b5b827f7fffffffffffffffffffffffffffffffffffffffffffffffffffffffffffffff0182136000841216156133fa576133f9613631565b5b828203905092915050565b6000613410826134c9565b915061341b836134c9565b92508282101561342e5761342d613631565b5b828203905092915050565b6000613444826134a9565b9050919050565b60008115159050919050565b600061346282613439565b9050919050565b600061347482613439565b9050919050565b600061348682613439565b9050919050565b600061349882613439565b9050919050565b6000819050919050565b600073ffffffffffffffffffffffffffffffffffffffff82169050919050565b6000819050919050565b60006134de82613551565b9050919050565b60006134f082613551565b9050919050565b600061350282613551565b9050919050565b600061351482613551565b9050919050565b600061352682613551565b9050919050565b600061353882613551565b9050919050565b600061354a826134c9565b9050919050565b600061355c82613563565b9050919050565b600061356e826134a9565b9050919050565b82818337600083830152505050565b60005b838110156135a2578082015181840152602081019050613587565b838111156135b1576000848401525b50505050565b6135c0826136e1565b810181811067ffffffffffffffff821117156135df576135de61368f565b5b80604052505050565b60006135f3826134c9565b91507fffffffffffffffffffffffffffffffffffffffffffffffffffffffffffffffff82141561362657613625613631565b5b600182019050919050565b7f4e487b7100000000000000000000000000000000000000000000000000000000600052601160045260246000fd5b7f4e487b7100000000000000000000000000000000000000000000000000000000600052603260045260246000fd5b7f4e487b7100000000000000000000000000000000000000000000000000000000600052604160045260246000fd5b600080fd5b600080fd5b600080fd5b600080fd5b600080fd5b600080fd5b600080fd5b6000601f19601f8301169050919050565b7f4f776e61626c653a206e6577206f776e657220697320746865207a65726f206160008201527f6464726573730000000000000000000000000000000000000000000000000000602082015250565b7f73776170416d6f756e744f7574206661696c6564000000000000000000000000600082015250565b7f70726f7669646572206e6f7420666f756e640000000000000000000000000000600082015250565b7f73776170416d6f756e74496e206661696c656400000000000000000000000000600082015250565b7f4f776e61626c653a2063616c6c6572206973206e6f7420746865206f776e6572600082015250565b7f6e6f7420612053696c6f00000000000000000000000000000000000000000000600082015250565b7f6f6f707300000000000000000000000000000000000000000000000000000000600082015250565b7f7265706179206661696c65640000000000000000000000000000000000000000600082015250565b61386981613439565b811461387457600080fd5b50565b6138808161344b565b811461388b57600080fd5b50565b61389781613457565b81146138a257600080fd5b50565b6138ae81613469565b81146138b957600080fd5b50565b6138c58161347b565b81146138d057600080fd5b50565b6138dc8161348d565b81146138e757600080fd5b50565b6138f3816134c9565b81146138fe57600080fd5b5056fea264697066735822122048452197a35b028bc3d1c9e6989ff50f70030ce713d78e32ededc6824977115e64736f6c63430008070033",
  "linkReferences": {},
  "deployedLinkReferences": {}
}