{
  "_format": "hh-sol-artifact-1",
  "contractName": "LiquidationHelper",
  "sourceName": "contracts/liquidation/LiquidationHelper.sol",
  "abi": [
    {
      "inputs": [
        {
          "internalType": "address",
          "name": "_repository",
          "type": "address"
        },
        {
          "internalType": "address",
          "name": "_lens",
          "type": "address"
        },
        {
          "internalType": "contract IOracle[]",
          "name": "_oraclesWithSwapOption",
          "type": "address[]"
        },
        {
          "internalType": "contract ISwapper[]",
          "name": "_swappers",
          "type": "address[]"
        }
      ],
      "stateMutability": "nonpayable",
      "type": "constructor"
    },
    {
      "anonymous": false,
      "inputs": [
        {
          "indexed": false,
          "internalType": "address",
          "name": "user",
          "type": "address"
        },
        {
          "indexed": false,
          "internalType": "uint256",
          "name": "quoteAmountFromCollaterals",
          "type": "uint256"
        },
        {
          "indexed": false,
          "internalType": "int256",
          "name": "quoteLeftAfterRepay",
          "type": "int256"
        },
        {
          "indexed": false,
          "internalType": "uint256",
          "name": "gasSpend",
          "type": "uint256"
        }
      ],
      "name": "LiquidationBalance",
      "type": "event"
    },
    {
      "anonymous": false,
      "inputs": [
        {
          "indexed": true,
          "internalType": "address",
          "name": "previousOwner",
          "type": "address"
        },
        {
          "indexed": true,
          "internalType": "address",
          "name": "newOwner",
          "type": "address"
        }
      ],
      "name": "OwnershipTransferred",
      "type": "event"
    },
    {
      "inputs": [],
      "name": "SWAP_AMOUNT_IN_SELECTOR",
      "outputs": [
        {
          "internalType": "bytes4",
          "name": "",
          "type": "bytes4"
        }
      ],
      "stateMutability": "view",
      "type": "function"
    },
    {
      "inputs": [],
      "name": "SWAP_AMOUNT_OUT_SELECTOR",
      "outputs": [
        {
          "internalType": "bytes4",
          "name": "",
          "type": "bytes4"
        }
      ],
      "stateMutability": "view",
      "type": "function"
    },
    {
      "inputs": [
        {
          "internalType": "address[]",
          "name": "_users",
          "type": "address[]"
        },
        {
          "internalType": "contract ISilo[]",
          "name": "_silos",
          "type": "address[]"
        }
      ],
      "name": "checkDebt",
      "outputs": [
        {
          "internalType": "bool[]",
          "name": "",
          "type": "bool[]"
        }
      ],
      "stateMutability": "view",
      "type": "function"
    },
    {
      "inputs": [
        {
          "internalType": "address[]",
          "name": "_users",
          "type": "address[]"
        },
        {
          "internalType": "contract ISilo[]",
          "name": "_silos",
          "type": "address[]"
        }
      ],
      "name": "checkSolvency",
      "outputs": [
        {
          "internalType": "bool[]",
          "name": "",
          "type": "bool[]"
        }
      ],
      "stateMutability": "view",
      "type": "function"
    },
    {
      "inputs": [
        {
          "internalType": "address",
          "name": "",
          "type": "address"
        }
      ],
      "name": "earnings",
      "outputs": [
        {
          "internalType": "uint256",
          "name": "",
          "type": "uint256"
        }
      ],
      "stateMutability": "view",
      "type": "function"
    },
    {
      "inputs": [
        {
          "internalType": "address[]",
          "name": "_users",
          "type": "address[]"
        },
        {
          "internalType": "contract ISilo",
          "name": "_silo",
          "type": "address"
        }
      ],
      "name": "executeLiquidation",
      "outputs": [],
      "stateMutability": "nonpayable",
      "type": "function"
    },
    {
      "inputs": [
        {
          "internalType": "address",
          "name": "_asset",
          "type": "address"
        }
      ],
      "name": "findBestOracle",
      "outputs": [
        {
          "internalType": "contract IOracle",
          "name": "",
          "type": "address"
        }
      ],
      "stateMutability": "view",
      "type": "function"
    },
    {
      "inputs": [],
      "name": "lens",
      "outputs": [
        {
          "internalType": "contract SiloLens",
          "name": "",
          "type": "address"
        }
      ],
      "stateMutability": "view",
      "type": "function"
    },
    {
      "inputs": [
        {
          "internalType": "uint256",
          "name": "",
          "type": "uint256"
        }
      ],
      "name": "oraclesWithSwapOption",
      "outputs": [
        {
          "internalType": "contract IOracle",
          "name": "",
          "type": "address"
        }
      ],
      "stateMutability": "view",
      "type": "function"
    },
    {
      "inputs": [],
      "name": "oraclesWithSwapOptionCount",
      "outputs": [
        {
          "internalType": "uint256",
          "name": "",
          "type": "uint256"
        }
      ],
      "stateMutability": "view",
      "type": "function"
    },
    {
      "inputs": [],
      "name": "owner",
      "outputs": [
        {
          "internalType": "address",
          "name": "",
          "type": "address"
        }
      ],
      "stateMutability": "view",
      "type": "function"
    },
    {
      "inputs": [],
      "name": "quoteToken",
      "outputs": [
        {
          "internalType": "contract IERC20",
          "name": "",
          "type": "address"
        }
      ],
      "stateMutability": "view",
      "type": "function"
    },
    {
      "inputs": [],
      "name": "renounceOwnership",
      "outputs": [],
      "stateMutability": "nonpayable",
      "type": "function"
    },
    {
      "inputs": [],
      "name": "repository",
      "outputs": [
        {
          "internalType": "contract IRepository",
          "name": "",
          "type": "address"
        }
      ],
      "stateMutability": "view",
      "type": "function"
    },
    {
      "inputs": [
        {
          "internalType": "contract IOracle",
          "name": "_oracle",
          "type": "address"
        },
        {
          "internalType": "contract ISwapper",
          "name": "_swapper",
          "type": "address"
        }
      ],
      "name": "setSwapper",
      "outputs": [],
      "stateMutability": "nonpayable",
      "type": "function"
    },
    {
      "inputs": [
        {
          "internalType": "address",
          "name": "_user",
          "type": "address"
        },
        {
          "internalType": "address[]",
          "name": "_assets",
          "type": "address[]"
        },
        {
          "internalType": "uint256[]",
          "name": "_receivedCollaterals",
          "type": "uint256[]"
        },
        {
          "internalType": "uint256[]",
          "name": "_shareAmountsToRepaid",
          "type": "uint256[]"
        },
        {
          "internalType": "bytes",
          "name": "_flashReceiverData",
          "type": "bytes"
        }
      ],
      "name": "siloLiquidationCallback",
      "outputs": [],
      "stateMutability": "nonpayable",
      "type": "function"
    },
    {
      "inputs": [
        {
          "internalType": "address",
          "name": "_asset",
          "type": "address"
        },
        {
          "internalType": "uint256",
          "name": "_amount",
          "type": "uint256"
        }
      ],
      "name": "swapForAsset",
      "outputs": [
        {
          "internalType": "uint256",
          "name": "",
          "type": "uint256"
        }
      ],
      "stateMutability": "nonpayable",
      "type": "function"
    },
    {
      "inputs": [
        {
          "internalType": "address",
          "name": "_asset",
          "type": "address"
        },
        {
          "internalType": "uint256",
          "name": "_amount",
          "type": "uint256"
        }
      ],
      "name": "swapForQuote",
      "outputs": [
        {
          "internalType": "uint256",
          "name": "",
          "type": "uint256"
        }
      ],
      "stateMutability": "nonpayable",
      "type": "function"
    },
    {
      "inputs": [
        {
          "internalType": "contract IOracle",
          "name": "",
          "type": "address"
        }
      ],
      "name": "swappers",
      "outputs": [
        {
          "internalType": "contract ISwapper",
          "name": "",
          "type": "address"
        }
      ],
      "stateMutability": "view",
      "type": "function"
    },
    {
      "inputs": [
        {
          "internalType": "address",
          "name": "newOwner",
          "type": "address"
        }
      ],
      "name": "transferOwnership",
      "outputs": [],
      "stateMutability": "nonpayable",
      "type": "function"
    },
    {
      "inputs": [],
      "name": "withdraw",
      "outputs": [],
      "stateMutability": "nonpayable",
      "type": "function"
    },
    {
      "inputs": [],
      "name": "withdrawEth",
      "outputs": [],
      "stateMutability": "nonpayable",
      "type": "function"
    }
  ],
  "bytecode": "0x60e06040523480156200001157600080fd5b50604051620042c5380380620042c583398181016040528101906200003791906200077d565b620000576200004b6200043060201b60201c565b6200043860201b60201c565b600073ffffffffffffffffffffffffffffffffffffffff168473ffffffffffffffffffffffffffffffffffffffff161415620000ca576040517f08c379a0000000000000000000000000000000000000000000000000000000008152600401620000c190620008e6565b60405180910390fd5b600073ffffffffffffffffffffffffffffffffffffffff168373ffffffffffffffffffffffffffffffffffffffff1614156200013d576040517f08c379a00000000000000000000000000000000000000000000000000000000081526004016200013490620008c4565b60405180910390fd5b815181511462000184576040517f08c379a00000000000000000000000000000000000000000000000000000000081526004016200017b90620008a2565b60405180910390fd5b8373ffffffffffffffffffffffffffffffffffffffff1660808173ffffffffffffffffffffffffffffffffffffffff1660601b815250508273ffffffffffffffffffffffffffffffffffffffff1660a08173ffffffffffffffffffffffffffffffffffffffff1660601b8152505060005b8151811015620002cd5781818151811062000215576200021462000ab9565b5b60200260200101516002600085848151811062000237576200023662000ab9565b5b602002602001015173ffffffffffffffffffffffffffffffffffffffff1673ffffffffffffffffffffffffffffffffffffffff16815260200190815260200160002060006101000a81548173ffffffffffffffffffffffffffffffffffffffff021916908373ffffffffffffffffffffffffffffffffffffffff1602179055508080620002c49062000a3c565b915050620001f5565b508160039080519060200190620002e6929190620004fc565b5060008473ffffffffffffffffffffffffffffffffffffffff16637dc0d1d06040518163ffffffff1660e01b815260040160206040518083038186803b1580156200033057600080fd5b505afa15801562000345573d6000803e3d6000fd5b505050506040513d601f19601f820116820180604052508101906200036b91906200074b565b90508073ffffffffffffffffffffffffffffffffffffffff1663217a4b706040518163ffffffff1660e01b815260040160206040518083038186803b158015620003b457600080fd5b505afa158015620003c9573d6000803e3d6000fd5b505050506040513d601f19601f82011682018060405250810190620003ef91906200074b565b73ffffffffffffffffffffffffffffffffffffffff1660c08173ffffffffffffffffffffffffffffffffffffffff1660601b81525050505050505062000c05565b600033905090565b60008060009054906101000a900473ffffffffffffffffffffffffffffffffffffffff169050816000806101000a81548173ffffffffffffffffffffffffffffffffffffffff021916908373ffffffffffffffffffffffffffffffffffffffff1602179055508173ffffffffffffffffffffffffffffffffffffffff168173ffffffffffffffffffffffffffffffffffffffff167f8be0079c531659141344cd1fd0a4f28419497f9722a3daafe3b4186f6b6457e060405160405180910390a35050565b82805482825590600052602060002090810192821562000578579160200282015b82811115620005775782518260006101000a81548173ffffffffffffffffffffffffffffffffffffffff021916908373ffffffffffffffffffffffffffffffffffffffff160217905550916020019190600101906200051d565b5b5090506200058791906200058b565b5090565b5b80821115620005a65760008160009055506001016200058c565b5090565b6000620005c1620005bb8462000931565b62000908565b90508083825260208201905082856020860282011115620005e757620005e662000b1c565b5b60005b858110156200061b57816200060088826200071d565b845260208401935060208301925050600181019050620005ea565b5050509392505050565b60006200063c620006368462000960565b62000908565b9050808382526020820190508285602086028201111562000662576200066162000b1c565b5b60005b858110156200069657816200067b888262000734565b84526020840193506020830192505060018101905062000665565b5050509392505050565b600081519050620006b18162000bb7565b92915050565b600082601f830112620006cf57620006ce62000b17565b5b8151620006e1848260208601620005aa565b91505092915050565b600082601f83011262000702576200070162000b17565b5b81516200071484826020860162000625565b91505092915050565b6000815190506200072e8162000bd1565b92915050565b600081519050620007458162000beb565b92915050565b60006020828403121562000764576200076362000b26565b5b60006200077484828501620006a0565b91505092915050565b600080600080608085870312156200079a576200079962000b26565b5b6000620007aa87828801620006a0565b9450506020620007bd87828801620006a0565b935050604085015167ffffffffffffffff811115620007e157620007e062000b21565b5b620007ef87828801620006b7565b925050606085015167ffffffffffffffff81111562000813576200081262000b21565b5b6200082187828801620006ea565b91505092959194509250565b60006200083c6013836200098f565b9150620008498262000b3c565b602082019050919050565b600062000863600a836200098f565b9150620008708262000b65565b602082019050919050565b60006200088a6010836200098f565b9150620008978262000b8e565b602082019050919050565b60006020820190508181036000830152620008bd816200082d565b9050919050565b60006020820190508181036000830152620008df8162000854565b9050919050565b6000602082019050818103600083015262000901816200087b565b9050919050565b60006200091462000927565b905062000922828262000a06565b919050565b6000604051905090565b600067ffffffffffffffff8211156200094f576200094e62000ae8565b5b602082029050602081019050919050565b600067ffffffffffffffff8211156200097e576200097d62000ae8565b5b602082029050602081019050919050565b600082825260208201905092915050565b6000620009ad82620009dc565b9050919050565b6000620009c182620009a0565b9050919050565b6000620009d582620009a0565b9050919050565b600073ffffffffffffffffffffffffffffffffffffffff82169050919050565b6000819050919050565b62000a118262000b2b565b810181811067ffffffffffffffff8211171562000a335762000a3262000ae8565b5b80604052505050565b600062000a4982620009fc565b91507fffffffffffffffffffffffffffffffffffffffffffffffffffffffffffffffff82141562000a7f5762000a7e62000a8a565b5b600182019050919050565b7f4e487b7100000000000000000000000000000000000000000000000000000000600052601160045260246000fd5b7f4e487b7100000000000000000000000000000000000000000000000000000000600052603260045260246000fd5b7f4e487b7100000000000000000000000000000000000000000000000000000000600052604160045260246000fd5b600080fd5b600080fd5b600080fd5b600080fd5b6000601f19601f8301169050919050565b7f737761707065727320213d206f7261636c657300000000000000000000000000600082015250565b7f656d707479206c656e7300000000000000000000000000000000000000000000600082015250565b7f656d707479207265706f7369746f727900000000000000000000000000000000600082015250565b62000bc281620009a0565b811462000bce57600080fd5b50565b62000bdc81620009b4565b811462000be857600080fd5b50565b62000bf681620009c8565b811462000c0257600080fd5b50565b60805160601c60a05160601c60c05160601c61364162000c84600039600081816105cb015281816106ab01528181610a2c01528181610b0601528181610c2001528181610d9b01528181610f2e015281816110d101526111c301526000818161048501526105a70152600081816115f10152611afb01526136416000f3fe608060405234801561001057600080fd5b50600436106101425760003560e01c80638d46a1fa116100b8578063dde643031161007c578063dde6430314610367578063e7b43da514610397578063e9176c60146103b3578063e996db2b146103d1578063effca705146103ef578063f2fde38b1461040b57610142565b80638d46a1fa146102c35780638da5cb5b146102f3578063a0ef91df14610311578063bf0cbdb71461031b578063c424ec771461033757610142565b80634cee966a1161010a5780634cee966a146101db578063543fd3131461020b578063639e7d231461023b578063715018a614610259578063801ef100146102635780638cad7fbe1461029357610142565b806303a69c9a14610147578063112666b714610177578063217a4b701461019557806329bee73d146101b35780633ccfd60b146101d1575b600080fd5b610161600480360381019061015c919061251d565b610427565b60405161016e9190612b85565b60405180910390f35b61017f6105a5565b60405161018c9190612caa565b60405180910390f35b61019d6105c9565b6040516101aa9190612bc2565b60405180910390f35b6101bb6105ed565b6040516101c89190612ba7565b60405180910390f35b6101d9610611565b005b6101f560048036038101906101f091906122e4565b61075b565b6040516102029190612c30565b60405180910390f35b610225600480360381019061022091906122e4565b6108d2565b6040516102329190612d85565b60405180910390f35b6102436108ea565b6040516102509190612ba7565b60405180910390f35b61026161090e565b005b61027d6004803603810190610278919061268b565b610996565b60405161028a9190612c30565b60405180910390f35b6102ad60048036038101906102a8919061261e565b6109d5565b6040516102ba9190612c8f565b60405180910390f35b6102dd60048036038101906102d89190612436565b610a08565b6040516102ea9190612d85565b60405180910390f35b6102fb610e6b565b60405161030891906129f6565b60405180910390f35b610319610e94565b005b61033560048036038101906103309190612595565b611002565b005b610351600480360381019061034c9190612436565b6110c4565b60405161035e9190612d85565b60405180910390f35b610381600480360381019061037c919061251d565b611432565b60405161038e9190612b85565b60405180910390f35b6103b160048036038101906103ac919061233e565b6115d2565b005b6103bb611af9565b6040516103c89190612c4b565b60405180910390f35b6103d9611b1d565b6040516103e69190612d85565b60405180910390f35b6104096004803603810190610404919061264b565b611b2a565b005b610425600480360381019061042091906122e4565b611c28565b005b60606000835167ffffffffffffffff81111561044657610445613407565b5b6040519080825280602002602001820160405280156104745781602001602082028036833780820191505090505b50905060005b845181101561059a577f000000000000000000000000000000000000000000000000000000000000000073ffffffffffffffffffffffffffffffffffffffff16638705c3598583815181106104d2576104d16133d8565b5b60200260200101518784815181106104ed576104ec6133d8565b5b60200260200101516040518363ffffffff1660e01b8152600401610512929190612c66565b60206040518083038186803b15801561052a57600080fd5b505afa15801561053e573d6000803e3d6000fd5b505050506040513d601f19601f8201168201806040525081019061056291906125f1565b828281518110610575576105746133d8565b5b602002602001019015159081151581525050808061059290613360565b91505061047a565b508091505092915050565b7f000000000000000000000000000000000000000000000000000000000000000081565b7f000000000000000000000000000000000000000000000000000000000000000081565b7f9cffaf6fb5a9865a918eb304cffc7751c01747ee00e8e35a30144c35b800d32e81565b6000600160003373ffffffffffffffffffffffffffffffffffffffff1673ffffffffffffffffffffffffffffffffffffffff16815260200190815260200160002054905060008114156106645750610759565b6000600160003373ffffffffffffffffffffffffffffffffffffffff1673ffffffffffffffffffffffffffffffffffffffff168152602001908152602001600020819055507f000000000000000000000000000000000000000000000000000000000000000073ffffffffffffffffffffffffffffffffffffffff1663a9059cbb33836040518363ffffffff1660e01b8152600401610704929190612ac4565b602060405180830381600087803b15801561071e57600080fd5b505af1158015610732573d6000803e3d6000fd5b505050506040513d601f19601f8201168201806040525081019061075691906125f1565b50505b565b60008060038054806020026020016040519081016040528092919081815260200182805480156107e057602002820191906000526020600020905b8160009054906101000a900473ffffffffffffffffffffffffffffffffffffffff1673ffffffffffffffffffffffffffffffffffffffff1681526020019060010190808311610796575b5050505050905060008060005b83518110156108c657600084828151811061080b5761080a6133d8565b5b6020026020010151905060008173ffffffffffffffffffffffffffffffffffffffff16636fbfa2cc896040518263ffffffff1660e01b815260040161085091906129f6565b60206040518083038186803b15801561086857600080fd5b505afa15801561087c573d6000803e3d6000fd5b505050506040513d601f19601f820116820180604052508101906108a091906126b8565b9050848111156108b1578193508094505b505080806108be90613360565b9150506107ed565b50809350505050919050565b60016020528060005260406000206000915090505481565b7f168c66b4ef41014cf231456cf6fce893ddb0a4a9bbef08aa50af66187c72fa1c81565b610916611d20565b73ffffffffffffffffffffffffffffffffffffffff16610934610e6b565b73ffffffffffffffffffffffffffffffffffffffff161461098a576040517f08c379a000000000000000000000000000000000000000000000000000000000815260040161098190612d25565b60405180910390fd5b6109946000611d28565b565b600381815481106109a657600080fd5b906000526020600020016000915054906101000a900473ffffffffffffffffffffffffffffffffffffffff1681565b60026020528060005260406000206000915054906101000a900473ffffffffffffffffffffffffffffffffffffffff1681565b600080821480610a6357508273ffffffffffffffffffffffffffffffffffffffff167f000000000000000000000000000000000000000000000000000000000000000073ffffffffffffffffffffffffffffffffffffffff16145b15610a7057819050610e65565b6000610a7b8461075b565b90506000600260008373ffffffffffffffffffffffffffffffffffffffff1673ffffffffffffffffffffffffffffffffffffffff16815260200190815260200160002060009054906101000a900473ffffffffffffffffffffffffffffffffffffffff16905060007f168c66b4ef41014cf231456cf6fce893ddb0a4a9bbef08aa50af66187c72fa1c7f00000000000000000000000000000000000000000000000000000000000000008787868a604051602401610b3d959493929190612bdd565b604051602081830303815290604052907bffffffffffffffffffffffffffffffffffffffffffffffffffffffff19166020820180517bffffffffffffffffffffffffffffffffffffffffffffffffffffffff8381831617835250505050905060008273ffffffffffffffffffffffffffffffffffffffff1663db36eb2e6040518163ffffffff1660e01b815260040160206040518083038186803b158015610be457600080fd5b505afa158015610bf8573d6000803e3d6000fd5b505050506040513d601f19601f82011682018060405250810190610c1c9190612311565b90507f000000000000000000000000000000000000000000000000000000000000000073ffffffffffffffffffffffffffffffffffffffff1663095ea7b3827fffffffffffffffffffffffffffffffffffffffffffffffffffffffffffffffff6040518363ffffffff1660e01b8152600401610c99929190612ac4565b602060405180830381600087803b158015610cb357600080fd5b505af1158015610cc7573d6000803e3d6000fd5b505050506040513d601f19601f82011682018060405250810190610ceb91906125f1565b506000808473ffffffffffffffffffffffffffffffffffffffff1684604051610d1491906129df565b600060405180830381855af49150503d8060008114610d4f576040519150601f19603f3d011682016040523d82523d6000602084013e610d54565b606091505b509150915081610d99576040517f08c379a0000000000000000000000000000000000000000000000000000000008152600401610d9090612ce5565b60405180910390fd5b7f000000000000000000000000000000000000000000000000000000000000000073ffffffffffffffffffffffffffffffffffffffff1663095ea7b38460006040518363ffffffff1660e01b8152600401610df5929190612a9b565b602060405180830381600087803b158015610e0f57600080fd5b505af1158015610e23573d6000803e3d6000fd5b505050506040513d601f19601f82011682018060405250810190610e4791906125f1565b5080806020019051810190610e5c91906126b8565b96505050505050505b92915050565b60008060009054906101000a900473ffffffffffffffffffffffffffffffffffffffff16905090565b6000600160003373ffffffffffffffffffffffffffffffffffffffff1673ffffffffffffffffffffffffffffffffffffffff1681526020019081526020016000205490506000811415610ee75750611000565b6000600160003373ffffffffffffffffffffffffffffffffffffffff1673ffffffffffffffffffffffffffffffffffffffff168152602001908152602001600020819055507f000000000000000000000000000000000000000000000000000000000000000073ffffffffffffffffffffffffffffffffffffffff16632e1a7d4d826040518263ffffffff1660e01b8152600401610f859190612d85565b600060405180830381600087803b158015610f9f57600080fd5b505af1158015610fb3573d6000803e3d6000fd5b505050503373ffffffffffffffffffffffffffffffffffffffff166108fc829081150290604051600060405180830381858888f19350505050158015610ffd573d6000803e3d6000fd5b50505b565b60005a90508173ffffffffffffffffffffffffffffffffffffffff166309e6d0cf843030856040516020016110379190612d85565b6040516020818303038152906040526040518563ffffffff1660e01b81526004016110659493929190612b32565b600060405180830381600087803b15801561107f57600080fd5b505af1158015611093573d6000803e3d6000fd5b505050506040513d6000823e3d601f19601f820116820180604052508101906110bc9190612476565b505050505050565b60008082148061111f57507f000000000000000000000000000000000000000000000000000000000000000073ffffffffffffffffffffffffffffffffffffffff168373ffffffffffffffffffffffffffffffffffffffff16145b1561112c5781905061142c565b60006111378461075b565b90506000600260008373ffffffffffffffffffffffffffffffffffffffff1673ffffffffffffffffffffffffffffffffffffffff16815260200190815260200160002060009054906101000a900473ffffffffffffffffffffffffffffffffffffffff16905060007f9cffaf6fb5a9865a918eb304cffc7751c01747ee00e8e35a30144c35b800d32e867f000000000000000000000000000000000000000000000000000000000000000087868a6040516024016111f9959493929190612a48565b604051602081830303815290604052907bffffffffffffffffffffffffffffffffffffffffffffffffffffffff19166020820180517bffffffffffffffffffffffffffffffffffffffffffffffffffffffff838183161783525050505090508573ffffffffffffffffffffffffffffffffffffffff1663095ea7b38373ffffffffffffffffffffffffffffffffffffffff1663db36eb2e6040518163ffffffff1660e01b815260040160206040518083038186803b1580156112ba57600080fd5b505afa1580156112ce573d6000803e3d6000fd5b505050506040513d601f19601f820116820180604052508101906112f29190612311565b876040518363ffffffff1660e01b8152600401611310929190612ac4565b602060405180830381600087803b15801561132a57600080fd5b505af115801561133e573d6000803e3d6000fd5b505050506040513d601f19601f8201168201806040525081019061136291906125f1565b506000808373ffffffffffffffffffffffffffffffffffffffff168360405161138b91906129df565b600060405180830381855af49150503d80600081146113c6576040519150601f19603f3d011682016040523d82523d6000602084013e6113cb565b606091505b509150915081611410576040517f08c379a000000000000000000000000000000000000000000000000000000000815260040161140790612d05565b60405180910390fd5b8080602001905181019061142491906126b8565b955050505050505b92915050565b60608151835114611478576040517f08c379a000000000000000000000000000000000000000000000000000000000815260040161146f90612d65565b60405180910390fd5b6000835167ffffffffffffffff81111561149557611494613407565b5b6040519080825280602002602001820160405280156114c35781602001602082028036833780820191505090505b50905060005b84518110156115c7578381815181106114e5576114e46133d8565b5b602002602001015173ffffffffffffffffffffffffffffffffffffffff166338b51ce186838151811061151b5761151a6133d8565b5b60200260200101516040518263ffffffff1660e01b815260040161153f91906129f6565b60206040518083038186803b15801561155757600080fd5b505afa15801561156b573d6000803e3d6000fd5b505050506040513d601f19601f8201168201806040525081019061158f91906125f1565b8282815181106115a2576115a16133d8565b5b60200260200101901515908115158152505080806115bf90613360565b9150506114c9565b508091505092915050565b6000818060200190518101906115e891906126b8565b905060003390507f000000000000000000000000000000000000000000000000000000000000000073ffffffffffffffffffffffffffffffffffffffff166312f0dcd8826040518263ffffffff1660e01b815260040161164891906129f6565b60206040518083038186803b15801561166057600080fd5b505afa158015611674573d6000803e3d6000fd5b505050506040513d601f19601f8201168201806040525081019061169891906125f1565b6116d7576040517f08c379a00000000000000000000000000000000000000000000000000000000081526004016116ce90612d45565b60405180910390fd5b600080600090505b8a8a9050811015611745576117348b8b83818110611700576116ff6133d8565b5b905060200201602081019061171591906122e4565b8a8a84818110611728576117276133d8565b5b905060200201356110c4565b8201915080806001019150506116df565b50600080600090505b8b8b905081101561195f57600088888381811061176e5761176d6133d8565b5b9050602002013514156117805761194c565b6117ca8c8c83818110611796576117956133d8565b5b90506020020160208101906117ab91906122e4565b8989848181106117be576117bd6133d8565b5b90506020020135610a08565b820191508b8b828181106117e1576117e06133d8565b5b90506020020160208101906117f691906122e4565b73ffffffffffffffffffffffffffffffffffffffff1663095ea7b3858a8a85818110611825576118246133d8565b5b905060200201356040518363ffffffff1660e01b8152600401611849929190612ac4565b602060405180830381600087803b15801561186357600080fd5b505af1158015611877573d6000803e3d6000fd5b505050506040513d601f19601f8201168201806040525081019061189b91906125f1565b508373ffffffffffffffffffffffffffffffffffffffff1663976ce4958d8d848181106118cb576118ca6133d8565b5b90506020020160208101906118e091906122e4565b8f8b8b868181106118f4576118f36133d8565b5b905060200201356040518463ffffffff1660e01b815260040161191993929190612a11565b600060405180830381600087803b15801561193357600080fd5b505af1158015611947573d6000803e3d6000fd5b505050505b808061195790613360565b91505061174e565b506000818361196e91906130bd565b9050600061197a610e6b565b9050600082126119d45781600160008373ffffffffffffffffffffffffffffffffffffffff1673ffffffffffffffffffffffffffffffffffffffff168152602001908152602001600020546119cf9190612f50565b611a4b565b817fffffffffffffffffffffffffffffffffffffffffffffffffffffffffffffffff611a009190612fa6565b600160008373ffffffffffffffffffffffffffffffffffffffff1673ffffffffffffffffffffffffffffffffffffffff16815260200190815260200160002054611a4a9190613151565b5b600160008373ffffffffffffffffffffffffffffffffffffffff1673ffffffffffffffffffffffffffffffffffffffff168152602001908152602001600020819055506000615208875a611a9f9190613151565b611aa99190613151565b90507f6e1a737bede5a157b5cc67b23d86a07ed1b1529f80df499c7808cc7c2fa8052f8f868584604051611ae09493929190612aed565b60405180910390a1505050505050505050505050505050565b7f000000000000000000000000000000000000000000000000000000000000000081565b6000600380549050905090565b611b32611d20565b73ffffffffffffffffffffffffffffffffffffffff16611b50610e6b565b73ffffffffffffffffffffffffffffffffffffffff1614611ba6576040517f08c379a0000000000000000000000000000000000000000000000000000000008152600401611b9d90612d25565b60405180910390fd5b80600260008473ffffffffffffffffffffffffffffffffffffffff1673ffffffffffffffffffffffffffffffffffffffff16815260200190815260200160002060006101000a81548173ffffffffffffffffffffffffffffffffffffffff021916908373ffffffffffffffffffffffffffffffffffffffff1602179055505050565b611c30611d20565b73ffffffffffffffffffffffffffffffffffffffff16611c4e610e6b565b73ffffffffffffffffffffffffffffffffffffffff1614611ca4576040517f08c379a0000000000000000000000000000000000000000000000000000000008152600401611c9b90612d25565b60405180910390fd5b600073ffffffffffffffffffffffffffffffffffffffff168173ffffffffffffffffffffffffffffffffffffffff161415611d14576040517f08c379a0000000000000000000000000000000000000000000000000000000008152600401611d0b90612cc5565b60405180910390fd5b611d1d81611d28565b50565b600033905090565b60008060009054906101000a900473ffffffffffffffffffffffffffffffffffffffff169050816000806101000a81548173ffffffffffffffffffffffffffffffffffffffff021916908373ffffffffffffffffffffffffffffffffffffffff1602179055508173ffffffffffffffffffffffffffffffffffffffff168173ffffffffffffffffffffffffffffffffffffffff167f8be0079c531659141344cd1fd0a4f28419497f9722a3daafe3b4186f6b6457e060405160405180910390a35050565b6000611dff611dfa84612dc5565b612da0565b90508083825260208201905082856020860282011115611e2257611e21613440565b5b60005b85811015611e525781611e38888261207c565b845260208401935060208301925050600181019050611e25565b5050509392505050565b6000611e6f611e6a84612dc5565b612da0565b90508083825260208201905082856020860282011115611e9257611e91613440565b5b60005b85811015611ec25781611ea88882612091565b845260208401935060208301925050600181019050611e95565b5050509392505050565b6000611edf611eda84612df1565b612da0565b90508083825260208201905082856020860282011115611f0257611f01613440565b5b60005b85811015611f5057815167ffffffffffffffff811115611f2857611f2761343b565b5b808601611f35898261220a565b85526020850194506020840193505050600181019050611f05565b5050509392505050565b6000611f6d611f6884612e1d565b612da0565b90508083825260208201905082856020860282011115611f9057611f8f613440565b5b60005b85811015611fc05781611fa68882612290565b845260208401935060208301925050600181019050611f93565b5050509392505050565b6000611fdd611fd884612e49565b612da0565b9050808382526020820190508285602086028201111561200057611fff613440565b5b60005b85811015612030578161201688826122cf565b845260208401935060208301925050600181019050612003565b5050509392505050565b600061204d61204884612e75565b612da0565b90508281526020810184848401111561206957612068613445565b5b6120748482856132ed565b509392505050565b60008135905061208b81613581565b92915050565b6000815190506120a081613581565b92915050565b60008083601f8401126120bc576120bb61343b565b5b8235905067ffffffffffffffff8111156120d9576120d8613436565b5b6020830191508360208202830111156120f5576120f4613440565b5b9250929050565b600082601f8301126121115761211061343b565b5b8135612121848260208601611dec565b91505092915050565b600082601f83011261213f5761213e61343b565b5b815161214f848260208601611e5c565b91505092915050565b600082601f83011261216d5761216c61343b565b5b815161217d848260208601611ecc565b91505092915050565b600082601f83011261219b5761219a61343b565b5b81356121ab848260208601611f5a565b91505092915050565b60008083601f8401126121ca576121c961343b565b5b8235905067ffffffffffffffff8111156121e7576121e6613436565b5b60208301915083602082028301111561220357612202613440565b5b9250929050565b600082601f83011261221f5761221e61343b565b5b815161222f848260208601611fca565b91505092915050565b60008151905061224781613598565b92915050565b600082601f8301126122625761226161343b565b5b813561227284826020860161203a565b91505092915050565b60008135905061228a816135af565b92915050565b60008135905061229f816135c6565b92915050565b6000813590506122b4816135dd565b92915050565b6000813590506122c9816135f4565b92915050565b6000815190506122de816135f4565b92915050565b6000602082840312156122fa576122f961344f565b5b60006123088482850161207c565b91505092915050565b6000602082840312156123275761232661344f565b5b600061233584828501612091565b91505092915050565b60008060008060008060008060a0898b03121561235e5761235d61344f565b5b600061236c8b828c0161207c565b985050602089013567ffffffffffffffff81111561238d5761238c61344a565b5b6123998b828c016120a6565b9750975050604089013567ffffffffffffffff8111156123bc576123bb61344a565b5b6123c88b828c016121b4565b9550955050606089013567ffffffffffffffff8111156123eb576123ea61344a565b5b6123f78b828c016121b4565b9350935050608089013567ffffffffffffffff81111561241a5761241961344a565b5b6124268b828c0161224d565b9150509295985092959890939650565b6000806040838503121561244d5761244c61344f565b5b600061245b8582860161207c565b925050602061246c858286016122ba565b9150509250929050565b60008060006060848603121561248f5761248e61344f565b5b600084015167ffffffffffffffff8111156124ad576124ac61344a565b5b6124b98682870161212a565b935050602084015167ffffffffffffffff8111156124da576124d961344a565b5b6124e686828701612158565b925050604084015167ffffffffffffffff8111156125075761250661344a565b5b61251386828701612158565b9150509250925092565b600080604083850312156125345761253361344f565b5b600083013567ffffffffffffffff8111156125525761255161344a565b5b61255e858286016120fc565b925050602083013567ffffffffffffffff81111561257f5761257e61344a565b5b61258b85828601612186565b9150509250929050565b600080604083850312156125ac576125ab61344f565b5b600083013567ffffffffffffffff8111156125ca576125c961344a565b5b6125d6858286016120fc565b92505060206125e785828601612290565b9150509250929050565b6000602082840312156126075761260661344f565b5b600061261584828501612238565b91505092915050565b6000602082840312156126345761263361344f565b5b60006126428482850161227b565b91505092915050565b600080604083850312156126625761266161344f565b5b60006126708582860161227b565b9250506020612681858286016122a5565b9150509250929050565b6000602082840312156126a1576126a061344f565b5b60006126af848285016122ba565b91505092915050565b6000602082840312156126ce576126cd61344f565b5b60006126dc848285016122cf565b91505092915050565b60006126f18383612715565b60208301905092915050565b600061270983836127ef565b60208301905092915050565b61271e81613185565b82525050565b61272d81613185565b82525050565b600061273e82612ec6565b6127488185612f01565b935061275383612ea6565b8060005b8381101561278457815161276b88826126e5565b975061277683612ee7565b925050600181019050612757565b5085935050505092915050565b600061279c82612ed1565b6127a68185612f12565b93506127b183612eb6565b8060005b838110156127e25781516127c988826126fd565b97506127d483612ef4565b9250506001810190506127b5565b5085935050505092915050565b6127f881613197565b82525050565b612807816131a3565b82525050565b600061281882612edc565b6128228185612f23565b93506128328185602086016132fc565b61283b81613454565b840191505092915050565b600061285182612edc565b61285b8185612f34565b935061286b8185602086016132fc565b80840191505092915050565b61288081613239565b82525050565b61288f8161324b565b82525050565b61289e8161325d565b82525050565b6128ad8161326f565b82525050565b6128bc81613281565b82525050565b6128cb81613293565b82525050565b6128da816132a5565b82525050565b6128e981613205565b82525050565b6128f8816132b7565b82525050565b600061290b602683612f3f565b915061291682613465565b604082019050919050565b600061292e601483612f3f565b9150612939826134b4565b602082019050919050565b6000612951601383612f3f565b915061295c826134dd565b602082019050919050565b6000612974602083612f3f565b915061297f82613506565b602082019050919050565b6000612997600a83612f3f565b91506129a28261352f565b602082019050919050565b60006129ba600483612f3f565b91506129c582613558565b602082019050919050565b6129d98161322f565b82525050565b60006129eb8284612846565b915081905092915050565b6000602082019050612a0b6000830184612724565b92915050565b6000606082019050612a266000830186612724565b612a336020830185612724565b612a4060408301846129d0565b949350505050565b600060a082019050612a5d6000830188612724565b612a6a6020830187612877565b612a7760408301866129d0565b612a846060830185612895565b612a916080830184612724565b9695505050505050565b6000604082019050612ab06000830185612724565b612abd60208301846128ef565b9392505050565b6000604082019050612ad96000830185612724565b612ae660208301846129d0565b9392505050565b6000608082019050612b026000830187612724565b612b0f60208301866129d0565b612b1c60408301856128e0565b612b2960608301846129d0565b95945050505050565b60006080820190508181036000830152612b4c8187612733565b9050612b5b6020830186612724565b612b686040830185612886565b8181036060830152612b7a818461280d565b905095945050505050565b60006020820190508181036000830152612b9f8184612791565b905092915050565b6000602082019050612bbc60008301846127fe565b92915050565b6000602082019050612bd76000830184612877565b92915050565b600060a082019050612bf26000830188612877565b612bff6020830187612724565b612c0c60408301866129d0565b612c196060830185612895565b612c266080830184612724565b9695505050505050565b6000602082019050612c456000830184612895565b92915050565b6000602082019050612c6060008301846128a4565b92915050565b6000604082019050612c7b60008301856128b3565b612c886020830184612724565b9392505050565b6000602082019050612ca460008301846128c2565b92915050565b6000602082019050612cbf60008301846128d1565b92915050565b60006020820190508181036000830152612cde816128fe565b9050919050565b60006020820190508181036000830152612cfe81612921565b9050919050565b60006020820190508181036000830152612d1e81612944565b9050919050565b60006020820190508181036000830152612d3e81612967565b9050919050565b60006020820190508181036000830152612d5e8161298a565b9050919050565b60006020820190508181036000830152612d7e816129ad565b9050919050565b6000602082019050612d9a60008301846129d0565b92915050565b6000612daa612dbb565b9050612db6828261332f565b919050565b6000604051905090565b600067ffffffffffffffff821115612de057612ddf613407565b5b602082029050602081019050919050565b600067ffffffffffffffff821115612e0c57612e0b613407565b5b602082029050602081019050919050565b600067ffffffffffffffff821115612e3857612e37613407565b5b602082029050602081019050919050565b600067ffffffffffffffff821115612e6457612e63613407565b5b602082029050602081019050919050565b600067ffffffffffffffff821115612e9057612e8f613407565b5b612e9982613454565b9050602081019050919050565b6000819050602082019050919050565b6000819050602082019050919050565b600081519050919050565b600081519050919050565b600081519050919050565b6000602082019050919050565b6000602082019050919050565b600082825260208201905092915050565b600082825260208201905092915050565b600082825260208201905092915050565b600081905092915050565b600082825260208201905092915050565b6000612f5b8261322f565b9150612f668361322f565b9250827fffffffffffffffffffffffffffffffffffffffffffffffffffffffffffffffff03821115612f9b57612f9a6133a9565b5b828201905092915050565b6000612fb182613205565b9150612fbc83613205565b9250827f7fffffffffffffffffffffffffffffffffffffffffffffffffffffffffffffff0482116000841360008413161615612ffb57612ffa6133a9565b5b817f80000000000000000000000000000000000000000000000000000000000000000583126000841260008413161615613038576130376133a9565b5b827f80000000000000000000000000000000000000000000000000000000000000000582126000841360008412161615613075576130746133a9565b5b827f7fffffffffffffffffffffffffffffffffffffffffffffffffffffffffffffff05821260008412600084121616156130b2576130b16133a9565b5b828202905092915050565b60006130c882613205565b91506130d383613205565b9250827f80000000000000000000000000000000000000000000000000000000000000000182126000841215161561310e5761310d6133a9565b5b827f7fffffffffffffffffffffffffffffffffffffffffffffffffffffffffffffff018213600084121615613146576131456133a9565b5b828203905092915050565b600061315c8261322f565b91506131678361322f565b92508282101561317a576131796133a9565b5b828203905092915050565b60006131908261320f565b9050919050565b60008115159050919050565b60007fffffffff0000000000000000000000000000000000000000000000000000000082169050919050565b60006131da82613185565b9050919050565b60006131ec82613185565b9050919050565b60006131fe82613185565b9050919050565b6000819050919050565b600073ffffffffffffffffffffffffffffffffffffffff82169050919050565b6000819050919050565b6000613244826132c9565b9050919050565b6000613256826132c9565b9050919050565b6000613268826132c9565b9050919050565b600061327a826132c9565b9050919050565b600061328c826132c9565b9050919050565b600061329e826132c9565b9050919050565b60006132b0826132c9565b9050919050565b60006132c28261322f565b9050919050565b60006132d4826132db565b9050919050565b60006132e68261320f565b9050919050565b82818337600083830152505050565b60005b8381101561331a5780820151818401526020810190506132ff565b83811115613329576000848401525b50505050565b61333882613454565b810181811067ffffffffffffffff8211171561335757613356613407565b5b80604052505050565b600061336b8261322f565b91507fffffffffffffffffffffffffffffffffffffffffffffffffffffffffffffffff82141561339e5761339d6133a9565b5b600182019050919050565b7f4e487b7100000000000000000000000000000000000000000000000000000000600052601160045260246000fd5b7f4e487b7100000000000000000000000000000000000000000000000000000000600052603260045260246000fd5b7f4e487b7100000000000000000000000000000000000000000000000000000000600052604160045260246000fd5b600080fd5b600080fd5b600080fd5b600080fd5b600080fd5b600080fd5b6000601f19601f8301169050919050565b7f4f776e61626c653a206e6577206f776e657220697320746865207a65726f206160008201527f6464726573730000000000000000000000000000000000000000000000000000602082015250565b7f73776170416d6f756e744f7574206661696c6564000000000000000000000000600082015250565b7f73776170416d6f756e74496e206661696c656400000000000000000000000000600082015250565b7f4f776e61626c653a2063616c6c6572206973206e6f7420746865206f776e6572600082015250565b7f6e6f7420612053696c6f00000000000000000000000000000000000000000000600082015250565b7f6f6f707300000000000000000000000000000000000000000000000000000000600082015250565b61358a81613185565b811461359557600080fd5b50565b6135a181613197565b81146135ac57600080fd5b50565b6135b8816131cf565b81146135c357600080fd5b50565b6135cf816131e1565b81146135da57600080fd5b50565b6135e6816131f3565b81146135f157600080fd5b50565b6135fd8161322f565b811461360857600080fd5b5056fea26469706673582212207749d45327804ef429c21b5758f87f671d6dc1db0b0c2d81b59bd343c8b305ed64736f6c63430008070033",
  "linkReferences": {},
  "deployedLinkReferences": {}
}