{
  "_format": "hh-sol-artifact-1",
  "contractName": "BalancerV2Swap",
  "sourceName": "contracts/liquidation/BalancerV2Swap.sol",
  "abi": [
    {
      "inputs": [
        {
          "internalType": "address",
          "name": "_balancerVault",
          "type": "address"
        }
      ],
      "stateMutability": "nonpayable",
      "type": "constructor"
    },
    {
      "inputs": [],
      "name": "ASSETS_POOLS_SELECTOR",
      "outputs": [
        {
          "internalType": "bytes4",
          "name": "",
          "type": "bytes4"
        }
      ],
      "stateMutability": "view",
      "type": "function"
    },
    {
      "inputs": [
        {
          "internalType": "address",
          "name": "_oracle",
          "type": "address"
        },
        {
          "internalType": "address",
          "name": "_asset",
          "type": "address"
        }
      ],
      "name": "resolvePoolId",
      "outputs": [
        {
          "internalType": "bytes32",
          "name": "poolId",
          "type": "bytes32"
        }
      ],
      "stateMutability": "view",
      "type": "function"
    },
    {
      "inputs": [],
      "name": "spenderToApprove",
      "outputs": [
        {
          "internalType": "address",
          "name": "",
          "type": "address"
        }
      ],
      "stateMutability": "view",
      "type": "function"
    },
    {
      "inputs": [
        {
          "internalType": "address",
          "name": "_tokenIn",
          "type": "address"
        },
        {
          "internalType": "address",
          "name": "_tokenOut",
          "type": "address"
        },
        {
          "internalType": "uint256",
          "name": "_amount",
          "type": "uint256"
        },
        {
          "internalType": "address",
          "name": "_siloOracle",
          "type": "address"
        },
        {
          "internalType": "address",
          "name": "_siloAsset",
          "type": "address"
        }
      ],
      "name": "swapAmountIn",
      "outputs": [
        {
          "internalType": "uint256",
          "name": "amountOut",
          "type": "uint256"
        }
      ],
      "stateMutability": "nonpayable",
      "type": "function"
    },
    {
      "inputs": [
        {
          "internalType": "address",
          "name": "_tokenIn",
          "type": "address"
        },
        {
          "internalType": "address",
          "name": "_tokenOut",
          "type": "address"
        },
        {
          "internalType": "uint256",
          "name": "_amountOut",
          "type": "uint256"
        },
        {
          "internalType": "address",
          "name": "_siloOracle",
          "type": "address"
        },
        {
          "internalType": "address",
          "name": "_siloAsset",
          "type": "address"
        }
      ],
      "name": "swapAmountOut",
      "outputs": [
        {
          "internalType": "uint256",
          "name": "amountIn",
          "type": "uint256"
        }
      ],
      "stateMutability": "nonpayable",
      "type": "function"
    },
    {
      "inputs": [],
      "name": "vault",
      "outputs": [
        {
          "internalType": "contract IVault",
          "name": "",
          "type": "address"
        }
      ],
      "stateMutability": "view",
      "type": "function"
    }
  ],
  "bytecode": "0x60a060405234801561001057600080fd5b50604051610fbd380380610fbd83398181016040528101906100329190610084565b8073ffffffffffffffffffffffffffffffffffffffff1660808173ffffffffffffffffffffffffffffffffffffffff1660601b81525050506100f6565b60008151905061007e816100df565b92915050565b60006020828403121561009657600080fd5b60006100a48482850161006f565b91505092915050565b60006100b8826100bf565b9050919050565b600073ffffffffffffffffffffffffffffffffffffffff82169050919050565b6100e8816100ad565b81146100f357600080fd5b50565b60805160601c610e9b610122600039806103315280610357528061044a52806105f75250610e9b6000f3fe608060405234801561001057600080fd5b50600436106100625760003560e01c8063168c66b41461006757806356a6f68514610097578063570421e5146100c75780639cffaf6f146100e5578063db36eb2e14610115578063fbfa77cf14610133575b600080fd5b610081600480360381019061007c91906107cd565b610151565b60405161008e9190610c1c565b60405180910390f35b6100b160048036038101906100ac9190610791565b610178565b6040516100be9190610b13565b60405180910390f35b6100cf6102e2565b6040516100dc9190610b2e565b60405180910390f35b6100ff60048036038101906100fa91906107cd565b610306565b60405161010c9190610c1c565b60405180910390f35b61011d61032d565b60405161012a9190610af8565b60405180910390f35b61013b610355565b6040516101489190610b49565b60405180910390f35b60008061015e8484610178565b905061016c87878784610379565b91505095945050505050565b6000807f7e2ffad5a0cf814683346fbb41a5864881a4fa97df309f612de87ae2b5d8bbcc836040516024016101ad9190610af8565b604051602081830303815290604052907bffffffffffffffffffffffffffffffffffffffffffffffffffffffff19166020820180517bffffffffffffffffffffffffffffffffffffffffffffffffffffffff838183161783525050505090506000808573ffffffffffffffffffffffffffffffffffffffff16836040516102349190610ae1565b600060405180830381855afa9150503d806000811461026f576040519150601f19603f3d011682016040523d82523d6000602084013e610274565b606091505b5091509150816102b9576040517f08c379a00000000000000000000000000000000000000000000000000000000081526004016102b090610b64565b60405180910390fd5b6000818060200190518101906102cf9190610844565b9050806000015194505050505092915050565b7f7e2ffad5a0cf814683346fbb41a5864881a4fa97df309f612de87ae2b5d8bbcc81565b6000806103138484610178565b905061032187878784610525565b91505095945050505050565b60007f0000000000000000000000000000000000000000000000000000000000000000905090565b7f000000000000000000000000000000000000000000000000000000000000000081565b6000806040518060c0016040528084815260200160018081111561039957fe5b81526020018773ffffffffffffffffffffffffffffffffffffffff1681526020018673ffffffffffffffffffffffffffffffffffffffff168152602001858152602001604051806020016040528060008152508152509050600060405180608001604052803073ffffffffffffffffffffffffffffffffffffffff1681526020016000151581526020013073ffffffffffffffffffffffffffffffffffffffff1681526020016000151581525090507f000000000000000000000000000000000000000000000000000000000000000073ffffffffffffffffffffffffffffffffffffffff166352bbbe2983837fffffffffffffffffffffffffffffffffffffffffffffffffffffffffffffffff426040518563ffffffff1660e01b81526004016104c79493929190610bd0565b602060405180830381600087803b1580156104e157600080fd5b505af11580156104f5573d6000803e3d6000fd5b505050506040513d601f19601f82011682018060405250810190610519919061086d565b92505050949350505050565b6000806040518060c001604052808481526020016000600181111561054657fe5b81526020018773ffffffffffffffffffffffffffffffffffffffff1681526020018673ffffffffffffffffffffffffffffffffffffffff168152602001858152602001604051806020016040528060008152508152509050600060405180608001604052803073ffffffffffffffffffffffffffffffffffffffff1681526020016000151581526020013073ffffffffffffffffffffffffffffffffffffffff1681526020016000151581525090507f000000000000000000000000000000000000000000000000000000000000000073ffffffffffffffffffffffffffffffffffffffff166352bbbe2983836001426040518563ffffffff1660e01b81526004016106559493929190610b84565b602060405180830381600087803b15801561066f57600080fd5b505af1158015610683573d6000803e3d6000fd5b505050506040513d601f19601f820116820180604052508101906106a7919061086d565b92505050949350505050565b6000813590506106c281610e09565b92915050565b6000815190506106d781610e09565b92915050565b6000815190506106ec81610e20565b92915050565b60008151905061070181610e37565b92915050565b60006060828403121561071957600080fd5b6107236060610c37565b90506000610733848285016106f2565b6000830152506020610747848285016106c8565b602083015250604061075b848285016106dd565b60408301525092915050565b60008135905061077681610e4e565b92915050565b60008151905061078b81610e4e565b92915050565b600080604083850312156107a457600080fd5b60006107b2858286016106b3565b92505060206107c3858286016106b3565b9150509250929050565b600080600080600060a086880312156107e557600080fd5b60006107f3888289016106b3565b9550506020610804888289016106b3565b945050604061081588828901610767565b9350506060610826888289016106b3565b9250506080610837888289016106b3565b9150509295509295909350565b60006060828403121561085657600080fd5b600061086484828501610707565b91505092915050565b60006020828403121561087f57600080fd5b600061088d8482850161077c565b91505092915050565b61089f81610cb2565b82525050565b6108ae81610ca0565b82525050565b6108bd81610ca0565b82525050565b6108cc81610cc4565b82525050565b6108db81610cd0565b82525050565b6108ea81610cd0565b82525050565b6108f981610cda565b82525050565b600061090a82610c68565b6109148185610c73565b9350610924818560208601610daf565b61092d81610de4565b840191505092915050565b600061094382610c68565b61094d8185610c84565b935061095d818560208601610daf565b80840191505092915050565b61097281610d43565b82525050565b61098181610d67565b82525050565b61099081610d8b565b82525050565b61099f81610d9d565b82525050565b60006109b2601683610c8f565b91507f706f6f6c20666f72206173736574206e6f7420736574000000000000000000006000830152602082019050919050565b6080820160008201516109fb60008501826108a5565b506020820151610a0e60208501826108c3565b506040820151610a216040850182610896565b506060820151610a3460608501826108c3565b50505050565b600060c083016000830151610a5260008601826108d2565b506020830151610a656020860182610987565b506040830151610a786040860182610969565b506060830151610a8b6060860182610969565b506080830151610a9e6080860182610ac3565b5060a083015184820360a0860152610ab682826108ff565b9150508091505092915050565b610acc81610d39565b82525050565b610adb81610d39565b82525050565b6000610aed8284610938565b915081905092915050565b6000602082019050610b0d60008301846108b4565b92915050565b6000602082019050610b2860008301846108e1565b92915050565b6000602082019050610b4360008301846108f0565b92915050565b6000602082019050610b5e6000830184610978565b92915050565b60006020820190508181036000830152610b7d816109a5565b9050919050565b600060e0820190508181036000830152610b9e8187610a3a565b9050610bad60208301866109e5565b610bba60a0830185610996565b610bc760c0830184610ad2565b95945050505050565b600060e0820190508181036000830152610bea8187610a3a565b9050610bf960208301866109e5565b610c0660a0830185610ad2565b610c1360c0830184610ad2565b95945050505050565b6000602082019050610c316000830184610ad2565b92915050565b6000604051905081810181811067ffffffffffffffff82111715610c5e57610c5d610de2565b5b8060405250919050565b600081519050919050565b600082825260208201905092915050565b600081905092915050565b600082825260208201905092915050565b6000610cab82610d19565b9050919050565b6000610cbd82610d19565b9050919050565b60008115159050919050565b6000819050919050565b60007fffffffff0000000000000000000000000000000000000000000000000000000082169050919050565b6000819050610d1482610df5565b919050565b600073ffffffffffffffffffffffffffffffffffffffff82169050919050565b6000819050919050565b6000610d4e82610d55565b9050919050565b6000610d6082610d19565b9050919050565b6000610d7282610d79565b9050919050565b6000610d8482610d19565b9050919050565b6000610d9682610d06565b9050919050565b6000610da882610d39565b9050919050565b60005b83811015610dcd578082015181840152602081019050610db2565b83811115610ddc576000848401525b50505050565bfe5b6000601f19601f8301169050919050565b60028110610e0657610e05610de2565b5b50565b610e1281610ca0565b8114610e1d57600080fd5b50565b610e2981610cc4565b8114610e3457600080fd5b50565b610e4081610cd0565b8114610e4b57600080fd5b50565b610e5781610d39565b8114610e6257600080fd5b5056fea26469706673582212207d597ccde6ec0d442686a234f1d1cf8f9e041d8c11a7a1e199f038ab707493c064736f6c63430007060033",
  "linkReferences": {},
  "deployedLinkReferences": {}
}