{
  "_format": "hh-sol-artifact-1",
  "contractName": "BalancerV2Swap",
  "sourceName": "contracts/liquidation/BalancerV2Swap.sol",
  "abi": [
    {
      "inputs": [
        {
          "internalType": "address",
          "name": "_balancerVault",
          "type": "address"
        }
      ],
      "stateMutability": "nonpayable",
      "type": "constructor"
    },
    {
      "inputs": [
        {
          "internalType": "address",
          "name": "_oracle",
          "type": "address"
        },
        {
          "internalType": "address",
          "name": "_asset",
          "type": "address"
        }
      ],
      "name": "resolvePoolId",
      "outputs": [
        {
          "internalType": "bytes32",
          "name": "poolId",
          "type": "bytes32"
        }
      ],
      "stateMutability": "view",
      "type": "function"
    },
    {
      "inputs": [],
      "name": "spenderToApprove",
      "outputs": [
        {
          "internalType": "address",
          "name": "",
          "type": "address"
        }
      ],
      "stateMutability": "view",
      "type": "function"
    },
    {
      "inputs": [
        {
          "internalType": "address",
          "name": "_tokenIn",
          "type": "address"
        },
        {
          "internalType": "address",
          "name": "_tokenOut",
          "type": "address"
        },
        {
          "internalType": "uint256",
          "name": "_amount",
          "type": "uint256"
        },
        {
          "internalType": "address",
          "name": "_siloOracle",
          "type": "address"
        },
        {
          "internalType": "address",
          "name": "_siloAsset",
          "type": "address"
        }
      ],
      "name": "swapAmountIn",
      "outputs": [
        {
          "internalType": "uint256",
          "name": "amountOut",
          "type": "uint256"
        }
      ],
      "stateMutability": "nonpayable",
      "type": "function"
    },
    {
      "inputs": [
        {
          "internalType": "address",
          "name": "_tokenIn",
          "type": "address"
        },
        {
          "internalType": "address",
          "name": "_tokenOut",
          "type": "address"
        },
        {
          "internalType": "uint256",
          "name": "_amountOut",
          "type": "uint256"
        },
        {
          "internalType": "address",
          "name": "_siloOracle",
          "type": "address"
        },
        {
          "internalType": "address",
          "name": "_siloAsset",
          "type": "address"
        }
      ],
      "name": "swapAmountOut",
      "outputs": [
        {
          "internalType": "uint256",
          "name": "amountIn",
          "type": "uint256"
        }
      ],
      "stateMutability": "nonpayable",
      "type": "function"
    },
    {
      "inputs": [],
      "name": "vault",
      "outputs": [
        {
          "internalType": "contract IVault",
          "name": "",
          "type": "address"
        }
      ],
      "stateMutability": "view",
      "type": "function"
    }
  ],
  "bytecode": "0x60a06040523480156200001157600080fd5b5060405162001013380380620010138339818101604052810190620000379190620000ff565b600073ffffffffffffffffffffffffffffffffffffffff168173ffffffffffffffffffffffffffffffffffffffff161415620000aa576040517f08c379a0000000000000000000000000000000000000000000000000000000008152600401620000a1906200016d565b60405180910390fd5b8073ffffffffffffffffffffffffffffffffffffffff1660808173ffffffffffffffffffffffffffffffffffffffff1660601b8152505050620001ee565b600081519050620000f981620001d4565b92915050565b6000602082840312156200011257600080fd5b60006200012284828501620000e8565b91505092915050565b60006200013a600d836200018f565b91507f696e76616c6964207661756c74000000000000000000000000000000000000006000830152602082019050919050565b6000602082019050818103600083015262000188816200012b565b9050919050565b600082825260208201905092915050565b6000620001ad82620001b4565b9050919050565b600073ffffffffffffffffffffffffffffffffffffffff82169050919050565b620001df81620001a0565b8114620001eb57600080fd5b50565b60805160601c610df86200021b600039806102e4528061030a52806103fd52806105aa5250610df86000f3fe608060405234801561001057600080fd5b50600436106100575760003560e01c8063168c66b41461005c57806356a6f6851461008c5780639cffaf6f146100bc578063db36eb2e146100ec578063fbfa77cf1461010a575b600080fd5b61007660048036038101906100719190610780565b610128565b6040516100839190610ba5565b60405180910390f35b6100a660048036038101906100a19190610744565b61014f565b6040516100b39190610ab7565b60405180910390f35b6100d660048036038101906100d19190610780565b6102b9565b6040516100e39190610ba5565b60405180910390f35b6100f46102e0565b6040516101019190610a9c565b60405180910390f35b610112610308565b60405161011f9190610ad2565b60405180910390f35b600080610135848461014f565b90506101438787878461032c565b91505095945050505050565b6000807f7e2ffad5a0cf814683346fbb41a5864881a4fa97df309f612de87ae2b5d8bbcc836040516024016101849190610a9c565b604051602081830303815290604052907bffffffffffffffffffffffffffffffffffffffffffffffffffffffff19166020820180517bffffffffffffffffffffffffffffffffffffffffffffffffffffffff838183161783525050505090506000808573ffffffffffffffffffffffffffffffffffffffff168360405161020b9190610a85565b600060405180830381855afa9150503d8060008114610246576040519150601f19603f3d011682016040523d82523d6000602084013e61024b565b606091505b509150915081610290576040517f08c379a000000000000000000000000000000000000000000000000000000000815260040161028790610aed565b60405180910390fd5b6000818060200190518101906102a691906107f7565b9050806000015194505050505092915050565b6000806102c6848461014f565b90506102d4878787846104d8565b91505095945050505050565b60007f0000000000000000000000000000000000000000000000000000000000000000905090565b7f000000000000000000000000000000000000000000000000000000000000000081565b6000806040518060c0016040528084815260200160018081111561034c57fe5b81526020018773ffffffffffffffffffffffffffffffffffffffff1681526020018673ffffffffffffffffffffffffffffffffffffffff168152602001858152602001604051806020016040528060008152508152509050600060405180608001604052803073ffffffffffffffffffffffffffffffffffffffff1681526020016000151581526020013073ffffffffffffffffffffffffffffffffffffffff1681526020016000151581525090507f000000000000000000000000000000000000000000000000000000000000000073ffffffffffffffffffffffffffffffffffffffff166352bbbe2983837fffffffffffffffffffffffffffffffffffffffffffffffffffffffffffffffff426040518563ffffffff1660e01b815260040161047a9493929190610b59565b602060405180830381600087803b15801561049457600080fd5b505af11580156104a8573d6000803e3d6000fd5b505050506040513d601f19601f820116820180604052508101906104cc9190610820565b92505050949350505050565b6000806040518060c00160405280848152602001600060018111156104f957fe5b81526020018773ffffffffffffffffffffffffffffffffffffffff1681526020018673ffffffffffffffffffffffffffffffffffffffff168152602001858152602001604051806020016040528060008152508152509050600060405180608001604052803073ffffffffffffffffffffffffffffffffffffffff1681526020016000151581526020013073ffffffffffffffffffffffffffffffffffffffff1681526020016000151581525090507f000000000000000000000000000000000000000000000000000000000000000073ffffffffffffffffffffffffffffffffffffffff166352bbbe2983836001426040518563ffffffff1660e01b81526004016106089493929190610b0d565b602060405180830381600087803b15801561062257600080fd5b505af1158015610636573d6000803e3d6000fd5b505050506040513d601f19601f8201168201806040525081019061065a9190610820565b92505050949350505050565b60008135905061067581610d66565b92915050565b60008151905061068a81610d66565b92915050565b60008151905061069f81610d7d565b92915050565b6000815190506106b481610d94565b92915050565b6000606082840312156106cc57600080fd5b6106d66060610bc0565b905060006106e6848285016106a5565b60008301525060206106fa8482850161067b565b602083015250604061070e84828501610690565b60408301525092915050565b60008135905061072981610dab565b92915050565b60008151905061073e81610dab565b92915050565b6000806040838503121561075757600080fd5b600061076585828601610666565b925050602061077685828601610666565b9150509250929050565b600080600080600060a0868803121561079857600080fd5b60006107a688828901610666565b95505060206107b788828901610666565b94505060406107c88882890161071a565b93505060606107d988828901610666565b92505060806107ea88828901610666565b9150509295509295909350565b60006060828403121561080957600080fd5b6000610817848285016106ba565b91505092915050565b60006020828403121561083257600080fd5b60006108408482850161072f565b91505092915050565b61085281610c3b565b82525050565b61086181610c29565b82525050565b61087081610c29565b82525050565b61087f81610c4d565b82525050565b61088e81610c59565b82525050565b61089d81610c59565b82525050565b60006108ae82610bf1565b6108b88185610bfc565b93506108c8818560208601610d0c565b6108d181610d41565b840191505092915050565b60006108e782610bf1565b6108f18185610c0d565b9350610901818560208601610d0c565b80840191505092915050565b61091681610ca0565b82525050565b61092581610cc4565b82525050565b61093481610ce8565b82525050565b61094381610cfa565b82525050565b6000610956601683610c18565b91507f706f6f6c20666f72206173736574206e6f7420736574000000000000000000006000830152602082019050919050565b60808201600082015161099f6000850182610858565b5060208201516109b26020850182610876565b5060408201516109c56040850182610849565b5060608201516109d86060850182610876565b50505050565b600060c0830160008301516109f66000860182610885565b506020830151610a09602086018261092b565b506040830151610a1c604086018261090d565b506060830151610a2f606086018261090d565b506080830151610a426080860182610a67565b5060a083015184820360a0860152610a5a82826108a3565b9150508091505092915050565b610a7081610c96565b82525050565b610a7f81610c96565b82525050565b6000610a9182846108dc565b915081905092915050565b6000602082019050610ab16000830184610867565b92915050565b6000602082019050610acc6000830184610894565b92915050565b6000602082019050610ae7600083018461091c565b92915050565b60006020820190508181036000830152610b0681610949565b9050919050565b600060e0820190508181036000830152610b2781876109de565b9050610b366020830186610989565b610b4360a083018561093a565b610b5060c0830184610a76565b95945050505050565b600060e0820190508181036000830152610b7381876109de565b9050610b826020830186610989565b610b8f60a0830185610a76565b610b9c60c0830184610a76565b95945050505050565b6000602082019050610bba6000830184610a76565b92915050565b6000604051905081810181811067ffffffffffffffff82111715610be757610be6610d3f565b5b8060405250919050565b600081519050919050565b600082825260208201905092915050565b600081905092915050565b600082825260208201905092915050565b6000610c3482610c76565b9050919050565b6000610c4682610c76565b9050919050565b60008115159050919050565b6000819050919050565b6000819050610c7182610d52565b919050565b600073ffffffffffffffffffffffffffffffffffffffff82169050919050565b6000819050919050565b6000610cab82610cb2565b9050919050565b6000610cbd82610c76565b9050919050565b6000610ccf82610cd6565b9050919050565b6000610ce182610c76565b9050919050565b6000610cf382610c63565b9050919050565b6000610d0582610c96565b9050919050565b60005b83811015610d2a578082015181840152602081019050610d0f565b83811115610d39576000848401525b50505050565bfe5b6000601f19601f8301169050919050565b60028110610d6357610d62610d3f565b5b50565b610d6f81610c29565b8114610d7a57600080fd5b50565b610d8681610c4d565b8114610d9157600080fd5b50565b610d9d81610c59565b8114610da857600080fd5b50565b610db481610c96565b8114610dbf57600080fd5b5056fea2646970667358221220686a9236601dc8834b0ce5b094edf6f19e70ddd8c42524107c63ef5a6a31639b64736f6c63430007060033",
  "linkReferences": {},
  "deployedLinkReferences": {}
}