{
  "_format": "hh-sol-artifact-1",
  "contractName": "SiloLens",
  "sourceName": "contracts/SiloLens.sol",
  "abi": [
    {
      "inputs": [
        {
          "internalType": "contract ISiloRepository",
          "name": "_siloRepo",
          "type": "address"
        }
      ],
      "stateMutability": "nonpayable",
      "type": "constructor"
    },
    {
      "inputs": [],
      "name": "IncorrectDataLength",
      "type": "error"
    },
    {
      "inputs": [
        {
          "internalType": "uint256",
          "name": "_assetTotalDeposits",
          "type": "uint256"
        },
        {
          "internalType": "contract IShareToken",
          "name": "_shareToken",
          "type": "address"
        },
        {
          "internalType": "address",
          "name": "_user",
          "type": "address"
        }
      ],
      "name": "balanceOfUnderlying",
      "outputs": [
        {
          "internalType": "uint256",
          "name": "",
          "type": "uint256"
        }
      ],
      "stateMutability": "view",
      "type": "function"
    },
    {
      "inputs": [
        {
          "internalType": "contract ISilo",
          "name": "_silo",
          "type": "address"
        },
        {
          "internalType": "address",
          "name": "_asset",
          "type": "address"
        }
      ],
      "name": "borrowAPY",
      "outputs": [
        {
          "internalType": "uint256",
          "name": "",
          "type": "uint256"
        }
      ],
      "stateMutability": "view",
      "type": "function"
    },
    {
      "inputs": [
        {
          "internalType": "contract ISilo",
          "name": "_silo",
          "type": "address"
        },
        {
          "internalType": "address",
          "name": "_asset",
          "type": "address"
        },
        {
          "internalType": "address",
          "name": "_user",
          "type": "address"
        }
      ],
      "name": "borrowShare",
      "outputs": [
        {
          "internalType": "uint256",
          "name": "",
          "type": "uint256"
        }
      ],
      "stateMutability": "view",
      "type": "function"
    },
    {
      "inputs": [
        {
          "internalType": "uint256",
          "name": "_amount",
          "type": "uint256"
        }
      ],
      "name": "calcFee",
      "outputs": [
        {
          "internalType": "uint256",
          "name": "",
          "type": "uint256"
        }
      ],
      "stateMutability": "view",
      "type": "function"
    },
    {
      "inputs": [
        {
          "internalType": "contract ISilo",
          "name": "_silo",
          "type": "address"
        },
        {
          "internalType": "address",
          "name": "_user",
          "type": "address"
        },
        {
          "internalType": "address",
          "name": "_asset",
          "type": "address"
        },
        {
          "internalType": "uint256",
          "name": "",
          "type": "uint256"
        },
        {
          "internalType": "uint256",
          "name": "",
          "type": "uint256"
        }
      ],
      "name": "calculateBorrowValue",
      "outputs": [
        {
          "internalType": "uint256",
          "name": "",
          "type": "uint256"
        }
      ],
      "stateMutability": "view",
      "type": "function"
    },
    {
      "inputs": [
        {
          "internalType": "contract ISilo",
          "name": "_silo",
          "type": "address"
        },
        {
          "internalType": "address",
          "name": "_user",
          "type": "address"
        },
        {
          "internalType": "address",
          "name": "_asset",
          "type": "address"
        }
      ],
      "name": "calculateCollateralValue",
      "outputs": [
        {
          "internalType": "uint256",
          "name": "",
          "type": "uint256"
        }
      ],
      "stateMutability": "view",
      "type": "function"
    },
    {
      "inputs": [
        {
          "internalType": "contract ISilo",
          "name": "_silo",
          "type": "address"
        },
        {
          "internalType": "address",
          "name": "_asset",
          "type": "address"
        },
        {
          "internalType": "address",
          "name": "_user",
          "type": "address"
        }
      ],
      "name": "collateralBalanceOfUnderlying",
      "outputs": [
        {
          "internalType": "uint256",
          "name": "",
          "type": "uint256"
        }
      ],
      "stateMutability": "view",
      "type": "function"
    },
    {
      "inputs": [
        {
          "internalType": "contract ISilo",
          "name": "_silo",
          "type": "address"
        },
        {
          "internalType": "address",
          "name": "_asset",
          "type": "address"
        }
      ],
      "name": "collateralOnlyDeposits",
      "outputs": [
        {
          "internalType": "uint256",
          "name": "",
          "type": "uint256"
        }
      ],
      "stateMutability": "view",
      "type": "function"
    },
    {
      "inputs": [
        {
          "internalType": "contract ISilo",
          "name": "_silo",
          "type": "address"
        },
        {
          "internalType": "address",
          "name": "_asset",
          "type": "address"
        },
        {
          "internalType": "address",
          "name": "_user",
          "type": "address"
        }
      ],
      "name": "debtBalanceOfUnderlying",
      "outputs": [
        {
          "internalType": "uint256",
          "name": "",
          "type": "uint256"
        }
      ],
      "stateMutability": "view",
      "type": "function"
    },
    {
      "inputs": [
        {
          "internalType": "contract ISilo",
          "name": "_silo",
          "type": "address"
        },
        {
          "internalType": "address",
          "name": "_asset",
          "type": "address"
        }
      ],
      "name": "depositAPY",
      "outputs": [
        {
          "internalType": "uint256",
          "name": "",
          "type": "uint256"
        }
      ],
      "stateMutability": "view",
      "type": "function"
    },
    {
      "inputs": [
        {
          "internalType": "contract ISilo",
          "name": "_silo",
          "type": "address"
        },
        {
          "internalType": "address",
          "name": "_asset",
          "type": "address"
        },
        {
          "internalType": "address",
          "name": "_user",
          "type": "address"
        },
        {
          "internalType": "uint256",
          "name": "_timestamp",
          "type": "uint256"
        }
      ],
      "name": "getBorrowAmount",
      "outputs": [
        {
          "internalType": "uint256",
          "name": "",
          "type": "uint256"
        }
      ],
      "stateMutability": "view",
      "type": "function"
    },
    {
      "inputs": [
        {
          "internalType": "contract ISilo",
          "name": "_silo",
          "type": "address"
        },
        {
          "internalType": "address",
          "name": "_asset",
          "type": "address"
        }
      ],
      "name": "getModel",
      "outputs": [
        {
          "internalType": "contract IInterestRateModel",
          "name": "",
          "type": "address"
        }
      ],
      "stateMutability": "view",
      "type": "function"
    },
    {
      "inputs": [
        {
          "internalType": "contract ISilo",
          "name": "_silo",
          "type": "address"
        },
        {
          "internalType": "address",
          "name": "_user",
          "type": "address"
        }
      ],
      "name": "getUserLTV",
      "outputs": [
        {
          "internalType": "uint256",
          "name": "userLTV",
          "type": "uint256"
        }
      ],
      "stateMutability": "view",
      "type": "function"
    },
    {
      "inputs": [
        {
          "internalType": "contract ISilo",
          "name": "_silo",
          "type": "address"
        },
        {
          "internalType": "address",
          "name": "_user",
          "type": "address"
        }
      ],
      "name": "getUserLiquidationThreshold",
      "outputs": [
        {
          "internalType": "uint256",
          "name": "liquidationThreshold",
          "type": "uint256"
        }
      ],
      "stateMutability": "view",
      "type": "function"
    },
    {
      "inputs": [
        {
          "internalType": "contract ISilo",
          "name": "_silo",
          "type": "address"
        },
        {
          "internalType": "address",
          "name": "_user",
          "type": "address"
        }
      ],
      "name": "getUserMaximumLTV",
      "outputs": [
        {
          "internalType": "uint256",
          "name": "maximumLTV",
          "type": "uint256"
        }
      ],
      "stateMutability": "view",
      "type": "function"
    },
    {
      "inputs": [
        {
          "internalType": "contract ISilo",
          "name": "_silo",
          "type": "address"
        },
        {
          "internalType": "address",
          "name": "_asset",
          "type": "address"
        }
      ],
      "name": "getUtilization",
      "outputs": [
        {
          "internalType": "uint256",
          "name": "",
          "type": "uint256"
        }
      ],
      "stateMutability": "view",
      "type": "function"
    },
    {
      "inputs": [
        {
          "internalType": "contract ISilo",
          "name": "_silo",
          "type": "address"
        },
        {
          "internalType": "address",
          "name": "_user",
          "type": "address"
        }
      ],
      "name": "inDebt",
      "outputs": [
        {
          "internalType": "bool",
          "name": "",
          "type": "bool"
        }
      ],
      "stateMutability": "view",
      "type": "function"
    },
    {
      "inputs": [],
      "name": "lensPing",
      "outputs": [
        {
          "internalType": "bool",
          "name": "",
          "type": "bool"
        }
      ],
      "stateMutability": "pure",
      "type": "function"
    },
    {
      "inputs": [
        {
          "internalType": "contract ISilo",
          "name": "_silo",
          "type": "address"
        },
        {
          "internalType": "address",
          "name": "_asset",
          "type": "address"
        }
      ],
      "name": "liquidity",
      "outputs": [
        {
          "internalType": "uint256",
          "name": "",
          "type": "uint256"
        }
      ],
      "stateMutability": "view",
      "type": "function"
    },
    {
      "inputs": [
        {
          "internalType": "contract ISilo",
          "name": "_silo",
          "type": "address"
        },
        {
          "internalType": "address",
          "name": "_asset",
          "type": "address"
        }
      ],
      "name": "protocolFees",
      "outputs": [
        {
          "internalType": "uint256",
          "name": "",
          "type": "uint256"
        }
      ],
      "stateMutability": "view",
      "type": "function"
    },
    {
      "inputs": [],
      "name": "siloRepository",
      "outputs": [
        {
          "internalType": "contract ISiloRepository",
          "name": "",
          "type": "address"
        }
      ],
      "stateMutability": "view",
      "type": "function"
    },
    {
      "inputs": [
        {
          "internalType": "contract ISilo",
          "name": "_silo",
          "type": "address"
        },
        {
          "internalType": "address",
          "name": "_asset",
          "type": "address"
        }
      ],
      "name": "totalBorrowAmount",
      "outputs": [
        {
          "internalType": "uint256",
          "name": "",
          "type": "uint256"
        }
      ],
      "stateMutability": "view",
      "type": "function"
    },
    {
      "inputs": [
        {
          "internalType": "contract ISilo",
          "name": "_silo",
          "type": "address"
        },
        {
          "internalType": "address",
          "name": "_asset",
          "type": "address"
        }
      ],
      "name": "totalBorrowAmountWithInterest",
      "outputs": [
        {
          "internalType": "uint256",
          "name": "_totalBorrowAmount",
          "type": "uint256"
        }
      ],
      "stateMutability": "view",
      "type": "function"
    },
    {
      "inputs": [
        {
          "internalType": "contract ISilo",
          "name": "_silo",
          "type": "address"
        },
        {
          "internalType": "address",
          "name": "_asset",
          "type": "address"
        }
      ],
      "name": "totalBorrowShare",
      "outputs": [
        {
          "internalType": "uint256",
          "name": "",
          "type": "uint256"
        }
      ],
      "stateMutability": "view",
      "type": "function"
    },
    {
      "inputs": [
        {
          "internalType": "contract ISilo",
          "name": "_silo",
          "type": "address"
        },
        {
          "internalType": "address",
          "name": "_asset",
          "type": "address"
        }
      ],
      "name": "totalDeposits",
      "outputs": [
        {
          "internalType": "uint256",
          "name": "",
          "type": "uint256"
        }
      ],
      "stateMutability": "view",
      "type": "function"
    },
    {
      "inputs": [
        {
          "internalType": "contract ISilo",
          "name": "_silo",
          "type": "address"
        },
        {
          "internalType": "address",
          "name": "_asset",
          "type": "address"
        }
      ],
      "name": "totalDepositsWithInterest",
      "outputs": [
        {
          "internalType": "uint256",
          "name": "_totalDeposits",
          "type": "uint256"
        }
      ],
      "stateMutability": "view",
      "type": "function"
    }
  ],
  "bytecode": "0x60a06040523480156200001157600080fd5b5060405162004dbe38038062004dbe833981810160405281019062000037919062000275565b620000558163e99ed41d60e01b620000d560201b6200248b1760201c565b62000097576040517f08c379a00000000000000000000000000000000000000000000000000000000081526004016200008e906200031e565b60405180910390fd5b8073ffffffffffffffffffffffffffffffffffffffff1660808173ffffffffffffffffffffffffffffffffffffffff1660601b815250505062000453565b60008073ffffffffffffffffffffffffffffffffffffffff168373ffffffffffffffffffffffffffffffffffffffff1614156200011657600090506200020f565b6000808473ffffffffffffffffffffffffffffffffffffffff1684604051602401604051602081830303815290604052907bffffffffffffffffffffffffffffffffffffffffffffffffffffffff19166020820180517bffffffffffffffffffffffffffffffffffffffffffffffffffffffff8381831617835250505050604051620001a3919062000305565b600060405180830381855afa9150503d8060008114620001e0576040519150601f19603f3d011682016040523d82523d6000602084013e620001e5565b606091505b50915091508180156200020a57508080602001905181019062000209919062000243565b5b925050505b92915050565b60008151905062000226816200041f565b92915050565b6000815190506200023d8162000439565b92915050565b6000602082840312156200025c576200025b620003f1565b5b60006200026c8482850162000215565b91505092915050565b6000602082840312156200028e576200028d620003f1565b5b60006200029e848285016200022c565b91505092915050565b6000620002b48262000340565b620002c081856200034b565b9350620002d2818560208601620003bb565b80840191505092915050565b6000620002ed60138362000356565b9150620002fa82620003f6565b602082019050919050565b6000620003138284620002a7565b915081905092915050565b600060208201905081810360008301526200033981620002de565b9050919050565b600081519050919050565b600081905092915050565b600082825260208201905092915050565b600062000374826200039b565b9050919050565b60008115159050919050565b6000620003948262000367565b9050919050565b600073ffffffffffffffffffffffffffffffffffffffff82169050919050565b60005b83811015620003db578082015181840152602081019050620003be565b83811115620003eb576000848401525b50505050565b600080fd5b7f696e76616c6964205f7265706f7369746f727900000000000000000000000000600082015250565b6200042a816200037b565b81146200043657600080fd5b50565b620004448162000387565b81146200045057600080fd5b50565b60805160601c6148f1620004cd600039600081816108b50152818161094a01528181610c4801528181610ef201528181611541015281816115d2015281816116880152818161184001528181611a6301528181611bad01528181611f1701528181611f3f0152818161222c01526122ea01526148f16000f3fe608060405234801561001057600080fd5b506004361061018e5760003560e01c806387f04140116100de578063a43f23a311610097578063b221728111610071578063b2217281146105a1578063bde12718146105d1578063c719a396146105ef578063c8de84511461061f5761018e565b8063a43f23a314610511578063af82d2bc14610541578063b003ec14146105715761018e565b806387f04140146103f157806388a9af40146104215780638feddfec1461045157806390e755dd14610481578063970d45e5146104b1578063993dadeb146104e15761018e565b8063737f6e421161014b57806375f746c91161012557806375f746c91461033157806379a5e1061461036157806382656b50146103915780638705c359146103c15761018e565b8063737f6e42146102a1578063738a3a1e146102d157806375dc7d8c146103015761018e565b806302f417d314610193578063035054cd146101c3578063153ef040146101e157806343afdad21461021157806359e9e799146102415780637343901914610271575b600080fd5b6101ad60048036038101906101a89190613f63565b61064f565b6040516101ba9190614185565b60405180910390f35b6101cb610779565b6040516101d89190614114565b60405180910390f35b6101fb60048036038101906101f69190613ce0565b610782565b6040516102089190614185565b60405180910390f35b61022b60048036038101906102269190613ce0565b610819565b6040516102389190614185565b60405180910390f35b61025b60048036038101906102569190613ce0565b610945565b6040516102689190614185565b60405180910390f35b61028b60048036038101906102869190613d73565b610bb3565b6040516102989190614185565b60405180910390f35b6102bb60048036038101906102b69190613ce0565b610c7d565b6040516102c89190614185565b60405180910390f35b6102eb60048036038101906102e69190613ce0565b610dad565b6040516102f89190614185565b60405180910390f35b61031b60048036038101906103169190613f09565b610eed565b6040516103289190614185565b60405180910390f35b61034b60048036038101906103469190613ce0565b610fcb565b6040516103589190614185565b60405180910390f35b61037b60048036038101906103769190613ce0565b611062565b6040516103889190614185565b60405180910390f35b6103ab60048036038101906103a69190613d20565b6110f9565b6040516103b89190614185565b60405180910390f35b6103db60048036038101906103d69190613ce0565b611219565b6040516103e89190614114565b60405180910390f35b61040b60048036038101906104069190613ce0565b61140e565b6040516104189190614185565b60405180910390f35b61043b60048036038101906104369190613ce0565b6114a5565b6040516104489190614185565b60405180910390f35b61046b60048036038101906104669190613ce0565b6115ce565b604051610478919061412f565b60405180910390f35b61049b60048036038101906104969190613dda565b611683565b6040516104a89190614185565b60405180910390f35b6104cb60048036038101906104c69190613ce0565b611924565b6040516104d89190614185565b60405180910390f35b6104fb60048036038101906104f69190613ce0565b6119c4565b6040516105089190614185565b60405180910390f35b61052b60048036038101906105269190613d20565b611ba8565b6040516105389190614185565b60405180910390f35b61055b60048036038101906105569190613d20565b611f8d565b6040516105689190614185565b60405180910390f35b61058b60048036038101906105869190613d20565b612038565b6040516105989190614185565b60405180910390f35b6105bb60048036038101906105b69190613ce0565b612100565b6040516105c89190614185565b60405180910390f35b6105d961222a565b6040516105e6919061414a565b60405180910390f35b61060960048036038101906106049190613ce0565b61224e565b6040516106169190614185565b60405180910390f35b61063960048036038101906106349190613ce0565b612377565b6040516106469190614185565b60405180910390f35b6000808373ffffffffffffffffffffffffffffffffffffffff166370a08231846040518263ffffffff1660e01b815260040161068b9190614099565b60206040518083038186803b1580156106a357600080fd5b505afa1580156106b7573d6000803e3d6000fd5b505050506040513d601f19601f820116820180604052508101906106db9190613f36565b905061076f858573ffffffffffffffffffffffffffffffffffffffff166318160ddd6040518163ffffffff1660e01b815260040160206040518083038186803b15801561072757600080fd5b505afa15801561073b573d6000803e3d6000fd5b505050506040513d601f19601f8201168201806040525081019061075f9190613f36565b836125c29092919063ffffffff16565b9150509392505050565b60006001905090565b60008273ffffffffffffffffffffffffffffffffffffffff1663bf273041836040518263ffffffff1660e01b81526004016107bd9190614099565b60c06040518083038186803b1580156107d557600080fd5b505afa1580156107e9573d6000803e3d6000fd5b505050506040513d601f19601f8201168201806040525081019061080d9190613eaf565b60800151905092915050565b60008060008473ffffffffffffffffffffffffffffffffffffffff166364654cf56040518163ffffffff1660e01b815260040160006040518083038186803b15801561086457600080fd5b505afa158015610878573d6000803e3d6000fd5b505050506040513d6000823e3d601f19601f820116820180604052508101906108a19190613be1565b915091506109386040518060a001604052807f000000000000000000000000000000000000000000000000000000000000000073ffffffffffffffffffffffffffffffffffffffff1681526020018773ffffffffffffffffffffffffffffffffffffffff1681526020018481526020018381526020018673ffffffffffffffffffffffffffffffffffffffff168152506000612601565b5080935050505092915050565b6000807f000000000000000000000000000000000000000000000000000000000000000073ffffffffffffffffffffffffffffffffffffffff16635ddf2be36040518163ffffffff1660e01b815260040160206040518083038186803b1580156109ae57600080fd5b505afa1580156109c2573d6000803e3d6000fd5b505050506040513d601f19601f820116820180604052508101906109e69190613cb3565b905060008173ffffffffffffffffffffffffffffffffffffffff166341976e09856040518263ffffffff1660e01b8152600401610a239190614099565b60206040518083038186803b158015610a3b57600080fd5b505afa158015610a4f573d6000803e3d6000fd5b505050506040513d601f19601f82011682018060405250810190610a739190613f36565b905060008473ffffffffffffffffffffffffffffffffffffffff1663313ce5676040518163ffffffff1660e01b815260040160206040518083038186803b158015610abd57600080fd5b505afa158015610ad1573d6000803e3d6000fd5b505050506040513d601f19601f82011682018060405250810190610af59190613fb6565b60ff1690506000670de0b6b3a7640000610b0f8888611924565b610b198989610dad565b610b23919061443c565b610b2d919061429a565b9050600082600a610b3e919061431e565b8483610b4a919061443c565b610b54919061429a565b9050600083600a610b65919061431e565b85610b708b8b6119c4565b610b7a919061443c565b610b84919061429a565b905080670de0b6b3a764000083610b9b919061443c565b610ba5919061429a565b965050505050505092915050565b6000610c738573ffffffffffffffffffffffffffffffffffffffff1663bf273041866040518263ffffffff1660e01b8152600401610bf19190614099565b60c06040518083038186803b158015610c0957600080fd5b505afa158015610c1d573d6000803e3d6000fd5b505050506040513d601f19601f82011682018060405250810190610c419190613eaf565b84610c6e887f000000000000000000000000000000000000000000000000000000000000000089886127b2565b6128da565b9050949350505050565b6000808373ffffffffffffffffffffffffffffffffffffffff1663f87c3aa8846040518263ffffffff1660e01b8152600401610cb99190614099565b60606040518083038186803b158015610cd157600080fd5b505afa158015610ce5573d6000803e3d6000fd5b505050506040513d601f19601f82011682018060405250810190610d099190613edc565b9050610da4610d1885856115ce565b73ffffffffffffffffffffffffffffffffffffffff16636bcc82166040518163ffffffff1660e01b815260040160206040518083038186803b158015610d5d57600080fd5b505afa158015610d71573d6000803e3d6000fd5b505050506040513d601f19601f82011682018060405250810190610d959190613e55565b82600001518360200151612a33565b91505092915050565b600080610dba84846115ce565b73ffffffffffffffffffffffffffffffffffffffff1663b1e017658585426040518463ffffffff1660e01b8152600401610df6939291906140dd565b60206040518083038186803b158015610e0e57600080fd5b505afa158015610e22573d6000803e3d6000fd5b505050506040513d601f19601f82011682018060405250810190610e469190613f36565b905060008473ffffffffffffffffffffffffffffffffffffffff1663f87c3aa8856040518263ffffffff1660e01b8152600401610e839190614099565b60606040518083038186803b158015610e9b57600080fd5b505afa158015610eaf573d6000803e3d6000fd5b505050506040513d601f19601f82011682018060405250810190610ed39190613edc565b9050610ee3816020015183612a72565b9250505092915050565b6000807f000000000000000000000000000000000000000000000000000000000000000073ffffffffffffffffffffffffffffffffffffffff1663072ea61c6040518163ffffffff1660e01b815260040160206040518083038186803b158015610f5657600080fd5b505afa158015610f6a573d6000803e3d6000fd5b505050506040513d601f19601f82011682018060405250810190610f8e9190613f36565b90506000811415610fa3576000915050610fc6565b670de0b6b3a76400008184610fb8919061443c565b610fc2919061429a565b9150505b919050565b60008273ffffffffffffffffffffffffffffffffffffffff1663f87c3aa8836040518263ffffffff1660e01b81526004016110069190614099565b60606040518083038186803b15801561101e57600080fd5b505afa158015611032573d6000803e3d6000fd5b505050506040513d601f19601f820116820180604052508101906110569190613edc565b60000151905092915050565b60008273ffffffffffffffffffffffffffffffffffffffff1663fb255703836040518263ffffffff1660e01b815260040161109d9190614099565b60806040518083038186803b1580156110b557600080fd5b505afa1580156110c9573d6000803e3d6000fd5b505050506040513d601f19601f820116820180604052508101906110ed9190613e82565b60200151905092915050565b60008373ffffffffffffffffffffffffffffffffffffffff1663bf273041846040518263ffffffff1660e01b81526004016111349190614099565b60c06040518083038186803b15801561114c57600080fd5b505afa158015611160573d6000803e3d6000fd5b505050506040513d601f19601f820116820180604052508101906111849190613eaf565b6040015173ffffffffffffffffffffffffffffffffffffffff166370a08231836040518263ffffffff1660e01b81526004016111c09190614099565b60206040518083038186803b1580156111d857600080fd5b505afa1580156111ec573d6000803e3d6000fd5b505050506040513d601f19601f820116820180604052508101906112109190613f36565b90509392505050565b6000808373ffffffffffffffffffffffffffffffffffffffff166367e4ac2c6040518163ffffffff1660e01b815260040160006040518083038186803b15801561126257600080fd5b505afa158015611276573d6000803e3d6000fd5b505050506040513d6000823e3d601f19601f8201168201806040525081019061129f9190613b98565b905060005b81518110156114015760008573ffffffffffffffffffffffffffffffffffffffff1663bf2730418484815181106112de576112dd614707565b5b60200260200101516040518263ffffffff1660e01b81526004016113029190614099565b60c06040518083038186803b15801561131a57600080fd5b505afa15801561132e573d6000803e3d6000fd5b505050506040513d601f19601f820116820180604052508101906113529190613eaf565b6040015173ffffffffffffffffffffffffffffffffffffffff166370a08231866040518263ffffffff1660e01b815260040161138e9190614099565b60206040518083038186803b1580156113a657600080fd5b505afa1580156113ba573d6000803e3d6000fd5b505050506040513d601f19601f820116820180604052508101906113de9190613f36565b146113ee57600192505050611408565b80806113f990614631565b9150506112a4565b5060009150505b92915050565b60008273ffffffffffffffffffffffffffffffffffffffff1663bf273041836040518263ffffffff1660e01b81526004016114499190614099565b60c06040518083038186803b15801561146157600080fd5b505afa158015611475573d6000803e3d6000fd5b505050506040513d601f19601f820116820180604052508101906114999190613eaf565b60a00151905092915050565b60008060008473ffffffffffffffffffffffffffffffffffffffff166364654cf56040518163ffffffff1660e01b815260040160006040518083038186803b1580156114f057600080fd5b505afa158015611504573d6000803e3d6000fd5b505050506040513d6000823e3d601f19601f8201168201806040525081019061152d9190613be1565b915091506115c46040518060a001604052807f000000000000000000000000000000000000000000000000000000000000000073ffffffffffffffffffffffffffffffffffffffff1681526020018773ffffffffffffffffffffffffffffffffffffffff1681526020018481526020018381526020018673ffffffffffffffffffffffffffffffffffffffff168152506001612aa6565b9250505092915050565b60007f000000000000000000000000000000000000000000000000000000000000000073ffffffffffffffffffffffffffffffffffffffff166348b3eabc84846040518363ffffffff1660e01b815260040161162b9291906140b4565b60206040518083038186803b15801561164357600080fd5b505afa158015611657573d6000803e3d6000fd5b505050506040513d601f19601f8201168201806040525081019061167b9190613c86565b905092915050565b6000807f000000000000000000000000000000000000000000000000000000000000000073ffffffffffffffffffffffffffffffffffffffff16635ddf2be36040518163ffffffff1660e01b815260040160206040518083038186803b1580156116ec57600080fd5b505afa158015611700573d6000803e3d6000fd5b505050506040513d601f19601f820116820180604052508101906117249190613cb3565b905060008173ffffffffffffffffffffffffffffffffffffffff166341976e09876040518263ffffffff1660e01b81526004016117619190614099565b60206040518083038186803b15801561177957600080fd5b505afa15801561178d573d6000803e3d6000fd5b505050506040513d601f19601f820116820180604052508101906117b19190613f36565b905060008673ffffffffffffffffffffffffffffffffffffffff1663313ce5676040518163ffffffff1660e01b815260040160206040518083038186803b1580156117fb57600080fd5b505afa15801561180f573d6000803e3d6000fd5b505050506040513d601f19601f820116820180604052508101906118339190613fb6565b60ff16905060006118668a7f00000000000000000000000000000000000000000000000000000000000000008a426127b2565b905060006118fd8b73ffffffffffffffffffffffffffffffffffffffff1663bf2730418b6040518263ffffffff1660e01b81526004016118a69190614099565b60c06040518083038186803b1580156118be57600080fd5b505afa1580156118d2573d6000803e3d6000fd5b505050506040513d601f19601f820116820180604052508101906118f69190613eaf565b8b846128da565b9050611914848483612ba69092919063ffffffff16565b9550505050505095945050505050565b600061193083836115ce565b73ffffffffffffffffffffffffffffffffffffffff1663071962ff8484426040518463ffffffff1660e01b815260040161196c939291906140dd565b60206040518083038186803b15801561198457600080fd5b505afa158015611998573d6000803e3d6000fd5b505050506040513d601f19601f820116820180604052508101906119bc9190613f36565b905092915050565b6000806119d184846115ce565b73ffffffffffffffffffffffffffffffffffffffff1663b1e017658585426040518463ffffffff1660e01b8152600401611a0d939291906140dd565b60206040518083038186803b158015611a2557600080fd5b505afa158015611a39573d6000803e3d6000fd5b505050506040513d601f19601f82011682018060405250810190611a5d9190613f36565b905060007f000000000000000000000000000000000000000000000000000000000000000073ffffffffffffffffffffffffffffffffffffffff166325ed3d446040518163ffffffff1660e01b815260040160206040518083038186803b158015611ac757600080fd5b505afa158015611adb573d6000803e3d6000fd5b505050506040513d601f19601f82011682018060405250810190611aff9190613f36565b905060008573ffffffffffffffffffffffffffffffffffffffff1663f87c3aa8866040518263ffffffff1660e01b8152600401611b3c9190614099565b60606040518083038186803b158015611b5457600080fd5b505afa158015611b68573d6000803e3d6000fd5b505050506040513d601f19601f82011682018060405250810190611b8c9190613edc565b9050611b9d81600001518385612bd4565b935050505092915050565b6000807f000000000000000000000000000000000000000000000000000000000000000073ffffffffffffffffffffffffffffffffffffffff16635ddf2be36040518163ffffffff1660e01b815260040160206040518083038186803b158015611c1157600080fd5b505afa158015611c25573d6000803e3d6000fd5b505050506040513d601f19601f82011682018060405250810190611c499190613cb3565b905060008573ffffffffffffffffffffffffffffffffffffffff1663bf273041856040518263ffffffff1660e01b8152600401611c869190614099565b60c06040518083038186803b158015611c9e57600080fd5b505afa158015611cb2573d6000803e3d6000fd5b505050506040513d601f19601f82011682018060405250810190611cd69190613eaf565b905060008273ffffffffffffffffffffffffffffffffffffffff166341976e09866040518263ffffffff1660e01b8152600401611d139190614099565b60206040518083038186803b158015611d2b57600080fd5b505afa158015611d3f573d6000803e3d6000fd5b505050506040513d601f19601f82011682018060405250810190611d639190613f36565b905060008573ffffffffffffffffffffffffffffffffffffffff1663313ce5676040518163ffffffff1660e01b815260040160206040518083038186803b158015611dad57600080fd5b505afa158015611dc1573d6000803e3d6000fd5b505050506040513d601f19601f82011682018060405250810190611de59190613fb6565b90506000836000015173ffffffffffffffffffffffffffffffffffffffff166370a08231896040518263ffffffff1660e01b8152600401611e269190614099565b60206040518083038186803b158015611e3e57600080fd5b505afa158015611e52573d6000803e3d6000fd5b505050506040513d601f19601f82011682018060405250810190611e769190613f36565b90506000846020015173ffffffffffffffffffffffffffffffffffffffff166370a082318a6040518263ffffffff1660e01b8152600401611eb79190614099565b60206040518083038186803b158015611ecf57600080fd5b505afa158015611ee3573d6000803e3d6000fd5b505050506040513d601f19601f82011682018060405250810190611f079190613f36565b90506000611f63868484611f3d8f7f00000000000000000000000000000000000000000000000000000000000000008f426127b2565b7f0000000000000000000000000000000000000000000000000000000000000000612c37565b9050611f7d858560ff1683612ba69092919063ffffffff16565b9750505050505050509392505050565b6000808473ffffffffffffffffffffffffffffffffffffffff1663bf273041856040518263ffffffff1660e01b8152600401611fc99190614099565b60c06040518083038186803b158015611fe157600080fd5b505afa158015611ff5573d6000803e3d6000fd5b505050506040513d601f19601f820116820180604052508101906120199190613eaf565b905061202e8160a0015182604001518561064f565b9150509392505050565b6000808473ffffffffffffffffffffffffffffffffffffffff1663bf273041856040518263ffffffff1660e01b81526004016120749190614099565b60c06040518083038186803b15801561208c57600080fd5b505afa1580156120a0573d6000803e3d6000fd5b505050506040513d601f19601f820116820180604052508101906120c49190613eaf565b90506120d9816080015182602001518561064f565b6120ec826060015183600001518661064f565b6120f69190614244565b9150509392505050565b60008273ffffffffffffffffffffffffffffffffffffffff1663bf273041836040518263ffffffff1660e01b815260040161213b9190614099565b60c06040518083038186803b15801561215357600080fd5b505afa158015612167573d6000803e3d6000fd5b505050506040513d601f19601f8201168201806040525081019061218b9190613eaf565b608001518273ffffffffffffffffffffffffffffffffffffffff166370a08231856040518263ffffffff1660e01b81526004016121c89190614099565b60206040518083038186803b1580156121e057600080fd5b505afa1580156121f4573d6000803e3d6000fd5b505050506040513d601f19601f820116820180604052508101906122189190613f36565b6122229190614496565b905092915050565b7f000000000000000000000000000000000000000000000000000000000000000081565b60008060008473ffffffffffffffffffffffffffffffffffffffff166364654cf56040518163ffffffff1660e01b815260040160006040518083038186803b15801561229957600080fd5b505afa1580156122ad573d6000803e3d6000fd5b505050506040513d6000823e3d601f19601f820116820180604052508101906122d69190613be1565b9150915061236d6040518060a001604052807f000000000000000000000000000000000000000000000000000000000000000073ffffffffffffffffffffffffffffffffffffffff1681526020018773ffffffffffffffffffffffffffffffffffffffff1681526020018481526020018381526020018673ffffffffffffffffffffffffffffffffffffffff168152506000612aa6565b9250505092915050565b60008273ffffffffffffffffffffffffffffffffffffffff1663bf273041836040518263ffffffff1660e01b81526004016123b29190614099565b60c06040518083038186803b1580156123ca57600080fd5b505afa1580156123de573d6000803e3d6000fd5b505050506040513d601f19601f820116820180604052508101906124029190613eaf565b6040015173ffffffffffffffffffffffffffffffffffffffff166318160ddd6040518163ffffffff1660e01b815260040160206040518083038186803b15801561244b57600080fd5b505afa15801561245f573d6000803e3d6000fd5b505050506040513d601f19601f820116820180604052508101906124839190613f36565b905092915050565b60008073ffffffffffffffffffffffffffffffffffffffff168373ffffffffffffffffffffffffffffffffffffffff1614156124ca57600090506125bc565b6000808473ffffffffffffffffffffffffffffffffffffffff1684604051602401604051602081830303815290604052907bffffffffffffffffffffffffffffffffffffffffffffffffffffffff19166020820180517bffffffffffffffffffffffffffffffffffffffffffffffffffffffff83818316178352505050506040516125559190614082565b600060405180830381855afa9150503d8060008114612590576040519150601f19603f3d011682016040523d82523d6000602084013e612595565b606091505b50915091508180156125b75750808060200190518101906125b69190613c59565b5b925050505b92915050565b6000808214806125d25750600083145b156125e057600090506125fa565b8183856125ed919061443c565b6125f7919061429a565b90505b9392505050565b600080600061260f85612e33565b9050600061261c82612f74565b141561262f5760008092509250506127ab565b6000856000015173ffffffffffffffffffffffffffffffffffffffff16635ddf2be36040518163ffffffff1660e01b815260040160206040518083038186803b15801561267b57600080fd5b505afa15801561268f573d6000803e3d6000fd5b505050506040513d601f19601f820116820180604052508101906126b39190613cb3565b905060006126c682886040015185612fc2565b905060006126d382612f74565b905060008114156126ee5760008095509550505050506127ab565b60006126fa848a613231565b9050600061270782612f74565b90506000811415612744577fffffffffffffffffffffffffffffffffffffffffffffffffffffffffffffffff6000975097505050505050506127ab565b600061275f8b600001518c602001518d604001518d87613258565b905081670de0b6b3a764000085612776919061443c565b612780919061429a565b985081670de0b6b3a764000082612797919061443c565b6127a1919061429a565b9750505050505050505b9250929050565b6000808473ffffffffffffffffffffffffffffffffffffffff166348b3eabc87866040518363ffffffff1660e01b81526004016127f09291906140b4565b60206040518083038186803b15801561280857600080fd5b505afa15801561281c573d6000803e3d6000fd5b505050506040513d601f19601f820116820180604052508101906128409190613c86565b90508073ffffffffffffffffffffffffffffffffffffffff1663b1e017658786866040518463ffffffff1660e01b815260040161287f939291906140dd565b60206040518083038186803b15801561289757600080fd5b505afa1580156128ab573d6000803e3d6000fd5b505050506040513d601f19601f820116820180604052508101906128cf9190613f36565b915050949350505050565b600080846040015173ffffffffffffffffffffffffffffffffffffffff166370a08231856040518263ffffffff1660e01b815260040161291a9190614099565b60206040518083038186803b15801561293257600080fd5b505afa158015612946573d6000803e3d6000fd5b505050506040513d601f19601f8201168201806040525081019061296a9190613f36565b9050600081141561297f576000915050612a2c565b600061298f8660a0015185612a72565b9050612a2781876040015173ffffffffffffffffffffffffffffffffffffffff166318160ddd6040518163ffffffff1660e01b815260040160206040518083038186803b1580156129df57600080fd5b505afa1580156129f3573d6000803e3d6000fd5b505050506040513d601f19601f82011682018060405250810190612a179190613f36565b846125c29092919063ffffffff16565b925050505b9392505050565b600080831480612a435750600082145b15612a515760009050612a6b565b828483612a5e919061443c565b612a68919061429a565b90505b9392505050565b6000670de0b6b3a76400008284612a89919061443c565b612a93919061429a565b83612a9e9190614244565b905092915050565b600080836000015173ffffffffffffffffffffffffffffffffffffffff16635ddf2be36040518163ffffffff1660e01b815260040160206040518083038186803b158015612af357600080fd5b505afa158015612b07573d6000803e3d6000fd5b505050506040513d601f19601f82011682018060405250810190612b2b9190613cb3565b90506000612b398286613231565b90506000612b4682612f74565b90506000811415612b5d5760009350505050612ba0565b6000612b788760000151886020015189604001518987613258565b905081670de0b6b3a764000082612b8f919061443c565b612b99919061429a565b9450505050505b92915050565b600081600a612bb5919061431e565b8385612bc1919061443c565b612bcb919061429a565b90509392505050565b60008083670de0b6b3a7640000612beb9190614496565b9050670de0b6b3a764000080828588612c04919061443c565b612c0e919061443c565b612c18919061429a565b612c22919061429a565b85612c2d9190614244565b9150509392505050565b60008060008614612d6857612d63612cd188606001518573ffffffffffffffffffffffffffffffffffffffff166325ed3d446040518163ffffffff1660e01b815260040160206040518083038186803b158015612c9357600080fd5b505afa158015612ca7573d6000803e3d6000fd5b505050506040513d601f19601f82011682018060405250810190612ccb9190613f36565b87612bd4565b886000015173ffffffffffffffffffffffffffffffffffffffff166318160ddd6040518163ffffffff1660e01b815260040160206040518083038186803b158015612d1b57600080fd5b505afa158015612d2f573d6000803e3d6000fd5b505050506040513d601f19601f82011682018060405250810190612d539190613f36565b886125c29092919063ffffffff16565b612d6b565b60005b90506000808614612e1557612e108860800151896020015173ffffffffffffffffffffffffffffffffffffffff166318160ddd6040518163ffffffff1660e01b815260040160206040518083038186803b158015612dc857600080fd5b505afa158015612ddc573d6000803e3d6000fd5b505050506040513d601f19601f82011682018060405250810190612e009190613f36565b886125c29092919063ffffffff16565b612e18565b60005b90508082612e269190614244565b9250505095945050505050565b606081606001515182604001515114612e78576040517fef356d7a00000000000000000000000000000000000000000000000000000000815260040160405180910390fd5b81604001515167ffffffffffffffff811115612e9757612e96614736565b5b604051908082528060200260200182016040528015612ec55781602001602082028036833780820191505090505b50905060005b826040015151811015612f6e576000612f0c8460200151856000015186604001518581518110612efe57612efd614707565b5b6020026020010151426127b2565b9050612f3b84606001518381518110612f2857612f27614707565b5b60200260200101518560800151836128da565b838381518110612f4e57612f4d614707565b5b602002602001018181525050508080612f6690614631565b915050612ecb565b50919050565b6000805b8251811015612fbc57828181518110612f9457612f93614707565b5b602002602001015182612fa79190614244565b91508080612fb490614631565b915050612f78565b50919050565b60608151835114612fff576040517fef356d7a00000000000000000000000000000000000000000000000000000000815260040160405180910390fd5b825167ffffffffffffffff81111561301a57613019614736565b5b6040519080825280602002602001820160405280156130485781602001602082028036833780820191505090505b50905060005b835181101561322957600083828151811061306c5761306b614707565b5b6020026020010151141561307f57613216565b60008573ffffffffffffffffffffffffffffffffffffffff166341976e098684815181106130b0576130af614707565b5b60200260200101516040518263ffffffff1660e01b81526004016130d49190614099565b60206040518083038186803b1580156130ec57600080fd5b505afa158015613100573d6000803e3d6000fd5b505050506040513d601f19601f820116820180604052508101906131249190613f36565b9050600085838151811061313b5761313a614707565b5b602002602001015173ffffffffffffffffffffffffffffffffffffffff1663313ce5676040518163ffffffff1660e01b815260040160206040518083038186803b15801561318857600080fd5b505afa15801561319c573d6000803e3d6000fd5b505050506040513d601f19601f820116820180604052508101906131c09190613fb6565b90506131f4828260ff168786815181106131dd576131dc614707565b5b6020026020010151612ba69092919063ffffffff16565b84848151811061320757613206614707565b5b60200260200101818152505050505b808061322190614631565b91505061304e565b509392505050565b6060600061323e8361330c565b905061324f84846040015183612fc2565b91505092915050565b60008151845114613295576040517fef356d7a00000000000000000000000000000000000000000000000000000000815260040160405180910390fd5b60005b8451811015613302576132e287878784815181106132b9576132b8614707565b5b6020026020010151878786815181106132d5576132d4614707565b5b60200260200101516135d3565b826132ed9190614244565b915080806132fa90614631565b915050613298565b5095945050505050565b606081606001515182606001515114613351576040517fef356d7a00000000000000000000000000000000000000000000000000000000815260040160405180910390fd5b81604001515167ffffffffffffffff8111156133705761336f614736565b5b60405190808252806020026020018201604052801561339e5781602001602082028036833780820191505090505b50905060005b8260400151518110156135cd576000836060015182815181106133ca576133c9614707565b5b60200260200101516000015173ffffffffffffffffffffffffffffffffffffffff166370a0823185608001516040518263ffffffff1660e01b81526004016134129190614099565b60206040518083038186803b15801561342a57600080fd5b505afa15801561343e573d6000803e3d6000fd5b505050506040513d601f19601f820116820180604052508101906134629190613f36565b905060008460600151838151811061347d5761347c614707565b5b60200260200101516020015173ffffffffffffffffffffffffffffffffffffffff166370a0823186608001516040518263ffffffff1660e01b81526004016134c59190614099565b60206040518083038186803b1580156134dd57600080fd5b505afa1580156134f1573d6000803e3d6000fd5b505050506040513d601f19601f820116820180604052508101906135159190613f36565b9050600081836135259190614244565b14156135325750506135ba565b6000613566866020015187600001518860400151878151811061355857613557614707565b5b6020026020010151426127b2565b90506135978660600151858151811061358257613581614707565b5b60200260200101518484848a60000151612c37565b8585815181106135aa576135a9614707565b5b6020026020010181815250505050505b80806135c590614631565b9150506133a4565b50919050565b600080600060018111156135ea576135e96146d8565b5b8460018111156135fd576135fc6146d8565b5b1415613695578673ffffffffffffffffffffffffffffffffffffffff1663c2fa749487876040518363ffffffff1660e01b815260040161363e9291906140b4565b60206040518083038186803b15801561365657600080fd5b505afa15801561366a573d6000803e3d6000fd5b505050506040513d601f19601f8201168201806040525081019061368e9190613f36565b905061378f565b6001808111156136a8576136a76146d8565b5b8460018111156136bb576136ba6146d8565b5b1415613753578673ffffffffffffffffffffffffffffffffffffffff166332936c4487876040518363ffffffff1660e01b81526004016136fc9291906140b4565b60206040518083038186803b15801561371457600080fd5b505afa158015613728573d6000803e3d6000fd5b505050506040513d601f19601f8201168201806040525081019061374c9190613f36565b905061378e565b6040517f08c379a000000000000000000000000000000000000000000000000000000000815260040161378590614165565b60405180910390fd5b5b670de0b6b3a764000081846137a4919061443c565b6137ae919061429a565b91505095945050505050565b60006137cd6137c8846141c5565b6141a0565b905080838252602082019050828560208602820111156137f0576137ef61476f565b5b60005b85811015613820578161380688826138af565b8452602084019350602083019250506001810190506137f3565b5050509392505050565b600061383d613838846141f1565b6141a0565b905080838252602082019050828560c08602820111156138605761385f61476f565b5b60005b8581101561389057816138768882613a40565b845260208401935060c08301925050600181019050613863565b5050509392505050565b6000813590506138a9816147c5565b92915050565b6000815190506138be816147c5565b92915050565b600082601f8301126138d9576138d8614765565b5b81516138e98482602086016137ba565b91505092915050565b600082601f83011261390757613906614765565b5b815161391784826020860161382a565b91505092915050565b60008151905061392f816147dc565b92915050565b600081519050613944816147f3565b92915050565b6000815190506139598161480a565b92915050565b60008135905061396e81614821565b92915050565b60008151905061398381614821565b92915050565b60008135905061399881614838565b92915050565b6000815190506139ad8161484f565b92915050565b6000815190506139c28161485f565b92915050565b6000608082840312156139de576139dd61476a565b5b6139e860806141a0565b905060006139f884828501613b59565b6000830152506020613a0c84828501613b59565b6020830152506040613a2084828501613b6e565b6040830152506060613a348482850161399e565b60608301525092915050565b600060c08284031215613a5657613a5561476a565b5b613a6060c06141a0565b90506000613a7084828501613974565b6000830152506020613a8484828501613974565b6020830152506040613a9884828501613974565b6040830152506060613aac84828501613b59565b6060830152506080613ac084828501613b59565b60808301525060a0613ad484828501613b59565b60a08301525092915050565b600060608284031215613af657613af561476a565b5b613b0060606141a0565b90506000613b1084828501613b59565b6000830152506020613b2484828501613b59565b6020830152506040613b3884828501613b6e565b60408301525092915050565b600081359050613b5381614876565b92915050565b600081519050613b6881614876565b92915050565b600081519050613b7d8161488d565b92915050565b600081519050613b92816148a4565b92915050565b600060208284031215613bae57613bad614779565b5b600082015167ffffffffffffffff811115613bcc57613bcb614774565b5b613bd8848285016138c4565b91505092915050565b60008060408385031215613bf857613bf7614779565b5b600083015167ffffffffffffffff811115613c1657613c15614774565b5b613c22858286016138c4565b925050602083015167ffffffffffffffff811115613c4357613c42614774565b5b613c4f858286016138f2565b9150509250929050565b600060208284031215613c6f57613c6e614779565b5b6000613c7d84828501613920565b91505092915050565b600060208284031215613c9c57613c9b614779565b5b6000613caa84828501613935565b91505092915050565b600060208284031215613cc957613cc8614779565b5b6000613cd78482850161394a565b91505092915050565b60008060408385031215613cf757613cf6614779565b5b6000613d0585828601613989565b9250506020613d168582860161389a565b9150509250929050565b600080600060608486031215613d3957613d38614779565b5b6000613d4786828701613989565b9350506020613d588682870161389a565b9250506040613d698682870161389a565b9150509250925092565b60008060008060808587031215613d8d57613d8c614779565b5b6000613d9b87828801613989565b9450506020613dac8782880161389a565b9350506040613dbd8782880161389a565b9250506060613dce87828801613b44565b91505092959194509250565b600080600080600060a08688031215613df657613df5614779565b5b6000613e0488828901613989565b9550506020613e158882890161389a565b9450506040613e268882890161389a565b9350506060613e3788828901613b44565b9250506080613e4888828901613b44565b9150509295509295909350565b600060208284031215613e6b57613e6a614779565b5b6000613e79848285016139b3565b91505092915050565b600060808284031215613e9857613e97614779565b5b6000613ea6848285016139c8565b91505092915050565b600060c08284031215613ec557613ec4614779565b5b6000613ed384828501613a40565b91505092915050565b600060608284031215613ef257613ef1614779565b5b6000613f0084828501613ae0565b91505092915050565b600060208284031215613f1f57613f1e614779565b5b6000613f2d84828501613b44565b91505092915050565b600060208284031215613f4c57613f4b614779565b5b6000613f5a84828501613b59565b91505092915050565b600080600060608486031215613f7c57613f7b614779565b5b6000613f8a86828701613b44565b9350506020613f9b8682870161395f565b9250506040613fac8682870161389a565b9150509250925092565b600060208284031215613fcc57613fcb614779565b5b6000613fda84828501613b83565b91505092915050565b613fec816144ca565b82525050565b613ffb816144dc565b82525050565b600061400c8261421d565b6140168185614228565b93506140268185602086016145cd565b80840191505092915050565b61403b81614585565b82525050565b61404a81614597565b82525050565b600061405d601483614233565b91506140688261479c565b602082019050919050565b61407c8161455a565b82525050565b600061408e8284614001565b915081905092915050565b60006020820190506140ae6000830184613fe3565b92915050565b60006040820190506140c96000830185613fe3565b6140d66020830184613fe3565b9392505050565b60006060820190506140f26000830186613fe3565b6140ff6020830185613fe3565b61410c6040830184614073565b949350505050565b60006020820190506141296000830184613ff2565b92915050565b60006020820190506141446000830184614032565b92915050565b600060208201905061415f6000830184614041565b92915050565b6000602082019050818103600083015261417e81614050565b9050919050565b600060208201905061419a6000830184614073565b92915050565b60006141aa6141bb565b90506141b68282614600565b919050565b6000604051905090565b600067ffffffffffffffff8211156141e0576141df614736565b5b602082029050602081019050919050565b600067ffffffffffffffff82111561420c5761420b614736565b5b602082029050602081019050919050565b600081519050919050565b600081905092915050565b600082825260208201905092915050565b600061424f8261455a565b915061425a8361455a565b9250827fffffffffffffffffffffffffffffffffffffffffffffffffffffffffffffffff0382111561428f5761428e61467a565b5b828201905092915050565b60006142a58261455a565b91506142b08361455a565b9250826142c0576142bf6146a9565b5b828204905092915050565b6000808291508390505b6001851115614315578086048111156142f1576142f061467a565b5b60018516156143005780820291505b808102905061430e8561478f565b94506142d5565b94509492505050565b60006143298261455a565b91506143348361455a565b92506143617fffffffffffffffffffffffffffffffffffffffffffffffffffffffffffffffff8484614369565b905092915050565b6000826143795760019050614435565b816143875760009050614435565b816001811461439d57600281146143a7576143d6565b6001915050614435565b60ff8411156143b9576143b861467a565b5b8360020a9150848211156143d0576143cf61467a565b5b50614435565b5060208310610133831016604e8410600b841016171561440b5782820a9050838111156144065761440561467a565b5b614435565b61441884848460016142cb565b9250905081840481111561442f5761442e61467a565b5b81810290505b9392505050565b60006144478261455a565b91506144528361455a565b9250817fffffffffffffffffffffffffffffffffffffffffffffffffffffffffffffffff048311821515161561448b5761448a61467a565b5b828202905092915050565b60006144a18261455a565b91506144ac8361455a565b9250828210156144bf576144be61467a565b5b828203905092915050565b60006144d58261453a565b9050919050565b60008115159050919050565b60006144f3826144ca565b9050919050565b6000614505826144ca565b9050919050565b6000614517826144ca565b9050919050565b6000614529826144ca565b9050919050565b6000819050919050565b600073ffffffffffffffffffffffffffffffffffffffff82169050919050565b6000819050919050565b600067ffffffffffffffff82169050919050565b600060ff82169050919050565b6000614590826145a9565b9050919050565b60006145a2826145a9565b9050919050565b60006145b4826145bb565b9050919050565b60006145c68261453a565b9050919050565b60005b838110156145eb5780820151818401526020810190506145d0565b838111156145fa576000848401525b50505050565b6146098261477e565b810181811067ffffffffffffffff8211171561462857614627614736565b5b80604052505050565b600061463c8261455a565b91507fffffffffffffffffffffffffffffffffffffffffffffffffffffffffffffffff82141561466f5761466e61467a565b5b600182019050919050565b7f4e487b7100000000000000000000000000000000000000000000000000000000600052601160045260246000fd5b7f4e487b7100000000000000000000000000000000000000000000000000000000600052601260045260246000fd5b7f4e487b7100000000000000000000000000000000000000000000000000000000600052602160045260246000fd5b7f4e487b7100000000000000000000000000000000000000000000000000000000600052603260045260246000fd5b7f4e487b7100000000000000000000000000000000000000000000000000000000600052604160045260246000fd5b600080fd5b600080fd5b600080fd5b600080fd5b600080fd5b6000601f19601f8301169050919050565b60008160011c9050919050565b7f556e737570706f727465644c5456547970652829000000000000000000000000600082015250565b6147ce816144ca565b81146147d957600080fd5b50565b6147e5816144dc565b81146147f057600080fd5b50565b6147fc816144e8565b811461480757600080fd5b50565b614813816144fa565b811461481e57600080fd5b50565b61482a8161450c565b811461483557600080fd5b50565b6148418161451e565b811461484c57600080fd5b50565b6003811061485c57600080fd5b50565b61486881614530565b811461487357600080fd5b50565b61487f8161455a565b811461488a57600080fd5b50565b61489681614564565b81146148a157600080fd5b50565b6148ad81614578565b81146148b857600080fd5b5056fea2646970667358221220c8f2629d448c4d936f8cd39071ce758911eee7d4af0b1adad19948f2e570297e64736f6c63430008070033",
  "linkReferences": {},
  "deployedLinkReferences": {}
}