{
  "_format": "hh-sol-artifact-1",
  "contractName": "SiloLens",
  "sourceName": "contracts/SiloLens.sol",
  "abi": [
    {
      "inputs": [
        {
          "internalType": "uint256",
          "name": "_assetTotalDeposits",
          "type": "uint256"
        },
        {
          "internalType": "contract IShareToken",
          "name": "_shareToken",
          "type": "address"
        },
        {
          "internalType": "address",
          "name": "_user",
          "type": "address"
        }
      ],
      "name": "balanceOfUnderlying",
      "outputs": [
        {
          "internalType": "uint256",
          "name": "",
          "type": "uint256"
        }
      ],
      "stateMutability": "view",
      "type": "function"
    },
    {
      "inputs": [
        {
          "internalType": "contract ISilo",
          "name": "_silo",
          "type": "address"
        },
        {
          "internalType": "address",
          "name": "_asset",
          "type": "address"
        },
        {
          "internalType": "address",
          "name": "_user",
          "type": "address"
        }
      ],
      "name": "borrowShare",
      "outputs": [
        {
          "internalType": "uint256",
          "name": "",
          "type": "uint256"
        }
      ],
      "stateMutability": "view",
      "type": "function"
    },
    {
      "inputs": [
        {
          "internalType": "contract ISilo",
          "name": "_silo",
          "type": "address"
        },
        {
          "internalType": "address",
          "name": "_asset",
          "type": "address"
        },
        {
          "internalType": "address",
          "name": "_user",
          "type": "address"
        }
      ],
      "name": "collateralBalanceOfUnderlying",
      "outputs": [
        {
          "internalType": "uint256",
          "name": "",
          "type": "uint256"
        }
      ],
      "stateMutability": "view",
      "type": "function"
    },
    {
      "inputs": [
        {
          "internalType": "contract ISilo",
          "name": "_silo",
          "type": "address"
        },
        {
          "internalType": "address",
          "name": "_asset",
          "type": "address"
        }
      ],
      "name": "collateralOnlyDeposits",
      "outputs": [
        {
          "internalType": "uint256",
          "name": "",
          "type": "uint256"
        }
      ],
      "stateMutability": "view",
      "type": "function"
    },
    {
      "inputs": [
        {
          "internalType": "contract ISilo",
          "name": "_silo",
          "type": "address"
        },
        {
          "internalType": "address",
          "name": "_asset",
          "type": "address"
        },
        {
          "internalType": "address",
          "name": "_user",
          "type": "address"
        }
      ],
      "name": "debtBalanceOfUnderlying",
      "outputs": [
        {
          "internalType": "uint256",
          "name": "",
          "type": "uint256"
        }
      ],
      "stateMutability": "view",
      "type": "function"
    },
    {
      "inputs": [
        {
          "internalType": "contract ISilo",
          "name": "_silo",
          "type": "address"
        },
        {
          "internalType": "address",
          "name": "_user",
          "type": "address"
        }
      ],
      "name": "getUserLiquidationThreshold",
      "outputs": [
        {
          "internalType": "uint256",
          "name": "",
          "type": "uint256"
        }
      ],
      "stateMutability": "view",
      "type": "function"
    },
    {
      "inputs": [
        {
          "internalType": "contract ISilo",
          "name": "_silo",
          "type": "address"
        },
        {
          "internalType": "address",
          "name": "_user",
          "type": "address"
        }
      ],
      "name": "getUserMaximumLTV",
      "outputs": [
        {
          "internalType": "uint256",
          "name": "",
          "type": "uint256"
        }
      ],
      "stateMutability": "view",
      "type": "function"
    },
    {
      "inputs": [
        {
          "internalType": "contract ISilo",
          "name": "_silo",
          "type": "address"
        },
        {
          "internalType": "address",
          "name": "_user",
          "type": "address"
        }
      ],
      "name": "inDebt",
      "outputs": [
        {
          "internalType": "bool",
          "name": "",
          "type": "bool"
        }
      ],
      "stateMutability": "view",
      "type": "function"
    },
    {
      "inputs": [
        {
          "internalType": "contract ISilo",
          "name": "_silo",
          "type": "address"
        },
        {
          "internalType": "address",
          "name": "_asset",
          "type": "address"
        }
      ],
      "name": "protocolFees",
      "outputs": [
        {
          "internalType": "uint256",
          "name": "",
          "type": "uint256"
        }
      ],
      "stateMutability": "view",
      "type": "function"
    },
    {
      "inputs": [
        {
          "internalType": "contract ISilo",
          "name": "_silo",
          "type": "address"
        },
        {
          "internalType": "address",
          "name": "_asset",
          "type": "address"
        }
      ],
      "name": "totalBorrowAmount",
      "outputs": [
        {
          "internalType": "uint256",
          "name": "",
          "type": "uint256"
        }
      ],
      "stateMutability": "view",
      "type": "function"
    },
    {
      "inputs": [
        {
          "internalType": "contract ISilo",
          "name": "_silo",
          "type": "address"
        },
        {
          "internalType": "address",
          "name": "_asset",
          "type": "address"
        }
      ],
      "name": "totalBorrowShare",
      "outputs": [
        {
          "internalType": "uint256",
          "name": "",
          "type": "uint256"
        }
      ],
      "stateMutability": "view",
      "type": "function"
    },
    {
      "inputs": [
        {
          "internalType": "contract ISilo",
          "name": "_silo",
          "type": "address"
        },
        {
          "internalType": "address",
          "name": "_asset",
          "type": "address"
        }
      ],
      "name": "totalDeposits",
      "outputs": [
        {
          "internalType": "uint256",
          "name": "",
          "type": "uint256"
        }
      ],
      "stateMutability": "view",
      "type": "function"
    }
  ],
  "bytecode": "0x608060405234801561001057600080fd5b506115a3806100206000396000f3fe608060405234801561001057600080fd5b50600436106100b45760003560e01c806387f041401161007157806387f04140146101d957806388a9af4014610209578063af82d2bc14610239578063b003ec1414610269578063c719a39614610299578063c8de8451146102c9576100b4565b806302f417d3146100b9578063153ef040146100e957806375f746c91461011957806379a5e1061461014957806382656b50146101795780638705c359146101a9575b600080fd5b6100d360048036038101906100ce9190611102565b6102f9565b6040516100e091906111e1565b60405180910390f35b61010360048036038101906100fe9190611014565b610423565b60405161011091906111e1565b60405180910390f35b610133600480360381019061012e9190611014565b6104bb565b60405161014091906111e1565b60405180910390f35b610163600480360381019061015e9190611014565b610553565b60405161017091906111e1565b60405180910390f35b610193600480360381019061018e9190611054565b6105eb565b6040516101a091906111e1565b60405180910390f35b6101c360048036038101906101be9190611014565b61070c565b6040516101d091906111c6565b60405180910390f35b6101f360048036038101906101ee9190611014565b610902565b60405161020091906111e1565b60405180910390f35b610223600480360381019061021e9190611014565b61099a565b60405161023091906111e1565b60405180910390f35b610253600480360381019061024e9190611054565b610a30565b60405161026091906111e1565b60405180910390f35b610283600480360381019061027e9190611054565b610adc565b60405161029091906111e1565b60405180910390f35b6102b360048036038101906102ae9190611014565b610ba5565b6040516102c091906111e1565b60405180910390f35b6102e360048036038101906102de9190611014565b610c3b565b6040516102f091906111e1565b60405180910390f35b6000808373ffffffffffffffffffffffffffffffffffffffff166370a08231846040518263ffffffff1660e01b81526004016103359190611182565b60206040518083038186803b15801561034d57600080fd5b505afa158015610361573d6000803e3d6000fd5b505050506040513d601f19601f8201168201806040525081019061038591906110d5565b9050610419858573ffffffffffffffffffffffffffffffffffffffff166318160ddd6040518163ffffffff1660e01b815260040160206040518083038186803b1580156103d157600080fd5b505afa1580156103e5573d6000803e3d6000fd5b505050506040513d601f19601f8201168201806040525081019061040991906110d5565b83610d509092919063ffffffff16565b9150509392505050565b60008273ffffffffffffffffffffffffffffffffffffffff1663bf273041836040518263ffffffff1660e01b815260040161045e9190611182565b6101406040518083038186803b15801561047757600080fd5b505afa15801561048b573d6000803e3d6000fd5b505050506040513d601f19601f820116820180604052508101906104af91906110a7565b60800151905092915050565b60008273ffffffffffffffffffffffffffffffffffffffff1663bf273041836040518263ffffffff1660e01b81526004016104f69190611182565b6101406040518083038186803b15801561050f57600080fd5b505afa158015610523573d6000803e3d6000fd5b505050506040513d601f19601f8201168201806040525081019061054791906110a7565b60600151905092915050565b60008273ffffffffffffffffffffffffffffffffffffffff1663bf273041836040518263ffffffff1660e01b815260040161058e9190611182565b6101406040518083038186803b1580156105a757600080fd5b505afa1580156105bb573d6000803e3d6000fd5b505050506040513d601f19601f820116820180604052508101906105df91906110a7565b60e00151905092915050565b60008373ffffffffffffffffffffffffffffffffffffffff1663bf273041846040518263ffffffff1660e01b81526004016106269190611182565b6101406040518083038186803b15801561063f57600080fd5b505afa158015610653573d6000803e3d6000fd5b505050506040513d601f19601f8201168201806040525081019061067791906110a7565b6040015173ffffffffffffffffffffffffffffffffffffffff166370a08231836040518263ffffffff1660e01b81526004016106b39190611182565b60206040518083038186803b1580156106cb57600080fd5b505afa1580156106df573d6000803e3d6000fd5b505050506040513d601f19601f8201168201806040525081019061070391906110d5565b90509392505050565b6000808373ffffffffffffffffffffffffffffffffffffffff166367e4ac2c6040518163ffffffff1660e01b815260040160006040518083038186803b15801561075557600080fd5b505afa158015610769573d6000803e3d6000fd5b505050506040513d6000823e3d601f19601f820116820180604052508101906107929190610fcb565b905060005b81518110156108f55760008573ffffffffffffffffffffffffffffffffffffffff1663bf2730418484815181106107d1576107d0611472565b5b60200260200101516040518263ffffffff1660e01b81526004016107f59190611182565b6101406040518083038186803b15801561080e57600080fd5b505afa158015610822573d6000803e3d6000fd5b505050506040513d601f19601f8201168201806040525081019061084691906110a7565b6040015173ffffffffffffffffffffffffffffffffffffffff166370a08231866040518263ffffffff1660e01b81526004016108829190611182565b60206040518083038186803b15801561089a57600080fd5b505afa1580156108ae573d6000803e3d6000fd5b505050506040513d601f19601f820116820180604052508101906108d291906110d5565b146108e2576001925050506108fc565b80806108ed906113cb565b915050610797565b5060009150505b92915050565b60008273ffffffffffffffffffffffffffffffffffffffff1663bf273041836040518263ffffffff1660e01b815260040161093d9190611182565b6101406040518083038186803b15801561095657600080fd5b505afa15801561096a573d6000803e3d6000fd5b505050506040513d601f19601f8201168201806040525081019061098e91906110a7565b60a00151905092915050565b60008273ffffffffffffffffffffffffffffffffffffffff16637f2915398360006040518363ffffffff1660e01b81526004016109d892919061119d565b60206040518083038186803b1580156109f057600080fd5b505afa158015610a04573d6000803e3d6000fd5b505050506040513d601f19601f82011682018060405250810190610a2891906110d5565b905092915050565b6000808473ffffffffffffffffffffffffffffffffffffffff1663bf273041856040518263ffffffff1660e01b8152600401610a6c9190611182565b6101406040518083038186803b158015610a8557600080fd5b505afa158015610a99573d6000803e3d6000fd5b505050506040513d601f19601f82011682018060405250810190610abd91906110a7565b9050610ad28160a001518260400151856102f9565b9150509392505050565b6000808473ffffffffffffffffffffffffffffffffffffffff1663bf273041856040518263ffffffff1660e01b8152600401610b189190611182565b6101406040518083038186803b158015610b3157600080fd5b505afa158015610b45573d6000803e3d6000fd5b505050506040513d601f19601f82011682018060405250810190610b6991906110a7565b9050610b7e81608001518260200151856102f9565b610b9182606001518360000151866102f9565b610b9b919061124d565b9150509392505050565b60008273ffffffffffffffffffffffffffffffffffffffff16637f2915398360016040518363ffffffff1660e01b8152600401610be392919061119d565b60206040518083038186803b158015610bfb57600080fd5b505afa158015610c0f573d6000803e3d6000fd5b505050506040513d601f19601f82011682018060405250810190610c3391906110d5565b905092915050565b60008273ffffffffffffffffffffffffffffffffffffffff1663bf273041836040518263ffffffff1660e01b8152600401610c769190611182565b6101406040518083038186803b158015610c8f57600080fd5b505afa158015610ca3573d6000803e3d6000fd5b505050506040513d601f19601f82011682018060405250810190610cc791906110a7565b6040015173ffffffffffffffffffffffffffffffffffffffff166318160ddd6040518163ffffffff1660e01b815260040160206040518083038186803b158015610d1057600080fd5b505afa158015610d24573d6000803e3d6000fd5b505050506040513d601f19601f82011682018060405250810190610d4891906110d5565b905092915050565b600080821480610d605750600083145b15610d6e5760009050610d88565b818385610d7b91906112d4565b610d8591906112a3565b90505b9392505050565b6000610da2610d9d84611221565b6111fc565b90508083825260208201905082856020860282011115610dc557610dc46114da565b5b60005b85811015610df55781610ddb8882610e14565b845260208401935060208301925050600181019050610dc8565b5050509392505050565b600081359050610e0e816114fa565b92915050565b600081519050610e23816114fa565b92915050565b600082601f830112610e3e57610e3d6114d0565b5b8151610e4e848260208601610d8f565b91505092915050565b600081519050610e6681611511565b92915050565b600081359050610e7b81611528565b92915050565b600081519050610e9081611528565b92915050565b600081359050610ea58161153f565b92915050565b60006101408284031215610ec257610ec16114d5565b5b610ecd6101406111fc565b90506000610edd84828501610e81565b6000830152506020610ef184828501610e81565b6020830152506040610f0584828501610e81565b6040830152506060610f1984828501610fb6565b6060830152506080610f2d84828501610fb6565b60808301525060a0610f4184828501610fb6565b60a08301525060c0610f5584828501610fb6565b60c08301525060e0610f6984828501610fb6565b60e083015250610100610f7e84828501610fb6565b61010083015250610120610f9484828501610e57565b6101208301525092915050565b600081359050610fb081611556565b92915050565b600081519050610fc581611556565b92915050565b600060208284031215610fe157610fe06114e4565b5b600082015167ffffffffffffffff811115610fff57610ffe6114df565b5b61100b84828501610e29565b91505092915050565b6000806040838503121561102b5761102a6114e4565b5b600061103985828601610e96565b925050602061104a85828601610dff565b9150509250929050565b60008060006060848603121561106d5761106c6114e4565b5b600061107b86828701610e96565b935050602061108c86828701610dff565b925050604061109d86828701610dff565b9150509250925092565b600061014082840312156110be576110bd6114e4565b5b60006110cc84828501610eab565b91505092915050565b6000602082840312156110eb576110ea6114e4565b5b60006110f984828501610fb6565b91505092915050565b60008060006060848603121561111b5761111a6114e4565b5b600061112986828701610fa1565b935050602061113a86828701610e6c565b925050604061114b86828701610dff565b9150509250925092565b61115e8161132e565b82525050565b61116d81611340565b82525050565b61117c81611390565b82525050565b60006020820190506111976000830184611155565b92915050565b60006040820190506111b26000830185611155565b6111bf6020830184611164565b9392505050565b60006020820190506111db6000830184611164565b92915050565b60006020820190506111f66000830184611173565b92915050565b6000611206611217565b9050611212828261139a565b919050565b6000604051905090565b600067ffffffffffffffff82111561123c5761123b6114a1565b5b602082029050602081019050919050565b600061125882611390565b915061126383611390565b9250827fffffffffffffffffffffffffffffffffffffffffffffffffffffffffffffffff0382111561129857611297611414565b5b828201905092915050565b60006112ae82611390565b91506112b983611390565b9250826112c9576112c8611443565b5b828204905092915050565b60006112df82611390565b91506112ea83611390565b9250817fffffffffffffffffffffffffffffffffffffffffffffffffffffffffffffffff048311821515161561132357611322611414565b5b828202905092915050565b600061133982611370565b9050919050565b60008115159050919050565b60006113578261132e565b9050919050565b60006113698261132e565b9050919050565b600073ffffffffffffffffffffffffffffffffffffffff82169050919050565b6000819050919050565b6113a3826114e9565b810181811067ffffffffffffffff821117156113c2576113c16114a1565b5b80604052505050565b60006113d682611390565b91507fffffffffffffffffffffffffffffffffffffffffffffffffffffffffffffffff82141561140957611408611414565b5b600182019050919050565b7f4e487b7100000000000000000000000000000000000000000000000000000000600052601160045260246000fd5b7f4e487b7100000000000000000000000000000000000000000000000000000000600052601260045260246000fd5b7f4e487b7100000000000000000000000000000000000000000000000000000000600052603260045260246000fd5b7f4e487b7100000000000000000000000000000000000000000000000000000000600052604160045260246000fd5b600080fd5b600080fd5b600080fd5b600080fd5b600080fd5b6000601f19601f8301169050919050565b6115038161132e565b811461150e57600080fd5b50565b61151a81611340565b811461152557600080fd5b50565b6115318161134c565b811461153c57600080fd5b50565b6115488161135e565b811461155357600080fd5b50565b61155f81611390565b811461156a57600080fd5b5056fea26469706673582212202719ab9ad69df02bfe4b71a8401f7ccc1364df949a39c0272805838a90d5d4c164736f6c63430008070033",
  "linkReferences": {},
  "deployedLinkReferences": {}
}