{
  "_format": "hh-sol-artifact-1",
  "contractName": "UniswapV3Swap",
  "sourceName": "contracts/liquidation/UniswapV3Swap.sol",
  "abi": [
    {
      "inputs": [
        {
          "internalType": "address",
          "name": "_router",
          "type": "address"
        }
      ],
      "stateMutability": "nonpayable",
      "type": "constructor"
    },
    {
      "inputs": [],
      "name": "ASSETS_FEES_SELECTOR",
      "outputs": [
        {
          "internalType": "bytes4",
          "name": "",
          "type": "bytes4"
        }
      ],
      "stateMutability": "view",
      "type": "function"
    },
    {
      "inputs": [
        {
          "internalType": "address[]",
          "name": "path",
          "type": "address[]"
        },
        {
          "internalType": "uint24[]",
          "name": "fees",
          "type": "uint24[]"
        }
      ],
      "name": "pathToBytes",
      "outputs": [
        {
          "internalType": "bytes",
          "name": "bytesPath",
          "type": "bytes"
        }
      ],
      "stateMutability": "pure",
      "type": "function"
    },
    {
      "inputs": [
        {
          "internalType": "address",
          "name": "_oracle",
          "type": "address"
        },
        {
          "internalType": "address",
          "name": "_asset",
          "type": "address"
        }
      ],
      "name": "resolveFee",
      "outputs": [
        {
          "internalType": "uint24",
          "name": "fee",
          "type": "uint24"
        }
      ],
      "stateMutability": "view",
      "type": "function"
    },
    {
      "inputs": [],
      "name": "router",
      "outputs": [
        {
          "internalType": "contract ISwapRouter",
          "name": "",
          "type": "address"
        }
      ],
      "stateMutability": "view",
      "type": "function"
    },
    {
      "inputs": [],
      "name": "spenderToApprove",
      "outputs": [
        {
          "internalType": "address",
          "name": "",
          "type": "address"
        }
      ],
      "stateMutability": "view",
      "type": "function"
    },
    {
      "inputs": [
        {
          "internalType": "address",
          "name": "_tokenIn",
          "type": "address"
        },
        {
          "internalType": "address",
          "name": "_tokenOut",
          "type": "address"
        },
        {
          "internalType": "uint256",
          "name": "_amount",
          "type": "uint256"
        },
        {
          "internalType": "address",
          "name": "_siloOracle",
          "type": "address"
        },
        {
          "internalType": "address",
          "name": "_siloAsset",
          "type": "address"
        }
      ],
      "name": "swapAmountIn",
      "outputs": [
        {
          "internalType": "uint256",
          "name": "amountOut",
          "type": "uint256"
        }
      ],
      "stateMutability": "nonpayable",
      "type": "function"
    },
    {
      "inputs": [
        {
          "internalType": "address",
          "name": "_tokenIn",
          "type": "address"
        },
        {
          "internalType": "address",
          "name": "_tokenOut",
          "type": "address"
        },
        {
          "internalType": "uint256",
          "name": "_amountOut",
          "type": "uint256"
        },
        {
          "internalType": "address",
          "name": "_siloOracle",
          "type": "address"
        },
        {
          "internalType": "address",
          "name": "_siloAsset",
          "type": "address"
        }
      ],
      "name": "swapAmountOut",
      "outputs": [
        {
          "internalType": "uint256",
          "name": "amountIn",
          "type": "uint256"
        }
      ],
      "stateMutability": "nonpayable",
      "type": "function"
    }
  ],
  "bytecode": "0x60a06040523480156200001157600080fd5b50604051620013783803806200137883398181016040528101906200003791906200008c565b8073ffffffffffffffffffffffffffffffffffffffff1660808173ffffffffffffffffffffffffffffffffffffffff1660601b815250505062000111565b6000815190506200008681620000f7565b92915050565b600060208284031215620000a557620000a4620000f2565b5b6000620000b58482850162000075565b91505092915050565b6000620000cb82620000d2565b9050919050565b600073ffffffffffffffffffffffffffffffffffffffff82169050919050565b600080fd5b6200010281620000be565b81146200010e57600080fd5b50565b60805160601c611233620001456000396000818161041a0152818161044001528181610545015261069901526112336000f3fe608060405234801561001057600080fd5b506004361061007d5760003560e01c80639cffaf6f1161005b5780639cffaf6f14610112578063db36eb2e14610142578063f887ea4014610160578063fc32922f1461017e5761007d565b8063168c66b41461008257806351f00308146100b25780639b562f38146100e2575b600080fd5b61009c60048036038101906100979190610932565b61019c565b6040516100a99190610e63565b60405180910390f35b6100cc60048036038101906100c791906109ad565b6101c3565b6040516100d99190610db3565b60405180910390f35b6100fc60048036038101906100f791906108f2565b61028f565b6040516101099190610e48565b60405180910390f35b61012c60048036038101906101279190610932565b6103ef565b6040516101399190610e63565b60405180910390f35b61014a610416565b6040516101579190610d7d565b60405180910390f35b61016861043e565b6040516101759190610dd5565b60405180910390f35b610186610462565b6040516101939190610d98565b60405180910390f35b6000806101a9848461028f565b90506101b787878784610486565b91505095945050505050565b606060005b8351811015610288578251811461023657818482815181106101ed576101ec6110f2565b5b6020026020010151848381518110610208576102076110f2565b5b602002602001015160405160200161022293929190610d44565b604051602081830303815290604052610273565b8184828151811061024a576102496110f2565b5b6020026020010151604051602001610263929190610d1c565b6040516020818303038152906040525b9150808061028090611044565b9150506101c8565b5092915050565b6000807f10f2a5091c0d87d755d0d7447d50bfb9ff0d95b3bfa45605046a581667ba9c7d836040516024016102c49190610d7d565b604051602081830303815290604052907bffffffffffffffffffffffffffffffffffffffffffffffffffffffff19166020820180517bffffffffffffffffffffffffffffffffffffffffffffffffffffffff838183161783525050505090506000808573ffffffffffffffffffffffffffffffffffffffff168360405161034b9190610d05565b600060405180830381855afa9150503d8060008114610386576040519150601f19603f3d011682016040523d82523d6000602084013e61038b565b606091505b5091509150816103d0576040517f08c379a00000000000000000000000000000000000000000000000000000000081526004016103c790610df0565b60405180910390fd5b808060200190518101906103e49190610a25565b935050505092915050565b6000806103fc848461028f565b905061040a878787846105f9565b91505095945050505050565b60007f0000000000000000000000000000000000000000000000000000000000000000905090565b7f000000000000000000000000000000000000000000000000000000000000000081565b7f10f2a5091c0d87d755d0d7447d50bfb9ff0d95b3bfa45605046a581667ba9c7d81565b6000806040518061010001604052808773ffffffffffffffffffffffffffffffffffffffff1681526020018673ffffffffffffffffffffffffffffffffffffffff1681526020018462ffffff1681526020013073ffffffffffffffffffffffffffffffffffffffff1681526020014281526020018581526020017fffffffffffffffffffffffffffffffffffffffffffffffffffffffffffffffff8152602001600073ffffffffffffffffffffffffffffffffffffffff1681525090507f000000000000000000000000000000000000000000000000000000000000000073ffffffffffffffffffffffffffffffffffffffff1663db3e2198826040518263ffffffff1660e01b815260040161059c9190610e2c565b602060405180830381600087803b1580156105b657600080fd5b505af11580156105ca573d6000803e3d6000fd5b505050506040513d601f19601f820116820180604052508101906105ee9190610a52565b915050949350505050565b6000806040518061010001604052808773ffffffffffffffffffffffffffffffffffffffff1681526020018673ffffffffffffffffffffffffffffffffffffffff1681526020018462ffffff1681526020013073ffffffffffffffffffffffffffffffffffffffff16815260200142815260200185815260200160018152602001600073ffffffffffffffffffffffffffffffffffffffff1681525090507f000000000000000000000000000000000000000000000000000000000000000073ffffffffffffffffffffffffffffffffffffffff1663414bf389826040518263ffffffff1660e01b81526004016106f09190610e10565b602060405180830381600087803b15801561070a57600080fd5b505af115801561071e573d6000803e3d6000fd5b505050506040513d601f19601f820116820180604052508101906107429190610a52565b915050949350505050565b600061076061075b84610ea3565b610e7e565b9050808382526020820190508285602086028201111561078357610782611155565b5b60005b858110156107b35781610799888261082d565b845260208401935060208301925050600181019050610786565b5050509392505050565b60006107d06107cb84610ecf565b610e7e565b905080838252602082019050828560208602820111156107f3576107f2611155565b5b60005b858110156108235781610809888261089e565b8452602084019350602083019250506001810190506107f6565b5050509392505050565b60008135905061083c816111b8565b92915050565b600082601f83011261085757610856611150565b5b813561086784826020860161074d565b91505092915050565b600082601f83011261088557610884611150565b5b81356108958482602086016107bd565b91505092915050565b6000813590506108ad816111cf565b92915050565b6000815190506108c2816111cf565b92915050565b6000813590506108d7816111e6565b92915050565b6000815190506108ec816111e6565b92915050565b600080604083850312156109095761090861115f565b5b60006109178582860161082d565b92505060206109288582860161082d565b9150509250929050565b600080600080600060a0868803121561094e5761094d61115f565b5b600061095c8882890161082d565b955050602061096d8882890161082d565b945050604061097e888289016108c8565b935050606061098f8882890161082d565b92505060806109a08882890161082d565b9150509295509295909350565b600080604083850312156109c4576109c361115f565b5b600083013567ffffffffffffffff8111156109e2576109e161115a565b5b6109ee85828601610842565b925050602083013567ffffffffffffffff811115610a0f57610a0e61115a565b5b610a1b85828601610870565b9150509250929050565b600060208284031215610a3b57610a3a61115f565b5b6000610a49848285016108b3565b91505092915050565b600060208284031215610a6857610a6761115f565b5b6000610a76848285016108dd565b91505092915050565b610a8881610f33565b82525050565b610a9781610f33565b82525050565b610aae610aa982610f33565b61108d565b82525050565b610abd81610f45565b82525050565b6000610ace82610efb565b610ad88185610f06565b9350610ae8818560208601610fe0565b610af181611164565b840191505092915050565b6000610b0782610efb565b610b118185610f17565b9350610b21818560208601610fe0565b80840191505092915050565b610b3681610faa565b82525050565b6000610b49601583610f22565b9150610b548261118f565b602082019050919050565b61010082016000820151610b766000850182610a7f565b506020820151610b896020850182610a7f565b506040820151610b9c6040850182610cb2565b506060820151610baf6060850182610a7f565b506080820151610bc26080850182610ce7565b5060a0820151610bd560a0850182610ce7565b5060c0820151610be860c0850182610ce7565b5060e0820151610bfb60e0850182610ca3565b50505050565b61010082016000820151610c186000850182610a7f565b506020820151610c2b6020850182610a7f565b506040820151610c3e6040850182610cb2565b506060820151610c516060850182610a7f565b506080820151610c646080850182610ce7565b5060a0820151610c7760a0850182610ce7565b5060c0820151610c8a60c0850182610ce7565b5060e0820151610c9d60e0850182610ca3565b50505050565b610cac81610f71565b82525050565b610cbb81610f91565b82525050565b610cca81610f91565b82525050565b610ce1610cdc82610f91565b6110b1565b82525050565b610cf081610fa0565b82525050565b610cff81610fa0565b82525050565b6000610d118284610afc565b915081905092915050565b6000610d288285610afc565b9150610d348284610a9d565b6014820191508190509392505050565b6000610d508286610afc565b9150610d5c8285610a9d565b601482019150610d6c8284610cd0565b600382019150819050949350505050565b6000602082019050610d926000830184610a8e565b92915050565b6000602082019050610dad6000830184610ab4565b92915050565b60006020820190508181036000830152610dcd8184610ac3565b905092915050565b6000602082019050610dea6000830184610b2d565b92915050565b60006020820190508181036000830152610e0981610b3c565b9050919050565b600061010082019050610e266000830184610b5f565b92915050565b600061010082019050610e426000830184610c01565b92915050565b6000602082019050610e5d6000830184610cc1565b92915050565b6000602082019050610e786000830184610cf6565b92915050565b6000610e88610e99565b9050610e948282611013565b919050565b6000604051905090565b600067ffffffffffffffff821115610ebe57610ebd611121565b5b602082029050602081019050919050565b600067ffffffffffffffff821115610eea57610ee9611121565b5b602082029050602081019050919050565b600081519050919050565b600082825260208201905092915050565b600081905092915050565b600082825260208201905092915050565b6000610f3e82610f71565b9050919050565b60007fffffffff0000000000000000000000000000000000000000000000000000000082169050919050565b600073ffffffffffffffffffffffffffffffffffffffff82169050919050565b600062ffffff82169050919050565b6000819050919050565b6000610fb582610fbc565b9050919050565b6000610fc782610fce565b9050919050565b6000610fd982610f71565b9050919050565b60005b83811015610ffe578082015181840152602081019050610fe3565b8381111561100d576000848401525b50505050565b61101c82611164565b810181811067ffffffffffffffff8211171561103b5761103a611121565b5b80604052505050565b600061104f82610fa0565b91507fffffffffffffffffffffffffffffffffffffffffffffffffffffffffffffffff821415611082576110816110c3565b5b600182019050919050565b60006110988261109f565b9050919050565b60006110aa82611182565b9050919050565b60006110bc82611175565b9050919050565b7f4e487b7100000000000000000000000000000000000000000000000000000000600052601160045260246000fd5b7f4e487b7100000000000000000000000000000000000000000000000000000000600052603260045260246000fd5b7f4e487b7100000000000000000000000000000000000000000000000000000000600052604160045260246000fd5b600080fd5b600080fd5b600080fd5b600080fd5b6000601f19601f8301169050919050565b60008160e81b9050919050565b60008160601b9050919050565b7f66656520666f72206173736574206e6f74207365740000000000000000000000600082015250565b6111c181610f33565b81146111cc57600080fd5b50565b6111d881610f91565b81146111e357600080fd5b50565b6111ef81610fa0565b81146111fa57600080fd5b5056fea26469706673582212200aee58b6cd727f3dd935b3b9d0d1a2810354520ccd8e416579d9409264cb5e2864736f6c63430008070033",
  "linkReferences": {},
  "deployedLinkReferences": {}
}