{
  "_format": "hh-sol-artifact-1",
  "contractName": "UniswapV3Swap",
  "sourceName": "contracts/liquidation/UniswapV3Swap.sol",
  "abi": [
    {
      "inputs": [
        {
          "internalType": "address",
          "name": "_router",
          "type": "address"
        }
      ],
      "stateMutability": "nonpayable",
      "type": "constructor"
    },
    {
      "inputs": [
        {
          "internalType": "address[]",
          "name": "path",
          "type": "address[]"
        },
        {
          "internalType": "uint24[]",
          "name": "fees",
          "type": "uint24[]"
        }
      ],
      "name": "pathToBytes",
      "outputs": [
        {
          "internalType": "bytes",
          "name": "bytesPath",
          "type": "bytes"
        }
      ],
      "stateMutability": "pure",
      "type": "function"
    },
    {
      "inputs": [
        {
          "internalType": "address",
          "name": "_priceProvider",
          "type": "address"
        },
        {
          "internalType": "address",
          "name": "_asset",
          "type": "address"
        }
      ],
      "name": "resolveFee",
      "outputs": [
        {
          "internalType": "uint24",
          "name": "fee",
          "type": "uint24"
        }
      ],
      "stateMutability": "view",
      "type": "function"
    },
    {
      "inputs": [],
      "name": "router",
      "outputs": [
        {
          "internalType": "contract ISwapRouter",
          "name": "",
          "type": "address"
        }
      ],
      "stateMutability": "view",
      "type": "function"
    },
    {
      "inputs": [],
      "name": "spenderToApprove",
      "outputs": [
        {
          "internalType": "address",
          "name": "",
          "type": "address"
        }
      ],
      "stateMutability": "view",
      "type": "function"
    },
    {
      "inputs": [
        {
          "internalType": "address",
          "name": "_tokenIn",
          "type": "address"
        },
        {
          "internalType": "address",
          "name": "_tokenOut",
          "type": "address"
        },
        {
          "internalType": "uint256",
          "name": "_amount",
          "type": "uint256"
        },
        {
          "internalType": "address",
          "name": "_priceProvider",
          "type": "address"
        },
        {
          "internalType": "address",
          "name": "_siloAsset",
          "type": "address"
        }
      ],
      "name": "swapAmountIn",
      "outputs": [
        {
          "internalType": "uint256",
          "name": "amountOut",
          "type": "uint256"
        }
      ],
      "stateMutability": "nonpayable",
      "type": "function"
    },
    {
      "inputs": [
        {
          "internalType": "address",
          "name": "_tokenIn",
          "type": "address"
        },
        {
          "internalType": "address",
          "name": "_tokenOut",
          "type": "address"
        },
        {
          "internalType": "uint256",
          "name": "_amountOut",
          "type": "uint256"
        },
        {
          "internalType": "address",
          "name": "_priceProvider",
          "type": "address"
        },
        {
          "internalType": "address",
          "name": "_siloAsset",
          "type": "address"
        }
      ],
      "name": "swapAmountOut",
      "outputs": [
        {
          "internalType": "uint256",
          "name": "amountIn",
          "type": "uint256"
        }
      ],
      "stateMutability": "nonpayable",
      "type": "function"
    }
  ],
  "bytecode": "0x60a06040523480156200001157600080fd5b50604051620014a9380380620014a98339818101604052810190620000379190620000ff565b600073ffffffffffffffffffffffffffffffffffffffff168173ffffffffffffffffffffffffffffffffffffffff161415620000aa576040517f08c379a0000000000000000000000000000000000000000000000000000000008152600401620000a19062000158565b60405180910390fd5b8073ffffffffffffffffffffffffffffffffffffffff1660808173ffffffffffffffffffffffffffffffffffffffff1660601b815250505062000207565b600081519050620000f981620001ed565b92915050565b600060208284031215620001185762000117620001bf565b5b60006200012884828501620000e8565b91505092915050565b600062000140600e836200017a565b91506200014d82620001c4565b602082019050919050565b60006020820190508181036000830152620001738162000131565b9050919050565b600082825260208201905092915050565b600062000198826200019f565b9050919050565b600073ffffffffffffffffffffffffffffffffffffffff82169050919050565b600080fd5b7f696e76616c696420726f75746572000000000000000000000000000000000000600082015250565b620001f8816200018b565b81146200020457600080fd5b50565b60805160601c61126e6200023b600039600081816104640152818161048a0152818161056b01526106bf015261126e6000f3fe608060405234801561001057600080fd5b50600436106100625760003560e01c8063168c66b41461006757806351f00308146100975780639b562f38146100c75780639cffaf6f146100f7578063db36eb2e14610127578063f887ea4014610145575b600080fd5b610081600480360381019061007c919061099a565b610163565b60405161008e9190610ea1565b60405180910390f35b6100b160048036038101906100ac9190610a15565b61018a565b6040516100be9190610df1565b60405180910390f35b6100e160048036038101906100dc919061095a565b610256565b6040516100ee9190610e86565b60405180910390f35b610111600480360381019061010c919061099a565b610439565b60405161011e9190610ea1565b60405180910390f35b61012f610460565b60405161013c9190610dd6565b60405180910390f35b61014d610488565b60405161015a9190610e13565b60405180910390f35b6000806101708484610256565b905061017e878787846104ac565b91505095945050505050565b606060005b835181101561024f57825181146101fd57818482815181106101b4576101b3611116565b5b60200260200101518483815181106101cf576101ce611116565b5b60200260200101516040516020016101e993929190610d9d565b60405160208183030381529060405261023a565b8184828151811061021157610210611116565b5b602002602001015160405160200161022a929190610d75565b6040516020818303038152906040525b9150808061024790611068565b91505061018f565b5092915050565b6000807fa4063dbc5901e7d22f9b864716720a52e0dc2c66b300d835490a0c247d17ad418360405160240161028b9190610dd6565b604051602081830303815290604052907bffffffffffffffffffffffffffffffffffffffffffffffffffffffff19166020820180517bffffffffffffffffffffffffffffffffffffffffffffffffffffffff838183161783525050505090506000808573ffffffffffffffffffffffffffffffffffffffff16836040516103129190610d5e565b600060405180830381855afa9150503d806000811461034d576040519150601f19603f3d011682016040523d82523d6000602084013e610352565b606091505b509150915081610397576040517f08c379a000000000000000000000000000000000000000000000000000000000815260040161038e90610e2e565b60405180910390fd5b6000818060200190518101906103ad919061092d565b90508073ffffffffffffffffffffffffffffffffffffffff1663ddca3f436040518163ffffffff1660e01b815260040160206040518083038186803b1580156103f557600080fd5b505afa158015610409573d6000803e3d6000fd5b505050506040513d601f19601f8201168201806040525081019061042d9190610a8d565b94505050505092915050565b6000806104468484610256565b90506104548787878461061f565b91505095945050505050565b60007f0000000000000000000000000000000000000000000000000000000000000000905090565b7f000000000000000000000000000000000000000000000000000000000000000081565b6000806040518061010001604052808773ffffffffffffffffffffffffffffffffffffffff1681526020018673ffffffffffffffffffffffffffffffffffffffff1681526020018462ffffff1681526020013073ffffffffffffffffffffffffffffffffffffffff1681526020014281526020018581526020017fffffffffffffffffffffffffffffffffffffffffffffffffffffffffffffffff8152602001600073ffffffffffffffffffffffffffffffffffffffff1681525090507f000000000000000000000000000000000000000000000000000000000000000073ffffffffffffffffffffffffffffffffffffffff1663db3e2198826040518263ffffffff1660e01b81526004016105c29190610e6a565b602060405180830381600087803b1580156105dc57600080fd5b505af11580156105f0573d6000803e3d6000fd5b505050506040513d601f19601f820116820180604052508101906106149190610aba565b915050949350505050565b6000806040518061010001604052808773ffffffffffffffffffffffffffffffffffffffff1681526020018673ffffffffffffffffffffffffffffffffffffffff1681526020018462ffffff1681526020013073ffffffffffffffffffffffffffffffffffffffff16815260200142815260200185815260200160018152602001600073ffffffffffffffffffffffffffffffffffffffff1681525090507f000000000000000000000000000000000000000000000000000000000000000073ffffffffffffffffffffffffffffffffffffffff1663414bf389826040518263ffffffff1660e01b81526004016107169190610e4e565b602060405180830381600087803b15801561073057600080fd5b505af1158015610744573d6000803e3d6000fd5b505050506040513d601f19601f820116820180604052508101906107689190610aba565b915050949350505050565b600061078661078184610ee1565b610ebc565b905080838252602082019050828560208602820111156107a9576107a8611179565b5b60005b858110156107d957816107bf8882610853565b8452602084019350602083019250506001810190506107ac565b5050509392505050565b60006107f66107f184610f0d565b610ebc565b9050808382526020820190508285602086028201111561081957610818611179565b5b60005b85811015610849578161082f88826108d9565b84526020840193506020830192505060018101905061081c565b5050509392505050565b600081359050610862816111dc565b92915050565b600081519050610877816111f3565b92915050565b600082601f83011261089257610891611174565b5b81356108a2848260208601610773565b91505092915050565b600082601f8301126108c0576108bf611174565b5b81356108d08482602086016107e3565b91505092915050565b6000813590506108e88161120a565b92915050565b6000815190506108fd8161120a565b92915050565b60008135905061091281611221565b92915050565b60008151905061092781611221565b92915050565b60006020828403121561094357610942611183565b5b600061095184828501610868565b91505092915050565b6000806040838503121561097157610970611183565b5b600061097f85828601610853565b925050602061099085828601610853565b9150509250929050565b600080600080600060a086880312156109b6576109b5611183565b5b60006109c488828901610853565b95505060206109d588828901610853565b94505060406109e688828901610903565b93505060606109f788828901610853565b9250506080610a0888828901610853565b9150509295509295909350565b60008060408385031215610a2c57610a2b611183565b5b600083013567ffffffffffffffff811115610a4a57610a4961117e565b5b610a568582860161087d565b925050602083013567ffffffffffffffff811115610a7757610a7661117e565b5b610a83858286016108ab565b9150509250929050565b600060208284031215610aa357610aa2611183565b5b6000610ab1848285016108ee565b91505092915050565b600060208284031215610ad057610acf611183565b5b6000610ade84828501610918565b91505092915050565b610af081610f71565b82525050565b610aff81610f71565b82525050565b610b16610b1182610f71565b6110b1565b82525050565b6000610b2782610f39565b610b318185610f44565b9350610b41818560208601611004565b610b4a81611188565b840191505092915050565b6000610b6082610f39565b610b6a8185610f55565b9350610b7a818560208601611004565b80840191505092915050565b610b8f81610fce565b82525050565b6000610ba2601683610f60565b9150610bad826111b3565b602082019050919050565b61010082016000820151610bcf6000850182610ae7565b506020820151610be26020850182610ae7565b506040820151610bf56040850182610d0b565b506060820151610c086060850182610ae7565b506080820151610c1b6080850182610d40565b5060a0820151610c2e60a0850182610d40565b5060c0820151610c4160c0850182610d40565b5060e0820151610c5460e0850182610cfc565b50505050565b61010082016000820151610c716000850182610ae7565b506020820151610c846020850182610ae7565b506040820151610c976040850182610d0b565b506060820151610caa6060850182610ae7565b506080820151610cbd6080850182610d40565b5060a0820151610cd060a0850182610d40565b5060c0820151610ce360c0850182610d40565b5060e0820151610cf660e0850182610cfc565b50505050565b610d0581610f95565b82525050565b610d1481610fb5565b82525050565b610d2381610fb5565b82525050565b610d3a610d3582610fb5565b6110d5565b82525050565b610d4981610fc4565b82525050565b610d5881610fc4565b82525050565b6000610d6a8284610b55565b915081905092915050565b6000610d818285610b55565b9150610d8d8284610b05565b6014820191508190509392505050565b6000610da98286610b55565b9150610db58285610b05565b601482019150610dc58284610d29565b600382019150819050949350505050565b6000602082019050610deb6000830184610af6565b92915050565b60006020820190508181036000830152610e0b8184610b1c565b905092915050565b6000602082019050610e286000830184610b86565b92915050565b60006020820190508181036000830152610e4781610b95565b9050919050565b600061010082019050610e646000830184610bb8565b92915050565b600061010082019050610e806000830184610c5a565b92915050565b6000602082019050610e9b6000830184610d1a565b92915050565b6000602082019050610eb66000830184610d4f565b92915050565b6000610ec6610ed7565b9050610ed28282611037565b919050565b6000604051905090565b600067ffffffffffffffff821115610efc57610efb611145565b5b602082029050602081019050919050565b600067ffffffffffffffff821115610f2857610f27611145565b5b602082029050602081019050919050565b600081519050919050565b600082825260208201905092915050565b600081905092915050565b600082825260208201905092915050565b6000610f7c82610f95565b9050919050565b6000610f8e82610f95565b9050919050565b600073ffffffffffffffffffffffffffffffffffffffff82169050919050565b600062ffffff82169050919050565b6000819050919050565b6000610fd982610fe0565b9050919050565b6000610feb82610ff2565b9050919050565b6000610ffd82610f95565b9050919050565b60005b83811015611022578082015181840152602081019050611007565b83811115611031576000848401525b50505050565b61104082611188565b810181811067ffffffffffffffff8211171561105f5761105e611145565b5b80604052505050565b600061107382610fc4565b91507fffffffffffffffffffffffffffffffffffffffffffffffffffffffffffffffff8214156110a6576110a56110e7565b5b600182019050919050565b60006110bc826110c3565b9050919050565b60006110ce826111a6565b9050919050565b60006110e082611199565b9050919050565b7f4e487b7100000000000000000000000000000000000000000000000000000000600052601160045260246000fd5b7f4e487b7100000000000000000000000000000000000000000000000000000000600052603260045260246000fd5b7f4e487b7100000000000000000000000000000000000000000000000000000000600052604160045260246000fd5b600080fd5b600080fd5b600080fd5b600080fd5b6000601f19601f8301169050919050565b60008160e81b9050919050565b60008160601b9050919050565b7f706f6f6c20666f72206173736574206e6f742073657400000000000000000000600082015250565b6111e581610f71565b81146111f057600080fd5b50565b6111fc81610f83565b811461120757600080fd5b50565b61121381610fb5565b811461121e57600080fd5b50565b61122a81610fc4565b811461123557600080fd5b5056fea2646970667358221220793f7119ff671ecac0c250a1f59547e97fc9440ce5ab0a997cf3c617308cfba464736f6c63430008070033",
  "linkReferences": {},
  "deployedLinkReferences": {}
}