{
  "address": "0xd99b81599d2A8A586f6CB18CFE87eBEB1A180014",
  "abi": [
    {
      "inputs": [
        {
          "components": [
            {
              "internalType": "int256",
              "name": "uopt",
              "type": "int256"
            },
            {
              "internalType": "int256",
              "name": "ucrit",
              "type": "int256"
            },
            {
              "internalType": "int256",
              "name": "ulow",
              "type": "int256"
            },
            {
              "internalType": "int256",
              "name": "ki",
              "type": "int256"
            },
            {
              "internalType": "int256",
              "name": "kcrit",
              "type": "int256"
            },
            {
              "internalType": "int256",
              "name": "klow",
              "type": "int256"
            },
            {
              "internalType": "int256",
              "name": "klin",
              "type": "int256"
            },
            {
              "internalType": "int256",
              "name": "beta",
              "type": "int256"
            },
            {
              "internalType": "int256",
              "name": "ri",
              "type": "int256"
            },
            {
              "internalType": "int256",
              "name": "Tcrit",
              "type": "int256"
            }
          ],
          "internalType": "struct IInterestRateModel.Config",
          "name": "_config",
          "type": "tuple"
        }
      ],
      "stateMutability": "nonpayable",
      "type": "constructor"
    },
    {
      "anonymous": false,
      "inputs": [
        {
          "indexed": true,
          "internalType": "address",
          "name": "silo",
          "type": "address"
        },
        {
          "indexed": true,
          "internalType": "address",
          "name": "asset",
          "type": "address"
        },
        {
          "components": [
            {
              "internalType": "int256",
              "name": "uopt",
              "type": "int256"
            },
            {
              "internalType": "int256",
              "name": "ucrit",
              "type": "int256"
            },
            {
              "internalType": "int256",
              "name": "ulow",
              "type": "int256"
            },
            {
              "internalType": "int256",
              "name": "ki",
              "type": "int256"
            },
            {
              "internalType": "int256",
              "name": "kcrit",
              "type": "int256"
            },
            {
              "internalType": "int256",
              "name": "klow",
              "type": "int256"
            },
            {
              "internalType": "int256",
              "name": "klin",
              "type": "int256"
            },
            {
              "internalType": "int256",
              "name": "beta",
              "type": "int256"
            },
            {
              "internalType": "int256",
              "name": "ri",
              "type": "int256"
            },
            {
              "internalType": "int256",
              "name": "Tcrit",
              "type": "int256"
            }
          ],
          "indexed": false,
          "internalType": "struct IInterestRateModel.Config",
          "name": "config",
          "type": "tuple"
        }
      ],
      "name": "ConfigUpdate",
      "type": "event"
    },
    {
      "anonymous": false,
      "inputs": [
        {
          "indexed": true,
          "internalType": "address",
          "name": "previousOwner",
          "type": "address"
        },
        {
          "indexed": true,
          "internalType": "address",
          "name": "newOwner",
          "type": "address"
        }
      ],
      "name": "OwnershipPending",
      "type": "event"
    },
    {
      "anonymous": false,
      "inputs": [
        {
          "indexed": true,
          "internalType": "address",
          "name": "previousOwner",
          "type": "address"
        },
        {
          "indexed": true,
          "internalType": "address",
          "name": "newOwner",
          "type": "address"
        }
      ],
      "name": "OwnershipTransferred",
      "type": "event"
    },
    {
      "inputs": [],
      "name": "DP",
      "outputs": [
        {
          "internalType": "int256",
          "name": "",
          "type": "int256"
        }
      ],
      "stateMutability": "view",
      "type": "function"
    },
    {
      "inputs": [],
      "name": "RCOMP_MAX",
      "outputs": [
        {
          "internalType": "uint256",
          "name": "",
          "type": "uint256"
        }
      ],
      "stateMutability": "view",
      "type": "function"
    },
    {
      "inputs": [],
      "name": "X_MAX",
      "outputs": [
        {
          "internalType": "int256",
          "name": "",
          "type": "int256"
        }
      ],
      "stateMutability": "view",
      "type": "function"
    },
    {
      "inputs": [],
      "name": "acceptOwnership",
      "outputs": [],
      "stateMutability": "nonpayable",
      "type": "function"
    },
    {
      "inputs": [
        {
          "components": [
            {
              "internalType": "int256",
              "name": "uopt",
              "type": "int256"
            },
            {
              "internalType": "int256",
              "name": "ucrit",
              "type": "int256"
            },
            {
              "internalType": "int256",
              "name": "ulow",
              "type": "int256"
            },
            {
              "internalType": "int256",
              "name": "ki",
              "type": "int256"
            },
            {
              "internalType": "int256",
              "name": "kcrit",
              "type": "int256"
            },
            {
              "internalType": "int256",
              "name": "klow",
              "type": "int256"
            },
            {
              "internalType": "int256",
              "name": "klin",
              "type": "int256"
            },
            {
              "internalType": "int256",
              "name": "beta",
              "type": "int256"
            },
            {
              "internalType": "int256",
              "name": "ri",
              "type": "int256"
            },
            {
              "internalType": "int256",
              "name": "Tcrit",
              "type": "int256"
            }
          ],
          "internalType": "struct IInterestRateModel.Config",
          "name": "_c",
          "type": "tuple"
        },
        {
          "internalType": "int256",
          "name": "_u",
          "type": "int256"
        },
        {
          "internalType": "uint256",
          "name": "_interestRateTimestamp",
          "type": "uint256"
        },
        {
          "internalType": "uint256",
          "name": "_blockTimestamp",
          "type": "uint256"
        }
      ],
      "name": "calculateCompoundInterestRate",
      "outputs": [
        {
          "internalType": "uint256",
          "name": "rcomp",
          "type": "uint256"
        },
        {
          "internalType": "int256",
          "name": "ri",
          "type": "int256"
        },
        {
          "internalType": "int256",
          "name": "Tcrit",
          "type": "int256"
        }
      ],
      "stateMutability": "pure",
      "type": "function"
    },
    {
      "inputs": [
        {
          "components": [
            {
              "internalType": "int256",
              "name": "uopt",
              "type": "int256"
            },
            {
              "internalType": "int256",
              "name": "ucrit",
              "type": "int256"
            },
            {
              "internalType": "int256",
              "name": "ulow",
              "type": "int256"
            },
            {
              "internalType": "int256",
              "name": "ki",
              "type": "int256"
            },
            {
              "internalType": "int256",
              "name": "kcrit",
              "type": "int256"
            },
            {
              "internalType": "int256",
              "name": "klow",
              "type": "int256"
            },
            {
              "internalType": "int256",
              "name": "klin",
              "type": "int256"
            },
            {
              "internalType": "int256",
              "name": "beta",
              "type": "int256"
            },
            {
              "internalType": "int256",
              "name": "ri",
              "type": "int256"
            },
            {
              "internalType": "int256",
              "name": "Tcrit",
              "type": "int256"
            }
          ],
          "internalType": "struct IInterestRateModel.Config",
          "name": "_c",
          "type": "tuple"
        },
        {
          "internalType": "int256",
          "name": "_u",
          "type": "int256"
        },
        {
          "internalType": "uint256",
          "name": "_interestRateTimestamp",
          "type": "uint256"
        },
        {
          "internalType": "uint256",
          "name": "_blockTimestamp",
          "type": "uint256"
        }
      ],
      "name": "calculateCurrentInterestRate",
      "outputs": [
        {
          "internalType": "uint256",
          "name": "rcur",
          "type": "uint256"
        }
      ],
      "stateMutability": "pure",
      "type": "function"
    },
    {
      "inputs": [
        {
          "internalType": "address",
          "name": "",
          "type": "address"
        },
        {
          "internalType": "address",
          "name": "",
          "type": "address"
        }
      ],
      "name": "config",
      "outputs": [
        {
          "internalType": "int256",
          "name": "uopt",
          "type": "int256"
        },
        {
          "internalType": "int256",
          "name": "ucrit",
          "type": "int256"
        },
        {
          "internalType": "int256",
          "name": "ulow",
          "type": "int256"
        },
        {
          "internalType": "int256",
          "name": "ki",
          "type": "int256"
        },
        {
          "internalType": "int256",
          "name": "kcrit",
          "type": "int256"
        },
        {
          "internalType": "int256",
          "name": "klow",
          "type": "int256"
        },
        {
          "internalType": "int256",
          "name": "klin",
          "type": "int256"
        },
        {
          "internalType": "int256",
          "name": "beta",
          "type": "int256"
        },
        {
          "internalType": "int256",
          "name": "ri",
          "type": "int256"
        },
        {
          "internalType": "int256",
          "name": "Tcrit",
          "type": "int256"
        }
      ],
      "stateMutability": "view",
      "type": "function"
    },
    {
      "inputs": [
        {
          "internalType": "address",
          "name": "_silo",
          "type": "address"
        },
        {
          "internalType": "address",
          "name": "_asset",
          "type": "address"
        },
        {
          "internalType": "uint256",
          "name": "_blockTimestamp",
          "type": "uint256"
        }
      ],
      "name": "getCompoundInterestRate",
      "outputs": [
        {
          "internalType": "uint256",
          "name": "rcomp",
          "type": "uint256"
        }
      ],
      "stateMutability": "view",
      "type": "function"
    },
    {
      "inputs": [
        {
          "internalType": "address",
          "name": "_asset",
          "type": "address"
        },
        {
          "internalType": "uint256",
          "name": "_blockTimestamp",
          "type": "uint256"
        }
      ],
      "name": "getCompoundInterestRateAndUpdate",
      "outputs": [
        {
          "internalType": "uint256",
          "name": "rcomp",
          "type": "uint256"
        }
      ],
      "stateMutability": "nonpayable",
      "type": "function"
    },
    {
      "inputs": [
        {
          "internalType": "address",
          "name": "_silo",
          "type": "address"
        },
        {
          "internalType": "address",
          "name": "_asset",
          "type": "address"
        }
      ],
      "name": "getConfig",
      "outputs": [
        {
          "components": [
            {
              "internalType": "int256",
              "name": "uopt",
              "type": "int256"
            },
            {
              "internalType": "int256",
              "name": "ucrit",
              "type": "int256"
            },
            {
              "internalType": "int256",
              "name": "ulow",
              "type": "int256"
            },
            {
              "internalType": "int256",
              "name": "ki",
              "type": "int256"
            },
            {
              "internalType": "int256",
              "name": "kcrit",
              "type": "int256"
            },
            {
              "internalType": "int256",
              "name": "klow",
              "type": "int256"
            },
            {
              "internalType": "int256",
              "name": "klin",
              "type": "int256"
            },
            {
              "internalType": "int256",
              "name": "beta",
              "type": "int256"
            },
            {
              "internalType": "int256",
              "name": "ri",
              "type": "int256"
            },
            {
              "internalType": "int256",
              "name": "Tcrit",
              "type": "int256"
            }
          ],
          "internalType": "struct IInterestRateModel.Config",
          "name": "",
          "type": "tuple"
        }
      ],
      "stateMutability": "view",
      "type": "function"
    },
    {
      "inputs": [
        {
          "internalType": "address",
          "name": "_silo",
          "type": "address"
        },
        {
          "internalType": "address",
          "name": "_asset",
          "type": "address"
        },
        {
          "internalType": "uint256",
          "name": "_blockTimestamp",
          "type": "uint256"
        }
      ],
      "name": "getCurrentInterestRate",
      "outputs": [
        {
          "internalType": "uint256",
          "name": "rcur",
          "type": "uint256"
        }
      ],
      "stateMutability": "view",
      "type": "function"
    },
    {
      "inputs": [],
      "name": "interestRateModelPing",
      "outputs": [
        {
          "internalType": "bool",
          "name": "",
          "type": "bool"
        }
      ],
      "stateMutability": "pure",
      "type": "function"
    },
    {
      "inputs": [],
      "name": "owner",
      "outputs": [
        {
          "internalType": "address",
          "name": "",
          "type": "address"
        }
      ],
      "stateMutability": "view",
      "type": "function"
    },
    {
      "inputs": [],
      "name": "pendingOwner",
      "outputs": [
        {
          "internalType": "address",
          "name": "",
          "type": "address"
        }
      ],
      "stateMutability": "view",
      "type": "function"
    },
    {
      "inputs": [],
      "name": "renounceOwnership",
      "outputs": [],
      "stateMutability": "nonpayable",
      "type": "function"
    },
    {
      "inputs": [
        {
          "internalType": "address",
          "name": "_silo",
          "type": "address"
        },
        {
          "internalType": "address",
          "name": "_asset",
          "type": "address"
        },
        {
          "components": [
            {
              "internalType": "int256",
              "name": "uopt",
              "type": "int256"
            },
            {
              "internalType": "int256",
              "name": "ucrit",
              "type": "int256"
            },
            {
              "internalType": "int256",
              "name": "ulow",
              "type": "int256"
            },
            {
              "internalType": "int256",
              "name": "ki",
              "type": "int256"
            },
            {
              "internalType": "int256",
              "name": "kcrit",
              "type": "int256"
            },
            {
              "internalType": "int256",
              "name": "klow",
              "type": "int256"
            },
            {
              "internalType": "int256",
              "name": "klin",
              "type": "int256"
            },
            {
              "internalType": "int256",
              "name": "beta",
              "type": "int256"
            },
            {
              "internalType": "int256",
              "name": "ri",
              "type": "int256"
            },
            {
              "internalType": "int256",
              "name": "Tcrit",
              "type": "int256"
            }
          ],
          "internalType": "struct IInterestRateModel.Config",
          "name": "_config",
          "type": "tuple"
        }
      ],
      "name": "setConfig",
      "outputs": [],
      "stateMutability": "nonpayable",
      "type": "function"
    },
    {
      "inputs": [
        {
          "internalType": "address",
          "name": "newOwner",
          "type": "address"
        }
      ],
      "name": "transferOwnership",
      "outputs": [],
      "stateMutability": "nonpayable",
      "type": "function"
    },
    {
      "inputs": [
        {
          "internalType": "address",
          "name": "newPendingOwner",
          "type": "address"
        }
      ],
      "name": "transferPendingOwnership",
      "outputs": [],
      "stateMutability": "nonpayable",
      "type": "function"
    }
  ],
  "transactionHash": "0xc681d09a2894ac29572e53f8c4c4105ea881afc0142bf735a32f5900b251c3be",
  "args": [
    {
      "uopt": "200000000000000000",
      "ucrit": "600000000000000000",
      "ulow": "100000000000000000",
      "ki": "45876",
      "kcrit": "79274479959",
      "klow": "31709791983",
      "klin": "3963723997",
      "beta": "138888888888888",
      "ri": "0",
      "Tcrit": "0"
    }
  ],
  "numDeployments": 3,
  "solcInputHash": "4e6ec95f1876ffdb5c89e088426a74e9",
  "bytecode": "0x60806040523480156200001157600080fd5b50604051620027b0380380620027b08339810160408190526200003491620001d6565b6200003f3362000054565b6200004d60008083620000a4565b5062000298565b600080546001600160a01b038381166001600160a01b0319831681178455604051919092169283917f8be0079c531659141344cd1fd0a4f28419497f9722a3daafe3b4186f6b6457e09190a35050565b6001600160a01b03808416600081815260026020818152604080842095881680855295825292839020865181559086015160018201558286015191810191909155606085015160038201556080850151600482015560a0850151600582015560c0850151600682015560e085015160078201556101008501516008820155610120850151600990910155517ff254631d9ea3e3ab061b1c56e1215a268abf5ff28a460b255f308aac112df45890620001c9908590600061014082019050825182526020830151602083015260408301516040830152606083015160608301526080830151608083015260a083015160a083015260c083015160c083015260e083015160e083015261010080840151818401525061012080840151818401525092915050565b60405180910390a3505050565b60006101408284031215620001ea57600080fd5b620001f462000260565b825181526020830151602082015260408301516040820152606083015160608201526080830151608082015260a083015160a082015260c083015160c082015260e083015160e08201526101008084015181830152506101208084015181830152508091505092915050565b60405161014081016001600160401b03811182821017156200029257634e487b7160e01b600052604160045260246000fd5b60405290565b61250880620002a86000396000f3fe608060405234801561001057600080fd5b50600436106101165760003560e01c806381b51e0c116100a2578063c42401f111610071578063c42401f114610244578063cbf75c9a14610253578063e076a5511461030c578063e30c39781461032b578063f2fde38b1461033c57600080fd5b806381b51e0c146101dc5780638da5cb5b146101ec578063b1e0176514610211578063bbdcbed61461022457600080fd5b80633a191482116100e95780633a1914821461017c5780636bcc8216146101aa578063715018a6146101b957806374a3e924146101c157806379ba5097146101d457600080fd5b806303dc12fc1461011b578063071962ff146101415780630d26ee9b146101545780633278c69414610167575b600080fd5b61012e61012936600461200a565b61034f565b6040519081526020015b60405180910390f35b61012e61014f366004611fce565b610456565b61012e610162366004612051565b61051f565b61017a610175366004611f2f565b6106c2565b005b61018f61018a366004612051565b610777565b60408051938452602084019290925290820152606001610138565b61012e670de0b6b3a764000081565b61017a610c01565b61017a6101cf366004611f7d565b610c46565b61017a610c9d565b61012e6804cf46d8192b672ecb81565b6000546001600160a01b03165b6040516001600160a01b039091168152602001610138565b61012e61021f366004611fce565b610d33565b610237610232366004611f4a565b610dff565b604051610138919061213c565b60405160018152602001610138565b6102c2610261366004611f4a565b600260205281600052604060002060205280600052604060002060009150915050806000015490806001015490806002015490806003015490806004015490806005015490806006015490806007015490806008015490806009015490508a565b604080519a8b5260208b0199909952978901969096526060880194909452608087019290925260a086015260c085015260e084015261010083015261012082015261014001610138565b61012e770de0b6b3a763ffff493b7bec438eaf141b844d2356e0000081565b6001546001600160a01b03166101f9565b61017a61034a366004611f2f565b6110f4565b604051631f0f875560e31b81526001600160a01b038316600482015260009033908290829063f87c3aa89060240160606040518083038186803b15801561039557600080fd5b505afa1580156103a9573d6000803e3d6000fd5b505050506040513d601f19601f820116820180604052508101906103cd919061208f565b90506104146103dc8387610dff565b6103ff6103fa670de0b6b3a76400008560000151866020015161119e565b6111d7565b836040015167ffffffffffffffff1687610777565b6001600160a01b0394851660009081526002602090815260408083209a9097168252989098529390962060098101939093556008909201949094559392505050565b604051631f0f875560e31b81526001600160a01b038381166004830152600091829186169063f87c3aa89060240160606040518083038186803b15801561049c57600080fd5b505afa1580156104b0573d6000803e3d6000fd5b505050506040513d601f19601f820116820180604052508101906104d4919061208f565b90506105166104e38686610dff565b6105016103fa670de0b6b3a76400008560000151866020015161119e565b836040015167ffffffffffffffff168661051f565b95945050505050565b60008061052f6103fa858561248f565b9050600086602001518613156105bf57670de0b6b3a7640000808860200151886105599190612450565b848a60e0015161056991906123ac565b6101208b015161058190670de0b6b3a76400006121e5565b61058b91906121e5565b8a6080015161059a91906123ac565b6105a491906123ac565b6105ae9190612226565b6105b89190612226565b90506105fe565b6105fb6000670de0b6b3a76400008960400151896105dd9190612450565b8a60a001516105ec91906123ac565b6105f69190612226565b611245565b90505b6000670de0b6b3a7640000878960c0015161061991906123ac565b6106239190612226565b905060006106368961010001518361125b565b9050610688670de0b6b3a7640000858b600001518b6106559190612450565b8c6060015161066491906123ac565b61066e91906123ac565b6106789190612226565b61068290836121e5565b8361125b565b90506106a56106a061069a85846121e5565b8461125b565b61126a565b94506106b56301e1338086612431565b9998505050505050505050565b336106d56000546001600160a01b031690565b6001600160a01b0316146107045760405162461bcd60e51b81526004016106fb90612107565b60405180910390fd5b806001600160a01b03166107206000546001600160a01b031690565b6001600160a01b03167f3c672e6c16e239c29e969deaf4eae15d7002350bf5490175e7481155af04c83a60405160405180910390a3600180546001600160a01b0319166001600160a01b0392909216919091179055565b6000806000866101000151915086610120015190506000604051806101400160405280600081526020016000815260200160008152602001600081526020016000815260200160008152602001600081526020016000815260200160008152602001600081525090506107ef86866103fa919061248f565b81528751670de0b6b3a7640000906108079089612450565b896060015161081691906123ac565b6108209190612226565b60208083019190915288015187131561091457670de0b6b3a76400008089602001518961084d9190612450565b61085f85670de0b6b3a76400006121e5565b8b6080015161086e91906123ac565b61087891906123ac565b6108829190612226565b61088c9190612226565b60408201526020880151670de0b6b3a76400009081906108ac908a612450565b8a60e001518b608001516108c091906123ac565b6108ca91906123ac565b6108d49190612226565b6108de9190612226565b81602001516108ed91906121e5565b6060820152805160e089015161090391906123ac565b61090d90836121e5565b915061097a565b6109416000670de0b6b3a76400008a604001518a6109329190612450565b8b60a001516105ec91906123ac565b604082015260208101516060820152805160e08901516109779160009161096891906123ac565b6109729085612450565b61125b565b91505b670de0b6b3a7640000878960c0015161099391906123ac565b61099d9190612226565b60a082018190526109af90849061125b565b92508060400151836109c191906121e5565b6080820152805160608201516109d791906123ac565b81608001516109e691906121e5565b60c082015260a0810151608082015112801590610a0b57508060a001518160c0015112155b15610a4757805160c0820151608083015160029291610a29916121e5565b610a3391906123ac565b610a3d9190612226565b60e0820152610b51565b8060a001518160800151128015610a6557508060a001518160c00151125b15610a7b57805160a0820151610a3d91906123ac565b8060a00151816080015112158015610a9a57508060a001518160c00151125b15610af5576002816060015160028360a001518460800151610abc9190612450565b610ac6919061239d565b610ad09190612226565b610ada9190612226565b815160a0830151610aeb91906123ac565b610a3d9190612450565b6002816060015160028360a001518460c00151610b129190612450565b610b1c919061239d565b610b269190612226565b610b309190612226565b815160a0830151610b4191906123ac565b610b4b91906121e5565b60e08201525b6804cf46d8192b672ecb8160e0015112610b8557770de0b6b3a763ffff493b7bec438eaf141b844d2356e000009350610bcc565b670de0b6b3a7640000610b9b8260e001516112bc565b610ba59190612450565b6101208201819052600012610bbb576000610bc9565b610bc981610120015161126a565b93505b80516020820151610bf491610be0916123ac565b610bea90856121e5565b8260a0015161125b565b9250509450945094915050565b33610c146000546001600160a01b031690565b6001600160a01b031614610c3a5760405162461bcd60e51b81526004016106fb90612107565b610c446000611315565b565b33610c596000546001600160a01b031690565b6001600160a01b031614610c7f5760405162461bcd60e51b81526004016106fb90612107565b610c988383610c9336859003850185612034565b611365565b505050565b6001546001600160a01b03163314610d075760405162461bcd60e51b815260206004820152602760248201527f4f776e61626c653a2063616c6c6572206973206e6f74207468652070656e64696044820152663733a7bbb732b960c91b60648201526084016106fb565b610d21610d1c6001546001600160a01b031690565b611315565b600180546001600160a01b0319169055565b604051631f0f875560e31b81526001600160a01b038381166004830152600091829186169063f87c3aa89060240160606040518083038186803b158015610d7957600080fd5b505afa158015610d8d573d6000803e3d6000fd5b505050506040513d601f19601f82011682018060405250810190610db1919061208f565b9050610df3610dc08686610dff565b610dde6103fa670de0b6b3a76400008560000151866020015161119e565b836040015167ffffffffffffffff1686610777565b50909695505050505050565b610e55604051806101400160405280600081526020016000815260200160008152602001600081526020016000815260200160008152602001600081526020016000815260200160008152602001600081525090565b6001600160a01b0380841660009081526002602090815260408083209386168352929052205415610f1b57506001600160a01b0380831660009081526002602081815260408084209486168452938152918390208351610140810185528154815260018201549381019390935290810154928201929092526003820154606082015260048201546080820152600582015460a0820152600682015460c0820152600782015460e082015260088201546101008201526009909101546101208201526110ee565b5060408051610140810182527f6ee3efecae883df2d7ccda22610b4ca771a299e707cb0d65c4ec97dc4e6668ad5481527f6ee3efecae883df2d7ccda22610b4ca771a299e707cb0d65c4ec97dc4e6668ae546020828101919091527f6ee3efecae883df2d7ccda22610b4ca771a299e707cb0d65c4ec97dc4e6668af54828401527f6ee3efecae883df2d7ccda22610b4ca771a299e707cb0d65c4ec97dc4e6668b05460608301527f6ee3efecae883df2d7ccda22610b4ca771a299e707cb0d65c4ec97dc4e6668b15460808301527f6ee3efecae883df2d7ccda22610b4ca771a299e707cb0d65c4ec97dc4e6668b25460a08301527f6ee3efecae883df2d7ccda22610b4ca771a299e707cb0d65c4ec97dc4e6668b35460c08301527f6ee3efecae883df2d7ccda22610b4ca771a299e707cb0d65c4ec97dc4e6668b45460e08301527f6ee3efecae883df2d7ccda22610b4ca771a299e707cb0d65c4ec97dc4e6668b55461010083019081527f6ee3efecae883df2d7ccda22610b4ca771a299e707cb0d65c4ec97dc4e6668b65461012084019081526001600160a01b0387811660009081526002855286812091881680825282865296812060088101549094529590955293909152600901549091525b92915050565b336111076000546001600160a01b031690565b6001600160a01b03161461112d5760405162461bcd60e51b81526004016106fb90612107565b6001600160a01b0381166111925760405162461bcd60e51b815260206004820152602660248201527f4f776e61626c653a206e6577206f776e657220697320746865207a65726f206160448201526564647265737360d01b60648201526084016106fb565b61119b81611315565b50565b60008215806111ab575081155b156111b8575060006111d0565b826111c38584612431565b6111cd9190612254565b90505b9392505050565b60006001600160ff1b038211156112415760405162461bcd60e51b815260206004820152602860248201527f53616665436173743a2076616c756520646f65736e27742066697420696e2061604482015267371034b73a191a9b60c11b60648201526084016106fb565b5090565b600081831261125457816111d0565b5090919050565b600081831361125457816111d0565b6000808212156112415760405162461bcd60e51b815260206004820181905260248201527f53616665436173743a2076616c7565206d75737420626520706f73697469766560448201526064016106fb565b600068023f2fa8f6da5b9d31198212156112d857506000919050565b6804cf46d8192b672ecc82126112ed57600080fd5b6714057b7ef767814f82026111d0670de0b6b3a76400006706f05b59d3b2000083010561142a565b600080546001600160a01b038381166001600160a01b0319831681178455604051919092169283917f8be0079c531659141344cd1fd0a4f28419497f9722a3daafe3b4186f6b6457e09190a35050565b6001600160a01b03808416600081815260026020818152604080842095881680855295825292839020865181559086015160018201558286015191810191909155606085015160038201556080850151600482015560a0850151600582015560c0850151600682015560e085015160078201556101008501516008820155610120850151600990910155517ff254631d9ea3e3ab061b1c56e1215a268abf5ff28a460b255f308aac112df4589061141d90859061213c565b60405180910390a3505050565b60008082121561147e5768033dd1780914b971141982121561144e57506000919050565b61145a8260000361142a565b6ec097ce7bc90715b34b9f100000000081611477576114776124bc565b0592915050565b6806f05b59d3b2000000821261149357600080fd5b670de0b6b3a7640000608083901b046111d0816114b0565b919050565b6001607f1b818116156114d45770016a09e667f3bcc908b2fb1366ea957d3e0260801c5b6001607e1b8216156114f7577001306fe0a31b7152de8d5a46305c85eded0260801c5b6001607d1b82161561151a577001172b83c7d517adcdf7c8c50eb14a79200260801c5b6001607c1b82161561153d5770010b5586cf9890f6298b92b71842a983640260801c5b6001607b1b821615611560577001059b0d31585743ae7c548eb68ca417fe0260801c5b6001607a1b82161561158357700102c9a3e778060ee6f7caca4f7a29bde90260801c5b600160791b8216156115a65770010163da9fb33356d84a66ae336dcdfa400260801c5b600160781b8216156115c957700100b1afa5abcbed6129ab13ec11dc95440260801c5b600160771b8216156115ec5770010058c86da1c09ea1ff19d294cf2f679c0260801c5b600160761b82161561160f577001002c605e2e8cec506d21bfc89a23a0110260801c5b600160751b82161561163257700100162f3904051fa128bca9c55c31e5e00260801c5b600160741b821615611655577001000b175effdc76ba38e31671ca9397260260801c5b600160731b82161561167857700100058ba01fb9f96d6cacd4b180917c3e0260801c5b600160721b82161561169b5770010002c5cc37da9491d0985c348c68e7b40260801c5b600160711b8216156116be577001000162e525ee054754457d59952920270260801c5b600160701b8216156116e15770010000b17255775c040618bf4a4ade83fd0260801c5b6001606f1b821615611704577001000058b91b5bc9ae2eed81e9b7d4cfac0260801c5b6001606e1b82161561172757700100002c5c89d5ec6ca4d7c8acc017b7ca0260801c5b6001606d1b82161561174a5770010000162e43f4f831060e02d839a9d16d0260801c5b6001606c1b82161561176d57700100000b1721bcfc99d9f890ea069117630260801c5b6001606b1b8216156117905770010000058b90cf1e6d97f9ca14dbcc16290260801c5b6001606a1b8216156117b3577001000002c5c863b73f016468f6bac5ca2c0260801c5b600160691b8216156117d657700100000162e430e5a18f6119e3c02282a60260801c5b600160681b8216156117f9577001000000b1721835514b86e6d96efd1bff0260801c5b600160671b82161561181c57700100000058b90c0b48c6be5df846c5b2f00260801c5b600160661b82161561183f5770010000002c5c8601cc6b9e94213c72737b0260801c5b600160651b821615611862577001000000162e42fff037df38aa2b219f070260801c5b600160641b8216156118855770010000000b17217fba9c739aa5819f44fa0260801c5b600160631b8216156118a8577001000000058b90bfcdee5acd3c1cedc8240260801c5b600160621b8216156118cb57700100000002c5c85fe31f35a6a30da1be510260801c5b600160611b8216156118ee5770010000000162e42ff0999ce3541b9fffd00260801c5b600160601b82161561191157700100000000b17217f80f4ef5aadda455540260801c5b6001605f1b8216156119345770010000000058b90bfbf8479bd5a81b51ae0260801c5b6001605e1b821615611957577001000000002c5c85fdf84bd62ae30a74cd0260801c5b6001605d1b82161561197a57700100000000162e42fefb2fed257559bdaa0260801c5b6001605c1b82161561199d577001000000000b17217f7d5a7716bba4a9af0260801c5b6001605b1b8216156119c057700100000000058b90bfbe9ddbac5e109ccf0260801c5b6001605a1b8216156119e35770010000000002c5c85fdf4b15de6f17eb0e0260801c5b600160591b821615611a06577001000000000162e42fefa494f1478fde050260801c5b600160581b821615611a295770010000000000b17217f7d20cf927c8e94d0260801c5b600160571b821615611a4c577001000000000058b90bfbe8f71cb4e4b33e0260801c5b600160561b821615611a6f57700100000000002c5c85fdf477b662b269460260801c5b600160551b821615611a925770010000000000162e42fefa3ae53369388d0260801c5b600160541b821615611ab557700100000000000b17217f7d1d351a389d410260801c5b600160531b821615611ad85770010000000000058b90bfbe8e8b2d3d4edf0260801c5b600160521b821615611afb577001000000000002c5c85fdf4741bea6e77f0260801c5b600160511b821615611b1e57700100000000000162e42fefa39fe95583c30260801c5b600160501b821615611b41577001000000000000b17217f7d1cfb72b45e30260801c5b6980000000000000000000821615611b6a57700100000000000058b90bfbe8e7cc35c3f20260801c5b6940000000000000000000821615611b935770010000000000002c5c85fdf473e242ea390260801c5b6920000000000000000000821615611bbc577001000000000000162e42fefa39f02b772c0260801c5b6910000000000000000000821615611be55770010000000000000b17217f7d1cf7d83c1a0260801c5b6908000000000000000000821615611c0e577001000000000000058b90bfbe8e7bdcbe2e0260801c5b6904000000000000000000821615611c3757700100000000000002c5c85fdf473dea871f0260801c5b6902000000000000000000821615611c605770010000000000000162e42fefa39ef44d920260801c5b6901000000000000000000821615611c8957700100000000000000b17217f7d1cf79e9490260801c5b68800000000000000000821615611cb15770010000000000000058b90bfbe8e7bce5450260801c5b68400000000000000000821615611cd9577001000000000000002c5c85fdf473de6eca0260801c5b68200000000000000000821615611d0157700100000000000000162e42fefa39ef366f0260801c5b68100000000000000000821615611d29577001000000000000000b17217f7d1cf79afa0260801c5b68080000000000000000821615611d5157700100000000000000058b90bfbe8e7bcd6e0260801c5b68040000000000000000821615611d795770010000000000000002c5c85fdf473de6b30260801c5b68020000000000000000821615611da1577001000000000000000162e42fefa39ef3590260801c5b68010000000000000000821615611dc95770010000000000000000b17217f7d1cf79ac0260801c5b6001608083901c011b6110ee81670de0b6b3a7640000600160801b600080806000198587098587029250828110838203039150508060001415611e1e5760008411611e1357600080fd5b5082900490506111d0565b808411611e2a57600080fd5b60008486880960026001871981018816978890046003810283188082028403028082028403028082028403028082028403028082028403029081029092039091026000889003889004909101858311909403939093029303949094049190911702949350505050565b80356001600160a01b03811681146114ab57600080fd5b60006101408284031215611ebd57600080fd5b611ec56121ad565b9050813581526020820135602082015260408201356040820152606082013560608201526080820135608082015260a082013560a082015260c082013560c082015260e082013560e082015261010080830135818301525061012080830135818301525092915050565b600060208284031215611f4157600080fd5b6111d082611e93565b60008060408385031215611f5d57600080fd5b611f6683611e93565b9150611f7460208401611e93565b90509250929050565b6000806000838503610180811215611f9457600080fd5b611f9d85611e93565b9350611fab60208601611e93565b9250610140603f1982011215611fc057600080fd5b506040840190509250925092565b600080600060608486031215611fe357600080fd5b611fec84611e93565b9250611ffa60208501611e93565b9150604084013590509250925092565b6000806040838503121561201d57600080fd5b61202683611e93565b946020939093013593505050565b6000610140828403121561204757600080fd5b6111d08383611eaa565b6000806000806101a0858703121561206857600080fd5b6120728686611eaa565b966101408601359650610160860135956101800135945092505050565b6000606082840312156120a157600080fd5b6040516060810167ffffffffffffffff82821081831117156120d357634e487b7160e01b600052604160045260246000fd5b8160405284518352602085015160208401526040850151915080821682146120fa57600080fd5b5060408201529392505050565b6020808252818101527f4f776e61626c653a2063616c6c6572206973206e6f7420746865206f776e6572604082015260600190565b600061014082019050825182526020830151602083015260408301516040830152606083015160608301526080830151608083015260a083015160a083015260c083015160c083015260e083015160e083015261010080840151818401525061012080840151818401525092915050565b604051610140810167ffffffffffffffff811182821017156121df57634e487b7160e01b600052604160045260246000fd5b60405290565b600080821280156001600160ff1b0384900385131615612207576122076124a6565b600160ff1b8390038412811615612220576122206124a6565b50500190565b600082612235576122356124bc565b600160ff1b82146000198414161561224f5761224f6124a6565b500590565b600082612263576122636124bc565b500490565b80825b600180861161227a57506122ad565b6001600160ff1b03829004821115612294576122946124a6565b808616156122a157918102915b9490941c93800261226b565b935093915050565b60008280156122cb57600181146122d5576122de565b60019150506110ee565b829150506110ee565b50816122ec575060006110ee565b506001600082138082146123055780156123245761233e565b6001600160ff1b0383900483111561231f5761231f6124a6565b61233e565b6001600160ff1b0383900583121561233e5761233e6124a6565b508083161561234a5750805b61235a8360011c83840283612268565b600082136001600160ff1b0382900483111615612379576123796124a6565b60008212600160ff1b82900583121615612395576123956124a6565b029392505050565b60006111d060ff8416836122b5565b60006001600160ff1b03818413828413808216868404861116156123d2576123d26124a6565b600160ff1b60008712828116878305891216156123f1576123f16124a6565b6000871292508782058712848416161561240d5761240d6124a6565b87850587128184161615612423576124236124a6565b505050929093029392505050565b600081600019048311821515161561244b5761244b6124a6565b500290565b60008083128015600160ff1b85018412161561246e5761246e6124a6565b6001600160ff1b0384018313811615612489576124896124a6565b50500390565b6000828210156124a1576124a16124a6565b500390565b634e487b7160e01b600052601160045260246000fd5b634e487b7160e01b600052601260045260246000fdfea2646970667358221220fb8d6823d1a9e8e51140b60817c45b69cbbd07510b71e523882eedb10acc865864736f6c63430008070033",
  "libraries": {
    "PRBMathSD59x18": "0xc69e94Eca880e3A8fC173A12037b7ef461A1102A"
  },
  "devdoc": {
    "custom:security-contact": "security@silo.finance",
    "details": "Model stores some Silo specific data. If model is replaced, it needs to set proper config after redeployment for seamless service. Please refer to separte litepaper about model for design details.",
    "events": {
      "ConfigUpdate(address,address,(int256,int256,int256,int256,int256,int256,int256,int256,int256,int256))": {
        "params": {
          "asset": "asset address for which config should be set",
          "config": "config sturct for asset in Silo",
          "silo": "Silo address for which config should be set"
        }
      }
    },
    "kind": "dev",
    "methods": {
      "acceptOwnership()": {
        "details": "Transfers ownership of the contract to a pending owner Can only be called by the pending owner."
      },
      "calculateCompoundInterestRate((int256,int256,int256,int256,int256,int256,int256,int256,int256,int256),int256,uint256,uint256)": {
        "details": "pure function that calculates interest rate based on raw input data",
        "params": {
          "_blockTimestamp": "current block timestamp",
          "_c": "configuration object, InterestRateModel.Config",
          "_interestRateTimestamp": "timestamp of last interest rate update",
          "_u": "asset untilization"
        },
        "returns": {
          "Tcrit": "time during which the utilization exceeds the critical value",
          "rcomp": "compounded interest rate from last update until now",
          "ri": "current integral part of the rate"
        }
      },
      "calculateCurrentInterestRate((int256,int256,int256,int256,int256,int256,int256,int256,int256,int256),int256,uint256,uint256)": {
        "details": "pure function that calculates current annual interest rate",
        "params": {
          "_blockTimestamp": "current block timestamp",
          "_c": "configuration object, InterestRateModel.Config",
          "_interestRateTimestamp": "timestamp of last interest rate update",
          "_u": "asset untilization"
        },
        "returns": {
          "rcur": "current annual interest rate"
        }
      },
      "getCompoundInterestRate(address,address,uint256)": {
        "details": "get compound interest rate",
        "params": {
          "_asset": "address of an asset in Silo for which interest rate should be calculated",
          "_blockTimestamp": "current block timestamp",
          "_silo": "address of Silo"
        },
        "returns": {
          "rcomp": "compounded interest rate from last update until now"
        }
      },
      "getCompoundInterestRateAndUpdate(address,uint256)": {
        "details": "get compound interest rate and update model storage",
        "params": {
          "_asset": "address of an asset in Silo for which interest rate should be calculated",
          "_blockTimestamp": "current block timestamp"
        },
        "returns": {
          "rcomp": "compounded interest rate from last update until now"
        }
      },
      "getConfig(address,address)": {
        "details": "Get config for giver asset in a Silo. If dedicated config is not set, default one will be returned.",
        "params": {
          "_asset": "asset address for which config should be set",
          "_silo": "Silo address for which config should be set"
        },
        "returns": {
          "_0": "Config sturct for asset in Silo"
        }
      },
      "getCurrentInterestRate(address,address,uint256)": {
        "details": "get current annual interest rate",
        "params": {
          "_asset": "address of an asset in Silo for which interest rate should be calculated",
          "_blockTimestamp": "current block timestamp",
          "_silo": "address of Silo"
        },
        "returns": {
          "rcur": "current annual interest rate"
        }
      },
      "interestRateModelPing()": {
        "details": "just a helper method to see if address is a InterestRateModel",
        "returns": {
          "_0": "always true"
        }
      },
      "owner()": {
        "details": "Returns the address of the current owner."
      },
      "pendingOwner()": {
        "details": "Returns the address of the pending owner."
      },
      "renounceOwnership()": {
        "details": "Leaves the contract without owner. It will not be possible to call `onlyOwner` functions anymore. Can only be called by the current owner. NOTE: Renouncing ownership will leave the contract without an owner, thereby removing any functionality that is only available to the owner."
      },
      "setConfig(address,address,(int256,int256,int256,int256,int256,int256,int256,int256,int256,int256))": {
        "details": "Set dedicated config for giver asset in a Silo. Config is per asset per Silo so different assets in different Silo can have different configs.",
        "params": {
          "_asset": "asset address for which config should be set",
          "_silo": "Silo address for which config should be set"
        }
      },
      "transferOwnership(address)": {
        "details": "Transfers ownership of the contract to a new account (`newOwner`). Can only be called by the current owner."
      },
      "transferPendingOwnership(address)": {
        "details": "Transfers pending ownership of the contract to a new account (`newPendingOwner`). Can only be called by the current owner."
      }
    },
    "stateVariables": {
      "DP": {
        "details": "DP is 18 decimal points used for integer calculations"
      },
      "RCOMP_MAX": {
        "details": "maximum value of compound interest the model will return"
      },
      "X_MAX": {
        "details": "maximum value of X for which, RCOMP_MAX should be returned"
      }
    },
    "title": "InterestRateModel",
    "version": 1
  },
  "userdoc": {
    "events": {
      "ConfigUpdate(address,address,(int256,int256,int256,int256,int256,int256,int256,int256,int256,int256))": {
        "notice": "Emitted on config change"
      },
      "OwnershipPending(address,address)": {
        "notice": "Emitted when ownership transfer is proposed, aka pending owner is set"
      },
      "OwnershipTransferred(address,address)": {
        "notice": "Emitted when ownership is transferred on `transferOwnership` and `acceptOwnership`"
      }
    },
    "kind": "user",
    "methods": {},
    "notice": "Dynamic interest rate model implementation",
    "version": 1
  },
  "storageLayout": {
    "storage": [
      {
        "astId": 22162,
        "contract": "contracts/InterestRateModel.sol:InterestRateModel",
        "label": "_owner",
        "offset": 0,
        "slot": "0",
        "type": "t_address"
      },
      {
        "astId": 22165,
        "contract": "contracts/InterestRateModel.sol:InterestRateModel",
        "label": "_pendingOwner",
        "offset": 0,
        "slot": "1",
        "type": "t_address"
      },
      {
        "astId": 10415,
        "contract": "contracts/InterestRateModel.sol:InterestRateModel",
        "label": "config",
        "offset": 0,
        "slot": "2",
        "type": "t_mapping(t_address,t_mapping(t_address,t_struct(Config)16129_storage))"
      }
    ],
    "types": {
      "t_address": {
        "encoding": "inplace",
        "label": "address",
        "numberOfBytes": "20"
      },
      "t_int256": {
        "encoding": "inplace",
        "label": "int256",
        "numberOfBytes": "32"
      },
      "t_mapping(t_address,t_mapping(t_address,t_struct(Config)16129_storage))": {
        "encoding": "mapping",
        "key": "t_address",
        "label": "mapping(address => mapping(address => struct IInterestRateModel.Config))",
        "numberOfBytes": "32",
        "value": "t_mapping(t_address,t_struct(Config)16129_storage)"
      },
      "t_mapping(t_address,t_struct(Config)16129_storage)": {
        "encoding": "mapping",
        "key": "t_address",
        "label": "mapping(address => struct IInterestRateModel.Config)",
        "numberOfBytes": "32",
        "value": "t_struct(Config)16129_storage"
      },
      "t_struct(Config)16129_storage": {
        "encoding": "inplace",
        "label": "struct IInterestRateModel.Config",
        "members": [
          {
            "astId": 16110,
            "contract": "contracts/InterestRateModel.sol:InterestRateModel",
            "label": "uopt",
            "offset": 0,
            "slot": "0",
            "type": "t_int256"
          },
          {
            "astId": 16112,
            "contract": "contracts/InterestRateModel.sol:InterestRateModel",
            "label": "ucrit",
            "offset": 0,
            "slot": "1",
            "type": "t_int256"
          },
          {
            "astId": 16114,
            "contract": "contracts/InterestRateModel.sol:InterestRateModel",
            "label": "ulow",
            "offset": 0,
            "slot": "2",
            "type": "t_int256"
          },
          {
            "astId": 16116,
            "contract": "contracts/InterestRateModel.sol:InterestRateModel",
            "label": "ki",
            "offset": 0,
            "slot": "3",
            "type": "t_int256"
          },
          {
            "astId": 16118,
            "contract": "contracts/InterestRateModel.sol:InterestRateModel",
            "label": "kcrit",
            "offset": 0,
            "slot": "4",
            "type": "t_int256"
          },
          {
            "astId": 16120,
            "contract": "contracts/InterestRateModel.sol:InterestRateModel",
            "label": "klow",
            "offset": 0,
            "slot": "5",
            "type": "t_int256"
          },
          {
            "astId": 16122,
            "contract": "contracts/InterestRateModel.sol:InterestRateModel",
            "label": "klin",
            "offset": 0,
            "slot": "6",
            "type": "t_int256"
          },
          {
            "astId": 16124,
            "contract": "contracts/InterestRateModel.sol:InterestRateModel",
            "label": "beta",
            "offset": 0,
            "slot": "7",
            "type": "t_int256"
          },
          {
            "astId": 16126,
            "contract": "contracts/InterestRateModel.sol:InterestRateModel",
            "label": "ri",
            "offset": 0,
            "slot": "8",
            "type": "t_int256"
          },
          {
            "astId": 16128,
            "contract": "contracts/InterestRateModel.sol:InterestRateModel",
            "label": "Tcrit",
            "offset": 0,
            "slot": "9",
            "type": "t_int256"
          }
        ],
        "numberOfBytes": "320"
      }
    }
  }
}