{
  "address": "0x653558D47154cf6EBb05Da16A994E75411A6093a",
  "abi": [
    {
      "inputs": [
        {
          "components": [
            {
              "internalType": "int256",
              "name": "uopt",
              "type": "int256"
            },
            {
              "internalType": "int256",
              "name": "ucrit",
              "type": "int256"
            },
            {
              "internalType": "int256",
              "name": "ulow",
              "type": "int256"
            },
            {
              "internalType": "int256",
              "name": "ki",
              "type": "int256"
            },
            {
              "internalType": "int256",
              "name": "kcrit",
              "type": "int256"
            },
            {
              "internalType": "int256",
              "name": "klow",
              "type": "int256"
            },
            {
              "internalType": "int256",
              "name": "klin",
              "type": "int256"
            },
            {
              "internalType": "int256",
              "name": "beta",
              "type": "int256"
            },
            {
              "internalType": "int256",
              "name": "ri",
              "type": "int256"
            },
            {
              "internalType": "int256",
              "name": "Tcrit",
              "type": "int256"
            }
          ],
          "internalType": "struct IInterestRateModel.Config",
          "name": "_config",
          "type": "tuple"
        }
      ],
      "stateMutability": "nonpayable",
      "type": "constructor"
    },
    {
      "anonymous": false,
      "inputs": [
        {
          "indexed": true,
          "internalType": "address",
          "name": "silo",
          "type": "address"
        },
        {
          "indexed": true,
          "internalType": "address",
          "name": "asset",
          "type": "address"
        },
        {
          "components": [
            {
              "internalType": "int256",
              "name": "uopt",
              "type": "int256"
            },
            {
              "internalType": "int256",
              "name": "ucrit",
              "type": "int256"
            },
            {
              "internalType": "int256",
              "name": "ulow",
              "type": "int256"
            },
            {
              "internalType": "int256",
              "name": "ki",
              "type": "int256"
            },
            {
              "internalType": "int256",
              "name": "kcrit",
              "type": "int256"
            },
            {
              "internalType": "int256",
              "name": "klow",
              "type": "int256"
            },
            {
              "internalType": "int256",
              "name": "klin",
              "type": "int256"
            },
            {
              "internalType": "int256",
              "name": "beta",
              "type": "int256"
            },
            {
              "internalType": "int256",
              "name": "ri",
              "type": "int256"
            },
            {
              "internalType": "int256",
              "name": "Tcrit",
              "type": "int256"
            }
          ],
          "indexed": false,
          "internalType": "struct IInterestRateModel.Config",
          "name": "config",
          "type": "tuple"
        }
      ],
      "name": "ConfigUpdate",
      "type": "event"
    },
    {
      "anonymous": false,
      "inputs": [
        {
          "indexed": true,
          "internalType": "address",
          "name": "previousOwner",
          "type": "address"
        },
        {
          "indexed": true,
          "internalType": "address",
          "name": "newOwner",
          "type": "address"
        }
      ],
      "name": "OwnershipPending",
      "type": "event"
    },
    {
      "anonymous": false,
      "inputs": [
        {
          "indexed": true,
          "internalType": "address",
          "name": "previousOwner",
          "type": "address"
        },
        {
          "indexed": true,
          "internalType": "address",
          "name": "newOwner",
          "type": "address"
        }
      ],
      "name": "OwnershipTransferred",
      "type": "event"
    },
    {
      "inputs": [],
      "name": "DP",
      "outputs": [
        {
          "internalType": "int256",
          "name": "",
          "type": "int256"
        }
      ],
      "stateMutability": "view",
      "type": "function"
    },
    {
      "inputs": [],
      "name": "RCOMP_MAX",
      "outputs": [
        {
          "internalType": "uint256",
          "name": "",
          "type": "uint256"
        }
      ],
      "stateMutability": "view",
      "type": "function"
    },
    {
      "inputs": [],
      "name": "X_MAX",
      "outputs": [
        {
          "internalType": "int256",
          "name": "",
          "type": "int256"
        }
      ],
      "stateMutability": "view",
      "type": "function"
    },
    {
      "inputs": [],
      "name": "acceptOwnership",
      "outputs": [],
      "stateMutability": "nonpayable",
      "type": "function"
    },
    {
      "inputs": [
        {
          "components": [
            {
              "internalType": "int256",
              "name": "uopt",
              "type": "int256"
            },
            {
              "internalType": "int256",
              "name": "ucrit",
              "type": "int256"
            },
            {
              "internalType": "int256",
              "name": "ulow",
              "type": "int256"
            },
            {
              "internalType": "int256",
              "name": "ki",
              "type": "int256"
            },
            {
              "internalType": "int256",
              "name": "kcrit",
              "type": "int256"
            },
            {
              "internalType": "int256",
              "name": "klow",
              "type": "int256"
            },
            {
              "internalType": "int256",
              "name": "klin",
              "type": "int256"
            },
            {
              "internalType": "int256",
              "name": "beta",
              "type": "int256"
            },
            {
              "internalType": "int256",
              "name": "ri",
              "type": "int256"
            },
            {
              "internalType": "int256",
              "name": "Tcrit",
              "type": "int256"
            }
          ],
          "internalType": "struct IInterestRateModel.Config",
          "name": "_c",
          "type": "tuple"
        },
        {
          "internalType": "int256",
          "name": "_u",
          "type": "int256"
        },
        {
          "internalType": "uint256",
          "name": "_interestRateTimestamp",
          "type": "uint256"
        },
        {
          "internalType": "uint256",
          "name": "_blockTimestamp",
          "type": "uint256"
        }
      ],
      "name": "calculateCompoundInterestRate",
      "outputs": [
        {
          "internalType": "uint256",
          "name": "rcomp",
          "type": "uint256"
        },
        {
          "internalType": "int256",
          "name": "ri",
          "type": "int256"
        },
        {
          "internalType": "int256",
          "name": "Tcrit",
          "type": "int256"
        }
      ],
      "stateMutability": "pure",
      "type": "function"
    },
    {
      "inputs": [
        {
          "components": [
            {
              "internalType": "int256",
              "name": "uopt",
              "type": "int256"
            },
            {
              "internalType": "int256",
              "name": "ucrit",
              "type": "int256"
            },
            {
              "internalType": "int256",
              "name": "ulow",
              "type": "int256"
            },
            {
              "internalType": "int256",
              "name": "ki",
              "type": "int256"
            },
            {
              "internalType": "int256",
              "name": "kcrit",
              "type": "int256"
            },
            {
              "internalType": "int256",
              "name": "klow",
              "type": "int256"
            },
            {
              "internalType": "int256",
              "name": "klin",
              "type": "int256"
            },
            {
              "internalType": "int256",
              "name": "beta",
              "type": "int256"
            },
            {
              "internalType": "int256",
              "name": "ri",
              "type": "int256"
            },
            {
              "internalType": "int256",
              "name": "Tcrit",
              "type": "int256"
            }
          ],
          "internalType": "struct IInterestRateModel.Config",
          "name": "_c",
          "type": "tuple"
        },
        {
          "internalType": "int256",
          "name": "_u",
          "type": "int256"
        },
        {
          "internalType": "uint256",
          "name": "_interestRateTimestamp",
          "type": "uint256"
        },
        {
          "internalType": "uint256",
          "name": "_blockTimestamp",
          "type": "uint256"
        }
      ],
      "name": "calculateCurrentInterestRate",
      "outputs": [
        {
          "internalType": "uint256",
          "name": "rcur",
          "type": "uint256"
        }
      ],
      "stateMutability": "pure",
      "type": "function"
    },
    {
      "inputs": [
        {
          "internalType": "address",
          "name": "",
          "type": "address"
        },
        {
          "internalType": "address",
          "name": "",
          "type": "address"
        }
      ],
      "name": "config",
      "outputs": [
        {
          "internalType": "int256",
          "name": "uopt",
          "type": "int256"
        },
        {
          "internalType": "int256",
          "name": "ucrit",
          "type": "int256"
        },
        {
          "internalType": "int256",
          "name": "ulow",
          "type": "int256"
        },
        {
          "internalType": "int256",
          "name": "ki",
          "type": "int256"
        },
        {
          "internalType": "int256",
          "name": "kcrit",
          "type": "int256"
        },
        {
          "internalType": "int256",
          "name": "klow",
          "type": "int256"
        },
        {
          "internalType": "int256",
          "name": "klin",
          "type": "int256"
        },
        {
          "internalType": "int256",
          "name": "beta",
          "type": "int256"
        },
        {
          "internalType": "int256",
          "name": "ri",
          "type": "int256"
        },
        {
          "internalType": "int256",
          "name": "Tcrit",
          "type": "int256"
        }
      ],
      "stateMutability": "view",
      "type": "function"
    },
    {
      "inputs": [
        {
          "internalType": "address",
          "name": "_silo",
          "type": "address"
        },
        {
          "internalType": "address",
          "name": "_asset",
          "type": "address"
        },
        {
          "internalType": "uint256",
          "name": "_blockTimestamp",
          "type": "uint256"
        }
      ],
      "name": "getCompoundInterestRate",
      "outputs": [
        {
          "internalType": "uint256",
          "name": "rcomp",
          "type": "uint256"
        }
      ],
      "stateMutability": "view",
      "type": "function"
    },
    {
      "inputs": [
        {
          "internalType": "address",
          "name": "_asset",
          "type": "address"
        },
        {
          "internalType": "uint256",
          "name": "_blockTimestamp",
          "type": "uint256"
        }
      ],
      "name": "getCompoundInterestRateAndUpdate",
      "outputs": [
        {
          "internalType": "uint256",
          "name": "rcomp",
          "type": "uint256"
        }
      ],
      "stateMutability": "nonpayable",
      "type": "function"
    },
    {
      "inputs": [
        {
          "internalType": "address",
          "name": "_silo",
          "type": "address"
        },
        {
          "internalType": "address",
          "name": "_asset",
          "type": "address"
        }
      ],
      "name": "getConfig",
      "outputs": [
        {
          "components": [
            {
              "internalType": "int256",
              "name": "uopt",
              "type": "int256"
            },
            {
              "internalType": "int256",
              "name": "ucrit",
              "type": "int256"
            },
            {
              "internalType": "int256",
              "name": "ulow",
              "type": "int256"
            },
            {
              "internalType": "int256",
              "name": "ki",
              "type": "int256"
            },
            {
              "internalType": "int256",
              "name": "kcrit",
              "type": "int256"
            },
            {
              "internalType": "int256",
              "name": "klow",
              "type": "int256"
            },
            {
              "internalType": "int256",
              "name": "klin",
              "type": "int256"
            },
            {
              "internalType": "int256",
              "name": "beta",
              "type": "int256"
            },
            {
              "internalType": "int256",
              "name": "ri",
              "type": "int256"
            },
            {
              "internalType": "int256",
              "name": "Tcrit",
              "type": "int256"
            }
          ],
          "internalType": "struct IInterestRateModel.Config",
          "name": "",
          "type": "tuple"
        }
      ],
      "stateMutability": "view",
      "type": "function"
    },
    {
      "inputs": [
        {
          "internalType": "address",
          "name": "_silo",
          "type": "address"
        },
        {
          "internalType": "address",
          "name": "_asset",
          "type": "address"
        },
        {
          "internalType": "uint256",
          "name": "_blockTimestamp",
          "type": "uint256"
        }
      ],
      "name": "getCurrentInterestRate",
      "outputs": [
        {
          "internalType": "uint256",
          "name": "rcur",
          "type": "uint256"
        }
      ],
      "stateMutability": "view",
      "type": "function"
    },
    {
      "inputs": [],
      "name": "owner",
      "outputs": [
        {
          "internalType": "address",
          "name": "",
          "type": "address"
        }
      ],
      "stateMutability": "view",
      "type": "function"
    },
    {
      "inputs": [],
      "name": "pendingOwner",
      "outputs": [
        {
          "internalType": "address",
          "name": "",
          "type": "address"
        }
      ],
      "stateMutability": "view",
      "type": "function"
    },
    {
      "inputs": [],
      "name": "renounceOwnership",
      "outputs": [],
      "stateMutability": "nonpayable",
      "type": "function"
    },
    {
      "inputs": [
        {
          "internalType": "address",
          "name": "_silo",
          "type": "address"
        },
        {
          "internalType": "address",
          "name": "_asset",
          "type": "address"
        },
        {
          "components": [
            {
              "internalType": "int256",
              "name": "uopt",
              "type": "int256"
            },
            {
              "internalType": "int256",
              "name": "ucrit",
              "type": "int256"
            },
            {
              "internalType": "int256",
              "name": "ulow",
              "type": "int256"
            },
            {
              "internalType": "int256",
              "name": "ki",
              "type": "int256"
            },
            {
              "internalType": "int256",
              "name": "kcrit",
              "type": "int256"
            },
            {
              "internalType": "int256",
              "name": "klow",
              "type": "int256"
            },
            {
              "internalType": "int256",
              "name": "klin",
              "type": "int256"
            },
            {
              "internalType": "int256",
              "name": "beta",
              "type": "int256"
            },
            {
              "internalType": "int256",
              "name": "ri",
              "type": "int256"
            },
            {
              "internalType": "int256",
              "name": "Tcrit",
              "type": "int256"
            }
          ],
          "internalType": "struct IInterestRateModel.Config",
          "name": "_config",
          "type": "tuple"
        }
      ],
      "name": "setConfig",
      "outputs": [],
      "stateMutability": "nonpayable",
      "type": "function"
    },
    {
      "inputs": [
        {
          "internalType": "address",
          "name": "newOwner",
          "type": "address"
        }
      ],
      "name": "transferOwnership",
      "outputs": [],
      "stateMutability": "nonpayable",
      "type": "function"
    },
    {
      "inputs": [
        {
          "internalType": "address",
          "name": "newPendingOwner",
          "type": "address"
        }
      ],
      "name": "transferPendingOwnership",
      "outputs": [],
      "stateMutability": "nonpayable",
      "type": "function"
    }
  ],
  "transactionHash": "0x67aaec5317a230b677079eff9dc924a291a4ad33b2d042f8e5134e2c50056500",
  "args": [
    {
      "uopt": "200000000000000000",
      "ucrit": "600000000000000000",
      "ulow": "100000000000000000",
      "ki": "45876",
      "kcrit": "79274479959",
      "klow": "31709791983",
      "klin": "3963723997",
      "beta": "138888888888888",
      "ri": "0",
      "Tcrit": "0"
    }
  ],
  "numDeployments": 2,
  "solcInputHash": "513d71c9d0c126d5b4efd168466082e1",
  "bytecode": "0x60806040523480156200001157600080fd5b5060405162002747380380620027478339810160408190526200003491620001d6565b6200003f3362000054565b6200004d60008083620000a4565b5062000298565b600080546001600160a01b038381166001600160a01b0319831681178455604051919092169283917f8be0079c531659141344cd1fd0a4f28419497f9722a3daafe3b4186f6b6457e09190a35050565b6001600160a01b03808416600081815260026020818152604080842095881680855295825292839020865181559086015160018201558286015191810191909155606085015160038201556080850151600482015560a0850151600582015560c0850151600682015560e085015160078201556101008501516008820155610120850151600990910155517ff254631d9ea3e3ab061b1c56e1215a268abf5ff28a460b255f308aac112df45890620001c9908590600061014082019050825182526020830151602083015260408301516040830152606083015160608301526080830151608083015260a083015160a083015260c083015160c083015260e083015160e083015261010080840151818401525061012080840151818401525092915050565b60405180910390a3505050565b60006101408284031215620001ea57600080fd5b620001f462000260565b825181526020830151602082015260408301516040820152606083015160608201526080830151608082015260a083015160a082015260c083015160c082015260e083015160e08201526101008084015181830152506101208084015181830152508091505092915050565b60405161014081016001600160401b03811182821017156200029257634e487b7160e01b600052604160045260246000fd5b60405290565b61249f80620002a86000396000f3fe608060405234801561001057600080fd5b506004361061010b5760003560e01c806379ba5097116100a2578063bbdcbed611610071578063bbdcbed614610219578063cbf75c9a14610239578063e076a551146102f2578063e30c397814610311578063f2fde38b1461032257600080fd5b806379ba5097146101c957806381b51e0c146101d15780638da5cb5b146101e1578063b1e017651461020657600080fd5b80633a191482116100de5780633a191482146101715780636bcc82161461019f578063715018a6146101ae57806374a3e924146101b657600080fd5b806303dc12fc14610110578063071962ff146101365780630d26ee9b146101495780633278c6941461015c575b600080fd5b61012361011e366004612006565b610335565b6040519081526020015b60405180910390f35b610123610144366004611fca565b61048a565b61012361015736600461204d565b610553565b61016f61016a366004611f2b565b6106f6565b005b61018461017f36600461204d565b6107ab565b6040805193845260208401929092529082015260600161012d565b610123670de0b6b3a764000081565b61016f610c35565b61016f6101c4366004611f79565b610c7a565b61016f610cd1565b6101236804cf46d8192b672ecb81565b6000546001600160a01b03165b6040516001600160a01b03909116815260200161012d565b610123610214366004611fca565b610d67565b61022c610227366004611f46565b610e33565b60405161012d91906120d9565b6102a8610247366004611f46565b600260205281600052604060002060205280600052604060002060009150915050806000015490806001015490806002015490806003015490806004015490806005015490806006015490806007015490806008015490806009015490508a565b604080519a8b5260208b0199909952978901969096526060880194909452608087019290925260a086015260c085015260e08401526101008301526101208201526101400161012d565b610123770de0b6b3a763ffff493b7bec438eaf141b844d2356e0000081565b6001546001600160a01b03166101ee565b61016f610330366004611f2b565b611128565b6000336104486103458286610e33565b60405163fdce864360e01b81526001600160a01b0387811660048301526103c9919085169063fdce8643906024015b60206040518083038186803b15801561038c57600080fd5b505afa1580156103a0573d6000803e3d6000fd5b505050506040513d601f19601f820116820180604052508101906103c4919061208b565b6111d2565b60405163011d3b9960e41b81526001600160a01b0388811660048301528516906311d3b9909060240160206040518083038186803b15801561040a57600080fd5b505afa15801561041e573d6000803e3d6000fd5b505050506040513d601f19601f82011682018060405250810190610442919061208b565b866107ab565b6001600160a01b039384166000908152600260209081526040808320999096168252979097529290952060098101929092556008909101939093555090919050565b600061054b6104998585610e33565b60405163fdce864360e01b81526001600160a01b0386811660048301526104cc919088169063fdce864390602401610374565b60405163011d3b9960e41b81526001600160a01b0387811660048301528816906311d3b9909060240160206040518083038186803b15801561050d57600080fd5b505afa158015610521573d6000803e3d6000fd5b505050506040513d601f19601f82011682018060405250810190610545919061208b565b85610553565b949350505050565b6000806105636103c48585612426565b9050600086602001518613156105f357670de0b6b3a76400008088602001518861058d91906123e7565b848a60e0015161059d9190612343565b6101208b01516105b590670de0b6b3a7640000612182565b6105bf9190612182565b8a608001516105ce9190612343565b6105d89190612343565b6105e291906121c3565b6105ec91906121c3565b9050610632565b61062f6000670de0b6b3a764000089604001518961061191906123e7565b8a60a001516106209190612343565b61062a91906121c3565b611240565b90505b6000670de0b6b3a7640000878960c0015161064d9190612343565b61065791906121c3565b9050600061066a89610100015183611258565b90506106bc670de0b6b3a7640000858b600001518b61068991906123e7565b8c606001516106989190612343565b6106a29190612343565b6106ac91906121c3565b6106b69083612182565b83611258565b90506106d96106d46106ce8584612182565b84611258565b611267565b94506106e96301e13380866123c8565b9998505050505050505050565b336107096000546001600160a01b031690565b6001600160a01b0316146107385760405162461bcd60e51b815260040161072f906120a4565b60405180910390fd5b806001600160a01b03166107546000546001600160a01b031690565b6001600160a01b03167f3c672e6c16e239c29e969deaf4eae15d7002350bf5490175e7481155af04c83a60405160405180910390a3600180546001600160a01b0319166001600160a01b0392909216919091179055565b60008060008661010001519150866101200151905060006040518061014001604052806000815260200160008152602001600081526020016000815260200160008152602001600081526020016000815260200160008152602001600081526020016000815250905061082386866103c49190612426565b81528751670de0b6b3a76400009061083b90896123e7565b896060015161084a9190612343565b61085491906121c3565b60208083019190915288015187131561094857670de0b6b3a76400008089602001518961088191906123e7565b61089385670de0b6b3a7640000612182565b8b608001516108a29190612343565b6108ac9190612343565b6108b691906121c3565b6108c091906121c3565b60408201526020880151670de0b6b3a76400009081906108e0908a6123e7565b8a60e001518b608001516108f49190612343565b6108fe9190612343565b61090891906121c3565b61091291906121c3565b81602001516109219190612182565b6060820152805160e08901516109379190612343565b6109419083612182565b91506109ae565b6109756000670de0b6b3a76400008a604001518a61096691906123e7565b8b60a001516106209190612343565b604082015260208101516060820152805160e08901516109ab9160009161099c9190612343565b6109a690856123e7565b611258565b91505b670de0b6b3a7640000878960c001516109c79190612343565b6109d191906121c3565b60a082018190526109e3908490611258565b92508060400151836109f59190612182565b608082015280516060820151610a0b9190612343565b8160800151610a1a9190612182565b60c082015260a0810151608082015112801590610a3f57508060a001518160c0015112155b15610a7b57805160c0820151608083015160029291610a5d91612182565b610a679190612343565b610a7191906121c3565b60e0820152610b85565b8060a001518160800151128015610a9957508060a001518160c00151125b15610aaf57805160a0820151610a719190612343565b8060a00151816080015112158015610ace57508060a001518160c00151125b15610b29576002816060015160028360a001518460800151610af091906123e7565b610afa9190612334565b610b0491906121c3565b610b0e91906121c3565b815160a0830151610b1f9190612343565b610a7191906123e7565b6002816060015160028360a001518460c00151610b4691906123e7565b610b509190612334565b610b5a91906121c3565b610b6491906121c3565b815160a0830151610b759190612343565b610b7f9190612182565b60e08201525b6804cf46d8192b672ecb8160e0015112610bb957770de0b6b3a763ffff493b7bec438eaf141b844d2356e000009350610c00565b670de0b6b3a7640000610bcf8260e001516112b9565b610bd991906123e7565b6101208201819052600012610bef576000610bfd565b610bfd816101200151611267565b93505b80516020820151610c2891610c1491612343565b610c1e9085612182565b8260a00151611258565b9250509450945094915050565b33610c486000546001600160a01b031690565b6001600160a01b031614610c6e5760405162461bcd60e51b815260040161072f906120a4565b610c786000611312565b565b33610c8d6000546001600160a01b031690565b6001600160a01b031614610cb35760405162461bcd60e51b815260040161072f906120a4565b610ccc8383610cc736859003850185612030565b611362565b505050565b6001546001600160a01b03163314610d3b5760405162461bcd60e51b815260206004820152602760248201527f4f776e61626c653a2063616c6c6572206973206e6f74207468652070656e64696044820152663733a7bbb732b960c91b606482015260840161072f565b610d55610d506001546001600160a01b031690565b611312565b600180546001600160a01b0319169055565b6000610e28610d768585610e33565b60405163fdce864360e01b81526001600160a01b038681166004830152610da9919088169063fdce864390602401610374565b60405163011d3b9960e41b81526001600160a01b0387811660048301528816906311d3b9909060240160206040518083038186803b158015610dea57600080fd5b505afa158015610dfe573d6000803e3d6000fd5b505050506040513d601f19601f82011682018060405250810190610e22919061208b565b856107ab565b509095945050505050565b610e89604051806101400160405280600081526020016000815260200160008152602001600081526020016000815260200160008152602001600081526020016000815260200160008152602001600081525090565b6001600160a01b0380841660009081526002602090815260408083209386168352929052205415610f4f57506001600160a01b0380831660009081526002602081815260408084209486168452938152918390208351610140810185528154815260018201549381019390935290810154928201929092526003820154606082015260048201546080820152600582015460a0820152600682015460c0820152600782015460e08201526008820154610100820152600990910154610120820152611122565b5060408051610140810182527f6ee3efecae883df2d7ccda22610b4ca771a299e707cb0d65c4ec97dc4e6668ad5481527f6ee3efecae883df2d7ccda22610b4ca771a299e707cb0d65c4ec97dc4e6668ae546020828101919091527f6ee3efecae883df2d7ccda22610b4ca771a299e707cb0d65c4ec97dc4e6668af54828401527f6ee3efecae883df2d7ccda22610b4ca771a299e707cb0d65c4ec97dc4e6668b05460608301527f6ee3efecae883df2d7ccda22610b4ca771a299e707cb0d65c4ec97dc4e6668b15460808301527f6ee3efecae883df2d7ccda22610b4ca771a299e707cb0d65c4ec97dc4e6668b25460a08301527f6ee3efecae883df2d7ccda22610b4ca771a299e707cb0d65c4ec97dc4e6668b35460c08301527f6ee3efecae883df2d7ccda22610b4ca771a299e707cb0d65c4ec97dc4e6668b45460e08301527f6ee3efecae883df2d7ccda22610b4ca771a299e707cb0d65c4ec97dc4e6668b55461010083019081527f6ee3efecae883df2d7ccda22610b4ca771a299e707cb0d65c4ec97dc4e6668b65461012084019081526001600160a01b0387811660009081526002855286812091881680825282865296812060088101549094529590955293909152600901549091525b92915050565b3361113b6000546001600160a01b031690565b6001600160a01b0316146111615760405162461bcd60e51b815260040161072f906120a4565b6001600160a01b0381166111c65760405162461bcd60e51b815260206004820152602660248201527f4f776e61626c653a206e6577206f776e657220697320746865207a65726f206160448201526564647265737360d01b606482015260840161072f565b6111cf81611312565b50565b60006001600160ff1b0382111561123c5760405162461bcd60e51b815260206004820152602860248201527f53616665436173743a2076616c756520646f65736e27742066697420696e2061604482015267371034b73a191a9b60c11b606482015260840161072f565b5090565b600081831261124f5781611251565b825b9392505050565b600081831361124f5781611251565b60008082121561123c5760405162461bcd60e51b815260206004820181905260248201527f53616665436173743a2076616c7565206d75737420626520706f736974697665604482015260640161072f565b600068023f2fa8f6da5b9d31198212156112d557506000919050565b6804cf46d8192b672ecc82126112ea57600080fd5b6714057b7ef767814f8202611251670de0b6b3a76400006706f05b59d3b20000830105611427565b600080546001600160a01b038381166001600160a01b0319831681178455604051919092169283917f8be0079c531659141344cd1fd0a4f28419497f9722a3daafe3b4186f6b6457e09190a35050565b6001600160a01b03808416600081815260026020818152604080842095881680855295825292839020865181559086015160018201558286015191810191909155606085015160038201556080850151600482015560a0850151600582015560c0850151600682015560e085015160078201556101008501516008820155610120850151600990910155517ff254631d9ea3e3ab061b1c56e1215a268abf5ff28a460b255f308aac112df4589061141a9085906120d9565b60405180910390a3505050565b60008082121561147b5768033dd1780914b971141982121561144b57506000919050565b61145782600003611427565b6ec097ce7bc90715b34b9f10000000008161147457611474612453565b0592915050565b6806f05b59d3b2000000821261149057600080fd5b670de0b6b3a7640000608083901b04611251816114ad565b919050565b6001607f1b818116156114d15770016a09e667f3bcc908b2fb1366ea957d3e0260801c5b6001607e1b8216156114f4577001306fe0a31b7152de8d5a46305c85eded0260801c5b6001607d1b821615611517577001172b83c7d517adcdf7c8c50eb14a79200260801c5b6001607c1b82161561153a5770010b5586cf9890f6298b92b71842a983640260801c5b6001607b1b82161561155d577001059b0d31585743ae7c548eb68ca417fe0260801c5b6001607a1b82161561158057700102c9a3e778060ee6f7caca4f7a29bde90260801c5b600160791b8216156115a35770010163da9fb33356d84a66ae336dcdfa400260801c5b600160781b8216156115c657700100b1afa5abcbed6129ab13ec11dc95440260801c5b600160771b8216156115e95770010058c86da1c09ea1ff19d294cf2f679c0260801c5b600160761b82161561160c577001002c605e2e8cec506d21bfc89a23a0110260801c5b600160751b82161561162f57700100162f3904051fa128bca9c55c31e5e00260801c5b600160741b821615611652577001000b175effdc76ba38e31671ca9397260260801c5b600160731b82161561167557700100058ba01fb9f96d6cacd4b180917c3e0260801c5b600160721b8216156116985770010002c5cc37da9491d0985c348c68e7b40260801c5b600160711b8216156116bb577001000162e525ee054754457d59952920270260801c5b600160701b8216156116de5770010000b17255775c040618bf4a4ade83fd0260801c5b6001606f1b821615611701577001000058b91b5bc9ae2eed81e9b7d4cfac0260801c5b6001606e1b82161561172457700100002c5c89d5ec6ca4d7c8acc017b7ca0260801c5b6001606d1b8216156117475770010000162e43f4f831060e02d839a9d16d0260801c5b6001606c1b82161561176a57700100000b1721bcfc99d9f890ea069117630260801c5b6001606b1b82161561178d5770010000058b90cf1e6d97f9ca14dbcc16290260801c5b6001606a1b8216156117b0577001000002c5c863b73f016468f6bac5ca2c0260801c5b600160691b8216156117d357700100000162e430e5a18f6119e3c02282a60260801c5b600160681b8216156117f6577001000000b1721835514b86e6d96efd1bff0260801c5b600160671b82161561181957700100000058b90c0b48c6be5df846c5b2f00260801c5b600160661b82161561183c5770010000002c5c8601cc6b9e94213c72737b0260801c5b600160651b82161561185f577001000000162e42fff037df38aa2b219f070260801c5b600160641b8216156118825770010000000b17217fba9c739aa5819f44fa0260801c5b600160631b8216156118a5577001000000058b90bfcdee5acd3c1cedc8240260801c5b600160621b8216156118c857700100000002c5c85fe31f35a6a30da1be510260801c5b600160611b8216156118eb5770010000000162e42ff0999ce3541b9fffd00260801c5b600160601b82161561190e57700100000000b17217f80f4ef5aadda455540260801c5b6001605f1b8216156119315770010000000058b90bfbf8479bd5a81b51ae0260801c5b6001605e1b821615611954577001000000002c5c85fdf84bd62ae30a74cd0260801c5b6001605d1b82161561197757700100000000162e42fefb2fed257559bdaa0260801c5b6001605c1b82161561199a577001000000000b17217f7d5a7716bba4a9af0260801c5b6001605b1b8216156119bd57700100000000058b90bfbe9ddbac5e109ccf0260801c5b6001605a1b8216156119e05770010000000002c5c85fdf4b15de6f17eb0e0260801c5b600160591b821615611a03577001000000000162e42fefa494f1478fde050260801c5b600160581b821615611a265770010000000000b17217f7d20cf927c8e94d0260801c5b600160571b821615611a49577001000000000058b90bfbe8f71cb4e4b33e0260801c5b600160561b821615611a6c57700100000000002c5c85fdf477b662b269460260801c5b600160551b821615611a8f5770010000000000162e42fefa3ae53369388d0260801c5b600160541b821615611ab257700100000000000b17217f7d1d351a389d410260801c5b600160531b821615611ad55770010000000000058b90bfbe8e8b2d3d4edf0260801c5b600160521b821615611af8577001000000000002c5c85fdf4741bea6e77f0260801c5b600160511b821615611b1b57700100000000000162e42fefa39fe95583c30260801c5b600160501b821615611b3e577001000000000000b17217f7d1cfb72b45e30260801c5b6980000000000000000000821615611b6757700100000000000058b90bfbe8e7cc35c3f20260801c5b6940000000000000000000821615611b905770010000000000002c5c85fdf473e242ea390260801c5b6920000000000000000000821615611bb9577001000000000000162e42fefa39f02b772c0260801c5b6910000000000000000000821615611be25770010000000000000b17217f7d1cf7d83c1a0260801c5b6908000000000000000000821615611c0b577001000000000000058b90bfbe8e7bdcbe2e0260801c5b6904000000000000000000821615611c3457700100000000000002c5c85fdf473dea871f0260801c5b6902000000000000000000821615611c5d5770010000000000000162e42fefa39ef44d920260801c5b6901000000000000000000821615611c8657700100000000000000b17217f7d1cf79e9490260801c5b68800000000000000000821615611cae5770010000000000000058b90bfbe8e7bce5450260801c5b68400000000000000000821615611cd6577001000000000000002c5c85fdf473de6eca0260801c5b68200000000000000000821615611cfe57700100000000000000162e42fefa39ef366f0260801c5b68100000000000000000821615611d26577001000000000000000b17217f7d1cf79afa0260801c5b68080000000000000000821615611d4e57700100000000000000058b90bfbe8e7bcd6e0260801c5b68040000000000000000821615611d765770010000000000000002c5c85fdf473de6b30260801c5b68020000000000000000821615611d9e577001000000000000000162e42fefa39ef3590260801c5b68010000000000000000821615611dc65770010000000000000000b17217f7d1cf79ac0260801c5b6001608083901c011b61112281670de0b6b3a7640000600160801b600080806000198587098587029250828110838203039150508060001415611e1b5760008411611e1057600080fd5b508290049050611251565b808411611e2757600080fd5b600084868809600260036001881981018916988990049182028318808302840302808302840302808302840302808302840302808302840302918202909203026000889003889004909101858311909403939093029303949094049190911702949350505050565b80356001600160a01b03811681146114a857600080fd5b60006101408284031215611eb957600080fd5b611ec161214a565b9050813581526020820135602082015260408201356040820152606082013560608201526080820135608082015260a082013560a082015260c082013560c082015260e082013560e082015261010080830135818301525061012080830135818301525092915050565b600060208284031215611f3d57600080fd5b61125182611e8f565b60008060408385031215611f5957600080fd5b611f6283611e8f565b9150611f7060208401611e8f565b90509250929050565b6000806000838503610180811215611f9057600080fd5b611f9985611e8f565b9350611fa760208601611e8f565b9250610140603f1982011215611fbc57600080fd5b506040840190509250925092565b600080600060608486031215611fdf57600080fd5b611fe884611e8f565b9250611ff660208501611e8f565b9150604084013590509250925092565b6000806040838503121561201957600080fd5b61202283611e8f565b946020939093013593505050565b6000610140828403121561204357600080fd5b6112518383611ea6565b6000806000806101a0858703121561206457600080fd5b61206e8686611ea6565b966101408601359650610160860135956101800135945092505050565b60006020828403121561209d57600080fd5b5051919050565b6020808252818101527f4f776e61626c653a2063616c6c6572206973206e6f7420746865206f776e6572604082015260600190565b600061014082019050825182526020830151602083015260408301516040830152606083015160608301526080830151608083015260a083015160a083015260c083015160c083015260e083015160e083015261010080840151818401525061012080840151818401525092915050565b604051610140810167ffffffffffffffff8111828210171561217c57634e487b7160e01b600052604160045260246000fd5b60405290565b600080821280156001600160ff1b03849003851316156121a4576121a461243d565b600160ff1b83900384128116156121bd576121bd61243d565b50500190565b6000826121e057634e487b7160e01b600052601260045260246000fd5b600160ff1b8214600019841416156121fa576121fa61243d565b500590565b80825b60018086116122115750612244565b6001600160ff1b0382900482111561222b5761222b61243d565b8086161561223857918102915b9490941c938002612202565b935093915050565b6000828015612262576001811461226c57612275565b6001915050611122565b82915050611122565b508161228357506000611122565b5060016000821380821461229c5780156122bb576122d5565b6001600160ff1b038390048311156122b6576122b661243d565b6122d5565b6001600160ff1b038390058312156122d5576122d561243d565b50808316156122e15750805b6122f18360011c838402836121ff565b600082136001600160ff1b03829004831116156123105761231061243d565b60008212600160ff1b8290058312161561232c5761232c61243d565b029392505050565b600061125160ff84168361224c565b60006001600160ff1b03818413828413808216868404861116156123695761236961243d565b600160ff1b60008712828116878305891216156123885761238861243d565b600087129250878205871284841616156123a4576123a461243d565b878505871281841616156123ba576123ba61243d565b505050929093029392505050565b60008160001904831182151516156123e2576123e261243d565b500290565b60008083128015600160ff1b8501841216156124055761240561243d565b6001600160ff1b03840183138116156124205761242061243d565b50500390565b6000828210156124385761243861243d565b500390565b634e487b7160e01b600052601160045260246000fd5b634e487b7160e01b600052601260045260246000fdfea2646970667358221220c6793673940963fd6fd59efe138de624139f1eb09ec043183902c87bd08980e364736f6c63430008070033",
  "libraries": {
    "PRBMathSD59x18": "0x7155E418c504Ba314629a2607EF0858482F35300"
  },
  "devdoc": {
    "kind": "dev",
    "methods": {
      "acceptOwnership()": {
        "details": "Transfers ownership of the contract to a pending owner Can only be called by the pending owner."
      },
      "calculateCompoundInterestRate((int256,int256,int256,int256,int256,int256,int256,int256,int256,int256),int256,uint256,uint256)": {
        "details": "pure function that calculates interest rate based on raw input data",
        "params": {
          "_blockTimestamp": "current block timestamp",
          "_c": "configuration object, InterestRateModel.Config",
          "_interestRateTimestamp": "timestamp of last interest rate update",
          "_u": "asset untilization"
        },
        "returns": {
          "Tcrit": "time during which the utilization exceeds the critical value",
          "rcomp": "compounded interest rate from last update until now",
          "ri": "current integral part of the rate"
        }
      },
      "calculateCurrentInterestRate((int256,int256,int256,int256,int256,int256,int256,int256,int256,int256),int256,uint256,uint256)": {
        "details": "pure function that calculates current annual interest rate",
        "params": {
          "_blockTimestamp": "current block timestamp",
          "_c": "configuration object, InterestRateModel.Config",
          "_interestRateTimestamp": "timestamp of last interest rate update",
          "_u": "asset untilization"
        },
        "returns": {
          "rcur": "current annual interest rate"
        }
      },
      "getCompoundInterestRate(address,address,uint256)": {
        "details": "get compound interest rate",
        "params": {
          "_asset": "address of an asset in Silo for which interest rate should be calculated",
          "_blockTimestamp": "current block timestamp",
          "_silo": "address of Silo"
        },
        "returns": {
          "rcomp": "compounded interest rate from last update until now"
        }
      },
      "getCompoundInterestRateAndUpdate(address,uint256)": {
        "details": "get compound interest rate and update model storage",
        "params": {
          "_asset": "address of an asset in Silo for which interest rate should be calculated",
          "_blockTimestamp": "current block timestamp"
        },
        "returns": {
          "rcomp": "compounded interest rate from last update until now"
        }
      },
      "getCurrentInterestRate(address,address,uint256)": {
        "details": "get current annual interest rate",
        "params": {
          "_asset": "address of an asset in Silo for which interest rate should be calculated",
          "_blockTimestamp": "current block timestamp",
          "_silo": "address of Silo"
        },
        "returns": {
          "rcur": "current annual interest rate"
        }
      },
      "owner()": {
        "details": "Returns the address of the current owner."
      },
      "pendingOwner()": {
        "details": "Returns the address of the pending owner."
      },
      "renounceOwnership()": {
        "details": "Leaves the contract without owner. It will not be possible to call `onlyOwner` functions anymore. Can only be called by the current owner. NOTE: Renouncing ownership will leave the contract without an owner, thereby removing any functionality that is only available to the owner."
      },
      "transferOwnership(address)": {
        "details": "Transfers ownership of the contract to a new account (`newOwner`). Can only be called by the current owner."
      },
      "transferPendingOwnership(address)": {
        "details": "Transfers pending ownership of the contract to a new account (`newPendingOwner`). Can only be called by the current owner."
      }
    },
    "stateVariables": {
      "DP": {
        "details": "DP is 18 decimal points used for integer calculations"
      },
      "RCOMP_MAX": {
        "details": "maximum value of compound interest teh model will return"
      },
      "X_MAX": {
        "details": "maximum value of X for which, RCOMP_MAX should be returned"
      }
    },
    "version": 1
  },
  "userdoc": {
    "kind": "user",
    "methods": {},
    "version": 1
  },
  "storageLayout": {
    "storage": [
      {
        "astId": 19953,
        "contract": "contracts/InterestRateModel.sol:InterestRateModel",
        "label": "_owner",
        "offset": 0,
        "slot": "0",
        "type": "t_address"
      },
      {
        "astId": 19955,
        "contract": "contracts/InterestRateModel.sol:InterestRateModel",
        "label": "_pendingOwner",
        "offset": 0,
        "slot": "1",
        "type": "t_address"
      },
      {
        "astId": 11025,
        "contract": "contracts/InterestRateModel.sol:InterestRateModel",
        "label": "config",
        "offset": 0,
        "slot": "2",
        "type": "t_mapping(t_address,t_mapping(t_address,t_struct(Config)15772_storage))"
      }
    ],
    "types": {
      "t_address": {
        "encoding": "inplace",
        "label": "address",
        "numberOfBytes": "20"
      },
      "t_int256": {
        "encoding": "inplace",
        "label": "int256",
        "numberOfBytes": "32"
      },
      "t_mapping(t_address,t_mapping(t_address,t_struct(Config)15772_storage))": {
        "encoding": "mapping",
        "key": "t_address",
        "label": "mapping(address => mapping(address => struct IInterestRateModel.Config))",
        "numberOfBytes": "32",
        "value": "t_mapping(t_address,t_struct(Config)15772_storage)"
      },
      "t_mapping(t_address,t_struct(Config)15772_storage)": {
        "encoding": "mapping",
        "key": "t_address",
        "label": "mapping(address => struct IInterestRateModel.Config)",
        "numberOfBytes": "32",
        "value": "t_struct(Config)15772_storage"
      },
      "t_struct(Config)15772_storage": {
        "encoding": "inplace",
        "label": "struct IInterestRateModel.Config",
        "members": [
          {
            "astId": 15753,
            "contract": "contracts/InterestRateModel.sol:InterestRateModel",
            "label": "uopt",
            "offset": 0,
            "slot": "0",
            "type": "t_int256"
          },
          {
            "astId": 15755,
            "contract": "contracts/InterestRateModel.sol:InterestRateModel",
            "label": "ucrit",
            "offset": 0,
            "slot": "1",
            "type": "t_int256"
          },
          {
            "astId": 15757,
            "contract": "contracts/InterestRateModel.sol:InterestRateModel",
            "label": "ulow",
            "offset": 0,
            "slot": "2",
            "type": "t_int256"
          },
          {
            "astId": 15759,
            "contract": "contracts/InterestRateModel.sol:InterestRateModel",
            "label": "ki",
            "offset": 0,
            "slot": "3",
            "type": "t_int256"
          },
          {
            "astId": 15761,
            "contract": "contracts/InterestRateModel.sol:InterestRateModel",
            "label": "kcrit",
            "offset": 0,
            "slot": "4",
            "type": "t_int256"
          },
          {
            "astId": 15763,
            "contract": "contracts/InterestRateModel.sol:InterestRateModel",
            "label": "klow",
            "offset": 0,
            "slot": "5",
            "type": "t_int256"
          },
          {
            "astId": 15765,
            "contract": "contracts/InterestRateModel.sol:InterestRateModel",
            "label": "klin",
            "offset": 0,
            "slot": "6",
            "type": "t_int256"
          },
          {
            "astId": 15767,
            "contract": "contracts/InterestRateModel.sol:InterestRateModel",
            "label": "beta",
            "offset": 0,
            "slot": "7",
            "type": "t_int256"
          },
          {
            "astId": 15769,
            "contract": "contracts/InterestRateModel.sol:InterestRateModel",
            "label": "ri",
            "offset": 0,
            "slot": "8",
            "type": "t_int256"
          },
          {
            "astId": 15771,
            "contract": "contracts/InterestRateModel.sol:InterestRateModel",
            "label": "Tcrit",
            "offset": 0,
            "slot": "9",
            "type": "t_int256"
          }
        ],
        "numberOfBytes": "320"
      }
    }
  }
}