{
  "address": "0xbFF323c7a4CaFEBf7d560C7D6364BE9988C83b89",
  "abi": [
    {
      "inputs": [
        {
          "internalType": "address",
          "name": "_repository",
          "type": "address"
        },
        {
          "internalType": "address",
          "name": "_lens",
          "type": "address"
        },
        {
          "internalType": "contract IOracle[]",
          "name": "_oraclesWithSwapOption",
          "type": "address[]"
        },
        {
          "internalType": "contract ISwapper[]",
          "name": "_swappers",
          "type": "address[]"
        }
      ],
      "stateMutability": "nonpayable",
      "type": "constructor"
    },
    {
      "anonymous": false,
      "inputs": [
        {
          "indexed": false,
          "internalType": "address",
          "name": "user",
          "type": "address"
        },
        {
          "indexed": false,
          "internalType": "uint256",
          "name": "quoteAmountFromCollaterals",
          "type": "uint256"
        },
        {
          "indexed": false,
          "internalType": "int256",
          "name": "quoteLeftAfterRepay",
          "type": "int256"
        },
        {
          "indexed": false,
          "internalType": "uint256",
          "name": "gasSpend",
          "type": "uint256"
        }
      ],
      "name": "LiquidationBalance",
      "type": "event"
    },
    {
      "anonymous": false,
      "inputs": [
        {
          "indexed": true,
          "internalType": "address",
          "name": "previousOwner",
          "type": "address"
        },
        {
          "indexed": true,
          "internalType": "address",
          "name": "newOwner",
          "type": "address"
        }
      ],
      "name": "OwnershipTransferred",
      "type": "event"
    },
    {
      "inputs": [],
      "name": "SWAP_AMOUNT_IN_SELECTOR",
      "outputs": [
        {
          "internalType": "bytes4",
          "name": "",
          "type": "bytes4"
        }
      ],
      "stateMutability": "view",
      "type": "function"
    },
    {
      "inputs": [],
      "name": "SWAP_AMOUNT_OUT_SELECTOR",
      "outputs": [
        {
          "internalType": "bytes4",
          "name": "",
          "type": "bytes4"
        }
      ],
      "stateMutability": "view",
      "type": "function"
    },
    {
      "inputs": [
        {
          "internalType": "address[]",
          "name": "_users",
          "type": "address[]"
        },
        {
          "internalType": "contract ISilo[]",
          "name": "_silos",
          "type": "address[]"
        }
      ],
      "name": "checkDebt",
      "outputs": [
        {
          "internalType": "bool[]",
          "name": "",
          "type": "bool[]"
        }
      ],
      "stateMutability": "view",
      "type": "function"
    },
    {
      "inputs": [
        {
          "internalType": "address[]",
          "name": "_users",
          "type": "address[]"
        },
        {
          "internalType": "contract ISilo[]",
          "name": "_silos",
          "type": "address[]"
        }
      ],
      "name": "checkSolvency",
      "outputs": [
        {
          "internalType": "bool[]",
          "name": "",
          "type": "bool[]"
        }
      ],
      "stateMutability": "view",
      "type": "function"
    },
    {
      "inputs": [
        {
          "internalType": "address",
          "name": "",
          "type": "address"
        }
      ],
      "name": "earnings",
      "outputs": [
        {
          "internalType": "uint256",
          "name": "",
          "type": "uint256"
        }
      ],
      "stateMutability": "view",
      "type": "function"
    },
    {
      "inputs": [
        {
          "internalType": "address[]",
          "name": "_users",
          "type": "address[]"
        },
        {
          "internalType": "contract ISilo",
          "name": "_silo",
          "type": "address"
        }
      ],
      "name": "executeLiquidation",
      "outputs": [],
      "stateMutability": "nonpayable",
      "type": "function"
    },
    {
      "inputs": [
        {
          "internalType": "address",
          "name": "_asset",
          "type": "address"
        }
      ],
      "name": "findBestOracle",
      "outputs": [
        {
          "internalType": "contract IOracle",
          "name": "",
          "type": "address"
        }
      ],
      "stateMutability": "view",
      "type": "function"
    },
    {
      "inputs": [],
      "name": "lens",
      "outputs": [
        {
          "internalType": "contract SiloLens",
          "name": "",
          "type": "address"
        }
      ],
      "stateMutability": "view",
      "type": "function"
    },
    {
      "inputs": [
        {
          "internalType": "uint256",
          "name": "",
          "type": "uint256"
        }
      ],
      "name": "oraclesWithSwapOption",
      "outputs": [
        {
          "internalType": "contract IOracle",
          "name": "",
          "type": "address"
        }
      ],
      "stateMutability": "view",
      "type": "function"
    },
    {
      "inputs": [],
      "name": "oraclesWithSwapOptionCount",
      "outputs": [
        {
          "internalType": "uint256",
          "name": "",
          "type": "uint256"
        }
      ],
      "stateMutability": "view",
      "type": "function"
    },
    {
      "inputs": [],
      "name": "owner",
      "outputs": [
        {
          "internalType": "address",
          "name": "",
          "type": "address"
        }
      ],
      "stateMutability": "view",
      "type": "function"
    },
    {
      "inputs": [],
      "name": "quoteToken",
      "outputs": [
        {
          "internalType": "contract IERC20",
          "name": "",
          "type": "address"
        }
      ],
      "stateMutability": "view",
      "type": "function"
    },
    {
      "inputs": [],
      "name": "renounceOwnership",
      "outputs": [],
      "stateMutability": "nonpayable",
      "type": "function"
    },
    {
      "inputs": [],
      "name": "repository",
      "outputs": [
        {
          "internalType": "contract IRepository",
          "name": "",
          "type": "address"
        }
      ],
      "stateMutability": "view",
      "type": "function"
    },
    {
      "inputs": [
        {
          "internalType": "contract IOracle",
          "name": "_oracle",
          "type": "address"
        },
        {
          "internalType": "contract ISwapper",
          "name": "_swapper",
          "type": "address"
        }
      ],
      "name": "setSwapper",
      "outputs": [],
      "stateMutability": "nonpayable",
      "type": "function"
    },
    {
      "inputs": [
        {
          "internalType": "address",
          "name": "_user",
          "type": "address"
        },
        {
          "internalType": "address[]",
          "name": "_assets",
          "type": "address[]"
        },
        {
          "internalType": "uint256[]",
          "name": "_receivedCollaterals",
          "type": "uint256[]"
        },
        {
          "internalType": "uint256[]",
          "name": "_shareAmountsToRepaid",
          "type": "uint256[]"
        },
        {
          "internalType": "bytes",
          "name": "_flashReceiverData",
          "type": "bytes"
        }
      ],
      "name": "siloLiquidationCallback",
      "outputs": [],
      "stateMutability": "nonpayable",
      "type": "function"
    },
    {
      "inputs": [
        {
          "internalType": "address",
          "name": "_asset",
          "type": "address"
        },
        {
          "internalType": "uint256",
          "name": "_amount",
          "type": "uint256"
        }
      ],
      "name": "swapForAsset",
      "outputs": [
        {
          "internalType": "uint256",
          "name": "",
          "type": "uint256"
        }
      ],
      "stateMutability": "nonpayable",
      "type": "function"
    },
    {
      "inputs": [
        {
          "internalType": "address",
          "name": "_asset",
          "type": "address"
        },
        {
          "internalType": "uint256",
          "name": "_amount",
          "type": "uint256"
        }
      ],
      "name": "swapForQuote",
      "outputs": [
        {
          "internalType": "uint256",
          "name": "",
          "type": "uint256"
        }
      ],
      "stateMutability": "nonpayable",
      "type": "function"
    },
    {
      "inputs": [
        {
          "internalType": "contract IOracle",
          "name": "",
          "type": "address"
        }
      ],
      "name": "swappers",
      "outputs": [
        {
          "internalType": "contract ISwapper",
          "name": "",
          "type": "address"
        }
      ],
      "stateMutability": "view",
      "type": "function"
    },
    {
      "inputs": [
        {
          "internalType": "address",
          "name": "newOwner",
          "type": "address"
        }
      ],
      "name": "transferOwnership",
      "outputs": [],
      "stateMutability": "nonpayable",
      "type": "function"
    },
    {
      "inputs": [],
      "name": "withdraw",
      "outputs": [],
      "stateMutability": "nonpayable",
      "type": "function"
    },
    {
      "inputs": [],
      "name": "withdrawEth",
      "outputs": [],
      "stateMutability": "nonpayable",
      "type": "function"
    }
  ],
  "transactionHash": "0x831d225ba171049706c896d111f95d495b9cc23bd7a668cf5f775ccbff01c7a9",
  "args": [
    "0xD50B297f657aE1da36E342df8a8E122C915d6b97",
    "0x2393d7c9DFD5d5Ad46b8933f3e7353c299c216b7",
    [
      "0x95612e5A9D8d6B92a1882E764f00e1f3fCe3A9FA",
      "0xE74763bA8A1a4333dE6fa24eAC31688c82154c63"
    ],
    [
      "0xdCefDF65e6Ccc57D55aC1CA84C56AFfA4229e9Af",
      "0xa29eb4ed7A9F55aD0aC4D2fECEAE0b4aB5f01FB5"
    ]
  ],
  "numDeployments": 2,
  "solcInputHash": "513d71c9d0c126d5b4efd168466082e1",
  "bytecode": "0x60e06040523480156200001157600080fd5b506040516200265738038062002657833981016040819052620000349162000483565b6200003f3362000306565b6001600160a01b0384166200008e5760405162461bcd60e51b815260206004820152601060248201526f656d707479207265706f7369746f727960801b60448201526064015b60405180910390fd5b6001600160a01b038316620000d35760405162461bcd60e51b815260206004820152600a602482015269656d707479206c656e7360b01b604482015260640162000085565b8151815114620001265760405162461bcd60e51b815260206004820152601360248201527f737761707065727320213d206f7261636c657300000000000000000000000000604482015260640162000085565b6001600160601b0319606085811b821660805284901b1660a05260005b8151811015620001e5578181815181106200016257620001626200060b565b6020026020010151600260008584815181106200018357620001836200060b565b60200260200101516001600160a01b03166001600160a01b0316815260200190815260200160002060006101000a8154816001600160a01b0302191690836001600160a01b031602179055508080620001dc90620005e1565b91505062000143565b508151620001fb90600390602085019062000356565b506000846001600160a01b0316637dc0d1d06040518163ffffffff1660e01b815260040160206040518083038186803b1580156200023857600080fd5b505afa1580156200024d573d6000803e3d6000fd5b505050506040513d601f19601f820116820180604052508101906200027391906200045c565b9050806001600160a01b031663217a4b706040518163ffffffff1660e01b815260040160206040518083038186803b158015620002af57600080fd5b505afa158015620002c4573d6000803e3d6000fd5b505050506040513d601f19601f82011682018060405250810190620002ea91906200045c565b60601b6001600160601b03191660c05250620006509350505050565b600080546001600160a01b038381166001600160a01b0319831681178455604051919092169283917f8be0079c531659141344cd1fd0a4f28419497f9722a3daafe3b4186f6b6457e09190a35050565b828054828255906000526020600020908101928215620003ae579160200282015b82811115620003ae57825182546001600160a01b0319166001600160a01b0390911617825560209092019160019091019062000377565b50620003bc929150620003c0565b5090565b5b80821115620003bc5760008155600101620003c1565b600082601f830112620003e957600080fd5b8151602062000402620003fc83620005bb565b62000588565b80838252828201915082860187848660051b89010111156200042357600080fd5b60005b858110156200044f5781516200043c8162000637565b8452928401929084019060010162000426565b5090979650505050505050565b6000602082840312156200046f57600080fd5b81516200047c8162000637565b9392505050565b600080600080608085870312156200049a57600080fd5b8451620004a78162000637565b80945050602080860151620004bc8162000637565b60408701519094506001600160401b0380821115620004da57600080fd5b818801915088601f830112620004ef57600080fd5b815162000500620003fc82620005bb565b8082825285820191508585018c878560051b88010111156200052157600080fd5b600095505b83861015620005515780516200053c8162000637565b83526001959095019491860191860162000526565b5060608b015190975094505050808311156200056c57600080fd5b50506200057c87828801620003d7565b91505092959194509250565b604051601f8201601f191681016001600160401b0381118282101715620005b357620005b362000621565b604052919050565b60006001600160401b03821115620005d757620005d762000621565b5060051b60200190565b60006000198214156200060457634e487b7160e01b600052601160045260246000fd5b5060010190565b634e487b7160e01b600052603260045260246000fd5b634e487b7160e01b600052604160045260246000fd5b6001600160a01b03811681146200064d57600080fd5b50565b60805160601c60a05160601c60c05160601c611f88620006cf600039600081816101b4015281816105620152818161079d015281816107ff0152818161090e01528181610a5701528181610b3d01528181610c880152610cff01526000818161017501526103f101526000818161034901526110cf0152611f886000f3fe608060405234801561001057600080fd5b50600436106101425760003560e01c80638d46a1fa116100b8578063dde643031161007c578063dde643031461031e578063e7b43da514610331578063e9176c6014610344578063e996db2b1461036b578063effca70514610373578063f2fde38b1461038657600080fd5b80638d46a1fa146102cc5780638da5cb5b146102df578063a0ef91df146102f0578063bf0cbdb7146102f8578063c424ec771461030b57600080fd5b80634cee966a1161010a5780634cee966a14610220578063543fd31314610233578063639e7d2314610261578063715018a614610288578063801ef100146102905780638cad7fbe146102a357600080fd5b806303a69c9a14610147578063112666b714610170578063217a4b70146101af57806329bee73d146101d65780633ccfd60b14610216575b600080fd5b61015a610155366004611aa8565b610399565b6040516101679190611ced565b60405180910390f35b6101977f000000000000000000000000000000000000000000000000000000000000000081565b6040516001600160a01b039091168152602001610167565b6101977f000000000000000000000000000000000000000000000000000000000000000081565b6101fd7f9cffaf6fb5a9865a918eb304cffc7751c01747ee00e8e35a30144c35b800d32e81565b6040516001600160e01b03199091168152602001610167565b61021e610512565b005b61019761022e366004611825565b6105e2565b610253610241366004611825565b60016020526000908152604090205481565b604051908152602001610167565b6101fd7f168c66b4ef41014cf231456cf6fce893ddb0a4a9bbef08aa50af66187c72fa1c81565b61021e61071e565b61019761029e366004611c15565b61075d565b6101976102b1366004611825565b6002602052600090815260409020546001600160a01b031681565b6102536102da36600461198c565b610787565b6000546001600160a01b0316610197565b61021e610af5565b61021e610306366004611b73565b610bc6565b61025361031936600461198c565b610c7c565b61015a61032c366004611aa8565b610f1e565b61021e61033f366004611866565b61109f565b6101977f000000000000000000000000000000000000000000000000000000000000000081565b600354610253565b61021e610381366004611be7565b61152f565b61021e610394366004611825565b611587565b60606000835167ffffffffffffffff8111156103b7576103b7611f27565b6040519080825280602002602001820160405280156103e0578160200160208202803683370190505b50905060005b8451811015610508577f00000000000000000000000000000000000000000000000000000000000000006001600160a01b0316638705c35985838151811061043057610430611f11565b602002602001015187848151811061044a5761044a611f11565b60200260200101516040518363ffffffff1660e01b81526004016104849291906001600160a01b0392831681529116602082015260400190565b60206040518083038186803b15801561049c57600080fd5b505afa1580156104b0573d6000803e3d6000fd5b505050506040513d601f19601f820116820180604052508101906104d49190611bc5565b8282815181106104e6576104e6611f11565b911515602092830291909101909101528061050081611ee0565b9150506103e6565b5090505b92915050565b336000908152600160205260409020548061052a5750565b33600081815260016020526040808220919091555163a9059cbb60e01b81526004810191909152602481018290526001600160a01b037f0000000000000000000000000000000000000000000000000000000000000000169063a9059cbb90604401602060405180830381600087803b1580156105a657600080fd5b505af11580156105ba573d6000803e3d6000fd5b505050506040513d601f19601f820116820180604052508101906105de9190611bc5565b5050565b600080600380548060200260200160405190810160405280929190818152602001828054801561063b57602002820191906000526020600020905b81546001600160a01b0316815260019091019060200180831161061d575b5050505050905060008060005b835181101561071557600084828151811061066557610665611f11565b6020908102919091010151604051631befe8b360e21b81526001600160a01b038981166004830152919250600091831690636fbfa2cc9060240160206040518083038186803b1580156106b757600080fd5b505afa1580156106cb573d6000803e3d6000fd5b505050506040513d601f19601f820116820180604052508101906106ef9190611c2e565b905084811115610700578193508094505b5050808061070d90611ee0565b915050610648565b50949350505050565b6000546001600160a01b031633146107515760405162461bcd60e51b815260040161074890611d33565b60405180910390fd5b61075b6000611622565b565b6003818154811061076d57600080fd5b6000918252602090912001546001600160a01b0316905081565b60008115806107c75750826001600160a01b03167f00000000000000000000000000000000000000000000000000000000000000006001600160a01b0316145b156107d357508061050c565b60006107de846105e2565b6001600160a01b0381811660008181526002602090815260408083205481517f0000000000000000000000000000000000000000000000000000000000000000871660248201528b871660448201819052606482018c9052608482019690965260a4808201969096528251808203909601865260c401825284830180516001600160e01b03166305a319ad60e21b1790528151636d9b759760e11b815291519697509094169492939192859263db36eb2e926004808301939192829003018186803b1580156108ac57600080fd5b505afa1580156108c0573d6000803e3d6000fd5b505050506040513d601f19601f820116820180604052508101906108e49190611849565b60405163095ea7b360e01b81526001600160a01b03808316600483015260001960248301529192507f00000000000000000000000000000000000000000000000000000000000000009091169063095ea7b390604401602060405180830381600087803b15801561095457600080fd5b505af1158015610968573d6000803e3d6000fd5b505050506040513d601f19601f8201168201806040525081019061098c9190611bc5565b50600080846001600160a01b0316846040516109a89190611c47565b600060405180830381855af49150503d80600081146109e3576040519150601f19603f3d011682016040523d82523d6000602084013e6109e8565b606091505b509150915081610a315760405162461bcd60e51b81526020600482015260146024820152731cddd85c105b5bdd5b9d13dd5d0819985a5b195960621b6044820152606401610748565b60405163095ea7b360e01b81526001600160a01b038481166004830152600060248301527f0000000000000000000000000000000000000000000000000000000000000000169063095ea7b390604401602060405180830381600087803b158015610a9b57600080fd5b505af1158015610aaf573d6000803e3d6000fd5b505050506040513d601f19601f82011682018060405250810190610ad39190611bc5565b5080806020019051810190610ae89190611c2e565b9998505050505050505050565b3360009081526001602052604090205480610b0d5750565b336000908152600160205260408082209190915551632e1a7d4d60e01b8152600481018290526001600160a01b037f00000000000000000000000000000000000000000000000000000000000000001690632e1a7d4d90602401600060405180830381600087803b158015610b8157600080fd5b505af1158015610b95573d6000803e3d6000fd5b505060405133925083156108fc02915083906000818181858888f193505050501580156105de573d6000803e3d6000fd5b60005a9050816001600160a01b03166309e6d0cf84303085604051602001610bf091815260200190565b6040516020818303038152906040526040518563ffffffff1660e01b8152600401610c1e9493929190611c63565b600060405180830381600087803b158015610c3857600080fd5b505af1158015610c4c573d6000803e3d6000fd5b505050506040513d6000823e601f3d908101601f19168201604052610c7491908101906119b8565b505050505050565b6000811580610cbc57507f00000000000000000000000000000000000000000000000000000000000000006001600160a01b0316836001600160a01b0316145b15610cc857508061050c565b6000610cd3846105e2565b6001600160a01b038181166000818152600260209081526040918290205482518a8616602482018190527f000000000000000000000000000000000000000000000000000000000000000087166044830152606482018b9052608482019590955260a48082018690528451808303909101815260c4909101845280830180516001600160e01b0316639cffaf6f60e01b1790528351636d9b759760e11b8152935196975094169463095ea7b392869263db36eb2e92600480840193829003018186803b158015610da257600080fd5b505afa158015610db6573d6000803e3d6000fd5b505050506040513d601f19601f82011682018060405250810190610dda9190611849565b6040516001600160e01b031960e084901b1681526001600160a01b03909116600482015260248101889052604401602060405180830381600087803b158015610e2257600080fd5b505af1158015610e36573d6000803e3d6000fd5b505050506040513d601f19601f82011682018060405250810190610e5a9190611bc5565b50600080836001600160a01b031683604051610e769190611c47565b600060405180830381855af49150503d8060008114610eb1576040519150601f19603f3d011682016040523d82523d6000602084013e610eb6565b606091505b509150915081610efe5760405162461bcd60e51b81526020600482015260136024820152721cddd85c105b5bdd5b9d125b8819985a5b1959606a1b6044820152606401610748565b80806020019051810190610f129190611c2e565b98975050505050505050565b60608151835114610f5a5760405162461bcd60e51b8152600401610748906020808252600490820152636f6f707360e01b604082015260600190565b6000835167ffffffffffffffff811115610f7657610f76611f27565b604051908082528060200260200182016040528015610f9f578160200160208202803683370190505b50905060005b845181101561050857838181518110610fc057610fc0611f11565b60200260200101516001600160a01b03166338b51ce1868381518110610fe857610fe8611f11565b60200260200101516040518263ffffffff1660e01b815260040161101b91906001600160a01b0391909116815260200190565b60206040518083038186803b15801561103357600080fd5b505afa158015611047573d6000803e3d6000fd5b505050506040513d601f19601f8201168201806040525081019061106b9190611bc5565b82828151811061107d5761107d611f11565b911515602092830291909101909101528061109781611ee0565b915050610fa5565b6000818060200190518101906110b59190611c2e565b60405163025e1b9b60e31b815233600482018190529192507f00000000000000000000000000000000000000000000000000000000000000006001600160a01b0316906312f0dcd89060240160206040518083038186803b15801561111957600080fd5b505afa15801561112d573d6000803e3d6000fd5b505050506040513d601f19601f820116820180604052508101906111519190611bc5565b61118a5760405162461bcd60e51b815260206004820152600a6024820152696e6f7420612053696c6f60b01b6044820152606401610748565b6000805b898110156111ea576111de8b8b838181106111ab576111ab611f11565b90506020020160208101906111c09190611825565b8a8a848181106111d2576111d2611f11565b90506020020135610c7c565b9091019060010161118e565b506000805b8a8110156114045787878281811061120957611209611f11565b905060200201356000141561121d576113f2565b6112658c8c8381811061123257611232611f11565b90506020020160208101906112479190611825565b89898481811061125957611259611f11565b90506020020135610787565b820191508b8b8281811061127b5761127b611f11565b90506020020160208101906112909190611825565b6001600160a01b031663095ea7b3858a8a858181106112b1576112b1611f11565b6040516001600160e01b031960e087901b1681526001600160a01b0390941660048501526020029190910135602483015250604401602060405180830381600087803b15801561130057600080fd5b505af1158015611314573d6000803e3d6000fd5b505050506040513d601f19601f820116820180604052508101906113389190611bc5565b50836001600160a01b031663976ce4958d8d8481811061135a5761135a611f11565b905060200201602081019061136f9190611825565b8f8b8b8681811061138257611382611f11565b6040516001600160e01b031960e088901b1681526001600160a01b03958616600482015294909316602485015250602090910201356044820152606401600060405180830381600087803b1580156113d957600080fd5b505af11580156113ed573d6000803e3d6000fd5b505050505b806113fc81611ee0565b9150506111ef565b5060006114118284611e5a565b905060006114276000546001600160a01b031690565b90506000821261145a576001600160a01b038116600090815260016020526040902054611455908390611dbd565b611489565b61146682600019611dd5565b6001600160a01b0382166000908152600160205260409020546114899190611e99565b6001600160a01b038216600090815260016020526040812091909155615208875a6114b49190611e99565b6114be9190611e99565b90507f6e1a737bede5a157b5cc67b23d86a07ed1b1529f80df499c7808cc7c2fa8052f8f86858460405161151694939291906001600160a01b0394909416845260208401929092526040830152606082015260800190565b60405180910390a1505050505050505050505050505050565b6000546001600160a01b031633146115595760405162461bcd60e51b815260040161074890611d33565b6001600160a01b03918216600090815260026020526040902080546001600160a01b03191691909216179055565b6000546001600160a01b031633146115b15760405162461bcd60e51b815260040161074890611d33565b6001600160a01b0381166116165760405162461bcd60e51b815260206004820152602660248201527f4f776e61626c653a206e6577206f776e657220697320746865207a65726f206160448201526564647265737360d01b6064820152608401610748565b61161f81611622565b50565b600080546001600160a01b038381166001600160a01b0319831681178455604051919092169283917f8be0079c531659141344cd1fd0a4f28419497f9722a3daafe3b4186f6b6457e09190a35050565b60008083601f84011261168457600080fd5b50813567ffffffffffffffff81111561169c57600080fd5b6020830191508360208260051b85010111156116b757600080fd5b9250929050565b600082601f8301126116cf57600080fd5b813560206116e46116df83611d99565b611d68565b80838252828201915082860187848660051b890101111561170457600080fd5b60005b8581101561172c57813561171a81611f3d565b84529284019290840190600101611707565b5090979650505050505050565b600082601f83011261174a57600080fd5b8151602061175a6116df83611d99565b82815281810190858301600585811b8801850189101561177957600080fd5b60005b8681101561181757825167ffffffffffffffff81111561179b57600080fd5b8901603f81018b136117ac57600080fd5b8681015160406117be6116df83611d99565b808382528a820191508285018f84868a1b88010111156117dd57600080fd5b600095505b84861015611800578051835260019590950194918b01918b016117e2565b50895250505094860194509185019160010161177c565b509198975050505050505050565b60006020828403121561183757600080fd5b813561184281611f3d565b9392505050565b60006020828403121561185b57600080fd5b815161184281611f3d565b60008060008060008060008060a0898b03121561188257600080fd5b883561188d81611f3d565b975060208981013567ffffffffffffffff808211156118ab57600080fd5b6118b78d838e01611672565b909a50985060408c01359150808211156118d057600080fd5b6118dc8d838e01611672565b909850965060608c01359150808211156118f557600080fd5b6119018d838e01611672565b909650945060808c013591508082111561191a57600080fd5b818c0191508c601f83011261192e57600080fd5b81358181111561194057611940611f27565b611952601f8201601f19168501611d68565b91508082528d8482850101111561196857600080fd5b80848401858401376000848284010152508093505050509295985092959890939650565b6000806040838503121561199f57600080fd5b82356119aa81611f3d565b946020939093013593505050565b6000806000606084860312156119cd57600080fd5b835167ffffffffffffffff808211156119e557600080fd5b818601915086601f8301126119f957600080fd5b81516020611a096116df83611d99565b8083825282820191508286018b848660051b8901011115611a2957600080fd5b600096505b84871015611a55578051611a4181611f3d565b835260019690960195918301918301611a2e565b5091890151919750909350505080821115611a6f57600080fd5b611a7b87838801611739565b93506040860151915080821115611a9157600080fd5b50611a9e86828701611739565b9150509250925092565b60008060408385031215611abb57600080fd5b823567ffffffffffffffff80821115611ad357600080fd5b611adf868387016116be565b9350602091508185013581811115611af657600080fd5b85019050601f81018613611b0957600080fd5b8035611b176116df82611d99565b80828252848201915084840189868560051b8701011115611b3757600080fd5b600094505b83851015611b63578035611b4f81611f3d565b835260019490940193918501918501611b3c565b5080955050505050509250929050565b60008060408385031215611b8657600080fd5b823567ffffffffffffffff811115611b9d57600080fd5b611ba9858286016116be565b9250506020830135611bba81611f3d565b809150509250929050565b600060208284031215611bd757600080fd5b8151801515811461184257600080fd5b60008060408385031215611bfa57600080fd5b8235611c0581611f3d565b91506020830135611bba81611f3d565b600060208284031215611c2757600080fd5b5035919050565b600060208284031215611c4057600080fd5b5051919050565b60008251611c59818460208701611eb0565b9190910192915050565b6080808252855190820181905260009060209060a0840190828901845b82811015611ca55781516001600160a01b031684529284019290840190600101611c80565b5050506001600160a01b03878116858401528616604085015283810360608501528451808252611cda81838501888601611eb0565b601f01601f191601019695505050505050565b6020808252825182820181905260009190848201906040850190845b81811015611d27578351151583529284019291840191600101611d09565b50909695505050505050565b6020808252818101527f4f776e61626c653a2063616c6c6572206973206e6f7420746865206f776e6572604082015260600190565b604051601f8201601f1916810167ffffffffffffffff81118282101715611d9157611d91611f27565b604052919050565b600067ffffffffffffffff821115611db357611db3611f27565b5060051b60200190565b60008219821115611dd057611dd0611efb565b500190565b60006001600160ff1b0381841382841380821686840486111615611dfb57611dfb611efb565b600160ff1b6000871282811687830589121615611e1a57611e1a611efb565b60008712925087820587128484161615611e3657611e36611efb565b87850587128184161615611e4c57611e4c611efb565b505050929093029392505050565b60008083128015600160ff1b850184121615611e7857611e78611efb565b6001600160ff1b0384018313811615611e9357611e93611efb565b50500390565b600082821015611eab57611eab611efb565b500390565b60005b83811015611ecb578181015183820152602001611eb3565b83811115611eda576000848401525b50505050565b6000600019821415611ef457611ef4611efb565b5060010190565b634e487b7160e01b600052601160045260246000fd5b634e487b7160e01b600052603260045260246000fd5b634e487b7160e01b600052604160045260246000fd5b6001600160a01b038116811461161f57600080fdfea2646970667358221220865dd666b1083bdde83103d2eb9778edfd66f322eaf3696df271069826ac71c264736f6c63430008070033",
  "devdoc": {
    "details": "see https://github.com/silo-finance/liquidation#readme for details how liquidation process should looks like",
    "kind": "dev",
    "methods": {
      "owner()": {
        "details": "Returns the address of the current owner."
      },
      "renounceOwnership()": {
        "details": "Leaves the contract without owner. It will not be possible to call `onlyOwner` functions anymore. Can only be called by the current owner. NOTE: Renouncing ownership will leave the contract without an owner, thereby removing any functionality that is only available to the owner."
      },
      "siloLiquidationCallback(address,address[],uint256[],uint256[],bytes)": {
        "details": "this is working example of how to perform liquidation, this method will be called by Silo         Keep in mind, that this helper might NOT choose the best swap option.         For best results (highest earnings) you probably want to implement your own callback and maybe use some         dex aggregators."
      },
      "swapForAsset(address,uint256)": {
        "details": "it swaps quote token for asset",
        "params": {
          "_amount": "exact amount OUT, what we want to receive",
          "_asset": "address"
        },
        "returns": {
          "_0": "amount of quote token used for swap"
        }
      },
      "transferOwnership(address)": {
        "details": "Transfers ownership of the contract to a new account (`newOwner`). Can only be called by the current owner."
      }
    },
    "version": 1
  },
  "userdoc": {
    "kind": "user",
    "methods": {},
    "version": 1
  },
  "storageLayout": {
    "storage": [
      {
        "astId": 539,
        "contract": "contracts/liquidation/LiquidationHelper.sol:LiquidationHelper",
        "label": "_owner",
        "offset": 0,
        "slot": "0",
        "type": "t_address"
      },
      {
        "astId": 17819,
        "contract": "contracts/liquidation/LiquidationHelper.sol:LiquidationHelper",
        "label": "earnings",
        "offset": 0,
        "slot": "1",
        "type": "t_mapping(t_address,t_uint256)"
      },
      {
        "astId": 17825,
        "contract": "contracts/liquidation/LiquidationHelper.sol:LiquidationHelper",
        "label": "swappers",
        "offset": 0,
        "slot": "2",
        "type": "t_mapping(t_contract(IOracle)15909,t_contract(ISwapper)16378)"
      },
      {
        "astId": 17829,
        "contract": "contracts/liquidation/LiquidationHelper.sol:LiquidationHelper",
        "label": "oraclesWithSwapOption",
        "offset": 0,
        "slot": "3",
        "type": "t_array(t_contract(IOracle)15909)dyn_storage"
      }
    ],
    "types": {
      "t_address": {
        "encoding": "inplace",
        "label": "address",
        "numberOfBytes": "20"
      },
      "t_array(t_contract(IOracle)15909)dyn_storage": {
        "base": "t_contract(IOracle)15909",
        "encoding": "dynamic_array",
        "label": "contract IOracle[]",
        "numberOfBytes": "32"
      },
      "t_contract(IOracle)15909": {
        "encoding": "inplace",
        "label": "contract IOracle",
        "numberOfBytes": "20"
      },
      "t_contract(ISwapper)16378": {
        "encoding": "inplace",
        "label": "contract ISwapper",
        "numberOfBytes": "20"
      },
      "t_mapping(t_address,t_uint256)": {
        "encoding": "mapping",
        "key": "t_address",
        "label": "mapping(address => uint256)",
        "numberOfBytes": "32",
        "value": "t_uint256"
      },
      "t_mapping(t_contract(IOracle)15909,t_contract(ISwapper)16378)": {
        "encoding": "mapping",
        "key": "t_contract(IOracle)15909",
        "label": "mapping(contract IOracle => contract ISwapper)",
        "numberOfBytes": "32",
        "value": "t_contract(ISwapper)16378"
      },
      "t_uint256": {
        "encoding": "inplace",
        "label": "uint256",
        "numberOfBytes": "32"
      }
    }
  }
}