{
  "address": "0x1e5D2eE987393aD8fb1b32ddc5Ffc7121098902a",
  "abi": [
    {
      "inputs": [
        {
          "internalType": "address",
          "name": "_repository",
          "type": "address"
        },
        {
          "internalType": "address",
          "name": "_lens",
          "type": "address"
        },
        {
          "internalType": "contract IPriceProvider[]",
          "name": "_priceProvidersWithSwapOption",
          "type": "address[]"
        },
        {
          "internalType": "contract ISwapper[]",
          "name": "_swappers",
          "type": "address[]"
        }
      ],
      "stateMutability": "nonpayable",
      "type": "constructor"
    },
    {
      "anonymous": false,
      "inputs": [
        {
          "indexed": false,
          "internalType": "address",
          "name": "user",
          "type": "address"
        },
        {
          "indexed": false,
          "internalType": "uint256",
          "name": "quoteAmountFromCollaterals",
          "type": "uint256"
        },
        {
          "indexed": false,
          "internalType": "int256",
          "name": "quoteLeftAfterRepay",
          "type": "int256"
        },
        {
          "indexed": false,
          "internalType": "uint256",
          "name": "gasSpend",
          "type": "uint256"
        }
      ],
      "name": "LiquidationBalance",
      "type": "event"
    },
    {
      "anonymous": false,
      "inputs": [
        {
          "indexed": true,
          "internalType": "address",
          "name": "previousOwner",
          "type": "address"
        },
        {
          "indexed": true,
          "internalType": "address",
          "name": "newOwner",
          "type": "address"
        }
      ],
      "name": "OwnershipTransferred",
      "type": "event"
    },
    {
      "inputs": [
        {
          "internalType": "address[]",
          "name": "_users",
          "type": "address[]"
        },
        {
          "internalType": "contract ISilo[]",
          "name": "_silos",
          "type": "address[]"
        }
      ],
      "name": "checkDebt",
      "outputs": [
        {
          "internalType": "bool[]",
          "name": "",
          "type": "bool[]"
        }
      ],
      "stateMutability": "view",
      "type": "function"
    },
    {
      "inputs": [
        {
          "internalType": "address[]",
          "name": "_users",
          "type": "address[]"
        },
        {
          "internalType": "contract ISilo[]",
          "name": "_silos",
          "type": "address[]"
        }
      ],
      "name": "checkSolvency",
      "outputs": [
        {
          "internalType": "bool[]",
          "name": "",
          "type": "bool[]"
        }
      ],
      "stateMutability": "view",
      "type": "function"
    },
    {
      "inputs": [
        {
          "internalType": "address",
          "name": "",
          "type": "address"
        }
      ],
      "name": "earnings",
      "outputs": [
        {
          "internalType": "uint256",
          "name": "",
          "type": "uint256"
        }
      ],
      "stateMutability": "view",
      "type": "function"
    },
    {
      "inputs": [
        {
          "internalType": "address[]",
          "name": "_users",
          "type": "address[]"
        },
        {
          "internalType": "contract ISilo",
          "name": "_silo",
          "type": "address"
        }
      ],
      "name": "executeLiquidation",
      "outputs": [],
      "stateMutability": "nonpayable",
      "type": "function"
    },
    {
      "inputs": [
        {
          "internalType": "address",
          "name": "_asset",
          "type": "address"
        }
      ],
      "name": "findPriceProvider",
      "outputs": [
        {
          "internalType": "contract IPriceProvider",
          "name": "",
          "type": "address"
        }
      ],
      "stateMutability": "view",
      "type": "function"
    },
    {
      "inputs": [],
      "name": "lens",
      "outputs": [
        {
          "internalType": "contract SiloLens",
          "name": "",
          "type": "address"
        }
      ],
      "stateMutability": "view",
      "type": "function"
    },
    {
      "inputs": [],
      "name": "owner",
      "outputs": [
        {
          "internalType": "address",
          "name": "",
          "type": "address"
        }
      ],
      "stateMutability": "view",
      "type": "function"
    },
    {
      "inputs": [
        {
          "internalType": "uint256",
          "name": "",
          "type": "uint256"
        }
      ],
      "name": "priceProvidersWithSwapOption",
      "outputs": [
        {
          "internalType": "contract IPriceProvider",
          "name": "",
          "type": "address"
        }
      ],
      "stateMutability": "view",
      "type": "function"
    },
    {
      "inputs": [],
      "name": "priceProvidersWithSwapOptionCount",
      "outputs": [
        {
          "internalType": "uint256",
          "name": "",
          "type": "uint256"
        }
      ],
      "stateMutability": "view",
      "type": "function"
    },
    {
      "inputs": [],
      "name": "quoteToken",
      "outputs": [
        {
          "internalType": "contract IERC20",
          "name": "",
          "type": "address"
        }
      ],
      "stateMutability": "view",
      "type": "function"
    },
    {
      "inputs": [],
      "name": "renounceOwnership",
      "outputs": [],
      "stateMutability": "nonpayable",
      "type": "function"
    },
    {
      "inputs": [
        {
          "internalType": "contract IPriceProvider",
          "name": "_oracle",
          "type": "address"
        },
        {
          "internalType": "contract ISwapper",
          "name": "_swapper",
          "type": "address"
        }
      ],
      "name": "setSwapper",
      "outputs": [],
      "stateMutability": "nonpayable",
      "type": "function"
    },
    {
      "inputs": [
        {
          "internalType": "address",
          "name": "_user",
          "type": "address"
        },
        {
          "internalType": "address[]",
          "name": "_assets",
          "type": "address[]"
        },
        {
          "internalType": "uint256[]",
          "name": "_receivedCollaterals",
          "type": "uint256[]"
        },
        {
          "internalType": "uint256[]",
          "name": "_shareAmountsToRepaid",
          "type": "uint256[]"
        },
        {
          "internalType": "bytes",
          "name": "_flashReceiverData",
          "type": "bytes"
        }
      ],
      "name": "siloLiquidationCallback",
      "outputs": [],
      "stateMutability": "nonpayable",
      "type": "function"
    },
    {
      "inputs": [],
      "name": "siloRepository",
      "outputs": [
        {
          "internalType": "contract ISiloRepository",
          "name": "",
          "type": "address"
        }
      ],
      "stateMutability": "view",
      "type": "function"
    },
    {
      "inputs": [
        {
          "internalType": "contract IPriceProvider",
          "name": "",
          "type": "address"
        }
      ],
      "name": "swappers",
      "outputs": [
        {
          "internalType": "contract ISwapper",
          "name": "",
          "type": "address"
        }
      ],
      "stateMutability": "view",
      "type": "function"
    },
    {
      "inputs": [
        {
          "internalType": "address",
          "name": "newOwner",
          "type": "address"
        }
      ],
      "name": "transferOwnership",
      "outputs": [],
      "stateMutability": "nonpayable",
      "type": "function"
    },
    {
      "inputs": [],
      "name": "withdraw",
      "outputs": [],
      "stateMutability": "nonpayable",
      "type": "function"
    },
    {
      "inputs": [],
      "name": "withdrawEth",
      "outputs": [],
      "stateMutability": "nonpayable",
      "type": "function"
    }
  ],
  "transactionHash": "0xfc65750ac82cba7679c92d43be842a1192402b3f42c94463cb6c0101d6a055b0",
  "args": [
    "0x573B151Ddba711f492Cab9Cd99e067Ff532b65ae",
    "0x50A49AD9EA8Eb2fB5434e2DE87625EB4f210E9F7",
    [
      "0x02166f3958D2ced267d5766aD1Ea10eF64e84c17",
      "0x64952C53f20D6306918C1E5b0d6241FCd5766698"
    ],
    [
      "0x90078392A4Bc91f76E139D3F6E3a7d613df28d57",
      "0xC2BaE386F56dF25BcE82a7d4BdEABa748ED4F0aD"
    ]
  ],
  "numDeployments": 3,
  "solcInputHash": "4e6ec95f1876ffdb5c89e088426a74e9",
  "bytecode": "0x60e06040523480156200001157600080fd5b50604051620029ce380380620029ce83398101604081905262000034916200058e565b6200003f336200033e565b6200005d8463e99ed41d60e01b6200038e60201b620010ec1760201c565b620000af5760405162461bcd60e51b815260206004820152601360248201527f696e76616c6964205f7265706f7369746f72790000000000000000000000000060448201526064015b60405180910390fd5b620000cd8363035054cd60e01b6200038e60201b620010ec1760201c565b6200010b5760405162461bcd60e51b815260206004820152600d60248201526c696e76616c6964205f6c656e7360981b6044820152606401620000a6565b81518151146200015e5760405162461bcd60e51b815260206004820152601560248201527f737761707065727320213d2070726f76696465727300000000000000000000006044820152606401620000a6565b6001600160601b0319606085811b821660805284901b1660a05260005b81518110156200021d578181815181106200019a576200019a62000778565b602002602001015160026000858481518110620001bb57620001bb62000778565b60200260200101516001600160a01b03166001600160a01b0316815260200190815260200160002060006101000a8154816001600160a01b0302191690836001600160a01b03160217905550808062000214906200074e565b9150506200017b565b5081516200023390600390602085019062000461565b506000846001600160a01b0316635ddf2be36040518163ffffffff1660e01b815260040160206040518083038186803b1580156200027057600080fd5b505afa15801562000285573d6000803e3d6000fd5b505050506040513d601f19601f82011682018060405250810190620002ab919062000567565b9050806001600160a01b031663217a4b706040518163ffffffff1660e01b815260040160206040518083038186803b158015620002e757600080fd5b505afa158015620002fc573d6000803e3d6000fd5b505050506040513d601f19601f8201168201806040525081019062000322919062000567565b60601b6001600160601b03191660c05250620007bd9350505050565b600080546001600160a01b038381166001600160a01b0319831681178455604051919092169283917f8be0079c531659141344cd1fd0a4f28419497f9722a3daafe3b4186f6b6457e09190a35050565b60006001600160a01b038316620003a8575060006200045b565b60408051600481526024810182526020810180516001600160e01b03166001600160e01b03198616179052905160009182916001600160a01b03871691620003f091620006b7565b600060405180830381855afa9150503d80600081146200042d576040519150601f19603f3d011682016040523d82523d6000602084013e62000432565b606091505b50915091508180156200045657508080602001905181019062000456919062000693565b925050505b92915050565b828054828255906000526020600020908101928215620004b9579160200282015b82811115620004b957825182546001600160a01b0319166001600160a01b0390911617825560209092019160019091019062000482565b50620004c7929150620004cb565b5090565b5b80821115620004c75760008155600101620004cc565b600082601f830112620004f457600080fd5b815160206200050d620005078362000728565b620006f5565b80838252828201915082860187848660051b89010111156200052e57600080fd5b60005b858110156200055a5781516200054781620007a4565b8452928401929084019060010162000531565b5090979650505050505050565b6000602082840312156200057a57600080fd5b81516200058781620007a4565b9392505050565b60008060008060808587031215620005a557600080fd5b8451620005b281620007a4565b80945050602080860151620005c781620007a4565b60408701519094506001600160401b0380821115620005e557600080fd5b818801915088601f830112620005fa57600080fd5b81516200060b620005078262000728565b8082825285820191508585018c878560051b88010111156200062c57600080fd5b600095505b838610156200065c5780516200064781620007a4565b83526001959095019491860191860162000631565b5060608b015190975094505050808311156200067757600080fd5b50506200068787828801620004e2565b91505092959194509250565b600060208284031215620006a657600080fd5b815180151581146200058757600080fd5b6000825160005b81811015620006da5760208186018101518583015201620006be565b81811115620006ea576000828501525b509190910192915050565b604051601f8201601f191681016001600160401b03811182821017156200072057620007206200078e565b604052919050565b60006001600160401b038211156200074457620007446200078e565b5060051b60200190565b60006000198214156200077157634e487b7160e01b600052601160045260246000fd5b5060010190565b634e487b7160e01b600052603260045260246000fd5b634e487b7160e01b600052604160045260246000fd5b6001600160a01b0381168114620007ba57600080fd5b50565b60805160601c60a05160601c60c05160601c6121926200083c6000396000818161019b015281816104d3015281816107400152818161121001528181611287015281816114bc0152818161151e0152818161162d0152611776015260008181610149015261033801526000818161025f0152610a3301526121926000f3fe608060405234801561001057600080fd5b50600436106101165760003560e01c806394fa3add116100a2578063bf0cbdb711610071578063bf0cbdb714610281578063dde6430314610294578063e7b43da5146102a7578063effca705146102ba578063f2fde38b146102cd57600080fd5b806394fa3add146102375780639d3ac04c1461024a578063a0ef91df14610252578063bde127181461025a57600080fd5b80633ccfd60b116100e95780633ccfd60b146101bd578063543fd313146101c7578063715018a6146101f55780638cad7fbe146101fd5780638da5cb5b1461022657600080fd5b806303a69c9a1461011b578063112666b7146101445780631b2df30a14610183578063217a4b7014610196575b600080fd5b61012e610129366004611c75565b6102e0565b60405161013b9190611ef7565b60405180910390f35b61016b7f000000000000000000000000000000000000000000000000000000000000000081565b6040516001600160a01b03909116815260200161013b565b61016b610191366004611e2e565b610459565b61016b7f000000000000000000000000000000000000000000000000000000000000000081565b6101c5610483565b005b6101e76101d53660046119c7565b60016020526000908152604090205481565b60405190815260200161013b565b6101c5610553565b61016b61020b3660046119c7565b6002602052600090815260409020546001600160a01b031681565b6000546001600160a01b031661016b565b61016b6102453660046119c7565b610592565b6003546101e7565b6101c56106f8565b61016b7f000000000000000000000000000000000000000000000000000000000000000081565b6101c561028f366004611b2e565b6107c9565b61012e6102a2366004611c75565b610882565b6101c56102b5366004611a08565b610a03565b6101c56102c8366004611d60565b610ff9565b6101c56102db3660046119c7565b611051565b60606000835167ffffffffffffffff8111156102fe576102fe612131565b604051908082528060200260200182016040528015610327578160200160208202803683370190505b50905060005b845181101561044f577f00000000000000000000000000000000000000000000000000000000000000006001600160a01b0316638705c3598583815181106103775761037761211b565b60200260200101518784815181106103915761039161211b565b60200260200101516040518363ffffffff1660e01b81526004016103cb9291906001600160a01b0392831681529116602082015260400190565b60206040518083038186803b1580156103e357600080fd5b505afa1580156103f7573d6000803e3d6000fd5b505050506040513d601f19601f8201168201806040525081019061041b9190611d3e565b82828151811061042d5761042d61211b565b9115156020928302919091019091015280610447816120ea565b91505061032d565b5090505b92915050565b6003818154811061046957600080fd5b6000918252602090912001546001600160a01b0316905081565b336000908152600160205260409020548061049b5750565b33600081815260016020526040808220919091555163a9059cbb60e01b81526004810191909152602481018290526001600160a01b037f0000000000000000000000000000000000000000000000000000000000000000169063a9059cbb90604401602060405180830381600087803b15801561051757600080fd5b505af115801561052b573d6000803e3d6000fd5b505050506040513d601f19601f8201168201806040525081019061054f9190611d3e565b5050565b6000546001600160a01b031633146105865760405162461bcd60e51b815260040161057d90611f3d565b60405180910390fd5b61059060006111b4565b565b60008060038054806020026020016040519081016040528092919081815260200182805480156105eb57602002820191906000526020600020905b81546001600160a01b031681526001909101906020018083116105cd575b5050505050905060005b81518110156106ba5760008282815181106106125761061261211b565b602090810291909101015160405163598fd92b60e11b81526001600160a01b0387811660048301529192509082169063b31fb2569060240160206040518083038186803b15801561066257600080fd5b505afa158015610676573d6000803e3d6000fd5b505050506040513d601f19601f8201168201806040525081019061069a9190611d3e565b156106a757949350505050565b50806106b2816120ea565b9150506105f5565b5060405162461bcd60e51b81526020600482015260126024820152711c1c9bdd9a59195c881b9bdd08199bdd5b9960721b604482015260640161057d565b33600090815260016020526040902054806107105750565b336000908152600160205260408082209190915551632e1a7d4d60e01b8152600481018290526001600160a01b037f00000000000000000000000000000000000000000000000000000000000000001690632e1a7d4d90602401600060405180830381600087803b15801561078457600080fd5b505af1158015610798573d6000803e3d6000fd5b505060405133925083156108fc02915083906000818181858888f1935050505015801561054f573d6000803e3d6000fd5b60006301ba87db9050816001600160a01b03166393a94ca38585846040516020016107f691815260200190565b6040516020818303038152906040526040518463ffffffff1660e01b815260040161082393929190611e7c565b600060405180830381600087803b15801561083d57600080fd5b505af1158015610851573d6000803e3d6000fd5b505050506040513d6000823e601f3d908101601f191682016040526108799190810190611b85565b50505050505050565b606081518351146108be5760405162461bcd60e51b815260040161057d906020808252600490820152636f6f707360e01b604082015260600190565b6000835167ffffffffffffffff8111156108da576108da612131565b604051908082528060200260200182016040528015610903578160200160208202803683370190505b50905060005b845181101561044f578381815181106109245761092461211b565b60200260200101516001600160a01b03166338b51ce186838151811061094c5761094c61211b565b60200260200101516040518263ffffffff1660e01b815260040161097f91906001600160a01b0391909116815260200190565b60206040518083038186803b15801561099757600080fd5b505afa1580156109ab573d6000803e3d6000fd5b505050506040513d601f19601f820116820180604052508101906109cf9190611d3e565b8282815181106109e1576109e161211b565b91151560209283029190910190910152806109fb816120ea565b915050610909565b600081806020019051810190610a199190611e47565b60405163025e1b9b60e31b815233600482018190529192507f00000000000000000000000000000000000000000000000000000000000000006001600160a01b0316906312f0dcd89060240160206040518083038186803b158015610a7d57600080fd5b505afa158015610a91573d6000803e3d6000fd5b505050506040513d601f19601f82011682018060405250810190610ab59190611d3e565b610aee5760405162461bcd60e51b815260206004820152600a6024820152696e6f7420612053696c6f60b01b604482015260640161057d565b6000805b89811015610b4e57610b428b8b83818110610b0f57610b0f61211b565b9050602002016020810190610b2491906119c7565b8a8a84818110610b3657610b3661211b565b90506020020135611204565b90910190600101610af2565b506000805b8a811015610ecf57878782818110610b6d57610b6d61211b565b9050602002013560001415610b8157610ebd565b610bc98c8c83818110610b9657610b9661211b565b9050602002016020810190610bab91906119c7565b898984818110610bbd57610bbd61211b565b905060200201356114a6565b820191508b8b82818110610bdf57610bdf61211b565b9050602002016020810190610bf491906119c7565b6001600160a01b031663095ea7b3858a8a85818110610c1557610c1561211b565b6040516001600160e01b031960e087901b1681526001600160a01b0390941660048501526020029190910135602483015250604401602060405180830381600087803b158015610c6457600080fd5b505af1158015610c78573d6000803e3d6000fd5b505050506040513d601f19601f82011682018060405250810190610c9c9190611d3e565b50836001600160a01b031663976ce4958d8d84818110610cbe57610cbe61211b565b9050602002016020810190610cd391906119c7565b8f8b8b86818110610ce657610ce661211b565b6040516001600160e01b031960e088901b1681526001600160a01b03958616600482015294909316602485015250602090910201356044820152606401600060405180830381600087803b158015610d3d57600080fd5b505af1158015610d51573d6000803e3d6000fd5b50505050836001600160a01b031663bf2730418d8d84818110610d7657610d7661211b565b9050602002016020810190610d8b91906119c7565b6040516001600160e01b031960e084901b1681526001600160a01b03909116600482015260240160c06040518083038186803b158015610dca57600080fd5b505afa158015610dde573d6000803e3d6000fd5b505050506040513d601f19601f82011682018060405250810190610e029190611d99565b60409081015190516370a0823160e01b81526001600160a01b038f81166004830152909116906370a082319060240160206040518083038186803b158015610e4957600080fd5b505afa158015610e5d573d6000803e3d6000fd5b505050506040513d601f19601f82011682018060405250810190610e819190611e47565b15610ebd5760405162461bcd60e51b815260206004820152600c60248201526b1c995c185e4819985a5b195960a21b604482015260640161057d565b80610ec7816120ea565b915050610b53565b506000610edc8284612064565b90506000610ef26000546001600160a01b031690565b905060008212610f25576001600160a01b038116600090815260016020526040902054610f20908390611fc7565b610f54565b610f3182600019611fdf565b6001600160a01b038216600090815260016020526040902054610f5491906120a3565b6001600160a01b0382166000908152600160205260408120919091556152085a610f7e90896120a3565b610f8891906120a3565b90507f6e1a737bede5a157b5cc67b23d86a07ed1b1529f80df499c7808cc7c2fa8052f8f868584604051610fe094939291906001600160a01b0394909416845260208401929092526040830152606082015260800190565b60405180910390a1505050505050505050505050505050565b6000546001600160a01b031633146110235760405162461bcd60e51b815260040161057d90611f3d565b6001600160a01b03918216600090815260026020526040902080546001600160a01b03191691909216179055565b6000546001600160a01b0316331461107b5760405162461bcd60e51b815260040161057d90611f3d565b6001600160a01b0381166110e05760405162461bcd60e51b815260206004820152602660248201527f4f776e61626c653a206e6577206f776e657220697320746865207a65726f206160448201526564647265737360d01b606482015260840161057d565b6110e9816111b4565b50565b60006001600160a01b03831661110457506000610453565b60408051600481526024810182526020810180516001600160e01b03166001600160e01b03198616179052905160009182916001600160a01b0387169161114a91611e60565b600060405180830381855afa9150503d8060008114611185576040519150601f19603f3d011682016040523d82523d6000602084013e61118a565b606091505b50915091508180156111ab5750808060200190518101906111ab9190611d3e565b95945050505050565b600080546001600160a01b038381166001600160a01b0319831681178455604051919092169283917f8be0079c531659141344cd1fd0a4f28419497f9722a3daafe3b4186f6b6457e09190a35050565b600081158061124457507f00000000000000000000000000000000000000000000000000000000000000006001600160a01b0316836001600160a01b0316145b15611250575080610453565b600061125b84610592565b6001600160a01b038181166000818152600260209081526040918290205482518a8616602482018190527f000000000000000000000000000000000000000000000000000000000000000087166044830152606482018b9052608482019590955260a48082018690528451808303909101815260c4909101845280830180516001600160e01b0316639cffaf6f60e01b1790528351636d9b759760e11b8152935196975094169463095ea7b392869263db36eb2e92600480840193829003018186803b15801561132a57600080fd5b505afa15801561133e573d6000803e3d6000fd5b505050506040513d601f19601f8201168201806040525081019061136291906119eb565b6040516001600160e01b031960e084901b1681526001600160a01b03909116600482015260248101889052604401602060405180830381600087803b1580156113aa57600080fd5b505af11580156113be573d6000803e3d6000fd5b505050506040513d601f19601f820116820180604052508101906113e29190611d3e565b50600080836001600160a01b0316836040516113fe9190611e60565b600060405180830381855af49150503d8060008114611439576040519150601f19603f3d011682016040523d82523d6000602084013e61143e565b606091505b5091509150816114865760405162461bcd60e51b81526020600482015260136024820152721cddd85c105b5bdd5b9d125b8819985a5b1959606a1b604482015260640161057d565b8080602001905181019061149a9190611e47565b98975050505050505050565b60008115806114e65750826001600160a01b03167f00000000000000000000000000000000000000000000000000000000000000006001600160a01b0316145b156114f2575080610453565b60006114fd84610592565b6001600160a01b0381811660008181526002602090815260408083205481517f0000000000000000000000000000000000000000000000000000000000000000871660248201528b871660448201819052606482018c9052608482019690965260a4808201969096528251808203909601865260c401825284830180516001600160e01b03166305a319ad60e21b1790528151636d9b759760e11b815291519697509094169492939192859263db36eb2e926004808301939192829003018186803b1580156115cb57600080fd5b505afa1580156115df573d6000803e3d6000fd5b505050506040513d601f19601f8201168201806040525081019061160391906119eb565b60405163095ea7b360e01b81526001600160a01b03808316600483015260001960248301529192507f00000000000000000000000000000000000000000000000000000000000000009091169063095ea7b390604401602060405180830381600087803b15801561167357600080fd5b505af1158015611687573d6000803e3d6000fd5b505050506040513d601f19601f820116820180604052508101906116ab9190611d3e565b50600080846001600160a01b0316846040516116c79190611e60565b600060405180830381855af49150503d8060008114611702576040519150601f19603f3d011682016040523d82523d6000602084013e611707565b606091505b5091509150816117505760405162461bcd60e51b81526020600482015260146024820152731cddd85c105b5bdd5b9d13dd5d0819985a5b195960621b604482015260640161057d565b60405163095ea7b360e01b81526001600160a01b038481166004830152600060248301527f0000000000000000000000000000000000000000000000000000000000000000169063095ea7b390604401602060405180830381600087803b1580156117ba57600080fd5b505af11580156117ce573d6000803e3d6000fd5b505050506040513d601f19601f820116820180604052508101906117f29190611d3e565b50808060200190518101906118079190611e47565b9998505050505050505050565b60008083601f84011261182657600080fd5b50813567ffffffffffffffff81111561183e57600080fd5b6020830191508360208260051b850101111561185957600080fd5b9250929050565b600082601f83011261187157600080fd5b8151602061188661188183611fa3565b611f72565b82815281810190858301600585811b880185018910156118a557600080fd5b60005b8681101561194357825167ffffffffffffffff8111156118c757600080fd5b8901603f81018b136118d857600080fd5b8681015160406118ea61188183611fa3565b808382528a820191508285018f84868a1b880101111561190957600080fd5b600095505b8486101561192c578051835260019590950194918b01918b0161190e565b5089525050509486019450918501916001016118a8565b509198975050505050505050565b600082601f83011261196257600080fd5b8135602061197261188183611fa3565b80838252828201915082860187848660051b890101111561199257600080fd5b60005b858110156119ba5781356119a881612147565b84529284019290840190600101611995565b5090979650505050505050565b6000602082840312156119d957600080fd5b81356119e481612147565b9392505050565b6000602082840312156119fd57600080fd5b81516119e481612147565b60008060008060008060008060a0898b031215611a2457600080fd5b8835611a2f81612147565b975060208981013567ffffffffffffffff80821115611a4d57600080fd5b611a598d838e01611814565b909a50985060408c0135915080821115611a7257600080fd5b611a7e8d838e01611814565b909850965060608c0135915080821115611a9757600080fd5b611aa38d838e01611814565b909650945060808c0135915080821115611abc57600080fd5b818c0191508c601f830112611ad057600080fd5b813581811115611ae257611ae2612131565b611af4601f8201601f19168501611f72565b91508082528d84828501011115611b0a57600080fd5b80848401858401376000848284010152508093505050509295985092959890939650565b600080600060408486031215611b4357600080fd5b833567ffffffffffffffff811115611b5a57600080fd5b611b6686828701611814565b9094509250506020840135611b7a81612147565b809150509250925092565b600080600060608486031215611b9a57600080fd5b835167ffffffffffffffff80821115611bb257600080fd5b818601915086601f830112611bc657600080fd5b81516020611bd661188183611fa3565b8083825282820191508286018b848660051b8901011115611bf657600080fd5b600096505b84871015611c22578051611c0e81612147565b835260019690960195918301918301611bfb565b5091890151919750909350505080821115611c3c57600080fd5b611c4887838801611860565b93506040860151915080821115611c5e57600080fd5b50611c6b86828701611860565b9150509250925092565b60008060408385031215611c8857600080fd5b823567ffffffffffffffff80821115611ca057600080fd5b818501915085601f830112611cb457600080fd5b81356020611cc461188183611fa3565b8083825282820191508286018a848660051b8901011115611ce457600080fd5b600096505b84871015611d10578035611cfc81612147565b835260019690960195918301918301611ce9565b5096505086013592505080821115611d2757600080fd5b50611d3485828601611951565b9150509250929050565b600060208284031215611d5057600080fd5b815180151581146119e457600080fd5b60008060408385031215611d7357600080fd5b8235611d7e81612147565b91506020830135611d8e81612147565b809150509250929050565b600060c08284031215611dab57600080fd5b60405160c0810181811067ffffffffffffffff82111715611dce57611dce612131565b6040528251611ddc81612147565b81526020830151611dec81612147565b60208201526040830151611dff81612147565b80604083015250606083015160608201526080830151608082015260a083015160a08201528091505092915050565b600060208284031215611e4057600080fd5b5035919050565b600060208284031215611e5957600080fd5b5051919050565b60008251611e728184602087016120ba565b9190910192915050565b6040808252810183905260008460608301825b86811015611ebf578235611ea281612147565b6001600160a01b0316825260209283019290910190600101611e8f565b50838103602085015284519150818152611ee08260208301602088016120ba565b601f91909101601f19160160200195945050505050565b6020808252825182820181905260009190848201906040850190845b81811015611f31578351151583529284019291840191600101611f13565b50909695505050505050565b6020808252818101527f4f776e61626c653a2063616c6c6572206973206e6f7420746865206f776e6572604082015260600190565b604051601f8201601f1916810167ffffffffffffffff81118282101715611f9b57611f9b612131565b604052919050565b600067ffffffffffffffff821115611fbd57611fbd612131565b5060051b60200190565b60008219821115611fda57611fda612105565b500190565b60006001600160ff1b038184138284138082168684048611161561200557612005612105565b600160ff1b600087128281168783058912161561202457612024612105565b6000871292508782058712848416161561204057612040612105565b8785058712818416161561205657612056612105565b505050929093029392505050565b60008083128015600160ff1b85018412161561208257612082612105565b6001600160ff1b038401831381161561209d5761209d612105565b50500390565b6000828210156120b5576120b5612105565b500390565b60005b838110156120d55781810151838201526020016120bd565b838111156120e4576000848401525b50505050565b60006000198214156120fe576120fe612105565b5060010190565b634e487b7160e01b600052601160045260246000fd5b634e487b7160e01b600052603260045260246000fd5b634e487b7160e01b600052604160045260246000fd5b6001600160a01b03811681146110e957600080fdfea2646970667358221220ed3dfe75f562e7e4051266e41eaef95bcdaa72e05b4af9cb76d8542f5fe26b0a64736f6c63430008070033",
  "devdoc": {
    "details": "LiquidationHelper IS NOT PART OF THE PROTOCOL. SILO CREATED THIS TOOL, MOSTLY AS AN EXAMPLE.         see https://github.com/silo-finance/liquidation#readme for details how liquidation process should look like",
    "kind": "dev",
    "methods": {
      "owner()": {
        "details": "Returns the address of the current owner."
      },
      "renounceOwnership()": {
        "details": "Leaves the contract without owner. It will not be possible to call `onlyOwner` functions anymore. Can only be called by the current owner. NOTE: Renouncing ownership will leave the contract without an owner, thereby removing any functionality that is only available to the owner."
      },
      "siloLiquidationCallback(address,address[],uint256[],uint256[],bytes)": {
        "details": "this is working example of how to perform liquidation, this method will be called by Silo         Keep in mind, that this helper might NOT choose the best swap option.         For best results (highest earnings) you probably want to implement your own callback and maybe use some         dex aggregators."
      },
      "transferOwnership(address)": {
        "details": "Transfers ownership of the contract to a new account (`newOwner`). Can only be called by the current owner."
      }
    },
    "version": 1
  },
  "userdoc": {
    "kind": "user",
    "methods": {},
    "version": 1
  },
  "storageLayout": {
    "storage": [
      {
        "astId": 389,
        "contract": "contracts/liquidation/LiquidationHelper.sol:LiquidationHelper",
        "label": "_owner",
        "offset": 0,
        "slot": "0",
        "type": "t_address"
      },
      {
        "astId": 19634,
        "contract": "contracts/liquidation/LiquidationHelper.sol:LiquidationHelper",
        "label": "earnings",
        "offset": 0,
        "slot": "1",
        "type": "t_mapping(t_address,t_uint256)"
      },
      {
        "astId": 19640,
        "contract": "contracts/liquidation/LiquidationHelper.sol:LiquidationHelper",
        "label": "swappers",
        "offset": 0,
        "slot": "2",
        "type": "t_mapping(t_contract(IPriceProvider)16286,t_contract(ISwapper)17013)"
      },
      {
        "astId": 19644,
        "contract": "contracts/liquidation/LiquidationHelper.sol:LiquidationHelper",
        "label": "priceProvidersWithSwapOption",
        "offset": 0,
        "slot": "3",
        "type": "t_array(t_contract(IPriceProvider)16286)dyn_storage"
      }
    ],
    "types": {
      "t_address": {
        "encoding": "inplace",
        "label": "address",
        "numberOfBytes": "20"
      },
      "t_array(t_contract(IPriceProvider)16286)dyn_storage": {
        "base": "t_contract(IPriceProvider)16286",
        "encoding": "dynamic_array",
        "label": "contract IPriceProvider[]",
        "numberOfBytes": "32"
      },
      "t_contract(IPriceProvider)16286": {
        "encoding": "inplace",
        "label": "contract IPriceProvider",
        "numberOfBytes": "20"
      },
      "t_contract(ISwapper)17013": {
        "encoding": "inplace",
        "label": "contract ISwapper",
        "numberOfBytes": "20"
      },
      "t_mapping(t_address,t_uint256)": {
        "encoding": "mapping",
        "key": "t_address",
        "label": "mapping(address => uint256)",
        "numberOfBytes": "32",
        "value": "t_uint256"
      },
      "t_mapping(t_contract(IPriceProvider)16286,t_contract(ISwapper)17013)": {
        "encoding": "mapping",
        "key": "t_contract(IPriceProvider)16286",
        "label": "mapping(contract IPriceProvider => contract ISwapper)",
        "numberOfBytes": "32",
        "value": "t_contract(ISwapper)17013"
      },
      "t_uint256": {
        "encoding": "inplace",
        "label": "uint256",
        "numberOfBytes": "32"
      }
    }
  }
}