{
  "address": "0xD50B297f657aE1da36E342df8a8E122C915d6b97",
  "abi": [
    {
      "inputs": [
        {
          "internalType": "address",
          "name": "_siloVerifier",
          "type": "address"
        },
        {
          "internalType": "address",
          "name": "_factory",
          "type": "address"
        },
        {
          "internalType": "address",
          "name": "_tokensFactory",
          "type": "address"
        },
        {
          "internalType": "uint256",
          "name": "_defaultMaxLTV",
          "type": "uint256"
        },
        {
          "internalType": "uint256",
          "name": "_defaultLiquidationThreshold",
          "type": "uint256"
        },
        {
          "internalType": "address[]",
          "name": "_bridgeAssets",
          "type": "address[]"
        }
      ],
      "stateMutability": "nonpayable",
      "type": "constructor"
    },
    {
      "inputs": [
        {
          "internalType": "address",
          "name": "bridgeSilo",
          "type": "address"
        }
      ],
      "name": "BridgeSiloExists",
      "type": "error"
    },
    {
      "anonymous": false,
      "inputs": [
        {
          "indexed": false,
          "internalType": "address",
          "name": "newBridgeAsset",
          "type": "address"
        }
      ],
      "name": "BridgeAssetAdded",
      "type": "event"
    },
    {
      "anonymous": false,
      "inputs": [
        {
          "indexed": false,
          "internalType": "address",
          "name": "bridgeAssetRemoved",
          "type": "address"
        }
      ],
      "name": "BridgeAssetRemoved",
      "type": "event"
    },
    {
      "anonymous": false,
      "inputs": [
        {
          "indexed": false,
          "internalType": "address",
          "name": "oldPool",
          "type": "address"
        },
        {
          "indexed": false,
          "internalType": "address",
          "name": "newPool",
          "type": "address"
        }
      ],
      "name": "BridgePoolUpdate",
      "type": "event"
    },
    {
      "anonymous": false,
      "inputs": [
        {
          "indexed": false,
          "internalType": "uint256",
          "name": "newMaxDeposits",
          "type": "uint256"
        }
      ],
      "name": "DefaultSiloMaxDepositsLimitUpdate",
      "type": "event"
    },
    {
      "anonymous": false,
      "inputs": [
        {
          "indexed": false,
          "internalType": "uint256",
          "name": "oldEntryFee",
          "type": "uint256"
        },
        {
          "indexed": false,
          "internalType": "uint256",
          "name": "newEntryFee",
          "type": "uint256"
        },
        {
          "indexed": false,
          "internalType": "uint256",
          "name": "oldProtocolShareFee",
          "type": "uint256"
        },
        {
          "indexed": false,
          "internalType": "uint256",
          "name": "newProtocolShareFee",
          "type": "uint256"
        },
        {
          "indexed": false,
          "internalType": "uint256",
          "name": "oldProtocolLiquidationFee",
          "type": "uint256"
        },
        {
          "indexed": false,
          "internalType": "uint256",
          "name": "newProtocolLiquidationFee",
          "type": "uint256"
        }
      ],
      "name": "FeeUpdate",
      "type": "event"
    },
    {
      "anonymous": false,
      "inputs": [
        {
          "indexed": false,
          "internalType": "bool",
          "name": "newGuardedLaunchState",
          "type": "bool"
        }
      ],
      "name": "GuardedLaunchToggled",
      "type": "event"
    },
    {
      "anonymous": false,
      "inputs": [
        {
          "indexed": false,
          "internalType": "address",
          "name": "oldModel",
          "type": "address"
        },
        {
          "indexed": false,
          "internalType": "address",
          "name": "newModel",
          "type": "address"
        }
      ],
      "name": "InterestRateModel",
      "type": "event"
    },
    {
      "anonymous": false,
      "inputs": [
        {
          "indexed": false,
          "internalType": "bool",
          "name": "newLimitedMaxLiquidityState",
          "type": "bool"
        }
      ],
      "name": "LimitedMaxLiquidityToggled",
      "type": "event"
    },
    {
      "anonymous": false,
      "inputs": [
        {
          "indexed": true,
          "internalType": "address",
          "name": "silo",
          "type": "address"
        },
        {
          "indexed": true,
          "internalType": "address",
          "name": "asset",
          "type": "address"
        },
        {
          "indexed": false,
          "internalType": "uint256",
          "name": "siloVersion",
          "type": "uint256"
        },
        {
          "indexed": false,
          "internalType": "address[]",
          "name": "bridgeAssets",
          "type": "address[]"
        }
      ],
      "name": "NewSilo",
      "type": "event"
    },
    {
      "anonymous": false,
      "inputs": [
        {
          "indexed": false,
          "internalType": "address",
          "name": "oldOracle",
          "type": "address"
        },
        {
          "indexed": false,
          "internalType": "address",
          "name": "newOracle",
          "type": "address"
        }
      ],
      "name": "OracleUpdate",
      "type": "event"
    },
    {
      "anonymous": false,
      "inputs": [
        {
          "indexed": true,
          "internalType": "address",
          "name": "previousOwner",
          "type": "address"
        },
        {
          "indexed": true,
          "internalType": "address",
          "name": "newOwner",
          "type": "address"
        }
      ],
      "name": "OwnershipPending",
      "type": "event"
    },
    {
      "anonymous": false,
      "inputs": [
        {
          "indexed": true,
          "internalType": "address",
          "name": "previousOwner",
          "type": "address"
        },
        {
          "indexed": true,
          "internalType": "address",
          "name": "newOwner",
          "type": "address"
        }
      ],
      "name": "OwnershipTransferred",
      "type": "event"
    },
    {
      "anonymous": false,
      "inputs": [
        {
          "indexed": false,
          "internalType": "bool",
          "name": "newPermissionedSiloCreationState",
          "type": "bool"
        }
      ],
      "name": "PermissionedSiloCreationToggled",
      "type": "event"
    },
    {
      "anonymous": false,
      "inputs": [
        {
          "indexed": false,
          "internalType": "address",
          "name": "factory",
          "type": "address"
        },
        {
          "indexed": false,
          "internalType": "uint256",
          "name": "siloLatestVersion",
          "type": "uint256"
        },
        {
          "indexed": false,
          "internalType": "uint256",
          "name": "siloDefaultVersion",
          "type": "uint256"
        }
      ],
      "name": "RegisterSiloVersion",
      "type": "event"
    },
    {
      "anonymous": false,
      "inputs": [
        {
          "indexed": false,
          "internalType": "address",
          "name": "oldRouter",
          "type": "address"
        },
        {
          "indexed": false,
          "internalType": "address",
          "name": "newRouter",
          "type": "address"
        }
      ],
      "name": "RouterUpdate",
      "type": "event"
    },
    {
      "anonymous": false,
      "inputs": [
        {
          "indexed": false,
          "internalType": "uint256",
          "name": "siloDefaultVersion",
          "type": "uint256"
        },
        {
          "indexed": false,
          "internalType": "uint256",
          "name": "defaultVersion",
          "type": "uint256"
        }
      ],
      "name": "SiloDefaultVersion",
      "type": "event"
    },
    {
      "anonymous": false,
      "inputs": [
        {
          "indexed": true,
          "internalType": "address",
          "name": "silo",
          "type": "address"
        },
        {
          "indexed": true,
          "internalType": "address",
          "name": "asset",
          "type": "address"
        },
        {
          "indexed": false,
          "internalType": "uint256",
          "name": "newMaxDeposits",
          "type": "uint256"
        }
      ],
      "name": "SiloMaxDepositsLimitsUpdate",
      "type": "event"
    },
    {
      "anonymous": false,
      "inputs": [
        {
          "indexed": false,
          "internalType": "address",
          "name": "verifier",
          "type": "address"
        }
      ],
      "name": "SiloVerifier",
      "type": "event"
    },
    {
      "anonymous": false,
      "inputs": [
        {
          "indexed": false,
          "internalType": "address",
          "name": "oldTokensFactory",
          "type": "address"
        },
        {
          "indexed": false,
          "internalType": "address",
          "name": "newTokensFactory",
          "type": "address"
        }
      ],
      "name": "TokensFactoryUpdate",
      "type": "event"
    },
    {
      "anonymous": false,
      "inputs": [
        {
          "indexed": false,
          "internalType": "address",
          "name": "factory",
          "type": "address"
        },
        {
          "indexed": false,
          "internalType": "uint256",
          "name": "siloVersion",
          "type": "uint256"
        }
      ],
      "name": "UnregisterSiloVersion",
      "type": "event"
    },
    {
      "inputs": [],
      "name": "ETH_PREFIX",
      "outputs": [
        {
          "internalType": "bytes",
          "name": "",
          "type": "bytes"
        }
      ],
      "stateMutability": "view",
      "type": "function"
    },
    {
      "inputs": [],
      "name": "INFINITY",
      "outputs": [
        {
          "internalType": "uint256",
          "name": "",
          "type": "uint256"
        }
      ],
      "stateMutability": "view",
      "type": "function"
    },
    {
      "inputs": [],
      "name": "acceptOwnership",
      "outputs": [],
      "stateMutability": "nonpayable",
      "type": "function"
    },
    {
      "inputs": [
        {
          "internalType": "address",
          "name": "_newBridgeAsset",
          "type": "address"
        }
      ],
      "name": "addBridgeAsset",
      "outputs": [],
      "stateMutability": "nonpayable",
      "type": "function"
    },
    {
      "inputs": [
        {
          "internalType": "address",
          "name": "",
          "type": "address"
        },
        {
          "internalType": "address",
          "name": "",
          "type": "address"
        }
      ],
      "name": "assetConfigs",
      "outputs": [
        {
          "internalType": "uint256",
          "name": "maxLoanToValue",
          "type": "uint256"
        },
        {
          "internalType": "uint256",
          "name": "liquidationThreshold",
          "type": "uint256"
        },
        {
          "internalType": "address",
          "name": "interestRateModel",
          "type": "address"
        }
      ],
      "stateMutability": "view",
      "type": "function"
    },
    {
      "inputs": [
        {
          "internalType": "uint256",
          "name": "",
          "type": "uint256"
        }
      ],
      "name": "bridgeAssets",
      "outputs": [
        {
          "internalType": "address",
          "name": "",
          "type": "address"
        }
      ],
      "stateMutability": "view",
      "type": "function"
    },
    {
      "inputs": [
        {
          "internalType": "address",
          "name": "",
          "type": "address"
        }
      ],
      "name": "bridgeAssetsIndex",
      "outputs": [
        {
          "internalType": "uint256",
          "name": "",
          "type": "uint256"
        }
      ],
      "stateMutability": "view",
      "type": "function"
    },
    {
      "inputs": [],
      "name": "defaultAssetConfig",
      "outputs": [
        {
          "internalType": "uint256",
          "name": "maxLoanToValue",
          "type": "uint256"
        },
        {
          "internalType": "uint256",
          "name": "liquidationThreshold",
          "type": "uint256"
        },
        {
          "internalType": "address",
          "name": "interestRateModel",
          "type": "address"
        }
      ],
      "stateMutability": "view",
      "type": "function"
    },
    {
      "inputs": [],
      "name": "defaultSiloMaxDepositsLimit",
      "outputs": [
        {
          "internalType": "uint256",
          "name": "",
          "type": "uint256"
        }
      ],
      "stateMutability": "view",
      "type": "function"
    },
    {
      "inputs": [],
      "name": "entryFee",
      "outputs": [
        {
          "internalType": "uint256",
          "name": "",
          "type": "uint256"
        }
      ],
      "stateMutability": "view",
      "type": "function"
    },
    {
      "inputs": [],
      "name": "getBridgeAssets",
      "outputs": [
        {
          "internalType": "address[]",
          "name": "",
          "type": "address[]"
        }
      ],
      "stateMutability": "view",
      "type": "function"
    },
    {
      "inputs": [
        {
          "internalType": "address",
          "name": "_silo",
          "type": "address"
        },
        {
          "internalType": "address",
          "name": "_asset",
          "type": "address"
        }
      ],
      "name": "getInterestRateModel",
      "outputs": [
        {
          "internalType": "address",
          "name": "",
          "type": "address"
        }
      ],
      "stateMutability": "view",
      "type": "function"
    },
    {
      "inputs": [
        {
          "internalType": "address",
          "name": "_silo",
          "type": "address"
        },
        {
          "internalType": "address",
          "name": "_asset",
          "type": "address"
        }
      ],
      "name": "getLiquidationThreshold",
      "outputs": [
        {
          "internalType": "uint256",
          "name": "",
          "type": "uint256"
        }
      ],
      "stateMutability": "view",
      "type": "function"
    },
    {
      "inputs": [
        {
          "internalType": "address",
          "name": "_silo",
          "type": "address"
        },
        {
          "internalType": "address",
          "name": "_asset",
          "type": "address"
        }
      ],
      "name": "getMaxSiloDeposits",
      "outputs": [
        {
          "internalType": "uint256",
          "name": "",
          "type": "uint256"
        }
      ],
      "stateMutability": "view",
      "type": "function"
    },
    {
      "inputs": [
        {
          "internalType": "address",
          "name": "_silo",
          "type": "address"
        },
        {
          "internalType": "address",
          "name": "_asset",
          "type": "address"
        }
      ],
      "name": "getMaximumLTV",
      "outputs": [
        {
          "internalType": "uint256",
          "name": "",
          "type": "uint256"
        }
      ],
      "stateMutability": "view",
      "type": "function"
    },
    {
      "inputs": [],
      "name": "getRemovedBridgeAssets",
      "outputs": [
        {
          "internalType": "address[]",
          "name": "",
          "type": "address[]"
        }
      ],
      "stateMutability": "view",
      "type": "function"
    },
    {
      "inputs": [],
      "name": "guardedLaunch",
      "outputs": [
        {
          "internalType": "bool",
          "name": "",
          "type": "bool"
        }
      ],
      "stateMutability": "view",
      "type": "function"
    },
    {
      "inputs": [
        {
          "internalType": "address",
          "name": "_silo",
          "type": "address"
        }
      ],
      "name": "isSilo",
      "outputs": [
        {
          "internalType": "bool",
          "name": "",
          "type": "bool"
        }
      ],
      "stateMutability": "view",
      "type": "function"
    },
    {
      "inputs": [],
      "name": "limitedMaxLiquidity",
      "outputs": [
        {
          "internalType": "bool",
          "name": "",
          "type": "bool"
        }
      ],
      "stateMutability": "view",
      "type": "function"
    },
    {
      "inputs": [
        {
          "internalType": "address",
          "name": "_siloAsset",
          "type": "address"
        },
        {
          "internalType": "uint256",
          "name": "_siloVersion",
          "type": "uint256"
        },
        {
          "internalType": "bytes",
          "name": "_siloData",
          "type": "bytes"
        },
        {
          "internalType": "address",
          "name": "_oracle",
          "type": "address"
        },
        {
          "internalType": "bytes",
          "name": "_oracleData",
          "type": "bytes"
        }
      ],
      "name": "newSilo",
      "outputs": [],
      "stateMutability": "nonpayable",
      "type": "function"
    },
    {
      "inputs": [
        {
          "internalType": "uint8",
          "name": "_v",
          "type": "uint8"
        },
        {
          "internalType": "bytes32",
          "name": "_r",
          "type": "bytes32"
        },
        {
          "internalType": "bytes32",
          "name": "_s",
          "type": "bytes32"
        },
        {
          "internalType": "address",
          "name": "_siloAsset",
          "type": "address"
        },
        {
          "internalType": "uint256",
          "name": "_siloVersion",
          "type": "uint256"
        },
        {
          "internalType": "bytes",
          "name": "_siloData",
          "type": "bytes"
        },
        {
          "internalType": "address",
          "name": "_oracle",
          "type": "address"
        },
        {
          "internalType": "bytes",
          "name": "_oracleData",
          "type": "bytes"
        }
      ],
      "name": "newSiloVerified",
      "outputs": [],
      "stateMutability": "nonpayable",
      "type": "function"
    },
    {
      "inputs": [],
      "name": "oracle",
      "outputs": [
        {
          "internalType": "address",
          "name": "",
          "type": "address"
        }
      ],
      "stateMutability": "view",
      "type": "function"
    },
    {
      "inputs": [],
      "name": "owner",
      "outputs": [
        {
          "internalType": "address",
          "name": "",
          "type": "address"
        }
      ],
      "stateMutability": "view",
      "type": "function"
    },
    {
      "inputs": [],
      "name": "pendingOwner",
      "outputs": [
        {
          "internalType": "address",
          "name": "",
          "type": "address"
        }
      ],
      "stateMutability": "view",
      "type": "function"
    },
    {
      "inputs": [],
      "name": "permissionedSiloCreation",
      "outputs": [
        {
          "internalType": "bool",
          "name": "",
          "type": "bool"
        }
      ],
      "stateMutability": "view",
      "type": "function"
    },
    {
      "inputs": [],
      "name": "protocolLiquidationFee",
      "outputs": [
        {
          "internalType": "uint256",
          "name": "",
          "type": "uint256"
        }
      ],
      "stateMutability": "view",
      "type": "function"
    },
    {
      "inputs": [],
      "name": "protocolShareFee",
      "outputs": [
        {
          "internalType": "uint256",
          "name": "",
          "type": "uint256"
        }
      ],
      "stateMutability": "view",
      "type": "function"
    },
    {
      "inputs": [
        {
          "internalType": "address",
          "name": "_asset",
          "type": "address"
        },
        {
          "internalType": "address",
          "name": "_quote",
          "type": "address"
        },
        {
          "internalType": "uint8",
          "name": "_v",
          "type": "uint8"
        },
        {
          "internalType": "bytes32",
          "name": "_r",
          "type": "bytes32"
        },
        {
          "internalType": "bytes32",
          "name": "_s",
          "type": "bytes32"
        }
      ],
      "name": "recoverSigner",
      "outputs": [
        {
          "internalType": "address",
          "name": "",
          "type": "address"
        }
      ],
      "stateMutability": "pure",
      "type": "function"
    },
    {
      "inputs": [
        {
          "internalType": "contract IFactory",
          "name": "_factory",
          "type": "address"
        },
        {
          "internalType": "bool",
          "name": "_isDefault",
          "type": "bool"
        }
      ],
      "name": "registerSiloVersion",
      "outputs": [],
      "stateMutability": "nonpayable",
      "type": "function"
    },
    {
      "inputs": [
        {
          "internalType": "address",
          "name": "_bridgeAssetToRemove",
          "type": "address"
        }
      ],
      "name": "removeBridgeAsset",
      "outputs": [],
      "stateMutability": "nonpayable",
      "type": "function"
    },
    {
      "inputs": [
        {
          "internalType": "uint256",
          "name": "",
          "type": "uint256"
        }
      ],
      "name": "removedBridgeAssets",
      "outputs": [
        {
          "internalType": "address",
          "name": "",
          "type": "address"
        }
      ],
      "stateMutability": "view",
      "type": "function"
    },
    {
      "inputs": [
        {
          "internalType": "address",
          "name": "",
          "type": "address"
        }
      ],
      "name": "removedBridgeAssetsIndexes",
      "outputs": [
        {
          "internalType": "uint256",
          "name": "",
          "type": "uint256"
        }
      ],
      "stateMutability": "view",
      "type": "function"
    },
    {
      "inputs": [],
      "name": "renounceOwnership",
      "outputs": [],
      "stateMutability": "nonpayable",
      "type": "function"
    },
    {
      "inputs": [
        {
          "internalType": "address",
          "name": "_siloAsset",
          "type": "address"
        },
        {
          "internalType": "uint256",
          "name": "_siloVersion",
          "type": "uint256"
        },
        {
          "internalType": "bytes",
          "name": "_siloData",
          "type": "bytes"
        },
        {
          "internalType": "address",
          "name": "_oracle",
          "type": "address"
        },
        {
          "internalType": "bytes",
          "name": "_oracleData",
          "type": "bytes"
        }
      ],
      "name": "replaceSilo",
      "outputs": [],
      "stateMutability": "nonpayable",
      "type": "function"
    },
    {
      "inputs": [],
      "name": "router",
      "outputs": [
        {
          "internalType": "address",
          "name": "",
          "type": "address"
        }
      ],
      "stateMutability": "view",
      "type": "function"
    },
    {
      "inputs": [
        {
          "internalType": "address",
          "name": "_silo",
          "type": "address"
        },
        {
          "internalType": "address",
          "name": "_asset",
          "type": "address"
        },
        {
          "internalType": "uint256",
          "name": "_maxLoanToValue",
          "type": "uint256"
        },
        {
          "internalType": "uint256",
          "name": "_liquidationThreshold",
          "type": "uint256"
        },
        {
          "internalType": "address",
          "name": "_interestRateModel",
          "type": "address"
        }
      ],
      "name": "setAssetConfig",
      "outputs": [],
      "stateMutability": "nonpayable",
      "type": "function"
    },
    {
      "inputs": [
        {
          "internalType": "address",
          "name": "_defaultInterestRateModel",
          "type": "address"
        }
      ],
      "name": "setDefaultInterestRateModel",
      "outputs": [],
      "stateMutability": "nonpayable",
      "type": "function"
    },
    {
      "inputs": [
        {
          "internalType": "uint256",
          "name": "_defaultLiquidationThreshold",
          "type": "uint256"
        }
      ],
      "name": "setDefaultLiquidationThreshold",
      "outputs": [],
      "stateMutability": "nonpayable",
      "type": "function"
    },
    {
      "inputs": [
        {
          "internalType": "uint256",
          "name": "_defaultMaxLTV",
          "type": "uint256"
        }
      ],
      "name": "setDefaultMaximumLTV",
      "outputs": [],
      "stateMutability": "nonpayable",
      "type": "function"
    },
    {
      "inputs": [
        {
          "internalType": "uint256",
          "name": "_maxDeposits",
          "type": "uint256"
        }
      ],
      "name": "setDefaultSiloMaxDepositsLimit",
      "outputs": [],
      "stateMutability": "nonpayable",
      "type": "function"
    },
    {
      "inputs": [
        {
          "internalType": "uint256",
          "name": "_defaultVersion",
          "type": "uint256"
        }
      ],
      "name": "setDefaultSiloVersion",
      "outputs": [],
      "stateMutability": "nonpayable",
      "type": "function"
    },
    {
      "inputs": [
        {
          "internalType": "uint256",
          "name": "_entryFee",
          "type": "uint256"
        },
        {
          "internalType": "uint256",
          "name": "_protocolShareFee",
          "type": "uint256"
        },
        {
          "internalType": "uint256",
          "name": "_protocolLiquidationFee",
          "type": "uint256"
        }
      ],
      "name": "setFees",
      "outputs": [],
      "stateMutability": "nonpayable",
      "type": "function"
    },
    {
      "inputs": [
        {
          "internalType": "address",
          "name": "_oracle",
          "type": "address"
        }
      ],
      "name": "setOracle",
      "outputs": [],
      "stateMutability": "nonpayable",
      "type": "function"
    },
    {
      "inputs": [
        {
          "internalType": "address",
          "name": "_router",
          "type": "address"
        }
      ],
      "name": "setRouter",
      "outputs": [],
      "stateMutability": "nonpayable",
      "type": "function"
    },
    {
      "inputs": [
        {
          "internalType": "address",
          "name": "_silo",
          "type": "address"
        },
        {
          "internalType": "address",
          "name": "_asset",
          "type": "address"
        },
        {
          "internalType": "uint256",
          "name": "_maxDeposits",
          "type": "uint256"
        }
      ],
      "name": "setSiloMaxDepositsLimit",
      "outputs": [],
      "stateMutability": "nonpayable",
      "type": "function"
    },
    {
      "inputs": [
        {
          "internalType": "address",
          "name": "_tokensFactory",
          "type": "address"
        }
      ],
      "name": "setTokensFactory",
      "outputs": [],
      "stateMutability": "nonpayable",
      "type": "function"
    },
    {
      "inputs": [
        {
          "internalType": "address",
          "name": "_verifier",
          "type": "address"
        }
      ],
      "name": "setVerifier",
      "outputs": [],
      "stateMutability": "nonpayable",
      "type": "function"
    },
    {
      "inputs": [
        {
          "internalType": "address",
          "name": "",
          "type": "address"
        }
      ],
      "name": "silo",
      "outputs": [
        {
          "internalType": "address",
          "name": "",
          "type": "address"
        }
      ],
      "stateMutability": "view",
      "type": "function"
    },
    {
      "inputs": [],
      "name": "siloDefaultVersion",
      "outputs": [
        {
          "internalType": "uint256",
          "name": "",
          "type": "uint256"
        }
      ],
      "stateMutability": "view",
      "type": "function"
    },
    {
      "inputs": [
        {
          "internalType": "uint256",
          "name": "",
          "type": "uint256"
        }
      ],
      "name": "siloFactory",
      "outputs": [
        {
          "internalType": "contract IFactory",
          "name": "",
          "type": "address"
        }
      ],
      "stateMutability": "view",
      "type": "function"
    },
    {
      "inputs": [],
      "name": "siloLatestVersion",
      "outputs": [
        {
          "internalType": "uint256",
          "name": "",
          "type": "uint256"
        }
      ],
      "stateMutability": "view",
      "type": "function"
    },
    {
      "inputs": [
        {
          "internalType": "address",
          "name": "",
          "type": "address"
        },
        {
          "internalType": "address",
          "name": "",
          "type": "address"
        }
      ],
      "name": "siloMaxDepositsLimits",
      "outputs": [
        {
          "internalType": "uint256",
          "name": "",
          "type": "uint256"
        }
      ],
      "stateMutability": "view",
      "type": "function"
    },
    {
      "inputs": [
        {
          "internalType": "address",
          "name": "_asset",
          "type": "address"
        },
        {
          "internalType": "address",
          "name": "_quote",
          "type": "address"
        },
        {
          "internalType": "uint8",
          "name": "_v",
          "type": "uint8"
        },
        {
          "internalType": "bytes32",
          "name": "_r",
          "type": "bytes32"
        },
        {
          "internalType": "bytes32",
          "name": "_s",
          "type": "bytes32"
        }
      ],
      "name": "siloOffChainVerification",
      "outputs": [
        {
          "internalType": "bool",
          "name": "",
          "type": "bool"
        }
      ],
      "stateMutability": "view",
      "type": "function"
    },
    {
      "inputs": [
        {
          "internalType": "address",
          "name": "",
          "type": "address"
        }
      ],
      "name": "siloReverse",
      "outputs": [
        {
          "internalType": "address",
          "name": "",
          "type": "address"
        }
      ],
      "stateMutability": "view",
      "type": "function"
    },
    {
      "inputs": [],
      "name": "siloVerifier",
      "outputs": [
        {
          "internalType": "address",
          "name": "",
          "type": "address"
        }
      ],
      "stateMutability": "view",
      "type": "function"
    },
    {
      "inputs": [],
      "name": "toggleGuardedLaunch",
      "outputs": [],
      "stateMutability": "nonpayable",
      "type": "function"
    },
    {
      "inputs": [],
      "name": "toggleLimitedMaxLiquidity",
      "outputs": [],
      "stateMutability": "nonpayable",
      "type": "function"
    },
    {
      "inputs": [],
      "name": "togglePermissionedSiloCreation",
      "outputs": [],
      "stateMutability": "nonpayable",
      "type": "function"
    },
    {
      "inputs": [],
      "name": "tokensFactory",
      "outputs": [
        {
          "internalType": "contract ITokensFactory",
          "name": "",
          "type": "address"
        }
      ],
      "stateMutability": "view",
      "type": "function"
    },
    {
      "inputs": [
        {
          "internalType": "address",
          "name": "newOwner",
          "type": "address"
        }
      ],
      "name": "transferOwnership",
      "outputs": [],
      "stateMutability": "nonpayable",
      "type": "function"
    },
    {
      "inputs": [
        {
          "internalType": "address",
          "name": "newPendingOwner",
          "type": "address"
        }
      ],
      "name": "transferPendingOwnership",
      "outputs": [],
      "stateMutability": "nonpayable",
      "type": "function"
    },
    {
      "inputs": [
        {
          "internalType": "uint256",
          "name": "_siloVersion",
          "type": "uint256"
        }
      ],
      "name": "unregisterSiloVersion",
      "outputs": [],
      "stateMutability": "nonpayable",
      "type": "function"
    }
  ],
  "transactionHash": "0xa75fd4fd1500c112e5aad1c0bfcc6d6b74662ac4bddb3914f70a9507826df61a",
  "args": [
    "0x8D625C730018Cfd61C2F4dCe6A338053FDbd9301",
    "0xa3CEF6aF9312C6217643f38D8Bfb16da6D6FEd4d",
    "0x4aFe35da94692D6be34ACD950360455f79066939",
    "500000000000000000",
    "625000000000000000",
    [
      "0xc778417e063141139fce010982780140aa0cd5ab"
    ]
  ],
  "numDeployments": 2,
  "solcInputHash": "513d71c9d0c126d5b4efd168466082e1",
  "bytecode": "0x60806040523480156200001157600080fd5b506040516200334038038062003340833981016040819052620000349162000431565b85620000403362000343565b6001600160a01b038116620000915760405162461bcd60e51b815260206004820152601260248201527132b6b83a3c9039b4b637ab32b934b334b2b960711b60448201526064015b60405180910390fd5b600380546001600160a01b0319166001600160a01b039283161790556001805462ffffff60a01b19166201010160a01b1790556802b5e3af16b188000060025585166200012f5760405162461bcd60e51b815260206004820152602560248201527f5265706f7369746f72792e636f6e7374727563746f723a20656d70747920666160448201526463746f727960d81b606482015260840162000088565b6001600160a01b0384166200019b5760405162461bcd60e51b815260206004820152602b60248201527f5265706f7369746f72792e636f6e7374727563746f723a20656d70747920746f60448201526a6b656e73466163746f727960a81b606482015260840162000088565b8051620001fe5760405162461bcd60e51b815260206004820152602a60248201527f5265706f7369746f72792e636f6e7374727563746f723a20656d7074792062726044820152696964676541737365747360b01b606482015260840162000088565b60005b8151811015620002b257818181518110620002205762000220620005ae565b60200260200101516001600160a01b031663313ce5676040518163ffffffff1660e01b815260040160206040518083038186803b1580156200026157600080fd5b505afa15801562000276573d6000803e3d6000fd5b505050506040513d601f19601f820116820180604052508101906200029c919062000558565b5080620002a98162000584565b91505062000201565b50600160138190556014819055600052601260209081527f71a67924699a20698523213e55fe499d539379d7769cd5567e2c45d583f815a380546001600160a01b038089166001600160a01b031992831617909255600f80549288169290911691909117905560058490556006839055815162000336916008919084019062000393565b50505050505050620005da565b600080546001600160a01b038381166001600160a01b0319831681178455604051919092169283917f8be0079c531659141344cd1fd0a4f28419497f9722a3daafe3b4186f6b6457e09190a35050565b828054828255906000526020600020908101928215620003eb579160200282015b82811115620003eb57825182546001600160a01b0319166001600160a01b03909116178255602090920191600190910190620003b4565b50620003f9929150620003fd565b5090565b5b80821115620003f95760008155600101620003fe565b80516001600160a01b03811681146200042c57600080fd5b919050565b60008060008060008060c087890312156200044b57600080fd5b620004568762000414565b955060206200046781890162000414565b9550620004776040890162000414565b606089015160808a015160a08b015192975090955093506001600160401b0380821115620004a457600080fd5b818a0191508a601f830112620004b957600080fd5b815181811115620004ce57620004ce620005c4565b8060051b604051601f19603f83011681018181108582111715620004f657620004f6620005c4565b604052828152858101935084860182860187018f10156200051657600080fd5b600095505b8386101562000544576200052f8162000414565b8552600195909501949386019386016200051b565b508096505050505050509295509295509295565b6000602082840312156200056b57600080fd5b815160ff811681146200057d57600080fd5b9392505050565b6000600019821415620005a757634e487b7160e01b600052601160045260246000fd5b5060010190565b634e487b7160e01b600052603260045260246000fd5b634e487b7160e01b600052604160045260246000fd5b612d5680620005ea6000396000f3fe608060405234801561001057600080fd5b50600436106103ba5760003560e01c806373c3a67a116101f4578063c94606f71161011a578063ed4c8bb3116100ad578063f887ea401161007c578063f887ea40146108e3578063fa2a0639146108f6578063fb6131a014610909578063fbb8d6021461091c57600080fd5b8063ed4c8bb3146108a2578063ee306a34146108b5578063f2727bb8146108bd578063f2fde38b146108d057600080fd5b8063d6d6e3f8116100e9578063d6d6e3f814610877578063d80c3eda1461087f578063e30c397814610888578063eafecffa1461089957600080fd5b8063c94606f71461082a578063c9993b0d1461083d578063cc1fdf1614610851578063cec10c111461086457600080fd5b8063ab675dd111610192578063c0d7865511610161578063c0d78655146107d1578063c279f21d146107e4578063c2fa7494146107f7578063c44ec1921461080a57600080fd5b8063ab675dd11461076c578063ac40caf41461077f578063b64ddd92146107aa578063b8fb7399146107bd57600080fd5b80637adbf973116101ce5780637adbf973146107225780637dc0d1d0146107355780638da5cb5b146107485780638ebeda2a1461075957600080fd5b806373c3a67a146106d1578063791183d1146106f157806379ba50971461071a57600080fd5b806339502956116102e45780636465dfa611610277578063685f628a11610246578063685f628a1461069a5780636d39a6cc146106ad57806370243c7d146106b6578063715018a6146106c957600080fd5b80636465dfa61461065957806364eba57e1461066c57806364f7a8d31461067f578063671a249c1461068757600080fd5b80635437988d116102b35780635437988d1461061757806356fecf1a1461062a5780635d3207671461063d5780635f48f44b1461065057600080fd5b806339502956146105d557806348b3eabc146105de5780634c3baec5146105f15780634fbc58951461060457600080fd5b80631e11d9371161035c5780632cd5f3171161032b5780632cd5f317146105735780633278c6941461058657806332936c441461059957806337f9a6bd146105ac57600080fd5b80631e11d9371461050457806324c89a491461050c57806325ed3d4414610555578063296041ea1461055e57600080fd5b8063095513831161039857806309551383146104835780630b9290581461049657806312f0dcd8146104b157806319afb898146104ef57600080fd5b806301d6b813146103bf578063072ea61c1461042b57806307e9303314610442575b600080fd5b6104026103cd3660046127b4565b60176020908152600092835260408084209091529082529020805460018201546002909201549091906001600160a01b031683565b6040805193845260208401929092526001600160a01b0316908201526060015b60405180910390f35b610434600c5481565b604051908152602001610422565b61046b6104503660046129b4565b6012602052600090815260409020546001600160a01b031681565b6040516001600160a01b039091168152602001610422565b61046b6104913660046129b4565b610930565b6005546006546007546104029291906001600160a01b031683565b6104df6104bf366004612773565b6001600160a01b0390811660009081526016602052604090205416151590565b6040519015158152602001610422565b6105026104fd366004612773565b61095a565b005b610502610af1565b6105486040518060400160405280601c81526020017f19457468657265756d205369676e6564204d6573736167653a0a33320000000081525081565b6040516104229190612bd8565b610434600d5481565b610566610b90565b6040516104229190612bc5565b610502610581366004612773565b610bf2565b610502610594366004612773565b610d73565b6104346105a73660046127b4565b610e1f565b61046b6105ba366004612773565b6015602052600090815260409020546001600160a01b031681565b61043460135481565b61046b6105ec3660046127b4565b610e63565b61046b6105ff3660046129b4565b610eb1565b610502610612366004612981565b610ec1565b610502610625366004612773565b610f96565b6105026106383660046129b4565b611024565b61050261064b3660046129b4565b611092565b61043460001981565b6105026106673660046129b4565b6110d0565b61046b61067a36600461288d565b61110e565b61050261121d565b60035461046b906001600160a01b031681565b6105026106a8366004612773565b6112b1565b61043460145481565b6105026106c436600461282e565b6113cf565b610502611471565b6104346106df366004612773565b600a6020526000908152604090205481565b61046b6106ff366004612773565b6016602052600090815260409020546001600160a01b031681565b6105026114b6565b610502610730366004612773565b61154c565b60105461046b906001600160a01b031681565b6000546001600160a01b031661046b565b6105026107673660046128e6565b611653565b61050261077a3660046129b4565b6116fd565b61043461078d3660046127b4565b600460209081526000928352604080842090915290825290205481565b6104346107b83660046127b4565b6117df565b6001546104df90600160a81b900460ff1681565b6105026107df366004612773565b611850565b6105026107f23660046129b4565b611957565b6104346108053660046127b4565b611a01565b610434610818366004612773565b600b6020526000908152604090205481565b6105026108383660046128e6565b611a41565b6001546104df90600160b01b900460ff1681565b600f5461046b906001600160a01b031681565b6105026108723660046129cd565b611aaa565b610502611b4e565b61043460025481565b6001546001600160a01b031661046b565b610434600e5481565b6105026108b0366004612773565b611be3565b610566611cf4565b6104df6108cb36600461288d565b611d54565b6105026108de366004612773565b611d84565b60115461046b906001600160a01b031681565b6105026109043660046127ed565b611e2b565b6105026109173660046129f9565b611ec5565b6001546104df90600160a01b900460ff1681565b6009818154811061094057600080fd5b6000918252602090912001546001600160a01b0316905081565b3361096d6000546001600160a01b031690565b6001600160a01b03161461099c5760405162461bcd60e51b815260040161099390612beb565b60405180910390fd5b60095415610a51576001600160a01b0381166000908152600b60205260409020541580156109fb5750806001600160a01b031660096000815481106109e3576109e3612cdf565b6000918252602090912001546001600160a01b031614155b610a515760405162461bcd60e51b815260206004820152602160248201527f5265706f7369746f72793a20617373657420616c72656164792072656d6f76656044820152601960fa1b6064820152608401610993565b600980546001600160a01b0383166000818152600b60209081526040808320859055600185018655949091527f6e1540171b6c0c960b71a7020d9f60077f6af931a8bbf590da0223dacf75c7af90920180546001600160a01b0319168217905591519182527f780c06b06ab07a0d47596bc3082bbd3f7ecc1907ff035c3ea0e2a1602876a52b910160405180910390a1610aee600a600883611fd0565b50565b33610b046000546001600160a01b031690565b6001600160a01b031614610b2a5760405162461bcd60e51b815260040161099390612beb565b6001805460ff600160a81b808304821615810260ff60a81b1990931692909217928390556040517f0a5b76e624ee06d344a0b42e72adaefbec1739a56a72313432656fce4467124893610b869390049091161515815260200190565b60405180910390a1565b60606009805480602002602001604051908101604052809291908181526020018280548015610be857602002820191906000526020600020905b81546001600160a01b03168152600190910190602001808311610bca575b5050505050905090565b33610c056000546001600160a01b031690565b6001600160a01b031614610c2b5760405162461bcd60e51b815260040161099390612beb565b60085415610cd6576001600160a01b0381166000908152600a6020526040902054158015610c8a5750806001600160a01b03166008600081548110610c7257610c72612cdf565b6000918252602090912001546001600160a01b031614155b610cd65760405162461bcd60e51b815260206004820152601f60248201527f5265706f7369746f72793a20617373657420616c7265616479206164646564006044820152606401610993565b600880546001600160a01b0383166000818152600a60209081526040808320859055600185018655949091527ff3f7a9fe364faab93b216da50a3214154f22a0a2b415b23a84c8169e8b636ee390920180546001600160a01b0319168217905591519182527fda0511750b81a254e0b084c2c863785e3d1c5b2b989afd8ac0e884f8ee2e033c910160405180910390a1610aee600b600983611fd0565b33610d866000546001600160a01b031690565b6001600160a01b031614610dac5760405162461bcd60e51b815260040161099390612beb565b806001600160a01b0316610dc86000546001600160a01b031690565b6001600160a01b03167f3c672e6c16e239c29e969deaf4eae15d7002350bf5490175e7481155af04c83a60405160405180910390a3600180546001600160a01b0319166001600160a01b0392909216919091179055565b6001600160a01b0380831660009081526017602090815260408083209385168352929052908120600101548015610e57579050610e5d565b50506006545b92915050565b6001600160a01b03808316600090815260176020908152604080832085851684529091528120600201549091168015610e9d579050610e5d565b50506007546001600160a01b031692915050565b6008818154811061094057600080fd5b33610ed46000546001600160a01b031690565b6001600160a01b031614610efa5760405162461bcd60e51b815260040161099390612beb565b60006014546001610f0b9190612c39565b6014819055600081815260126020526040902080546001600160a01b0319166001600160a01b03861617905590508115610f455760138190555b601354604080516001600160a01b03861681526020810184905280820192909252517f2472fc33db7884be9fd5000f5270b3154d839ee38cca410ba5fb1cc816ab33249181900360600190a1505050565b33610fa96000546001600160a01b031690565b6001600160a01b031614610fcf5760405162461bcd60e51b815260040161099390612beb565b600380546001600160a01b0319166001600160a01b0383169081179091556040519081527f7a632eb7c07d65f761e1454f53b162e097033c03ba5e57b7398f1df16518da1e906020015b60405180910390a150565b336110376000546001600160a01b031690565b6001600160a01b03161461105d5760405162461bcd60e51b815260040161099390612beb565b60028190556040518181527f5b71e2324e73b2492a36b7c5f86de1bd745d891c29c3fa39e1ed97960a259eb390602001611019565b336110a56000546001600160a01b031690565b6001600160a01b0316146110cb5760405162461bcd60e51b815260040161099390612beb565b600655565b336110e36000546001600160a01b031690565b6001600160a01b0316146111095760405162461bcd60e51b815260040161099390612beb565b600555565b6040516bffffffffffffffffffffffff19606087811b8216602084015286901b166034820152600090819060480160405160208183030381529060405280519060200120905060006040518060400160405280601c81526020017f19457468657265756d205369676e6564204d6573736167653a0a3332000000008152508260405160200161119e929190612b2b565b60408051601f1981840301815282825280516020918201206000845290830180835281905260ff8916918301919091526060820187905260808201869052915060019060a0016020604051602081039080840390855afa158015611206573d6000803e3d6000fd5b5050604051601f1901519998505050505050505050565b336112306000546001600160a01b031690565b6001600160a01b0316146112565760405162461bcd60e51b815260040161099390612beb565b6001805460ff600160b01b808304821615810260ff60b01b1990931692909217928390556040517eace7bfa8dc4895fea42b63dd0304a5b26ee0982b8d764257b6b106b11a454193610b869390049091161515815260200190565b336112c46000546001600160a01b031690565b6001600160a01b0316146112ea5760405162461bcd60e51b815260040161099390612beb565b6001600160a01b0381166113665760405162461bcd60e51b815260206004820152603860248201527f5265706f7369746f72793a206e65772064656661756c74496e7465726573745260448201527f6174654d6f64656c206973207a65726f206164647265737300000000000000006064820152608401610993565b600754604080516001600160a01b03928316815291831660208301527f1248f8750c9f60e1f800102d9248fa767877fba538403657d414e2d25b6025ce910160405180910390a1600780546001600160a01b0319166001600160a01b0392909216919091179055565b336113e26000546001600160a01b031690565b6001600160a01b0316146114085760405162461bcd60e51b815260040161099390612beb565b6040805160608101825293845260208085019384526001600160a01b039283168583019081529683166000908152601782528281209684168152959052909320915182555160018201559151600290920180546001600160a01b03191692909116919091179055565b336114846000546001600160a01b031690565b6001600160a01b0316146114aa5760405162461bcd60e51b815260040161099390612beb565b6114b46000612119565b565b6001546001600160a01b031633146115205760405162461bcd60e51b815260206004820152602760248201527f4f776e61626c653a2063616c6c6572206973206e6f74207468652070656e64696044820152663733a7bbb732b960c91b6064820152608401610993565b61153a6115356001546001600160a01b031690565b612119565b600180546001600160a01b0319169055565b3361155f6000546001600160a01b031690565b6001600160a01b0316146115855760405162461bcd60e51b815260040161099390612beb565b6001600160a01b0381166115ea5760405162461bcd60e51b815260206004820152602660248201527f5265706f7369746f72793a206e6577206f7261636c65206973207a65726f206160448201526564647265737360d01b6064820152608401610993565b601054604080516001600160a01b03928316815291831660208301527f93450534569bdbb3109b44eef77c9b236897f4caa4f201be10252d6462a56937910160405180910390a1601080546001600160a01b0319166001600160a01b0392909216919091179055565b336116666000546001600160a01b031690565b6001600160a01b03161461168c5760405162461bcd60e51b815260040161099390612beb565b6003546001600160a01b0316156116e55760405162461bcd60e51b815260206004820152601f60248201527f5265706f7369746f72793a20757365206e657753696c6f5665726966696564006044820152606401610993565b6116f58686868686866001612169565b505050505050565b336117106000546001600160a01b031690565b6001600160a01b0316146117365760405162461bcd60e51b815260040161099390612beb565b801580159061174757506014548111155b61179e5760405162461bcd60e51b815260206004820152602260248201527f5265706f7369746f72793a2076657273696f6e20646f6573206e6f74206578696044820152611cdd60f21b6064820152608401610993565b60135460408051918252602082018390527fcfc71314f29348b844c29f0a4f4f6d0f144f481ec1eaa6cb42bf0ea2e57eba8b910160405180910390a1601355565b600154600090600160a01b900460ff1680156118045750600154600160b01b900460ff165b15611846576001600160a01b03808416600090815260046020908152604080832093861683529290522054801561183c579050610e5d565b5050600254610e5d565b5060001992915050565b336118636000546001600160a01b031690565b6001600160a01b0316146118895760405162461bcd60e51b815260040161099390612beb565b6001600160a01b0381166118ee5760405162461bcd60e51b815260206004820152602660248201527f5265706f7369746f72793a206e657720726f75746572206973207a65726f206160448201526564647265737360d01b6064820152608401610993565b601154604080516001600160a01b03928316815291831660208301527f363beda10ebf02584eda9ab4ca38e353bc57591b50714ba84692ed584280672d910160405180910390a1601180546001600160a01b0319166001600160a01b0392909216919091179055565b3361196a6000546001600160a01b031690565b6001600160a01b0316146119905760405162461bcd60e51b815260040161099390612beb565b6000818152601260209081526040918290205482516001600160a01b0390911681529081018390527fece8d432375a07b21c9502092d92ae0f34e76a35f8c4c69e062cd7c2dbe0279e910160405180910390a1600090815260126020526040902080546001600160a01b0319169055565b6001600160a01b0380831660009081526017602090815260408083209385168352929052908120548015611a36579050610e5d565b505060055492915050565b6003546001600160a01b031615611a9a5760405162461bcd60e51b815260206004820152601f60248201527f5265706f7369746f72793a20757365206e657753696c6f5665726966696564006044820152606401610993565b6116f58686868686866000612169565b33611abd6000546001600160a01b031690565b6001600160a01b031614611ae35760405162461bcd60e51b815260040161099390612beb565b600c54600d54600e54604080519384526020840187905283019190915260608201849052608082015260a081018290527fa3f1bea221509c108990ce42d4e5863cfc867e2278ddb0866dec442c2082fdcf9060c00160405180910390a1600c92909255600d55600e55565b33611b616000546001600160a01b031690565b6001600160a01b031614611b875760405162461bcd60e51b815260040161099390612beb565b6001805460ff600160a01b808304821615810260ff60a01b1990931692909217928390556040517fe7d69a5901cea312ff408411a66d0131bbad02de0314b7c56d140d58d11b029f93610b869390049091161515815260200190565b33611bf66000546001600160a01b031690565b6001600160a01b031614611c1c5760405162461bcd60e51b815260040161099390612beb565b6001600160a01b038116611c8b5760405162461bcd60e51b815260206004820152603060248201527f5265706f7369746f72792e736574546f6b656e73466163746f72793a20656d7060448201526f747920746f6b656e73466163746f727960801b6064820152608401610993565b600f54604080516001600160a01b03928316815291831660208301527fa5aca89bc6f8378bfe19e0816667b4810c29cf7f5a908eab9eb3a98ef1089e08910160405180910390a1600f80546001600160a01b0319166001600160a01b0392909216919091179055565b60606008805480602002602001604051908101604052809291908181526020018280548015610be8576020028201919060005260206000209081546001600160a01b03168152600190910190602001808311610bca575050505050905090565b6003546000906001600160a01b0316611d70878787878761110e565b6001600160a01b0316149695505050505050565b33611d976000546001600160a01b031690565b6001600160a01b031614611dbd5760405162461bcd60e51b815260040161099390612beb565b6001600160a01b038116611e225760405162461bcd60e51b815260206004820152602660248201527f4f776e61626c653a206e6577206f776e657220697320746865207a65726f206160448201526564647265737360d01b6064820152608401610993565b610aee81612119565b33611e3e6000546001600160a01b031690565b6001600160a01b031614611e645760405162461bcd60e51b815260040161099390612beb565b6001600160a01b0383811660008181526004602090815260408083209487168084529482529182902085905590518481527f25c16b7d0bcf048ed0d91eb5e50591eb538c034fd4ebee6cac8b7c9cf77c770b910160405180910390a3505050565b611f5786601060009054906101000a90046001600160a01b03166001600160a01b031663217a4b706040518163ffffffff1660e01b815260040160206040518083038186803b158015611f1757600080fd5b505afa158015611f2b573d6000803e3d6000fd5b505050506040513d601f19601f82011682018060405250810190611f4f9190612797565b8b8b8b611d54565b611fb55760405162461bcd60e51b815260206004820152602960248201527f5265706f7369746f72793a206f66662d636861696e20766572696669636174696044820152681bdb8819985a5b195960ba1b6064820152608401610993565b611fc58686868686866000612169565b505050505050505050565b815480611fdd5750505050565b6001600160a01b038216600081815260208690526040902054845490919085908390811061200d5761200d612cdf565b6000918252602090912001546001600160a01b03161461202e575050505050565b600061203b600184612c51565b90508082146120c557600085828154811061205857612058612cdf565b9060005260206000200160009054906101000a90046001600160a01b031690508086848154811061208b5761208b612cdf565b600091825260208083209190910180546001600160a01b0319166001600160a01b0394851617905592909116815290879052604090208290555b6001600160a01b03841660009081526020879052604081205584548590806120ef576120ef612cc9565b600082815260209020810160001990810180546001600160a01b0319169055019055505050505050565b600080546001600160a01b038381166001600160a01b0319831681178455604051919092169283917f8be0079c531659141344cd1fd0a4f28419497f9722a3daafe3b4186f6b6457e09190a35050565b600154600160a01b900460ff16801561218b5750600154600160a81b900460ff165b15806121b05750336121a56000546001600160a01b031690565b6001600160a01b0316145b6121fc5760405162461bcd60e51b815260206004820152601b60248201527f53696c6f3a6f6e6c79206f776e65722063616e20706572666f726d00000000006044820152606401610993565b856122075760135495505b6000600880548060200260200160405190810160405280929190818152602001828054801561225f57602002820191906000526020600020905b81546001600160a01b03168152600190910190602001808311612241575b505050505090508161227557612275818961244f565b60008781526012602052604080822054905163130a1df960e01b81526001600160a01b039091169063130a1df9906122b3908c908b90600401612b99565b602060405180830381600087803b1580156122cd57600080fd5b505af11580156122e1573d6000803e3d6000fd5b505050506040513d601f19601f820116820180604052508101906123059190612797565b9050806001600160a01b031663a388991b6040518163ffffffff1660e01b8152600401600060405180830381600087803b15801561234257600080fd5b505af1158015612356573d6000803e3d6000fd5b5050506001600160a01b03808b16600081815260156020908152604080832080549588166001600160a01b0319968716811790915580845260169092529182902080549094168317909355519092507fef22a38629aecbdaabba139ab30c8087ef835f0abedf24d57db792f55bca15d5906123d4908c908790612c20565b60405180910390a360105460405163332f3c2160e01b81526001600160a01b039091169063332f3c2190612412908c908a908a908a90600401612b4d565b600060405180830381600087803b15801561242c57600080fd5b505af1158015612440573d6000803e3d6000fd5b50505050505050505050505050565b6001825111801561249a57506001600160a01b0381166000818152600a60205260409020548351849190811061248757612487612cdf565b60200260200101516001600160a01b0316145b1561256b5760005b82518110156125655760006001600160a01b0316601660008584815181106124cc576124cc612cdf565b6020908102919091018101516001600160a01b03908116835290820192909252604001600020541614612553576015600084838151811061250f5761250f612cdf565b6020908102919091018101516001600160a01b03908116835290820192909252604090810160002054905163caa5c69360e01b815291166004820152602401610993565b8061255d81612c98565b9150506124a2565b5061261b565b6001600160a01b0381166000818152600a602052604090205460088054909190811061259957612599612cdf565b6000918252602090912001546001600160a01b0316141561261b5760405162461bcd60e51b815260206004820152603660248201527f5265706f7369746f72793a2063616e6e6f74206372656174652053696c6f20666044820152751bdc881cda5b99db1948189c9a5919d948185cdcd95d60521b6064820152608401610993565b6001600160a01b0381811660009081526015602052604090205416156126835760405162461bcd60e51b815260206004820152601760248201527f5265706f7369746f72793a2073696c6f206578697374730000000000000000006044820152606401610993565b5050565b60008083601f84011261269957600080fd5b50813567ffffffffffffffff8111156126b157600080fd5b6020830191508360208285010111156126c957600080fd5b9250929050565b600082601f8301126126e157600080fd5b813567ffffffffffffffff808211156126fc576126fc612cf5565b604051601f8301601f19908116603f0116810190828211818310171561272457612724612cf5565b8160405283815286602085880101111561273d57600080fd5b836020870160208301376000602085830101528094505050505092915050565b803560ff8116811461276e57600080fd5b919050565b60006020828403121561278557600080fd5b813561279081612d0b565b9392505050565b6000602082840312156127a957600080fd5b815161279081612d0b565b600080604083850312156127c757600080fd5b82356127d281612d0b565b915060208301356127e281612d0b565b809150509250929050565b60008060006060848603121561280257600080fd5b833561280d81612d0b565b9250602084013561281d81612d0b565b929592945050506040919091013590565b600080600080600060a0868803121561284657600080fd5b853561285181612d0b565b9450602086013561286181612d0b565b93506040860135925060608601359150608086013561287f81612d0b565b809150509295509295909350565b600080600080600060a086880312156128a557600080fd5b85356128b081612d0b565b945060208601356128c081612d0b565b93506128ce6040870161275d565b94979396509394606081013594506080013592915050565b60008060008060008060a087890312156128ff57600080fd5b863561290a81612d0b565b955060208701359450604087013567ffffffffffffffff8082111561292e57600080fd5b61293a8a838b016126d0565b95506060890135915061294c82612d0b565b9093506080880135908082111561296257600080fd5b5061296f89828a01612687565b979a9699509497509295939492505050565b6000806040838503121561299457600080fd5b823561299f81612d0b565b9150602083013580151581146127e257600080fd5b6000602082840312156129c657600080fd5b5035919050565b6000806000606084860312156129e257600080fd5b505081359360208301359350604090920135919050565b60008060008060008060008060006101008a8c031215612a1857600080fd5b612a218a61275d565b985060208a0135975060408a0135965060608a0135612a3f81612d0b565b955060808a0135945060a08a013567ffffffffffffffff80821115612a6357600080fd5b612a6f8d838e016126d0565b955060c08c01359150612a8182612d0b565b90935060e08b01359080821115612a9757600080fd5b50612aa48c828d01612687565b915080935050809150509295985092959850929598565b600081518084526020808501945080840160005b83811015612af45781516001600160a01b031687529582019590820190600101612acf565b509495945050505050565b60008151808452612b17816020860160208601612c68565b601f01601f19169290920160200192915050565b60008351612b3d818460208801612c68565b9190910191825250602001919050565b6001600160a01b0385811682528416602082015260606040820181905281018290526000828460808401376000608084840101526080601f19601f850116830101905095945050505050565b6001600160a01b0383168152604060208201819052600090612bbd90830184612aff565b949350505050565b6020815260006127906020830184612abb565b6020815260006127906020830184612aff565b6020808252818101527f4f776e61626c653a2063616c6c6572206973206e6f7420746865206f776e6572604082015260600190565b828152604060208201526000612bbd6040830184612abb565b60008219821115612c4c57612c4c612cb3565b500190565b600082821015612c6357612c63612cb3565b500390565b60005b83811015612c83578181015183820152602001612c6b565b83811115612c92576000848401525b50505050565b6000600019821415612cac57612cac612cb3565b5060010190565b634e487b7160e01b600052601160045260246000fd5b634e487b7160e01b600052603160045260246000fd5b634e487b7160e01b600052603260045260246000fd5b634e487b7160e01b600052604160045260246000fd5b6001600160a01b0381168114610aee57600080fdfea2646970667358221220ba8dd43513f5ff5476ffd321b55cd8eb188173d8357a5c94e874eea10b6c9d1664736f6c63430008070033",
  "devdoc": {
    "kind": "dev",
    "methods": {
      "acceptOwnership()": {
        "details": "Transfers ownership of the contract to a pending owner Can only be called by the pending owner."
      },
      "newSilo(address,uint256,bytes,address,bytes)": {
        "details": "use this method only when off-chain verification is OFF",
        "params": {
          "_oracle": "(optional) if provided, asset will be initialised on that oracle        it does not mean, this oracle will be chosen for asset, it only means, after valid initialization,        it could be chosen, if it is the best one",
          "_oracleData": "custom data for oracle initialization",
          "_siloAsset": "silo asset",
          "_siloData": "(optional) data that may be needed during silo creation",
          "_siloVersion": "version of silo implementation"
        }
      },
      "newSiloVerified(uint8,bytes32,bytes32,address,uint256,bytes,address,bytes)": {
        "details": "use this method only when off-chain verification is ON",
        "params": {
          "_oracle": "(optional) if provided, asset will be initialised on that oracle        it does not mean, this oracle will be chosen for asset, it only means, after valid initialization,        it could be chosen, if is is the best one",
          "_oracleData": "custom data for oracle initialization",
          "_r": "r portion of off-chain verifier signature",
          "_s": "s portion of off-chain verifier signature",
          "_siloAsset": "silo asset",
          "_siloData": "(optional) data that may be needed during silo creation",
          "_siloVersion": "version of silo implementation",
          "_v": "v portion of off-chain verifier signature"
        }
      },
      "pendingOwner()": {
        "details": "Returns the address of the pending owner."
      },
      "renounceOwnership()": {
        "details": "Leaves the contract without owner. It will not be possible to call `onlyOwner` functions anymore. Can only be called by the current owner. NOTE: Renouncing ownership will leave the contract without an owner, thereby removing any functionality that is only available to the owner."
      },
      "replaceSilo(address,uint256,bytes,address,bytes)": {
        "details": "use this method to deploy new version of Silo for an asset that already has Silo deployed.      Only owner (DAO) can replace.",
        "params": {
          "_oracle": "(optional) if provided, asset will be initialised on that oracle        it does not mean, this oracle will be chosen for asset, it only means, after valid initialization,        it could be chosen, if it is the best one",
          "_oracleData": "custom data for oracle initialization",
          "_siloAsset": "silo asset",
          "_siloData": "(optional) data that may be needed during silo creation",
          "_siloVersion": "version of silo implementation. Use 0 for default version which is fine        for 99% of cases."
        }
      },
      "setVerifier(address)": {
        "params": {
          "_verifier": "off-chain verifier address, if set to address(0) then verification is off"
        }
      },
      "siloOffChainVerification(address,address,uint8,bytes32,bytes32)": {
        "details": "checks if off-chain verifier sign allowance to create silo         verifier signature if valid for an indefinite period"
      },
      "transferOwnership(address)": {
        "details": "Transfers ownership of the contract to a new account (`newOwner`). Can only be called by the current owner."
      },
      "transferPendingOwnership(address)": {
        "details": "Transfers pending ownership of the contract to a new account (`newPendingOwner`). Can only be called by the current owner."
      }
    },
    "stateVariables": {
      "assetConfigs": {
        "details": "maps silo => asset => config"
      },
      "bridgeAssets": {
        "details": "List of bridge assets supported by the protocol"
      },
      "bridgeAssetsIndex": {
        "details": "Index mapping for bridgeAssets array"
      },
      "defaultAssetConfig": {
        "details": "Default values for AssetConfig. Used if values are not configured manually."
      },
      "entryFee": {
        "details": "one time protocol fee for opening a borrow position in precision points"
      },
      "protocolLiquidationFee": {
        "details": "protocol share in liquidation profit"
      },
      "protocolShareFee": {
        "details": "protocol revenue share in interest paid"
      },
      "removedBridgeAssets": {
        "details": "List of bridge assets removed by the protocol"
      },
      "removedBridgeAssetsIndexes": {
        "details": "Index mapping for removedBridgeAssets array"
      },
      "silo": {
        "details": "maps token address to silo address, asset => silo"
      },
      "siloDefaultVersion": {
        "details": "0 means it is not set"
      },
      "siloFactory": {
        "details": "version => IFactory"
      },
      "siloLatestVersion": {
        "details": "0 means it is not set"
      },
      "siloReverse": {
        "details": "maps token address to silo address, silo => asset"
      }
    },
    "version": 1
  },
  "userdoc": {
    "kind": "user",
    "methods": {},
    "version": 1
  },
  "storageLayout": {
    "storage": [
      {
        "astId": 19953,
        "contract": "contracts/Repository.sol:Repository",
        "label": "_owner",
        "offset": 0,
        "slot": "0",
        "type": "t_address"
      },
      {
        "astId": 19955,
        "contract": "contracts/Repository.sol:Repository",
        "label": "_pendingOwner",
        "offset": 0,
        "slot": "1",
        "type": "t_address"
      },
      {
        "astId": 19312,
        "contract": "contracts/Repository.sol:Repository",
        "label": "guardedLaunch",
        "offset": 20,
        "slot": "1",
        "type": "t_bool"
      },
      {
        "astId": 19315,
        "contract": "contracts/Repository.sol:Repository",
        "label": "permissionedSiloCreation",
        "offset": 21,
        "slot": "1",
        "type": "t_bool"
      },
      {
        "astId": 19318,
        "contract": "contracts/Repository.sol:Repository",
        "label": "limitedMaxLiquidity",
        "offset": 22,
        "slot": "1",
        "type": "t_bool"
      },
      {
        "astId": 19321,
        "contract": "contracts/Repository.sol:Repository",
        "label": "defaultSiloMaxDepositsLimit",
        "offset": 0,
        "slot": "2",
        "type": "t_uint256"
      },
      {
        "astId": 19324,
        "contract": "contracts/Repository.sol:Repository",
        "label": "siloVerifier",
        "offset": 0,
        "slot": "3",
        "type": "t_address"
      },
      {
        "astId": 19331,
        "contract": "contracts/Repository.sol:Repository",
        "label": "siloMaxDepositsLimits",
        "offset": 0,
        "slot": "4",
        "type": "t_mapping(t_address,t_mapping(t_address,t_uint256))"
      },
      {
        "astId": 11888,
        "contract": "contracts/Repository.sol:Repository",
        "label": "defaultAssetConfig",
        "offset": 0,
        "slot": "5",
        "type": "t_struct(AssetConfig)11884_storage"
      },
      {
        "astId": 11892,
        "contract": "contracts/Repository.sol:Repository",
        "label": "bridgeAssets",
        "offset": 0,
        "slot": "8",
        "type": "t_array(t_address)dyn_storage"
      },
      {
        "astId": 11896,
        "contract": "contracts/Repository.sol:Repository",
        "label": "removedBridgeAssets",
        "offset": 0,
        "slot": "9",
        "type": "t_array(t_address)dyn_storage"
      },
      {
        "astId": 11901,
        "contract": "contracts/Repository.sol:Repository",
        "label": "bridgeAssetsIndex",
        "offset": 0,
        "slot": "10",
        "type": "t_mapping(t_address,t_uint256)"
      },
      {
        "astId": 11906,
        "contract": "contracts/Repository.sol:Repository",
        "label": "removedBridgeAssetsIndexes",
        "offset": 0,
        "slot": "11",
        "type": "t_mapping(t_address,t_uint256)"
      },
      {
        "astId": 11910,
        "contract": "contracts/Repository.sol:Repository",
        "label": "entryFee",
        "offset": 0,
        "slot": "12",
        "type": "t_uint256"
      },
      {
        "astId": 11914,
        "contract": "contracts/Repository.sol:Repository",
        "label": "protocolShareFee",
        "offset": 0,
        "slot": "13",
        "type": "t_uint256"
      },
      {
        "astId": 11917,
        "contract": "contracts/Repository.sol:Repository",
        "label": "protocolLiquidationFee",
        "offset": 0,
        "slot": "14",
        "type": "t_uint256"
      },
      {
        "astId": 11921,
        "contract": "contracts/Repository.sol:Repository",
        "label": "tokensFactory",
        "offset": 0,
        "slot": "15",
        "type": "t_contract(ITokensFactory)16406"
      },
      {
        "astId": 11924,
        "contract": "contracts/Repository.sol:Repository",
        "label": "oracle",
        "offset": 0,
        "slot": "16",
        "type": "t_address"
      },
      {
        "astId": 11927,
        "contract": "contracts/Repository.sol:Repository",
        "label": "router",
        "offset": 0,
        "slot": "17",
        "type": "t_address"
      },
      {
        "astId": 11934,
        "contract": "contracts/Repository.sol:Repository",
        "label": "siloFactory",
        "offset": 0,
        "slot": "18",
        "type": "t_mapping(t_uint256,t_contract(IFactory)15716)"
      },
      {
        "astId": 11937,
        "contract": "contracts/Repository.sol:Repository",
        "label": "siloDefaultVersion",
        "offset": 0,
        "slot": "19",
        "type": "t_uint256"
      },
      {
        "astId": 11940,
        "contract": "contracts/Repository.sol:Repository",
        "label": "siloLatestVersion",
        "offset": 0,
        "slot": "20",
        "type": "t_uint256"
      },
      {
        "astId": 11946,
        "contract": "contracts/Repository.sol:Repository",
        "label": "silo",
        "offset": 0,
        "slot": "21",
        "type": "t_mapping(t_address,t_address)"
      },
      {
        "astId": 11951,
        "contract": "contracts/Repository.sol:Repository",
        "label": "siloReverse",
        "offset": 0,
        "slot": "22",
        "type": "t_mapping(t_address,t_address)"
      },
      {
        "astId": 11959,
        "contract": "contracts/Repository.sol:Repository",
        "label": "assetConfigs",
        "offset": 0,
        "slot": "23",
        "type": "t_mapping(t_address,t_mapping(t_address,t_struct(AssetConfig)11884_storage))"
      }
    ],
    "types": {
      "t_address": {
        "encoding": "inplace",
        "label": "address",
        "numberOfBytes": "20"
      },
      "t_array(t_address)dyn_storage": {
        "base": "t_address",
        "encoding": "dynamic_array",
        "label": "address[]",
        "numberOfBytes": "32"
      },
      "t_bool": {
        "encoding": "inplace",
        "label": "bool",
        "numberOfBytes": "1"
      },
      "t_contract(IFactory)15716": {
        "encoding": "inplace",
        "label": "contract IFactory",
        "numberOfBytes": "20"
      },
      "t_contract(ITokensFactory)16406": {
        "encoding": "inplace",
        "label": "contract ITokensFactory",
        "numberOfBytes": "20"
      },
      "t_mapping(t_address,t_address)": {
        "encoding": "mapping",
        "key": "t_address",
        "label": "mapping(address => address)",
        "numberOfBytes": "32",
        "value": "t_address"
      },
      "t_mapping(t_address,t_mapping(t_address,t_struct(AssetConfig)11884_storage))": {
        "encoding": "mapping",
        "key": "t_address",
        "label": "mapping(address => mapping(address => struct Repository.AssetConfig))",
        "numberOfBytes": "32",
        "value": "t_mapping(t_address,t_struct(AssetConfig)11884_storage)"
      },
      "t_mapping(t_address,t_mapping(t_address,t_uint256))": {
        "encoding": "mapping",
        "key": "t_address",
        "label": "mapping(address => mapping(address => uint256))",
        "numberOfBytes": "32",
        "value": "t_mapping(t_address,t_uint256)"
      },
      "t_mapping(t_address,t_struct(AssetConfig)11884_storage)": {
        "encoding": "mapping",
        "key": "t_address",
        "label": "mapping(address => struct Repository.AssetConfig)",
        "numberOfBytes": "32",
        "value": "t_struct(AssetConfig)11884_storage"
      },
      "t_mapping(t_address,t_uint256)": {
        "encoding": "mapping",
        "key": "t_address",
        "label": "mapping(address => uint256)",
        "numberOfBytes": "32",
        "value": "t_uint256"
      },
      "t_mapping(t_uint256,t_contract(IFactory)15716)": {
        "encoding": "mapping",
        "key": "t_uint256",
        "label": "mapping(uint256 => contract IFactory)",
        "numberOfBytes": "32",
        "value": "t_contract(IFactory)15716"
      },
      "t_struct(AssetConfig)11884_storage": {
        "encoding": "inplace",
        "label": "struct Repository.AssetConfig",
        "members": [
          {
            "astId": 11877,
            "contract": "contracts/Repository.sol:Repository",
            "label": "maxLoanToValue",
            "offset": 0,
            "slot": "0",
            "type": "t_uint256"
          },
          {
            "astId": 11880,
            "contract": "contracts/Repository.sol:Repository",
            "label": "liquidationThreshold",
            "offset": 0,
            "slot": "1",
            "type": "t_uint256"
          },
          {
            "astId": 11883,
            "contract": "contracts/Repository.sol:Repository",
            "label": "interestRateModel",
            "offset": 0,
            "slot": "2",
            "type": "t_address"
          }
        ],
        "numberOfBytes": "96"
      },
      "t_uint256": {
        "encoding": "inplace",
        "label": "uint256",
        "numberOfBytes": "32"
      }
    }
  }
}