{
  "address": "0x83fDa0C6401A3615D59c3Ac46Cd3d211d2E088aA",
  "abi": [
    {
      "inputs": [
        {
          "internalType": "uint256",
          "name": "_assetTotalDeposits",
          "type": "uint256"
        },
        {
          "internalType": "contract IShareToken",
          "name": "_shareToken",
          "type": "address"
        },
        {
          "internalType": "address",
          "name": "_user",
          "type": "address"
        }
      ],
      "name": "balanceOfUnderlying",
      "outputs": [
        {
          "internalType": "uint256",
          "name": "",
          "type": "uint256"
        }
      ],
      "stateMutability": "view",
      "type": "function"
    },
    {
      "inputs": [
        {
          "internalType": "contract ISilo",
          "name": "_silo",
          "type": "address"
        },
        {
          "internalType": "address",
          "name": "_asset",
          "type": "address"
        },
        {
          "internalType": "address",
          "name": "_user",
          "type": "address"
        }
      ],
      "name": "borrowShare",
      "outputs": [
        {
          "internalType": "uint256",
          "name": "",
          "type": "uint256"
        }
      ],
      "stateMutability": "view",
      "type": "function"
    },
    {
      "inputs": [
        {
          "internalType": "contract ISilo",
          "name": "_silo",
          "type": "address"
        },
        {
          "internalType": "address",
          "name": "_asset",
          "type": "address"
        },
        {
          "internalType": "address",
          "name": "_user",
          "type": "address"
        }
      ],
      "name": "collateralBalanceOfUnderlying",
      "outputs": [
        {
          "internalType": "uint256",
          "name": "",
          "type": "uint256"
        }
      ],
      "stateMutability": "view",
      "type": "function"
    },
    {
      "inputs": [
        {
          "internalType": "contract ISilo",
          "name": "_silo",
          "type": "address"
        },
        {
          "internalType": "address",
          "name": "_asset",
          "type": "address"
        }
      ],
      "name": "collateralOnlyDeposits",
      "outputs": [
        {
          "internalType": "uint256",
          "name": "",
          "type": "uint256"
        }
      ],
      "stateMutability": "view",
      "type": "function"
    },
    {
      "inputs": [
        {
          "internalType": "contract ISilo",
          "name": "_silo",
          "type": "address"
        },
        {
          "internalType": "address",
          "name": "_asset",
          "type": "address"
        },
        {
          "internalType": "address",
          "name": "_user",
          "type": "address"
        }
      ],
      "name": "debtBalanceOfUnderlying",
      "outputs": [
        {
          "internalType": "uint256",
          "name": "",
          "type": "uint256"
        }
      ],
      "stateMutability": "view",
      "type": "function"
    },
    {
      "inputs": [
        {
          "internalType": "contract ISilo",
          "name": "_silo",
          "type": "address"
        },
        {
          "internalType": "address",
          "name": "_user",
          "type": "address"
        }
      ],
      "name": "getUserLiquidationThreshold",
      "outputs": [
        {
          "internalType": "uint256",
          "name": "",
          "type": "uint256"
        }
      ],
      "stateMutability": "view",
      "type": "function"
    },
    {
      "inputs": [
        {
          "internalType": "contract ISilo",
          "name": "_silo",
          "type": "address"
        },
        {
          "internalType": "address",
          "name": "_user",
          "type": "address"
        }
      ],
      "name": "getUserMaximumLTV",
      "outputs": [
        {
          "internalType": "uint256",
          "name": "",
          "type": "uint256"
        }
      ],
      "stateMutability": "view",
      "type": "function"
    },
    {
      "inputs": [
        {
          "internalType": "contract ISilo",
          "name": "_silo",
          "type": "address"
        },
        {
          "internalType": "address",
          "name": "_user",
          "type": "address"
        }
      ],
      "name": "inDebt",
      "outputs": [
        {
          "internalType": "bool",
          "name": "",
          "type": "bool"
        }
      ],
      "stateMutability": "view",
      "type": "function"
    },
    {
      "inputs": [
        {
          "internalType": "contract ISilo",
          "name": "_silo",
          "type": "address"
        },
        {
          "internalType": "address",
          "name": "_asset",
          "type": "address"
        }
      ],
      "name": "protocolFees",
      "outputs": [
        {
          "internalType": "uint256",
          "name": "",
          "type": "uint256"
        }
      ],
      "stateMutability": "view",
      "type": "function"
    },
    {
      "inputs": [
        {
          "internalType": "contract ISilo",
          "name": "_silo",
          "type": "address"
        },
        {
          "internalType": "address",
          "name": "_asset",
          "type": "address"
        }
      ],
      "name": "totalBorrowAmount",
      "outputs": [
        {
          "internalType": "uint256",
          "name": "",
          "type": "uint256"
        }
      ],
      "stateMutability": "view",
      "type": "function"
    },
    {
      "inputs": [
        {
          "internalType": "contract ISilo",
          "name": "_silo",
          "type": "address"
        },
        {
          "internalType": "address",
          "name": "_asset",
          "type": "address"
        }
      ],
      "name": "totalBorrowShare",
      "outputs": [
        {
          "internalType": "uint256",
          "name": "",
          "type": "uint256"
        }
      ],
      "stateMutability": "view",
      "type": "function"
    },
    {
      "inputs": [
        {
          "internalType": "contract ISilo",
          "name": "_silo",
          "type": "address"
        },
        {
          "internalType": "address",
          "name": "_asset",
          "type": "address"
        }
      ],
      "name": "totalDeposits",
      "outputs": [
        {
          "internalType": "uint256",
          "name": "",
          "type": "uint256"
        }
      ],
      "stateMutability": "view",
      "type": "function"
    }
  ],
  "transactionHash": "0xcbdadaed52dbc27c61ab1f6862fded3eec8ffbfc4b1ba85144a8452673f86aa6",
  "args": [],
  "numDeployments": 1,
  "solcInputHash": "d6576ae3fa601a437e270afc679efa62",
  "bytecode": "0x608060405234801561001057600080fd5b50610e51806100206000396000f3fe608060405234801561001057600080fd5b50600436106100b45760003560e01c806387f041401161007157806387f041401461014e57806388a9af4014610161578063af82d2bc14610174578063b003ec1414610187578063c719a3961461019a578063c8de8451146101ad57600080fd5b806302f417d3146100b9578063153ef040146100df57806375f746c9146100f257806379a5e1061461010557806382656b50146101185780638705c3591461012b575b600080fd5b6100cc6100c7366004610ccb565b6101c0565b6040519081526020015b60405180910390f35b6100cc6100ed366004610b8f565b6102c8565b6100cc610100366004610b8f565b610353565b6100cc610113366004610b8f565b6103dc565b6100cc610126366004610bc8565b610465565b61013e610139366004610b8f565b61056a565b60405190151581526020016100d6565b6100cc61015c366004610b8f565b610741565b6100cc61016f366004610b8f565b6107ca565b6100cc610182366004610bc8565b61084f565b6100cc610195366004610bc8565b6108e3565b6100cc6101a8366004610b8f565b610994565b6100cc6101bb366004610b8f565b6109cd565b6040516370a0823160e01b81526001600160a01b03828116600483015260009182918516906370a082319060240160206040518083038186803b15801561020657600080fd5b505afa15801561021a573d6000803e3d6000fd5b505050506040513d601f19601f8201168201806040525081019061023e9190610cb2565b90506102bd85856001600160a01b03166318160ddd6040518163ffffffff1660e01b815260040160206040518083038186803b15801561027d57600080fd5b505afa158015610291573d6000803e3d6000fd5b505050506040513d601f19601f820116820180604052508101906102b59190610cb2565b839190610a87565b9150505b9392505050565b60405163bf27304160e01b81526001600160a01b0382811660048301526000919084169063bf273041906024016101406040518083038186803b15801561030e57600080fd5b505afa158015610322573d6000803e3d6000fd5b505050506040513d601f19601f820116820180604052508101906103469190610c13565b6080015190505b92915050565b60405163bf27304160e01b81526001600160a01b0382811660048301526000919084169063bf273041906024016101406040518083038186803b15801561039957600080fd5b505afa1580156103ad573d6000803e3d6000fd5b505050506040513d601f19601f820116820180604052508101906103d19190610c13565b606001519392505050565b60405163bf27304160e01b81526001600160a01b0382811660048301526000919084169063bf273041906024016101406040518083038186803b15801561042257600080fd5b505afa158015610436573d6000803e3d6000fd5b505050506040513d601f19601f8201168201806040525081019061045a9190610c13565b60e001519392505050565b60405163bf27304160e01b81526001600160a01b0383811660048301526000919085169063bf273041906024016101406040518083038186803b1580156104ab57600080fd5b505afa1580156104bf573d6000803e3d6000fd5b505050506040513d601f19601f820116820180604052508101906104e39190610c13565b60409081015190516370a0823160e01b81526001600160a01b038481166004830152909116906370a082319060240160206040518083038186803b15801561052a57600080fd5b505afa15801561053e573d6000803e3d6000fd5b505050506040513d601f19601f820116820180604052508101906105629190610cb2565b949350505050565b600080836001600160a01b03166367e4ac2c6040518163ffffffff1660e01b815260040160006040518083038186803b1580156105a657600080fd5b505afa1580156105ba573d6000803e3d6000fd5b505050506040513d6000823e601f3d908101601f191682016040526105e29190810190610ad6565b905060005b815181101561073657846001600160a01b031663bf27304183838151811061061157610611610dd7565b60200260200101516040518263ffffffff1660e01b815260040161064491906001600160a01b0391909116815260200190565b6101406040518083038186803b15801561065d57600080fd5b505afa158015610671573d6000803e3d6000fd5b505050506040513d601f19601f820116820180604052508101906106959190610c13565b60409081015190516370a0823160e01b81526001600160a01b038681166004830152909116906370a082319060240160206040518083038186803b1580156106dc57600080fd5b505afa1580156106f0573d6000803e3d6000fd5b505050506040513d601f19601f820116820180604052508101906107149190610cb2565b156107245760019250505061034d565b8061072e81610da6565b9150506105e7565b506000949350505050565b60405163bf27304160e01b81526001600160a01b0382811660048301526000919084169063bf273041906024016101406040518083038186803b15801561078757600080fd5b505afa15801561079b573d6000803e3d6000fd5b505050506040513d601f19601f820116820180604052508101906107bf9190610c13565b60a001519392505050565b604051637f29153960e01b81526001600160a01b0382811660048301526000602483018190529190841690637f291539906044015b60206040518083038186803b15801561081757600080fd5b505afa15801561082b573d6000803e3d6000fd5b505050506040513d601f19601f820116820180604052508101906102c19190610cb2565b60405163bf27304160e01b81526001600160a01b038381166004830152600091829186169063bf273041906024016101406040518083038186803b15801561089657600080fd5b505afa1580156108aa573d6000803e3d6000fd5b505050506040513d601f19601f820116820180604052508101906108ce9190610c13565b90506102bd8160a001518260400151856101c0565b60405163bf27304160e01b81526001600160a01b038381166004830152600091829186169063bf273041906024016101406040518083038186803b15801561092a57600080fd5b505afa15801561093e573d6000803e3d6000fd5b505050506040513d601f19601f820116820180604052508101906109629190610c13565b905061097781608001518260200151856101c0565b61098a82606001518360000151866101c0565b6102bd9190610d4d565b604051637f29153960e01b81526001600160a01b0382811660048301526001602483015260009190841690637f291539906044016107ff565b60405163bf27304160e01b81526001600160a01b0382811660048301526000919084169063bf273041906024016101406040518083038186803b158015610a1357600080fd5b505afa158015610a27573d6000803e3d6000fd5b505050506040513d601f19601f82011682018060405250810190610a4b9190610c13565b604001516001600160a01b03166318160ddd6040518163ffffffff1660e01b815260040160206040518083038186803b15801561081757600080fd5b6000811580610a94575082155b15610aa1575060006102c1565b81610aac8486610d87565b6105629190610d65565b80518015158114610ac657600080fd5b919050565b8051610ac681610e03565b60006020808385031215610ae957600080fd5b825167ffffffffffffffff80821115610b0157600080fd5b818501915085601f830112610b1557600080fd5b815181811115610b2757610b27610ded565b8060051b9150610b38848301610d1c565b8181528481019084860184860187018a1015610b5357600080fd5b600095505b83861015610b825780519450610b6d85610e03565b84835260019590950194918601918601610b58565b5098975050505050505050565b60008060408385031215610ba257600080fd5b8235610bad81610e03565b91506020830135610bbd81610e03565b809150509250929050565b600080600060608486031215610bdd57600080fd5b8335610be881610e03565b92506020840135610bf881610e03565b91506040840135610c0881610e03565b809150509250925092565b60006101408284031215610c2657600080fd5b610c2e610cf2565b610c3783610acb565b8152610c4560208401610acb565b6020820152610c5660408401610acb565b6040820152606083015160608201526080830151608082015260a083015160a082015260c083015160c082015260e083015160e0820152610100808401518183015250610120610ca7818501610ab6565b908201529392505050565b600060208284031215610cc457600080fd5b5051919050565b600080600060608486031215610ce057600080fd5b833592506020840135610bf881610e03565b604051610140810167ffffffffffffffff81118282101715610d1657610d16610ded565b60405290565b604051601f8201601f1916810167ffffffffffffffff81118282101715610d4557610d45610ded565b604052919050565b60008219821115610d6057610d60610dc1565b500190565b600082610d8257634e487b7160e01b600052601260045260246000fd5b500490565b6000816000190483118215151615610da157610da1610dc1565b500290565b6000600019821415610dba57610dba610dc1565b5060010190565b634e487b7160e01b600052601160045260246000fd5b634e487b7160e01b600052603260045260246000fd5b634e487b7160e01b600052604160045260246000fd5b6001600160a01b0381168114610e1857600080fd5b5056fea26469706673582212205f072b48fc97d32e21d101fc9c1d28d4ffe26e83a456c5cb1c0271c0e69e612564736f6c63430008070033",
  "devdoc": {
    "kind": "dev",
    "methods": {
      "getUserLiquidationThreshold(address,address)": {
        "details": "calculate combined Liquidation Threshold based on user deposits",
        "returns": {
          "_0": "liquidation threshold of given user"
        }
      },
      "getUserMaximumLTV(address,address)": {
        "details": "calculate combined Maximum Loan-To-Value of user",
        "returns": {
          "_0": "maximumLTV Maximum Loan-To-Value of given user"
        }
      },
      "inDebt(address,address)": {
        "details": "check if user is in debt",
        "returns": {
          "_0": "TRUE if user borrowed any amount of any asset, otherwise FALSE"
        }
      }
    },
    "version": 1
  },
  "userdoc": {
    "kind": "user",
    "methods": {},
    "version": 1
  },
  "storageLayout": {
    "storage": [],
    "types": null
  }
}