{
  "address": "0x89933413337ff8cb5E9b71B378acCB1309E648B8",
  "abi": [
    {
      "anonymous": false,
      "inputs": [
        {
          "indexed": true,
          "internalType": "address",
          "name": "token",
          "type": "address"
        }
      ],
      "name": "NewShareCollateralTokenCreated",
      "type": "event"
    },
    {
      "anonymous": false,
      "inputs": [
        {
          "indexed": true,
          "internalType": "address",
          "name": "token",
          "type": "address"
        }
      ],
      "name": "NewShareDebtTokenCreated",
      "type": "event"
    },
    {
      "inputs": [
        {
          "internalType": "string",
          "name": "_name",
          "type": "string"
        },
        {
          "internalType": "string",
          "name": "_symbol",
          "type": "string"
        },
        {
          "internalType": "address",
          "name": "_asset",
          "type": "address"
        }
      ],
      "name": "createShareCollateralToken",
      "outputs": [
        {
          "internalType": "contract IShareToken",
          "name": "token",
          "type": "address"
        }
      ],
      "stateMutability": "nonpayable",
      "type": "function"
    },
    {
      "inputs": [
        {
          "internalType": "string",
          "name": "_name",
          "type": "string"
        },
        {
          "internalType": "string",
          "name": "_symbol",
          "type": "string"
        },
        {
          "internalType": "address",
          "name": "_asset",
          "type": "address"
        }
      ],
      "name": "createShareDebtToken",
      "outputs": [
        {
          "internalType": "contract IShareToken",
          "name": "token",
          "type": "address"
        }
      ],
      "stateMutability": "nonpayable",
      "type": "function"
    },
    {
      "inputs": [],
      "name": "tokensFactoryPing",
      "outputs": [
        {
          "internalType": "bool",
          "name": "",
          "type": "bool"
        }
      ],
      "stateMutability": "pure",
      "type": "function"
    }
  ],
  "transactionHash": "0x9b66b68873a3ac6adb68edb2fb3fcc85d302698f3526673e953bfa37dfc1643a",
  "args": [],
  "numDeployments": 3,
  "solcInputHash": "4e6ec95f1876ffdb5c89e088426a74e9",
  "bytecode": "0x608060405234801561001057600080fd5b5061318e806100206000396000f3fe608060405234801561001057600080fd5b50600436106100415760003560e01c80636849100f14610046578063ec3ad1741461005a578063f8f38d1b14610085575b600080fd5b604051600181526020015b60405180910390f35b61006d610068366004610233565b610098565b6040516001600160a01b039091168152602001610051565b61006d610093366004610233565b610112565b6000838333846040516100aa9061018c565b6100b79493929190610304565b604051809103906000f0801580156100d3573d6000803e3d6000fd5b506040519091506001600160a01b038216907f94f128ebf0749edb8bb9d165d016ce008a16bc82cbd40cc81ded2be79140d02090600090a29392505050565b60008383338460405161012490610199565b6101319493929190610304565b604051809103906000f08015801561014d573d6000803e3d6000fd5b506040519091506001600160a01b038216907fd97e9f840332422474cda9bb0976c87735b44cda62a3fe2a4e13e2e86267181290600090a29392505050565b6118838061036583390190565b61157180611be883390190565b600082601f8301126101b757600080fd5b813567ffffffffffffffff808211156101d2576101d261034e565b604051601f8301601f19908116603f011681019082821181831017156101fa576101fa61034e565b8160405283815286602085880101111561021357600080fd5b836020870160208301376000602085830101528094505050505092915050565b60008060006060848603121561024857600080fd5b833567ffffffffffffffff8082111561026057600080fd5b61026c878388016101a6565b9450602086013591508082111561028257600080fd5b5061028f868287016101a6565b92505060408401356001600160a01b03811681146102ac57600080fd5b809150509250925092565b6000815180845260005b818110156102dd576020818501810151868301820152016102c1565b818111156102ef576000602083870101525b50601f01601f19169290920160200192915050565b60808152600061031760808301876102b7565b828103602084015261032981876102b7565b6001600160a01b03958616604085015293909416606090920191909152509392505050565b634e487b7160e01b600052604160045260246000fdfe60c06040523480156200001157600080fd5b50604051620018833803806200188383398101604081905262000034916200020b565b83838383838381600390805190602001906200005292919062000091565b5080516200006890600490602084019062000091565b5050506001600160601b0319606092831b8116608052911b1660a05250620002ed945050505050565b8280546200009f906200029a565b90600052602060002090601f016020900481019282620000c357600085556200010e565b82601f10620000de57805160ff19168380011785556200010e565b828001600101855582156200010e579182015b828111156200010e578251825591602001919060010190620000f1565b506200011c92915062000120565b5090565b5b808211156200011c576000815560010162000121565b80516001600160a01b03811681146200014f57600080fd5b919050565b600082601f8301126200016657600080fd5b81516001600160401b0380821115620001835762000183620002d7565b604051601f8301601f19908116603f01168101908282118183101715620001ae57620001ae620002d7565b81604052838152602092508683858801011115620001cb57600080fd5b600091505b83821015620001ef5785820183015181830184015290820190620001d0565b83821115620002015760008385830101525b9695505050505050565b600080600080608085870312156200022257600080fd5b84516001600160401b03808211156200023a57600080fd5b620002488883890162000154565b955060208701519150808211156200025f57600080fd5b506200026e8782880162000154565b9350506200027f6040860162000137565b91506200028f6060860162000137565b905092959194509250565b600181811c90821680620002af57607f821691505b60208210811415620002d157634e487b7160e01b600052602260045260246000fd5b50919050565b634e487b7160e01b600052604160045260246000fd5b60805160601c60a05160601c6115396200034a600039600081816101b30152610dde01526000818161031c015281816104e9015281816105f901528181610e0e01528181610fa2015281816110bc015261116201526115396000f3fe608060405234801561001057600080fd5b50600436106101215760003560e01c806362221ca1116100ad5780639dc29fac116100715780639dc29fac146102a5578063a457c2d7146102b8578063a9059cbb146102cb578063dd62ed3e146102de578063eb3beb291461031757600080fd5b806362221ca11461021557806370a082311461024e57806375d680161461027757806380d4336e1461028a57806395d89b411461029d57600080fd5b8063313ce567116100f4578063313ce5671461018c57806334deadf21461019b57806338d52e0f146101ae57806339509351146101ed57806340c10f191461020057600080fd5b806306fdde0314610126578063095ea7b31461014457806318160ddd1461016757806323b872dd14610179575b600080fd5b61012e61033e565b60405161013b919061140c565b60405180910390f35b610157610152366004611385565b6103d0565b604051901515815260200161013b565b6002545b60405190815260200161013b565b610157610187366004611344565b6103e6565b6040516012815260200161013b565b6101576101a9366004611385565b610495565b6101d57f000000000000000000000000000000000000000000000000000000000000000081565b6040516001600160a01b03909116815260200161013b565b6101576101fb366004611385565b6104a2565b61021361020e366004611385565b6104de565b005b61016b61022336600461130b565b6001600160a01b03918216600090815260056020908152604080832093909416825291909152205490565b61016b61025c3660046112ee565b6001600160a01b031660009081526020819052604090205490565b610157610285366004611385565b610555565b610157610298366004611385565b61059d565b61012e6105df565b6102136102b3366004611385565b6105ee565b6101576102c6366004611385565b610661565b6101576102d9366004611385565b6106fa565b61016b6102ec36600461130b565b6001600160a01b03918216600090815260016020908152604080832093909416825291909152205490565b6101d57f000000000000000000000000000000000000000000000000000000000000000081565b60606003805461034d9061149a565b80601f01602080910402602001604051908101604052809291908181526020018280546103799061149a565b80156103c65780601f1061039b576101008083540402835291602001916103c6565b820191906000526020600020905b8154815290600101906020018083116103a957829003601f168201915b5050505050905090565b60006103dd338484610707565b50600192915050565b60006103f384848461082c565b6001600160a01b03841660009081526001602090815260408083203384529091529020548281101561047d5760405162461bcd60e51b815260206004820152602860248201527f45524332303a207472616e7366657220616d6f756e74206578636565647320616044820152676c6c6f77616e636560c01b60648201526084015b60405180910390fd5b61048a8533858403610707565b506001949350505050565b60006103dd833384610a11565b3360008181526001602090815260408083206001600160a01b038716845290915281205490916103dd9185906104d990869061143f565b610707565b336001600160a01b037f000000000000000000000000000000000000000000000000000000000000000016146105475760405162461bcd60e51b815260206004820152600e60248201526d41636365737344656e696564282960901b6044820152606401610474565b6105518282610b4c565b5050565b6001600160a01b038216600090815260056020908152604080832033845290915281205481811984101561058b5783820161058f565b6000195b905061048a85335b83610a11565b6001600160a01b038216600090815260056020908152604080832033845290915281205481838211156105d25783820361058f565b50600061048a8533610597565b60606105e9610c3f565b905090565b336001600160a01b037f000000000000000000000000000000000000000000000000000000000000000016146106575760405162461bcd60e51b815260206004820152600e60248201526d41636365737344656e696564282960901b6044820152606401610474565b6105518282610c4e565b3360009081526001602090815260408083206001600160a01b0386168452909152812054828110156106e35760405162461bcd60e51b815260206004820152602560248201527f45524332303a2064656372656173656420616c6c6f77616e63652062656c6f77604482015264207a65726f60d81b6064820152608401610474565b6106f03385858403610707565b5060019392505050565b60006103dd33848461082c565b6001600160a01b0383166107695760405162461bcd60e51b8152602060048201526024808201527f45524332303a20617070726f76652066726f6d20746865207a65726f206164646044820152637265737360e01b6064820152608401610474565b6001600160a01b0382166107ca5760405162461bcd60e51b815260206004820152602260248201527f45524332303a20617070726f766520746f20746865207a65726f206164647265604482015261737360f01b6064820152608401610474565b6001600160a01b0383811660008181526001602090815260408083209487168084529482529182902085905590518481527f8c5be1e5ebec7d5bd14f71427d1e84f3dd0314c0f7b2291e5b200ac8c7c3b92591015b60405180910390a3505050565b6001600160a01b0383166108905760405162461bcd60e51b815260206004820152602560248201527f45524332303a207472616e736665722066726f6d20746865207a65726f206164604482015264647265737360d81b6064820152608401610474565b6001600160a01b0382166108f25760405162461bcd60e51b815260206004820152602360248201527f45524332303a207472616e7366657220746f20746865207a65726f206164647260448201526265737360e81b6064820152608401610474565b6108fd838383610db4565b6001600160a01b038316600090815260208190526040902054818110156109755760405162461bcd60e51b815260206004820152602660248201527f45524332303a207472616e7366657220616d6f756e7420657863656564732062604482015265616c616e636560d01b6064820152608401610474565b6001600160a01b038085166000908152602081905260408082208585039055918516815290812080548492906109ac90849061143f565b92505081905550826001600160a01b0316846001600160a01b03167fddf252ad1be2c89b69c2b068fc378daa952ba7f163c4a11628f55a4df523b3ef846040516109f891815260200190565b60405180910390a3610a0b848484610f74565b50505050565b6001600160a01b038316610a835760405162461bcd60e51b815260206004820152603360248201527f4552433230523a206368616e676552656365697665417070726f76616c2066726044820152726f6d20746865207a65726f206164647265737360681b6064820152608401610474565b6001600160a01b038216610af35760405162461bcd60e51b815260206004820152603160248201527f4552433230523a206368616e676552656365697665417070726f76616c20746f60448201527020746865207a65726f206164647265737360781b6064820152608401610474565b6001600160a01b0383811660008181526005602090815260408083209487168084529482529182902085905590518481527fa80d0efa8328d29034668db835056d5d5e5876f77ffc7bc09f1e06b2ba18b121910161081f565b6001600160a01b038216610ba25760405162461bcd60e51b815260206004820152601f60248201527f45524332303a206d696e7420746f20746865207a65726f2061646472657373006044820152606401610474565b610bae60008383610db4565b8060026000828254610bc0919061143f565b90915550506001600160a01b03821660009081526020819052604081208054839290610bed90849061143f565b90915550506040518181526001600160a01b038316906000907fddf252ad1be2c89b69c2b068fc378daa952ba7f163c4a11628f55a4df523b3ef9060200160405180910390a361055160008383610f74565b60606004805461034d9061149a565b6001600160a01b038216610cae5760405162461bcd60e51b815260206004820152602160248201527f45524332303a206275726e2066726f6d20746865207a65726f206164647265736044820152607360f81b6064820152608401610474565b610cba82600083610db4565b6001600160a01b03821660009081526020819052604090205481811015610d2e5760405162461bcd60e51b815260206004820152602260248201527f45524332303a206275726e20616d6f756e7420657863656564732062616c616e604482015261636560f01b6064820152608401610474565b6001600160a01b0383166000908152602081905260408120838303905560028054849290610d5d908490611457565b90915550506040518281526000906001600160a01b038516907fddf252ad1be2c89b69c2b068fc378daa952ba7f163c4a11628f55a4df523b3ef9060200160405180910390a3610daf83600084610f74565b505050565b610dbe838361108f565b610dc757505050565b6040516379ea386160e11b81526001600160a01b037f00000000000000000000000000000000000000000000000000000000000000008116600483015283811660248301527f0000000000000000000000000000000000000000000000000000000000000000169063f3d470c29060440160206040518083038186803b158015610e5057600080fd5b505afa158015610e64573d6000803e3d6000fd5b505050506040513d601f19601f82011682018060405250810190610e8891906113b1565b610ed45760405162461bcd60e51b815260206004820152601960248201527f53686172655472616e736665724e6f74416c6c6f7765642829000000000000006044820152606401610474565b6001600160a01b0383811660009081526005602090815260408083209386168352929052205481811015610f605760405162461bcd60e51b815260206004820152602d60248201527f45524332303a207472616e73666572206465627420616d6f756e74206578636560448201526c65647320616c6c6f77616e636560981b6064820152608401610474565b610a0b8484610f6f8585611457565b610a11565b610f7e838361108f565b15611084576040516338b51ce160e01b81526001600160a01b0383811660048301527f000000000000000000000000000000000000000000000000000000000000000016906338b51ce19060240160206040518083038186803b158015610fe457600080fd5b505afa158015610ff8573d6000803e3d6000fd5b505050506040513d601f19601f8201168201806040525081019061101c91906113b1565b6110845760405162461bcd60e51b815260206004820152603360248201527f5472616e7366657220446562743a20726563697069656e74206e6f7420736f6c6044820152723b32b73a1030b33a32b9103a3930b739b332b960691b6064820152608401610474565b610daf8383836110b8565b60006001600160a01b038316158015906110b157506001600160a01b03821615155b9392505050565b60007f00000000000000000000000000000000000000000000000000000000000000006001600160a01b031663bde127186040518163ffffffff1660e01b815260040160206040518083038186803b15801561111357600080fd5b505afa158015611127573d6000803e3d6000fd5b505050506040513d601f19601f8201168201806040525081019061114b91906113d3565b604051631a16b46360e11b81526001600160a01b037f000000000000000000000000000000000000000000000000000000000000000081166004830152919091169063342d68c69060240160206040518083038186803b1580156111ae57600080fd5b505afa1580156111c2573d6000803e3d6000fd5b505050506040513d601f19601f820116820180604052508101906111e691906113d3565b90506001600160a01b03811615610a0b57604080513060248201526001600160a01b038681166044830152858116606483015260848083018690528351808403909101815260a490920183526020820180516001600160e01b0316630f1bf70d60e01b179052915160009284169161125d916113f0565b6000604051808303816000865af19150503d806000811461129a576040519150601f19603f3d011682016040523d82523d6000602084013e61129f565b606091505b5050604080516001600160a01b038516815282151560208201529192507fe367d7de03229ee9a5f0a76a230fa0c93a7f8605b676469f7df108d5e813c076910160405180910390a15050505050565b60006020828403121561130057600080fd5b81356110b1816114eb565b6000806040838503121561131e57600080fd5b8235611329816114eb565b91506020830135611339816114eb565b809150509250929050565b60008060006060848603121561135957600080fd5b8335611364816114eb565b92506020840135611374816114eb565b929592945050506040919091013590565b6000806040838503121561139857600080fd5b82356113a3816114eb565b946020939093013593505050565b6000602082840312156113c357600080fd5b815180151581146110b157600080fd5b6000602082840312156113e557600080fd5b81516110b1816114eb565b6000825161140281846020870161146e565b9190910192915050565b602081526000825180602084015261142b81604085016020870161146e565b601f01601f19169190910160400192915050565b60008219821115611452576114526114d5565b500190565b600082821015611469576114696114d5565b500390565b60005b83811015611489578181015183820152602001611471565b83811115610a0b5750506000910152565b600181811c908216806114ae57607f821691505b602082108114156114cf57634e487b7160e01b600052602260045260246000fd5b50919050565b634e487b7160e01b600052601160045260246000fd5b6001600160a01b038116811461150057600080fd5b5056fea264697066735822122001a8b6757f4ae4aa568c5758e554983a9cec28baf67c77f05e0cc947fc94acc064736f6c6343000807003360c06040523480156200001157600080fd5b506040516200157138038062001571833981016040819052620000349162000207565b818185858160039080519060200190620000509291906200008d565b508051620000669060049060208401906200008d565b5050506001600160601b0319606092831b8116608052911b1660a05250620002e992505050565b8280546200009b9062000296565b90600052602060002090601f016020900481019282620000bf57600085556200010a565b82601f10620000da57805160ff19168380011785556200010a565b828001600101855582156200010a579182015b828111156200010a578251825591602001919060010190620000ed565b50620001189291506200011c565b5090565b5b808211156200011857600081556001016200011d565b80516001600160a01b03811681146200014b57600080fd5b919050565b600082601f8301126200016257600080fd5b81516001600160401b03808211156200017f576200017f620002d3565b604051601f8301601f19908116603f01168101908282118183101715620001aa57620001aa620002d3565b81604052838152602092508683858801011115620001c757600080fd5b600091505b83821015620001eb5785820183015181830184015290820190620001cc565b83821115620001fd5760008385830101525b9695505050505050565b600080600080608085870312156200021e57600080fd5b84516001600160401b03808211156200023657600080fd5b620002448883890162000150565b955060208701519150808211156200025b57600080fd5b506200026a8782880162000150565b9350506200027b6040860162000133565b91506200028b6060860162000133565b905092959194509250565b600181811c90821680620002ab57607f821691505b60208210811415620002cd57634e487b7160e01b600052602260045260246000fd5b50919050565b634e487b7160e01b600052604160045260246000fd5b60805160601c60a05160601c61122b62000346600039600081816101740152610b6d01526000818161027e0152818161043e015281816104c401528181610b9d01528181610c9101528181610dae0152610e54015261122b6000f3fe608060405234801561001057600080fd5b50600436106100f55760003560e01c806340c10f1911610097578063a457c2d711610066578063a457c2d71461021a578063a9059cbb1461022d578063dd62ed3e14610240578063eb3beb291461027957600080fd5b806340c10f19146101c157806370a08231146101d657806395d89b41146101ff5780639dc29fac1461020757600080fd5b806323b872dd116100d357806323b872dd1461014d578063313ce5671461016057806338d52e0f1461016f57806339509351146101ae57600080fd5b806306fdde03146100fa578063095ea7b31461011857806318160ddd1461013b575b600080fd5b6101026102a0565b60405161010f91906110fe565b60405180910390f35b61012b610126366004611077565b610332565b604051901515815260200161010f565b6002545b60405190815260200161010f565b61012b61015b366004611036565b610348565b6040516012815260200161010f565b6101967f000000000000000000000000000000000000000000000000000000000000000081565b6040516001600160a01b03909116815260200161010f565b61012b6101bc366004611077565b6103f7565b6101d46101cf366004611077565b610433565b005b61013f6101e4366004610fe0565b6001600160a01b031660009081526020819052604090205490565b6101026104aa565b6101d4610215366004611077565b6104b9565b61012b610228366004611077565b61052c565b61012b61023b366004611077565b6105c5565b61013f61024e366004610ffd565b6001600160a01b03918216600090815260016020908152604080832093909416825291909152205490565b6101967f000000000000000000000000000000000000000000000000000000000000000081565b6060600380546102af9061118c565b80601f01602080910402602001604051908101604052809291908181526020018280546102db9061118c565b80156103285780601f106102fd57610100808354040283529160200191610328565b820191906000526020600020905b81548152906001019060200180831161030b57829003601f168201915b5050505050905090565b600061033f3384846105d2565b50600192915050565b60006103558484846106f6565b6001600160a01b0384166000908152600160209081526040808320338452909152902054828110156103df5760405162461bcd60e51b815260206004820152602860248201527f45524332303a207472616e7366657220616d6f756e74206578636565647320616044820152676c6c6f77616e636560c01b60648201526084015b60405180910390fd5b6103ec85338584036105d2565b506001949350505050565b3360008181526001602090815260408083206001600160a01b0387168452909152812054909161033f91859061042e908690611131565b6105d2565b336001600160a01b037f0000000000000000000000000000000000000000000000000000000000000000161461049c5760405162461bcd60e51b815260206004820152600e60248201526d41636365737344656e696564282960901b60448201526064016103d6565b6104a682826108db565b5050565b60606104b46109ce565b905090565b336001600160a01b037f000000000000000000000000000000000000000000000000000000000000000016146105225760405162461bcd60e51b815260206004820152600e60248201526d41636365737344656e696564282960901b60448201526064016103d6565b6104a682826109dd565b3360009081526001602090815260408083206001600160a01b0386168452909152812054828110156105ae5760405162461bcd60e51b815260206004820152602560248201527f45524332303a2064656372656173656420616c6c6f77616e63652062656c6f77604482015264207a65726f60d81b60648201526084016103d6565b6105bb33858584036105d2565b5060019392505050565b600061033f3384846106f6565b6001600160a01b0383166106345760405162461bcd60e51b8152602060048201526024808201527f45524332303a20617070726f76652066726f6d20746865207a65726f206164646044820152637265737360e01b60648201526084016103d6565b6001600160a01b0382166106955760405162461bcd60e51b815260206004820152602260248201527f45524332303a20617070726f766520746f20746865207a65726f206164647265604482015261737360f01b60648201526084016103d6565b6001600160a01b0383811660008181526001602090815260408083209487168084529482529182902085905590518481527f8c5be1e5ebec7d5bd14f71427d1e84f3dd0314c0f7b2291e5b200ac8c7c3b925910160405180910390a3505050565b6001600160a01b03831661075a5760405162461bcd60e51b815260206004820152602560248201527f45524332303a207472616e736665722066726f6d20746865207a65726f206164604482015264647265737360d81b60648201526084016103d6565b6001600160a01b0382166107bc5760405162461bcd60e51b815260206004820152602360248201527f45524332303a207472616e7366657220746f20746865207a65726f206164647260448201526265737360e81b60648201526084016103d6565b6107c7838383610b43565b6001600160a01b0383166000908152602081905260409020548181101561083f5760405162461bcd60e51b815260206004820152602660248201527f45524332303a207472616e7366657220616d6f756e7420657863656564732062604482015265616c616e636560d01b60648201526084016103d6565b6001600160a01b03808516600090815260208190526040808220858503905591851681529081208054849290610876908490611131565b92505081905550826001600160a01b0316846001600160a01b03167fddf252ad1be2c89b69c2b068fc378daa952ba7f163c4a11628f55a4df523b3ef846040516108c291815260200190565b60405180910390a36108d5848484610c63565b50505050565b6001600160a01b0382166109315760405162461bcd60e51b815260206004820152601f60248201527f45524332303a206d696e7420746f20746865207a65726f20616464726573730060448201526064016103d6565b61093d60008383610b43565b806002600082825461094f9190611131565b90915550506001600160a01b0382166000908152602081905260408120805483929061097c908490611131565b90915550506040518181526001600160a01b038316906000907fddf252ad1be2c89b69c2b068fc378daa952ba7f163c4a11628f55a4df523b3ef9060200160405180910390a36104a660008383610c63565b6060600480546102af9061118c565b6001600160a01b038216610a3d5760405162461bcd60e51b815260206004820152602160248201527f45524332303a206275726e2066726f6d20746865207a65726f206164647265736044820152607360f81b60648201526084016103d6565b610a4982600083610b43565b6001600160a01b03821660009081526020819052604090205481811015610abd5760405162461bcd60e51b815260206004820152602260248201527f45524332303a206275726e20616d6f756e7420657863656564732062616c616e604482015261636560f01b60648201526084016103d6565b6001600160a01b0383166000908152602081905260408120838303905560028054849290610aec908490611149565b90915550506040518281526000906001600160a01b038516907fddf252ad1be2c89b69c2b068fc378daa952ba7f163c4a11628f55a4df523b3ef9060200160405180910390a3610b3e83600084610c63565b505050565b610b4d8383610d81565b610b5657505050565b60405163a6e08aa160e01b81526001600160a01b037f00000000000000000000000000000000000000000000000000000000000000008116600483015283811660248301527f0000000000000000000000000000000000000000000000000000000000000000169063a6e08aa19060440160206040518083038186803b158015610bdf57600080fd5b505afa158015610bf3573d6000803e3d6000fd5b505050506040513d601f19601f82011682018060405250810190610c1791906110a3565b610b3e5760405162461bcd60e51b815260206004820152601960248201527f53686172655472616e736665724e6f74416c6c6f77656428290000000000000060448201526064016103d6565b610c6d8383610d81565b15610d76576040516338b51ce160e01b81526001600160a01b0384811660048301527f000000000000000000000000000000000000000000000000000000000000000016906338b51ce19060240160206040518083038186803b158015610cd357600080fd5b505afa158015610ce7573d6000803e3d6000fd5b505050506040513d601f19601f82011682018060405250810190610d0b91906110a3565b610d765760405162461bcd60e51b815260206004820152603660248201527f5472616e7366657220436f6c6c61746572616c3a2073656e646572206e6f742060448201527539b7b63b32b73a1030b33a32b9103a3930b739b332b960511b60648201526084016103d6565b610b3e838383610daa565b60006001600160a01b03831615801590610da357506001600160a01b03821615155b9392505050565b60007f00000000000000000000000000000000000000000000000000000000000000006001600160a01b031663bde127186040518163ffffffff1660e01b815260040160206040518083038186803b158015610e0557600080fd5b505afa158015610e19573d6000803e3d6000fd5b505050506040513d601f19601f82011682018060405250810190610e3d91906110c5565b604051631a16b46360e11b81526001600160a01b037f000000000000000000000000000000000000000000000000000000000000000081166004830152919091169063342d68c69060240160206040518083038186803b158015610ea057600080fd5b505afa158015610eb4573d6000803e3d6000fd5b505050506040513d601f19601f82011682018060405250810190610ed891906110c5565b90506001600160a01b038116156108d557604080513060248201526001600160a01b038681166044830152858116606483015260848083018690528351808403909101815260a490920183526020820180516001600160e01b0316630f1bf70d60e01b1790529151600092841691610f4f916110e2565b6000604051808303816000865af19150503d8060008114610f8c576040519150601f19603f3d011682016040523d82523d6000602084013e610f91565b606091505b5050604080516001600160a01b038516815282151560208201529192507fe367d7de03229ee9a5f0a76a230fa0c93a7f8605b676469f7df108d5e813c076910160405180910390a15050505050565b600060208284031215610ff257600080fd5b8135610da3816111dd565b6000806040838503121561101057600080fd5b823561101b816111dd565b9150602083013561102b816111dd565b809150509250929050565b60008060006060848603121561104b57600080fd5b8335611056816111dd565b92506020840135611066816111dd565b929592945050506040919091013590565b6000806040838503121561108a57600080fd5b8235611095816111dd565b946020939093013593505050565b6000602082840312156110b557600080fd5b81518015158114610da357600080fd5b6000602082840312156110d757600080fd5b8151610da3816111dd565b600082516110f4818460208701611160565b9190910192915050565b602081526000825180602084015261111d816040850160208701611160565b601f01601f19169190910160400192915050565b60008219821115611144576111446111c7565b500190565b60008282101561115b5761115b6111c7565b500390565b60005b8381101561117b578181015183820152602001611163565b838111156108d55750506000910152565b600181811c908216806111a057607f821691505b602082108114156111c157634e487b7160e01b600052602260045260246000fd5b50919050565b634e487b7160e01b600052601160045260246000fd5b6001600160a01b03811681146111f257600080fd5b5056fea26469706673582212201b9f01be1c403d1c7bf412339d3fb9bc12b1bd5bcd935b80287243d0253e34ad64736f6c63430008070033a2646970667358221220f3256f2fa1ec2a5bccbb72af7403e5123910eabba0d6ac5d9b17fa12de06897064736f6c63430008070033",
  "devdoc": {
    "custom:security-contact": "security@silo.finance",
    "kind": "dev",
    "methods": {
      "createShareCollateralToken(string,string,address)": {
        "params": {
          "_asset": "underlying asset for which token is deployed",
          "_name": "name of the token",
          "_symbol": "symbol of the token"
        },
        "returns": {
          "token": "address of deployed collateral share token"
        }
      },
      "createShareDebtToken(string,string,address)": {
        "params": {
          "_asset": "underlying asset for which token is deployed",
          "_name": "name of the token",
          "_symbol": "symbol of the token"
        },
        "returns": {
          "token": "address of deployed debt share token"
        }
      },
      "tokensFactoryPing()": {
        "details": "just a helper method to see if address is a factory",
        "returns": {
          "_0": "always true"
        }
      }
    },
    "title": "TokensFactory",
    "version": 1
  },
  "userdoc": {
    "events": {
      "NewShareCollateralTokenCreated(address)": {
        "notice": "Emitted when collateral token is deployed"
      },
      "NewShareDebtTokenCreated(address)": {
        "notice": "Emitted when collateral token is deployed"
      }
    },
    "kind": "user",
    "methods": {
      "createShareCollateralToken(string,string,address)": {
        "notice": "Deploys collateral token"
      },
      "createShareDebtToken(string,string,address)": {
        "notice": "Deploys debt token"
      }
    },
    "notice": "Deploys debt and collateral tokens for each Silo",
    "version": 1
  },
  "storageLayout": {
    "storage": [],
    "types": null
  }
}