{
  "address": "0xdCefDF65e6Ccc57D55aC1CA84C56AFfA4229e9Af",
  "abi": [
    {
      "inputs": [
        {
          "internalType": "address",
          "name": "_router",
          "type": "address"
        }
      ],
      "stateMutability": "nonpayable",
      "type": "constructor"
    },
    {
      "inputs": [],
      "name": "ASSETS_FEES_SELECTOR",
      "outputs": [
        {
          "internalType": "bytes4",
          "name": "",
          "type": "bytes4"
        }
      ],
      "stateMutability": "view",
      "type": "function"
    },
    {
      "inputs": [
        {
          "internalType": "address[]",
          "name": "path",
          "type": "address[]"
        },
        {
          "internalType": "uint24[]",
          "name": "fees",
          "type": "uint24[]"
        }
      ],
      "name": "pathToBytes",
      "outputs": [
        {
          "internalType": "bytes",
          "name": "bytesPath",
          "type": "bytes"
        }
      ],
      "stateMutability": "pure",
      "type": "function"
    },
    {
      "inputs": [
        {
          "internalType": "address",
          "name": "_oracle",
          "type": "address"
        },
        {
          "internalType": "address",
          "name": "_asset",
          "type": "address"
        }
      ],
      "name": "resolveFee",
      "outputs": [
        {
          "internalType": "uint24",
          "name": "fee",
          "type": "uint24"
        }
      ],
      "stateMutability": "view",
      "type": "function"
    },
    {
      "inputs": [],
      "name": "router",
      "outputs": [
        {
          "internalType": "contract ISwapRouter",
          "name": "",
          "type": "address"
        }
      ],
      "stateMutability": "view",
      "type": "function"
    },
    {
      "inputs": [],
      "name": "spenderToApprove",
      "outputs": [
        {
          "internalType": "address",
          "name": "",
          "type": "address"
        }
      ],
      "stateMutability": "view",
      "type": "function"
    },
    {
      "inputs": [
        {
          "internalType": "address",
          "name": "_tokenIn",
          "type": "address"
        },
        {
          "internalType": "address",
          "name": "_tokenOut",
          "type": "address"
        },
        {
          "internalType": "uint256",
          "name": "_amount",
          "type": "uint256"
        },
        {
          "internalType": "address",
          "name": "_siloOracle",
          "type": "address"
        },
        {
          "internalType": "address",
          "name": "_siloAsset",
          "type": "address"
        }
      ],
      "name": "swapAmountIn",
      "outputs": [
        {
          "internalType": "uint256",
          "name": "amountOut",
          "type": "uint256"
        }
      ],
      "stateMutability": "nonpayable",
      "type": "function"
    },
    {
      "inputs": [
        {
          "internalType": "address",
          "name": "_tokenIn",
          "type": "address"
        },
        {
          "internalType": "address",
          "name": "_tokenOut",
          "type": "address"
        },
        {
          "internalType": "uint256",
          "name": "_amountOut",
          "type": "uint256"
        },
        {
          "internalType": "address",
          "name": "_siloOracle",
          "type": "address"
        },
        {
          "internalType": "address",
          "name": "_siloAsset",
          "type": "address"
        }
      ],
      "name": "swapAmountOut",
      "outputs": [
        {
          "internalType": "uint256",
          "name": "amountIn",
          "type": "uint256"
        }
      ],
      "stateMutability": "nonpayable",
      "type": "function"
    }
  ],
  "transactionHash": "0x002a0e639c7e340dad5056a0c40d686506f337993b4de6a9c944a8f97b5a787e",
  "args": [
    "0xE592427A0AEce92De3Edee1F18E0157C05861564"
  ],
  "numDeployments": 1,
  "solcInputHash": "d6576ae3fa601a437e270afc679efa62",
  "bytecode": "0x60a060405234801561001057600080fd5b50604051610a62380380610a6283398101604081905261002f91610044565b60601b6001600160601b031916608052610074565b60006020828403121561005657600080fd5b81516001600160a01b038116811461006d57600080fd5b9392505050565b60805160601c6109bb6100a760003960008181610104015281816101410152818161040e01526104f201526109bb6000f3fe608060405234801561001057600080fd5b506004361061007d5760003560e01c80639cffaf6f1161005b5780639cffaf6f146100ef578063db36eb2e14610102578063f887ea401461013c578063fc32922f1461016357600080fd5b8063168c66b41461008257806351f00308146100a85780639b562f38146100c8575b600080fd5b6100956100903660046105f3565b6101a3565b6040519081526020015b60405180910390f35b6100bb6100b6366004610651565b6101c9565b60405161009f91906107f4565b6100db6100d63660046105c0565b610291565b60405162ffffff909116815260200161009f565b6100956100fd3660046105f3565b610397565b7f00000000000000000000000000000000000000000000000000000000000000005b6040516001600160a01b03909116815260200161009f565b6101247f000000000000000000000000000000000000000000000000000000000000000081565b61018a7f10f2a5091c0d87d755d0d7447d50bfb9ff0d95b3bfa45605046a581667ba9c7d81565b6040516001600160e01b0319909116815260200161009f565b6000806101b08484610291565b90506101be878787846103b2565b979650505050505050565b606060005b835181101561028a578251811461023a57818482815181106101f2576101f2610945565b602002602001015184838151811061020c5761020c610945565b6020026020010151604051602001610226939291906107a8565b604051602081830303815290604052610276565b8184828151811061024d5761024d610945565b6020026020010151604051602001610266929190610771565b6040516020818303038152906040525b9150806102828161091c565b9150506101ce565b5092915050565b604080516001600160a01b0383811660248084019190915283518084039091018152604490920183526020820180516001600160e01b03166310f2a50960e01b1790529151600092839182918716906102eb908590610755565b600060405180830381855afa9150503d8060008114610326576040519150601f19603f3d011682016040523d82523d6000602084013e61032b565b606091505b5091509150816103795760405162461bcd60e51b815260206004820152601560248201527419995948199bdc88185cdcd95d081b9bdd081cd95d605a1b604482015260640160405180910390fd5b8080602001905181019061038d9190610718565b9695505050505050565b6000806103a48484610291565b90506101be87878784610497565b60408051610100810182526001600160a01b038087168252858116602083015262ffffff84168284015230606083015242608083015260a0820185905260001960c0830152600060e083018190529251631b67c43360e31b81527f00000000000000000000000000000000000000000000000000000000000000009091169063db3e219890610445908490600401610827565b602060405180830381600087803b15801561045f57600080fd5b505af1158015610473573d6000803e3d6000fd5b505050506040513d601f19601f8201168201806040525081019061038d919061073c565b60408051610100810182526001600160a01b038087168252858116602083015262ffffff84168284015230606083015242608083015260a08201859052600160c0830152600060e08301819052925163414bf38960e01b81527f00000000000000000000000000000000000000000000000000000000000000009091169063414bf38990610445908490600401610827565b80356001600160a01b038116811461054057600080fd5b919050565b600082601f83011261055657600080fd5b8135602061056b610566836108c8565b610897565b80838252828201915082860187848660051b890101111561058b57600080fd5b60005b858110156105b35781356105a181610971565b8452928401929084019060010161058e565b5090979650505050505050565b600080604083850312156105d357600080fd5b6105dc83610529565b91506105ea60208401610529565b90509250929050565b600080600080600060a0868803121561060b57600080fd5b61061486610529565b945061062260208701610529565b93506040860135925061063760608701610529565b915061064560808701610529565b90509295509295909350565b6000806040838503121561066457600080fd5b823567ffffffffffffffff8082111561067c57600080fd5b818501915085601f83011261069057600080fd5b813560206106a0610566836108c8565b8083825282820191508286018a848660051b89010111156106c057600080fd5b600096505b848710156106ea576106d681610529565b8352600196909601959183019183016106c5565b509650508601359250508082111561070157600080fd5b5061070e85828601610545565b9150509250929050565b60006020828403121561072a57600080fd5b815161073581610971565b9392505050565b60006020828403121561074e57600080fd5b5051919050565b600082516107678184602087016108ec565b9190910192915050565b600083516107838184602088016108ec565b60609390931b6bffffffffffffffffffffffff19169190920190815260140192915050565b600084516107ba8184602089016108ec565b60609490941b6bffffffffffffffffffffffff19169190930190815260e89190911b6001600160e81b031916601482015260170192915050565b60208152600082518060208401526108138160408501602087016108ec565b601f01601f19169190910160400192915050565b6101008101610891828480516001600160a01b03908116835260208083015182169084015260408083015162ffffff16908401526060808301518216908401526080808301519084015260a0828101519084015260c0808301519084015260e09182015116910152565b92915050565b604051601f8201601f1916810167ffffffffffffffff811182821017156108c0576108c061095b565b604052919050565b600067ffffffffffffffff8211156108e2576108e261095b565b5060051b60200190565b60005b838110156109075781810151838201526020016108ef565b83811115610916576000848401525b50505050565b600060001982141561093e57634e487b7160e01b600052601160045260246000fd5b5060010190565b634e487b7160e01b600052603260045260246000fd5b634e487b7160e01b600052604160045260246000fd5b62ffffff8116811461098257600080fd5b5056fea2646970667358221220267a26542240f6d3a91efa495d72a1505035c3394dbd542788f3fe94c907409264736f6c63430008070033",
  "devdoc": {
    "kind": "dev",
    "methods": {
      "spenderToApprove()": {
        "returns": {
          "_0": "address that needs to have approval to spend tokens to execute a swap"
        }
      },
      "swapAmountIn(address,address,uint256,address,address)": {
        "details": "swaps `_amountIn` of `_tokenIn` for `_tokenOut`. It might require approvals.",
        "returns": {
          "amountOut": "amount of _tokenOut received"
        }
      },
      "swapAmountOut(address,address,uint256,address,address)": {
        "details": "swaps `_tokenIn` for `_amountOut` of  `_tokenOut`. It might require approvals",
        "returns": {
          "amountIn": "amount of _tokenIn spend"
        }
      }
    },
    "version": 1
  },
  "userdoc": {
    "kind": "user",
    "methods": {},
    "version": 1
  },
  "storageLayout": {
    "storage": [],
    "types": null
  }
}