{
  "address": "0x95612e5A9D8d6B92a1882E764f00e1f3fCe3A9FA",
  "abi": [
    {
      "inputs": [
        {
          "internalType": "address",
          "name": "_quoteToken",
          "type": "address"
        },
        {
          "internalType": "contract IUniswapV3Factory",
          "name": "_factory",
          "type": "address"
        },
        {
          "internalType": "uint32",
          "name": "_periodForAvgPrice",
          "type": "uint32"
        },
        {
          "internalType": "uint24[]",
          "name": "_fees",
          "type": "uint24[]"
        }
      ],
      "stateMutability": "nonpayable",
      "type": "constructor"
    },
    {
      "anonymous": false,
      "inputs": [
        {
          "indexed": false,
          "internalType": "address",
          "name": "asset",
          "type": "address"
        }
      ],
      "name": "AssetOperation",
      "type": "event"
    },
    {
      "anonymous": false,
      "inputs": [
        {
          "indexed": false,
          "internalType": "address",
          "name": "base",
          "type": "address"
        },
        {
          "indexed": false,
          "internalType": "uint24",
          "name": "fee",
          "type": "uint24"
        }
      ],
      "name": "FeeForAsset",
      "type": "event"
    },
    {
      "anonymous": false,
      "inputs": [
        {
          "indexed": false,
          "internalType": "uint24",
          "name": "fee",
          "type": "uint24"
        }
      ],
      "name": "NewFee",
      "type": "event"
    },
    {
      "anonymous": false,
      "inputs": [
        {
          "indexed": false,
          "internalType": "uint32",
          "name": "period",
          "type": "uint32"
        }
      ],
      "name": "NewPeriod",
      "type": "event"
    },
    {
      "anonymous": false,
      "inputs": [
        {
          "indexed": true,
          "internalType": "address",
          "name": "previousOwner",
          "type": "address"
        },
        {
          "indexed": true,
          "internalType": "address",
          "name": "newOwner",
          "type": "address"
        }
      ],
      "name": "OwnershipPending",
      "type": "event"
    },
    {
      "anonymous": false,
      "inputs": [
        {
          "indexed": true,
          "internalType": "address",
          "name": "previousOwner",
          "type": "address"
        },
        {
          "indexed": true,
          "internalType": "address",
          "name": "newOwner",
          "type": "address"
        }
      ],
      "name": "OwnershipTransferred",
      "type": "event"
    },
    {
      "inputs": [],
      "name": "BLOCK_TIME",
      "outputs": [
        {
          "internalType": "uint256",
          "name": "",
          "type": "uint256"
        }
      ],
      "stateMutability": "view",
      "type": "function"
    },
    {
      "inputs": [],
      "name": "acceptOwnership",
      "outputs": [],
      "stateMutability": "nonpayable",
      "type": "function"
    },
    {
      "inputs": [
        {
          "internalType": "address",
          "name": "_asset",
          "type": "address"
        }
      ],
      "name": "adjustOracleCardinality",
      "outputs": [],
      "stateMutability": "nonpayable",
      "type": "function"
    },
    {
      "inputs": [
        {
          "internalType": "address",
          "name": "_asset",
          "type": "address"
        }
      ],
      "name": "assetSupported",
      "outputs": [
        {
          "internalType": "bool",
          "name": "supported",
          "type": "bool"
        }
      ],
      "stateMutability": "view",
      "type": "function"
    },
    {
      "inputs": [
        {
          "internalType": "address",
          "name": "",
          "type": "address"
        }
      ],
      "name": "assetsFees",
      "outputs": [
        {
          "internalType": "uint24",
          "name": "",
          "type": "uint24"
        }
      ],
      "stateMutability": "view",
      "type": "function"
    },
    {
      "inputs": [
        {
          "internalType": "uint32",
          "name": "_period",
          "type": "uint32"
        }
      ],
      "name": "changePeriodForAvgPrice",
      "outputs": [],
      "stateMutability": "nonpayable",
      "type": "function"
    },
    {
      "inputs": [
        {
          "internalType": "uint256",
          "name": "",
          "type": "uint256"
        }
      ],
      "name": "fees",
      "outputs": [
        {
          "internalType": "uint24",
          "name": "",
          "type": "uint24"
        }
      ],
      "stateMutability": "view",
      "type": "function"
    },
    {
      "inputs": [
        {
          "internalType": "address",
          "name": "_asset",
          "type": "address"
        }
      ],
      "name": "findFeeForAsset",
      "outputs": [
        {
          "internalType": "uint24",
          "name": "fee",
          "type": "uint24"
        },
        {
          "internalType": "bool",
          "name": "success",
          "type": "bool"
        }
      ],
      "stateMutability": "view",
      "type": "function"
    },
    {
      "inputs": [
        {
          "internalType": "address",
          "name": "_asset",
          "type": "address"
        }
      ],
      "name": "getPrice",
      "outputs": [
        {
          "internalType": "uint256",
          "name": "price",
          "type": "uint256"
        }
      ],
      "stateMutability": "view",
      "type": "function"
    },
    {
      "inputs": [
        {
          "internalType": "address",
          "name": "_asset",
          "type": "address"
        }
      ],
      "name": "getQuoteLiquidity",
      "outputs": [
        {
          "internalType": "uint256",
          "name": "quoteLiquidity",
          "type": "uint256"
        }
      ],
      "stateMutability": "view",
      "type": "function"
    },
    {
      "inputs": [
        {
          "internalType": "address",
          "name": "_asset",
          "type": "address"
        }
      ],
      "name": "getQuoteLiquidityRaw",
      "outputs": [
        {
          "internalType": "uint256",
          "name": "quoteLiquidity",
          "type": "uint256"
        }
      ],
      "stateMutability": "view",
      "type": "function"
    },
    {
      "inputs": [
        {
          "internalType": "address",
          "name": "_pool",
          "type": "address"
        }
      ],
      "name": "hasEnoughObservations",
      "outputs": [
        {
          "internalType": "bool",
          "name": "",
          "type": "bool"
        },
        {
          "internalType": "uint32",
          "name": "oldestObservationTimestamp",
          "type": "uint32"
        }
      ],
      "stateMutability": "view",
      "type": "function"
    },
    {
      "inputs": [
        {
          "internalType": "address",
          "name": "_asset",
          "type": "address"
        },
        {
          "internalType": "bytes",
          "name": "_data",
          "type": "bytes"
        }
      ],
      "name": "initAsset",
      "outputs": [],
      "stateMutability": "nonpayable",
      "type": "function"
    },
    {
      "inputs": [],
      "name": "isSiloOracle",
      "outputs": [
        {
          "internalType": "bool",
          "name": "",
          "type": "bool"
        }
      ],
      "stateMutability": "pure",
      "type": "function"
    },
    {
      "inputs": [
        {
          "internalType": "uint24",
          "name": "",
          "type": "uint24"
        }
      ],
      "name": "knownFees",
      "outputs": [
        {
          "internalType": "bool",
          "name": "",
          "type": "bool"
        }
      ],
      "stateMutability": "view",
      "type": "function"
    },
    {
      "inputs": [
        {
          "internalType": "address",
          "name": "_asset",
          "type": "address"
        }
      ],
      "name": "notifyAboutChoice",
      "outputs": [],
      "stateMutability": "nonpayable",
      "type": "function"
    },
    {
      "inputs": [
        {
          "internalType": "uint24",
          "name": "_fee",
          "type": "uint24"
        }
      ],
      "name": "notifyAboutNewFee",
      "outputs": [],
      "stateMutability": "nonpayable",
      "type": "function"
    },
    {
      "inputs": [
        {
          "internalType": "uint24[]",
          "name": "_fees",
          "type": "uint24[]"
        }
      ],
      "name": "notifyAboutNewFees",
      "outputs": [],
      "stateMutability": "nonpayable",
      "type": "function"
    },
    {
      "inputs": [],
      "name": "owner",
      "outputs": [
        {
          "internalType": "address",
          "name": "",
          "type": "address"
        }
      ],
      "stateMutability": "view",
      "type": "function"
    },
    {
      "inputs": [],
      "name": "pendingOwner",
      "outputs": [
        {
          "internalType": "address",
          "name": "",
          "type": "address"
        }
      ],
      "stateMutability": "view",
      "type": "function"
    },
    {
      "inputs": [],
      "name": "periodForAvgPrice",
      "outputs": [
        {
          "internalType": "uint32",
          "name": "",
          "type": "uint32"
        }
      ],
      "stateMutability": "view",
      "type": "function"
    },
    {
      "inputs": [
        {
          "internalType": "address",
          "name": "_pool",
          "type": "address"
        }
      ],
      "name": "poolQuoteLiquidity",
      "outputs": [
        {
          "internalType": "uint256",
          "name": "",
          "type": "uint256"
        }
      ],
      "stateMutability": "view",
      "type": "function"
    },
    {
      "inputs": [],
      "name": "quoteToken",
      "outputs": [
        {
          "internalType": "address",
          "name": "",
          "type": "address"
        }
      ],
      "stateMutability": "view",
      "type": "function"
    },
    {
      "inputs": [],
      "name": "renounceOwnership",
      "outputs": [],
      "stateMutability": "nonpayable",
      "type": "function"
    },
    {
      "inputs": [
        {
          "internalType": "address",
          "name": "newOwner",
          "type": "address"
        }
      ],
      "name": "transferOwnership",
      "outputs": [],
      "stateMutability": "nonpayable",
      "type": "function"
    },
    {
      "inputs": [
        {
          "internalType": "address",
          "name": "newPendingOwner",
          "type": "address"
        }
      ],
      "name": "transferPendingOwnership",
      "outputs": [],
      "stateMutability": "nonpayable",
      "type": "function"
    },
    {
      "inputs": [],
      "name": "uniswapV3Factory",
      "outputs": [
        {
          "internalType": "contract IUniswapV3Factory",
          "name": "",
          "type": "address"
        }
      ],
      "stateMutability": "view",
      "type": "function"
    }
  ],
  "transactionHash": "0x8f637c4846ef5b0a466f1a31354be5d9e618bb2aa5183c848bf7e3fb68459316",
  "args": [
    "0xc778417E063141139Fce010982780140Aa0cD5Ab",
    "0x1F98431c8aD98523631AE4a59f267346ea31F984",
    1800,
    [
      500,
      3000,
      10000
    ]
  ],
  "numDeployments": 2,
  "solcInputHash": "e41d17c75b132716d6b776f4fc7ec105",
  "bytecode": "0x60c06040523480156200001157600080fd5b506040516200274b3803806200274b833981810160405260808110156200003757600080fd5b8151602083015160408085015160608601805192519496939591949391820192846401000000008211156200006b57600080fd5b9083019060208201858111156200008157600080fd5b82518660208202830111640100000000821117156200009f57600080fd5b82525081516020918201928201910280838360005b83811015620000ce578181015183820152602001620000b4565b505050509050016040525050508360006001600160a01b0316816001600160a01b0316141562000145576040805162461bcd60e51b815260206004820152601860248201527f4f7261636c653a20656d7074792071756f7465546f6b656e0000000000000000604482015290519081900360640190fd5b60601b6001600160601b031916608052620001696200016362000326565b6200032a565b6000836001600160a01b03166322afcccb6101f46040518263ffffffff1660e01b81526004018082815260200191505060206040518083038186803b158015620001b257600080fd5b505afa158015620001c7573d6000803e3d6000fd5b505050506040513d6020811015620001de57600080fd5b505160020b121562000237576040805162461bcd60e51b815260206004820181905260248201527f556e697377617056334f7261636c653a20696e76616c696420666163746f7279604482015290519081900360640190fd5b60008263ffffffff16116200027e5760405162461bcd60e51b815260040180806020018281038252602a81526020018062002721602a913960400191505060405180910390fd5b606083901b6001600160601b03191660a0526001805463ffffffff60a01b1916600160a01b63ffffffff8516021790558051620002c39060029060208401906200037a565b5060005b81518110156200031b57600160036000848481518110620002e457fe5b60209081029190910181015162ffffff168252810191909152604001600020805460ff1916911515919091179055600101620002c7565b505050505062000444565b3390565b600080546001600160a01b038381166001600160a01b0319831681178455604051919092169283917f8be0079c531659141344cd1fd0a4f28419497f9722a3daafe3b4186f6b6457e09190a35050565b82805482825590600052602060002090600901600a900481019282156200041b5791602002820160005b83821115620003e857835183826101000a81548162ffffff021916908362ffffff1602179055509260200192600301602081600201049283019260010302620003a4565b8015620004195782816101000a81549062ffffff0219169055600301602081600201049283019260010302620003e8565b505b50620004299291506200042d565b5090565b5b808211156200042957600081556001016200042e565b60805160601c60a05160601c6122866200049b60003980610a3e5280610c195280610eb152806115a15280611a63525080610649528061076352806109a95280610e80528061142c5280611c5e52506122866000f3fe608060405234801561001057600080fd5b50600436106101a95760003560e01c80635e3263fb116100f9578063b31fb25611610097578063ecdcb0ff11610071578063ecdcb0ff1461058a578063f2fde38b14610592578063f6bdd729146105b8578063f9301910146105da576101a9565b8063b31fb25614610503578063d4c3fab61461053d578063e30c397814610582576101a9565b8063715018a6116100d3578063715018a6146104c857806379ba5097146104d05780638da5cb5b146104d8578063adab8227146104e0576101a9565b80635e3263fb146103fe57806366b3d98b1461047c5780636fbfa2cc146104a2576101a9565b806333fbeb1f116101665780634acc79ed116101405780634acc79ed146103915780634b7056a0146103ae5780635b549182146103d05780635c55f8e8146103d8576101a9565b806333fbeb1f1461031257806341976e091461033357806347ca95d61461036b576101a9565b80630939aa4d146101ae5780630b0950d31461021e57806310f2a50914610264578063217a4b70146102a257806326b9797f146102c65780633278c694146102ec575b600080fd5b61021c600480360360208110156101c457600080fd5b810190602081018135600160201b8111156101de57600080fd5b8201836020820111156101f057600080fd5b803590602001918460208302840111600160201b8311171561021157600080fd5b5090925090506105e2565b005b6102446004803603602081101561023457600080fd5b50356001600160a01b031661061a565b60408051921515835263ffffffff90911660208301528051918290030190f35b61028a6004803603602081101561027a57600080fd5b50356001600160a01b0316610630565b6040805162ffffff9092168252519081900360200190f35b6102aa610647565b604080516001600160a01b039092168252519081900360200190f35b61021c600480360360208110156102dc57600080fd5b50356001600160a01b031661066b565b61021c6004803603602081101561030257600080fd5b50356001600160a01b0316610680565b61031a61074b565b6040805163ffffffff9092168252519081900360200190f35b6103596004803603602081101561034957600080fd5b50356001600160a01b031661075e565b60408051918252519081900360200190f35b6103596004803603602081101561038157600080fd5b50356001600160a01b0316610856565b61028a600480360360208110156103a757600080fd5b5035610a01565b61021c600480360360208110156103c457600080fd5b503562ffffff16610a3a565b6102aa610c17565b610359600480360360208110156103ee57600080fd5b50356001600160a01b0316610c3b565b61021c6004803603604081101561041457600080fd5b6001600160a01b038235169190810190604081016020820135600160201b81111561043e57600080fd5b82018360208201111561045057600080fd5b803590602001918460018302840111600160201b8311171561047157600080fd5b509092509050610c4e565b61021c6004803603602081101561049257600080fd5b50356001600160a01b0316610674565b610359600480360360208110156104b857600080fd5b50356001600160a01b0316610ca3565b61021c610cb0565b61021c610d1e565b6102aa610d9e565b61021c600480360360208110156104f657600080fd5b503563ffffffff16610dad565b6105296004803603602081101561051957600080fd5b50356001600160a01b0316610e69565b604080519115158252519081900360200190f35b6105636004803603602081101561055357600080fd5b50356001600160a01b0316610e7b565b6040805162ffffff909316835290151560208301528051918290030190f35b6102aa611093565b6105296110a2565b61021c600480360360208110156105a857600080fd5b50356001600160a01b03166110a7565b610529600480360360208110156105ce57600080fd5b503562ffffff16611157565b61035961116c565b60005b818110156106155761060d8383838181106105fc57fe5b9050602002013562ffffff16610a3a565b6001016105e5565b505050565b60008061062683611171565b915091505b915091565b60046020526000908152604090205462ffffff1681565b7f000000000000000000000000000000000000000000000000000000000000000081565b61067481611332565b61067d81611424565b50565b610688611553565b6001600160a01b0316610699610d9e565b6001600160a01b0316146106e2576040805162461bcd60e51b815260206004820181905260248201526000805160206121d1833981519152604482015290519081900360640190fd5b806001600160a01b03166106f4610d9e565b6001600160a01b03167f3c672e6c16e239c29e969deaf4eae15d7002350bf5490175e7481155af04c83a60405160405180910390a3600180546001600160a01b0319166001600160a01b0392909216919091179055565b600154600160a01b900463ffffffff1681565b6000807f000000000000000000000000000000000000000000000000000000000000000090506000836001600160a01b031663313ce5676040518163ffffffff1660e01b815260040160206040518083038186803b1580156107bf57600080fd5b505afa1580156107d3573d6000803e3d6000fd5b505050506040513d60208110156107e957600080fd5b505160ff16600a0a90506001600160a01b0384811690831614156108105791506108519050565b600061081c8584611557565b9050600061083c82600160149054906101000a900463ffffffff1661166b565b905061084a81848887611967565b9450505050505b919050565b600080826001600160a01b031663ddca3f436040518163ffffffff1660e01b815260040160206040518083038186803b15801561089257600080fd5b505afa1580156108a6573d6000803e3d6000fd5b505050506040513d60208110156108bc57600080fd5b505160408051630dfe168160e01b815290519192506000916001600160a01b03861691630dfe1681916004808301926020929190829003018186803b15801561090457600080fd5b505afa158015610918573d6000803e3d6000fd5b505050506040513d602081101561092e57600080fd5b50516040805163d21220a760e01b815290519192506000916001600160a01b0387169163d21220a7916004808301926020929190829003018186803b15801561097657600080fd5b505afa15801561098a573d6000803e3d6000fd5b505050506040513d60208110156109a057600080fd5b505190506000807f00000000000000000000000000000000000000000000000000000000000000006001600160a01b03908116908516146109e25783836109e5565b82845b915091506109f68282876001611a5e565b979650505050505050565b60028181548110610a1157600080fd5b90600052602060002090600a9182820401919006600302915054906101000a900462ffffff1681565b60007f00000000000000000000000000000000000000000000000000000000000000006001600160a01b03166322afcccb836040518263ffffffff1660e01b8152600401808262ffffff16815260200191505060206040518083038186803b158015610aa557600080fd5b505afa158015610ab9573d6000803e3d6000fd5b505050506040513d6020811015610acf57600080fd5b505162ffffff831660009081526003602052604090205490915060ff1615610b285760405162461bcd60e51b81526004018080602001828103825260398152602001806121f16039913960400191505060405180910390fd5b8060020b60001415610b6b5760405162461bcd60e51b81526004018080602001828103825260348152602001806121376034913960400191505060405180910390fd5b6040805162ffffff8416815290517fd29b3fc652bc04adeddcb10b9336ba242ad21be284cf9353dd778a83ed9c2eac9181900360200190a150600280546001818101909255600a8082047f405787fa12a823e0f2b7631cc41b3ba8828b3321ca811111fa75cd3aa3bb5ace01805462ffffff95861660039390940683026101000a848102960219169490941790935560009081526020929092526040909120805460ff19169091179055565b7f000000000000000000000000000000000000000000000000000000000000000081565b6000610c48826000611c5a565b92915050565b8015610c9157600082826020811015610c6657600080fd5b503562ffffff1660008181526003602052604090205490915060ff16610c8f57610c8f81610a3a565b505b610c9a83611332565b61061583611424565b6000610c48826001611c5a565b610cb8611553565b6001600160a01b0316610cc9610d9e565b6001600160a01b031614610d12576040805162461bcd60e51b815260206004820181905260248201526000805160206121d1833981519152604482015290519081900360640190fd5b610d1c6000611d06565b565b610d26611093565b6001600160a01b0316610d37611553565b6001600160a01b031614610d7c5760405162461bcd60e51b815260040180806020018281038252602781526020018061222a6027913960400191505060405180910390fd5b610d8c610d87611093565b611d06565b600180546001600160a01b0319169055565b6000546001600160a01b031690565b610db5611553565b6001600160a01b0316610dc6610d9e565b6001600160a01b031614610e0f576040805162461bcd60e51b815260206004820181905260248201526000805160206121d1833981519152604482015290519081900360640190fd5b6001805463ffffffff8316600160a01b810263ffffffff60a01b199092169190911790915560408051918252517fce30c17ef7079f94ccbbb8cf64e23bec4be67cbda9a416307e164682096ca3c69181900360200190a150565b6000610e7482610e7b565b9392505050565b6000807f00000000000000000000000000000000000000000000000000000000000000008180805b6002548110156110445760007f00000000000000000000000000000000000000000000000000000000000000006001600160a01b0316631698ee82898760028681548110610eed57fe5b90600052602060002090600a91828204019190066003029054906101000a900462ffffff166040518463ffffffff1660e01b815260040180846001600160a01b03168152602001836001600160a01b031681526020018262ffffff168152602001935050505060206040518083038186803b158015610f6b57600080fd5b505afa158015610f7f573d6000803e3d6000fd5b505050506040513d6020811015610f9557600080fd5b505190506001600160a01b038116610fad575061103c565b6000856001600160a01b03166370a08231836040518263ffffffff1660e01b815260040180826001600160a01b0316815260200191505060206040518083038186803b158015610ffc57600080fd5b505afa158015611010573d6000803e3d6000fd5b505050506040513d602081101561102657600080fd5b5051905083811115611039578093508294505b50505b600101610ea3565b50801561108b576002828154811061105857fe5b90600052602060002090600a91828204019190066003029054906101000a900462ffffff1660019450945050505061062b565b505050915091565b6001546001600160a01b031690565b600190565b6110af611553565b6001600160a01b03166110c0610d9e565b6001600160a01b031614611109576040805162461bcd60e51b815260206004820181905260248201526000805160206121d1833981519152604482015290519081900360640190fd5b6001600160a01b03811661114e5760405162461bcd60e51b815260040180806020018281038252602681526020018061216b6026913960400191505060405180910390fd5b61067d81611d06565b60036020526000908152604090205460ff1681565b600d81565b600080600080846001600160a01b0316633850c7bd6040518163ffffffff1660e01b815260040160e06040518083038186803b1580156111b057600080fd5b505afa1580156111c4573d6000803e3d6000fd5b505050506040513d60e08110156111da57600080fd5b506040810151606090910151909250905060006001600160a01b03861663252c09d761ffff8085169060018701168161120f57fe5b066040518263ffffffff1660e01b8152600401808261ffff16815260200191505060806040518083038186803b15801561124857600080fd5b505afa15801561125c573d6000803e3d6000fd5b505050506040513d608081101561127257600080fd5b5080516060909101519094509050806112f957856001600160a01b031663252c09d760006040518263ffffffff1660e01b81526004018082815260200191505060806040518083038186803b1580156112ca57600080fd5b505afa1580156112de573d6000803e3d6000fd5b505050506040513d60808110156112f457600080fd5b505193505b63ffffffff8416611310576000945050505061062b565b505060015463ffffffff808416600160a01b9092041642031015925050915091565b60008061133e83610e7b565b915091508061137e5760405162461bcd60e51b81526004018080602001828103825260408152602001806121916040913960400191505060405180910390fd5b6001600160a01b038316600081815260046020908152604091829020805462ffffff191662ffffff871690811790915582519384529083015280517fb6a8ee5e451f8c3795f196232870f0ee780bb0a5a6973b179a1fba0021d03e0a9281900390910190a1604080516001600160a01b038516815290517f0833f01115a3c620419d5aaba2f74923a90c8ec2e0de555641415edeb8d6ad539181900360200190a1505050565b6000611450827f0000000000000000000000000000000000000000000000000000000000000000611557565b90506000816001600160a01b0316633850c7bd6040518163ffffffff1660e01b815260040160e06040518083038186803b15801561148d57600080fd5b505afa1580156114a1573d6000803e3d6000fd5b505050506040513d60e08110156114b757600080fd5b5060800151600154909150600090600d90600160a01b900463ffffffff16049050808261ffff16106114eb5750505061067d565b826001600160a01b03166332148f67826040518263ffffffff1660e01b8152600401808261ffff168152602001915050600060405180830381600087803b15801561153557600080fd5b505af1158015611549573d6000803e3d6000fd5b5050505050505050565b3390565b6001600160a01b038281166000818152600460208181526040808420548151630b4c774160e11b815293840195909552868616602484015262ffffff9094166044830152925191937f00000000000000000000000000000000000000000000000000000000000000001692631698ee8292606480840193829003018186803b1580156115e257600080fd5b505afa1580156115f6573d6000803e3d6000fd5b505050506040513d602081101561160c57600080fd5b505190506001600160a01b038116610c48576040805162461bcd60e51b815260206004820152601f60248201527f556e697377617056334f7261636c653a20706f6f6c206e6f7420666f756e6400604482015290519081900360640190fd5b600063ffffffff82166116aa576040805162461bcd60e51b8152602060048201526002602482015261042560f41b604482015290519081900360640190fd5b60408051600280825260608201835260009260208301908036833701905050905082816000815181106116d957fe5b602002602001019063ffffffff16908163ffffffff168152505060008160018151811061170257fe5b63ffffffff90921660209283029190910182015260405163883bdbfd60e01b8152600481018281528351602483015283516000936001600160a01b0389169363883bdbfd938793909283926044019185820191028083838b5b8381101561177357818101518382015260200161175b565b505050509050019250505060006040518083038186803b15801561179657600080fd5b505afa1580156117aa573d6000803e3d6000fd5b505050506040513d6000823e601f3d908101601f1916820160409081528110156117d357600080fd5b8101908080516040519392919084600160201b8211156117f257600080fd5b90830190602082018581111561180757600080fd5b82518660208202830111600160201b8211171561182357600080fd5b82525081516020918201928201910280838360005b83811015611850578181015183820152602001611838565b5050505090500160405260200180516040519392919084600160201b82111561187857600080fd5b90830190602082018581111561188d57600080fd5b82518660208202830111600160201b821117156118a957600080fd5b82525081516020918201928201910280838360005b838110156118d65781810151838201526020016118be565b505050509050016040525050505090506000816000815181106118f557fe5b60200260200101518260018151811061190a57fe5b60200260200101510390508463ffffffff168160060b8161192757fe5b05935060008160060b12801561195157508463ffffffff168160060b8161194a57fe5b0760060b15155b1561195e57600019909301925b50505092915050565b60008061197386611d56565b90506001600160801b036001600160a01b038216116119e2576001600160a01b03808216800290848116908616106119c2576119bd600160c01b876001600160801b031683612087565b6119da565b6119da81876001600160801b0316600160c01b612087565b925050611a55565b6000611a016001600160a01b0383168068010000000000000000612087565b9050836001600160a01b0316856001600160a01b031610611a3957611a34600160801b876001600160801b031683612087565b611a51565b611a5181876001600160801b0316600160801b612087565b9250505b50949350505050565b6000807f00000000000000000000000000000000000000000000000000000000000000006001600160a01b0316631698ee828787876040518463ffffffff1660e01b815260040180846001600160a01b03168152602001836001600160a01b031681526020018262ffffff168152602001935050505060206040518083038186803b158015611aec57600080fd5b505afa158015611b00573d6000803e3d6000fd5b505050506040513d6020811015611b1657600080fd5b505190506001600160a01b038116611b32576000915050611c52565b8215611bba57846001600160a01b03166370a08231826040518263ffffffff1660e01b815260040180826001600160a01b0316815260200191505060206040518083038186803b158015611b8557600080fd5b505afa158015611b99573d6000803e3d6000fd5b505050506040513d6020811015611baf57600080fd5b50519150611c529050565b6000611bc582611171565b50905080611bd4576001611a51565b856001600160a01b03166370a08231836040518263ffffffff1660e01b815260040180826001600160a01b0316815260200191505060206040518083038186803b158015611c2157600080fd5b505afa158015611c35573d6000803e3d6000fd5b505050506040513d6020811015611c4b57600080fd5b5051925050505b949350505050565b60007f00000000000000000000000000000000000000000000000000000000000000006001600160a01b038481169082161415611c9b576000915050610c48565b60005b600254811015611cfe576000611ce7868460028581548110611cbc57fe5b90600052602060002090600a91828204019190066003029054906101000a900462ffffff1688611a5e565b905083811115611cf5578093505b50600101611c9e565b505092915050565b600080546001600160a01b038381166001600160a01b0319831681178455604051919092169283917f8be0079c531659141344cd1fd0a4f28419497f9722a3daafe3b4186f6b6457e09190a35050565b60008060008360020b12611d6d578260020b611d75565b8260020b6000035b9050620d89e8811115611db3576040805162461bcd60e51b81526020600482015260016024820152601560fa1b604482015290519081900360640190fd5b600060018216611dc757600160801b611dd9565b6ffffcb933bd6fad37aa2d162d1a5940015b70ffffffffffffffffffffffffffffffffff1690506002821615611e0d576ffff97272373d413259a46990580e213a0260801c5b6004821615611e2c576ffff2e50f5f656932ef12357cf3c7fdcc0260801c5b6008821615611e4b576fffe5caca7e10e4e61c3624eaa0941cd00260801c5b6010821615611e6a576fffcb9843d60f6159c9db58835c9266440260801c5b6020821615611e89576fff973b41fa98c081472e6896dfb254c00260801c5b6040821615611ea8576fff2ea16466c96a3843ec78b326b528610260801c5b6080821615611ec7576ffe5dee046a99a2a811c461f1969c30530260801c5b610100821615611ee7576ffcbe86c7900a88aedcffc83b479aa3a40260801c5b610200821615611f07576ff987a7253ac413176f2b074cf7815e540260801c5b610400821615611f27576ff3392b0822b70005940c7a398e4b70f30260801c5b610800821615611f47576fe7159475a2c29b7443b29c7fa6e889d90260801c5b611000821615611f67576fd097f3bdfd2022b8845ad8f792aa58250260801c5b612000821615611f87576fa9f746462d870fdf8a65dc1f90e061e50260801c5b614000821615611fa7576f70d869a156d2a1b890bb3df62baf32f70260801c5b618000821615611fc7576f31be135f97d08fd981231505542fcfa60260801c5b62010000821615611fe8576f09aa508b5b7a84e1c677de54f3e99bc90260801c5b62020000821615612008576e5d6af8dedb81196699c329225ee6040260801c5b62040000821615612027576d2216e584f5fa1ea926041bedfe980260801c5b62080000821615612044576b048a170391f7dc42444e8fa20260801c5b60008460020b131561205f57806000198161205b57fe5b0490505b600160201b810615612072576001612075565b60005b60ff16602082901c0192505050919050565b60008080600019858709868602925082811090839003039050806120bd57600084116120b257600080fd5b508290049050610e74565b8084116120c957600080fd5b6000848688096000868103871696879004966002600389028118808a02820302808a02820302808a02820302808a02820302808a02820302808a0290910302918190038190046001018684119095039490940291909403929092049190911791909102915050939250505056fe556e697377617056334f7261636c652e6e6f74696679416275744e65774665653a2066656520646f6573206e6f742065786973744f776e61626c653a206e6577206f776e657220697320746865207a65726f2061646472657373556e697377617056334f7261636c652e5f63686f6f736542657374466565466f7241737365743a2063616e27742066696e642066656520666f722061737365744f776e61626c653a2063616c6c6572206973206e6f7420746865206f776e6572556e697377617056334f7261636c652e6e6f74696679416275744e65774665653a20746861742066656520616c7265616479206578697374734f776e61626c653a2063616c6c6572206973206e6f74207468652070656e64696e674f776e6572a2646970667358221220164d7575ee590739acc62840f422c1feaeb32470c957710522f4b2c0ca5ed59464736f6c63430007060033556e697377617056334f7261636c653a20696e76616c696420706572696f64466f724176675072696365",
  "devdoc": {
    "kind": "dev",
    "methods": {
      "acceptOwnership()": {
        "details": "Transfers ownership of the contract to a pending owner Can only be called by the pending owner."
      },
      "adjustOracleCardinality(address)": {
        "details": "this could be used to manually setup pool, so it will be ready to use in future         There is only one case, when it could be needed: if we have more than one pools for `_asset`         and you want to use UniswapV3 but pool for this asset has not enough observations (liquidity == 1)         you can run this method manually and it will set valid number of observations, so UniswapV3 can be used         once price data will be ready"
      },
      "assetSupported(address)": {
        "details": "It is not always a case, that asset must be initialized before it can be use by oracle.      Some oracles implementations can work out of the box for any assets.      If asset is not supported, it does not mean it can not be used,      it might need initialization to become supported.",
        "params": {
          "_asset": "token address"
        },
        "returns": {
          "supported": "true is oracle is able to provide price for asset"
        }
      },
      "changePeriodForAvgPrice(uint32)": {
        "details": "there is possibility, that when we change this period, UniV3 pool that is already initialized and set         as oracle for asset, can throw. This can happen when it will not be able calculate TWAP for new period         and it can potentially lock the Silo until we have necessary observations. If UniV3 is NOT only         available oracle for asset, we can change the oracle and Silo will be unlock."
      },
      "findFeeForAsset(address)": {
        "returns": {
          "fee": "for asset and information if search was successful eg:         - if successful is false, means we were not able to find a fee for asses, fee value will be always 0         - if successful is true, we were bale to find a fee for asses, fee value will be >=0"
        }
      },
      "getPrice(address)": {
        "details": "calculates TWAP price for asset/quote         It unifies all tokens decimal to 18, examples:         - if asses == quote it returns 1e18         - if asset is USDC and quote is ETH and ETH costs ~$3300 then it returns ~0.0003e18",
        "returns": {
          "price": "of asses with 18 decimals"
        }
      },
      "getQuoteLiquidity(address)": {
        "details": "For some oracles, asset must be initialized in order to be able to run this method      or there might be some additional (dedicated to oracle) settings, that must be set up in order search works      Implementation of this method must be dome in a way, that when asset is initialized and we have      any additional required settings in place, it will highest existing liquidity pool for asset.      It is possible, that it will throw on invalid data or uninitialized asset.",
        "returns": {
          "quoteLiquidity": "of quote token for specified asset"
        }
      },
      "getQuoteLiquidityRaw(address)": {
        "details": "protocol should NOT use this method         this is only for off-chain checks for raw liquidity         NOTICE: sometimes it might be required to setup oracle, so it can find required pool         eg. for UniswapV3, if new pool will be created with new fee that is not present in oracle contract         you have to add this new fee, then the pool can be found and `getQuoteLiquidityRaw` can be used"
      },
      "initAsset(address,bytes)": {
        "details": "Should be used for initialisation of asset for oracle (if initialisation is needed).      It sets all necessary data that are require to call `getPrice` for the asset.      Throws if initialisation fail.      When called multiple times it does not override better settings and it might throws.      e.g.: if with current settings we getting higher liquidity pool, initialisation should have no effect",
        "params": {
          "_data": "(optional) encoded fee, if provided we will save that fee"
        }
      },
      "isSiloOracle()": {
        "details": "this can save us from simple human errors, in case we use invalid address      but this should NOT be treated as security check",
        "returns": {
          "_0": "always true"
        }
      },
      "notifyAboutChoice(address)": {
        "details": "It is used when we discover, that this oracle is better for asset.      If we need to setup anything in additional, in order to use this oracle for asset, it should be done      inside this method. At this point asset should be initialised (so we have all necessary data for it).      Throws if this oracle can not be use for provided asset.",
        "params": {
          "_asset": "token address (base token) for which this oracle will be used from now on."
        }
      },
      "owner()": {
        "details": "Returns the address of the current owner."
      },
      "pendingOwner()": {
        "details": "Returns the address of the pending owner."
      },
      "poolQuoteLiquidity(address)": {
        "details": "this additional view can be used for asset verifier"
      },
      "renounceOwnership()": {
        "details": "Leaves the contract without owner. It will not be possible to call `onlyOwner` functions anymore. Can only be called by the current owner. NOTE: Renouncing ownership will leave the contract without an owner, thereby removing any functionality that is only available to the owner."
      },
      "transferOwnership(address)": {
        "details": "Transfers ownership of the contract to a new account (`newOwner`). Can only be called by the current owner."
      },
      "transferPendingOwnership(address)": {
        "details": "Transfers pending ownership of the contract to a new account (`newPendingOwner`). Can only be called by the current owner."
      }
    },
    "stateVariables": {
      "BLOCK_TIME": {
        "details": "blockchain block time"
      }
    },
    "version": 1
  },
  "userdoc": {
    "events": {
      "AssetOperation(address)": {
        "notice": "Common event for any asses modifications (initialization, save)"
      }
    },
    "kind": "user",
    "methods": {
      "assetSupported(address)": {
        "notice": "Informs if oracle has all required settings for asset and can provide data for it"
      },
      "assetsFees(address)": {
        "notice": "address of asset => fee for asset, that can be used for resolving price or swap"
      },
      "findFeeForAsset(address)": {
        "notice": "Base on known fees"
      },
      "getPrice(address)": {
        "notice": "UniV3 saves price only on: mint, burn and swap. Mint and burn will write observation only when \"current tick is inside the passed range\" of ticks. I think that means, that if we minting/burning outside ticks range  (so outside current price) it will not modify observation. So we left with swap. Swap will write observation under this condition: // update tick and write an oracle entry if the tick change if (state.tick != slot0Start.tick) { that means, it is possible that price will be up to date (in a range of same tick) but observation timestamp will be old. Every pool by default comes with just one slot for observation (cardinality == 1). We can increase number of slots so TWAP price will be \"better\". When we increase, we have to wait until new tx will write new observation. Based on all above, we can tell how old is observation, but this does not mean the price is wrong. UniV3 recommends to use `observe` and `OracleLibrary.consult` uses it. `observe` reverts if `secondsAgos` > oldest observation, means, if there is any price observation in selected time frame, it will revert. Otherwise it will return either exact TWAP price or by interpolation. Conclusion: we can choose how many observation pool will be storing, but we need to remember, not all of them might be used to provide our price. Final question is: how many observations we need? How UniV3 calculates TWAP we ask for TWAP on time range ago:now using `OracleLibrary.consult`, it is all about find the right tick - we call `IUniswapV3Pool(pool).observe(secondAgos)` that returns two accumulator values (for ago and now) - each observation is resolved by `observeSingle` - for _now_ we just using latest observation, and if it does not match timestamp, we interpolate (!) and this is how we got the _tickCumulative_, so in extreme situation, if last observation was made day ago, UniV3 will interpolate to reflect _tickCumulative_ at current time - for _ago_ we search for observation using `getSurroundingObservations` that give us before and after observation, base on which we calculate \"avg\" and we have target _tickCumulative_ - getSurroundingObservations: it's job is to find 2 observations based on which we calculate tickCumulative here is where all calculations can revert, if ago < oldest observation, otherwise it will be calculated either by interpolation or we will have exact match - now with both _tickCumulative_s we calculating TWAP recommended observations are = 30 min / blockTime  ?"
      },
      "getQuoteLiquidity(address)": {
        "notice": "Search for highest possible liquidity for quote token.         This method is used to establish, if pool is better (not less liquidity) or worse (less liquidity)"
      },
      "initAsset(address,bytes)": {
        "notice": "initAsset can be used to do custom setup for new asset"
      },
      "isSiloOracle()": {
        "notice": "Helper method that allows easily detects, if contract is SiloOracle"
      },
      "notifyAboutChoice(address)": {
        "notice": "when changing oracle, notify that we start using it for asset."
      },
      "quoteToken()": {
        "notice": "It must be a copy of SiloBridgePool.asset"
      }
    },
    "version": 1
  },
  "storageLayout": {
    "storage": [
      {
        "astId": 5394,
        "contract": "contracts/oracles/uniswapV3/UniswapV3Oracle.sol:UniswapV3Oracle",
        "label": "_owner",
        "offset": 0,
        "slot": "0",
        "type": "t_address"
      },
      {
        "astId": 5396,
        "contract": "contracts/oracles/uniswapV3/UniswapV3Oracle.sol:UniswapV3Oracle",
        "label": "_pendingOwner",
        "offset": 0,
        "slot": "1",
        "type": "t_address"
      },
      {
        "astId": 5584,
        "contract": "contracts/oracles/uniswapV3/UniswapV3Oracle.sol:UniswapV3Oracle",
        "label": "periodForAvgPrice",
        "offset": 20,
        "slot": "1",
        "type": "t_uint32"
      },
      {
        "astId": 5587,
        "contract": "contracts/oracles/uniswapV3/UniswapV3Oracle.sol:UniswapV3Oracle",
        "label": "fees",
        "offset": 0,
        "slot": "2",
        "type": "t_array(t_uint24)dyn_storage"
      },
      {
        "astId": 5591,
        "contract": "contracts/oracles/uniswapV3/UniswapV3Oracle.sol:UniswapV3Oracle",
        "label": "knownFees",
        "offset": 0,
        "slot": "3",
        "type": "t_mapping(t_uint24,t_bool)"
      },
      {
        "astId": 5596,
        "contract": "contracts/oracles/uniswapV3/UniswapV3Oracle.sol:UniswapV3Oracle",
        "label": "assetsFees",
        "offset": 0,
        "slot": "4",
        "type": "t_mapping(t_address,t_uint24)"
      }
    ],
    "types": {
      "t_address": {
        "encoding": "inplace",
        "label": "address",
        "numberOfBytes": "20"
      },
      "t_array(t_uint24)dyn_storage": {
        "base": "t_uint24",
        "encoding": "dynamic_array",
        "label": "uint24[]",
        "numberOfBytes": "32"
      },
      "t_bool": {
        "encoding": "inplace",
        "label": "bool",
        "numberOfBytes": "1"
      },
      "t_mapping(t_address,t_uint24)": {
        "encoding": "mapping",
        "key": "t_address",
        "label": "mapping(address => uint24)",
        "numberOfBytes": "32",
        "value": "t_uint24"
      },
      "t_mapping(t_uint24,t_bool)": {
        "encoding": "mapping",
        "key": "t_uint24",
        "label": "mapping(uint24 => bool)",
        "numberOfBytes": "32",
        "value": "t_bool"
      },
      "t_uint24": {
        "encoding": "inplace",
        "label": "uint24",
        "numberOfBytes": "3"
      },
      "t_uint32": {
        "encoding": "inplace",
        "label": "uint32",
        "numberOfBytes": "4"
      }
    }
  }
}