{
  "address": "0x0d9a98465A712249E87E200Fa4b1C4c05fb93B99",
  "abi": [
    {
      "inputs": [
        {
          "internalType": "address",
          "name": "_siloFactory",
          "type": "address"
        },
        {
          "internalType": "address",
          "name": "_tokensFactory",
          "type": "address"
        },
        {
          "internalType": "uint64",
          "name": "_defaultMaxLTV",
          "type": "uint64"
        },
        {
          "internalType": "uint64",
          "name": "_defaultLiquidationThreshold",
          "type": "uint64"
        },
        {
          "internalType": "address[]",
          "name": "_initialBridgeAssets",
          "type": "address[]"
        }
      ],
      "stateMutability": "nonpayable",
      "type": "constructor"
    },
    {
      "inputs": [],
      "name": "AddressZeroAsInput",
      "type": "error"
    },
    {
      "inputs": [],
      "name": "AssetIsNotABridge",
      "type": "error"
    },
    {
      "inputs": [],
      "name": "CanNotRemoveLastBridgeAssets",
      "type": "error"
    },
    {
      "inputs": [],
      "name": "InvalidTokenAddress",
      "type": "error"
    },
    {
      "inputs": [],
      "name": "NoPriceProviderForAsset",
      "type": "error"
    },
    {
      "inputs": [],
      "name": "SiloAlreadyExistsForAsset",
      "type": "error"
    },
    {
      "inputs": [],
      "name": "SiloForBridgeAssetsAlreadyExists",
      "type": "error"
    },
    {
      "inputs": [],
      "name": "SiloNotAllowedForBridgeAsset",
      "type": "error"
    },
    {
      "inputs": [],
      "name": "SiloNotExists",
      "type": "error"
    },
    {
      "anonymous": false,
      "inputs": [
        {
          "indexed": false,
          "internalType": "address",
          "name": "newBridgeAsset",
          "type": "address"
        }
      ],
      "name": "BridgeAssetAdded",
      "type": "event"
    },
    {
      "anonymous": false,
      "inputs": [
        {
          "indexed": false,
          "internalType": "address",
          "name": "bridgeAssetRemoved",
          "type": "address"
        }
      ],
      "name": "BridgeAssetRemoved",
      "type": "event"
    },
    {
      "anonymous": false,
      "inputs": [
        {
          "indexed": true,
          "internalType": "address",
          "name": "pool",
          "type": "address"
        }
      ],
      "name": "BridgePool",
      "type": "event"
    },
    {
      "anonymous": false,
      "inputs": [
        {
          "indexed": false,
          "internalType": "uint256",
          "name": "newMaxDeposits",
          "type": "uint256"
        }
      ],
      "name": "DefaultSiloMaxDepositsLimitUpdate",
      "type": "event"
    },
    {
      "anonymous": false,
      "inputs": [
        {
          "indexed": false,
          "internalType": "uint64",
          "name": "newEntryFee",
          "type": "uint64"
        },
        {
          "indexed": false,
          "internalType": "uint64",
          "name": "newProtocolShareFee",
          "type": "uint64"
        },
        {
          "indexed": false,
          "internalType": "uint64",
          "name": "newProtocolLiquidationFee",
          "type": "uint64"
        }
      ],
      "name": "FeeUpdate",
      "type": "event"
    },
    {
      "anonymous": false,
      "inputs": [
        {
          "indexed": false,
          "internalType": "bool",
          "name": "globalPause",
          "type": "bool"
        }
      ],
      "name": "GlobalPause",
      "type": "event"
    },
    {
      "anonymous": false,
      "inputs": [
        {
          "indexed": false,
          "internalType": "contract IInterestRateModel",
          "name": "newModel",
          "type": "address"
        }
      ],
      "name": "InterestRateModel",
      "type": "event"
    },
    {
      "anonymous": false,
      "inputs": [
        {
          "indexed": false,
          "internalType": "bool",
          "name": "newLimitedMaxLiquidityState",
          "type": "bool"
        }
      ],
      "name": "LimitedMaxLiquidityToggled",
      "type": "event"
    },
    {
      "anonymous": false,
      "inputs": [
        {
          "indexed": false,
          "internalType": "uint64",
          "name": "defaultLiquidationThreshold",
          "type": "uint64"
        }
      ],
      "name": "NewDefaultLiquidationThreshold",
      "type": "event"
    },
    {
      "anonymous": false,
      "inputs": [
        {
          "indexed": false,
          "internalType": "uint64",
          "name": "defaultMaximumLTV",
          "type": "uint64"
        }
      ],
      "name": "NewDefaultMaximumLTV",
      "type": "event"
    },
    {
      "anonymous": false,
      "inputs": [
        {
          "indexed": true,
          "internalType": "address",
          "name": "silo",
          "type": "address"
        },
        {
          "indexed": true,
          "internalType": "address",
          "name": "asset",
          "type": "address"
        },
        {
          "indexed": false,
          "internalType": "uint128",
          "name": "siloVersion",
          "type": "uint128"
        }
      ],
      "name": "NewSilo",
      "type": "event"
    },
    {
      "anonymous": false,
      "inputs": [
        {
          "indexed": false,
          "internalType": "contract INotificationReceiver",
          "name": "newIncentiveContract",
          "type": "address"
        }
      ],
      "name": "NotificationReceiverUpdate",
      "type": "event"
    },
    {
      "anonymous": false,
      "inputs": [
        {
          "indexed": true,
          "internalType": "address",
          "name": "previousOwner",
          "type": "address"
        },
        {
          "indexed": true,
          "internalType": "address",
          "name": "newOwner",
          "type": "address"
        }
      ],
      "name": "OwnershipPending",
      "type": "event"
    },
    {
      "anonymous": false,
      "inputs": [
        {
          "indexed": true,
          "internalType": "address",
          "name": "previousOwner",
          "type": "address"
        },
        {
          "indexed": true,
          "internalType": "address",
          "name": "newOwner",
          "type": "address"
        }
      ],
      "name": "OwnershipTransferred",
      "type": "event"
    },
    {
      "anonymous": false,
      "inputs": [
        {
          "indexed": false,
          "internalType": "contract IPriceProvidersRepository",
          "name": "oldProvider",
          "type": "address"
        },
        {
          "indexed": false,
          "internalType": "contract IPriceProvidersRepository",
          "name": "newProvider",
          "type": "address"
        }
      ],
      "name": "PriceProvidersRepositoryUpdate",
      "type": "event"
    },
    {
      "anonymous": false,
      "inputs": [
        {
          "indexed": false,
          "internalType": "address",
          "name": "factory",
          "type": "address"
        },
        {
          "indexed": false,
          "internalType": "uint128",
          "name": "siloLatestVersion",
          "type": "uint128"
        },
        {
          "indexed": false,
          "internalType": "uint128",
          "name": "siloDefaultVersion",
          "type": "uint128"
        }
      ],
      "name": "RegisterSiloVersion",
      "type": "event"
    },
    {
      "anonymous": false,
      "inputs": [
        {
          "indexed": false,
          "internalType": "address",
          "name": "oldRouter",
          "type": "address"
        },
        {
          "indexed": false,
          "internalType": "address",
          "name": "newRouter",
          "type": "address"
        }
      ],
      "name": "RouterUpdate",
      "type": "event"
    },
    {
      "anonymous": false,
      "inputs": [
        {
          "indexed": false,
          "internalType": "uint128",
          "name": "oldDefaultVersion",
          "type": "uint128"
        },
        {
          "indexed": false,
          "internalType": "uint128",
          "name": "newDefaultVersion",
          "type": "uint128"
        }
      ],
      "name": "SiloDefaultVersion",
      "type": "event"
    },
    {
      "anonymous": false,
      "inputs": [
        {
          "indexed": true,
          "internalType": "address",
          "name": "silo",
          "type": "address"
        },
        {
          "indexed": true,
          "internalType": "address",
          "name": "asset",
          "type": "address"
        },
        {
          "indexed": false,
          "internalType": "uint256",
          "name": "newMaxDeposits",
          "type": "uint256"
        }
      ],
      "name": "SiloMaxDepositsLimitsUpdate",
      "type": "event"
    },
    {
      "anonymous": false,
      "inputs": [
        {
          "indexed": false,
          "internalType": "address",
          "name": "silo",
          "type": "address"
        },
        {
          "indexed": false,
          "internalType": "address",
          "name": "asset",
          "type": "address"
        },
        {
          "indexed": false,
          "internalType": "bool",
          "name": "pauseValue",
          "type": "bool"
        }
      ],
      "name": "SiloPause",
      "type": "event"
    },
    {
      "anonymous": false,
      "inputs": [
        {
          "indexed": false,
          "internalType": "address",
          "name": "oldTokensFactory",
          "type": "address"
        },
        {
          "indexed": false,
          "internalType": "address",
          "name": "newTokensFactory",
          "type": "address"
        }
      ],
      "name": "TokensFactoryUpdate",
      "type": "event"
    },
    {
      "anonymous": false,
      "inputs": [
        {
          "indexed": false,
          "internalType": "address",
          "name": "factory",
          "type": "address"
        },
        {
          "indexed": false,
          "internalType": "uint128",
          "name": "siloVersion",
          "type": "uint128"
        }
      ],
      "name": "UnregisterSiloVersion",
      "type": "event"
    },
    {
      "inputs": [],
      "name": "acceptOwnership",
      "outputs": [],
      "stateMutability": "nonpayable",
      "type": "function"
    },
    {
      "inputs": [
        {
          "internalType": "address",
          "name": "_newBridgeAsset",
          "type": "address"
        }
      ],
      "name": "addBridgeAsset",
      "outputs": [],
      "stateMutability": "nonpayable",
      "type": "function"
    },
    {
      "inputs": [
        {
          "internalType": "address",
          "name": "",
          "type": "address"
        },
        {
          "internalType": "address",
          "name": "",
          "type": "address"
        }
      ],
      "name": "assetConfigs",
      "outputs": [
        {
          "internalType": "uint64",
          "name": "maxLoanToValue",
          "type": "uint64"
        },
        {
          "internalType": "uint64",
          "name": "liquidationThreshold",
          "type": "uint64"
        },
        {
          "internalType": "contract IInterestRateModel",
          "name": "interestRateModel",
          "type": "address"
        }
      ],
      "stateMutability": "view",
      "type": "function"
    },
    {
      "inputs": [],
      "name": "bridgePool",
      "outputs": [
        {
          "internalType": "address",
          "name": "",
          "type": "address"
        }
      ],
      "stateMutability": "view",
      "type": "function"
    },
    {
      "inputs": [],
      "name": "defaultAssetConfig",
      "outputs": [
        {
          "internalType": "uint64",
          "name": "maxLoanToValue",
          "type": "uint64"
        },
        {
          "internalType": "uint64",
          "name": "liquidationThreshold",
          "type": "uint64"
        },
        {
          "internalType": "contract IInterestRateModel",
          "name": "interestRateModel",
          "type": "address"
        }
      ],
      "stateMutability": "view",
      "type": "function"
    },
    {
      "inputs": [
        {
          "internalType": "address",
          "name": "_asset",
          "type": "address"
        },
        {
          "internalType": "bool",
          "name": "_assetIsABridge",
          "type": "bool"
        }
      ],
      "name": "ensureCanCreateSiloFor",
      "outputs": [],
      "stateMutability": "view",
      "type": "function"
    },
    {
      "inputs": [],
      "name": "entryFee",
      "outputs": [
        {
          "internalType": "uint256",
          "name": "",
          "type": "uint256"
        }
      ],
      "stateMutability": "view",
      "type": "function"
    },
    {
      "inputs": [],
      "name": "fees",
      "outputs": [
        {
          "internalType": "uint64",
          "name": "entryFee",
          "type": "uint64"
        },
        {
          "internalType": "uint64",
          "name": "protocolShareFee",
          "type": "uint64"
        },
        {
          "internalType": "uint64",
          "name": "protocolLiquidationFee",
          "type": "uint64"
        }
      ],
      "stateMutability": "view",
      "type": "function"
    },
    {
      "inputs": [],
      "name": "getBridgeAssets",
      "outputs": [
        {
          "internalType": "address[]",
          "name": "",
          "type": "address[]"
        }
      ],
      "stateMutability": "view",
      "type": "function"
    },
    {
      "inputs": [
        {
          "internalType": "address",
          "name": "_silo",
          "type": "address"
        },
        {
          "internalType": "address",
          "name": "_asset",
          "type": "address"
        }
      ],
      "name": "getInterestRateModel",
      "outputs": [
        {
          "internalType": "contract IInterestRateModel",
          "name": "model",
          "type": "address"
        }
      ],
      "stateMutability": "view",
      "type": "function"
    },
    {
      "inputs": [
        {
          "internalType": "address",
          "name": "_silo",
          "type": "address"
        },
        {
          "internalType": "address",
          "name": "_asset",
          "type": "address"
        }
      ],
      "name": "getLiquidationThreshold",
      "outputs": [
        {
          "internalType": "uint256",
          "name": "",
          "type": "uint256"
        }
      ],
      "stateMutability": "view",
      "type": "function"
    },
    {
      "inputs": [
        {
          "internalType": "address",
          "name": "_silo",
          "type": "address"
        },
        {
          "internalType": "address",
          "name": "_asset",
          "type": "address"
        }
      ],
      "name": "getMaxSiloDeposits",
      "outputs": [
        {
          "internalType": "uint256",
          "name": "",
          "type": "uint256"
        }
      ],
      "stateMutability": "view",
      "type": "function"
    },
    {
      "inputs": [
        {
          "internalType": "address",
          "name": "_silo",
          "type": "address"
        },
        {
          "internalType": "address",
          "name": "_asset",
          "type": "address"
        }
      ],
      "name": "getMaximumLTV",
      "outputs": [
        {
          "internalType": "uint256",
          "name": "",
          "type": "uint256"
        }
      ],
      "stateMutability": "view",
      "type": "function"
    },
    {
      "inputs": [
        {
          "internalType": "address",
          "name": "",
          "type": "address"
        }
      ],
      "name": "getNotificationReceiver",
      "outputs": [
        {
          "internalType": "contract INotificationReceiver",
          "name": "",
          "type": "address"
        }
      ],
      "stateMutability": "view",
      "type": "function"
    },
    {
      "inputs": [],
      "name": "getRemovedBridgeAssets",
      "outputs": [
        {
          "internalType": "address[]",
          "name": "",
          "type": "address[]"
        }
      ],
      "stateMutability": "view",
      "type": "function"
    },
    {
      "inputs": [
        {
          "internalType": "address",
          "name": "",
          "type": "address"
        }
      ],
      "name": "getSilo",
      "outputs": [
        {
          "internalType": "address",
          "name": "",
          "type": "address"
        }
      ],
      "stateMutability": "view",
      "type": "function"
    },
    {
      "inputs": [],
      "name": "isPaused",
      "outputs": [
        {
          "internalType": "bool",
          "name": "globalPause",
          "type": "bool"
        }
      ],
      "stateMutability": "view",
      "type": "function"
    },
    {
      "inputs": [
        {
          "internalType": "address",
          "name": "_silo",
          "type": "address"
        }
      ],
      "name": "isSilo",
      "outputs": [
        {
          "internalType": "bool",
          "name": "",
          "type": "bool"
        }
      ],
      "stateMutability": "view",
      "type": "function"
    },
    {
      "inputs": [
        {
          "internalType": "address",
          "name": "_silo",
          "type": "address"
        },
        {
          "internalType": "address",
          "name": "_asset",
          "type": "address"
        }
      ],
      "name": "isSiloPaused",
      "outputs": [
        {
          "internalType": "bool",
          "name": "",
          "type": "bool"
        }
      ],
      "stateMutability": "view",
      "type": "function"
    },
    {
      "inputs": [],
      "name": "maxLiquidity",
      "outputs": [
        {
          "internalType": "bool",
          "name": "globalToggle",
          "type": "bool"
        },
        {
          "internalType": "uint256",
          "name": "defaultMaxLiquidity",
          "type": "uint256"
        }
      ],
      "stateMutability": "view",
      "type": "function"
    },
    {
      "inputs": [
        {
          "internalType": "address",
          "name": "_siloAsset",
          "type": "address"
        },
        {
          "internalType": "uint128",
          "name": "_siloVersion",
          "type": "uint128"
        },
        {
          "internalType": "bytes",
          "name": "_siloData",
          "type": "bytes"
        }
      ],
      "name": "newSilo",
      "outputs": [],
      "stateMutability": "nonpayable",
      "type": "function"
    },
    {
      "inputs": [],
      "name": "owner",
      "outputs": [
        {
          "internalType": "address",
          "name": "",
          "type": "address"
        }
      ],
      "stateMutability": "view",
      "type": "function"
    },
    {
      "inputs": [],
      "name": "pendingOwner",
      "outputs": [
        {
          "internalType": "address",
          "name": "",
          "type": "address"
        }
      ],
      "stateMutability": "view",
      "type": "function"
    },
    {
      "inputs": [],
      "name": "priceProvidersRepository",
      "outputs": [
        {
          "internalType": "contract IPriceProvidersRepository",
          "name": "",
          "type": "address"
        }
      ],
      "stateMutability": "view",
      "type": "function"
    },
    {
      "inputs": [],
      "name": "protocolLiquidationFee",
      "outputs": [
        {
          "internalType": "uint256",
          "name": "",
          "type": "uint256"
        }
      ],
      "stateMutability": "view",
      "type": "function"
    },
    {
      "inputs": [],
      "name": "protocolShareFee",
      "outputs": [
        {
          "internalType": "uint256",
          "name": "",
          "type": "uint256"
        }
      ],
      "stateMutability": "view",
      "type": "function"
    },
    {
      "inputs": [
        {
          "internalType": "contract ISiloFactory",
          "name": "_factory",
          "type": "address"
        },
        {
          "internalType": "bool",
          "name": "_isDefault",
          "type": "bool"
        }
      ],
      "name": "registerSiloVersion",
      "outputs": [],
      "stateMutability": "nonpayable",
      "type": "function"
    },
    {
      "inputs": [
        {
          "internalType": "address",
          "name": "_bridgeAssetToRemove",
          "type": "address"
        }
      ],
      "name": "removeBridgeAsset",
      "outputs": [],
      "stateMutability": "nonpayable",
      "type": "function"
    },
    {
      "inputs": [],
      "name": "renounceOwnership",
      "outputs": [],
      "stateMutability": "nonpayable",
      "type": "function"
    },
    {
      "inputs": [
        {
          "internalType": "address",
          "name": "_siloAsset",
          "type": "address"
        },
        {
          "internalType": "uint128",
          "name": "_siloVersion",
          "type": "uint128"
        },
        {
          "internalType": "bytes",
          "name": "_siloData",
          "type": "bytes"
        }
      ],
      "name": "replaceSilo",
      "outputs": [],
      "stateMutability": "nonpayable",
      "type": "function"
    },
    {
      "inputs": [],
      "name": "router",
      "outputs": [
        {
          "internalType": "address",
          "name": "",
          "type": "address"
        }
      ],
      "stateMutability": "view",
      "type": "function"
    },
    {
      "inputs": [
        {
          "internalType": "address",
          "name": "_silo",
          "type": "address"
        },
        {
          "internalType": "address",
          "name": "_asset",
          "type": "address"
        },
        {
          "components": [
            {
              "internalType": "uint64",
              "name": "maxLoanToValue",
              "type": "uint64"
            },
            {
              "internalType": "uint64",
              "name": "liquidationThreshold",
              "type": "uint64"
            },
            {
              "internalType": "contract IInterestRateModel",
              "name": "interestRateModel",
              "type": "address"
            }
          ],
          "internalType": "struct ISiloRepository.AssetConfig",
          "name": "_assetConfig",
          "type": "tuple"
        }
      ],
      "name": "setAssetConfig",
      "outputs": [],
      "stateMutability": "nonpayable",
      "type": "function"
    },
    {
      "inputs": [
        {
          "internalType": "contract IInterestRateModel",
          "name": "_defaultInterestRateModel",
          "type": "address"
        }
      ],
      "name": "setDefaultInterestRateModel",
      "outputs": [],
      "stateMutability": "nonpayable",
      "type": "function"
    },
    {
      "inputs": [
        {
          "internalType": "uint64",
          "name": "_defaultLiquidationThreshold",
          "type": "uint64"
        }
      ],
      "name": "setDefaultLiquidationThreshold",
      "outputs": [],
      "stateMutability": "nonpayable",
      "type": "function"
    },
    {
      "inputs": [
        {
          "internalType": "uint64",
          "name": "_defaultMaxLTV",
          "type": "uint64"
        }
      ],
      "name": "setDefaultMaximumLTV",
      "outputs": [],
      "stateMutability": "nonpayable",
      "type": "function"
    },
    {
      "inputs": [
        {
          "internalType": "uint256",
          "name": "_maxDeposits",
          "type": "uint256"
        }
      ],
      "name": "setDefaultSiloMaxDepositsLimit",
      "outputs": [],
      "stateMutability": "nonpayable",
      "type": "function"
    },
    {
      "inputs": [
        {
          "internalType": "uint128",
          "name": "_defaultVersion",
          "type": "uint128"
        }
      ],
      "name": "setDefaultSiloVersion",
      "outputs": [],
      "stateMutability": "nonpayable",
      "type": "function"
    },
    {
      "inputs": [
        {
          "components": [
            {
              "internalType": "uint64",
              "name": "entryFee",
              "type": "uint64"
            },
            {
              "internalType": "uint64",
              "name": "protocolShareFee",
              "type": "uint64"
            },
            {
              "internalType": "uint64",
              "name": "protocolLiquidationFee",
              "type": "uint64"
            }
          ],
          "internalType": "struct ISiloRepository.Fees",
          "name": "_fees",
          "type": "tuple"
        }
      ],
      "name": "setFees",
      "outputs": [],
      "stateMutability": "nonpayable",
      "type": "function"
    },
    {
      "inputs": [
        {
          "internalType": "bool",
          "name": "_globalPause",
          "type": "bool"
        }
      ],
      "name": "setGlobalPause",
      "outputs": [],
      "stateMutability": "nonpayable",
      "type": "function"
    },
    {
      "inputs": [
        {
          "internalType": "address",
          "name": "_silo",
          "type": "address"
        },
        {
          "internalType": "contract INotificationReceiver",
          "name": "_newNotificationReceiver",
          "type": "address"
        }
      ],
      "name": "setNotificationReceiver",
      "outputs": [],
      "stateMutability": "nonpayable",
      "type": "function"
    },
    {
      "inputs": [
        {
          "internalType": "address",
          "name": "_repository",
          "type": "address"
        }
      ],
      "name": "setPriceProvidersRepository",
      "outputs": [],
      "stateMutability": "nonpayable",
      "type": "function"
    },
    {
      "inputs": [
        {
          "internalType": "address",
          "name": "_router",
          "type": "address"
        }
      ],
      "name": "setRouter",
      "outputs": [],
      "stateMutability": "nonpayable",
      "type": "function"
    },
    {
      "inputs": [
        {
          "internalType": "address",
          "name": "_silo",
          "type": "address"
        },
        {
          "internalType": "address",
          "name": "_asset",
          "type": "address"
        },
        {
          "internalType": "uint256",
          "name": "_maxDeposits",
          "type": "uint256"
        }
      ],
      "name": "setSiloMaxDepositsLimit",
      "outputs": [],
      "stateMutability": "nonpayable",
      "type": "function"
    },
    {
      "inputs": [
        {
          "internalType": "address",
          "name": "_silo",
          "type": "address"
        },
        {
          "internalType": "address",
          "name": "_asset",
          "type": "address"
        },
        {
          "internalType": "bool",
          "name": "_pauseValue",
          "type": "bool"
        }
      ],
      "name": "setSiloPause",
      "outputs": [],
      "stateMutability": "nonpayable",
      "type": "function"
    },
    {
      "inputs": [
        {
          "internalType": "address",
          "name": "_tokensFactory",
          "type": "address"
        }
      ],
      "name": "setTokensFactory",
      "outputs": [],
      "stateMutability": "nonpayable",
      "type": "function"
    },
    {
      "inputs": [
        {
          "internalType": "uint256",
          "name": "",
          "type": "uint256"
        }
      ],
      "name": "siloFactory",
      "outputs": [
        {
          "internalType": "contract ISiloFactory",
          "name": "",
          "type": "address"
        }
      ],
      "stateMutability": "view",
      "type": "function"
    },
    {
      "inputs": [],
      "name": "siloRepositoryPing",
      "outputs": [
        {
          "internalType": "bool",
          "name": "",
          "type": "bool"
        }
      ],
      "stateMutability": "pure",
      "type": "function"
    },
    {
      "inputs": [
        {
          "internalType": "address",
          "name": "",
          "type": "address"
        }
      ],
      "name": "siloReverse",
      "outputs": [
        {
          "internalType": "address",
          "name": "",
          "type": "address"
        }
      ],
      "stateMutability": "view",
      "type": "function"
    },
    {
      "inputs": [],
      "name": "siloVersion",
      "outputs": [
        {
          "internalType": "uint128",
          "name": "byDefault",
          "type": "uint128"
        },
        {
          "internalType": "uint128",
          "name": "latest",
          "type": "uint128"
        }
      ],
      "stateMutability": "view",
      "type": "function"
    },
    {
      "inputs": [],
      "name": "toggleLimitedMaxLiquidity",
      "outputs": [],
      "stateMutability": "nonpayable",
      "type": "function"
    },
    {
      "inputs": [],
      "name": "tokensFactory",
      "outputs": [
        {
          "internalType": "contract ITokensFactory",
          "name": "",
          "type": "address"
        }
      ],
      "stateMutability": "view",
      "type": "function"
    },
    {
      "inputs": [
        {
          "internalType": "address",
          "name": "newOwner",
          "type": "address"
        }
      ],
      "name": "transferOwnership",
      "outputs": [],
      "stateMutability": "nonpayable",
      "type": "function"
    },
    {
      "inputs": [
        {
          "internalType": "address",
          "name": "newPendingOwner",
          "type": "address"
        }
      ],
      "name": "transferPendingOwnership",
      "outputs": [],
      "stateMutability": "nonpayable",
      "type": "function"
    },
    {
      "inputs": [
        {
          "internalType": "uint128",
          "name": "_siloVersion",
          "type": "uint128"
        }
      ],
      "name": "unregisterSiloVersion",
      "outputs": [],
      "stateMutability": "nonpayable",
      "type": "function"
    }
  ],
  "transactionHash": "0x5e5999bfbcdd259f12cb858a4c4eda06027b0c5ea0aaf9b2edcfb12951cf24f6",
  "args": [
    "0xC8f86B90fb75b87129d262FF7c7124D456F275Aa",
    "0x2dA37C8d170172f0E910aAA1952f32653faA9116",
    "500000000000000000",
    "625000000000000000",
    [
      "0xB4FBF271143F4FBf7B91A5ded31805e42b2208d6"
    ]
  ],
  "numDeployments": 1,
  "solcInputHash": "4e6ec95f1876ffdb5c89e088426a74e9",
  "bytecode": "0x60806040523480156200001157600080fd5b5060405162003b5f38038062003b5f8339810160408190526200003491620006cf565b6200003f3362000434565b6002805460ff19166001179055680d8d726b7177a800006003556001600160401b0380841690831681620000a65760405162461bcd60e51b815260206004820152600960248201526832b6b83a3c90363a3b60b91b60448201526064015b60405180910390fd5b808210620001035760405162461bcd60e51b8152602060048201526024808201527f72657175697265205f6c7476203c205f6c69717569646174696f6e54687265736044820152631a1bdb1960e21b60648201526084016200009d565b670de0b6b3a76400008110620001715760405162461bcd60e51b815260206004820152602c60248201527f6c69717569646174696f6e5468726573686f6c64206d757374206265206c6f7760448201526b6572207468616e203130302560a01b60648201526084016200009d565b6200018f87635a0c4de460e01b6200048460201b620025051760201c565b620001dd5760405162461bcd60e51b815260206004820152601860248201527f73696c6f20666163746f727920706f6e67206661696c6564000000000000000060448201526064016200009d565b620001fb86636849100f60e01b6200048460201b620025051760201c565b620002495760405162461bcd60e51b815260206004820152601960248201527f746f6b656e73466163746f727920706f6e67206661696c65640000000000000060448201526064016200009d565b8251620002b05760405162461bcd60e51b815260206004820152602e60248201527f53696c6f5265706f7369746f72792e636f6e7374727563746f723a20656d707460448201526d792062726964676541737365747360901b60648201526084016200009d565b60005b83518110156200038a57620002ef848281518110620002d657620002d66200089c565b60200260200101516200055760201b620025cd1760201c565b6200033d5760405162461bcd60e51b815260206004820152601c60248201527f6272696467654173736574286929206e6f7420737570706f727465640000000060448201526064016200009d565b620003748482815181106200035657620003566200089c565b602002602001015160096200062a60201b620026981790919060201c565b5080620003818162000872565b915050620002b3565b50507001000000000000000000000000000000016013555050600160005260146020527fb6c61a840592cc84133e4b25bd509abf4659307c57b160799b38490a5aa48f2c80546001600160a01b03199081166001600160a01b0396871617909155600e80549091169390941692909217909255600780546001600160401b039384166001600160801b031990911617680100000000000000009390921692909202179055620008c8565b600080546001600160a01b038381166001600160a01b0319831681178455604051919092169283917f8be0079c531659141344cd1fd0a4f28419497f9722a3daafe3b4186f6b6457e09190a35050565b60006001600160a01b0383166200049e5750600062000551565b60408051600481526024810182526020810180516001600160e01b03166001600160e01b03198616179052905160009182916001600160a01b03871691620004e69162000834565b600060405180830381855afa9150503d806000811462000523576040519150601f19603f3d011682016040523d82523d6000602084013e62000528565b606091505b50915091508180156200054c5750808060200190518101906200054c9190620007f6565b925050505b92915050565b60006001600160a01b0382166200057057506000919050565b60408051600481526024810182526020810180516001600160e01b031663313ce56760e01b179052905160009182916001600160a01b03861691620005b59162000834565b600060405180830381855afa9150503d8060008114620005f2576040519150601f19603f3d011682016040523d82523d6000602084013e620005f7565b606091505b5091509150816200060c575060009392505050565b808060200190518101906200062291906200081a565b949350505050565b600062000641836001600160a01b03841662000648565b9392505050565b6000818152600183016020526040812054620006915750815460018181018455600084815260208082209093018490558454848252828601909352604090209190915562000551565b50600062000551565b80516001600160a01b0381168114620006b257600080fd5b919050565b80516001600160401b0381168114620006b257600080fd5b600080600080600060a08688031215620006e857600080fd5b620006f3866200069a565b94506020620007048188016200069a565b94506200071460408801620006b7565b93506200072460608801620006b7565b60808801519093506001600160401b03808211156200074257600080fd5b818901915089601f8301126200075757600080fd5b8151818111156200076c576200076c620008b2565b8060051b604051601f19603f83011681018181108582111715620007945762000794620008b2565b604052828152858101935084860182860187018e1015620007b457600080fd5b600095505b83861015620007e257620007cd816200069a565b855260019590950194938601938601620007b9565b508096505050505050509295509295909350565b6000602082840312156200080957600080fd5b815180151581146200064157600080fd5b6000602082840312156200082d57600080fd5b5051919050565b6000825160005b818110156200085757602081860181015185830152016200083b565b8181111562000867576000828501525b509190910192915050565b60006000198214156200089557634e487b7160e01b600052601160045260246000fd5b5060010190565b634e487b7160e01b600052603260045260246000fd5b634e487b7160e01b600052604160045260246000fd5b61328780620008d86000396000f3fe608060405234801561001057600080fd5b50600436106103425760003560e01c806369a6b3db116101b8578063c2fa749411610104578063ed4c8bb3116100a2578063f297692a1161007c578063f297692a1461084b578063f2fde38b14610889578063f887ea401461089c578063fa2a0639146108af57600080fd5b8063ed4c8bb31461081d578063ed94074014610830578063ee306a341461084357600080fd5b8063cc1fdf16116100de578063cc1fdf16146107da578063e30c3978146107ed578063e99ed41d146107fe578063eafecffa1461080557600080fd5b8063c2fa7494146107a1578063c552b7e0146107b4578063c96fad28146107c757600080fd5b80638da5cb5b11610171578063b187bd261161014b578063b187bd261461075b578063b64ddd9214610768578063ba0d69d31461077b578063c0d786551461078e57600080fd5b80638da5cb5b146106e45780639af1d35a146106f55780639d4482af1461074857600080fd5b806369a6b3db1461065d5780636a0827641461067057806370c0345c14610683578063715018a6146106ab578063791183d1146106b357806379ba5097146106dc57600080fd5b80632cd5f3171161029257806356fecf1a116102305780635f37af9e1161020a5780635f37af9e1461061c57806364f7a8d31461062f5780636645fd6714610637578063685f628a1461064a57600080fd5b806356fecf1a146105e35780635ddf2be3146105f65780635e46bea51461060957600080fd5b8063342d68c61161026c578063342d68c61461058157806344cf3e93146105aa57806348b3eabc146105bd5780634fbc5895146105d057600080fd5b80632cd5f317146105485780633278c6941461055b57806332936c441461056e57600080fd5b806315c3c2d1116102ff57806319afb898116102d957806319afb898146104f55780631b3665331461050857806325ed3d441461051b578063296041ea1461053357600080fd5b806315c3c2d1146104a65780631893ea14146104b957806318b46172146104cc57600080fd5b806301d6b8131461034757806304ab6884146103cb578063072ea61c146103e057806307e93033146103fb5780630b9290581461043c57806312f0dcd814610468575b600080fd5b610397610355366004612bd6565b6017602090815260009283526040808420909152908252902080546001909101546001600160401b0380831692600160401b900416906001600160a01b031683565b604080516001600160401b0394851681529390921660208401526001600160a01b0316908201526060015b60405180910390f35b6103de6103d9366004612e87565b6108c2565b005b600d546001600160401b03165b6040519081526020016103c2565b610424610409366004612e6e565b6014602052600090815260409020546001600160a01b031681565b6040516001600160a01b0390911681526020016103c2565b600754600854610397916001600160401b0380821692600160401b90920416906001600160a01b031683565b610496610476366004612b9c565b6001600160a01b0390811660009081526016602052604090205416151590565b60405190151581526020016103c2565b6103de6104b4366004612b9c565b6109d6565b6103de6104c7366004612bd6565b610afb565b6104246104da366004612b9c565b6015602052600090815260409020546001600160a01b031681565b6103de610503366004612b9c565b610c21565b6103de610516366004612c0f565b610e3b565b600d54600160401b90046001600160401b03166103ed565b61053b610ee8565b6040516103c29190612f02565b6103de610556366004612b9c565b610ef9565b6103de610569366004612b9c565b61115a565b6103ed61057c366004612bd6565b611206565b61042461058f366004612b9c565b6012602052600090815260409020546001600160a01b031681565b6104966105b8366004612bd6565b611267565b6104246105cb366004612bd6565b6112d5565b6103de6105de366004612ce3565b611317565b6103de6105f1366004612e6e565b6114b8565b600f54610424906001600160a01b031681565b601154610424906001600160a01b031681565b6103de61062a366004612d11565b61152d565b6103de6115b4565b6103de610645366004612ce3565b611639565b6103de610658366004612b9c565b6116d1565b6103de61066b366004612de4565b6117d1565b6103de61067e366004612e53565b61184b565b6002546003546106949160ff169082565b6040805192151583526020830191909152016103c2565b6103de611973565b6104246106c1366004612b9c565b6016602052600090815260409020546001600160a01b031681565b6103de6119b8565b6000546001600160a01b0316610424565b600d5461071e906001600160401b0380821691600160401b8104821691600160801b9091041683565b604080516001600160401b03948516815292841660208401529216918101919091526060016103c2565b6103de610756366004612d11565b611a4e565b6005546104969060ff1681565b6103ed610776366004612bd6565b611a73565b6103de610789366004612c5a565b611ac8565b6103de61079c366004612b9c565b611d17565b6103ed6107af366004612bd6565b611e0f565b6103de6107c2366004612e37565b611e61565b6103de6107d5366004612e53565b61205d565b600e54610424906001600160a01b031681565b6001546001600160a01b0316610424565b6001610496565b600d54600160801b90046001600160401b03166103ed565b6103de61082b366004612b9c565b612194565b6103de61083e366004612e87565b6122b0565b61053b6123b8565b601354610869906001600160801b0380821691600160801b90041682565b604080516001600160801b039384168152929091166020830152016103c2565b6103de610897366004612b9c565b6123c4565b601054610424906001600160a01b031681565b6103de6108bd366004612ca2565b61246b565b6007546001600160401b0380831691600160401b900416816108ff5760405162461bcd60e51b81526004016108f690613014565b60405180910390fd5b80821061091e5760405162461bcd60e51b81526004016108f690612fd0565b670de0b6b3a764000081106109455760405162461bcd60e51b81526004016108f690612f84565b336109586000546001600160a01b031690565b6001600160a01b03161461097e5760405162461bcd60e51b81526004016108f690612f4f565b6007805467ffffffffffffffff19166001600160401b0385169081179091556040519081527ff24256d9766456ecc09aacd623be7d6c4aea837de6d33aa190f39b6dfc9f58ce906020015b60405180910390a1505050565b336109e96000546001600160a01b031690565b6001600160a01b031614610a0f5760405162461bcd60e51b81526004016108f690612f4f565b610a208163eec3e6a760e01b612505565b610a925760405162461bcd60e51b815260206004820152603860248201527f53696c6f5265706f7369746f72793a20696e76616c696420507269636550726f60448201527f7669646572735265706f7369746f72792061646472657373000000000000000060648201526084016108f6565b600f54604080516001600160a01b03928316815291831660208301527fd1c67413f65785093d5c2a5fa0d3daa913b6ed2f7469c22fa91359173d4e069a910160405180910390a1600f80546001600160a01b0319166001600160a01b0392909216919091179055565b33610b0e6000546001600160a01b031690565b6001600160a01b031614610b345760405162461bcd60e51b81526004016108f690612f4f565b610b4581630893cda560e11b612505565b610bb75760405162461bcd60e51b815260206004820152603860248201527f53696c6f5265706f7369746f72793a20696e76616c6964205f6e65774e6f746960448201527f6669636174696f6e52656365697665722061646472657373000000000000000060648201526084016108f6565b6040516001600160a01b03821681527f8ac70028cbcdf11017e87b22003359f7577da04d0880c74ae3289a9029bef6a99060200160405180910390a16001600160a01b03918216600090815260126020526040902080546001600160a01b03191691909216179055565b33610c346000546001600160a01b031690565b6001600160a01b031614610c5a5760405162461bcd60e51b81526004016108f690612f4f565b6001600160a01b038116610c8157604051634ba6df7d60e01b815260040160405180910390fd5b610c8b60096126ad565b60011415610cac57604051635418dde560e01b815260040160405180910390fd5b610cb76009826126b7565b610cd4576040516343e7dd2f60e01b815260040160405180910390fd5b610cdf600b82612698565b506040516001600160a01b03821681527f780c06b06ab07a0d47596bc3082bbd3f7ecc1907ff035c3ea0e2a1602876a52b9060200160405180910390a16001600160a01b03808216600090815260156020526040902054168015610dcf57806001600160a01b031663a388991b6040518163ffffffff1660e01b8152600401600060405180830381600087803b158015610d7857600080fd5b505af1158015610d8c573d6000803e3d6000fd5b5050601180546001600160a01b031916905550506040516000907f41df3a85176fe451d19027e7b43ecc444bc299ef0d82c2b3874fbc7441d62884908290a25050565b6011546001600160a01b03168015610e3557806001600160a01b031663a388991b6040518163ffffffff1660e01b8152600401600060405180830381600087803b158015610e1c57600080fd5b505af1158015610e30573d6000803e3d6000fd5b505050505b50505b50565b33610e4e6000546001600160a01b031690565b6001600160a01b031614610e745760405162461bcd60e51b81526004016108f690612f4f565b6001600160a01b03838116600081815260066020908152604080832094871680845294825291829020805460ff19168615159081179091558251938452908301939093528101919091527f25679bcc320e874c367bc177e782eec47457781ade29259bcea7c3f1fd5c3ef5906060016109c9565b6060610ef4600b6126cc565b905090565b33610f0c6000546001600160a01b031690565b6001600160a01b031614610f325760405162461bcd60e51b81526004016108f690612f4f565b610f3b816125cd565b610f5857604051630f58058360e11b815260040160405180910390fd5b6001600160a01b0380821660009081526015602052604090205460115490821691168115611047576001600160a01b03811615610fa85760405163612436e760e01b815260040160405180910390fd5b601180546001600160a01b0319166001600160a01b0384169081179091556040517f41df3a85176fe451d19027e7b43ecc444bc299ef0d82c2b3874fbc7441d6288490600090a2816001600160a01b031663a388991b6040518163ffffffff1660e01b8152600401600060405180830381600087803b15801561102a57600080fd5b505af115801561103e573d6000803e3d6000fd5b505050506110aa565b6001600160a01b038116156110aa57806001600160a01b031663a388991b6040518163ffffffff1660e01b8152600401600060405180830381600087803b15801561109157600080fd5b505af11580156110a5573d6000803e3d6000fd5b505050505b6110b5600984612698565b61110d5760405162461bcd60e51b815260206004820152602360248201527f53696c6f5265706f7369746f72793a20617373657420616c726561647920616460448201526219195960ea1b60648201526084016108f6565b6040516001600160a01b03841681527fda0511750b81a254e0b084c2c863785e3d1c5b2b989afd8ac0e884f8ee2e033c9060200160405180910390a1611154600b846126b7565b50505050565b3361116d6000546001600160a01b031690565b6001600160a01b0316146111935760405162461bcd60e51b81526004016108f690612f4f565b806001600160a01b03166111af6000546001600160a01b031690565b6001600160a01b03167f3c672e6c16e239c29e969deaf4eae15d7002350bf5490175e7481155af04c83a60405160405180910390a3600180546001600160a01b0319166001600160a01b0392909216919091179055565b6001600160a01b038281166000908152601760209081526040808320938516835292905290812054600160401b90046001600160401b0316801561124b579050611261565b5050600754600160401b90046001600160401b03165b92915050565b60055460009060ff168061129e57506001600160a01b038316600090815260066020908152604080832083805290915290205460ff165b806112ce57506001600160a01b0380841660009081526006602090815260408083209386168352929052205460ff165b9392505050565b6001600160a01b0380831660009081526017602090815260408083208585168452909152902060010154168061126157506008546001600160a01b0316611261565b3361132a6000546001600160a01b031690565b6001600160a01b0316146113505760405162461bcd60e51b81526004016108f690612f4f565b61136182631683137960e21b612505565b6113a35760405162461bcd60e51b8152602060048201526013602482015272199858dd1bdc9e481c1bdb99c819985a5b1959606a1b60448201526064016108f6565b604080518082019091526013546001600160801b038082168352600160801b90910416602082018181526001916113db908390613037565b6001600160801b03908116909152602083810151909116600090815260149091526040902080546001600160a01b0319166001600160a01b0386161790555081156114315760208101516001600160801b031681525b602081015181516040517f3878761190f637385b15245770921955dbd3f3652f86d6bdfcb0a6afe81db04f9261148d9287926001600160a01b039390931683526001600160801b03918216602084015216604082015260600190565b60405180910390a180516020909101516001600160801b03908116600160801b029116176013555050565b336114cb6000546001600160a01b031690565b6001600160a01b0316146114f15760405162461bcd60e51b81526004016108f690612f4f565b60038190556040518181527f5b71e2324e73b2492a36b7c5f86de1bd745d891c29c3fa39e1ed97960a259eb3906020015b60405180910390a150565b336115406000546001600160a01b031690565b6001600160a01b0316146115665760405162461bcd60e51b81526004016108f690612f4f565b6001600160a01b038381166000908152601560205260409020541661159e57604051638ca73a8360e01b815260040160405180910390fd5b610e3583836115ae6009836126d9565b846126fb565b336115c76000546001600160a01b031690565b6001600160a01b0316146115ed5760405162461bcd60e51b81526004016108f690612f4f565b6002805460ff8082161560ff1990921682179092556040519116151581527eace7bfa8dc4895fea42b63dd0304a5b26ee0982b8d764257b6b106b11a45419060200160405180910390a1565b6001600160a01b03828116600090815260156020526040902054161561167257604051630907ddeb60e41b815260040160405180910390fd5b80156116cd576011546001600160a01b0316156116a25760405163612436e760e01b815260040160405180910390fd5b6116ac60096126ad565b600114156116cd57604051635dc8364160e11b815260040160405180910390fd5b5050565b336116e46000546001600160a01b031690565b6001600160a01b03161461170a5760405162461bcd60e51b81526004016108f690612f4f565b61171b8163c42401f160e01b612505565b6117735760405162461bcd60e51b8152602060048201526024808201527f696e76616c6964206e65772064656661756c74496e746572657374526174654d6044820152631bd9195b60e21b60648201526084016108f6565b6040516001600160a01b03821681527fd196f9719fb4ff43e12fe6d14f3ab40fa45e350b24e2626b9504d055600f0c079060200160405180910390a1600880546001600160a01b0319166001600160a01b0392909216919091179055565b336117e46000546001600160a01b031690565b6001600160a01b03161461180a5760405162461bcd60e51b81526004016108f690612f4f565b6005805460ff19168215159081179091556040519081527fa5fea31b6dbd7aec6098ca4653b1d51af1ef786fcb19031c4c4e55b675535f1e90602001611522565b3361185e6000546001600160a01b031690565b6001600160a01b0316146118845760405162461bcd60e51b81526004016108f690612f4f565b6001600160801b0381166000908152601460205260409020546001600160a01b03166119015760405162461bcd60e51b815260206004820152602660248201527f53696c6f5265706f7369746f72793a2076657273696f6e20646f6573206e6f7460448201526508195e1a5cdd60d21b60648201526084016108f6565b601354604080516001600160801b03928316815291831660208301527f26d898a28e0c19299513cdbecb14e8c2c0011edf506c3fec36d7c71d816afaa5910160405180910390a1601380546fffffffffffffffffffffffffffffffff19166001600160801b0392909216919091179055565b336119866000546001600160a01b031690565b6001600160a01b0316146119ac5760405162461bcd60e51b81526004016108f690612f4f565b6119b6600061297a565b565b6001546001600160a01b03163314611a225760405162461bcd60e51b815260206004820152602760248201527f4f776e61626c653a2063616c6c6572206973206e6f74207468652070656e64696044820152663733a7bbb732b960c91b60648201526084016108f6565b611a3c611a376001546001600160a01b031690565b61297a565b600180546001600160a01b0319169055565b6000611a5b6009856126d9565b9050611a678482611639565b611154848483856126fb565b60025460009060ff1615611abe576001600160a01b038084166000908152600460209081526040808320938616835292905220548015611ab4579050611261565b5050600354611261565b5060001992915050565b611ad56020820182612e87565b6001600160401b0316611aee6040830160208401612e87565b6001600160401b031681611b145760405162461bcd60e51b81526004016108f690613014565b808210611b335760405162461bcd60e51b81526004016108f690612fd0565b670de0b6b3a76400008110611b5a5760405162461bcd60e51b81526004016108f690612f84565b33611b6d6000546001600160a01b031690565b6001600160a01b031614611b935760405162461bcd60e51b81526004016108f690612f4f565b6001600160a01b038516611bd65760405162461bcd60e51b815260206004820152600a602482015269656d7074792073696c6f60b01b60448201526064016108f6565b6001600160a01b038416611c1a5760405162461bcd60e51b815260206004820152600b60248201526a195b5c1d1e48185cdcd95d60aa1b60448201526064016108f6565b611c2a6060840160408501612b9c565b6001600160a01b0316636bcc82166040518163ffffffff1660e01b815260040160206040518083038186803b158015611c6257600080fd5b505afa158015611c76573d6000803e3d6000fd5b505050506040513d601f19601f82011682018060405250810190611c9a9190612e1e565b611ce65760405162461bcd60e51b815260206004820152601960248201527f696e76616c696420696e746572657374526174654d6f64656c0000000000000060448201526064016108f6565b6001600160a01b0380861660009081526017602090815260408083209388168352929052208390610e3082826130fd565b33611d2a6000546001600160a01b031690565b6001600160a01b031614611d505760405162461bcd60e51b81526004016108f690612f4f565b611d61816312eadfa760e11b612505565b611da65760405162461bcd60e51b8152602060048201526016602482015275696e76616c696420726f75746572206164647265737360501b60448201526064016108f6565b601054604080516001600160a01b03928316815291831660208301527f363beda10ebf02584eda9ab4ca38e353bc57591b50714ba84692ed584280672d910160405180910390a1601080546001600160a01b0319166001600160a01b0392909216919091179055565b6001600160a01b0380831660009081526017602090815260408083209385168352929052908120546001600160401b03168015611e4d579050611261565b50506007546001600160401b031692915050565b33611e746000546001600160a01b031690565b6001600160a01b031614611e9a5760405162461bcd60e51b81526004016108f690612f4f565b670de0b6b3a7640000611eb06020830183612e87565b6001600160401b031610611efa5760405162461bcd60e51b8152602060048201526011602482015270656e747279466565206f766572666c6f7760781b60448201526064016108f6565b670de0b6b3a7640000611f136040830160208401612e87565b6001600160401b031610611f695760405162461bcd60e51b815260206004820152601960248201527f70726f746f636f6c5368617265466565206f766572666c6f770000000000000060448201526064016108f6565b670de0b6b3a7640000611f826060830160408401612e87565b6001600160401b031610611fd85760405162461bcd60e51b815260206004820152601f60248201527f70726f746f636f6c4c69717569646174696f6e466565206f766572666c6f770060448201526064016108f6565b7f0bb1069a7e7f20128a7b5ab748a6b3da407eacd702a47c82dad3d75c31ac1c496120066020830183612e87565b6120166040840160208501612e87565b6120266060850160408601612e87565b604080516001600160401b039485168152928416602084015292168183015290519081900360600190a180600d610e358282613188565b336120706000546001600160a01b031690565b6001600160a01b0316146120965760405162461bcd60e51b81526004016108f690612f4f565b6013546001600160801b038281169116141561210f5760405162461bcd60e51b815260206004820152603260248201527f53696c6f5265706f7369746f72793a2063616e204e4f5420756e72656769737460448201527132b9103232b330bab63a103b32b939b4b7b760711b60648201526084016108f6565b6001600160801b0381166000818152601460209081526040918290205482516001600160a01b039091168152908101929092527f8bc0514e0cb2bd11d5786d5c8f856fb52056d319fc42c4a895807965a4f7791c910160405180910390a16001600160801b0316600090815260146020526040902080546001600160a01b0319169055565b336121a76000546001600160a01b031690565b6001600160a01b0316146121cd5760405162461bcd60e51b81526004016108f690612f4f565b6121de81636849100f60e01b612505565b6122475760405162461bcd60e51b815260206004820152603460248201527f53696c6f5265706f7369746f72792e736574546f6b656e73466163746f72793a60448201527320656d70747920746f6b656e73466163746f727960601b60648201526084016108f6565b600e54604080516001600160a01b03928316815291831660208301527fa5aca89bc6f8378bfe19e0816667b4810c29cf7f5a908eab9eb3a98ef1089e08910160405180910390a1600e80546001600160a01b0319166001600160a01b0392909216919091179055565b6007546001600160401b03908116908216816122de5760405162461bcd60e51b81526004016108f690613014565b8082106122fd5760405162461bcd60e51b81526004016108f690612fd0565b670de0b6b3a764000081106123245760405162461bcd60e51b81526004016108f690612f84565b336123376000546001600160a01b031690565b6001600160a01b03161461235d5760405162461bcd60e51b81526004016108f690612f4f565b6007805467ffffffffffffffff60401b1916600160401b6001600160401b038616908102919091179091556040519081527f421dd56981f3a94f01459e7d9bc4cd85e070e7258f83a9622e5b09e40c4d20ee906020016109c9565b6060610ef460096126cc565b336123d76000546001600160a01b031690565b6001600160a01b0316146123fd5760405162461bcd60e51b81526004016108f690612f4f565b6001600160a01b0381166124625760405162461bcd60e51b815260206004820152602660248201527f4f776e61626c653a206e6577206f776e657220697320746865207a65726f206160448201526564647265737360d01b60648201526084016108f6565b610e388161297a565b3361247e6000546001600160a01b031690565b6001600160a01b0316146124a45760405162461bcd60e51b81526004016108f690612f4f565b6001600160a01b0383811660008181526004602090815260408083209487168084529482529182902085905590518481527f25c16b7d0bcf048ed0d91eb5e50591eb538c034fd4ebee6cac8b7c9cf77c770b910160405180910390a3505050565b60006001600160a01b03831661251d57506000611261565b60408051600481526024810182526020810180516001600160e01b03166001600160e01b03198616179052905160009182916001600160a01b0387169161256391612ea4565b600060405180830381855afa9150503d806000811461259e576040519150601f19603f3d011682016040523d82523d6000602084013e6125a3565b606091505b50915091508180156125c45750808060200190518101906125c49190612e01565b95945050505050565b60006001600160a01b0382166125e557506000919050565b60408051600481526024810182526020810180516001600160e01b031663313ce56760e01b179052905160009182916001600160a01b0386169161262891612ea4565b600060405180830381855afa9150503d8060008114612663576040519150601f19603f3d011682016040523d82523d6000602084013e612668565b606091505b50915091508161267c575060009392505050565b808060200190518101906126909190612e1e565b949350505050565b60006112ce836001600160a01b0384166129ca565b6000611261825490565b60006112ce836001600160a01b038416612a19565b606060006112ce83612b0c565b6001600160a01b038116600090815260018301602052604081205415156112ce565b600f546040516350ebbcc160e01b81526001600160a01b038681166004830152909116906350ebbcc19060240160206040518083038186803b15801561274057600080fd5b505afa158015612754573d6000803e3d6000fd5b505050506040513d601f19601f820116820180604052508101906127789190612e01565b61279557604051630241d97f60e11b815260040160405180910390fd5b6001600160801b0383166127b2576013546001600160801b031692505b6001600160801b03831660009081526014602052604080822054905163130a1df960e01b81526001600160a01b039091169063130a1df9906127fa9088908690600401612ec0565b602060405180830381600087803b15801561281457600080fd5b505af1158015612828573d6000803e3d6000fd5b505050506040513d601f19601f8201168201806040525081019061284c9190612bb9565b9050806001600160a01b031663a388991b6040518163ffffffff1660e01b8152600401600060405180830381600087803b15801561288957600080fd5b505af115801561289d573d6000803e3d6000fd5b505050506001600160a01b03858116600081815260156020908152604080832080546001600160a01b031990811696881696871790915585845260168352928190208054909316841790925590516001600160801b03881681529192917fd67d472c55ce8b249ca39858e9032ae0237147a9b81f4d1253c246c75876dd69910160405180910390a3821561297357601180546001600160a01b0319166001600160a01b0383169081179091556040517f41df3a85176fe451d19027e7b43ecc444bc299ef0d82c2b3874fbc7441d6288490600090a25b5050505050565b600080546001600160a01b038381166001600160a01b0319831681178455604051919092169283917f8be0079c531659141344cd1fd0a4f28419497f9722a3daafe3b4186f6b6457e09190a35050565b6000818152600183016020526040812054612a1157508154600181810184556000848152602080822090930184905584548482528286019093526040902091909155611261565b506000611261565b60008181526001830160205260408120548015612b02576000612a3d600183613062565b8554909150600090612a5190600190613062565b9050818114612ab6576000866000018281548110612a7157612a716130d1565b9060005260206000200154905080876000018481548110612a9457612a946130d1565b6000918252602080832090910192909255918252600188019052604090208390555b8554869080612ac757612ac76130bb565b600190038181906000526020600020016000905590558560010160008681526020019081526020016000206000905560019350505050611261565b6000915050611261565b606081600001805480602002602001604051908101604052809291908181526020018280548015612b5c57602002820191906000526020600020905b815481526020019060010190808311612b48575b50505050509050919050565b600060608284031215612b7a57600080fd5b50919050565b80356001600160801b0381168114612b9757600080fd5b919050565b600060208284031215612bae57600080fd5b81356112ce81613219565b600060208284031215612bcb57600080fd5b81516112ce81613219565b60008060408385031215612be957600080fd5b8235612bf481613219565b91506020830135612c0481613219565b809150509250929050565b600080600060608486031215612c2457600080fd5b8335612c2f81613219565b92506020840135612c3f81613219565b91506040840135612c4f8161322e565b809150509250925092565b600080600060a08486031215612c6f57600080fd5b8335612c7a81613219565b92506020840135612c8a81613219565b9150612c998560408601612b68565b90509250925092565b600080600060608486031215612cb757600080fd5b8335612cc281613219565b92506020840135612cd281613219565b929592945050506040919091013590565b60008060408385031215612cf657600080fd5b8235612d0181613219565b91506020830135612c048161322e565b600080600060608486031215612d2657600080fd5b8335612d3181613219565b9250612d3f60208501612b80565b915060408401356001600160401b0380821115612d5b57600080fd5b818601915086601f830112612d6f57600080fd5b813581811115612d8157612d816130e7565b604051601f8201601f19908116603f01168101908382118183101715612da957612da96130e7565b81604052828152896020848701011115612dc257600080fd5b8260208601602083013760006020848301015280955050505050509250925092565b600060208284031215612df657600080fd5b81356112ce8161322e565b600060208284031215612e1357600080fd5b81516112ce8161322e565b600060208284031215612e3057600080fd5b5051919050565b600060608284031215612e4957600080fd5b6112ce8383612b68565b600060208284031215612e6557600080fd5b6112ce82612b80565b600060208284031215612e8057600080fd5b5035919050565b600060208284031215612e9957600080fd5b81356112ce8161323c565b60008251612eb6818460208701613079565b9190910192915050565b60018060a01b03831681526040602082015260008251806040840152612eed816060850160208701613079565b601f01601f1916919091016060019392505050565b6020808252825182820181905260009190848201906040850190845b81811015612f435783516001600160a01b031683529284019291840191600101612f1e565b50909695505050505050565b6020808252818101527f4f776e61626c653a2063616c6c6572206973206e6f7420746865206f776e6572604082015260600190565b6020808252602c908201527f6c69717569646174696f6e5468726573686f6c64206d757374206265206c6f7760408201526b6572207468616e203130302560a01b606082015260800190565b60208082526024908201527f72657175697265205f6c7476203c205f6c69717569646174696f6e54687265736040820152631a1bdb1960e21b606082015260800190565b60208082526009908201526832b6b83a3c90363a3b60b91b604082015260600190565b60006001600160801b03808316818516808303821115613059576130596130a5565b01949350505050565b600082821015613074576130746130a5565b500390565b60005b8381101561309457818101518382015260200161307c565b838111156111545750506000910152565b634e487b7160e01b600052601160045260246000fd5b634e487b7160e01b600052603160045260246000fd5b634e487b7160e01b600052603260045260246000fd5b634e487b7160e01b600052604160045260246000fd5b81356131088161323c565b815467ffffffffffffffff19166001600160401b0382161782555060208201356131318161323c565b815467ffffffffffffffff60401b1916604082901b67ffffffffffffffff60401b161782555060018101604083013561316981613219565b81546001600160a01b0319166001600160a01b03919091161790555050565b81356131938161323c565b815467ffffffffffffffff19166001600160401b0382161782555060208201356131bc8161323c565b815467ffffffffffffffff60401b1916604082901b67ffffffffffffffff60401b161782555060408201356131f08161323c565b815467ffffffffffffffff60801b191660809190911b67ffffffffffffffff60801b1617905550565b6001600160a01b0381168114610e3857600080fd5b8015158114610e3857600080fd5b6001600160401b0381168114610e3857600080fdfea2646970667358221220bbb6b59703f4b35a6eeb8b3e0ab0f3e5be638dbe283155af3d57103a665a111e64736f6c63430008070033",
  "devdoc": {
    "custom:security-contact": "security@silo.finance",
    "details": "Stores configuration for each asset in each silo. Each asset in each Silo starts with a default config that later on can be changed by the contract owner. Stores registry of Factory contracts that deploy different versions of Silos It is possible to have multiple versions/implementations of Silo and use different versions for different tokens. For example, one version can be used for UNI (ERC20) and the other can be used for UniV3LP tokens (ERC721). Manages bridge assets. Each Silo can have 1 or more bridge assets. New Silos are created with all currently active bridge assets. Silos that are already developed must synchronize bridge assets. Sync can be done by anyone, function has public access. Is a single source of truth for other contract addresses.",
    "kind": "dev",
    "methods": {
      "acceptOwnership()": {
        "details": "Transfers ownership of the contract to a pending owner Can only be called by the pending owner."
      },
      "addBridgeAsset(address)": {
        "details": "New bridge asset must be unique. Duplicates in bridge assets are not allowed. It's possible to add bridge asset that has been removed in the past. Note that all Silos must be synced manually. Callable only by owner.",
        "params": {
          "_newBridgeAsset": "bridge asset address"
        }
      },
      "constructor": {
        "params": {
          "_defaultLiquidationThreshold": "liquidation threshold for default configuration",
          "_defaultMaxLTV": "maximum Loan-to-Value for default configuration",
          "_initialBridgeAssets": "bridge assets to start with",
          "_siloFactory": "address of SiloFactory contract that deploys Silos",
          "_tokensFactory": "address of TokensFactory contract that deploys debt and collateral tokens for each Silo asset"
        }
      },
      "ensureCanCreateSiloFor(address,bool)": {
        "details": "checks all conditions for new silo creation and throws when not possible to create",
        "params": {
          "_asset": "address of asset for which you want to create silo",
          "_assetIsABridge": "bool TRUE when `_asset` is bridge asset, FALSE when it is not"
        }
      },
      "entryFee()": {
        "details": "Get protocol fee for opening a borrow position",
        "returns": {
          "_0": "fee in precision points (BaseSilo.PRECISION_DECIMALS() == 100%)"
        }
      },
      "getBridgeAssets()": {
        "details": "Keep in mind that not all Silos may be synced with current bridge assets so it's possbile that some assets in that list are not part of given Silo.",
        "returns": {
          "_0": "address array of bridge assets"
        }
      },
      "getInterestRateModel(address,address)": {
        "details": "If dedicated config is not set, method returns default config",
        "params": {
          "_asset": "address of an asset",
          "_silo": "address of Silo"
        },
        "returns": {
          "model": "address of interest rate model"
        }
      },
      "getLiquidationThreshold(address,address)": {
        "details": "If dedicated config is not set, method returns default config",
        "params": {
          "_asset": "address of an asset",
          "_silo": "address of Silo"
        },
        "returns": {
          "_0": "liquidation threshold in precision points (BaseSilo.PRECISION_DECIMALS())"
        }
      },
      "getMaxSiloDeposits(address,address)": {
        "params": {
          "_asset": "Silo asset for which to set limit",
          "_silo": "Silo address for which to set limit"
        },
        "returns": {
          "_0": "deposit limit for Silo"
        }
      },
      "getMaximumLTV(address,address)": {
        "details": "If dedicated config is not set, method returns default config",
        "params": {
          "_asset": "address of an asset",
          "_silo": "address of Silo"
        },
        "returns": {
          "_0": "maximum LTV in precision points (BaseSilo.PRECISION_DECIMALS())"
        }
      },
      "getRemovedBridgeAssets()": {
        "details": "Keep in mind that not all Silos may be synced with bridge assets so it's possbile that some assets in that list are still part of given Silo.",
        "returns": {
          "_0": "address array of bridge assets"
        }
      },
      "isSilo(address)": {
        "params": {
          "_silo": "address of expected Silo"
        },
        "returns": {
          "_0": "true if address is Silo deployment, otherwise false"
        }
      },
      "isSiloPaused(address,address)": {
        "params": {
          "_asset": "address of an asset",
          "_silo": "address of Silo"
        },
        "returns": {
          "_0": "true if given asset in a Silo is paused, otherwise false"
        }
      },
      "newSilo(address,uint128,bytes)": {
        "details": "Silo does NOT support rebase and deflationary tokens",
        "params": {
          "_siloAsset": "silo asset",
          "_siloData": "(optional) data that may be needed during silo creation",
          "_siloVersion": "version of silo implementation"
        }
      },
      "owner()": {
        "returns": {
          "_0": "owner role address"
        }
      },
      "pendingOwner()": {
        "details": "Returns the address of the pending owner."
      },
      "protocolLiquidationFee()": {
        "details": "Get protocol liquidation fee",
        "returns": {
          "_0": "protocol liquidation fee in precision points (BaseSilo.PRECISION_DECIMALS() == 100%)"
        }
      },
      "protocolShareFee()": {
        "details": "Get protocol share fee",
        "returns": {
          "_0": "protocol share fee in precision points (BaseSilo.PRECISION_DECIMALS() == 100%)"
        }
      },
      "registerSiloVersion(address,bool)": {
        "details": "User can choose which Silo version he wants to deploy. It's possible to have multiple versions of Silo. Callable only by owner.",
        "params": {
          "_factory": "factory contract that deploys new version of Silo",
          "_isDefault": "true if this version should be used as default"
        }
      },
      "removeBridgeAsset(address)": {
        "details": "Note that all Silos must be synced manually. Callable only by owner.",
        "params": {
          "_bridgeAssetToRemove": "bridge asset address to be removed"
        }
      },
      "renounceOwnership()": {
        "details": "Leaves the contract without owner. It will not be possible to call `onlyOwner` functions anymore. Can only be called by the current owner. NOTE: Renouncing ownership will leave the contract without an owner, thereby removing any functionality that is only available to the owner."
      },
      "replaceSilo(address,uint128,bytes)": {
        "details": "Silo does NOT support rebase and deflationary tokens",
        "params": {
          "_siloAsset": "silo asset",
          "_siloData": "(optional) data that may be needed during silo creation",
          "_siloVersion": "version of silo implementation. Use 0 for default version which is fine for 99% of cases."
        }
      },
      "setAssetConfig(address,address,(uint64,uint64,address))": {
        "details": "Callable only by owner",
        "params": {
          "_asset": "asset address for which config applies",
          "_assetConfig": ":    - _maxLoanToValue maximum Loan-to-Value, for detailes see `Repository.AssetConfig.maxLoanToValue`    - _liquidationThreshold liquidation threshold, for detailes see `Repository.AssetConfig.maxLoanToValue`    - _interestRateModel interest rate model address, for detailes see `Repository.AssetConfig.interestRateModel`",
          "_silo": "Silo address for which config applies"
        }
      },
      "setDefaultInterestRateModel(address)": {
        "details": "Callable only by owner",
        "params": {
          "_defaultInterestRateModel": "default interest rate model"
        }
      },
      "setDefaultLiquidationThreshold(uint64)": {
        "details": "Callable only by owner",
        "params": {
          "_defaultLiquidationThreshold": "default liquidation threshold in precision points (BaseSilo.PRECISION_DECIMALS())"
        }
      },
      "setDefaultMaximumLTV(uint64)": {
        "details": "Callable only by owner",
        "params": {
          "_defaultMaxLTV": "default maximum LTV in precision points (BaseSilo.PRECISION_DECIMALS())"
        }
      },
      "setDefaultSiloMaxDepositsLimit(uint256)": {
        "params": {
          "_maxDeposits": "deposit limit amount in ETH"
        }
      },
      "setDefaultSiloVersion(uint128)": {
        "details": "Callable only by owner.",
        "params": {
          "_defaultVersion": "Silo version to be set as default"
        }
      },
      "setFees((uint64,uint64,uint64))": {
        "details": "Callable only by owner",
        "params": {
          "_fees": ": - _entryFee one time protocol fee for opening a borrow position in precision points (BaseSilo.PRECISION_DECIMALS()) - _protocolShareFee protocol revenue share in interest paid in precision points (BaseSilo.PRECISION_DECIMALS()) - _protocolLiquidationFee protocol share in liquidation profit in precision points (BaseSilo.PRECISION_DECIMALS()). It's calculated from total collateral amount to be transferred to liquidator."
        }
      },
      "setGlobalPause(bool)": {
        "details": "Callable only by owner.",
        "params": {
          "_globalPause": "true to pause all Silos, otherwise false"
        }
      },
      "setNotificationReceiver(address,address)": {
        "details": "Callable only by owner",
        "params": {
          "_notificationReceiver": "NotificationReceiver address",
          "_silo": "silo address for which to set `_notificationReceiver`"
        }
      },
      "setPriceProvidersRepository(address)": {
        "details": "Callable only by owner",
        "params": {
          "_repository": "price provider repository address"
        }
      },
      "setRouter(address)": {
        "details": "Callable only by owner",
        "params": {
          "_router": "router address"
        }
      },
      "setSiloMaxDepositsLimit(address,address,uint256)": {
        "params": {
          "_asset": "Silo asset for which to set limit",
          "_maxDeposits": "deposit limit amount in ETH",
          "_silo": "Silo address for which to set limit"
        }
      },
      "setSiloPause(address,address,bool)": {
        "details": "Callable only by owner.",
        "params": {
          "_asset": "address of an asset that is being paused",
          "_pauseValue": "true to pause, false to unpause",
          "_silo": "address of Silo in which `_asset` is being paused"
        }
      },
      "setTokensFactory(address)": {
        "details": "Callable only by owner",
        "params": {
          "_tokensFactory": "address of TokensFactory contract that deploys debt and collateral tokens"
        }
      },
      "transferOwnership(address)": {
        "details": "Transfers ownership of the contract to a new account (`newOwner`). Can only be called by the current owner."
      },
      "transferPendingOwnership(address)": {
        "details": "Transfers pending ownership of the contract to a new account (`newPendingOwner`). Can only be called by the current owner."
      },
      "unregisterSiloVersion(uint128)": {
        "details": "Callable only by owner.",
        "params": {
          "_siloVersion": "Silo version to be unregistered"
        }
      }
    },
    "stateVariables": {
      "_bridgeAssets": {
        "details": "List of bridge assets supported by the protocol"
      },
      "_removedBridgeAssets": {
        "details": "List of bridge assets removed by the protocol"
      },
      "assetConfigs": {
        "details": "maps silo => asset => config"
      },
      "bridgePool": {
        "details": "Silo for bridge asset. We can have only one bridge pool"
      },
      "defaultAssetConfig": {
        "details": "Default values for AssetConfig. Used if values are not configured manually."
      },
      "getNotificationReceiver": {
        "details": "Maps Silo address to incentive contract that will distribute rewards for that Silo"
      },
      "getSilo": {
        "details": "maps token address to silo address, asset => silo"
      },
      "priceProvidersRepository": {
        "details": "PriceProvidersRepository contract that manages ProceProviders implementations and is an entry point for reading prices for Silos."
      },
      "router": {
        "details": "SiloRouter utility contract that combines number of actions (Deposit, Withdraw, Borrow, Repay) for batch execution in single transaction."
      },
      "siloFactory": {
        "details": "Maps version => ISiloFactory. Versions start at 1 and are incremented by 1."
      },
      "siloReverse": {
        "details": "maps silo address to token address, silo => asset"
      },
      "tokensFactory": {
        "details": "Factory contracts that deploys debt and collateral tokens for each asset in Silo"
      }
    },
    "title": "SiloRepository",
    "version": 1
  },
  "userdoc": {
    "events": {
      "BridgeAssetAdded(address)": {
        "notice": "Emitted on new bridge asset"
      },
      "BridgeAssetRemoved(address)": {
        "notice": "Emitted on removed bridge asset"
      },
      "BridgePool(address)": {
        "notice": "Emitted when new Silo (or existing one) becomes a bridge pool (pool with only bridge tokens)."
      },
      "DefaultSiloMaxDepositsLimitUpdate(uint256)": {
        "notice": "Emitted when default max liquidity limit is changed"
      },
      "FeeUpdate(uint64,uint64,uint64)": {
        "notice": "Emitted when default fee is updated"
      },
      "GlobalPause(bool)": {
        "notice": "Emitted when all Silos are paused or unpaused"
      },
      "InterestRateModel(address)": {
        "notice": "Emitted when default interest rate model is changed"
      },
      "LimitedMaxLiquidityToggled(bool)": {
        "notice": "Emitted when max liquidity toggle is switched"
      },
      "NewSilo(address,address,uint128)": {
        "notice": "Emitted on new Silo creation"
      },
      "NotificationReceiverUpdate(address)": {
        "notice": "Emitted on INotificationReceiver address update"
      },
      "OwnershipPending(address,address)": {
        "notice": "Emitted when ownership transfer is proposed, aka pending owner is set"
      },
      "OwnershipTransferred(address,address)": {
        "notice": "Emitted when ownership is transferred on `transferOwnership` and `acceptOwnership`"
      },
      "PriceProvidersRepositoryUpdate(address,address)": {
        "notice": "Emitted on price provider repository address update"
      },
      "RegisterSiloVersion(address,uint128,uint128)": {
        "notice": "Emitted when new Silo version is registered"
      },
      "RouterUpdate(address,address)": {
        "notice": "Emitted on router address update"
      },
      "SiloDefaultVersion(uint128,uint128)": {
        "notice": "Emitted when default Silo version is updated"
      },
      "SiloMaxDepositsLimitsUpdate(address,address,uint256)": {
        "notice": "Emitted when deposit liquidity limit is changed for Silo and asset"
      },
      "SiloPause(address,address,bool)": {
        "notice": "Emitted when asingle Silo or single asset in a Silo is paused or unpaused"
      },
      "TokensFactoryUpdate(address,address)": {
        "notice": "Emitted on token factory address update"
      },
      "UnregisterSiloVersion(address,uint128)": {
        "notice": "Emitted when Silo version is unregistered"
      }
    },
    "kind": "user",
    "methods": {
      "addBridgeAsset(address)": {
        "notice": "Adds new bridge asset"
      },
      "getBridgeAssets()": {
        "notice": "Get current bridge assets"
      },
      "getInterestRateModel(address,address)": {
        "notice": "Get Interest Rate Model address for asset in given Silo"
      },
      "getLiquidationThreshold(address,address)": {
        "notice": "Get liquidation threshold for asset in given Silo"
      },
      "getMaxSiloDeposits(address,address)": {
        "notice": "Gets deposit limit for Silo"
      },
      "getMaximumLTV(address,address)": {
        "notice": "Get maximum LTV for asset in given Silo"
      },
      "getRemovedBridgeAssets()": {
        "notice": "Get removed bridge assets"
      },
      "isSilo(address)": {
        "notice": "Check if contract address is a Silo deployment"
      },
      "isSiloPaused(address,address)": {
        "notice": "Check given asset in a Silo is paused"
      },
      "newSilo(address,uint128,bytes)": {
        "notice": "use this method only when off-chain verification is OFF"
      },
      "owner()": {
        "notice": "Get owner role address of Repository"
      },
      "registerSiloVersion(address,bool)": {
        "notice": "Registers new Silo version"
      },
      "removeBridgeAsset(address)": {
        "notice": "Removes bridge asset"
      },
      "replaceSilo(address,uint128,bytes)": {
        "notice": "use this method to deploy new version of Silo for an asset that already has Silo deployed. Only owner (DAO) can replace."
      },
      "setAssetConfig(address,address,(uint64,uint64,address))": {
        "notice": "Set configuration for given asset in given Silo"
      },
      "setDefaultInterestRateModel(address)": {
        "notice": "Set default interest rate model"
      },
      "setDefaultLiquidationThreshold(uint64)": {
        "notice": "Set default liquidation threshold"
      },
      "setDefaultMaximumLTV(uint64)": {
        "notice": "Set default maximum LTV"
      },
      "setDefaultSiloMaxDepositsLimit(uint256)": {
        "notice": "Sets default deposit limit for all Silos"
      },
      "setDefaultSiloVersion(uint128)": {
        "notice": "Set default Silo version"
      },
      "setFees((uint64,uint64,uint64))": {
        "notice": "Set default fees"
      },
      "setGlobalPause(bool)": {
        "notice": "Pause all Silos"
      },
      "setNotificationReceiver(address,address)": {
        "notice": "Set NotificationReceiver contract"
      },
      "setPriceProvidersRepository(address)": {
        "notice": "Set price provider repository"
      },
      "setRouter(address)": {
        "notice": "Set router contract"
      },
      "setSiloMaxDepositsLimit(address,address,uint256)": {
        "notice": "Sets deposit limit for Silo"
      },
      "setSiloPause(address,address,bool)": {
        "notice": "Pause single asset in a single Silo"
      },
      "setTokensFactory(address)": {
        "notice": "Set factory contract for debt and collateral tokens for each Silo asset"
      },
      "toggleLimitedMaxLiquidity()": {
        "notice": "Switch to turn on and off limited liquidity"
      },
      "unregisterSiloVersion(uint128)": {
        "notice": "Unregisters Silo version"
      }
    },
    "notice": "SiloRepository handles the creation and configuration of Silos.",
    "version": 1
  },
  "storageLayout": {
    "storage": [
      {
        "astId": 22162,
        "contract": "contracts/SiloRepository.sol:SiloRepository",
        "label": "_owner",
        "offset": 0,
        "slot": "0",
        "type": "t_address"
      },
      {
        "astId": 22165,
        "contract": "contracts/SiloRepository.sol:SiloRepository",
        "label": "_pendingOwner",
        "offset": 0,
        "slot": "1",
        "type": "t_address"
      },
      {
        "astId": 21431,
        "contract": "contracts/SiloRepository.sol:SiloRepository",
        "label": "maxLiquidity",
        "offset": 0,
        "slot": "2",
        "type": "t_struct(MaxLiquidityLimit)16006_storage"
      },
      {
        "astId": 21435,
        "contract": "contracts/SiloRepository.sol:SiloRepository",
        "label": "isPaused",
        "offset": 0,
        "slot": "5",
        "type": "t_struct(Paused)16016_storage"
      },
      {
        "astId": 13032,
        "contract": "contracts/SiloRepository.sol:SiloRepository",
        "label": "defaultAssetConfig",
        "offset": 0,
        "slot": "7",
        "type": "t_struct(AssetConfig)16619_storage"
      },
      {
        "astId": 13036,
        "contract": "contracts/SiloRepository.sol:SiloRepository",
        "label": "_bridgeAssets",
        "offset": 0,
        "slot": "9",
        "type": "t_struct(AddressSet)7290_storage"
      },
      {
        "astId": 13040,
        "contract": "contracts/SiloRepository.sol:SiloRepository",
        "label": "_removedBridgeAssets",
        "offset": 0,
        "slot": "11",
        "type": "t_struct(AddressSet)7290_storage"
      },
      {
        "astId": 13043,
        "contract": "contracts/SiloRepository.sol:SiloRepository",
        "label": "fees",
        "offset": 0,
        "slot": "13",
        "type": "t_struct(Fees)16601_storage"
      },
      {
        "astId": 13048,
        "contract": "contracts/SiloRepository.sol:SiloRepository",
        "label": "tokensFactory",
        "offset": 0,
        "slot": "14",
        "type": "t_contract(ITokensFactory)17059"
      },
      {
        "astId": 13053,
        "contract": "contracts/SiloRepository.sol:SiloRepository",
        "label": "priceProvidersRepository",
        "offset": 0,
        "slot": "15",
        "type": "t_contract(IPriceProvidersRepository)16398"
      },
      {
        "astId": 13057,
        "contract": "contracts/SiloRepository.sol:SiloRepository",
        "label": "router",
        "offset": 0,
        "slot": "16",
        "type": "t_address"
      },
      {
        "astId": 13060,
        "contract": "contracts/SiloRepository.sol:SiloRepository",
        "label": "bridgePool",
        "offset": 0,
        "slot": "17",
        "type": "t_address"
      },
      {
        "astId": 13067,
        "contract": "contracts/SiloRepository.sol:SiloRepository",
        "label": "getNotificationReceiver",
        "offset": 0,
        "slot": "18",
        "type": "t_mapping(t_address,t_contract(INotificationReceiver)16254)"
      },
      {
        "astId": 13070,
        "contract": "contracts/SiloRepository.sol:SiloRepository",
        "label": "siloVersion",
        "offset": 0,
        "slot": "19",
        "type": "t_struct(SiloVersion)16608_storage"
      },
      {
        "astId": 13077,
        "contract": "contracts/SiloRepository.sol:SiloRepository",
        "label": "siloFactory",
        "offset": 0,
        "slot": "20",
        "type": "t_mapping(t_uint256,t_contract(ISiloFactory)16584)"
      },
      {
        "astId": 13083,
        "contract": "contracts/SiloRepository.sol:SiloRepository",
        "label": "getSilo",
        "offset": 0,
        "slot": "21",
        "type": "t_mapping(t_address,t_address)"
      },
      {
        "astId": 13088,
        "contract": "contracts/SiloRepository.sol:SiloRepository",
        "label": "siloReverse",
        "offset": 0,
        "slot": "22",
        "type": "t_mapping(t_address,t_address)"
      },
      {
        "astId": 13096,
        "contract": "contracts/SiloRepository.sol:SiloRepository",
        "label": "assetConfigs",
        "offset": 0,
        "slot": "23",
        "type": "t_mapping(t_address,t_mapping(t_address,t_struct(AssetConfig)16619_storage))"
      }
    ],
    "types": {
      "t_address": {
        "encoding": "inplace",
        "label": "address",
        "numberOfBytes": "20"
      },
      "t_array(t_bytes32)dyn_storage": {
        "base": "t_bytes32",
        "encoding": "dynamic_array",
        "label": "bytes32[]",
        "numberOfBytes": "32"
      },
      "t_bool": {
        "encoding": "inplace",
        "label": "bool",
        "numberOfBytes": "1"
      },
      "t_bytes32": {
        "encoding": "inplace",
        "label": "bytes32",
        "numberOfBytes": "32"
      },
      "t_contract(IInterestRateModel)16232": {
        "encoding": "inplace",
        "label": "contract IInterestRateModel",
        "numberOfBytes": "20"
      },
      "t_contract(INotificationReceiver)16254": {
        "encoding": "inplace",
        "label": "contract INotificationReceiver",
        "numberOfBytes": "20"
      },
      "t_contract(IPriceProvidersRepository)16398": {
        "encoding": "inplace",
        "label": "contract IPriceProvidersRepository",
        "numberOfBytes": "20"
      },
      "t_contract(ISiloFactory)16584": {
        "encoding": "inplace",
        "label": "contract ISiloFactory",
        "numberOfBytes": "20"
      },
      "t_contract(ITokensFactory)17059": {
        "encoding": "inplace",
        "label": "contract ITokensFactory",
        "numberOfBytes": "20"
      },
      "t_mapping(t_address,t_address)": {
        "encoding": "mapping",
        "key": "t_address",
        "label": "mapping(address => address)",
        "numberOfBytes": "32",
        "value": "t_address"
      },
      "t_mapping(t_address,t_bool)": {
        "encoding": "mapping",
        "key": "t_address",
        "label": "mapping(address => bool)",
        "numberOfBytes": "32",
        "value": "t_bool"
      },
      "t_mapping(t_address,t_contract(INotificationReceiver)16254)": {
        "encoding": "mapping",
        "key": "t_address",
        "label": "mapping(address => contract INotificationReceiver)",
        "numberOfBytes": "32",
        "value": "t_contract(INotificationReceiver)16254"
      },
      "t_mapping(t_address,t_mapping(t_address,t_bool))": {
        "encoding": "mapping",
        "key": "t_address",
        "label": "mapping(address => mapping(address => bool))",
        "numberOfBytes": "32",
        "value": "t_mapping(t_address,t_bool)"
      },
      "t_mapping(t_address,t_mapping(t_address,t_struct(AssetConfig)16619_storage))": {
        "encoding": "mapping",
        "key": "t_address",
        "label": "mapping(address => mapping(address => struct ISiloRepository.AssetConfig))",
        "numberOfBytes": "32",
        "value": "t_mapping(t_address,t_struct(AssetConfig)16619_storage)"
      },
      "t_mapping(t_address,t_mapping(t_address,t_uint256))": {
        "encoding": "mapping",
        "key": "t_address",
        "label": "mapping(address => mapping(address => uint256))",
        "numberOfBytes": "32",
        "value": "t_mapping(t_address,t_uint256)"
      },
      "t_mapping(t_address,t_struct(AssetConfig)16619_storage)": {
        "encoding": "mapping",
        "key": "t_address",
        "label": "mapping(address => struct ISiloRepository.AssetConfig)",
        "numberOfBytes": "32",
        "value": "t_struct(AssetConfig)16619_storage"
      },
      "t_mapping(t_address,t_uint256)": {
        "encoding": "mapping",
        "key": "t_address",
        "label": "mapping(address => uint256)",
        "numberOfBytes": "32",
        "value": "t_uint256"
      },
      "t_mapping(t_bytes32,t_uint256)": {
        "encoding": "mapping",
        "key": "t_bytes32",
        "label": "mapping(bytes32 => uint256)",
        "numberOfBytes": "32",
        "value": "t_uint256"
      },
      "t_mapping(t_uint256,t_contract(ISiloFactory)16584)": {
        "encoding": "mapping",
        "key": "t_uint256",
        "label": "mapping(uint256 => contract ISiloFactory)",
        "numberOfBytes": "32",
        "value": "t_contract(ISiloFactory)16584"
      },
      "t_struct(AddressSet)7290_storage": {
        "encoding": "inplace",
        "label": "struct EnumerableSet.AddressSet",
        "members": [
          {
            "astId": 7289,
            "contract": "contracts/SiloRepository.sol:SiloRepository",
            "label": "_inner",
            "offset": 0,
            "slot": "0",
            "type": "t_struct(Set)6989_storage"
          }
        ],
        "numberOfBytes": "64"
      },
      "t_struct(AssetConfig)16619_storage": {
        "encoding": "inplace",
        "label": "struct ISiloRepository.AssetConfig",
        "members": [
          {
            "astId": 16611,
            "contract": "contracts/SiloRepository.sol:SiloRepository",
            "label": "maxLoanToValue",
            "offset": 0,
            "slot": "0",
            "type": "t_uint64"
          },
          {
            "astId": 16614,
            "contract": "contracts/SiloRepository.sol:SiloRepository",
            "label": "liquidationThreshold",
            "offset": 8,
            "slot": "0",
            "type": "t_uint64"
          },
          {
            "astId": 16618,
            "contract": "contracts/SiloRepository.sol:SiloRepository",
            "label": "interestRateModel",
            "offset": 0,
            "slot": "1",
            "type": "t_contract(IInterestRateModel)16232"
          }
        ],
        "numberOfBytes": "64"
      },
      "t_struct(Fees)16601_storage": {
        "encoding": "inplace",
        "label": "struct ISiloRepository.Fees",
        "members": [
          {
            "astId": 16594,
            "contract": "contracts/SiloRepository.sol:SiloRepository",
            "label": "entryFee",
            "offset": 0,
            "slot": "0",
            "type": "t_uint64"
          },
          {
            "astId": 16597,
            "contract": "contracts/SiloRepository.sol:SiloRepository",
            "label": "protocolShareFee",
            "offset": 8,
            "slot": "0",
            "type": "t_uint64"
          },
          {
            "astId": 16600,
            "contract": "contracts/SiloRepository.sol:SiloRepository",
            "label": "protocolLiquidationFee",
            "offset": 16,
            "slot": "0",
            "type": "t_uint64"
          }
        ],
        "numberOfBytes": "32"
      },
      "t_struct(MaxLiquidityLimit)16006_storage": {
        "encoding": "inplace",
        "label": "struct IGuardedLaunch.MaxLiquidityLimit",
        "members": [
          {
            "astId": 15995,
            "contract": "contracts/SiloRepository.sol:SiloRepository",
            "label": "globalToggle",
            "offset": 0,
            "slot": "0",
            "type": "t_bool"
          },
          {
            "astId": 15998,
            "contract": "contracts/SiloRepository.sol:SiloRepository",
            "label": "defaultMaxLiquidity",
            "offset": 0,
            "slot": "1",
            "type": "t_uint256"
          },
          {
            "astId": 16005,
            "contract": "contracts/SiloRepository.sol:SiloRepository",
            "label": "siloMaxLiquidity",
            "offset": 0,
            "slot": "2",
            "type": "t_mapping(t_address,t_mapping(t_address,t_uint256))"
          }
        ],
        "numberOfBytes": "96"
      },
      "t_struct(Paused)16016_storage": {
        "encoding": "inplace",
        "label": "struct IGuardedLaunch.Paused",
        "members": [
          {
            "astId": 16008,
            "contract": "contracts/SiloRepository.sol:SiloRepository",
            "label": "globalPause",
            "offset": 0,
            "slot": "0",
            "type": "t_bool"
          },
          {
            "astId": 16015,
            "contract": "contracts/SiloRepository.sol:SiloRepository",
            "label": "siloPause",
            "offset": 0,
            "slot": "1",
            "type": "t_mapping(t_address,t_mapping(t_address,t_bool))"
          }
        ],
        "numberOfBytes": "64"
      },
      "t_struct(Set)6989_storage": {
        "encoding": "inplace",
        "label": "struct EnumerableSet.Set",
        "members": [
          {
            "astId": 6984,
            "contract": "contracts/SiloRepository.sol:SiloRepository",
            "label": "_values",
            "offset": 0,
            "slot": "0",
            "type": "t_array(t_bytes32)dyn_storage"
          },
          {
            "astId": 6988,
            "contract": "contracts/SiloRepository.sol:SiloRepository",
            "label": "_indexes",
            "offset": 0,
            "slot": "1",
            "type": "t_mapping(t_bytes32,t_uint256)"
          }
        ],
        "numberOfBytes": "64"
      },
      "t_struct(SiloVersion)16608_storage": {
        "encoding": "inplace",
        "label": "struct ISiloRepository.SiloVersion",
        "members": [
          {
            "astId": 16604,
            "contract": "contracts/SiloRepository.sol:SiloRepository",
            "label": "byDefault",
            "offset": 0,
            "slot": "0",
            "type": "t_uint128"
          },
          {
            "astId": 16607,
            "contract": "contracts/SiloRepository.sol:SiloRepository",
            "label": "latest",
            "offset": 16,
            "slot": "0",
            "type": "t_uint128"
          }
        ],
        "numberOfBytes": "32"
      },
      "t_uint128": {
        "encoding": "inplace",
        "label": "uint128",
        "numberOfBytes": "16"
      },
      "t_uint256": {
        "encoding": "inplace",
        "label": "uint256",
        "numberOfBytes": "32"
      },
      "t_uint64": {
        "encoding": "inplace",
        "label": "uint64",
        "numberOfBytes": "8"
      }
    }
  }
}