{
  "address": "0x7FA084a45a6b8A1Ab058e5BA5B01f2Cfb9b26636",
  "abi": [
    {
      "inputs": [
        {
          "internalType": "contract IWrappedToken",
          "name": "_wrappedToken",
          "type": "address"
        }
      ],
      "stateMutability": "nonpayable",
      "type": "constructor"
    },
    {
      "inputs": [
        {
          "components": [
            {
              "internalType": "enum SiloRouter.ActionType",
              "name": "actionType",
              "type": "uint8"
            },
            {
              "internalType": "address",
              "name": "silo",
              "type": "address"
            },
            {
              "internalType": "address",
              "name": "asset",
              "type": "address"
            },
            {
              "internalType": "uint256",
              "name": "amount",
              "type": "uint256"
            },
            {
              "internalType": "bool",
              "name": "collateralOnly",
              "type": "bool"
            }
          ],
          "internalType": "struct SiloRouter.Action[]",
          "name": "_actions",
          "type": "tuple[]"
        }
      ],
      "name": "borrow",
      "outputs": [],
      "stateMutability": "payable",
      "type": "function"
    },
    {
      "inputs": [],
      "name": "wrappedToken",
      "outputs": [
        {
          "internalType": "contract IWrappedToken",
          "name": "",
          "type": "address"
        }
      ],
      "stateMutability": "view",
      "type": "function"
    },
    {
      "stateMutability": "payable",
      "type": "receive"
    }
  ],
  "transactionHash": "0x94a2f52061db2e75cb61802a238cbb230d840349eb32473184b0319b072bd68c",
  "args": [
    "0x1e980cd6eAeB53ed7e1AA3e8B24f25e1d84b65e1"
  ],
  "numDeployments": 1,
  "solcInputHash": "513d71c9d0c126d5b4efd168466082e1",
  "bytecode": "0x60a060405234801561001057600080fd5b50604051610cbb380380610cbb83398101604081905261002f91610044565b60601b6001600160601b031916608052610074565b60006020828403121561005657600080fd5b81516001600160a01b038116811461006d57600080fd5b9392505050565b60805160601c610c0e6100ad60003960008181604b015281816103b101528181610450015281816104c401526105120152610c0e6000f3fe60806040526004361061002d5760003560e01c8063996c6cc314610039578063fc298a151461008957600080fd5b3661003457005b600080fd5b34801561004557600080fd5b5061006d7f000000000000000000000000000000000000000000000000000000000000000081565b6040516001600160a01b03909116815260200160405180910390f35b61009c610097366004610936565b61009e565b005b805160005b818110156100f2576100e08382815181106100c0576100c0610b9b565b6020026020010151826000146001856100d99190610b11565b84146100f7565b806100ea81610b54565b9150506100a3565b505050565b60008351600381111561010c5761010c610b85565b14156101b657811561012a5761012a836040015184606001516103af565b602083015160408085015160608601516080870151925163fbf178db60e01b81526001600160a01b039283166004820152336024820152604481019190915291151560648301529091169063fbf178db906084015b600060405180830381600087803b15801561019957600080fd5b505af11580156101ad573d6000803e3d6000fd5b50505050505050565b6001835160038111156101cb576101cb610b85565b1415610276576020830151604080850151606086015160808701519251633cd9060760e21b81526001600160a01b039283166004820152336024820152306044820152606481019190915291151560848301529091169063f364181c9060a4015b600060405180830381600087803b15801561024657600080fd5b505af115801561025a573d6000803e3d6000fd5b5050505080156100f2576100f2836040015184606001516104c2565b60028351600381111561028b5761028b610b85565b14156102e35760208301516040808501516060860151915163dbc5b48160e01b81526001600160a01b03918216600482015233602482015230604482015260648101929092529091169063dbc5b4819060840161022c565b6003835160038111156102f8576102f8610b85565b141561036257811561031657610316836040015184606001516103af565b60208301516040808501516060860151915163976ce49560e01b81526001600160a01b03918216600482015233602482015260448101929092529091169063976ce4959060640161017f565b60405162461bcd60e51b815260206004820152601e60248201527f53696c6f526f757465723a20756e737570706f7274656420616374696f6e000060448201526064015b60405180910390fd5b7f00000000000000000000000000000000000000000000000000000000000000006001600160a01b0316826001600160a01b03161480156103f05750600034115b156104a95780341461044e5760405162461bcd60e51b815260206004820152602160248201527f53696c6f526f757465723a20696e636f72726563742061737365742076616c756044820152606560f81b60648201526084016103a6565b7f00000000000000000000000000000000000000000000000000000000000000006001600160a01b031663d0e30db0346040518263ffffffff1660e01b81526004016000604051808303818588803b15801561019957600080fd5b6104be6001600160a01b03831633308461062d565b5050565b7f00000000000000000000000000000000000000000000000000000000000000006001600160a01b0316826001600160a01b0316141561061957604051632e1a7d4d60e01b8152600481018290527f00000000000000000000000000000000000000000000000000000000000000006001600160a01b031690632e1a7d4d90602401600060405180830381600087803b15801561055e57600080fd5b505af1158015610572573d6000803e3d6000fd5b50506040516000925033915083908381818185875af1925050503d80600081146105b8576040519150601f19603f3d011682016040523d82523d6000602084013e6105bd565b606091505b50509050806100f25760405162461bcd60e51b815260206004820152602260248201527f53696c6f526f757465723a206173736574207472616e73666572206661696c65604482015261321760f11b60648201526084016103a6565b6104be6001600160a01b038316338361069e565b6040516001600160a01b03808516602483015283166044820152606481018290526106989085906323b872dd60e01b906084015b60408051601f198184030181529190526020810180516001600160e01b03166001600160e01b0319909316929092179091526106ce565b50505050565b6040516001600160a01b0383166024820152604481018290526100f290849063a9059cbb60e01b90606401610661565b6000610723826040518060400160405280602081526020017f5361666545524332303a206c6f772d6c6576656c2063616c6c206661696c6564815250856001600160a01b03166107a09092919063ffffffff16565b8051909150156100f257808060200190518101906107419190610a4b565b6100f25760405162461bcd60e51b815260206004820152602a60248201527f5361666545524332303a204552433230206f7065726174696f6e20646964206e6044820152691bdd081cdd58d8d9595960b21b60648201526084016103a6565b60606107af84846000856107b9565b90505b9392505050565b60608247101561081a5760405162461bcd60e51b815260206004820152602660248201527f416464726573733a20696e73756666696369656e742062616c616e636520666f6044820152651c8818d85b1b60d21b60648201526084016103a6565b843b6108685760405162461bcd60e51b815260206004820152601d60248201527f416464726573733a2063616c6c20746f206e6f6e2d636f6e747261637400000060448201526064016103a6565b600080866001600160a01b031685876040516108849190610a68565b60006040518083038185875af1925050503d80600081146108c1576040519150601f19603f3d011682016040523d82523d6000602084013e6108c6565b606091505b50915091506108d68282866108e1565b979650505050505050565b606083156108f05750816107b2565b8251156109005782518084602001fd5b8160405162461bcd60e51b81526004016103a69190610a84565b80356001600160a01b038116811461093157600080fd5b919050565b6000602080838503121561094957600080fd5b823567ffffffffffffffff8082111561096157600080fd5b818501915085601f83011261097557600080fd5b81358181111561098757610987610bb1565b610995848260051b01610ae0565b818152848101925083850160a0808402860187018a10156109b557600080fd5b600095505b83861015610a3d5780828b0312156109d157600080fd5b6109d9610ab7565b8235600481106109e857600080fd5b81526109f583890161091a565b888201526040610a0681850161091a565b9082015260608381013590820152608080840135610a2381610bc7565b9082015285526001959095019493860193908101906109ba565b509098975050505050505050565b600060208284031215610a5d57600080fd5b81516107b281610bc7565b60008251610a7a818460208701610b28565b9190910192915050565b6020815260008251806020840152610aa3816040850160208701610b28565b601f01601f19169190910160400192915050565b60405160a0810167ffffffffffffffff81118282101715610ada57610ada610bb1565b60405290565b604051601f8201601f1916810167ffffffffffffffff81118282101715610b0957610b09610bb1565b604052919050565b600082821015610b2357610b23610b6f565b500390565b60005b83811015610b43578181015183820152602001610b2b565b838111156106985750506000910152565b6000600019821415610b6857610b68610b6f565b5060010190565b634e487b7160e01b600052601160045260246000fd5b634e487b7160e01b600052602160045260246000fd5b634e487b7160e01b600052603260045260246000fd5b634e487b7160e01b600052604160045260246000fd5b8015158114610bd557600080fd5b5056fea26469706673582212202255f63158906d7d61966b8e56e37d4c18793d8f03a4468d67422d87b34fef0964736f6c63430008070033",
  "devdoc": {
    "kind": "dev",
    "methods": {},
    "version": 1
  },
  "userdoc": {
    "kind": "user",
    "methods": {},
    "version": 1
  },
  "storageLayout": {
    "storage": [],
    "types": null
  }
}