{
  "address": "0x5081a39b8A5f0E35a8D959395a630b68B74Dd30f",
  "abi": [
    {
      "inputs": [
        {
          "internalType": "address",
          "name": "_quoteToken",
          "type": "address"
        }
      ],
      "stateMutability": "nonpayable",
      "type": "constructor"
    },
    {
      "inputs": [
        {
          "internalType": "address",
          "name": "_asset",
          "type": "address"
        }
      ],
      "name": "getPrice",
      "outputs": [
        {
          "internalType": "uint256",
          "name": "",
          "type": "uint256"
        }
      ],
      "stateMutability": "nonpayable",
      "type": "function"
    },
    {
      "inputs": [
        {
          "internalType": "address",
          "name": "",
          "type": "address"
        }
      ],
      "name": "getPriceStatic",
      "outputs": [
        {
          "internalType": "uint256",
          "name": "",
          "type": "uint256"
        }
      ],
      "stateMutability": "view",
      "type": "function"
    },
    {
      "inputs": [
        {
          "internalType": "address",
          "name": "_asset",
          "type": "address"
        }
      ],
      "name": "getQuoteLiquidity",
      "outputs": [
        {
          "internalType": "uint256",
          "name": "",
          "type": "uint256"
        }
      ],
      "stateMutability": "view",
      "type": "function"
    },
    {
      "inputs": [
        {
          "internalType": "address",
          "name": "",
          "type": "address"
        },
        {
          "internalType": "bytes",
          "name": "",
          "type": "bytes"
        }
      ],
      "name": "initAsset",
      "outputs": [],
      "stateMutability": "nonpayable",
      "type": "function"
    },
    {
      "inputs": [],
      "name": "isSiloOracle",
      "outputs": [
        {
          "internalType": "bool",
          "name": "",
          "type": "bool"
        }
      ],
      "stateMutability": "pure",
      "type": "function"
    },
    {
      "inputs": [
        {
          "internalType": "address",
          "name": "",
          "type": "address"
        }
      ],
      "name": "liquidity",
      "outputs": [
        {
          "internalType": "uint256",
          "name": "",
          "type": "uint256"
        }
      ],
      "stateMutability": "view",
      "type": "function"
    },
    {
      "inputs": [
        {
          "internalType": "address",
          "name": "",
          "type": "address"
        }
      ],
      "name": "prices",
      "outputs": [
        {
          "internalType": "uint256",
          "name": "",
          "type": "uint256"
        }
      ],
      "stateMutability": "view",
      "type": "function"
    },
    {
      "inputs": [],
      "name": "quoteToken",
      "outputs": [
        {
          "internalType": "address",
          "name": "",
          "type": "address"
        }
      ],
      "stateMutability": "view",
      "type": "function"
    },
    {
      "inputs": [
        {
          "internalType": "address",
          "name": "_asset",
          "type": "address"
        },
        {
          "internalType": "uint256",
          "name": "_liquidity",
          "type": "uint256"
        }
      ],
      "name": "setLiquidity",
      "outputs": [],
      "stateMutability": "nonpayable",
      "type": "function"
    },
    {
      "inputs": [
        {
          "internalType": "address",
          "name": "_asset",
          "type": "address"
        },
        {
          "internalType": "uint256",
          "name": "_price",
          "type": "uint256"
        }
      ],
      "name": "setPrice",
      "outputs": [],
      "stateMutability": "nonpayable",
      "type": "function"
    }
  ],
  "transactionHash": "0xd20ff9f9745f36b0110e374e014ededc7690c3e6234ac8b3724f1558fdbde7d4",
  "args": [
    "0xC02aaA39b223FE8D0A0e5C4F27eAD9083C756Cc2"
  ],
  "solcInputHash": "8a9cd509177f2bd629d83e6ee7cccbe4",
  "bytecode": "0x60a060405234801561001057600080fd5b5060405161045338038061045383398101604081905261002f916100a0565b806001600160a01b03811661008a5760405162461bcd60e51b815260206004820152601860248201527f4f7261636c653a20656d7074792071756f7465546f6b656e0000000000000000604482015260640160405180910390fd5b60601b6001600160601b031916608052506100d0565b6000602082840312156100b257600080fd5b81516001600160a01b03811681146100c957600080fd5b9392505050565b60805160601c6103666100ed600039600060d301526103666000f3fe608060405234801561001057600080fd5b506004361061009d5760003560e01c80635e3263fb116100665780635e3263fb14610185578063b8c876b114610198578063cfed246b146101b8578063ecdcb0ff146101d8578063f4069cba146100a257600080fd5b8062e4768b146100a2578063217a4b70146100ce5780632f04d5841461011257806341976e09146101335780635c55f8e81461015c575b600080fd5b6100cc6100b0366004610306565b6001600160a01b03909116600090815260208190526040902055565b005b6100f57f000000000000000000000000000000000000000000000000000000000000000081565b6040516001600160a01b0390911681526020015b60405180910390f35b610125610120366004610261565b6101e7565b604051908152602001610109565b610125610141366004610261565b6001600160a01b031660009081526020819052604090205490565b61012561016a366004610261565b6001600160a01b031660009081526001602052604090205490565b6100cc610193366004610283565b505050565b6101256101a6366004610261565b60016020526000908152604090205481565b6101256101c6366004610261565b60006020819052908152604090205481565b60405160018152602001610109565b60405162461bcd60e51b815260206004820152602660248201527f4f7261636c653a206765745072696365537461746963206e6f7420696d706c656044820152651b595b9d195960d21b606482015260009060840160405180910390fd5b80356001600160a01b038116811461025c57600080fd5b919050565b60006020828403121561027357600080fd5b61027c82610245565b9392505050565b60008060006040848603121561029857600080fd5b6102a184610245565b9250602084013567ffffffffffffffff808211156102be57600080fd5b818601915086601f8301126102d257600080fd5b8135818111156102e157600080fd5b8760208285010111156102f357600080fd5b6020830194508093505050509250925092565b6000806040838503121561031957600080fd5b61032283610245565b94602093909301359350505056fea264697066735822122068ac07203f3636c4452aee388ac52e56100c74dc024c58df0698508bd574c71764736f6c63430008070033",
  "devdoc": {
    "kind": "dev",
    "methods": {},
    "version": 1
  },
  "userdoc": {
    "kind": "user",
    "methods": {},
    "version": 1
  },
  "storageLayout": {
    "storage": [
      {
        "astId": 8182,
        "contract": "contracts/mock/MockOracle.sol:MockOracle",
        "label": "prices",
        "offset": 0,
        "slot": "0",
        "type": "t_mapping(t_address,t_uint256)"
      },
      {
        "astId": 8186,
        "contract": "contracts/mock/MockOracle.sol:MockOracle",
        "label": "liquidity",
        "offset": 0,
        "slot": "1",
        "type": "t_mapping(t_address,t_uint256)"
      }
    ],
    "types": {
      "t_address": {
        "encoding": "inplace",
        "label": "address",
        "numberOfBytes": "20"
      },
      "t_mapping(t_address,t_uint256)": {
        "encoding": "mapping",
        "key": "t_address",
        "label": "mapping(address => uint256)",
        "numberOfBytes": "32",
        "value": "t_uint256"
      },
      "t_uint256": {
        "encoding": "inplace",
        "label": "uint256",
        "numberOfBytes": "32"
      }
    }
  }
}