{
  "address": "0xa29eb4ed7A9F55aD0aC4D2fECEAE0b4aB5f01FB5",
  "abi": [
    {
      "inputs": [
        {
          "internalType": "address",
          "name": "_balancerVault",
          "type": "address"
        }
      ],
      "stateMutability": "nonpayable",
      "type": "constructor"
    },
    {
      "inputs": [],
      "name": "ASSETS_POOLS_SELECTOR",
      "outputs": [
        {
          "internalType": "bytes4",
          "name": "",
          "type": "bytes4"
        }
      ],
      "stateMutability": "view",
      "type": "function"
    },
    {
      "inputs": [
        {
          "internalType": "address",
          "name": "_oracle",
          "type": "address"
        },
        {
          "internalType": "address",
          "name": "_asset",
          "type": "address"
        }
      ],
      "name": "resolvePoolId",
      "outputs": [
        {
          "internalType": "bytes32",
          "name": "poolId",
          "type": "bytes32"
        }
      ],
      "stateMutability": "view",
      "type": "function"
    },
    {
      "inputs": [],
      "name": "spenderToApprove",
      "outputs": [
        {
          "internalType": "address",
          "name": "",
          "type": "address"
        }
      ],
      "stateMutability": "view",
      "type": "function"
    },
    {
      "inputs": [
        {
          "internalType": "address",
          "name": "_tokenIn",
          "type": "address"
        },
        {
          "internalType": "address",
          "name": "_tokenOut",
          "type": "address"
        },
        {
          "internalType": "uint256",
          "name": "_amount",
          "type": "uint256"
        },
        {
          "internalType": "address",
          "name": "_siloOracle",
          "type": "address"
        },
        {
          "internalType": "address",
          "name": "_siloAsset",
          "type": "address"
        }
      ],
      "name": "swapAmountIn",
      "outputs": [
        {
          "internalType": "uint256",
          "name": "amountOut",
          "type": "uint256"
        }
      ],
      "stateMutability": "nonpayable",
      "type": "function"
    },
    {
      "inputs": [
        {
          "internalType": "address",
          "name": "_tokenIn",
          "type": "address"
        },
        {
          "internalType": "address",
          "name": "_tokenOut",
          "type": "address"
        },
        {
          "internalType": "uint256",
          "name": "_amountOut",
          "type": "uint256"
        },
        {
          "internalType": "address",
          "name": "_siloOracle",
          "type": "address"
        },
        {
          "internalType": "address",
          "name": "_siloAsset",
          "type": "address"
        }
      ],
      "name": "swapAmountOut",
      "outputs": [
        {
          "internalType": "uint256",
          "name": "amountIn",
          "type": "uint256"
        }
      ],
      "stateMutability": "nonpayable",
      "type": "function"
    },
    {
      "inputs": [],
      "name": "vault",
      "outputs": [
        {
          "internalType": "contract IVault",
          "name": "",
          "type": "address"
        }
      ],
      "stateMutability": "view",
      "type": "function"
    }
  ],
  "transactionHash": "0x2594d505823dbaf951ec64b5af1042ce762b767338caca335aa9ba8811e941f6",
  "args": [
    "0xBA12222222228d8Ba445958a75a0704d566BF2C8"
  ],
  "numDeployments": 1,
  "solcInputHash": "cfc5771c58e6646dfc637dc0f94fcabb",
  "bytecode": "0x60a060405234801561001057600080fd5b5060405161087938038061087983398101604081905261002f91610044565b60601b6001600160601b031916608052610072565b600060208284031215610055578081fd5b81516001600160a01b038116811461006b578182fd5b9392505050565b60805160601c6107db61009e6000398061026152806102855280610344528061048652506107db6000f3fe608060405234801561001057600080fd5b50600436106100625760003560e01c8063168c66b41461006757806356a6f68514610090578063570421e5146100a35780639cffaf6f146100b8578063db36eb2e146100cb578063fbfa77cf146100e0575b600080fd5b61007a61007536600461050f565b6100e8565b60405161008791906106db565b60405180910390f35b61007a61009e3660046104d7565b61010e565b6100ab610220565b60405161008791906106e4565b61007a6100c636600461050f565b610244565b6100d361025f565b60405161008791906106c7565b6100d3610283565b6000806100f5848461010e565b9050610103878787846102a7565b979650505050505050565b6000807f7e2ffad5a0cf814683346fbb41a5864881a4fa97df309f612de87ae2b5d8bbcc8360405160240161014391906106c7565b604051602081830303815290604052906001600160e01b0319166020820180516001600160e01b0383818316178352505050509050600080856001600160a01b03168360405161019391906106ab565b600060405180830381855afa9150503d80600081146101ce576040519150601f19603f3d011682016040523d82523d6000602084013e6101d3565b606091505b5091509150816101fe5760405162461bcd60e51b81526004016101f5906106f9565b60405180910390fd5b6000818060200190518101906102149190610576565b51979650505050505050565b7f7e2ffad5a0cf814683346fbb41a5864881a4fa97df309f612de87ae2b5d8bbcc81565b600080610251848461010e565b9050610103878787846103e8565b7f000000000000000000000000000000000000000000000000000000000000000090565b7f000000000000000000000000000000000000000000000000000000000000000081565b6000806040518060c001604052808481526020016001808111156102c757fe5b8152602001876001600160a01b03168152602001866001600160a01b0316815260200185815260200160405180602001604052806000815250815250905060006040518060800160405280306001600160a01b03168152602001600015158152602001306001600160a01b031681526020016000151581525090507f00000000000000000000000000000000000000000000000000000000000000006001600160a01b03166352bbbe298383600019426040518563ffffffff1660e01b81526004016103969493929190610729565b602060405180830381600087803b1580156103b057600080fd5b505af11580156103c4573d6000803e3d6000fd5b505050506040513d601f19601f8201168201806040525081019061010391906105dc565b6000806040518060c001604052808481526020016000600181111561040957fe5b8152602001876001600160a01b03168152602001866001600160a01b0316815260200185815260200160405180602001604052806000815250815250905060006040518060800160405280306001600160a01b03168152602001600015158152602001306001600160a01b031681526020016000151581525090507f00000000000000000000000000000000000000000000000000000000000000006001600160a01b03166352bbbe2983836001426040518563ffffffff1660e01b81526004016103969493929190610729565b600080604083850312156104e9578182fd5b82356104f48161078d565b915060208301356105048161078d565b809150509250929050565b600080600080600060a08688031215610526578081fd5b85356105318161078d565b945060208601356105418161078d565b93506040860135925060608601356105588161078d565b915060808601356105688161078d565b809150509295509295909350565b600060608284031215610587578081fd5b6040516060810181811067ffffffffffffffff821117156105a457fe5b6040528251815260208301516105b98161078d565b6020820152604083015180151581146105d0578283fd5b60408201529392505050565b6000602082840312156105ed578081fd5b5051919050565b80516001600160a01b039081168352602080830151151590840152604080830151909116908301526060908101511515910152565b60008151835260208201516002811061063e57fe5b80602085015250604082015160018060a01b03808216604086015280606085015116606086015250506080820151608084015260a082015160c060a085015280518060c08601526106968160e087016020850161075d565b601f01601f19169390930160e0019392505050565b600082516106bd81846020870161075d565b9190910192915050565b6001600160a01b0391909116815260200190565b90815260200190565b6001600160e01b031991909116815260200190565b6020808252601690820152751c1bdbdb08199bdc88185cdcd95d081b9bdd081cd95d60521b604082015260600190565b600060e0825261073c60e0830187610629565b905061074b60208301866105f4565b60a082019390935260c0015292915050565b60005b83811015610778578181015183820152602001610760565b83811115610787576000848401525b50505050565b6001600160a01b03811681146107a257600080fd5b5056fea2646970667358221220637f580faffb8bfc4588fbd94f726d3c7ff01a03c237bfefa4ffc3f57be9c92764736f6c63430007060033",
  "devdoc": {
    "kind": "dev",
    "methods": {
      "spenderToApprove()": {
        "returns": {
          "_0": "address that needs to have approval to spend tokens to execute a swap"
        }
      },
      "swapAmountIn(address,address,uint256,address,address)": {
        "details": "swaps `_amountIn` of `_tokenIn` for `_tokenOut`. It might require approvals.",
        "returns": {
          "amountOut": "amount of _tokenOut received"
        }
      },
      "swapAmountOut(address,address,uint256,address,address)": {
        "details": "swaps `_tokenIn` for `_amountOut` of  `_tokenOut`. It might require approvals",
        "returns": {
          "amountIn": "amount of _tokenIn spend"
        }
      }
    },
    "version": 1
  },
  "userdoc": {
    "kind": "user",
    "methods": {},
    "version": 1
  },
  "storageLayout": {
    "storage": [],
    "types": null
  }
}