{
  "address": "0xEAA245128085913C220f5DC1D4494dF627F2568f",
  "abi": [
    {
      "inputs": [
        {
          "internalType": "address",
          "name": "_quoteToken",
          "type": "address"
        },
        {
          "internalType": "address",
          "name": "_siloRepository",
          "type": "address"
        }
      ],
      "stateMutability": "nonpayable",
      "type": "constructor"
    },
    {
      "anonymous": false,
      "inputs": [
        {
          "indexed": false,
          "internalType": "address",
          "name": "manager",
          "type": "address"
        }
      ],
      "name": "ManagerChanged",
      "type": "event"
    },
    {
      "anonymous": false,
      "inputs": [
        {
          "indexed": false,
          "internalType": "contract IPriceProvider",
          "name": "newPriceProvider",
          "type": "address"
        }
      ],
      "name": "NewPriceProvider",
      "type": "event"
    },
    {
      "anonymous": false,
      "inputs": [
        {
          "indexed": true,
          "internalType": "address",
          "name": "previousOwner",
          "type": "address"
        },
        {
          "indexed": true,
          "internalType": "address",
          "name": "newOwner",
          "type": "address"
        }
      ],
      "name": "OwnershipPending",
      "type": "event"
    },
    {
      "anonymous": false,
      "inputs": [
        {
          "indexed": true,
          "internalType": "address",
          "name": "previousOwner",
          "type": "address"
        },
        {
          "indexed": true,
          "internalType": "address",
          "name": "newOwner",
          "type": "address"
        }
      ],
      "name": "OwnershipTransferred",
      "type": "event"
    },
    {
      "anonymous": false,
      "inputs": [
        {
          "indexed": true,
          "internalType": "address",
          "name": "asset",
          "type": "address"
        },
        {
          "indexed": false,
          "internalType": "contract IPriceProvider",
          "name": "priceProvider",
          "type": "address"
        }
      ],
      "name": "PriceProviderForAsset",
      "type": "event"
    },
    {
      "anonymous": false,
      "inputs": [
        {
          "indexed": false,
          "internalType": "contract IPriceProvider",
          "name": "priceProvider",
          "type": "address"
        }
      ],
      "name": "PriceProviderRemoved",
      "type": "event"
    },
    {
      "inputs": [],
      "name": "acceptOwnership",
      "outputs": [],
      "stateMutability": "nonpayable",
      "type": "function"
    },
    {
      "inputs": [
        {
          "internalType": "contract IPriceProvider",
          "name": "_provider",
          "type": "address"
        }
      ],
      "name": "addPriceProvider",
      "outputs": [],
      "stateMutability": "nonpayable",
      "type": "function"
    },
    {
      "inputs": [
        {
          "internalType": "address",
          "name": "_manager",
          "type": "address"
        }
      ],
      "name": "changeManager",
      "outputs": [],
      "stateMutability": "nonpayable",
      "type": "function"
    },
    {
      "inputs": [
        {
          "internalType": "address",
          "name": "_asset",
          "type": "address"
        }
      ],
      "name": "getPrice",
      "outputs": [
        {
          "internalType": "uint256",
          "name": "",
          "type": "uint256"
        }
      ],
      "stateMutability": "view",
      "type": "function"
    },
    {
      "inputs": [
        {
          "internalType": "contract IPriceProvider",
          "name": "_provider",
          "type": "address"
        }
      ],
      "name": "isPriceProvider",
      "outputs": [
        {
          "internalType": "bool",
          "name": "",
          "type": "bool"
        }
      ],
      "stateMutability": "view",
      "type": "function"
    },
    {
      "inputs": [],
      "name": "manager",
      "outputs": [
        {
          "internalType": "address",
          "name": "",
          "type": "address"
        }
      ],
      "stateMutability": "view",
      "type": "function"
    },
    {
      "inputs": [],
      "name": "owner",
      "outputs": [
        {
          "internalType": "address",
          "name": "",
          "type": "address"
        }
      ],
      "stateMutability": "view",
      "type": "function"
    },
    {
      "inputs": [],
      "name": "pendingOwner",
      "outputs": [
        {
          "internalType": "address",
          "name": "",
          "type": "address"
        }
      ],
      "stateMutability": "view",
      "type": "function"
    },
    {
      "inputs": [
        {
          "internalType": "address",
          "name": "",
          "type": "address"
        }
      ],
      "name": "priceProviders",
      "outputs": [
        {
          "internalType": "contract IPriceProvider",
          "name": "",
          "type": "address"
        }
      ],
      "stateMutability": "view",
      "type": "function"
    },
    {
      "inputs": [],
      "name": "priceProvidersRepositoryPing",
      "outputs": [
        {
          "internalType": "bool",
          "name": "",
          "type": "bool"
        }
      ],
      "stateMutability": "pure",
      "type": "function"
    },
    {
      "inputs": [],
      "name": "providerList",
      "outputs": [
        {
          "internalType": "address[]",
          "name": "",
          "type": "address[]"
        }
      ],
      "stateMutability": "view",
      "type": "function"
    },
    {
      "inputs": [],
      "name": "providersCount",
      "outputs": [
        {
          "internalType": "uint256",
          "name": "",
          "type": "uint256"
        }
      ],
      "stateMutability": "view",
      "type": "function"
    },
    {
      "inputs": [
        {
          "internalType": "address",
          "name": "_asset",
          "type": "address"
        }
      ],
      "name": "providersReadyForAsset",
      "outputs": [
        {
          "internalType": "bool",
          "name": "",
          "type": "bool"
        }
      ],
      "stateMutability": "view",
      "type": "function"
    },
    {
      "inputs": [],
      "name": "quoteToken",
      "outputs": [
        {
          "internalType": "address",
          "name": "",
          "type": "address"
        }
      ],
      "stateMutability": "view",
      "type": "function"
    },
    {
      "inputs": [
        {
          "internalType": "contract IPriceProvider",
          "name": "_provider",
          "type": "address"
        }
      ],
      "name": "removePriceProvider",
      "outputs": [],
      "stateMutability": "nonpayable",
      "type": "function"
    },
    {
      "inputs": [],
      "name": "renounceOwnership",
      "outputs": [],
      "stateMutability": "nonpayable",
      "type": "function"
    },
    {
      "inputs": [
        {
          "internalType": "address",
          "name": "_asset",
          "type": "address"
        },
        {
          "internalType": "contract IPriceProvider",
          "name": "_provider",
          "type": "address"
        }
      ],
      "name": "setPriceProviderForAsset",
      "outputs": [],
      "stateMutability": "nonpayable",
      "type": "function"
    },
    {
      "inputs": [],
      "name": "siloRepository",
      "outputs": [
        {
          "internalType": "address",
          "name": "",
          "type": "address"
        }
      ],
      "stateMutability": "view",
      "type": "function"
    },
    {
      "inputs": [
        {
          "internalType": "address",
          "name": "newOwner",
          "type": "address"
        }
      ],
      "name": "transferOwnership",
      "outputs": [],
      "stateMutability": "nonpayable",
      "type": "function"
    },
    {
      "inputs": [
        {
          "internalType": "address",
          "name": "newPendingOwner",
          "type": "address"
        }
      ],
      "name": "transferPendingOwnership",
      "outputs": [],
      "stateMutability": "nonpayable",
      "type": "function"
    }
  ],
  "transactionHash": "0x780cafed12cfe29c35b49942e9fe422c6202ebcfa2daddaaeaaf9ec6ecfdc794",
  "args": [
    "0xd0A1E359811322d97991E03f863a0C30C2cF029C",
    "0xD50B297f657aE1da36E342df8a8E122C915d6b97"
  ],
  "numDeployments": 1,
  "solcInputHash": "4e6ec95f1876ffdb5c89e088426a74e9",
  "bytecode": "0x60c06040523480156200001157600080fd5b50604051620017a1380380620017a18339810160408190526200003491620003bb565b3380620000885760405162461bcd60e51b815260206004820152601860248201527f4d616e616761626c653a20656d707479206d616e61676572000000000000000060448201526064015b60405180910390fd5b600080546001600160a01b0319166001600160a01b0392909216919091179055620000b333620001a6565b620000c982620001f860201b62000d041760201c565b6012146200011a5760405162461bcd60e51b815260206004820152601860248201527f71756f7465546f6b656e206e6f7420737570706f72746564000000000000000060448201526064016200007f565b620001388163e99ed41d60e01b620002cb60201b62000dcf1760201c565b620001865760405162461bcd60e51b815260206004820152601760248201527f696e76616c6964205f73696c6f5265706f7369746f727900000000000000000060448201526064016200007f565b6001600160601b0319606091821b811660805291901b1660a05262000476565b600180546001600160a01b038381166001600160a01b0319831681179093556040519116919082907f8be0079c531659141344cd1fd0a4f28419497f9722a3daafe3b4186f6b6457e090600090a35050565b60006001600160a01b0382166200021157506000919050565b60408051600481526024810182526020810180516001600160e01b031663313ce56760e01b179052905160009182916001600160a01b03861691620002569162000438565b600060405180830381855afa9150503d806000811462000293576040519150601f19603f3d011682016040523d82523d6000602084013e62000298565b606091505b509150915081620002ad575060009392505050565b80806020019051810190620002c391906200041e565b949350505050565b60006001600160a01b038316620002e55750600062000398565b60408051600481526024810182526020810180516001600160e01b03166001600160e01b03198616179052905160009182916001600160a01b038716916200032d9162000438565b600060405180830381855afa9150503d80600081146200036a576040519150601f19603f3d011682016040523d82523d6000602084013e6200036f565b606091505b509150915081801562000393575080806020019051810190620003939190620003f3565b925050505b92915050565b80516001600160a01b0381168114620003b657600080fd5b919050565b60008060408385031215620003cf57600080fd5b620003da836200039e565b9150620003ea602084016200039e565b90509250929050565b6000602082840312156200040657600080fd5b815180151581146200041757600080fd5b9392505050565b6000602082840312156200043157600080fd5b5051919050565b6000825160005b818110156200045b57602081860181015185830152016200043f565b818111156200046b576000828501525b509190910192915050565b60805160601c60a05160601c6112f1620004b06000396000818161014b0152818161039101526106b50152600061028401526112f16000f3fe608060405234801561001057600080fd5b506004361061012c5760003560e01c80638da5cb5b116100ad578063c834439f11610071578063c834439f146102a6578063d0659d75146102bb578063e30c3978146102c3578063eec3e6a7146102d4578063f2fde38b146102db57600080fd5b80638da5cb5b1461023e57806393b6809c1461024657806397e8a2d814610259578063a3fbbaae1461026c578063bde127181461027f57600080fd5b8063481c6a75116100f4578063481c6a75146101d157806350ebbcc1146101e25780635d54e39514610205578063715018a61461022e57806379ba50971461023657600080fd5b80631b01d69e14610131578063217a4b70146101465780633278c6941461018a57806339b216a31461019d57806341976e09146101b0575b600080fd5b61014461013f3660046110ea565b6102ee565b005b61016d7f000000000000000000000000000000000000000000000000000000000000000081565b6040516001600160a01b0390911681526020015b60405180910390f35b6101446101983660046110ea565b610545565b6101446101ab3660046110ea565b6105dd565b6101c36101be3660046110ea565b6106b1565b604051908152602001610181565b6000546001600160a01b031661016d565b6101f56101f03660046110ea565b610794565b6040519015158152602001610181565b61016d6102133660046110ea565b6003602052600090815260409020546001600160a01b031681565b61014461083f565b61014461087a565b61016d610910565b610144610254366004611124565b610924565b6101f56102673660046110ea565b610b2e565b61014461027a3660046110ea565b610b3b565b61016d7f000000000000000000000000000000000000000000000000000000000000000081565b6102ae610c4c565b60405161018191906111d3565b6101c3610c58565b6002546001600160a01b031661016d565b60016101f5565b6101446102e93660046110ea565b610c64565b336102f7610910565b6001600160a01b0316146103265760405162461bcd60e51b815260040161031d90611220565b60405180910390fd5b610337816357e0c50f60e01b610dcf565b61038f5760405162461bcd60e51b8152602060048201526024808201527f50726f7669646572735265706f7369746f72793a206e6f7420616e2070726f7660448201526334b232b960e11b606482015260840161031d565b7f00000000000000000000000000000000000000000000000000000000000000006001600160a01b0316816001600160a01b031663217a4b706040518163ffffffff1660e01b815260040160206040518083038186803b1580156103f257600080fd5b505afa158015610406573d6000803e3d6000fd5b505050506040513d601f19601f8201168201806040525081019061042a9190611107565b6001600160a01b0316146104995760405162461bcd60e51b815260206004820152603060248201527f50726f7669646572735265706f7369746f72793a20696e76616c69642070726f60448201526f3b34b232b91738bab7ba32aa37b5b2b760811b606482015260840161031d565b6104a4600482610e97565b6105055760405162461bcd60e51b815260206004820152602c60248201527f50726f7669646572735265706f7369746f72793a2070726f766964657220616c60448201526b72656164792065786973747360a01b606482015260840161031d565b6040516001600160a01b03821681527f4705d8451928f44517faa1bdfbbca0e2b931ae93313f022b3b989537b0daa6f5906020015b60405180910390a150565b3361054e610910565b6001600160a01b0316146105745760405162461bcd60e51b815260040161031d90611220565b806001600160a01b0316610586610910565b6001600160a01b03167f3c672e6c16e239c29e969deaf4eae15d7002350bf5490175e7481155af04c83a60405160405180910390a3600280546001600160a01b0319166001600160a01b0392909216919091179055565b336105e6610910565b6001600160a01b03161461060c5760405162461bcd60e51b815260040161031d90611220565b610617600482610eac565b6106785760405162461bcd60e51b815260206004820152602c60248201527f50726f7669646572735265706f7369746f72793a2070726f766964657220646f60448201526b195cc81b9bdd08195e1a5cdd60a21b606482015260840161031d565b6040516001600160a01b03821681527fbecb08a245e5ee64b9cf97ff511fa99537ede3f8387ee3df7f951ef1dabd19bd9060200161053a565b60007f00000000000000000000000000000000000000000000000000000000000000006001600160a01b0316826001600160a01b031614156106fc5750670de0b6b3a7640000919050565b6001600160a01b03828116600081815260036020526040908190205490516341976e0960e01b81526004810192909252909116906341976e099060240160206040518083038186803b15801561075157600080fd5b505afa158015610765573d6000803e3d6000fd5b505050506040513d601f19601f82011682018060405250810190610789919061117f565b92915050565b905090565b6001600160a01b03808216600090815260036020526040812054909116806107bf5750600092915050565b60405163598fd92b60e11b81526001600160a01b03848116600483015282169063b31fb2569060240160206040518083038186803b15801561080057600080fd5b505afa158015610814573d6000803e3d6000fd5b505050506040513d601f19601f82011682018060405250810190610838919061115d565b9392505050565b33610848610910565b6001600160a01b03161461086e5760405162461bcd60e51b815260040161031d90611220565b6108786000610ec1565b565b6002546001600160a01b031633146108e45760405162461bcd60e51b815260206004820152602760248201527f4f776e61626c653a2063616c6c6572206973206e6f74207468652070656e64696044820152663733a7bbb732b960c91b606482015260840161031d565b6108fe6108f96002546001600160a01b031690565b610ec1565b600280546001600160a01b0319169055565b600061078f6001546001600160a01b031690565b6000546001600160a01b0316331461097e5760405162461bcd60e51b815260206004820152601860248201527f4d616e616761626c653a206e6f742061206d616e616765720000000000000000604482015260640161031d565b610989600482610f13565b6109ea5760405162461bcd60e51b815260206004820152602c60248201527f50726f7669646572735265706f7369746f72793a2070726f7669646572206e6f60448201526b1d081c9959da5cdd195c995960a21b606482015260840161031d565b60405163598fd92b60e11b81526001600160a01b03838116600483015282169063b31fb2569060240160206040518083038186803b158015610a2b57600080fd5b505afa158015610a3f573d6000803e3d6000fd5b505050506040513d601f19601f82011682018060405250810190610a63919061115d565b610ac05760405162461bcd60e51b815260206004820152602860248201527f50726f7669646572735265706f7369746f72793a206173736574206e6f7420736044820152671d5c1c1bdc9d195960c21b606482015260840161031d565b6040516001600160a01b0382811682528316907f26eb74ff7dd83e64daf822c2515feb1b0a46015000c9f339e23df098823761519060200160405180910390a26001600160a01b03918216600090815260036020526040902080546001600160a01b03191691909216179055565b6000610789600483610f13565b610b43610910565b6001600160a01b0316336001600160a01b03161480610b6c57506000546001600160a01b031633145b610ba85760405162461bcd60e51b815260206004820152600d60248201526c1858d8d95cdcc819195b9a5959609a1b604482015260640161031d565b6001600160a01b038116610bfe5760405162461bcd60e51b815260206004820152601860248201527f4d616e616761626c653a20656d707479206d616e616765720000000000000000604482015260640161031d565b600080546001600160a01b0319166001600160a01b0383169081179091556040519081527f198db6e425fb8aafd1823c6ca50be2d51e5764571a5ae0f0f21c6812e45def0b9060200161053a565b606061078f6004610f35565b600061078f6004610f42565b33610c6d610910565b6001600160a01b031614610c935760405162461bcd60e51b815260040161031d90611220565b6001600160a01b038116610cf85760405162461bcd60e51b815260206004820152602660248201527f4f776e61626c653a206e6577206f776e657220697320746865207a65726f206160448201526564647265737360d01b606482015260840161031d565b610d0181610ec1565b50565b60006001600160a01b038216610d1c57506000919050565b60408051600481526024810182526020810180516001600160e01b031663313ce56760e01b179052905160009182916001600160a01b03861691610d5f91611198565b600060405180830381855afa9150503d8060008114610d9a576040519150601f19603f3d011682016040523d82523d6000602084013e610d9f565b606091505b509150915081610db3575060009392505050565b80806020019051810190610dc7919061117f565b949350505050565b60006001600160a01b038316610de757506000610789565b60408051600481526024810182526020810180516001600160e01b03166001600160e01b03198616179052905160009182916001600160a01b03871691610e2d91611198565b600060405180830381855afa9150503d8060008114610e68576040519150601f19603f3d011682016040523d82523d6000602084013e610e6d565b606091505b5091509150818015610e8e575080806020019051810190610e8e919061115d565b95945050505050565b6000610838836001600160a01b038416610f4c565b6000610838836001600160a01b038416610f9b565b600180546001600160a01b038381166001600160a01b0319831681179093556040519116919082907f8be0079c531659141344cd1fd0a4f28419497f9722a3daafe3b4186f6b6457e090600090a35050565b6001600160a01b03811660009081526001830160205260408120541515610838565b606060006108388361108e565b6000610789825490565b6000818152600183016020526040812054610f9357508154600181810184556000848152602080822090930184905584548482528286019093526040902091909155610789565b506000610789565b60008181526001830160205260408120548015611084576000610fbf600183611255565b8554909150600090610fd390600190611255565b9050818114611038576000866000018281548110610ff357610ff3611290565b906000526020600020015490508087600001848154811061101657611016611290565b6000918252602080832090910192909255918252600188019052604090208390555b85548690806110495761104961127a565b600190038181906000526020600020016000905590558560010160008681526020019081526020016000206000905560019350505050610789565b6000915050610789565b6060816000018054806020026020016040519081016040528092919081815260200182805480156110de57602002820191906000526020600020905b8154815260200190600101908083116110ca575b50505050509050919050565b6000602082840312156110fc57600080fd5b8135610838816112a6565b60006020828403121561111957600080fd5b8151610838816112a6565b6000806040838503121561113757600080fd5b8235611142816112a6565b91506020830135611152816112a6565b809150509250929050565b60006020828403121561116f57600080fd5b8151801515811461083857600080fd5b60006020828403121561119157600080fd5b5051919050565b6000825160005b818110156111b9576020818601810151858301520161119f565b818111156111c8576000828501525b509190910192915050565b6020808252825182820181905260009190848201906040850190845b818110156112145783516001600160a01b0316835292840192918401916001016111ef565b50909695505050505050565b6020808252818101527f4f776e61626c653a2063616c6c6572206973206e6f7420746865206f776e6572604082015260600190565b60008282101561127557634e487b7160e01b600052601160045260246000fd5b500390565b634e487b7160e01b600052603160045260246000fd5b634e487b7160e01b600052603260045260246000fd5b6001600160a01b0381168114610d0157600080fdfea26469706673582212207af72cd1e7a9e48fd756f02c2deb9d79b59e0f14debdc2f3bbcfe49400ebf3fc64736f6c63430008070033",
  "devdoc": {
    "custom:security-contact": "security@silo.finance",
    "kind": "dev",
    "methods": {
      "acceptOwnership()": {
        "details": "Transfers ownership of the contract to a pending owner Can only be called by the pending owner."
      },
      "addPriceProvider(address)": {
        "params": {
          "_priceProvider": "address of price provider"
        }
      },
      "changeManager(address)": {
        "details": "Callable by manager or external owner role",
        "params": {
          "_manager": "new manager address"
        }
      },
      "constructor": {
        "params": {
          "_quoteToken": "address of quote token",
          "_siloRepository": "address of SiloRepository"
        }
      },
      "getPrice(address)": {
        "params": {
          "_asset": "address of an asset for which to read price"
        },
        "returns": {
          "_0": "TWAP price of a token with 18 decimals"
        }
      },
      "isPriceProvider(address)": {
        "params": {
          "_provider": "address of price provider to be removed"
        },
        "returns": {
          "_0": "true if address is a registered price provider, otherwise false"
        }
      },
      "manager()": {
        "returns": {
          "_0": "manager role address"
        }
      },
      "owner()": {
        "details": "Returns the address of the current owner."
      },
      "pendingOwner()": {
        "details": "Returns the address of the pending owner."
      },
      "priceProvidersRepositoryPing()": {
        "returns": {
          "_0": "returns always TRUE"
        }
      },
      "providerList()": {
        "returns": {
          "_0": "array of price providers"
        }
      },
      "providersCount()": {
        "returns": {
          "_0": "number of pice providers registerd"
        }
      },
      "providersReadyForAsset(address)": {
        "params": {
          "_asset": "asset address to check"
        },
        "returns": {
          "_0": "returns TRUE if price feed is ready, otherwise false"
        }
      },
      "removePriceProvider(address)": {
        "params": {
          "_priceProvider": "address of price provider to be removed"
        }
      },
      "renounceOwnership()": {
        "details": "Leaves the contract without owner. It will not be possible to call `onlyOwner` functions anymore. Can only be called by the current owner. NOTE: Renouncing ownership will leave the contract without an owner, thereby removing any functionality that is only available to the owner."
      },
      "setPriceProviderForAsset(address,address)": {
        "details": "Request for asset price is forwarded to the price provider assigned to that asset",
        "params": {
          "_asset": "address of an asset for which price provider will be used",
          "_priceProvider": "address of price provider"
        }
      },
      "transferOwnership(address)": {
        "details": "Transfers ownership of the contract to a new account (`newOwner`). Can only be called by the current owner."
      },
      "transferPendingOwnership(address)": {
        "details": "Transfers pending ownership of the contract to a new account (`newPendingOwner`). Can only be called by the current owner."
      }
    },
    "stateVariables": {
      "_ONE": {
        "details": "Constant used for prices' decimal points, 1e18 is treated as 1"
      },
      "priceProviders": {
        "details": "Each asset must have a price provider contract assigned, otherwise it's not supported"
      }
    },
    "title": "PriceProvidersRepository",
    "version": 1
  },
  "userdoc": {
    "events": {
      "ManagerChanged(address)": {
        "notice": "Emitted when manager is changed"
      },
      "NewPriceProvider(address)": {
        "notice": "Emitted when price provider is added"
      },
      "OwnershipPending(address,address)": {
        "notice": "Emitted when ownership transfer is proposed, aka pending owner is set"
      },
      "OwnershipTransferred(address,address)": {
        "notice": "Emitted when ownership is transferred on `transferOwnership` and `acceptOwnership`"
      },
      "PriceProviderForAsset(address,address)": {
        "notice": "Emitted when asset is assigned to price provider"
      },
      "PriceProviderRemoved(address)": {
        "notice": "Emitted when price provider is removed"
      }
    },
    "kind": "user",
    "methods": {
      "addPriceProvider(address)": {
        "notice": "Register new price provider"
      },
      "changeManager(address)": {
        "notice": "Change manager address"
      },
      "getPrice(address)": {
        "notice": "Returns \"Time-Weighted Average Price\" for an asset"
      },
      "isPriceProvider(address)": {
        "notice": "Returns true if address is a registered price provider"
      },
      "manager()": {
        "notice": "Gets manager role address"
      },
      "priceProviders(address)": {
        "notice": "Maps asset address to its price provider"
      },
      "priceProvidersRepositoryPing()": {
        "notice": "Sanity check funciton"
      },
      "providerList()": {
        "notice": "Gets an array of price providers"
      },
      "providersCount()": {
        "notice": "Gets number of pice providers registerd"
      },
      "providersReadyForAsset(address)": {
        "notice": "Check if prices are available for an asset"
      },
      "quoteToken()": {
        "notice": "Token in which prices are quoted. It's most likely WETH, however it could vary from deployment to deployment. For example 1 SILO costs X amount of quoteToken."
      },
      "removePriceProvider(address)": {
        "notice": "Unregister price provider"
      },
      "setPriceProviderForAsset(address,address)": {
        "notice": "Sets price provider for asset"
      },
      "siloRepository()": {
        "notice": "SiloRepository contract address"
      }
    },
    "notice": "A repository of price providers. It manages price providers as well as maps assets to their price provider. It acts as a entry point for Silo for token prices.",
    "version": 1
  },
  "storageLayout": {
    "storage": [
      {
        "astId": 21648,
        "contract": "contracts/PriceProvidersRepository.sol:PriceProvidersRepository",
        "label": "_managerRole",
        "offset": 0,
        "slot": "0",
        "type": "t_address"
      },
      {
        "astId": 22162,
        "contract": "contracts/PriceProvidersRepository.sol:PriceProvidersRepository",
        "label": "_owner",
        "offset": 0,
        "slot": "1",
        "type": "t_address"
      },
      {
        "astId": 22165,
        "contract": "contracts/PriceProvidersRepository.sol:PriceProvidersRepository",
        "label": "_pendingOwner",
        "offset": 0,
        "slot": "2",
        "type": "t_address"
      },
      {
        "astId": 11335,
        "contract": "contracts/PriceProvidersRepository.sol:PriceProvidersRepository",
        "label": "priceProviders",
        "offset": 0,
        "slot": "3",
        "type": "t_mapping(t_address,t_contract(IPriceProvider)16286)"
      },
      {
        "astId": 11339,
        "contract": "contracts/PriceProvidersRepository.sol:PriceProvidersRepository",
        "label": "_allProviders",
        "offset": 0,
        "slot": "4",
        "type": "t_struct(AddressSet)7290_storage"
      }
    ],
    "types": {
      "t_address": {
        "encoding": "inplace",
        "label": "address",
        "numberOfBytes": "20"
      },
      "t_array(t_bytes32)dyn_storage": {
        "base": "t_bytes32",
        "encoding": "dynamic_array",
        "label": "bytes32[]",
        "numberOfBytes": "32"
      },
      "t_bytes32": {
        "encoding": "inplace",
        "label": "bytes32",
        "numberOfBytes": "32"
      },
      "t_contract(IPriceProvider)16286": {
        "encoding": "inplace",
        "label": "contract IPriceProvider",
        "numberOfBytes": "20"
      },
      "t_mapping(t_address,t_contract(IPriceProvider)16286)": {
        "encoding": "mapping",
        "key": "t_address",
        "label": "mapping(address => contract IPriceProvider)",
        "numberOfBytes": "32",
        "value": "t_contract(IPriceProvider)16286"
      },
      "t_mapping(t_bytes32,t_uint256)": {
        "encoding": "mapping",
        "key": "t_bytes32",
        "label": "mapping(bytes32 => uint256)",
        "numberOfBytes": "32",
        "value": "t_uint256"
      },
      "t_struct(AddressSet)7290_storage": {
        "encoding": "inplace",
        "label": "struct EnumerableSet.AddressSet",
        "members": [
          {
            "astId": 7289,
            "contract": "contracts/PriceProvidersRepository.sol:PriceProvidersRepository",
            "label": "_inner",
            "offset": 0,
            "slot": "0",
            "type": "t_struct(Set)6989_storage"
          }
        ],
        "numberOfBytes": "64"
      },
      "t_struct(Set)6989_storage": {
        "encoding": "inplace",
        "label": "struct EnumerableSet.Set",
        "members": [
          {
            "astId": 6984,
            "contract": "contracts/PriceProvidersRepository.sol:PriceProvidersRepository",
            "label": "_values",
            "offset": 0,
            "slot": "0",
            "type": "t_array(t_bytes32)dyn_storage"
          },
          {
            "astId": 6988,
            "contract": "contracts/PriceProvidersRepository.sol:PriceProvidersRepository",
            "label": "_indexes",
            "offset": 0,
            "slot": "1",
            "type": "t_mapping(t_bytes32,t_uint256)"
          }
        ],
        "numberOfBytes": "64"
      },
      "t_uint256": {
        "encoding": "inplace",
        "label": "uint256",
        "numberOfBytes": "32"
      }
    }
  }
}