{
  "address": "0x4521C2b96E651563828C965E16b202bADeB405bF",
  "abi": [
    {
      "inputs": [
        {
          "internalType": "address",
          "name": "_quoteToken",
          "type": "address"
        },
        {
          "internalType": "address",
          "name": "_repository",
          "type": "address"
        }
      ],
      "stateMutability": "nonpayable",
      "type": "constructor"
    },
    {
      "anonymous": false,
      "inputs": [
        {
          "indexed": false,
          "internalType": "address",
          "name": "newOracle",
          "type": "address"
        },
        {
          "indexed": false,
          "internalType": "uint256",
          "name": "id",
          "type": "uint256"
        }
      ],
      "name": "NewOracle",
      "type": "event"
    },
    {
      "anonymous": false,
      "inputs": [
        {
          "indexed": false,
          "internalType": "address",
          "name": "oracle",
          "type": "address"
        },
        {
          "indexed": false,
          "internalType": "address",
          "name": "asset",
          "type": "address"
        }
      ],
      "name": "OracleForAsset",
      "type": "event"
    },
    {
      "anonymous": false,
      "inputs": [
        {
          "indexed": false,
          "internalType": "address",
          "name": "oracle",
          "type": "address"
        }
      ],
      "name": "OracleRemoved",
      "type": "event"
    },
    {
      "anonymous": false,
      "inputs": [
        {
          "indexed": true,
          "internalType": "address",
          "name": "previousOwner",
          "type": "address"
        },
        {
          "indexed": true,
          "internalType": "address",
          "name": "newOwner",
          "type": "address"
        }
      ],
      "name": "OwnershipPending",
      "type": "event"
    },
    {
      "anonymous": false,
      "inputs": [
        {
          "indexed": true,
          "internalType": "address",
          "name": "previousOwner",
          "type": "address"
        },
        {
          "indexed": true,
          "internalType": "address",
          "name": "newOwner",
          "type": "address"
        }
      ],
      "name": "OwnershipTransferred",
      "type": "event"
    },
    {
      "inputs": [],
      "name": "ONE",
      "outputs": [
        {
          "internalType": "uint256",
          "name": "",
          "type": "uint256"
        }
      ],
      "stateMutability": "view",
      "type": "function"
    },
    {
      "inputs": [],
      "name": "acceptOwnership",
      "outputs": [],
      "stateMutability": "nonpayable",
      "type": "function"
    },
    {
      "inputs": [
        {
          "internalType": "address",
          "name": "_oracle",
          "type": "address"
        }
      ],
      "name": "addOracle",
      "outputs": [],
      "stateMutability": "nonpayable",
      "type": "function"
    },
    {
      "inputs": [
        {
          "internalType": "address",
          "name": "",
          "type": "address"
        }
      ],
      "name": "assetsOracles",
      "outputs": [
        {
          "internalType": "address",
          "name": "",
          "type": "address"
        }
      ],
      "stateMutability": "view",
      "type": "function"
    },
    {
      "inputs": [
        {
          "internalType": "address",
          "name": "_asset",
          "type": "address"
        },
        {
          "internalType": "address",
          "name": "_oracle",
          "type": "address"
        }
      ],
      "name": "changeBestOracleForAsset",
      "outputs": [],
      "stateMutability": "nonpayable",
      "type": "function"
    },
    {
      "inputs": [
        {
          "internalType": "address",
          "name": "_asset",
          "type": "address"
        },
        {
          "internalType": "bool",
          "name": "_rawSearch",
          "type": "bool"
        }
      ],
      "name": "findBestOracle",
      "outputs": [
        {
          "internalType": "address",
          "name": "",
          "type": "address"
        }
      ],
      "stateMutability": "view",
      "type": "function"
    },
    {
      "inputs": [
        {
          "internalType": "address",
          "name": "_base",
          "type": "address"
        }
      ],
      "name": "getPrice",
      "outputs": [
        {
          "internalType": "uint256",
          "name": "",
          "type": "uint256"
        }
      ],
      "stateMutability": "view",
      "type": "function"
    },
    {
      "inputs": [
        {
          "internalType": "address",
          "name": "_asset",
          "type": "address"
        },
        {
          "internalType": "address",
          "name": "_oracle",
          "type": "address"
        },
        {
          "internalType": "bytes",
          "name": "_data",
          "type": "bytes"
        }
      ],
      "name": "initOracleForAsset",
      "outputs": [],
      "stateMutability": "nonpayable",
      "type": "function"
    },
    {
      "inputs": [],
      "name": "oracleList",
      "outputs": [
        {
          "internalType": "address[]",
          "name": "",
          "type": "address[]"
        }
      ],
      "stateMutability": "view",
      "type": "function"
    },
    {
      "inputs": [
        {
          "internalType": "uint256",
          "name": "",
          "type": "uint256"
        }
      ],
      "name": "oracles",
      "outputs": [
        {
          "internalType": "address",
          "name": "",
          "type": "address"
        }
      ],
      "stateMutability": "view",
      "type": "function"
    },
    {
      "inputs": [],
      "name": "oraclesCount",
      "outputs": [
        {
          "internalType": "uint256",
          "name": "",
          "type": "uint256"
        }
      ],
      "stateMutability": "view",
      "type": "function"
    },
    {
      "inputs": [],
      "name": "owner",
      "outputs": [
        {
          "internalType": "address",
          "name": "",
          "type": "address"
        }
      ],
      "stateMutability": "view",
      "type": "function"
    },
    {
      "inputs": [],
      "name": "pendingOwner",
      "outputs": [
        {
          "internalType": "address",
          "name": "",
          "type": "address"
        }
      ],
      "stateMutability": "view",
      "type": "function"
    },
    {
      "inputs": [],
      "name": "quoteToken",
      "outputs": [
        {
          "internalType": "address",
          "name": "",
          "type": "address"
        }
      ],
      "stateMutability": "view",
      "type": "function"
    },
    {
      "inputs": [
        {
          "internalType": "address",
          "name": "",
          "type": "address"
        }
      ],
      "name": "registeredOracles",
      "outputs": [
        {
          "internalType": "bool",
          "name": "",
          "type": "bool"
        }
      ],
      "stateMutability": "view",
      "type": "function"
    },
    {
      "inputs": [
        {
          "internalType": "uint256",
          "name": "_oracleId",
          "type": "uint256"
        }
      ],
      "name": "removeOracle",
      "outputs": [],
      "stateMutability": "nonpayable",
      "type": "function"
    },
    {
      "inputs": [],
      "name": "renounceOwnership",
      "outputs": [],
      "stateMutability": "nonpayable",
      "type": "function"
    },
    {
      "inputs": [],
      "name": "repository",
      "outputs": [
        {
          "internalType": "address",
          "name": "",
          "type": "address"
        }
      ],
      "stateMutability": "view",
      "type": "function"
    },
    {
      "inputs": [
        {
          "internalType": "address",
          "name": "_asset",
          "type": "address"
        }
      ],
      "name": "setBestOracleForAsset",
      "outputs": [
        {
          "internalType": "address",
          "name": "bestOracle",
          "type": "address"
        }
      ],
      "stateMutability": "nonpayable",
      "type": "function"
    },
    {
      "inputs": [
        {
          "internalType": "address",
          "name": "newOwner",
          "type": "address"
        }
      ],
      "name": "transferOwnership",
      "outputs": [],
      "stateMutability": "nonpayable",
      "type": "function"
    },
    {
      "inputs": [
        {
          "internalType": "address",
          "name": "newPendingOwner",
          "type": "address"
        }
      ],
      "name": "transferPendingOwnership",
      "outputs": [],
      "stateMutability": "nonpayable",
      "type": "function"
    }
  ],
  "transactionHash": "0x407cf0a5494214ac0b3fddf3f1a37cb74d6ba222cdfd611ed5ed17f2357846cc",
  "args": [
    "0xd0A1E359811322d97991E03f863a0C30C2cF029C",
    "0x3D67cb6C1E98B50B15c870E924cB4b4396EaDF6c"
  ],
  "numDeployments": 1,
  "solcInputHash": "a3e0f8b475b37a9b222b6e0a76db840e",
  "bytecode": "0x60c06040523480156200001157600080fd5b5060405162001663380380620016638339810160408190526200003491620000cc565b6200003f336200005f565b6001600160601b0319606091821b811660805291901b1660a05262000104565b600080546001600160a01b038381166001600160a01b0319831681178455604051919092169283917f8be0079c531659141344cd1fd0a4f28419497f9722a3daafe3b4186f6b6457e09190a35050565b80516001600160a01b0381168114620000c757600080fd5b919050565b60008060408385031215620000e057600080fd5b620000eb83620000af565b9150620000fb60208401620000af565b90509250929050565b60805160601c60a05160601c6115256200013e60003960008181610187015281816106dd0152610c90015260006102e701526115256000f3fe608060405234801561001057600080fd5b50600436106101375760003560e01c80637bb0e9e8116100b8578063df5dd1a51161007c578063df5dd1a51461028b578063e30c39781461029e578063e4362b23146102af578063e9176c60146102e2578063f138420014610309578063f2fde38b1461031c57600080fd5b80637bb0e9e81461023057806380935dbf146102435780638da5cb5b14610256578063c2ee3a0814610267578063d58bcd041461027657600080fd5b806341976e09116100ff57806341976e09146101e45780635b69a7d814610205578063715018a61461021857806376f709001461022057806379ba50971461022857600080fd5b80630ef0e5e81461013c578063217a4b70146101825780632979f8f1146101a95780633278c694146101be578063332f3c21146101d1575b600080fd5b61016561014a366004611214565b6003602052600090815260409020546001600160a01b031681565b6040516001600160a01b0390911681526020015b60405180910390f35b6101657f000000000000000000000000000000000000000000000000000000000000000081565b6101bc6101b736600461124e565b61032f565b005b6101bc6101cc366004611214565b6105b2565b6101bc6101df366004611287565b61065e565b6101f76101f2366004611214565b6106d9565b604051908152602001610179565b610165610213366004611364565b6107b7565b6101bc6107e1565b6004546101f7565b6101bc610826565b61016561023e366004611214565b6108bc565b6101bc610251366004611364565b6108c7565b6000546001600160a01b0316610165565b6101f7670de0b6b3a764000081565b61027e610aad565b60405161017991906113d6565b6101bc610299366004611214565b610b0f565b6001546001600160a01b0316610165565b6102d26102bd366004611214565b60026020526000908152604090205460ff1681565b6040519015158152602001610179565b6101657f000000000000000000000000000000000000000000000000000000000000000081565b610165610317366004611319565b610e46565b6101bc61032a366004611214565b610e59565b6001600160a01b03811660009081526002602052604090205460ff166103b05760405162461bcd60e51b815260206004820152602b60248201527f53696c6f4f7261636c655265706f7369746f72793a206f7261636c65206e6f7460448201526a081c9959da5cdd195c995960aa1b60648201526084015b60405180910390fd5b6001600160a01b03808316600090815260036020526040902054168061043e5760405162461bcd60e51b815260206004820152603d60248201527f53696c6f4f7261636c655265706f7369746f72793a207573652073657442657360448201527f744f7261636c65466f72417373657420746f20696e697420617373657400000060648201526084016103a7565b604051630b8abf1d60e31b81526001600160a01b03848116600483015260009190831690635c55f8e89060240160206040518083038186803b15801561048357600080fd5b505afa158015610497573d6000803e3d6000fd5b505050506040513d601f19601f820116820180604052508101906104bb919061137d565b604051630b8abf1d60e31b81526001600160a01b038681166004830152919250600091851690635c55f8e89060240160206040518083038186803b15801561050257600080fd5b505afa158015610516573d6000803e3d6000fd5b505050506040513d601f19601f8201168201806040525081019061053a919061137d565b9050818110156105a15760405162461bcd60e51b815260206004820152602c60248201527f53696c6f4f7261636c655265706f7369746f72793a2063686f73656e206f726160448201526b636c6520697320776f72736560a01b60648201526084016103a7565b6105ab8585610f03565b5050505050565b336105c56000546001600160a01b031690565b6001600160a01b0316146105eb5760405162461bcd60e51b81526004016103a790611423565b806001600160a01b03166106076000546001600160a01b031690565b6001600160a01b03167f3c672e6c16e239c29e969deaf4eae15d7002350bf5490175e7481155af04c83a60405160405180910390a3600180546001600160a01b0319166001600160a01b0392909216919091179055565b6001600160a01b038316156106d057604051635e3263fb60e01b81526001600160a01b03841690635e3263fb9061069d90879086908690600401611396565b600060405180830381600087803b1580156106b757600080fd5b505af11580156106cb573d6000803e3d6000fd5b505050505b6105ab84610fcf565b60007f00000000000000000000000000000000000000000000000000000000000000006001600160a01b0316826001600160a01b031614156107245750670de0b6b3a7640000919050565b6001600160a01b03828116600081815260036020526040908190205490516341976e0960e01b81526004810192909252909116906341976e099060240160206040518083038186803b15801561077957600080fd5b505afa15801561078d573d6000803e3d6000fd5b505050506040513d601f19601f820116820180604052508101906107b1919061137d565b92915050565b600481815481106107c757600080fd5b6000918252602090912001546001600160a01b0316905081565b336107f46000546001600160a01b031690565b6001600160a01b03161461081a5760405162461bcd60e51b81526004016103a790611423565b610824600061105f565b565b6001546001600160a01b031633146108905760405162461bcd60e51b815260206004820152602760248201527f4f776e61626c653a2063616c6c6572206973206e6f74207468652070656e64696044820152663733a7bbb732b960c91b60648201526084016103a7565b6108aa6108a56001546001600160a01b031690565b61105f565b600180546001600160a01b0319169055565b60006107b182610fcf565b336108da6000546001600160a01b031690565b6001600160a01b0316146109005760405162461bcd60e51b81526004016103a790611423565b600060048281548110610915576109156114b6565b60009182526020808320909101546001600160a01b0316808352600290915260409091205490915060ff166109a05760405162461bcd60e51b815260206004820152602b60248201527f53696c6f4f7261636c655265706f7369746f72793a206f7261636c6520646f6560448201526a1cc81b9bdd08195e1a5cdd60aa1b60648201526084016103a7565b6040516001600160a01b03821681527f9c8e7d83025bef8a04c664b2f753f64b8814bdb7e27291d7e50935f18cc3c7129060200160405180910390a16001600160a01b0381166000908152600260205260409020805460ff1916905560048054610a0c90600190611458565b81548110610a1c57610a1c6114b6565b600091825260209091200154600480546001600160a01b039092169184908110610a4857610a486114b6565b9060005260206000200160006101000a8154816001600160a01b0302191690836001600160a01b031602179055506004805480610a8757610a876114a0565b600082815260209020810160001990810180546001600160a01b03191690550190555050565b60606004805480602002602001604051908101604052809291908181526020018280548015610b0557602002820191906000526020600020905b81546001600160a01b03168152600190910190602001808311610ae7575b5050505050905090565b33610b226000546001600160a01b031690565b6001600160a01b031614610b485760405162461bcd60e51b81526004016103a790611423565b6001600160a01b03811660009081526002602052604090205460ff1615610bc55760405162461bcd60e51b815260206004820152602b60248201527f53696c6f4f7261636c655265706f7369746f72793a206f7261636c6520616c7260448201526a656164792065786973747360a81b60648201526084016103a7565b806001600160a01b031663ecdcb0ff6040518163ffffffff1660e01b815260040160206040518083038186803b158015610bfe57600080fd5b505afa158015610c12573d6000803e3d6000fd5b505050506040513d601f19601f82011682018060405250810190610c369190611347565b610c8e5760405162461bcd60e51b815260206004820152602360248201527f53696c6f4f7261636c655265706f7369746f72793a206e6f7420616e206f7261604482015262636c6560e81b60648201526084016103a7565b7f00000000000000000000000000000000000000000000000000000000000000006001600160a01b0316816001600160a01b031663217a4b706040518163ffffffff1660e01b815260040160206040518083038186803b158015610cf157600080fd5b505afa158015610d05573d6000803e3d6000fd5b505050506040513d601f19601f82011682018060405250810190610d299190611231565b6001600160a01b031614610d9a5760405162461bcd60e51b815260206004820152603260248201527f53696c6f4f7261636c655265706f7369746f72793a20696e76616c69642071756044820152716f7465546f6b656e20696e206f7261636c6560701b60648201526084016103a7565b600454604080516001600160a01b038416815260208101929092527f45f1932942561e7d7562d1677fd99002dd4106d397ed7b756168542c4c5c0fac910160405180910390a16001600160a01b03166000818152600260205260408120805460ff191660019081179091556004805491820181559091527f8a35acfbc15ff81a39ae7d344fd709f28e8600b4aa8c65c6b64bfe7fe36bd19b0180546001600160a01b0319169091179055565b6000610e5283836110af565b9392505050565b33610e6c6000546001600160a01b031690565b6001600160a01b031614610e925760405162461bcd60e51b81526004016103a790611423565b6001600160a01b038116610ef75760405162461bcd60e51b815260206004820152602660248201527f4f776e61626c653a206e6577206f776e657220697320746865207a65726f206160448201526564647265737360d01b60648201526084016103a7565b610f008161105f565b50565b604080516001600160a01b038085168252831660208201527f87987abe74f65c11e5ed91847ea2a5d8f269929df44aab920a9dc3799e29ec70910160405180910390a16040516326b9797f60e01b81526001600160a01b0383811660048301528216906326b9797f90602401600060405180830381600087803b158015610f8957600080fd5b505af1158015610f9d573d6000803e3d6000fd5b505050506001600160a01b03918216600090815260036020526040902080546001600160a01b03191691909216179055565b6000610fdc8260006110af565b90506001600160a01b0381166110505760405162461bcd60e51b815260206004820152603360248201527f53696c6f4f7261636c655265706f7369746f72793a2063616e206e6f742066696044820152721b99081bdc9858db1948199bdc88185cdcd95d606a1b60648201526084016103a7565b61105a8282610f03565b919050565b600080546001600160a01b038381166001600160a01b0319831681178455604051919092169283917f8be0079c531659141344cd1fd0a4f28419497f9722a3daafe3b4186f6b6457e09190a35050565b60008060005b60045481101561120c576000600482815481106110d4576110d46114b6565b60009182526020822001546001600160a01b031691508561116d57604051630b8abf1d60e31b81526001600160a01b038881166004830152831690635c55f8e89060240160206040518083038186803b15801561113057600080fd5b505afa158015611144573d6000803e3d6000fd5b505050506040513d601f19601f82011682018060405250810190611168919061137d565b6111e6565b604051631befe8b360e21b81526001600160a01b038881166004830152831690636fbfa2cc9060240160206040518083038186803b1580156111ae57600080fd5b505afa1580156111c2573d6000803e3d6000fd5b505050506040513d601f19601f820116820180604052508101906111e6919061137d565b9050838111156111f7578194508093505b505080806112049061146f565b9150506110b5565b505092915050565b60006020828403121561122657600080fd5b8135610e52816114cc565b60006020828403121561124357600080fd5b8151610e52816114cc565b6000806040838503121561126157600080fd5b823561126c816114cc565b9150602083013561127c816114cc565b809150509250929050565b6000806000806060858703121561129d57600080fd5b84356112a8816114cc565b935060208501356112b8816114cc565b9250604085013567ffffffffffffffff808211156112d557600080fd5b818701915087601f8301126112e957600080fd5b8135818111156112f857600080fd5b88602082850101111561130a57600080fd5b95989497505060200194505050565b6000806040838503121561132c57600080fd5b8235611337816114cc565b9150602083013561127c816114e1565b60006020828403121561135957600080fd5b8151610e52816114e1565b60006020828403121561137657600080fd5b5035919050565b60006020828403121561138f57600080fd5b5051919050565b6001600160a01b03841681526040602082018190528101829052818360608301376000818301606090810191909152601f909201601f1916010192915050565b6020808252825182820181905260009190848201906040850190845b818110156114175783516001600160a01b0316835292840192918401916001016113f2565b50909695505050505050565b6020808252818101527f4f776e61626c653a2063616c6c6572206973206e6f7420746865206f776e6572604082015260600190565b60008282101561146a5761146a61148a565b500390565b60006000198214156114835761148361148a565b5060010190565b634e487b7160e01b600052601160045260246000fd5b634e487b7160e01b600052603160045260246000fd5b634e487b7160e01b600052603260045260246000fd5b6001600160a01b0381168114610f0057600080fd5b8015158114610f0057600080fdfea2646970667358221220439197c0e171d11cd4fe7abdaafe7a1c6cdee38926232a27e8cc905606bb0a4f64736f6c63430008070033",
  "devdoc": {
    "kind": "dev",
    "methods": {
      "acceptOwnership()": {
        "details": "Transfers ownership of the contract to a pending owner Can only be called by the pending owner."
      },
      "findBestOracle(address,bool)": {
        "params": {
          "_asset": "asset address",
          "_rawSearch": "boolean         - if FALSE, it performs search with all requirements, for example, TWAP readiness         - if TRUE, it performs a raw search, without any requirements (this is for off-chain checks)           that needs to be done for guarded silo creations"
        }
      },
      "initOracleForAsset(address,address,bytes)": {
        "details": "this method does two things:      - init new asset if oracle is provided      - search for best oracle and updates if we found better",
        "params": {
          "_asset": "address od token to be initialise",
          "_data": "(optional) custom data required for asset initialisation",
          "_oracle": "(optional) address of silo oracle that will be initialised with new asset        we do not check, if this oracle is registered or not, because it can not be used if not registered anyway"
        }
      },
      "owner()": {
        "details": "Returns the address of the current owner."
      },
      "pendingOwner()": {
        "details": "Returns the address of the pending owner."
      },
      "renounceOwnership()": {
        "details": "Leaves the contract without owner. It will not be possible to call `onlyOwner` functions anymore. Can only be called by the current owner. NOTE: Renouncing ownership will leave the contract without an owner, thereby removing any functionality that is only available to the owner."
      },
      "transferOwnership(address)": {
        "details": "Transfers ownership of the contract to a new account (`newOwner`). Can only be called by the current owner."
      },
      "transferPendingOwnership(address)": {
        "details": "Transfers pending ownership of the contract to a new account (`newPendingOwner`). Can only be called by the current owner."
      }
    },
    "stateVariables": {
      "assetsOracles": {
        "params": {
          "_asset": "address"
        },
        "return": "oracle address assigned for asset",
        "returns": {
          "_0": "oracle address assigned for asset"
        }
      }
    },
    "version": 1
  },
  "userdoc": {
    "kind": "user",
    "methods": {
      "initOracleForAsset(address,address,bytes)": {
        "notice": "initialise oracle for asset"
      }
    },
    "version": 1
  },
  "storageLayout": {
    "storage": [
      {
        "astId": 20079,
        "contract": "contracts/SiloOracleRepository.sol:SiloOracleRepository",
        "label": "_owner",
        "offset": 0,
        "slot": "0",
        "type": "t_address"
      },
      {
        "astId": 20081,
        "contract": "contracts/SiloOracleRepository.sol:SiloOracleRepository",
        "label": "_pendingOwner",
        "offset": 0,
        "slot": "1",
        "type": "t_address"
      },
      {
        "astId": 13996,
        "contract": "contracts/SiloOracleRepository.sol:SiloOracleRepository",
        "label": "registeredOracles",
        "offset": 0,
        "slot": "2",
        "type": "t_mapping(t_address,t_bool)"
      },
      {
        "astId": 14001,
        "contract": "contracts/SiloOracleRepository.sol:SiloOracleRepository",
        "label": "assetsOracles",
        "offset": 0,
        "slot": "3",
        "type": "t_mapping(t_address,t_address)"
      },
      {
        "astId": 14004,
        "contract": "contracts/SiloOracleRepository.sol:SiloOracleRepository",
        "label": "oracles",
        "offset": 0,
        "slot": "4",
        "type": "t_array(t_address)dyn_storage"
      }
    ],
    "types": {
      "t_address": {
        "encoding": "inplace",
        "label": "address",
        "numberOfBytes": "20"
      },
      "t_array(t_address)dyn_storage": {
        "base": "t_address",
        "encoding": "dynamic_array",
        "label": "address[]",
        "numberOfBytes": "32"
      },
      "t_bool": {
        "encoding": "inplace",
        "label": "bool",
        "numberOfBytes": "1"
      },
      "t_mapping(t_address,t_address)": {
        "encoding": "mapping",
        "key": "t_address",
        "label": "mapping(address => address)",
        "numberOfBytes": "32",
        "value": "t_address"
      },
      "t_mapping(t_address,t_bool)": {
        "encoding": "mapping",
        "key": "t_address",
        "label": "mapping(address => bool)",
        "numberOfBytes": "32",
        "value": "t_bool"
      }
    }
  }
}