{
  "address": "0x2B62Fde0aB5AB0D2acAdb6630623f322ca460f49",
  "abi": [
    {
      "inputs": [
        {
          "internalType": "address",
          "name": "_factory",
          "type": "address"
        }
      ],
      "stateMutability": "nonpayable",
      "type": "constructor"
    },
    {
      "anonymous": false,
      "inputs": [
        {
          "indexed": true,
          "internalType": "address",
          "name": "silo",
          "type": "address"
        },
        {
          "indexed": true,
          "internalType": "address",
          "name": "user",
          "type": "address"
        },
        {
          "indexed": false,
          "internalType": "uint256",
          "name": "amount",
          "type": "uint256"
        }
      ],
      "name": "Borrow",
      "type": "event"
    },
    {
      "anonymous": false,
      "inputs": [
        {
          "indexed": true,
          "internalType": "address",
          "name": "silo",
          "type": "address"
        },
        {
          "indexed": true,
          "internalType": "address",
          "name": "user",
          "type": "address"
        },
        {
          "indexed": false,
          "internalType": "uint256",
          "name": "amount",
          "type": "uint256"
        }
      ],
      "name": "Deposit",
      "type": "event"
    },
    {
      "anonymous": false,
      "inputs": [
        {
          "indexed": true,
          "internalType": "address",
          "name": "silo",
          "type": "address"
        },
        {
          "indexed": true,
          "internalType": "address",
          "name": "_user",
          "type": "address"
        },
        {
          "indexed": false,
          "internalType": "uint256",
          "name": "amountRepaid",
          "type": "uint256"
        },
        {
          "indexed": false,
          "internalType": "uint256",
          "name": "seizedCollateral",
          "type": "uint256"
        }
      ],
      "name": "Liquidate",
      "type": "event"
    },
    {
      "anonymous": false,
      "inputs": [
        {
          "indexed": true,
          "internalType": "address",
          "name": "silo",
          "type": "address"
        },
        {
          "indexed": true,
          "internalType": "address",
          "name": "user",
          "type": "address"
        },
        {
          "indexed": false,
          "internalType": "uint256",
          "name": "amount",
          "type": "uint256"
        }
      ],
      "name": "Repay",
      "type": "event"
    },
    {
      "anonymous": false,
      "inputs": [
        {
          "indexed": true,
          "internalType": "address",
          "name": "silo",
          "type": "address"
        },
        {
          "indexed": true,
          "internalType": "address",
          "name": "user",
          "type": "address"
        },
        {
          "indexed": false,
          "internalType": "uint256",
          "name": "amount",
          "type": "uint256"
        }
      ],
      "name": "Withdraw",
      "type": "event"
    },
    {
      "inputs": [],
      "name": "BASIS_POINTS",
      "outputs": [
        {
          "internalType": "uint256",
          "name": "",
          "type": "uint256"
        }
      ],
      "stateMutability": "view",
      "type": "function"
    },
    {
      "inputs": [],
      "name": "DECIMAL_POINTS",
      "outputs": [
        {
          "internalType": "uint256",
          "name": "",
          "type": "uint256"
        }
      ],
      "stateMutability": "view",
      "type": "function"
    },
    {
      "inputs": [],
      "name": "INFINITY",
      "outputs": [
        {
          "internalType": "uint256",
          "name": "",
          "type": "uint256"
        }
      ],
      "stateMutability": "view",
      "type": "function"
    },
    {
      "inputs": [],
      "name": "SECONDS_PER_YEAR",
      "outputs": [
        {
          "internalType": "uint256",
          "name": "",
          "type": "uint256"
        }
      ],
      "stateMutability": "view",
      "type": "function"
    },
    {
      "inputs": [
        {
          "internalType": "address",
          "name": "_silo",
          "type": "address"
        }
      ],
      "name": "accrueInterest",
      "outputs": [],
      "stateMutability": "nonpayable",
      "type": "function"
    },
    {
      "inputs": [
        {
          "internalType": "address",
          "name": "_silo",
          "type": "address"
        },
        {
          "internalType": "string",
          "name": "_name",
          "type": "string"
        },
        {
          "internalType": "string",
          "name": "_symbol",
          "type": "string"
        }
      ],
      "name": "addSilo",
      "outputs": [],
      "stateMutability": "nonpayable",
      "type": "function"
    },
    {
      "inputs": [],
      "name": "asset",
      "outputs": [
        {
          "internalType": "address",
          "name": "",
          "type": "address"
        }
      ],
      "stateMutability": "view",
      "type": "function"
    },
    {
      "inputs": [
        {
          "internalType": "address",
          "name": "_silo",
          "type": "address"
        },
        {
          "internalType": "address",
          "name": "_user",
          "type": "address"
        }
      ],
      "name": "balanceOfUnderlying",
      "outputs": [
        {
          "internalType": "uint256",
          "name": "",
          "type": "uint256"
        }
      ],
      "stateMutability": "view",
      "type": "function"
    },
    {
      "inputs": [
        {
          "internalType": "address",
          "name": "_silo",
          "type": "address"
        },
        {
          "internalType": "uint256",
          "name": "_amount",
          "type": "uint256"
        }
      ],
      "name": "borrow",
      "outputs": [],
      "stateMutability": "nonpayable",
      "type": "function"
    },
    {
      "inputs": [
        {
          "internalType": "address",
          "name": "_silo",
          "type": "address"
        },
        {
          "internalType": "address",
          "name": "_user",
          "type": "address"
        },
        {
          "internalType": "address",
          "name": "_to",
          "type": "address"
        },
        {
          "internalType": "uint256",
          "name": "_amount",
          "type": "uint256"
        }
      ],
      "name": "borrowFor",
      "outputs": [],
      "stateMutability": "nonpayable",
      "type": "function"
    },
    {
      "inputs": [
        {
          "internalType": "uint256",
          "name": "_amount",
          "type": "uint256"
        }
      ],
      "name": "calcFee",
      "outputs": [
        {
          "internalType": "uint256",
          "name": "",
          "type": "uint256"
        }
      ],
      "stateMutability": "view",
      "type": "function"
    },
    {
      "inputs": [
        {
          "internalType": "address",
          "name": "_silo",
          "type": "address"
        },
        {
          "internalType": "uint256",
          "name": "_amount",
          "type": "uint256"
        }
      ],
      "name": "deposit",
      "outputs": [],
      "stateMutability": "nonpayable",
      "type": "function"
    },
    {
      "inputs": [
        {
          "internalType": "address",
          "name": "_silo",
          "type": "address"
        },
        {
          "internalType": "address",
          "name": "_user",
          "type": "address"
        },
        {
          "internalType": "uint256",
          "name": "_amount",
          "type": "uint256"
        }
      ],
      "name": "depositFor",
      "outputs": [],
      "stateMutability": "nonpayable",
      "type": "function"
    },
    {
      "inputs": [],
      "name": "factory",
      "outputs": [
        {
          "internalType": "contract ISiloFactory",
          "name": "",
          "type": "address"
        }
      ],
      "stateMutability": "view",
      "type": "function"
    },
    {
      "inputs": [
        {
          "internalType": "address",
          "name": "_silo",
          "type": "address"
        },
        {
          "internalType": "uint256",
          "name": "_amount",
          "type": "uint256"
        },
        {
          "internalType": "address",
          "name": "_to",
          "type": "address"
        },
        {
          "internalType": "bytes",
          "name": "_data",
          "type": "bytes"
        }
      ],
      "name": "flashBorrow",
      "outputs": [],
      "stateMutability": "nonpayable",
      "type": "function"
    },
    {
      "inputs": [
        {
          "internalType": "address",
          "name": "_silo",
          "type": "address"
        },
        {
          "internalType": "address",
          "name": "_user",
          "type": "address"
        }
      ],
      "name": "getBorrowShare",
      "outputs": [
        {
          "internalType": "uint256",
          "name": "",
          "type": "uint256"
        }
      ],
      "stateMutability": "view",
      "type": "function"
    },
    {
      "inputs": [
        {
          "internalType": "address",
          "name": "_silo",
          "type": "address"
        },
        {
          "internalType": "address",
          "name": "_user",
          "type": "address"
        }
      ],
      "name": "getCollateralValue",
      "outputs": [
        {
          "internalType": "uint256",
          "name": "",
          "type": "uint256"
        }
      ],
      "stateMutability": "nonpayable",
      "type": "function"
    },
    {
      "inputs": [
        {
          "internalType": "address",
          "name": "_silo",
          "type": "address"
        },
        {
          "internalType": "address",
          "name": "_user",
          "type": "address"
        }
      ],
      "name": "getCollateralization",
      "outputs": [
        {
          "internalType": "uint256",
          "name": "",
          "type": "uint256"
        }
      ],
      "stateMutability": "nonpayable",
      "type": "function"
    },
    {
      "inputs": [
        {
          "internalType": "address",
          "name": "_silo",
          "type": "address"
        },
        {
          "internalType": "address",
          "name": "_user",
          "type": "address"
        }
      ],
      "name": "getDebtValue",
      "outputs": [
        {
          "internalType": "uint256",
          "name": "",
          "type": "uint256"
        }
      ],
      "stateMutability": "nonpayable",
      "type": "function"
    },
    {
      "inputs": [
        {
          "internalType": "address",
          "name": "_silo",
          "type": "address"
        },
        {
          "internalType": "address",
          "name": "_user",
          "type": "address"
        }
      ],
      "name": "isSolvent",
      "outputs": [
        {
          "internalType": "bool",
          "name": "",
          "type": "bool"
        }
      ],
      "stateMutability": "nonpayable",
      "type": "function"
    },
    {
      "inputs": [
        {
          "internalType": "address",
          "name": "_silo",
          "type": "address"
        },
        {
          "internalType": "address[]",
          "name": "_users",
          "type": "address[]"
        }
      ],
      "name": "liquidate",
      "outputs": [
        {
          "internalType": "uint256[]",
          "name": "",
          "type": "uint256[]"
        }
      ],
      "stateMutability": "nonpayable",
      "type": "function"
    },
    {
      "inputs": [],
      "name": "liquidity",
      "outputs": [
        {
          "internalType": "uint256",
          "name": "",
          "type": "uint256"
        }
      ],
      "stateMutability": "view",
      "type": "function"
    },
    {
      "inputs": [
        {
          "internalType": "address",
          "name": "_silo",
          "type": "address"
        },
        {
          "internalType": "uint256",
          "name": "_amount",
          "type": "uint256"
        }
      ],
      "name": "repay",
      "outputs": [],
      "stateMutability": "nonpayable",
      "type": "function"
    },
    {
      "inputs": [
        {
          "internalType": "address",
          "name": "_silo",
          "type": "address"
        },
        {
          "internalType": "address",
          "name": "_user",
          "type": "address"
        },
        {
          "internalType": "uint256",
          "name": "_amount",
          "type": "uint256"
        }
      ],
      "name": "repayFor",
      "outputs": [],
      "stateMutability": "nonpayable",
      "type": "function"
    },
    {
      "inputs": [
        {
          "internalType": "address",
          "name": "_user",
          "type": "address"
        },
        {
          "internalType": "address",
          "name": "_liquidator",
          "type": "address"
        }
      ],
      "name": "seizeCollateral",
      "outputs": [
        {
          "internalType": "uint256",
          "name": "",
          "type": "uint256"
        }
      ],
      "stateMutability": "nonpayable",
      "type": "function"
    },
    {
      "inputs": [
        {
          "internalType": "address",
          "name": "",
          "type": "address"
        }
      ],
      "name": "state",
      "outputs": [
        {
          "internalType": "contract BridgeERC20",
          "name": "token",
          "type": "address"
        },
        {
          "internalType": "uint256",
          "name": "lastUpdateTimestamp",
          "type": "uint256"
        },
        {
          "internalType": "uint256",
          "name": "totalDeposits",
          "type": "uint256"
        },
        {
          "internalType": "uint256",
          "name": "totalBorrowShare",
          "type": "uint256"
        },
        {
          "internalType": "uint256",
          "name": "totalBorrowAmount",
          "type": "uint256"
        },
        {
          "internalType": "uint256",
          "name": "interestRate",
          "type": "uint256"
        },
        {
          "internalType": "uint256",
          "name": "protocolFees",
          "type": "uint256"
        },
        {
          "internalType": "uint256",
          "name": "liquidity",
          "type": "uint256"
        }
      ],
      "stateMutability": "view",
      "type": "function"
    },
    {
      "inputs": [
        {
          "internalType": "address",
          "name": "_silo",
          "type": "address"
        },
        {
          "internalType": "uint256",
          "name": "_amount",
          "type": "uint256"
        }
      ],
      "name": "withdraw",
      "outputs": [],
      "stateMutability": "nonpayable",
      "type": "function"
    },
    {
      "inputs": [
        {
          "internalType": "address",
          "name": "_silo",
          "type": "address"
        },
        {
          "internalType": "address",
          "name": "_user",
          "type": "address"
        },
        {
          "internalType": "uint256",
          "name": "_amount",
          "type": "uint256"
        }
      ],
      "name": "withdrawFor",
      "outputs": [],
      "stateMutability": "nonpayable",
      "type": "function"
    }
  ],
  "transactionHash": "0xdef6830e15efe62f5e0d4619b80160c52056009c1ddb6364c25a8a4561d87212",
  "args": [
    "0x6484Fa6a2E75eCEf4aca24E35b5cf73e8e139714"
  ],
  "solcInputHash": "6d92413c800e1feb51432e172a193baa",
  "bytecode": "0x60c06040523480156200001157600080fd5b506040516200477c3803806200477c83398101604081905262000034916200016f565b60016000556001600160601b0319606082901b1660a052604080516304d8775560e41b815290516001600160a01b03831691634d877550916004808301926020929190829003018186803b1580156200008c57600080fd5b505afa158015620000a1573d6000803e3d6000fd5b505050506040513d601f19601f82011682018060405250810190620000c791906200016f565b600180546001600160a01b0319166001600160a01b039290921691821790556040805163313ce56760e01b8152905163313ce56791600480820192602092909190829003018186803b1580156200011d57600080fd5b505afa15801562000132573d6000803e3d6000fd5b505050506040513d601f19601f82011682018060405250810190620001589190620001a1565b6200016590600a6200020f565b60805250620002e6565b6000602082840312156200018257600080fd5b81516001600160a01b03811681146200019a57600080fd5b9392505050565b600060208284031215620001b457600080fd5b815160ff811681146200019a57600080fd5b600181815b8085111562000207578160001904821115620001eb57620001eb620002d0565b80851615620001f957918102915b93841c9390800290620001cb565b509250929050565b60006200019a60ff8416836000826200022b57506001620002ca565b816200023a57506000620002ca565b81600181146200025357600281146200025e576200027e565b6001915050620002ca565b60ff841115620002725762000272620002d0565b50506001821b620002ca565b5060208310610133831016604e8410600b8410161715620002a3575081810a620002ca565b620002af8383620001c6565b8060001904821115620002c657620002c6620002d0565b0290505b92915050565b634e487b7160e01b600052601160045260246000fd5b60805160a05160601c6143f662000386600039600081816104bf0152818161056f015281816108c001528181610b3601528181610e0101528181610fb4015281816110ea015281816112510152818161139e015281816114c80152818161160d015281816116e301528181611889015281816119f201528181611ab40152611bac0152600081816104fe01528181610d6c0152610f5701526143f66000f3fe60806040523480156200001157600080fd5b5060043610620001e85760003560e01c806375dc7d8c116200010d578063c45a015511620000a3578063dbc5b481116200007a578063dbc5b4811462000520578063e1f1c4a71462000537578063e6a69ab81462000541578063f3fef3a3146200054d57600080fd5b8063c45a015514620004b9578063cce5b64314620004e1578063ce47696f14620004f857600080fd5b80639f1d926711620000e45780639f1d92671462000425578063a00a1034146200043c578063b02b5409146200047c578063b3db428b14620004a257600080fd5b806375dc7d8c14620003e05780639198e51514620003f7578063976ce495146200040e57600080fd5b806338d52e0f11620001835780634b8a3529116200015a5780634b8a35291462000380578063590630f014620003975780635a1de42714620003bf5780635f48f44b14620003d657600080fd5b806338d52e0f146200032557806347e7ef2414620003525780634aa967b0146200036957600080fd5b80631d5f143e11620001c45780631d5f143e146200023a5780631eee3aa3146200025157806322867d78146200026857806331e658a5146200027f57600080fd5b8062ebe35014620001ed5780631a68650214620002065780631be655e81462000223575b600080fd5b62000204620001fe36600462002c65565b62000564565b005b62000210620006e1565b6040519081526020015b60405180910390f35b620002106200023436600462002aac565b62000766565b620002106200024b36600462002aac565b620008a8565b620002106200026236600462002aac565b62000b08565b620002046200027936600462002ce4565b62000dae565b620002df6200029036600462002a6c565b6002602081905260009182526040909120805460018201549282015460038301546004840154600585015460068601546007909601546001600160a01b03909516969593949293919290919088565b604080516001600160a01b0390991689526020890197909752958701949094526060860192909252608085015260a084015260c083015260e0820152610100016200021a565b60015462000339906001600160a01b031681565b6040516001600160a01b0390911681526020016200021a565b620002046200036336600462002ce4565b62000dc1565b620002106200037a36600462002aac565b62000dd3565b620002046200039136600462002ce4565b62000f82565b620003ae620003a836600462002aac565b6200106d565b60405190151581526020016200021a565b62000210620003d036600462002aac565b62001189565b6200021060001981565b62000210620003f136600462002dc0565b6200124c565b620002046200040836600462002a6c565b62001317565b620002046200041f36600462002b42565b6200160b565b620002046200043636600462002b42565b620016e1565b620002106200044d36600462002aac565b6001600160a01b0391821660009081526002602090815260408083209390941682526008909201909152205490565b620004936200048d36600462002b88565b620017b6565b6040516200021a919062002eca565b62000204620004b336600462002b42565b62001887565b620003397f000000000000000000000000000000000000000000000000000000000000000081565b62000204620004f236600462002d13565b6200195d565b620002107f000000000000000000000000000000000000000000000000000000000000000081565b620002046200053136600462002aea565b62001ab2565b6200021061271081565b620002106301e1338081565b620002046200055e36600462002ce4565b62001be4565b336001600160a01b037f00000000000000000000000000000000000000000000000000000000000000001614620005e25760405162461bcd60e51b815260206004820152601b60248201527f53696c6f427269646765506f6f6c3a206f6e6c79466163746f7279000000000060448201526064015b60405180910390fd5b6001600160a01b03831660009081526002602090815260408083208151808301835260078152660213934b233b2960cd1b8185015291519093926200062b929187910162002e65565b60405160208183030381529060405290506000604051806040016040528060078152602001666272696467652d60c81b815250846040516020016200067292919062002e65565b604051602081830303815290604052905081816040516200069390620029dd565b620006a092919062002f25565b604051809103906000f080158015620006bd573d6000803e3d6000fd5b5083546001600160a01b0319166001600160a01b0391909116179092555050505050565b6001546040516370a0823160e01b81523060048201526000916001600160a01b0316906370a082319060240160206040518083038186803b1580156200072657600080fd5b505afa1580156200073b573d6000803e3d6000fd5b505050506040513d601f19601f8201168201806040525081019062000761919062002dda565b905090565b6001600160a01b03828116600090815260026020526040808220805491516370a0823160e01b81528585166004820152929390928492909116906370a082319060240160206040518083038186803b158015620007c257600080fd5b505afa158015620007d7573d6000803e3d6000fd5b505050506040513d601f19601f82011682018060405250810190620007fd919062002dda565b90506200089d82600201548360000160009054906101000a90046001600160a01b03166001600160a01b03166318160ddd6040518163ffffffff1660e01b815260040160206040518083038186803b1580156200085957600080fd5b505afa1580156200086e573d6000803e3d6000fd5b505050506040513d601f19601f8201168201806040525081019062000894919062002dda565b83919062001bf1565b925050505b92915050565b60405163025e1b9b60e31b81523360048201526000907f00000000000000000000000000000000000000000000000000000000000000006001600160a01b0316906312f0dcd89060240160206040518083038186803b1580156200090b57600080fd5b505afa15801562000920573d6000803e3d6000fd5b505050506040513d601f19601f8201168201806040525081019062000946919062002d9c565b620009945760405162461bcd60e51b815260206004820152601860248201527f53696c6f427269646765506f6f6c3a206f6e6c7953696c6f00000000000000006044820152606401620005d9565b33600090815260026020526040808220805491516370a0823160e01b81526001600160a01b03878116600483015291939291909116906370a082319060240160206040518083038186803b158015620009ec57600080fd5b505afa15801562000a01573d6000803e3d6000fd5b505050506040513d601f19601f8201168201806040525081019062000a27919062002dda565b82546040516333bebb7760e01b81526001600160a01b0388811660048301528781166024830152604482018490529293509116906333bebb7790606401602060405180830381600087803b15801562000a7f57600080fd5b505af115801562000a94573d6000803e3d6000fd5b505050506040513d601f19601f8201168201806040525081019062000aba919062002d9c565b5060028201548254604080516318160ddd60e01b815290516200089d93926001600160a01b0316916318160ddd916004808301926020929190829003018186803b1580156200085957600080fd5b60008060026000856001600160a01b03166001600160a01b03168152602001908152602001600020905060007f00000000000000000000000000000000000000000000000000000000000000006001600160a01b0316637dc0d1d06040518163ffffffff1660e01b815260040160206040518083038186803b15801562000b8e57600080fd5b505afa15801562000ba3573d6000803e3d6000fd5b505050506040513d601f19601f8201168201806040525081019062000bc9919062002a8c565b6001546040516341976e0960e01b81526001600160a01b039182166004820152919250600091908316906341976e0990602401602060405180830381600087803b15801562000c1757600080fd5b505af115801562000c2c573d6000803e3d6000fd5b505050506040513d601f19601f8201168201806040525081019062000c52919062002dda565b60028401548454604080516318160ddd60e01b8152905193945060009362000d6893926001600160a01b0316916318160ddd916004808301926020929190829003018186803b15801562000ca557600080fd5b505afa15801562000cba573d6000803e3d6000fd5b505050506040513d601f19601f8201168201806040525081019062000ce0919062002dda565b86546040516370a0823160e01b81526001600160a01b038b81166004830152909116906370a082319060240160206040518083038186803b15801562000d2557600080fd5b505afa15801562000d3a573d6000803e3d6000fd5b505050506040513d601f19601f8201168201806040525081019062000d60919062002dda565b919062001bf1565b90507f000000000000000000000000000000000000000000000000000000000000000062000d97838362003072565b62000da391906200304f565b979650505050505050565b62000dbc8233338462001c2f565b505050565b62000dcf8233338462001de4565b5050565b60008060026000856001600160a01b03166001600160a01b03168152602001908152602001600020905060007f00000000000000000000000000000000000000000000000000000000000000006001600160a01b0316637dc0d1d06040518163ffffffff1660e01b815260040160206040518083038186803b15801562000e5957600080fd5b505afa15801562000e6e573d6000803e3d6000fd5b505050506040513d601f19601f8201168201806040525081019062000e94919062002a8c565b600483015460038401546001600160a01b03871660009081526008860160205260408120549394509262000eca92909162001bf1565b6001546040516341976e0960e01b81526001600160a01b039182166004820152919250600091908416906341976e0990602401602060405180830381600087803b15801562000f1857600080fd5b505af115801562000f2d573d6000803e3d6000fd5b505050506040513d601f19601f8201168201806040525081019062000f53919062002dda565b90507f000000000000000000000000000000000000000000000000000000000000000062000d97828462003072565b81338362000f908162001317565b62000f9e853333876200200d565b50604051631295de1f60e11b81523060048201527f00000000000000000000000000000000000000000000000000000000000000006001600160a01b03169063252bbc3e9060240160206040518083038186803b15801562000fff57600080fd5b505afa15801562001014573d6000803e3d6000fd5b505050506040513d601f19601f820116820180604052508101906200103a919062002dda565b62001046838362001189565b1015620010675760405162461bcd60e51b8152600401620005d99062002f4e565b50505050565b60006001600160a01b038216620010d25760405162461bcd60e51b815260206004820152602260248201527f53696c6f427269646765506f6f6c3a207573657220213d206164647265737328604482015261302960f01b6064820152608401620005d9565b60405163041f3f0560e51b81523060048201526000907f00000000000000000000000000000000000000000000000000000000000000006001600160a01b0316906383e7e0a09060240160206040518083038186803b1580156200113557600080fd5b505afa1580156200114a573d6000803e3d6000fd5b505050506040513d601f19601f8201168201806040525081019062001170919062002dda565b9050806200117f858562001189565b1015949350505050565b60008062001198848462000dd3565b905080620011ac57600019915050620008a2565b604051634bc8272160e11b81526001600160a01b038481166004830152600091908616906397904e4290602401602060405180830381600087803b158015620011f457600080fd5b505af115801562001209573d6000803e3d6000fd5b505050506040513d601f19601f820116820180604052508101906200122f919062002dda565b905081620012406127108362003072565b6200089d91906200304f565b6000807f00000000000000000000000000000000000000000000000000000000000000006001600160a01b031663072ea61c6040518163ffffffff1660e01b815260040160206040518083038186803b158015620012a957600080fd5b505afa158015620012be573d6000803e3d6000fd5b505050506040513d601f19601f82011682018060405250810190620012e4919062002dda565b905080620012f55750600092915050565b61271062001304828562003072565b6200131091906200304f565b9392505050565b6001600160a01b0381166000908152600260205260408120600181015490919062001343904262003094565b9050806200135057505050565b60006301e13380612710838560050154866004015462001371919062003072565b6200137d919062003072565b6200138991906200304f565b6200139591906200304f565b905060006127107f00000000000000000000000000000000000000000000000000000000000000006001600160a01b03166325ed3d446040518163ffffffff1660e01b815260040160206040518083038186803b158015620013f657600080fd5b505afa1580156200140b573d6000803e3d6000fd5b505050506040513d601f19601f8201168201806040525081019062001431919062002dda565b6200143d908462003072565b6200144991906200304f565b9050600062001459828462003094565b90508285600401600082825462001471919062003034565b92505081905550818560060160008282546200148e919062003034565b9250508190555080856002016000828254620014ab919062003034565b90915550506040516354a0577160e01b81523060048201526000907f00000000000000000000000000000000000000000000000000000000000000006001600160a01b0316906354a057719060240160206040518083038186803b1580156200151357600080fd5b505afa15801562001528573d6000803e3d6000fd5b505050506040513d601f19601f820116820180604052508101906200154e919062002a8c565b600487810154600289015460058a015460018b01546040516370ebc61760e11b8152948501939093526024840191909152604483015260648201529091506001600160a01b0382169063e1d78c2e906084016040805180830381600087803b158015620015ba57600080fd5b505af1158015620015cf573d6000803e3d6000fd5b505050506040513d601f19601f82011682018060405250810190620015f5919062002df4565b6001880155600590960195909555505050505050565b7f00000000000000000000000000000000000000000000000000000000000000006001600160a01b031663f887ea406040518163ffffffff1660e01b815260040160206040518083038186803b1580156200166557600080fd5b505afa1580156200167a573d6000803e3d6000fd5b505050506040513d601f19601f82011682018060405250810190620016a0919062002a8c565b6001600160a01b0316336001600160a01b031614620016d35760405162461bcd60e51b8152600401620005d99062002f92565b620010678383338462001c2f565b7f00000000000000000000000000000000000000000000000000000000000000006001600160a01b031663f887ea406040518163ffffffff1660e01b815260040160206040518083038186803b1580156200173b57600080fd5b505afa15801562001750573d6000803e3d6000fd5b505050506040513d601f19601f8201168201806040525081019062001776919062002a8c565b6001600160a01b0316336001600160a01b031614620017a95760405162461bcd60e51b8152600401620005d99062002f92565b62000dbc83838362002206565b606082620017c48162001317565b6000835167ffffffffffffffff811115620017e357620017e362003127565b6040519080825280602002602001820160405280156200180d578160200160208202803683370190505b50845190915060005b818110156200187c57620018478787838151811062001839576200183962003111565b602002602001015162002591565b8382815181106200185c576200185c62003111565b6020908102919091010152806200187381620030dd565b91505062001816565b509095945050505050565b7f00000000000000000000000000000000000000000000000000000000000000006001600160a01b031663f887ea406040518163ffffffff1660e01b815260040160206040518083038186803b158015620018e157600080fd5b505afa158015620018f6573d6000803e3d6000fd5b505050506040513d601f19601f820116820180604052508101906200191c919062002a8c565b6001600160a01b0316336001600160a01b0316146200194f5760405162461bcd60e51b8152600401620005d99062002f92565b62000dbc8383338462001de4565b8333856200196b8162001317565b62001979873333896200200d565b604051633a04425160e11b81526001600160a01b0386169063740884a290620019ab9033908a90899060040162002e98565b600060405180830381600087803b158015620019c657600080fd5b505af1158015620019db573d6000803e3d6000fd5b5050604051631295de1f60e11b81523060048201527f00000000000000000000000000000000000000000000000000000000000000006001600160a01b0316935063252bbc3e925060240190505b60206040518083038186803b15801562001a4257600080fd5b505afa15801562001a57573d6000803e3d6000fd5b505050506040513d601f19601f8201168201806040525081019062001a7d919062002dda565b62001a89838362001189565b101562001aaa5760405162461bcd60e51b8152600401620005d99062002f4e565b505050505050565b7f00000000000000000000000000000000000000000000000000000000000000006001600160a01b031663f887ea406040518163ffffffff1660e01b815260040160206040518083038186803b15801562001b0c57600080fd5b505afa15801562001b21573d6000803e3d6000fd5b505050506040513d601f19601f8201168201806040525081019062001b47919062002a8c565b6001600160a01b0316336001600160a01b03161462001b7a5760405162461bcd60e51b8152600401620005d99062002f92565b83838562001b888162001317565b62001b96878787876200200d565b50604051631295de1f60e11b81523060048201527f00000000000000000000000000000000000000000000000000000000000000006001600160a01b03169063252bbc3e9060240162001a29565b62000dcf82338362002206565b600081158062001bff575082155b1562001c0e5750600062001310565b8162001c1b848662003072565b62001c2791906200304f565b949350505050565b60006002600054141562001c575760405162461bcd60e51b8152600401620005d99062002fc9565b60026000558462001c688162001317565b6001600160a01b03861660009081526002602052604081209060001985141562001cc757506001600160a01b03861660009081526008820160205260409020546004820154600383015462001cbf91839162001bf1565b945062001ce1565b6004820154600383015462001cde91879162002734565b90505b6001600160a01b03871660009081526008830160205260408120805483929062001d0d90849062003094565b925050819055508082600301600082825462001d2a919062003094565b925050819055508482600401600082825462001d47919062003094565b925050819055508482600701600082825462001d64919062003034565b92505081905550866001600160a01b0316886001600160a01b03167f05f2eeda0e08e4b437f487c8d7d29b14537d15e3488170dc3de5dbdf8dac46848760405162001db191815260200190565b60405180910390a360015462001dd3906001600160a01b03168730886200275d565b505060016000555090949350505050565b6002600054141562001e0a5760405162461bcd60e51b8152600401620005d99062002fc9565b60026000558362001e1b8162001317565b600062001e27620006e1565b60015490915062001e44906001600160a01b03168530866200275d565b600062001e50620006e1565b6001600160a01b038816600090815260026020526040902090915062001e77838362003094565b60028201548254604080516318160ddd60e01b8152905193985060009362001f0e93926001600160a01b0316916318160ddd916004808301926020929190829003018186803b15801562001eca57600080fd5b505afa15801562001edf573d6000803e3d6000fd5b505050506040513d601f19601f8201168201806040525081019062001f05919062002dda565b88919062002734565b90508582600201600082825462001f26919062003034565b925050819055508582600701600082825462001f43919062003034565b909155505081546040516340c10f1960e01b81526001600160a01b038a8116600483015260248201849052909116906340c10f1990604401600060405180830381600087803b15801562001f9657600080fd5b505af115801562001fab573d6000803e3d6000fd5b50505050876001600160a01b0316896001600160a01b03167f5548c837ab068cf56a2c2479df0882a4922fd203edb7517321831d95078c5f628860405162001ff591815260200190565b60405180910390a35050600160005550505050505050565b60026000541415620020335760405162461bcd60e51b8152600401620005d99062002fc9565b600260008181556001600160a01b0386168152602091909152604090206007810154821115620020a65760405162461bcd60e51b815260206004820152601e60248201527f53696c6f4272696467653a206c69717569646974792073686f727461676500006044820152606401620005d9565b6000620020b3836200124c565b90506000620020db836004015484600301548487620020d3919062003034565b919062002734565b6001600160a01b03871660009081526008850160205260408120805492935083929091906200210c90849062003034565b925050819055508083600301600082825462002129919062003034565b909155506200213b9050828562003034565b83600401600082825462002150919062003034565b92505081905550818360060160008282546200216d919062003034565b92505081905550838360070160008282546200218a919062003094565b92505081905550856001600160a01b0316876001600160a01b03167f312a5e5e1079f5dda4e95dbbd0b908b291fd5b992ef22073643ab691572c5b5286604051620021d791815260200190565b60405180910390a3600154620021f8906001600160a01b03168686620027ca565b505060016000555050505050565b600260005414156200222c5760405162461bcd60e51b8152600401620005d99062002fc9565b60026000558282816200223f8162001317565b6001600160a01b038616600090815260026020526040812090600019861415620023475781546040516370a0823160e01b81526001600160a01b038981166004830152909116906370a082319060240160206040518083038186803b158015620022a857600080fd5b505afa158015620022bd573d6000803e3d6000fd5b505050506040513d601f19601f82011682018060405250810190620022e3919062002dda565b90506200233f82600201548360000160009054906101000a90046001600160a01b03166001600160a01b03166318160ddd6040518163ffffffff1660e01b815260040160206040518083038186803b1580156200085957600080fd5b955062002397565b60028201548254604080516318160ddd60e01b815290516200239493926001600160a01b0316916318160ddd916004808301926020929190829003018186803b15801562001eca57600080fd5b90505b85826002016000828254620023ad919062003094565b9250508190555085826007016000828254620023ca919062003094565b90915550508154604051632770a7eb60e21b81526001600160a01b0389811660048301526024820184905290911690639dc29fac90604401600060405180830381600087803b1580156200241d57600080fd5b505af115801562002432573d6000803e3d6000fd5b50505050866001600160a01b0316886001600160a01b03167f9b1bfa7fa9ee420a16e124f794c35ac9f90472acc99140eb2f6447c714cad8eb886040516200247c91815260200190565b60405180910390a36001546200249d906001600160a01b03168888620027ca565b50506040516338b51ce160e01b81526001600160a01b038381166004830152841691506338b51ce190602401602060405180830381600087803b158015620024e457600080fd5b505af1158015620024f9573d6000803e3d6000fd5b505050506040513d601f19601f820116820180604052508101906200251f919062002d9c565b620025855760405162461bcd60e51b815260206004820152602f60248201527f53696c6f427269646765506f6f6c3a206e6f7420736f6c7665726e7420696e2060448201526e313934b3b232903837b9b4ba34b7b760891b6064820152608401620005d9565b50506001600055505050565b600060026000541415620025b95760405162461bcd60e51b8152600401620005d99062002fc9565b6002600055620025ca83836200106d565b15620025d95750600062002729565b6000620025eb84843360001962001c2f565b604051630eaf8a1f60e11b81526001600160a01b03858116600483015233602483015291925090851690631d5f143e90604401602060405180830381600087803b1580156200263957600080fd5b505af11580156200264e573d6000803e3d6000fd5b505050506040513d601f19601f8201168201806040525081019062002674919062002dda565b9150826001600160a01b0316846001600160a01b03167ff3fa0eaee8f258c23b013654df25d1527f98a5c7ccd5e951dd77caca400ef9728385604051620026c5929190918252602082015260400190565b60405180910390a3620026d984846200106d565b620027275760405162461bcd60e51b815260206004820181905260248201527f53696c6f427269646765506f6f6c3a2075736572206e6f7420736f6c76656e746044820152606401620005d9565b505b600160005592915050565b600081158062002742575082155b156200275057508262001310565b8262001c1b838662003072565b6040516001600160a01b0380851660248301528316604482015260648101829052620010679085906323b872dd60e01b906084015b60408051601f198184030181529190526020810180516001600160e01b03166001600160e01b031990931692909217909152620027fc565b6040516001600160a01b03831660248201526044810182905262000dbc90849063a9059cbb60e01b9060640162002792565b600062002853826040518060400160405280602081526020017f5361666545524332303a206c6f772d6c6576656c2063616c6c206661696c6564815250856001600160a01b0316620028d59092919063ffffffff16565b80519091501562000dbc578080602001905181019062002874919062002d9c565b62000dbc5760405162461bcd60e51b815260206004820152602a60248201527f5361666545524332303a204552433230206f7065726174696f6e20646964206e6044820152691bdd081cdd58d8d9595960b21b6064820152608401620005d9565b606062001c27848460008585843b620029315760405162461bcd60e51b815260206004820152601d60248201527f416464726573733a2063616c6c20746f206e6f6e2d636f6e74726163740000006044820152606401620005d9565b600080866001600160a01b031685876040516200294f919062002e47565b60006040518083038185875af1925050503d80600081146200298e576040519150601f19603f3d011682016040523d82523d6000602084013e62002993565b606091505b509150915062000da382828660608315620029b057508162001310565b825115620029c15782518084602001fd5b8160405162461bcd60e51b8152600401620005d9919062002f10565b61126a806200315783390190565b600067ffffffffffffffff83111562002a085762002a0862003127565b62002a1d601f8401601f191660200162003000565b905082815283838301111562002a3257600080fd5b828260208301376000602084830101529392505050565b600082601f83011262002a5b57600080fd5b6200131083833560208501620029eb565b60006020828403121562002a7f57600080fd5b813562001310816200313d565b60006020828403121562002a9f57600080fd5b815162001310816200313d565b6000806040838503121562002ac057600080fd5b823562002acd816200313d565b9150602083013562002adf816200313d565b809150509250929050565b6000806000806080858703121562002b0157600080fd5b843562002b0e816200313d565b9350602085013562002b20816200313d565b9250604085013562002b32816200313d565b9396929550929360600135925050565b60008060006060848603121562002b5857600080fd5b833562002b65816200313d565b9250602084013562002b77816200313d565b929592945050506040919091013590565b6000806040838503121562002b9c57600080fd5b823562002ba9816200313d565b915060208381013567ffffffffffffffff8082111562002bc857600080fd5b818601915086601f83011262002bdd57600080fd5b81358181111562002bf25762002bf262003127565b8060051b915062002c0584830162003000565b8181528481019084860184860187018b101562002c2157600080fd5b600095505b8386101562002c54578035945062002c3e856200313d565b8483526001959095019491860191860162002c26565b508096505050505050509250929050565b60008060006060848603121562002c7b57600080fd5b833562002c88816200313d565b9250602084013567ffffffffffffffff8082111562002ca657600080fd5b62002cb48783880162002a49565b9350604086013591508082111562002ccb57600080fd5b5062002cda8682870162002a49565b9150509250925092565b6000806040838503121562002cf857600080fd5b823562002d05816200313d565b946020939093013593505050565b6000806000806080858703121562002d2a57600080fd5b843562002d37816200313d565b935060208501359250604085013562002d50816200313d565b9150606085013567ffffffffffffffff81111562002d6d57600080fd5b8501601f8101871362002d7f57600080fd5b62002d9087823560208401620029eb565b91505092959194509250565b60006020828403121562002daf57600080fd5b815180151581146200131057600080fd5b60006020828403121562002dd357600080fd5b5035919050565b60006020828403121562002ded57600080fd5b5051919050565b6000806040838503121562002e0857600080fd5b505080516020909101519092909150565b6000815180845262002e33816020860160208601620030ae565b601f01601f19169290920160200192915050565b6000825162002e5b818460208701620030ae565b9190910192915050565b6000835162002e79818460208801620030ae565b83519083019062002e8f818360208801620030ae565b01949350505050565b60018060a01b038416815282602082015260606040820152600062002ec1606083018462002e19565b95945050505050565b6020808252825182820181905260009190848201906040850190845b8181101562002f045783518352928401929184019160010162002ee6565b50909695505050505050565b60208152600062001310602083018462002e19565b60408152600062002f3a604083018562002e19565b828103602084015262002ec1818562002e19565b60208082526024908201527f53696c6f4272696467653a2021626f72726f77436f6c6c61746572616c697a616040820152633a34b7b760e11b606082015260800190565b6020808252601a908201527f53696c6f427269646765506f6f6c3a206f6e6c79526f75746572000000000000604082015260600190565b6020808252601f908201527f5265656e7472616e637947756172643a207265656e7472616e742063616c6c00604082015260600190565b604051601f8201601f1916810167ffffffffffffffff811182821017156200302c576200302c62003127565b604052919050565b600082198211156200304a576200304a620030fb565b500190565b6000826200306d57634e487b7160e01b600052601260045260246000fd5b500490565b60008160001904831182151516156200308f576200308f620030fb565b500290565b600082821015620030a957620030a9620030fb565b500390565b60005b83811015620030cb578181015183820152602001620030b1565b83811115620010675750506000910152565b6000600019821415620030f457620030f4620030fb565b5060010190565b634e487b7160e01b600052601160045260246000fd5b634e487b7160e01b600052603260045260246000fd5b634e487b7160e01b600052604160045260246000fd5b6001600160a01b03811681146200315357600080fd5b5056fe60806040523480156200001157600080fd5b506040516200126a3803806200126a83398101604081905262000034916200023b565b8151829082906200004d906003906020850190620000de565b50805162000063906004906020840190620000de565b505050620000806200007a6200008860201b60201c565b6200008c565b5050620002f8565b3390565b600580546001600160a01b038381166001600160a01b0319831681179093556040519116919082907f8be0079c531659141344cd1fd0a4f28419497f9722a3daafe3b4186f6b6457e090600090a35050565b828054620000ec90620002a5565b90600052602060002090601f0160209004810192826200011057600085556200015b565b82601f106200012b57805160ff19168380011785556200015b565b828001600101855582156200015b579182015b828111156200015b5782518255916020019190600101906200013e565b50620001699291506200016d565b5090565b5b808211156200016957600081556001016200016e565b600082601f8301126200019657600080fd5b81516001600160401b0380821115620001b357620001b3620002e2565b604051601f8301601f19908116603f01168101908282118183101715620001de57620001de620002e2565b81604052838152602092508683858801011115620001fb57600080fd5b600091505b838210156200021f578582018301518183018401529082019062000200565b83821115620002315760008385830101525b9695505050505050565b600080604083850312156200024f57600080fd5b82516001600160401b03808211156200026757600080fd5b620002758683870162000184565b935060208501519150808211156200028c57600080fd5b506200029b8582860162000184565b9150509250929050565b600181811c90821680620002ba57607f821691505b60208210811415620002dc57634e487b7160e01b600052602260045260246000fd5b50919050565b634e487b7160e01b600052604160045260246000fd5b610f6280620003086000396000f3fe608060405234801561001057600080fd5b506004361061012c5760003560e01c8063715018a6116100ad578063a457c2d711610071578063a457c2d71461026d578063a9059cbb14610280578063dd62ed3e14610293578063e30c3978146102cc578063f2fde38b146102dd57600080fd5b8063715018a61461021d57806379ba5097146102255780638da5cb5b1461022d57806395d89b41146102525780639dc29fac1461025a57600080fd5b80633278c694116100f45780633278c694146101a657806333bebb77146101bb57806339509351146101ce57806340c10f19146101e157806370a08231146101f457600080fd5b806306fdde0314610131578063095ea7b31461014f57806318160ddd1461017257806323b872dd14610184578063313ce56714610197575b600080fd5b6101396102f0565b6040516101469190610e22565b60405180910390f35b61016261015d366004610df8565b610382565b6040519015158152602001610146565b6002545b604051908152602001610146565b610162610192366004610dbc565b610398565b60405160128152602001610146565b6101b96101b4366004610d67565b610447565b005b6101626101c9366004610dbc565b6104e4565b6101626101dc366004610df8565b610526565b6101b96101ef366004610df8565b610562565b610176610202366004610d67565b6001600160a01b031660009081526020819052604090205490565b6101b961059a565b6101b96105d0565b6005546001600160a01b03165b6040516001600160a01b039091168152602001610146565b610139610666565b6101b9610268366004610df8565b610675565b61016261027b366004610df8565b6106a9565b61016261028e366004610df8565b610738565b6101766102a1366004610d89565b6001600160a01b03918216600090815260016020908152604080832093909416825291909152205490565b6006546001600160a01b031661023a565b6101b96102eb366004610d67565b610745565b6060600380546102ff90610edb565b80601f016020809104026020016040519081016040528092919081815260200182805461032b90610edb565b80156103785780601f1061034d57610100808354040283529160200191610378565b820191906000526020600020905b81548152906001019060200180831161035b57829003601f168201915b5050505050905090565b600061038f3384846107e0565b50600192915050565b60006103a5848484610905565b6001600160a01b03841660009081526001602090815260408083203384529091529020548281101561042f5760405162461bcd60e51b815260206004820152602860248201527f45524332303a207472616e7366657220616d6f756e74206578636565647320616044820152676c6c6f77616e636560c01b60648201526084015b60405180910390fd5b61043c85338584036107e0565b506001949350505050565b6005546001600160a01b031633146104715760405162461bcd60e51b815260040161042690610e77565b806001600160a01b031661048d6005546001600160a01b031690565b6001600160a01b03167f3c672e6c16e239c29e969deaf4eae15d7002350bf5490175e7481155af04c83a60405160405180910390a3600680546001600160a01b0319166001600160a01b0392909216919091179055565b6005546000906001600160a01b031633146105115760405162461bcd60e51b815260040161042690610e77565b61051c848484610905565b5060019392505050565b3360008181526001602090815260408083206001600160a01b0387168452909152812054909161038f91859061055d908690610eac565b6107e0565b6005546001600160a01b0316331461058c5760405162461bcd60e51b815260040161042690610e77565b6105968282610ad4565b5050565b6005546001600160a01b031633146105c45760405162461bcd60e51b815260040161042690610e77565b6105ce6000610bb3565b565b6006546001600160a01b0316331461063a5760405162461bcd60e51b815260206004820152602760248201527f4f776e61626c653a2063616c6c6572206973206e6f74207468652070656e64696044820152663733a7bbb732b960c91b6064820152608401610426565b61065461064f6006546001600160a01b031690565b610bb3565b600680546001600160a01b0319169055565b6060600480546102ff90610edb565b6005546001600160a01b0316331461069f5760405162461bcd60e51b815260040161042690610e77565b6105968282610c05565b3360009081526001602090815260408083206001600160a01b03861684529091528120548281101561072b5760405162461bcd60e51b815260206004820152602560248201527f45524332303a2064656372656173656420616c6c6f77616e63652062656c6f77604482015264207a65726f60d81b6064820152608401610426565b61051c33858584036107e0565b600061038f338484610905565b6005546001600160a01b0316331461076f5760405162461bcd60e51b815260040161042690610e77565b6001600160a01b0381166107d45760405162461bcd60e51b815260206004820152602660248201527f4f776e61626c653a206e6577206f776e657220697320746865207a65726f206160448201526564647265737360d01b6064820152608401610426565b6107dd81610bb3565b50565b6001600160a01b0383166108425760405162461bcd60e51b8152602060048201526024808201527f45524332303a20617070726f76652066726f6d20746865207a65726f206164646044820152637265737360e01b6064820152608401610426565b6001600160a01b0382166108a35760405162461bcd60e51b815260206004820152602260248201527f45524332303a20617070726f766520746f20746865207a65726f206164647265604482015261737360f01b6064820152608401610426565b6001600160a01b0383811660008181526001602090815260408083209487168084529482529182902085905590518481527f8c5be1e5ebec7d5bd14f71427d1e84f3dd0314c0f7b2291e5b200ac8c7c3b92591015b60405180910390a3505050565b6001600160a01b0383166109695760405162461bcd60e51b815260206004820152602560248201527f45524332303a207472616e736665722066726f6d20746865207a65726f206164604482015264647265737360d81b6064820152608401610426565b6001600160a01b0382166109cb5760405162461bcd60e51b815260206004820152602360248201527f45524332303a207472616e7366657220746f20746865207a65726f206164647260448201526265737360e81b6064820152608401610426565b6001600160a01b03831660009081526020819052604090205481811015610a435760405162461bcd60e51b815260206004820152602660248201527f45524332303a207472616e7366657220616d6f756e7420657863656564732062604482015265616c616e636560d01b6064820152608401610426565b6001600160a01b03808516600090815260208190526040808220858503905591851681529081208054849290610a7a908490610eac565b92505081905550826001600160a01b0316846001600160a01b03167fddf252ad1be2c89b69c2b068fc378daa952ba7f163c4a11628f55a4df523b3ef84604051610ac691815260200190565b60405180910390a350505050565b6001600160a01b038216610b2a5760405162461bcd60e51b815260206004820152601f60248201527f45524332303a206d696e7420746f20746865207a65726f2061646472657373006044820152606401610426565b8060026000828254610b3c9190610eac565b90915550506001600160a01b03821660009081526020819052604081208054839290610b69908490610eac565b90915550506040518181526001600160a01b038316906000907fddf252ad1be2c89b69c2b068fc378daa952ba7f163c4a11628f55a4df523b3ef9060200160405180910390a35050565b600580546001600160a01b038381166001600160a01b0319831681179093556040519116919082907f8be0079c531659141344cd1fd0a4f28419497f9722a3daafe3b4186f6b6457e090600090a35050565b6001600160a01b038216610c655760405162461bcd60e51b815260206004820152602160248201527f45524332303a206275726e2066726f6d20746865207a65726f206164647265736044820152607360f81b6064820152608401610426565b6001600160a01b03821660009081526020819052604090205481811015610cd95760405162461bcd60e51b815260206004820152602260248201527f45524332303a206275726e20616d6f756e7420657863656564732062616c616e604482015261636560f01b6064820152608401610426565b6001600160a01b0383166000908152602081905260408120838303905560028054849290610d08908490610ec4565b90915550506040518281526000906001600160a01b038516907fddf252ad1be2c89b69c2b068fc378daa952ba7f163c4a11628f55a4df523b3ef906020016108f8565b80356001600160a01b0381168114610d6257600080fd5b919050565b600060208284031215610d7957600080fd5b610d8282610d4b565b9392505050565b60008060408385031215610d9c57600080fd5b610da583610d4b565b9150610db360208401610d4b565b90509250929050565b600080600060608486031215610dd157600080fd5b610dda84610d4b565b9250610de860208501610d4b565b9150604084013590509250925092565b60008060408385031215610e0b57600080fd5b610e1483610d4b565b946020939093013593505050565b600060208083528351808285015260005b81811015610e4f57858101830151858201604001528201610e33565b81811115610e61576000604083870101525b50601f01601f1916929092016040019392505050565b6020808252818101527f4f776e61626c653a2063616c6c6572206973206e6f7420746865206f776e6572604082015260600190565b60008219821115610ebf57610ebf610f16565b500190565b600082821015610ed657610ed6610f16565b500390565b600181811c90821680610eef57607f821691505b60208210811415610f1057634e487b7160e01b600052602260045260246000fd5b50919050565b634e487b7160e01b600052601160045260246000fdfea26469706673582212204054dc0336c71ac7a5912958bffeb43380718ad832ce108ef436d16ca81360a764736f6c63430008070033a2646970667358221220372d5ea6f30aecc3cf16518ce344956435eb0ac866071f0851f84f780a065a9064736f6c63430008070033",
  "devdoc": {
    "kind": "dev",
    "methods": {
      "getCollateralValue(address,address)": {
        "details": "value of collateral (asset) provided by user"
      },
      "getCollateralization(address,address)": {
        "details": "ratio between value borrowed by user in this silo to collateral value provided in bridge pool for this silo"
      },
      "getDebtValue(address,address)": {
        "details": "value of asset borrowed by user"
      }
    },
    "version": 1
  },
  "userdoc": {
    "kind": "user",
    "methods": {},
    "version": 1
  },
  "storageLayout": {
    "storage": [
      {
        "astId": 732,
        "contract": "contracts/SiloBridgePool.sol:SiloBridgePool",
        "label": "_status",
        "offset": 0,
        "slot": "0",
        "type": "t_uint256"
      },
      {
        "astId": 5342,
        "contract": "contracts/SiloBridgePool.sol:SiloBridgePool",
        "label": "asset",
        "offset": 0,
        "slot": "1",
        "type": "t_address"
      },
      {
        "astId": 5369,
        "contract": "contracts/SiloBridgePool.sol:SiloBridgePool",
        "label": "state",
        "offset": 0,
        "slot": "2",
        "type": "t_mapping(t_address,t_struct(BridgeSiloStorage)5364_storage)"
      }
    ],
    "types": {
      "t_address": {
        "encoding": "inplace",
        "label": "address",
        "numberOfBytes": "20"
      },
      "t_contract(BridgeERC20)8572": {
        "encoding": "inplace",
        "label": "contract BridgeERC20",
        "numberOfBytes": "20"
      },
      "t_mapping(t_address,t_struct(BridgeSiloStorage)5364_storage)": {
        "encoding": "mapping",
        "key": "t_address",
        "label": "mapping(address => struct SiloBridgePool.BridgeSiloStorage)",
        "numberOfBytes": "32",
        "value": "t_struct(BridgeSiloStorage)5364_storage"
      },
      "t_mapping(t_address,t_uint256)": {
        "encoding": "mapping",
        "key": "t_address",
        "label": "mapping(address => uint256)",
        "numberOfBytes": "32",
        "value": "t_uint256"
      },
      "t_struct(BridgeSiloStorage)5364_storage": {
        "encoding": "inplace",
        "label": "struct SiloBridgePool.BridgeSiloStorage",
        "members": [
          {
            "astId": 5345,
            "contract": "contracts/SiloBridgePool.sol:SiloBridgePool",
            "label": "token",
            "offset": 0,
            "slot": "0",
            "type": "t_contract(BridgeERC20)8572"
          },
          {
            "astId": 5347,
            "contract": "contracts/SiloBridgePool.sol:SiloBridgePool",
            "label": "lastUpdateTimestamp",
            "offset": 0,
            "slot": "1",
            "type": "t_uint256"
          },
          {
            "astId": 5349,
            "contract": "contracts/SiloBridgePool.sol:SiloBridgePool",
            "label": "totalDeposits",
            "offset": 0,
            "slot": "2",
            "type": "t_uint256"
          },
          {
            "astId": 5351,
            "contract": "contracts/SiloBridgePool.sol:SiloBridgePool",
            "label": "totalBorrowShare",
            "offset": 0,
            "slot": "3",
            "type": "t_uint256"
          },
          {
            "astId": 5353,
            "contract": "contracts/SiloBridgePool.sol:SiloBridgePool",
            "label": "totalBorrowAmount",
            "offset": 0,
            "slot": "4",
            "type": "t_uint256"
          },
          {
            "astId": 5355,
            "contract": "contracts/SiloBridgePool.sol:SiloBridgePool",
            "label": "interestRate",
            "offset": 0,
            "slot": "5",
            "type": "t_uint256"
          },
          {
            "astId": 5357,
            "contract": "contracts/SiloBridgePool.sol:SiloBridgePool",
            "label": "protocolFees",
            "offset": 0,
            "slot": "6",
            "type": "t_uint256"
          },
          {
            "astId": 5359,
            "contract": "contracts/SiloBridgePool.sol:SiloBridgePool",
            "label": "liquidity",
            "offset": 0,
            "slot": "7",
            "type": "t_uint256"
          },
          {
            "astId": 5363,
            "contract": "contracts/SiloBridgePool.sol:SiloBridgePool",
            "label": "borrowShare",
            "offset": 0,
            "slot": "8",
            "type": "t_mapping(t_address,t_uint256)"
          }
        ],
        "numberOfBytes": "288"
      },
      "t_uint256": {
        "encoding": "inplace",
        "label": "uint256",
        "numberOfBytes": "32"
      }
    }
  }
}