{
  "address": "0x4aFe35da94692D6be34ACD950360455f79066939",
  "abi": [
    {
      "anonymous": false,
      "inputs": [
        {
          "indexed": true,
          "internalType": "address",
          "name": "silo",
          "type": "address"
        },
        {
          "indexed": true,
          "internalType": "address",
          "name": "asset",
          "type": "address"
        }
      ],
      "name": "NewSiloCreated",
      "type": "event"
    },
    {
      "inputs": [
        {
          "internalType": "address",
          "name": "_siloAsset",
          "type": "address"
        },
        {
          "internalType": "bytes",
          "name": "",
          "type": "bytes"
        }
      ],
      "name": "createSilo",
      "outputs": [
        {
          "internalType": "address",
          "name": "silo",
          "type": "address"
        }
      ],
      "stateMutability": "nonpayable",
      "type": "function"
    },
    {
      "inputs": [],
      "name": "siloFactoryPing",
      "outputs": [
        {
          "internalType": "bool",
          "name": "",
          "type": "bool"
        }
      ],
      "stateMutability": "pure",
      "type": "function"
    }
  ],
  "transactionHash": "0x5b3bc3095649267686ce237b356c7c829d65d61594d3fc5f977f574966d38927",
  "args": [],
  "numDeployments": 2,
  "solcInputHash": "4e6ec95f1876ffdb5c89e088426a74e9",
  "bytecode": "0x608060405234801561001057600080fd5b50615f96806100206000396000f3fe608060405234801561001057600080fd5b50600436106100365760003560e01c8063130a1df91461003b5780635a0c4de41461006b575b600080fd5b61004e610049366004610167565b61007a565b6040516001600160a01b0390911681526020015b60405180910390f35b60405160018152602001610062565b6000323314156100d05760405162461bcd60e51b815260206004820152601a60248201527f53696c6f466163746f72793a206e6f20706f6c6c7574696f6e21000000000000604482015260640160405180910390fd5b33836040516100de9061015a565b6001600160a01b03928316815291166020820152604001604051809103906000f080158015610111573d6000803e3d6000fd5b509050826001600160a01b0316816001600160a01b03167fc9acd774c7fdaab3cff18a2b74905d6ffa85f25e7723ed9363b9c532c78bc4d360405160405180910390a392915050565b615d138061024e83390190565b6000806040838503121561017a57600080fd5b82356001600160a01b038116811461019157600080fd5b9150602083013567ffffffffffffffff808211156101ae57600080fd5b818501915085601f8301126101c257600080fd5b8135818111156101d4576101d4610237565b604051601f8201601f19908116603f011681019083821181831017156101fc576101fc610237565b8160405282815288602084870101111561021557600080fd5b8260208601602083013760006020848301015280955050505050509250929050565b634e487b7160e01b600052604160045260246000fdfe60e06040523480156200001157600080fd5b5060405162005d1338038062005d13833981016040819052620000349162000305565b818160016000819055506200005c8263e99ed41d60e01b6200014260201b6200126e1760201c565b620000ae5760405162461bcd60e51b815260206004820152601360248201527f696e76616c6964205f7265706f7369746f72790000000000000000000000000060448201526064015b60405180910390fd5b6000620000c6826200021560201b620013361760201c565b9050806200010c5760405162461bcd60e51b81526020600482015260126024820152711a5b9d985b1a590817dcda5b1bd05cdcd95d60721b6044820152606401620000a5565b6001600160601b0319606084811b821660a05283901b1660c0526200013381600a62000409565b60805250620004db9350505050565b60006001600160a01b0383166200015c575060006200020f565b60408051600481526024810182526020810180516001600160e01b03166001600160e01b03198616179052905160009182916001600160a01b03871691620001a49162000382565b600060405180830381855afa9150503d8060008114620001e1576040519150601f19603f3d011682016040523d82523d6000602084013e620001e6565b606091505b50915091508180156200020a5750808060200190518101906200020a91906200033d565b925050505b92915050565b60006001600160a01b0382166200022e57506000919050565b60408051600481526024810182526020810180516001600160e01b031663313ce56760e01b179052905160009182916001600160a01b03861691620002739162000382565b600060405180830381855afa9150503d8060008114620002b0576040519150601f19603f3d011682016040523d82523d6000602084013e620002b5565b606091505b509150915081620002ca575060009392505050565b80806020019051810190620002e0919062000368565b949350505050565b80516001600160a01b03811681146200030057600080fd5b919050565b600080604083850312156200031957600080fd5b6200032483620002e8565b91506200033460208401620002e8565b90509250929050565b6000602082840312156200035057600080fd5b815180151581146200036157600080fd5b9392505050565b6000602082840312156200037b57600080fd5b5051919050565b6000825160005b81811015620003a5576020818601810151858301520162000389565b81811115620003b5576000828501525b509190910192915050565b600181815b8085111562000401578160001904821115620003e557620003e5620004c5565b80851615620003f357918102915b93841c9390800290620003c5565b509250929050565b600062000361838360008262000422575060016200020f565b8162000431575060006200020f565b81600181146200044a5760028114620004555762000475565b60019150506200020f565b60ff841115620004695762000469620004c5565b50506001821b6200020f565b5060208310610133831016604e8410600b84101617156200049a575081810a6200020f565b620004a68383620003c0565b8060001904821115620004bd57620004bd620004c5565b029392505050565b634e487b7160e01b600052601160045260246000fd5b60805160a05160601c60c05160601c6157766200059d600039600081816102da01528181610ad3015281816128f701528181612935015261385a015260008181610411015281816105dd01528181610a3001528181610c8c01528181610ddc01528181610eb6015281816111a201528181611ca701528181611d5e015281816120670152818161231d015281816124a40152818161285e0152818161295f015281816134690152818161353801526136490152600061043801526157766000f3fe608060405234801561001057600080fd5b50600436106101c45760003560e01c8063a388991b116100f9578063ead5d35911610097578063f87c3aa811610071578063f87c3aa8146104d4578063fb25570314610512578063fbf178db14610532578063ffa1ad741461054557600080fd5b8063ead5d3591461049b578063f364181c146104ae578063f3d470c2146104c157600080fd5b8063bde12718116100d3578063bde127181461040c578063be8be47d14610433578063bf27304114610468578063dbc5b4811461048857600080fd5b8063a388991b146103de578063a6e08aa1146103e6578063a7400918146103f957600080fd5b806364654cf5116101665780639198e515116101405780639198e5151461038e57806393a94ca3146103a1578063976ce495146103c3578063a1dfa423146103d657600080fd5b806364654cf51461030f57806367e4ac2c146103255780636ce5437d1461033a57600080fd5b80633edd1128116101a25780633edd11281461029757806340839cb1146102aa5780634521c019146102d55780634b8a3529146102fc57600080fd5b806322867d78146101c957806331e658a5146101de57806338b51ce114610274575b600080fd5b6101dc6101d7366004614d24565b61054d565b005b6102316101ec366004614b64565b60026020819052600091825260409091208054600182015492820154600383015460048401546005909401546001600160a01b03938416958416949390921692909186565b604080516001600160a01b039788168152958716602087015293909516928401929092526060830152608082015260a081019190915260c0015b60405180910390f35b610287610282366004614b64565b61055e565b604051901515815260200161026b565b6101dc6102a5366004614d50565b610645565b6102bd6102b8366004614ff8565b610652565b6040516001600160a01b03909116815260200161026b565b6102bd7f000000000000000000000000000000000000000000000000000000000000000081565b6101dc61030a366004614d24565b61067c565b61031761068c565b60405161026b929190615315565b61032d61080c565b60405161026b91906152c9565b61037e610348366004614b64565b6003602052600090815260409020805460018201546002909201549091906001600160401b03811690600160401b900460ff1684565b60405161026b949392919061546f565b6101dc61039c366004614b64565b61086e565b6103b46103af366004614ea6565b61087b565b60405161026b939291906152dc565b6101dc6103d1366004614c90565b6109af565b6101dc610a22565b6101dc610a2c565b6102876103f4366004614b9e565b610ba8565b6101dc610407366004614d92565b610c88565b6102bd7f000000000000000000000000000000000000000000000000000000000000000081565b61045a7f000000000000000000000000000000000000000000000000000000000000000081565b60405190815260200161026b565b61047b610476366004614b64565b610d6a565b60405161026b9190615461565b6101dc610496366004614bd7565b610dda565b6101dc6104a9366004614d50565b610ea7565b6101dc6104bc366004614c28565b610eb4565b6102876104cf366004614b9e565b610f8a565b6104e76104e2366004614b64565b611070565b604080518251815260208084015190820152918101516001600160401b03169082015260600161026b565b610525610520366004614b64565b6110f0565b60405161026b919061541f565b6101dc610540366004614cd1565b6111a0565b61045a600081565b61055982333384611401565b505050565b60006001600160a01b0382166105bb5760405162461bcd60e51b815260206004820152601c60248201527f4261736553696c6f3a207573657220213d20616464726573732830290000000060448201526064015b60405180910390fd5b6000806105c661068c565b915091506000806106396040518060a001604052807f00000000000000000000000000000000000000000000000000000000000000006001600160a01b03168152602001306001600160a01b03168152602001868152602001858152602001886001600160a01b03168152506001611732565b10159695505050505050565b61055983333385856118a8565b6001818154811061066257600080fd5b6000918252602090912001546001600160a01b0316905081565b61068882333384611f6e565b5050565b60608060018054806020026020016040519081016040528092919081815260200182805480156106e557602002820191906000526020600020905b81546001600160a01b031681526001909101906020018083116106c7575b5050505050915081516001600160401b0381111561070557610705615707565b60405190808252806020026020018201604052801561073e57816020015b61072b614abd565b8152602001906001900390816107235790505b50905060005b82518110156108075760026000848381518110610763576107636156f1565b6020908102919091018101516001600160a01b039081168352828201939093526040918201600020825160c0810184528154851681526001820154851692810192909252600281015490931691810191909152600382015460608201526004820154608082015260059091015460a082015282518390839081106107e9576107e96156f1565b602002602001018190525080806107ff906156aa565b915050610744565b509091565b6060600180548060200260200160405190810160405280929190818152602001828054801561086457602002820191906000526020600020905b81546001600160a01b03168152600190910190602001808311610846575b5050505050905090565b61087881426122f8565b50565b606080606061088861080c565b8551909350806001600160401b038111156108a5576108a5615707565b6040519080825280602002602001820160405280156108d857816020015b60608152602001906001900390816108c35790505b509250806001600160401b038111156108f3576108f3615707565b60405190808252806020026020018201604052801561092657816020015b60608152602001906001900390816109115790505b50915060005b818110156109a6576109598588838151811061094a5761094a6156f1565b602002602001015133896125f3565b85838151811061096b5761096b6156f1565b60200260200101858481518110610984576109846156f1565b602002602001018290528290525050808061099e906156aa565b91505061092c565b50509250925092565b6109b88261055e565b15610a105760405162461bcd60e51b815260206004820152602260248201527f53696c6f2e7265706179466f723a20626f72726f77657220697320736f6c76656044820152611b9d60f21b60648201526084016105b2565b610a1c83833384611401565b50505050565b610a2a61285a565b565b60007f00000000000000000000000000000000000000000000000000000000000000006001600160a01b031663296041ea6040518163ffffffff1660e01b815260040160006040518083038186803b158015610a8757600080fd5b505afa158015610a9b573d6000803e3d6000fd5b505050506040513d6000823e601f3d908101601f19168201604052610ac39190810190614e06565b905060005b8151811015610b9f577f00000000000000000000000000000000000000000000000000000000000000006001600160a01b0316828281518110610b0d57610b0d6156f1565b60200260200101516001600160a01b031614610b8d57600260036000848481518110610b3b57610b3b6156f1565b60200260200101516001600160a01b03166001600160a01b0316815260200190815260200160002060020160086101000a81548160ff02191690836002811115610b8757610b876156db565b02179055505b80610b97816156aa565b915050610ac8565b5061087861285a565b6001600160a01b0382811660009081526002602081905260408083209091015490516370a0823160e01b81528484166004820152919216906370a08231906024015b60206040518083038186803b158015610c0257600080fd5b505afa158015610c16573d6000803e3d6000fd5b505050506040513d601f19601f82011682018060405250810190610c3a9190615011565b158015610c7f575060015b6001600160a01b0384166000908152600360205260409020600290810154600160401b900460ff1690811115610c7d57610c7d6156db565b145b90505b92915050565b60007f00000000000000000000000000000000000000000000000000000000000000006001600160a01b0316638da5cb5b6040518163ffffffff1660e01b815260040160206040518083038186803b158015610ce357600080fd5b505afa158015610cf7573d6000803e3d6000fd5b505050506040513d601f19601f82011682018060405250810190610d1b9190614b81565b905060005b82811015610a1c57610d58848483818110610d3d57610d3d6156f1565b9050602002016020810190610d529190614b64565b83612a86565b80610d62816156aa565b915050610d20565b610d72614abd565b506001600160a01b03908116600090815260026020818152604092839020835160c0810185528154861681526001820154861692810192909252918201549093169183019190915260038101546060830152600481015460808301526005015460a082015290565b7f00000000000000000000000000000000000000000000000000000000000000006001600160a01b031663f887ea406040518163ffffffff1660e01b815260040160206040518083038186803b158015610e3357600080fd5b505afa158015610e47573d6000803e3d6000fd5b505050506040513d601f19601f82011682018060405250810190610e6b9190614b81565b6001600160a01b0316336001600160a01b031614610e9b5760405162461bcd60e51b81526004016105b2906153ba565b610a1c84848484611f6e565b610a1c8333338585612adf565b7f00000000000000000000000000000000000000000000000000000000000000006001600160a01b031663f887ea406040518163ffffffff1660e01b815260040160206040518083038186803b158015610f0d57600080fd5b505afa158015610f21573d6000803e3d6000fd5b505050506040513d601f19601f82011682018060405250810190610f459190614b81565b6001600160a01b0316336001600160a01b031614610f755760405162461bcd60e51b81526004016105b2906153ba565b610f828585858585612adf565b505050505050565b6001600160a01b038281166000908152600260205260408082205490516370a0823160e01b81528484166004820152919216906370a082319060240160206040518083038186803b158015610fde57600080fd5b505afa158015610ff2573d6000803e3d6000fd5b505050506040513d601f19601f820116820180604052508101906110169190615011565b15801561106257506001600160a01b03838116600090815260026020526040908190206001015490516370a0823160e01b815284831660048201529116906370a0823190602401610bea565b8015610c7f57506001610c45565b61109d6040518060600160405280600081526020016000815260200160006001600160401b031681525090565b50604080516060810182526001600160a01b039092166000818152600260208181528483206003808201548852600590910154828801529383529290925282902001546001600160401b03169082015290565b6111186040805160808101825260008082526020820181905291810182905290606082015290565b6001600160a01b0382166000908152600360209081526040918290208251608081018452815481526001820154928101929092526002808201546001600160401b03811694840194909452919290916060840191600160401b900460ff1690811115611186576111866156db565b6002811115611197576111976156db565b90525092915050565b7f00000000000000000000000000000000000000000000000000000000000000006001600160a01b031663f887ea406040518163ffffffff1660e01b815260040160206040518083038186803b1580156111f957600080fd5b505afa15801561120d573d6000803e3d6000fd5b505050506040513d601f19601f820116820180604052508101906112319190614b81565b6001600160a01b0316336001600160a01b0316146112615760405162461bcd60e51b81526004016105b2906153ba565b610a1c84338585856118a8565b60006001600160a01b03831661128657506000610c82565b60408051600481526024810182526020810180516001600160e01b03166001600160e01b03198616179052905160009182916001600160a01b038716916112cc916151ae565b600060405180830381855afa9150503d8060008114611307576040519150601f19603f3d011682016040523d82523d6000602084013e61130c565b606091505b509150915081801561132d57508080602001905181019061132d9190614f6e565b95945050505050565b60006001600160a01b03821661134e57506000919050565b60408051600481526024810182526020810180516001600160e01b031663313ce56760e01b179052905160009182916001600160a01b03861691611391916151ae565b600060405180830381855afa9150503d80600081146113cc576040519150601f19603f3d011682016040523d82523d6000602084013e6113d1565b606091505b5091509150816113e5575060009392505050565b808060200190518101906113f99190615011565b949350505050565b600084816001600160a01b0382166000908152600360205260409020600290810154600160401b900460ff169081111561143d5761143d6156db565b141561148b5760405162461bcd60e51b815260206004820152601e60248201527f4261736553696c6f3a20617373657420646f6573206e6f74206578697374000060448201526064016105b2565b61149586426122f8565b6001600160a01b0386166000908152600260205260408120906114b9828887612d0b565b9095509050806114ce57600093505050611729565b866001600160a01b0316886001600160a01b03167f05f2eeda0e08e4b437f487c8d7d29b14537d15e3488170dc3de5dbdf8dac46848760405161151391815260200190565b60405180910390a36040516370a0823160e01b81523060048201526000906001600160a01b038a16906370a082319060240160206040518083038186803b15801561155d57600080fd5b505afa158015611571573d6000803e3d6000fd5b505050506040513d601f19601f820116820180604052508101906115959190615011565b90506115ac6001600160a01b038a16883089612e85565b6040516370a0823160e01b81523060048201526000906001600160a01b038b16906370a082319060240160206040518083038186803b1580156115ee57600080fd5b505afa158015611602573d6000803e3d6000fd5b505050506040513d601f19601f820116820180604052508101906116269190615011565b9050866116338383615667565b10156116a05760405162461bcd60e51b815260206004820152603660248201527f53696c6f3a207472616e7366657272656420616d6f756e74206973206c6f77656044820152751c881d1a185d081c995c5d5a5c995908185b5bdd5b9d60521b60648201526084016105b2565b6002840154604051632770a7eb60e21b81526001600160a01b038b811660048301526024820186905290911690639dc29fac90604401600060405180830381600087803b1580156116f057600080fd5b505af1158015611704573d6000803e3d6000fd5b505050508684600501600082825461171c9190615667565b9091555087965050505050505b50949350505050565b600080600061174085612ef0565b905061174b8161300c565b61175c5760008092509250506118a1565b600085600001516001600160a01b0316635ddf2be36040518163ffffffff1660e01b815260040160206040518083038186803b15801561179b57600080fd5b505afa1580156117af573d6000803e3d6000fd5b505050506040513d601f19601f820116820180604052508101906117d39190614b81565b905060006117e682886040015185613052565b905060006117f38261300c565b90508061180a5760008095509550505050506118a1565b6000611816848a613290565b905060006118238261300c565b90508061183e576000196000975097505050505050506118a1565b60006118598b600001518c602001518d604001518d876132ae565b90508161186e670de0b6b3a764000086615648565b611878919061552b565b98508161188d670de0b6b3a764000083615648565b611897919061552b565b9750505050505050505b9250929050565b600260005414156118cb5760405162461bcd60e51b81526004016105b2906153e8565b6002600055846118db81426122f8565b6118e58685610ba8565b6119285760405162461bcd60e51b81526020600482015260146024820152734465706f7369744e6f74506f737369626c65282960601b60448201526064016105b2565b6001600160a01b03861660008181526002602052604080822090516370a0823160e01b81523060048201529092906370a082319060240160206040518083038186803b15801561197757600080fd5b505afa15801561198b573d6000803e3d6000fd5b505050506040513d601f19601f820116820180604052508101906119af9190615011565b90506119c66001600160a01b038916883088612e85565b6040516370a0823160e01b81523060048201526000906001600160a01b038a16906370a082319060240160206040518083038186803b158015611a0857600080fd5b505afa158015611a1c573d6000803e3d6000fd5b505050506040513d601f19601f82011682018060405250810190611a409190615011565b9050611a4c8282615667565b9550600085611a5f578360030154611a65565b83600401545b90508515611b87576000611b03828660010160009054906101000a90046001600160a01b03166001600160a01b03166318160ddd6040518163ffffffff1660e01b815260040160206040518083038186803b158015611ac357600080fd5b505afa158015611ad7573d6000803e3d6000fd5b505050506040513d601f19601f82011682018060405250810190611afb9190615011565b8a9190613345565b9050611b0f8883615513565b60048681019190915560018601546040516340c10f1960e01b81526001600160a01b038c811693820193909352602481018490529116906340c10f1990604401600060405180830381600087803b158015611b6957600080fd5b505af1158015611b7d573d6000803e3d6000fd5b5050505050611c55565b6000611bdd828660000160009054906101000a90046001600160a01b03166001600160a01b03166318160ddd6040518163ffffffff1660e01b815260040160206040518083038186803b158015611ac357600080fd5b9050611be98883615513565b600386015584546040516340c10f1960e01b81526001600160a01b038b8116600483015260248201849052909116906340c10f1990604401600060405180830381600087803b158015611c3b57600080fd5b505af1158015611c4f573d6000803e3d6000fd5b50505050505b6040805188815287151560208201526001600160a01b03808b1692908d16917fdd160bb401ec5b5e5ca443d41e8e7182f3fe72d70a04b9c0ba844483d212bcb5910160405180910390a35050505060007f00000000000000000000000000000000000000000000000000000000000000006001600160a01b0316635ddf2be36040518163ffffffff1660e01b815260040160206040518083038186803b158015611cfe57600080fd5b505afa158015611d12573d6000803e3d6000fd5b505050506040513d601f19601f82011682018060405250810190611d369190614b81565b604051635b26eec960e11b81523060048201526001600160a01b0384811660248301529192507f00000000000000000000000000000000000000000000000000000000000000009091169063b64ddd929060440160206040518083038186803b158015611da257600080fd5b505afa158015611db6573d6000803e3d6000fd5b505050506040513d601f19601f82011682018060405250810190611dda9190615011565b826001600160a01b031663313ce5676040518163ffffffff1660e01b815260040160206040518083038186803b158015611e1357600080fd5b505afa158015611e27573d6000803e3d6000fd5b505050506040513d601f19601f82011682018060405250810190611e4b919061502a565b611e5690600a61559c565b6001600160a01b03848116600081815260026020526040908190206003015490516341976e0960e01b81526004810192909252918516906341976e099060240160206040518083038186803b158015611eae57600080fd5b505afa158015611ec2573d6000803e3d6000fd5b505050506040513d601f19601f82011682018060405250810190611ee69190615011565b611ef09190615648565b611efa919061552b565b1115611f605760405162461bcd60e51b815260206004820152602f60248201527f4261736553696c6f3a20746f74616c206465706f73697473206578636565642060448201526e1b1a5c5d5a591a5d1e481b1a5b5a5d608a1b60648201526084016105b2565b505060016000555050505050565b60026000541415611f915760405162461bcd60e51b81526004016105b2906153e8565b6002600055611fa08484610f8a565b611fe05760405162461bcd60e51b8152602060048201526011602482015270426f72726f774e6f74506f737369626c6560781b60448201526064016105b2565b80611fea8561337d565b10156120385760405162461bcd60e51b815260206004820152601a60248201527f4261736553696c6f3a206465706f7369742073686f727461676500000000000060448201526064016105b2565b6001600160a01b038416600090815260026020526040902061205a85426122f8565b60008160050154905060007f00000000000000000000000000000000000000000000000000000000000000006001600160a01b031663072ea61c6040518163ffffffff1660e01b815260040160206040518083038186803b1580156120be57600080fd5b505afa1580156120d2573d6000803e3d6000fd5b505050506040513d601f19601f820116820180604052508101906120f69190615011565b90506000811561212257670de0b6b3a76400006121138387615648565b61211d919061552b565b612125565b60005b905060006121c6848660020160009054906101000a90046001600160a01b03166001600160a01b03166318160ddd6040518163ffffffff1660e01b815260040160206040518083038186803b15801561217d57600080fd5b505afa158015612191573d6000803e3d6000fd5b505050506040513d601f19601f820116820180604052508101906121b59190615011565b6121bf858a615513565b9190613345565b60028601546040516340c10f1960e01b81526001600160a01b038b81166004830152602482018490529293509116906340c10f1990604401600060405180830381600087803b15801561221857600080fd5b505af115801561222c573d6000803e3d6000fd5b5050505081868561223d9190615513565b6122479190615513565b60058601556001600160a01b03891660009081526003602052604081206001018054849290612277908490615513565b92505081905550876001600160a01b0316896001600160a01b03167f312a5e5e1079f5dda4e95dbbd0b908b291fd5b992ef22073643ab691572c5b52886040516122c391815260200190565b60405180910390a36122df6001600160a01b038a168888613417565b6122e888613447565b5050600160005550505050505050565b6040516344cf3e9360e01b81523060048201526001600160a01b0383811660248301527f000000000000000000000000000000000000000000000000000000000000000016906344cf3e939060440160206040518083038186803b15801561235f57600080fd5b505afa158015612373573d6000803e3d6000fd5b505050506040513d601f19601f820116820180604052508101906123979190614f6e565b156123d35760405162461bcd60e51b815260206004820152600c60248201526b14da5b1bce881c185d5cd95960a21b60448201526064016105b2565b6001600160a01b03821660009081526002602081815260408084206003909252909220908101546001600160401b03168314156124105750505050565b600061241b85613510565b60405162f704bf60e21b81526001600160a01b0387811660048301526024820187905291909116906303dc12fc90604401602060405180830381600087803b15801561246657600080fd5b505af115801561247a573d6000803e3d6000fd5b505050506040513d601f19601f8201168201806040525081019061249e9190615011565b905060007f00000000000000000000000000000000000000000000000000000000000000006001600160a01b03166325ed3d446040518163ffffffff1660e01b815260040160206040518083038186803b1580156124fb57600080fd5b505afa15801561250f573d6000803e3d6000fd5b505050506040513d601f19601f820116820180604052508101906125339190615011565b60058501549091506000670de0b6b3a76400006125508584615648565b61255a919061552b565b90506000670de0b6b3a76400006125718584615648565b61257b919061552b565b905060006125898284615667565b90506125958385615513565b600589015560038801546125aa908290615513565b600389015560018701546125bf908390615513565b60018801555050506002909301805467ffffffffffffffff19166001600160401b0396909616959095179094555050505050565b606080600260005414156126195760405162461bcd60e51b81526004016105b2906153e8565b60026000556126278561055e565b1561267d57600086516001600160401b0381111561264757612647615707565b604051908082528060200260200182016040528015612670578160200160208202803683370190505b50925082915061284a9050565b6126888686866135b4565b60405163e7b43da560e01b815291935091506001600160a01b0385169063e7b43da5906126c19088908a90879087908a9060040161526b565b600060405180830381600087803b1580156126db57600080fd5b505af11580156126ef573d6000803e3d6000fd5b5050505060005b86518110156127fb57828181518110612711576127116156f1565b602002602001015160001415806127425750818181518110612735576127356156f1565b6020026020010151600014155b156127e957856001600160a01b0316878281518110612763576127636156f1565b60200260200101516001600160a01b03167ff3fa0eaee8f258c23b013654df25d1527f98a5c7ccd5e951dd77caca400ef9728484815181106127a7576127a76156f1565b60200260200101518685815181106127c1576127c16156f1565b60200260200101516040516127e0929190918252602082015260400190565b60405180910390a35b806127f3816156aa565b9150506126f6565b506128058561055e565b61284a5760405162461bcd60e51b815260206004820152601660248201527514da5b1bce881d5cd95c881b9bdd081cdbdb1d995b9d60521b60448201526064016105b2565b6001600055909590945092505050565b60007f00000000000000000000000000000000000000000000000000000000000000006001600160a01b031663cc1fdf166040518163ffffffff1660e01b815260040160206040518083038186803b1580156128b557600080fd5b505afa1580156128c9573d6000803e3d6000fd5b505050506040513d601f19601f820116820180604052508101906128ed9190614b81565b6001600160a01b037f000000000000000000000000000000000000000000000000000000000000000081166000908152600260205260409020549192501661295b5761295b817f0000000000000000000000000000000000000000000000000000000000000000600061383a565b60007f00000000000000000000000000000000000000000000000000000000000000006001600160a01b031663ee306a346040518163ffffffff1660e01b815260040160006040518083038186803b1580156129b657600080fd5b505afa1580156129ca573d6000803e3d6000fd5b505050506040513d6000823e601f3d908101601f191682016040526129f29190810190614e06565b905060005b81518110156105595760006001600160a01b031660026000848481518110612a2157612a216156f1565b6020908102919091018101516001600160a01b0390811683529082019290925260400160002054161415612a7457612a7483838381518110612a6557612a656156f1565b6020026020010151600161383a565b80612a7e816156aa565b9150506129f7565b6001600160a01b03821660009081526003602052604081206001810154815491929091612ab39083615667565b905080612ac1575050505050565b818355612ad86001600160a01b0386168583613417565b5050505050565b600060026000541415612b045760405162461bcd60e51b81526004016105b2906153e8565b6002600090815586906001600160a01b0382166000908152600360205260409020600290810154600160401b900460ff1690811115612b4557612b456156db565b1415612b935760405162461bcd60e51b815260206004820152601e60248201527f4261736553696c6f3a20617373657420646f6573206e6f74206578697374000060448201526064016105b2565b612b9d87426122f8565b6001600160a01b0387166000908152600260205260408120908415612bfb5760048201546001830154612be2908b9083908a906001600160a01b03168d8d6000613c83565b97509150612bf08782615667565b600484015550612c33565b60038201548254612c1e908b9083908a906001600160a01b03168d8d6000613c83565b97509150612c2c8782615667565b6003840155505b612c3c8861055e565b612c975760405162461bcd60e51b815260206004820152602660248201527f4261736553696c6f3a206e6f7420736f6c76656e7420696e2073696c6f20706f60448201526539b4ba34b7b760d11b60648201526084016105b2565b866001600160a01b0316886001600160a01b03168a6001600160a01b03167f3b5f15635b488fe265654176726b3222080f3d6500a562f4664233b3ea2f02838989604051612cf19291909182521515602082015260400190565b60405180910390a450506001600055509195945050505050565b60028301546040516370a0823160e01b81526001600160a01b03848116600483015260009283928392909116906370a082319060240160206040518083038186803b158015612d5957600080fd5b505afa158015612d6d573d6000803e3d6000fd5b505050506040513d601f19601f82011682018060405250810190612d919190615011565b905060008660020160009054906101000a90046001600160a01b03166001600160a01b03166318160ddd6040518163ffffffff1660e01b815260040160206040518083038186803b158015612de557600080fd5b505afa158015612df9573d6000803e3d6000fd5b505050506040513d601f19601f82011682018060405250810190612e1d9190615011565b6005880154909150600019861415612e46579192508291612e3f838284613eba565b9450612e7a565b6000612e53848385613eba565b9050808711612e7157612e67878385613345565b9450869550612e78565b8394508095505b505b505050935093915050565b6040516001600160a01b0380851660248301528316604482015260648101829052610a1c9085906323b872dd60e01b906084015b60408051601f198184030181529190526020810180516001600160e01b03166001600160e01b031990931692909217909152613edf565b606081606001515182604001515114612f1c5760405163779ab6bd60e11b815260040160405180910390fd5b8160400151516001600160401b03811115612f3957612f39615707565b604051908082528060200260200182016040528015612f62578160200160208202803683370190505b50905060005b826040015151811015613006576000612fa88460200151856000015186604001518581518110612f9a57612f9a6156f1565b602002602001015142613fb1565b9050612fd684606001518381518110612fc357612fc36156f1565b60200260200101518560800151836140cd565b838381518110612fe857612fe86156f1565b60209081029190910101525080612ffe816156aa565b915050612f68565b50919050565b6000805b82518110156130065782818151811061302b5761302b6156f1565b60200260200101518261303e9190615513565b91508061304a816156aa565b915050613010565b606081518351146130765760405163779ab6bd60e11b815260040160405180910390fd5b82516001600160401b0381111561308f5761308f615707565b6040519080825280602002602001820160405280156130b8578160200160208202803683370190505b50905060005b8351811015613288578281815181106130d9576130d96156f1565b6020026020010151600014156130ee57613276565b6000856001600160a01b03166341976e09868481518110613111576131116156f1565b60200260200101516040518263ffffffff1660e01b815260040161314491906001600160a01b0391909116815260200190565b60206040518083038186803b15801561315c57600080fd5b505afa158015613170573d6000803e3d6000fd5b505050506040513d601f19601f820116820180604052508101906131949190615011565b905060008583815181106131aa576131aa6156f1565b60200260200101516001600160a01b031663313ce5676040518163ffffffff1660e01b815260040160206040518083038186803b1580156131ea57600080fd5b505afa1580156131fe573d6000803e3d6000fd5b505050506040513d601f19601f82011682018060405250810190613222919061502a565b9050613255828260ff1687868151811061323e5761323e6156f1565b60200260200101516141b49092919063ffffffff16565b848481518110613267576132676156f1565b60200260200101818152505050505b80613280816156aa565b9150506130be565b509392505050565b6060600061329d836141cb565b90506113f984846040015183613052565b600081518451146132d25760405163779ab6bd60e11b815260040160405180910390fd5b60005b845181101561333b5761331d87878784815181106132f5576132f56156f1565b602002602001015187878681518110613310576133106156f1565b602002602001015161440e565b6133279083615513565b915080613333816156aa565b9150506132d5565b5095945050505050565b6000811580613352575082155b1561335e575082613376565b826133698386615648565b613373919061552b565b90505b9392505050565b6001600160a01b03811660008181526002602052604080822060049081015491516370a0823160e01b81523091810191909152919290916370a082319060240160206040518083038186803b1580156133d557600080fd5b505afa1580156133e9573d6000803e3d6000fd5b505050506040513d601f19601f8201168201806040525081019061340d9190615011565b610c829190615667565b6040516001600160a01b03831660248201526044810182905261055990849063a9059cbb60e01b90606401612eb9565b60008061345261068c565b915091506000806134c56040518060a001604052807f00000000000000000000000000000000000000000000000000000000000000006001600160a01b03168152602001306001600160a01b03168152602001868152602001858152602001876001600160a01b03168152506000611732565b9150915080821115612ad85760405162461bcd60e51b81526020600482015260146024820152732130b9b2a9b4b6379d1036b0bc34b6bab6a62a2b60611b60448201526064016105b2565b60405163122cfaaf60e21b81523060048201526001600160a01b0382811660248301526000917f0000000000000000000000000000000000000000000000000000000000000000909116906348b3eabc9060440160206040518083038186803b15801561357c57600080fd5b505afa158015613590573d6000803e3d6000fd5b505050506040513d601f19601f82011682018060405250810190610c829190614b81565b825160609081904290806001600160401b038111156135d5576135d5615707565b6040519080825280602002602001820160405280156135fe578160200160208202803683370190505b509350806001600160401b0381111561361957613619615707565b604051908082528060200260200182016040528015613642578160200160208202803683370190505b50925060007f00000000000000000000000000000000000000000000000000000000000000006001600160a01b031663eafecffa6040518163ffffffff1660e01b815260040160206040518083038186803b1580156136a057600080fd5b505afa1580156136b4573d6000803e3d6000fd5b505050506040513d601f19601f820116820180604052508101906136d89190615011565b905060005b82811015612e78576000600260008b84815181106136fd576136fd6156f1565b60200260200101516001600160a01b03166001600160a01b03168152602001908152602001600020905061374a8a838151811061373c5761373c6156f1565b6020026020010151866122f8565b613757818a600019612d0b565b5086838151811061376a5761376a6156f1565b60200260200101818152505060006137b78b848151811061378d5761378d6156f1565b602090810291909101015160048401546001850154600019906001600160a01b03168e8e8a613c83565b91505060006137f88c85815181106137d1576137d16156f1565b602090810291909101015160038501548554600019906001600160a01b03168f8f8b613c83565b915061380690508183615513565b898581518110613818576138186156f1565b6020026020010181815250505050508080613832906156aa565b9150506136dd565b60608060006138488561456a565b90508315613945576001600160a01b037f000000000000000000000000000000000000000000000000000000000000000081166000908152600260205260408082205481516395d89b4160e01b81529151929316916395d89b41916004808201928692909190829003018186803b1580156138c257600080fd5b505afa1580156138d6573d6000803e3d6000fd5b505050506040513d6000823e601f3d908101601f191682016040526138fe9190810190614f8b565b905080604051806040016040528060018152602001602d60f81b8152508360405160200161392e93929190615228565b60405160208183030381529060405293505061398c565b60006040518060400160405280600481526020016353696c6f60e01b815250905080826040516020016139799291906151f9565b6040516020818303038152906040529350505b6000836040518060400160405280601081526020016f2d636f6c6c61746572616c2d4f4e4c5960801b8152506040516020016139c99291906151f9565b60408051601f1981840301815282820182526005835264446562742d60d81b6020848101919091529151909350613a0392918791016151f9565b60408051601f198184030181529082905263f8f38d1b60e01b825293506001600160a01b0388169063f8f38d1b90613a4390879081908b9060040161537c565b602060405180830381600087803b158015613a5d57600080fd5b505af1158015613a71573d6000803e3d6000fd5b505050506040513d601f19601f82011682018060405250810190613a959190614b81565b6001600160a01b038781166000908152600260205260409081902080546001600160a01b03191693831693909317909255905163f8f38d1b60e01b81529088169063f8f38d1b90613aee90849081908b9060040161537c565b602060405180830381600087803b158015613b0857600080fd5b505af1158015613b1c573d6000803e3d6000fd5b505050506040513d601f19601f82011682018060405250810190613b409190614b81565b6001600160a01b038781166000908152600260205260409081902060010180546001600160a01b031916938316939093179092559051633b0eb45d60e21b81529088169063ec3ad17490613b9c90869081908b9060040161537c565b602060405180830381600087803b158015613bb657600080fd5b505af1158015613bca573d6000803e3d6000fd5b505050506040513d601f19601f82011682018060405250810190613bee9190614b81565b6001600160a01b0396871660008181526002602081815260408084208301805496909c166001600160a01b031996871617909b55600180548082019091557fb10e2d527612073b26eecdfd717e6a320cf44b4afac2b0732d9fcbe2b7fa0cf6018054909516909317909355600390915296909620909501805468ff00000000000000001916600160401b179055505050505050565b600080600019871415613d8f576040516370a0823160e01b81526001600160a01b0386811660048301528716906370a082319060240160206040518083038186803b158015613cd157600080fd5b505afa158015613ce5573d6000803e3d6000fd5b505050506040513d601f19601f82011682018060405250810190613d099190615011565b9150613d8888876001600160a01b03166318160ddd6040518163ffffffff1660e01b815260040160206040518083038186803b158015613d4857600080fd5b505afa158015613d5c573d6000803e3d6000fd5b505050506040513d601f19601f82011682018060405250810190613d809190615011565b849190613eba565b9050613e12565b613e0c88876001600160a01b03166318160ddd6040518163ffffffff1660e01b815260040160206040518083038186803b158015613dcc57600080fd5b505afa158015613de0573d6000803e3d6000fd5b505050506040513d601f19601f82011682018060405250810190613e049190615011565b899190613345565b91508690505b80613e2257506000905080613eae565b604051632770a7eb60e21b81526001600160a01b03868116600483015260248201849052871690639dc29fac90604401600060405180830381600087803b158015613e6c57600080fd5b505af1158015613e80573d6000803e3d6000fd5b5050505082600014613e9a57613e97898285614652565b90505b613eae6001600160a01b038a168583613417565b97509795505050505050565b6000811580613ec7575082155b15613ed457506000613376565b816133698486615648565b6000613f34826040518060400160405280602081526020017f5361666545524332303a206c6f772d6c6576656c2063616c6c206661696c6564815250856001600160a01b03166146a29092919063ffffffff16565b8051909150156105595780806020019051810190613f529190614f6e565b6105595760405162461bcd60e51b815260206004820152602a60248201527f5361666545524332303a204552433230206f7065726174696f6e20646964206e6044820152691bdd081cdd58d8d9595960b21b60648201526084016105b2565b60405163122cfaaf60e21b81526001600160a01b038581166004830152838116602483015260009182918616906348b3eabc9060440160206040518083038186803b158015613fff57600080fd5b505afa158015614013573d6000803e3d6000fd5b505050506040513d601f19601f820116820180604052508101906140379190614b81565b60405163b1e0176560e01b81526001600160a01b0388811660048301528681166024830152604482018690529192509082169063b1e017659060640160206040518083038186803b15801561408b57600080fd5b505afa15801561409f573d6000803e3d6000fd5b505050506040513d601f19601f820116820180604052508101906140c39190615011565b9695505050505050565b60408084015190516370a0823160e01b81526001600160a01b03848116600483015260009283929116906370a082319060240160206040518083038186803b15801561411857600080fd5b505afa15801561412c573d6000803e3d6000fd5b505050506040513d601f19601f820116820180604052508101906141509190615011565b905080614161576000915050613376565b60006141718660a00151856146b1565b90506140c38187604001516001600160a01b03166318160ddd6040518163ffffffff1660e01b815260040160206040518083038186803b158015613d4857600080fd5b60006141c182600a615590565b6133698486615648565b60608160400151516001600160401b038111156141ea576141ea615707565b604051908082528060200260200182016040528015614213578160200160208202803683370190505b50905060005b8260400151518110156130065760008360600151828151811061423e5761423e6156f1565b60209081029190910101515160808501516040516370a0823160e01b81526001600160a01b0391821660048201529116906370a082319060240160206040518083038186803b15801561429057600080fd5b505afa1580156142a4573d6000803e3d6000fd5b505050506040513d601f19601f820116820180604052508101906142c89190615011565b90506000846060015183815181106142e2576142e26156f1565b602090810291909101810151015160808601516040516370a0823160e01b81526001600160a01b0391821660048201529116906370a082319060240160206040518083038186803b15801561433657600080fd5b505afa15801561434a573d6000803e3d6000fd5b505050506040513d601f19601f8201168201806040525081019061436e9190615011565b905061437a8183615513565b6143855750506143fc565b60006143aa8660200151876000015188604001518781518110612f9a57612f9a6156f1565b90506143da866060015185815181106143c5576143c56156f1565b60200260200101518484848a600001516146da565b8585815181106143ec576143ec6156f1565b6020026020010181815250505050505b80614406816156aa565b915050614219565b60008080846001811115614424576144246156db565b14156144b3576040516330be9d2560e21b81526001600160a01b038781166004830152868116602483015288169063c2fa7494906044015b60206040518083038186803b15801561447457600080fd5b505afa158015614488573d6000803e3d6000fd5b505050506040513d601f19601f820116820180604052508101906144ac9190615011565b9050614542565b60018460018111156144c7576144c76156db565b141561450357604051630ca4db1160e21b81526001600160a01b03878116600483015286811660248301528816906332936c449060440161445c565b60405162461bcd60e51b8152602060048201526014602482015273556e737570706f727465644c545654797065282960601b60448201526064016105b2565b670de0b6b3a76400006145558285615648565b61455f919061552b565b979650505050505050565b604080516395d89b4160e01b602082015260609160009182916001600160a01b038616910160408051601f19818403018152908290526145a9916151ae565b600060405180830381855afa9150503d80600081146145e4576040519150601f19603f3d011682016040523d82523d6000602084013e6145e9565b606091505b50915091508161460857604051806020016040528060008152506113f9565b805160201461462a57808060200190518101906146259190614f8b565b6113f9565b6113f98160405160200161463e91906151ae565b604051602081830303815290604052614859565b6001600160a01b038316600090815260036020526040812060010154819061467b9085856148e5565b6001600160a01b039096166000908152600360205260409020600101959095555050500390565b60606133738484600085614913565b6000670de0b6b3a76400006146c68385615648565b6146d0919061552b565b610c7f9084615513565b60008085156147e7576147e26147658860600151856001600160a01b03166325ed3d446040518163ffffffff1660e01b815260040160206040518083038186803b15801561472757600080fd5b505afa15801561473b573d6000803e3d6000fd5b505050506040513d601f19601f8201168201806040525081019061475f9190615011565b87614a30565b88600001516001600160a01b03166318160ddd6040518163ffffffff1660e01b815260040160206040518083038186803b1580156147a257600080fd5b505afa1580156147b6573d6000803e3d6000fd5b505050506040513d601f19601f820116820180604052508101906147da9190615011565b889190613eba565b6147ea565b60005b90506000851561483e57614839886080015189602001516001600160a01b03166318160ddd6040518163ffffffff1660e01b815260040160206040518083038186803b1580156147a257600080fd5b614841565b60005b905061484d8183615513565b98975050505050505050565b805160609060005b818110156148de5783818151811061487b5761487b6156f1565b01602001516001600160f81b031916614895575050919050565b828482815181106148a8576148a86156f1565b602001015160f81c60f81b6040516020016148c49291906151ca565b60408051601f198184030181529190529250600101614861565b5050919050565b670de0b6b3a76400008183020460008119851115614906575060001961490b565b508381015b935093915050565b6060824710156149745760405162461bcd60e51b815260206004820152602660248201527f416464726573733a20696e73756666696369656e742062616c616e636520666f6044820152651c8818d85b1b60d21b60648201526084016105b2565b843b6149c25760405162461bcd60e51b815260206004820152601d60248201527f416464726573733a2063616c6c20746f206e6f6e2d636f6e747261637400000060448201526064016105b2565b600080866001600160a01b031685876040516149de91906151ae565b60006040518083038185875af1925050503d8060008114614a1b576040519150601f19603f3d011682016040523d82523d6000602084013e614a20565b606091505b509150915061455f828286614a84565b600080614a4584670de0b6b3a7640000615667565b9050670de0b6b3a76400008082614a5c8689615648565b614a669190615648565b614a70919061552b565b614a7a919061552b565b61132d9086615513565b60608315614a93575081613376565b825115614aa35782518084602001fd5b8160405162461bcd60e51b81526004016105b29190615369565b6040518060c0016040528060006001600160a01b0316815260200160006001600160a01b0316815260200160006001600160a01b031681526020016000815260200160008152602001600081525090565b600082601f830112614b1f57600080fd5b8135614b32614b2d826154ec565b615499565b818152846020838601011115614b4757600080fd5b816020850160208301376000918101602001919091529392505050565b600060208284031215614b7657600080fd5b81356133768161571d565b600060208284031215614b9357600080fd5b81516133768161571d565b60008060408385031215614bb157600080fd5b8235614bbc8161571d565b91506020830135614bcc8161571d565b809150509250929050565b60008060008060808587031215614bed57600080fd5b8435614bf88161571d565b93506020850135614c088161571d565b92506040850135614c188161571d565b9396929550929360600135925050565b600080600080600060a08688031215614c4057600080fd5b8535614c4b8161571d565b94506020860135614c5b8161571d565b93506040860135614c6b8161571d565b9250606086013591506080860135614c8281615732565b809150509295509295909350565b600080600060608486031215614ca557600080fd5b8335614cb08161571d565b92506020840135614cc08161571d565b929592945050506040919091013590565b60008060008060808587031215614ce757600080fd5b8435614cf28161571d565b93506020850135614d028161571d565b9250604085013591506060850135614d1981615732565b939692955090935050565b60008060408385031215614d3757600080fd5b8235614d428161571d565b946020939093013593505050565b600080600060608486031215614d6557600080fd5b8335614d708161571d565b9250602084013591506040840135614d8781615732565b809150509250925092565b60008060208385031215614da557600080fd5b82356001600160401b0380821115614dbc57600080fd5b818501915085601f830112614dd057600080fd5b813581811115614ddf57600080fd5b8660208260051b8501011115614df457600080fd5b60209290920196919550909350505050565b60006020808385031215614e1957600080fd5b82516001600160401b03811115614e2f57600080fd5b8301601f81018513614e4057600080fd5b8051614e4e614b2d826154c9565b80828252848201915084840188868560051b8701011115614e6e57600080fd5b600094505b83851015614e9a578051614e868161571d565b835260019490940193918501918501614e73565b50979650505050505050565b60008060408385031215614eb957600080fd5b82356001600160401b0380821115614ed057600080fd5b818501915085601f830112614ee457600080fd5b81356020614ef4614b2d836154c9565b8083825282820191508286018a848660051b8901011115614f1457600080fd5b600096505b84871015614f40578035614f2c8161571d565b835260019690960195918301918301614f19565b5096505086013592505080821115614f5757600080fd5b50614f6485828601614b0e565b9150509250929050565b600060208284031215614f8057600080fd5b815161337681615732565b600060208284031215614f9d57600080fd5b81516001600160401b03811115614fb357600080fd5b8201601f81018413614fc457600080fd5b8051614fd2614b2d826154ec565b818152856020838501011115614fe757600080fd5b61132d82602083016020860161567e565b60006020828403121561500a57600080fd5b5035919050565b60006020828403121561502357600080fd5b5051919050565b60006020828403121561503c57600080fd5b815160ff8116811461337657600080fd5b600081518084526020808501945080840160005b838110156150865781516001600160a01b031687529582019590820190600101615061565b509495945050505050565b600082825180855260208086019550808260051b84010181860160005b848110156150dc57601f198684030189526150ca8383516150e9565b988401989250908301906001016150ae565b5090979650505050505050565b600081518084526020808501945080840160005b83811015615086578151875295820195908201906001016150fd565b6000815180845261513181602086016020860161567e565b601f01601f19169290920160200192915050565b6003811061516357634e487b7160e01b600052602160045260246000fd5b9052565b80516001600160a01b03908116835260208083015182169084015260408083015190911690830152606080820151908301526080808201519083015260a090810151910152565b600082516151c081846020870161567e565b9190910192915050565b600083516151dc81846020880161567e565b6001600160f81b0319939093169190920190815260010192915050565b6000835161520b81846020880161567e565b83519083019061521f81836020880161567e565b01949350505050565b6000845161523a81846020890161567e565b84519083019061524e81836020890161567e565b845191019061526181836020880161567e565b0195945050505050565b6001600160a01b038616815260a06020820181905260009061528f9083018761504d565b82810360408401526152a181876150e9565b905082810360608401526152b581866150e9565b9050828103608084015261484d8185615119565b602081526000610c7f602083018461504d565b6060815260006152ef606083018661504d565b82810360208401526153018186615091565b905082810360408401526140c38185615091565b604081526000615328604083018561504d565b82810360208481019190915284518083528582019282019060005b818110156150dc57615356838651615167565b9383019360c09290920191600101615343565b602081526000610c7f6020830184615119565b60608152600061538f6060830186615119565b82810360208401526153a18186615119565b91505060018060a01b0383166040830152949350505050565b6020808252601490820152732130b9b2a9b4b6379d1037b7363ca937baba32b960611b604082015260600190565b6020808252601f908201527f5265656e7472616e637947756172643a207265656e7472616e742063616c6c00604082015260600190565b600060808201905082518252602083015160208301526001600160401b036040840151166040830152606083015161545a6060840182615145565b5092915050565b60c08101610c828284615167565b848152602081018490526001600160401b03831660408201526080810161132d6060830184615145565b604051601f8201601f191681016001600160401b03811182821017156154c1576154c1615707565b604052919050565b60006001600160401b038211156154e2576154e2615707565b5060051b60200190565b60006001600160401b0382111561550557615505615707565b50601f01601f191660200190565b60008219821115615526576155266156c5565b500190565b60008261554857634e487b7160e01b600052601260045260246000fd5b500490565b600181815b8085111561558857816000190482111561556e5761556e6156c5565b8085161561557b57918102915b93841c9390800290615552565b509250929050565b6000610c7f83836155a7565b6000610c7f60ff8416835b6000826155b657506001610c82565b816155c357506000610c82565b81600181146155d957600281146155e3576155ff565b6001915050610c82565b60ff8411156155f4576155f46156c5565b50506001821b610c82565b5060208310610133831016604e8410600b8410161715615622575081810a610c82565b61562c838361554d565b8060001904821115615640576156406156c5565b029392505050565b6000816000190483118215151615615662576156626156c5565b500290565b600082821015615679576156796156c5565b500390565b60005b83811015615699578181015183820152602001615681565b83811115610a1c5750506000910152565b60006000198214156156be576156be6156c5565b5060010190565b634e487b7160e01b600052601160045260246000fd5b634e487b7160e01b600052602160045260246000fd5b634e487b7160e01b600052603260045260246000fd5b634e487b7160e01b600052604160045260246000fd5b6001600160a01b038116811461087857600080fd5b801515811461087857600080fdfea26469706673582212201c1e56b480dd7d4427ad824c1ac714fdbe14d52afe3a0899ddc1a2c45503986564736f6c63430008070033a26469706673582212208cfd2cce6d2fd46aedde44cb19e938fbec7a79a3a7a899d3ab415b23e6bcb06164736f6c63430008070033",
  "devdoc": {
    "custom:security-contact": "security@silo.finance",
    "details": "Silo Factory is registered within SiloRepository contract and it's given a version. Each version is differet Silo Factory that deploys different Silo implementation. Many Factory contracts can be registered with the Repository contract.",
    "kind": "dev",
    "methods": {
      "createSilo(address,bytes)": {
        "params": {
          "_data": "(optional) data that may be needed during silo creation",
          "_siloAsset": "unique asset for which Silo is deployed"
        },
        "returns": {
          "silo": "deployed Silo address"
        }
      },
      "siloFactoryPing()": {
        "details": "just a helper method to see if address is a factory"
      }
    },
    "title": "SiloFactory",
    "version": 1
  },
  "userdoc": {
    "events": {
      "NewSiloCreated(address,address)": {
        "notice": "Emitted when Silo is deployed"
      }
    },
    "kind": "user",
    "methods": {
      "createSilo(address,bytes)": {
        "notice": "Deploys Silo"
      }
    },
    "notice": "Silo Factory has one job, deploy Silo implementaiton",
    "version": 1
  },
  "storageLayout": {
    "storage": [],
    "types": null
  }
}