{
  "address": "0xA0Cf8C179d9d090F5292D5aa3103C149dC934c45",
  "abi": [
    {
      "inputs": [
        {
          "internalType": "address",
          "name": "_quoteToken",
          "type": "address"
        },
        {
          "internalType": "address",
          "name": "_repository",
          "type": "address"
        }
      ],
      "stateMutability": "nonpayable",
      "type": "constructor"
    },
    {
      "anonymous": false,
      "inputs": [
        {
          "indexed": false,
          "internalType": "address",
          "name": "newOracle",
          "type": "address"
        },
        {
          "indexed": false,
          "internalType": "uint256",
          "name": "id",
          "type": "uint256"
        }
      ],
      "name": "NewOracle",
      "type": "event"
    },
    {
      "anonymous": false,
      "inputs": [
        {
          "indexed": false,
          "internalType": "address",
          "name": "oracle",
          "type": "address"
        },
        {
          "indexed": false,
          "internalType": "address",
          "name": "asset",
          "type": "address"
        }
      ],
      "name": "OracleForAsset",
      "type": "event"
    },
    {
      "anonymous": false,
      "inputs": [
        {
          "indexed": false,
          "internalType": "address",
          "name": "oracle",
          "type": "address"
        }
      ],
      "name": "OracleRemoved",
      "type": "event"
    },
    {
      "anonymous": false,
      "inputs": [
        {
          "indexed": true,
          "internalType": "address",
          "name": "previousOwner",
          "type": "address"
        },
        {
          "indexed": true,
          "internalType": "address",
          "name": "newOwner",
          "type": "address"
        }
      ],
      "name": "OwnershipPending",
      "type": "event"
    },
    {
      "anonymous": false,
      "inputs": [
        {
          "indexed": true,
          "internalType": "address",
          "name": "previousOwner",
          "type": "address"
        },
        {
          "indexed": true,
          "internalType": "address",
          "name": "newOwner",
          "type": "address"
        }
      ],
      "name": "OwnershipTransferred",
      "type": "event"
    },
    {
      "inputs": [],
      "name": "ONE",
      "outputs": [
        {
          "internalType": "uint256",
          "name": "",
          "type": "uint256"
        }
      ],
      "stateMutability": "view",
      "type": "function"
    },
    {
      "inputs": [],
      "name": "acceptOwnership",
      "outputs": [],
      "stateMutability": "nonpayable",
      "type": "function"
    },
    {
      "inputs": [
        {
          "internalType": "address",
          "name": "_oracle",
          "type": "address"
        }
      ],
      "name": "addOracle",
      "outputs": [],
      "stateMutability": "nonpayable",
      "type": "function"
    },
    {
      "inputs": [
        {
          "internalType": "address",
          "name": "",
          "type": "address"
        }
      ],
      "name": "assetsOracles",
      "outputs": [
        {
          "internalType": "address",
          "name": "",
          "type": "address"
        }
      ],
      "stateMutability": "view",
      "type": "function"
    },
    {
      "inputs": [
        {
          "internalType": "address",
          "name": "_asset",
          "type": "address"
        },
        {
          "internalType": "address",
          "name": "_oracle",
          "type": "address"
        }
      ],
      "name": "changeBestOracleForAsset",
      "outputs": [],
      "stateMutability": "nonpayable",
      "type": "function"
    },
    {
      "inputs": [
        {
          "internalType": "address",
          "name": "_asset",
          "type": "address"
        },
        {
          "internalType": "bool",
          "name": "_rawSearch",
          "type": "bool"
        }
      ],
      "name": "findBestOracle",
      "outputs": [
        {
          "internalType": "address",
          "name": "",
          "type": "address"
        }
      ],
      "stateMutability": "view",
      "type": "function"
    },
    {
      "inputs": [
        {
          "internalType": "address",
          "name": "_base",
          "type": "address"
        }
      ],
      "name": "getPrice",
      "outputs": [
        {
          "internalType": "uint256",
          "name": "",
          "type": "uint256"
        }
      ],
      "stateMutability": "view",
      "type": "function"
    },
    {
      "inputs": [
        {
          "internalType": "address",
          "name": "_asset",
          "type": "address"
        },
        {
          "internalType": "address",
          "name": "_oracle",
          "type": "address"
        },
        {
          "internalType": "bytes",
          "name": "_data",
          "type": "bytes"
        }
      ],
      "name": "initOracleForAsset",
      "outputs": [],
      "stateMutability": "nonpayable",
      "type": "function"
    },
    {
      "inputs": [],
      "name": "oracleList",
      "outputs": [
        {
          "internalType": "address[]",
          "name": "",
          "type": "address[]"
        }
      ],
      "stateMutability": "view",
      "type": "function"
    },
    {
      "inputs": [
        {
          "internalType": "uint256",
          "name": "",
          "type": "uint256"
        }
      ],
      "name": "oracles",
      "outputs": [
        {
          "internalType": "address",
          "name": "",
          "type": "address"
        }
      ],
      "stateMutability": "view",
      "type": "function"
    },
    {
      "inputs": [],
      "name": "oraclesCount",
      "outputs": [
        {
          "internalType": "uint256",
          "name": "",
          "type": "uint256"
        }
      ],
      "stateMutability": "view",
      "type": "function"
    },
    {
      "inputs": [],
      "name": "owner",
      "outputs": [
        {
          "internalType": "address",
          "name": "",
          "type": "address"
        }
      ],
      "stateMutability": "view",
      "type": "function"
    },
    {
      "inputs": [],
      "name": "pendingOwner",
      "outputs": [
        {
          "internalType": "address",
          "name": "",
          "type": "address"
        }
      ],
      "stateMutability": "view",
      "type": "function"
    },
    {
      "inputs": [],
      "name": "quoteToken",
      "outputs": [
        {
          "internalType": "address",
          "name": "",
          "type": "address"
        }
      ],
      "stateMutability": "view",
      "type": "function"
    },
    {
      "inputs": [
        {
          "internalType": "address",
          "name": "",
          "type": "address"
        }
      ],
      "name": "registeredOracles",
      "outputs": [
        {
          "internalType": "bool",
          "name": "",
          "type": "bool"
        }
      ],
      "stateMutability": "view",
      "type": "function"
    },
    {
      "inputs": [
        {
          "internalType": "uint256",
          "name": "_oracleId",
          "type": "uint256"
        }
      ],
      "name": "removeOracle",
      "outputs": [],
      "stateMutability": "nonpayable",
      "type": "function"
    },
    {
      "inputs": [],
      "name": "renounceOwnership",
      "outputs": [],
      "stateMutability": "nonpayable",
      "type": "function"
    },
    {
      "inputs": [],
      "name": "repository",
      "outputs": [
        {
          "internalType": "address",
          "name": "",
          "type": "address"
        }
      ],
      "stateMutability": "view",
      "type": "function"
    },
    {
      "inputs": [
        {
          "internalType": "address",
          "name": "_asset",
          "type": "address"
        }
      ],
      "name": "setBestOracleForAsset",
      "outputs": [
        {
          "internalType": "address",
          "name": "bestOracle",
          "type": "address"
        }
      ],
      "stateMutability": "nonpayable",
      "type": "function"
    },
    {
      "inputs": [
        {
          "internalType": "address",
          "name": "newOwner",
          "type": "address"
        }
      ],
      "name": "transferOwnership",
      "outputs": [],
      "stateMutability": "nonpayable",
      "type": "function"
    },
    {
      "inputs": [
        {
          "internalType": "address",
          "name": "newPendingOwner",
          "type": "address"
        }
      ],
      "name": "transferPendingOwnership",
      "outputs": [],
      "stateMutability": "nonpayable",
      "type": "function"
    }
  ],
  "transactionHash": "0x41d1487c1cb713bc059e864222417b4c8d071b927809a75021499e0772ab9e94",
  "args": [
    "0xd0A1E359811322d97991E03f863a0C30C2cF029C",
    "0x0d9a98465A712249E87E200Fa4b1C4c05fb93B99"
  ],
  "numDeployments": 2,
  "solcInputHash": "513d71c9d0c126d5b4efd168466082e1",
  "bytecode": "0x60c06040523480156200001157600080fd5b5060405162001587380380620015878339810160408190526200003491620000cc565b6200003f336200005f565b6001600160601b0319606091821b811660805291901b1660a05262000104565b600080546001600160a01b038381166001600160a01b0319831681178455604051919092169283917f8be0079c531659141344cd1fd0a4f28419497f9722a3daafe3b4186f6b6457e09190a35050565b80516001600160a01b0381168114620000c757600080fd5b919050565b60008060408385031215620000e057600080fd5b620000eb83620000af565b9150620000fb60208401620000af565b90509250929050565b60805160601c60a05160601c6114496200013e60003960008181610187015281816106dd0152610bda015260006102e701526114496000f3fe608060405234801561001057600080fd5b50600436106101375760003560e01c80637bb0e9e8116100b8578063df5dd1a51161007c578063df5dd1a51461028b578063e30c39781461029e578063e4362b23146102af578063e9176c60146102e2578063f138420014610309578063f2fde38b1461031c57600080fd5b80637bb0e9e81461023057806380935dbf146102435780638da5cb5b14610256578063c2ee3a0814610267578063d58bcd041461027657600080fd5b806341976e09116100ff57806341976e09146101e45780635b69a7d814610205578063715018a61461021857806376f709001461022057806379ba50971461022857600080fd5b80630ef0e5e81461013c578063217a4b70146101825780632979f8f1146101a95780633278c694146101be578063332f3c21146101d1575b600080fd5b61016561014a36600461115e565b6003602052600090815260409020546001600160a01b031681565b6040516001600160a01b0390911681526020015b60405180910390f35b6101657f000000000000000000000000000000000000000000000000000000000000000081565b6101bc6101b7366004611198565b61032f565b005b6101bc6101cc36600461115e565b6105b2565b6101bc6101df3660046111d1565b61065e565b6101f76101f236600461115e565b6106d9565b604051908152602001610179565b610165610213366004611296565b6107b7565b6101bc6107e1565b6004546101f7565b6101bc610826565b61016561023e36600461115e565b6108bc565b6101bc610251366004611296565b6108c7565b6000546001600160a01b0316610165565b6101f7670de0b6b3a764000081565b61027e610ac0565b6040516101799190611308565b6101bc61029936600461115e565b610b22565b6001546001600160a01b0316610165565b6102d26102bd36600461115e565b60026020526000908152604090205460ff1681565b6040519015158152602001610179565b6101657f000000000000000000000000000000000000000000000000000000000000000081565b610165610317366004611263565b610d90565b6101bc61032a36600461115e565b610da3565b6001600160a01b03811660009081526002602052604090205460ff166103b05760405162461bcd60e51b815260206004820152602b60248201527f53696c6f4f7261636c655265706f7369746f72793a206f7261636c65206e6f7460448201526a081c9959da5cdd195c995960aa1b60648201526084015b60405180910390fd5b6001600160a01b03808316600090815260036020526040902054168061043e5760405162461bcd60e51b815260206004820152603d60248201527f53696c6f4f7261636c655265706f7369746f72793a207573652073657442657360448201527f744f7261636c65466f72417373657420746f20696e697420617373657400000060648201526084016103a7565b604051630b8abf1d60e31b81526001600160a01b03848116600483015260009190831690635c55f8e89060240160206040518083038186803b15801561048357600080fd5b505afa158015610497573d6000803e3d6000fd5b505050506040513d601f19601f820116820180604052508101906104bb91906112af565b604051630b8abf1d60e31b81526001600160a01b038681166004830152919250600091851690635c55f8e89060240160206040518083038186803b15801561050257600080fd5b505afa158015610516573d6000803e3d6000fd5b505050506040513d601f19601f8201168201806040525081019061053a91906112af565b9050818110156105a15760405162461bcd60e51b815260206004820152602c60248201527f53696c6f4f7261636c655265706f7369746f72793a2063686f73656e206f726160448201526b636c6520697320776f72736560a01b60648201526084016103a7565b6105ab8585610e4d565b5050505050565b336105c56000546001600160a01b031690565b6001600160a01b0316146105eb5760405162461bcd60e51b81526004016103a790611355565b806001600160a01b03166106076000546001600160a01b031690565b6001600160a01b03167f3c672e6c16e239c29e969deaf4eae15d7002350bf5490175e7481155af04c83a60405160405180910390a3600180546001600160a01b0319166001600160a01b0392909216919091179055565b6001600160a01b038316156106d057604051635e3263fb60e01b81526001600160a01b03841690635e3263fb9061069d908790869086906004016112c8565b600060405180830381600087803b1580156106b757600080fd5b505af11580156106cb573d6000803e3d6000fd5b505050505b6105ab84610f19565b60007f00000000000000000000000000000000000000000000000000000000000000006001600160a01b0316826001600160a01b031614156107245750670de0b6b3a7640000919050565b6001600160a01b03828116600081815260036020526040908190205490516341976e0960e01b81526004810192909252909116906341976e099060240160206040518083038186803b15801561077957600080fd5b505afa15801561078d573d6000803e3d6000fd5b505050506040513d601f19601f820116820180604052508101906107b191906112af565b92915050565b600481815481106107c757600080fd5b6000918252602090912001546001600160a01b0316905081565b336107f46000546001600160a01b031690565b6001600160a01b03161461081a5760405162461bcd60e51b81526004016103a790611355565b6108246000610fa9565b565b6001546001600160a01b031633146108905760405162461bcd60e51b815260206004820152602760248201527f4f776e61626c653a2063616c6c6572206973206e6f74207468652070656e64696044820152663733a7bbb732b960c91b60648201526084016103a7565b6108aa6108a56001546001600160a01b031690565b610fa9565b600180546001600160a01b0319169055565b60006107b182610f19565b336108da6000546001600160a01b031690565b6001600160a01b0316146109005760405162461bcd60e51b81526004016103a790611355565b600060048281548110610915576109156113e8565b60009182526020808320909101546001600160a01b0316808352600290915260409091205490915060ff166109a05760405162461bcd60e51b815260206004820152602b60248201527f53696c6f4f7261636c655265706f7369746f72793a206f7261636c6520646f6560448201526a1cc81b9bdd08195e1a5cdd60aa1b60648201526084016103a7565b6040516001600160a01b03821681527f9c8e7d83025bef8a04c664b2f753f64b8814bdb7e27291d7e50935f18cc3c7129060200160405180910390a16001600160a01b0381166000908152600260205260409020805460ff1916905560045482610a0b60018361138a565b14610a88576004610a1d60018361138a565b81548110610a2d57610a2d6113e8565b600091825260209091200154600480546001600160a01b039092169185908110610a5957610a596113e8565b9060005260206000200160006101000a8154816001600160a01b0302191690836001600160a01b031602179055505b6004805480610a9957610a996113d2565b600082815260209020810160001990810180546001600160a01b0319169055019055505050565b60606004805480602002602001604051908101604052809291908181526020018280548015610b1857602002820191906000526020600020905b81546001600160a01b03168152600190910190602001808311610afa575b5050505050905090565b33610b356000546001600160a01b031690565b6001600160a01b031614610b5b5760405162461bcd60e51b81526004016103a790611355565b6001600160a01b03811660009081526002602052604090205460ff1615610bd85760405162461bcd60e51b815260206004820152602b60248201527f53696c6f4f7261636c655265706f7369746f72793a206f7261636c6520616c7260448201526a656164792065786973747360a81b60648201526084016103a7565b7f00000000000000000000000000000000000000000000000000000000000000006001600160a01b0316816001600160a01b031663217a4b706040518163ffffffff1660e01b815260040160206040518083038186803b158015610c3b57600080fd5b505afa158015610c4f573d6000803e3d6000fd5b505050506040513d601f19601f82011682018060405250810190610c73919061117b565b6001600160a01b031614610ce45760405162461bcd60e51b815260206004820152603260248201527f53696c6f4f7261636c655265706f7369746f72793a20696e76616c69642071756044820152716f7465546f6b656e20696e206f7261636c6560701b60648201526084016103a7565b600454604080516001600160a01b038416815260208101929092527f45f1932942561e7d7562d1677fd99002dd4106d397ed7b756168542c4c5c0fac910160405180910390a16001600160a01b03166000818152600260205260408120805460ff191660019081179091556004805491820181559091527f8a35acfbc15ff81a39ae7d344fd709f28e8600b4aa8c65c6b64bfe7fe36bd19b0180546001600160a01b0319169091179055565b6000610d9c8383610ff9565b9392505050565b33610db66000546001600160a01b031690565b6001600160a01b031614610ddc5760405162461bcd60e51b81526004016103a790611355565b6001600160a01b038116610e415760405162461bcd60e51b815260206004820152602660248201527f4f776e61626c653a206e6577206f776e657220697320746865207a65726f206160448201526564647265737360d01b60648201526084016103a7565b610e4a81610fa9565b50565b604080516001600160a01b038085168252831660208201527f87987abe74f65c11e5ed91847ea2a5d8f269929df44aab920a9dc3799e29ec70910160405180910390a16040516326b9797f60e01b81526001600160a01b0383811660048301528216906326b9797f90602401600060405180830381600087803b158015610ed357600080fd5b505af1158015610ee7573d6000803e3d6000fd5b505050506001600160a01b03918216600090815260036020526040902080546001600160a01b03191691909216179055565b6000610f26826000610ff9565b90506001600160a01b038116610f9a5760405162461bcd60e51b815260206004820152603360248201527f53696c6f4f7261636c655265706f7369746f72793a2063616e206e6f742066696044820152721b99081bdc9858db1948199bdc88185cdcd95d606a1b60648201526084016103a7565b610fa48282610e4d565b919050565b600080546001600160a01b038381166001600160a01b0319831681178455604051919092169283917f8be0079c531659141344cd1fd0a4f28419497f9722a3daafe3b4186f6b6457e09190a35050565b60008060005b6004548110156111565760006004828154811061101e5761101e6113e8565b60009182526020822001546001600160a01b03169150856110b757604051630b8abf1d60e31b81526001600160a01b038881166004830152831690635c55f8e89060240160206040518083038186803b15801561107a57600080fd5b505afa15801561108e573d6000803e3d6000fd5b505050506040513d601f19601f820116820180604052508101906110b291906112af565b611130565b604051631befe8b360e21b81526001600160a01b038881166004830152831690636fbfa2cc9060240160206040518083038186803b1580156110f857600080fd5b505afa15801561110c573d6000803e3d6000fd5b505050506040513d601f19601f8201168201806040525081019061113091906112af565b905083811115611141578194508093505b5050808061114e906113a1565b915050610fff565b505092915050565b60006020828403121561117057600080fd5b8135610d9c816113fe565b60006020828403121561118d57600080fd5b8151610d9c816113fe565b600080604083850312156111ab57600080fd5b82356111b6816113fe565b915060208301356111c6816113fe565b809150509250929050565b600080600080606085870312156111e757600080fd5b84356111f2816113fe565b93506020850135611202816113fe565b9250604085013567ffffffffffffffff8082111561121f57600080fd5b818701915087601f83011261123357600080fd5b81358181111561124257600080fd5b88602082850101111561125457600080fd5b95989497505060200194505050565b6000806040838503121561127657600080fd5b8235611281816113fe565b9150602083013580151581146111c657600080fd5b6000602082840312156112a857600080fd5b5035919050565b6000602082840312156112c157600080fd5b5051919050565b6001600160a01b03841681526040602082018190528101829052818360608301376000818301606090810191909152601f909201601f1916010192915050565b6020808252825182820181905260009190848201906040850190845b818110156113495783516001600160a01b031683529284019291840191600101611324565b50909695505050505050565b6020808252818101527f4f776e61626c653a2063616c6c6572206973206e6f7420746865206f776e6572604082015260600190565b60008282101561139c5761139c6113bc565b500390565b60006000198214156113b5576113b56113bc565b5060010190565b634e487b7160e01b600052601160045260246000fd5b634e487b7160e01b600052603160045260246000fd5b634e487b7160e01b600052603260045260246000fd5b6001600160a01b0381168114610e4a57600080fdfea264697066735822122023b35ab76d859764100dce6248d7e4e052923edfae07da2664e07405e37d54b264736f6c63430008070033",
  "devdoc": {
    "kind": "dev",
    "methods": {
      "acceptOwnership()": {
        "details": "Transfers ownership of the contract to a pending owner Can only be called by the pending owner."
      },
      "findBestOracle(address,bool)": {
        "params": {
          "_asset": "asset address",
          "_rawSearch": "boolean         - if FALSE, it performs search with all requirements, for example, TWAP readiness         - if TRUE, it performs a raw search, without any requirements (this is for off-chain checks)           that needs to be done for guarded silo creations"
        }
      },
      "initOracleForAsset(address,address,bytes)": {
        "details": "this method does two things:      - init new asset if oracle is provided      - search for best oracle and updates if we found better",
        "params": {
          "_asset": "address od token to be initialise",
          "_data": "(optional) custom data required for asset initialisation",
          "_oracle": "(optional) address of silo oracle that will be initialised with new asset        we do not check, if this oracle is registered or not, because it can not be used if not registered anyway"
        }
      },
      "owner()": {
        "details": "Returns the address of the current owner."
      },
      "pendingOwner()": {
        "details": "Returns the address of the pending owner."
      },
      "renounceOwnership()": {
        "details": "Leaves the contract without owner. It will not be possible to call `onlyOwner` functions anymore. Can only be called by the current owner. NOTE: Renouncing ownership will leave the contract without an owner, thereby removing any functionality that is only available to the owner."
      },
      "transferOwnership(address)": {
        "details": "Transfers ownership of the contract to a new account (`newOwner`). Can only be called by the current owner."
      },
      "transferPendingOwnership(address)": {
        "details": "Transfers pending ownership of the contract to a new account (`newPendingOwner`). Can only be called by the current owner."
      }
    },
    "stateVariables": {
      "assetsOracles": {
        "params": {
          "_asset": "address"
        },
        "return": "oracle address assigned for asset",
        "returns": {
          "_0": "oracle address assigned for asset"
        }
      }
    },
    "version": 1
  },
  "userdoc": {
    "kind": "user",
    "methods": {
      "initOracleForAsset(address,address,bytes)": {
        "notice": "initialise oracle for asset"
      }
    },
    "version": 1
  },
  "storageLayout": {
    "storage": [
      {
        "astId": 19953,
        "contract": "contracts/SiloOracleRepository.sol:SiloOracleRepository",
        "label": "_owner",
        "offset": 0,
        "slot": "0",
        "type": "t_address"
      },
      {
        "astId": 19955,
        "contract": "contracts/SiloOracleRepository.sol:SiloOracleRepository",
        "label": "_pendingOwner",
        "offset": 0,
        "slot": "1",
        "type": "t_address"
      },
      {
        "astId": 13877,
        "contract": "contracts/SiloOracleRepository.sol:SiloOracleRepository",
        "label": "registeredOracles",
        "offset": 0,
        "slot": "2",
        "type": "t_mapping(t_address,t_bool)"
      },
      {
        "astId": 13882,
        "contract": "contracts/SiloOracleRepository.sol:SiloOracleRepository",
        "label": "assetsOracles",
        "offset": 0,
        "slot": "3",
        "type": "t_mapping(t_address,t_address)"
      },
      {
        "astId": 13885,
        "contract": "contracts/SiloOracleRepository.sol:SiloOracleRepository",
        "label": "oracles",
        "offset": 0,
        "slot": "4",
        "type": "t_array(t_address)dyn_storage"
      }
    ],
    "types": {
      "t_address": {
        "encoding": "inplace",
        "label": "address",
        "numberOfBytes": "20"
      },
      "t_array(t_address)dyn_storage": {
        "base": "t_address",
        "encoding": "dynamic_array",
        "label": "address[]",
        "numberOfBytes": "32"
      },
      "t_bool": {
        "encoding": "inplace",
        "label": "bool",
        "numberOfBytes": "1"
      },
      "t_mapping(t_address,t_address)": {
        "encoding": "mapping",
        "key": "t_address",
        "label": "mapping(address => address)",
        "numberOfBytes": "32",
        "value": "t_address"
      },
      "t_mapping(t_address,t_bool)": {
        "encoding": "mapping",
        "key": "t_address",
        "label": "mapping(address => bool)",
        "numberOfBytes": "32",
        "value": "t_bool"
      }
    }
  }
}