{
  "address": "0xe26952A7a29Ce7631D6c6A50111598E131034599",
  "abi": [
    {
      "anonymous": false,
      "inputs": [
        {
          "indexed": true,
          "internalType": "address",
          "name": "token",
          "type": "address"
        }
      ],
      "name": "NewShareCollateralTokenCreated",
      "type": "event"
    },
    {
      "anonymous": false,
      "inputs": [
        {
          "indexed": true,
          "internalType": "address",
          "name": "token",
          "type": "address"
        }
      ],
      "name": "NewShareDebtTokenCreated",
      "type": "event"
    },
    {
      "inputs": [
        {
          "internalType": "string",
          "name": "_name",
          "type": "string"
        },
        {
          "internalType": "string",
          "name": "_symbol",
          "type": "string"
        },
        {
          "internalType": "address",
          "name": "_asset",
          "type": "address"
        }
      ],
      "name": "createShareCollateralToken",
      "outputs": [
        {
          "internalType": "contract IShareToken",
          "name": "token",
          "type": "address"
        }
      ],
      "stateMutability": "nonpayable",
      "type": "function"
    },
    {
      "inputs": [
        {
          "internalType": "string",
          "name": "_name",
          "type": "string"
        },
        {
          "internalType": "string",
          "name": "_symbol",
          "type": "string"
        },
        {
          "internalType": "address",
          "name": "_asset",
          "type": "address"
        }
      ],
      "name": "createShareDebtToken",
      "outputs": [
        {
          "internalType": "contract IShareToken",
          "name": "token",
          "type": "address"
        }
      ],
      "stateMutability": "nonpayable",
      "type": "function"
    }
  ],
  "transactionHash": "0xea0f383e595bb091b7bbd75fa3f56ac1adeb4e9650524946e83c3409f045b6af",
  "args": [],
  "numDeployments": 1,
  "solcInputHash": "a3e0f8b475b37a9b222b6e0a76db840e",
  "bytecode": "0x608060405234801561001057600080fd5b50612b5b806100206000396000f3fe608060405234801561001057600080fd5b50600436106100365760003560e01c8063ec3ad1741461003b578063f8f38d1b1461006a575b600080fd5b61004e610049366004610218565b61007d565b6040516001600160a01b03909116815260200160405180910390f35b61004e610078366004610218565b6100f7565b60008383338460405161008f90610171565b61009c94939291906102e9565b604051809103906000f0801580156100b8573d6000803e3d6000fd5b506040519091506001600160a01b038216907f94f128ebf0749edb8bb9d165d016ce008a16bc82cbd40cc81ded2be79140d02090600090a29392505050565b6000838333846040516101099061017e565b61011694939291906102e9565b604051809103906000f080158015610132573d6000803e3d6000fd5b506040519091506001600160a01b038216907fd97e9f840332422474cda9bb0976c87735b44cda62a3fe2a4e13e2e86267181290600090a29392505050565b6115778061034a83390190565b611265806118c183390190565b600082601f83011261019c57600080fd5b813567ffffffffffffffff808211156101b7576101b7610333565b604051601f8301601f19908116603f011681019082821181831017156101df576101df610333565b816040528381528660208588010111156101f857600080fd5b836020870160208301376000602085830101528094505050505092915050565b60008060006060848603121561022d57600080fd5b833567ffffffffffffffff8082111561024557600080fd5b6102518783880161018b565b9450602086013591508082111561026757600080fd5b506102748682870161018b565b92505060408401356001600160a01b038116811461029157600080fd5b809150509250925092565b6000815180845260005b818110156102c2576020818501810151868301820152016102a6565b818111156102d4576000602083870101525b50601f01601f19169290920160200192915050565b6080815260006102fc608083018761029c565b828103602084015261030e818761029c565b6001600160a01b03958616604085015293909416606090920191909152509392505050565b634e487b7160e01b600052604160045260246000fdfe60c06040523480156200001157600080fd5b50604051620015773803806200157783398101604081905262000034916200020b565b83838383838381600390805190602001906200005292919062000091565b5080516200006890600490602084019062000091565b5050506001600160601b0319606092831b8116608052911b1660a05250620002ed945050505050565b8280546200009f906200029a565b90600052602060002090601f016020900481019282620000c357600085556200010e565b82601f10620000de57805160ff19168380011785556200010e565b828001600101855582156200010e579182015b828111156200010e578251825591602001919060010190620000f1565b506200011c92915062000120565b5090565b5b808211156200011c576000815560010162000121565b80516001600160a01b03811681146200014f57600080fd5b919050565b600082601f8301126200016657600080fd5b81516001600160401b0380821115620001835762000183620002d7565b604051601f8301601f19908116603f01168101908282118183101715620001ae57620001ae620002d7565b81604052838152602092508683858801011115620001cb57600080fd5b600091505b83821015620001ef5785820183015181830184015290820190620001d0565b83821115620002015760008385830101525b9695505050505050565b600080600080608085870312156200022257600080fd5b84516001600160401b03808211156200023a57600080fd5b620002488883890162000154565b955060208701519150808211156200025f57600080fd5b506200026e8782880162000154565b9350506200027f6040860162000137565b91506200028f6060860162000137565b905092959194509250565b600181811c90821680620002af57607f821691505b60208210811415620002d157634e487b7160e01b600052602260045260246000fd5b50919050565b634e487b7160e01b600052604160045260246000fd5b60805160601c60a05160601c61123b6200033c600039600081816101b30152610d9e01526000818161031c015281816104e9015281816105d901528181610dce0152610f33015261123b6000f3fe608060405234801561001057600080fd5b50600436106101215760003560e01c806362221ca1116100ad5780639dc29fac116100715780639dc29fac146102a5578063a457c2d7146102b8578063a9059cbb146102cb578063dd62ed3e146102de578063eb3beb291461031757600080fd5b806362221ca11461021557806370a082311461024e57806375d680161461027757806380d4336e1461028a57806395d89b411461029d57600080fd5b8063313ce567116100f4578063313ce5671461018c57806334deadf21461019b57806338d52e0f146101ae57806339509351146101ed57806340c10f191461020057600080fd5b806306fdde0314610126578063095ea7b31461014457806318160ddd1461016757806323b872dd14610179575b600080fd5b61012e61033e565b60405161013b9190611130565b60405180910390f35b6101576101523660046110e4565b6103d0565b604051901515815260200161013b565b6002545b60405190815260200161013b565b6101576101873660046110a8565b6103e6565b6040516012815260200161013b565b6101576101a93660046110e4565b610495565b6101d57f000000000000000000000000000000000000000000000000000000000000000081565b6040516001600160a01b03909116815260200161013b565b6101576101fb3660046110e4565b6104a2565b61021361020e3660046110e4565b6104de565b005b61016b610223366004611075565b6001600160a01b03918216600090815260056020908152604080832093909416825291909152205490565b61016b61025c36600461105a565b6001600160a01b031660009081526020819052604090205490565b6101576102853660046110e4565b610535565b6101576102983660046110e4565b61057d565b61012e6105bf565b6102136102b33660046110e4565b6105ce565b6101576102c63660046110e4565b610621565b6101576102d93660046110e4565b6106ba565b61016b6102ec366004611075565b6001600160a01b03918216600090815260016020908152604080832093909416825291909152205490565b6101d57f000000000000000000000000000000000000000000000000000000000000000081565b60606003805461034d906111b4565b80601f0160208091040260200160405190810160405280929190818152602001828054610379906111b4565b80156103c65780601f1061039b576101008083540402835291602001916103c6565b820191906000526020600020905b8154815290600101906020018083116103a957829003601f168201915b5050505050905090565b60006103dd3384846106c7565b50600192915050565b60006103f38484846107ec565b6001600160a01b03841660009081526001602090815260408083203384529091529020548281101561047d5760405162461bcd60e51b815260206004820152602860248201527f45524332303a207472616e7366657220616d6f756e74206578636565647320616044820152676c6c6f77616e636560c01b60648201526084015b60405180910390fd5b61048a85338584036106c7565b506001949350505050565b60006103dd8333846109d1565b3360008181526001602090815260408083206001600160a01b038716845290915281205490916103dd9185906104d9908690611185565b6106c7565b336001600160a01b037f0000000000000000000000000000000000000000000000000000000000000000161461052757604051634ca8886760e01b815260040160405180910390fd5b6105318282610b0c565b5050565b6001600160a01b038216600090815260056020908152604080832033845290915281205481811984101561056b5783820161056f565b6000195b905061048a85335b836109d1565b6001600160a01b038216600090815260056020908152604080832033845290915281205481838211156105b25783820361056f565b50600061048a8533610577565b60606105c9610bff565b905090565b336001600160a01b037f0000000000000000000000000000000000000000000000000000000000000000161461061757604051634ca8886760e01b815260040160405180910390fd5b6105318282610c0e565b3360009081526001602090815260408083206001600160a01b0386168452909152812054828110156106a35760405162461bcd60e51b815260206004820152602560248201527f45524332303a2064656372656173656420616c6c6f77616e63652062656c6f77604482015264207a65726f60d81b6064820152608401610474565b6106b033858584036106c7565b5060019392505050565b60006103dd3384846107ec565b6001600160a01b0383166107295760405162461bcd60e51b8152602060048201526024808201527f45524332303a20617070726f76652066726f6d20746865207a65726f206164646044820152637265737360e01b6064820152608401610474565b6001600160a01b03821661078a5760405162461bcd60e51b815260206004820152602260248201527f45524332303a20617070726f766520746f20746865207a65726f206164647265604482015261737360f01b6064820152608401610474565b6001600160a01b0383811660008181526001602090815260408083209487168084529482529182902085905590518481527f8c5be1e5ebec7d5bd14f71427d1e84f3dd0314c0f7b2291e5b200ac8c7c3b92591015b60405180910390a3505050565b6001600160a01b0383166108505760405162461bcd60e51b815260206004820152602560248201527f45524332303a207472616e736665722066726f6d20746865207a65726f206164604482015264647265737360d81b6064820152608401610474565b6001600160a01b0382166108b25760405162461bcd60e51b815260206004820152602360248201527f45524332303a207472616e7366657220746f20746865207a65726f206164647260448201526265737360e81b6064820152608401610474565b6108bd838383610d74565b6001600160a01b038316600090815260208190526040902054818110156109355760405162461bcd60e51b815260206004820152602660248201527f45524332303a207472616e7366657220616d6f756e7420657863656564732062604482015265616c616e636560d01b6064820152608401610474565b6001600160a01b0380851660009081526020819052604080822085850390559185168152908120805484929061096c908490611185565b92505081905550826001600160a01b0316846001600160a01b03167fddf252ad1be2c89b69c2b068fc378daa952ba7f163c4a11628f55a4df523b3ef846040516109b891815260200190565b60405180910390a36109cb848484610f05565b50505050565b6001600160a01b038316610a435760405162461bcd60e51b815260206004820152603360248201527f4552433230523a206368616e676552656365697665417070726f76616c2066726044820152726f6d20746865207a65726f206164647265737360681b6064820152608401610474565b6001600160a01b038216610ab35760405162461bcd60e51b815260206004820152603160248201527f4552433230523a206368616e676552656365697665417070726f76616c20746f60448201527020746865207a65726f206164647265737360781b6064820152608401610474565b6001600160a01b0383811660008181526005602090815260408083209487168084529482529182902085905590518481527fa80d0efa8328d29034668db835056d5d5e5876f77ffc7bc09f1e06b2ba18b12191016107df565b6001600160a01b038216610b625760405162461bcd60e51b815260206004820152601f60248201527f45524332303a206d696e7420746f20746865207a65726f2061646472657373006044820152606401610474565b610b6e60008383610d74565b8060026000828254610b809190611185565b90915550506001600160a01b03821660009081526020819052604081208054839290610bad908490611185565b90915550506040518181526001600160a01b038316906000907fddf252ad1be2c89b69c2b068fc378daa952ba7f163c4a11628f55a4df523b3ef9060200160405180910390a361053160008383610f05565b60606004805461034d906111b4565b6001600160a01b038216610c6e5760405162461bcd60e51b815260206004820152602160248201527f45524332303a206275726e2066726f6d20746865207a65726f206164647265736044820152607360f81b6064820152608401610474565b610c7a82600083610d74565b6001600160a01b03821660009081526020819052604090205481811015610cee5760405162461bcd60e51b815260206004820152602260248201527f45524332303a206275726e20616d6f756e7420657863656564732062616c616e604482015261636560f01b6064820152608401610474565b6001600160a01b0383166000908152602081905260408120838303905560028054849290610d1d90849061119d565b90915550506040518281526000906001600160a01b038516907fddf252ad1be2c89b69c2b068fc378daa952ba7f163c4a11628f55a4df523b3ef9060200160405180910390a3610d6f83600084610f05565b505050565b610d7e8383611015565b610d8757505050565b6040516379ea386160e11b81526001600160a01b037f00000000000000000000000000000000000000000000000000000000000000008116600483015283811660248301527f0000000000000000000000000000000000000000000000000000000000000000169063f3d470c29060440160206040518083038186803b158015610e1057600080fd5b505afa158015610e24573d6000803e3d6000fd5b505050506040513d601f19601f82011682018060405250810190610e48919061110e565b610e65576040516349bb6ced60e11b815260040160405180910390fd5b6001600160a01b0383811660009081526005602090815260408083209386168352929052205481811015610ef15760405162461bcd60e51b815260206004820152602d60248201527f45524332303a207472616e73666572206465627420616d6f756e74206578636560448201526c65647320616c6c6f77616e636560981b6064820152608401610474565b6109cb8484610f00858561119d565b6109d1565b610f0f8383611015565b15610d6f576040516338b51ce160e01b81526001600160a01b0383811660048301527f000000000000000000000000000000000000000000000000000000000000000016906338b51ce19060240160206040518083038186803b158015610f7557600080fd5b505afa158015610f89573d6000803e3d6000fd5b505050506040513d601f19601f82011682018060405250810190610fad919061110e565b610d6f5760405162461bcd60e51b815260206004820152603360248201527f5472616e7366657220446562743a20726563697069656e74206e6f7420736f6c6044820152723b32b73a1030b33a32b9103a3930b739b332b960691b6064820152608401610474565b60006001600160a01b0383161580159061103757506001600160a01b03821615155b9392505050565b80356001600160a01b038116811461105557600080fd5b919050565b60006020828403121561106c57600080fd5b6110378261103e565b6000806040838503121561108857600080fd5b6110918361103e565b915061109f6020840161103e565b90509250929050565b6000806000606084860312156110bd57600080fd5b6110c68461103e565b92506110d46020850161103e565b9150604084013590509250925092565b600080604083850312156110f757600080fd5b6111008361103e565b946020939093013593505050565b60006020828403121561112057600080fd5b8151801515811461103757600080fd5b600060208083528351808285015260005b8181101561115d57858101830151858201604001528201611141565b8181111561116f576000604083870101525b50601f01601f1916929092016040019392505050565b60008219821115611198576111986111ef565b500190565b6000828210156111af576111af6111ef565b500390565b600181811c908216806111c857607f821691505b602082108114156111e957634e487b7160e01b600052602260045260246000fd5b50919050565b634e487b7160e01b600052601160045260246000fdfea2646970667358221220f322abfd051dcc4b3f1db69e87df2678ad6f95f759544b9f970b0eb37d040f4164736f6c6343000807003360c06040523480156200001157600080fd5b506040516200126538038062001265833981016040819052620000349162000207565b818185858160039080519060200190620000509291906200008d565b508051620000669060049060208401906200008d565b5050506001600160601b0319606092831b8116608052911b1660a05250620002e992505050565b8280546200009b9062000296565b90600052602060002090601f016020900481019282620000bf57600085556200010a565b82601f10620000da57805160ff19168380011785556200010a565b828001600101855582156200010a579182015b828111156200010a578251825591602001919060010190620000ed565b50620001189291506200011c565b5090565b5b808211156200011857600081556001016200011d565b80516001600160a01b03811681146200014b57600080fd5b919050565b600082601f8301126200016257600080fd5b81516001600160401b03808211156200017f576200017f620002d3565b604051601f8301601f19908116603f01168101908282118183101715620001aa57620001aa620002d3565b81604052838152602092508683858801011115620001c757600080fd5b600091505b83821015620001eb5785820183015181830184015290820190620001cc565b83821115620001fd5760008385830101525b9695505050505050565b600080600080608085870312156200021e57600080fd5b84516001600160401b03808211156200023657600080fd5b620002448883890162000150565b955060208701519150808211156200025b57600080fd5b506200026a8782880162000150565b9350506200027b6040860162000133565b91506200028b6060860162000133565b905092959194509250565b600181811c90821680620002ab57607f821691505b60208210811415620002cd57634e487b7160e01b600052602260045260246000fd5b50919050565b634e487b7160e01b600052604160045260246000fd5b60805160601c60a05160601c610f2d62000338600039600081816101740152610b2d01526000818161027e0152818161043e015281816104a401528181610b5d0152610c220152610f2d6000f3fe608060405234801561001057600080fd5b50600436106100f55760003560e01c806340c10f1911610097578063a457c2d711610066578063a457c2d71461021a578063a9059cbb1461022d578063dd62ed3e14610240578063eb3beb291461027957600080fd5b806340c10f19146101c157806370a08231146101d657806395d89b41146101ff5780639dc29fac1461020757600080fd5b806323b872dd116100d357806323b872dd1461014d578063313ce5671461016057806338d52e0f1461016f57806339509351146101ae57600080fd5b806306fdde03146100fa578063095ea7b31461011857806318160ddd1461013b575b600080fd5b6101026102a0565b60405161010f9190610e22565b60405180910390f35b61012b610126366004610dd6565b610332565b604051901515815260200161010f565b6002545b60405190815260200161010f565b61012b61015b366004610d9a565b610348565b6040516012815260200161010f565b6101967f000000000000000000000000000000000000000000000000000000000000000081565b6040516001600160a01b03909116815260200161010f565b61012b6101bc366004610dd6565b6103f7565b6101d46101cf366004610dd6565b610433565b005b61013f6101e4366004610d4c565b6001600160a01b031660009081526020819052604090205490565b61010261048a565b6101d4610215366004610dd6565b610499565b61012b610228366004610dd6565b6104ec565b61012b61023b366004610dd6565b610585565b61013f61024e366004610d67565b6001600160a01b03918216600090815260016020908152604080832093909416825291909152205490565b6101967f000000000000000000000000000000000000000000000000000000000000000081565b6060600380546102af90610ea6565b80601f01602080910402602001604051908101604052809291908181526020018280546102db90610ea6565b80156103285780601f106102fd57610100808354040283529160200191610328565b820191906000526020600020905b81548152906001019060200180831161030b57829003601f168201915b5050505050905090565b600061033f338484610592565b50600192915050565b60006103558484846106b6565b6001600160a01b0384166000908152600160209081526040808320338452909152902054828110156103df5760405162461bcd60e51b815260206004820152602860248201527f45524332303a207472616e7366657220616d6f756e74206578636565647320616044820152676c6c6f77616e636560c01b60648201526084015b60405180910390fd5b6103ec8533858403610592565b506001949350505050565b3360008181526001602090815260408083206001600160a01b0387168452909152812054909161033f91859061042e908690610e77565b610592565b336001600160a01b037f0000000000000000000000000000000000000000000000000000000000000000161461047c57604051634ca8886760e01b815260040160405180910390fd5b610486828261089b565b5050565b606061049461098e565b905090565b336001600160a01b037f000000000000000000000000000000000000000000000000000000000000000016146104e257604051634ca8886760e01b815260040160405180910390fd5b610486828261099d565b3360009081526001602090815260408083206001600160a01b03861684529091528120548281101561056e5760405162461bcd60e51b815260206004820152602560248201527f45524332303a2064656372656173656420616c6c6f77616e63652062656c6f77604482015264207a65726f60d81b60648201526084016103d6565b61057b3385858403610592565b5060019392505050565b600061033f3384846106b6565b6001600160a01b0383166105f45760405162461bcd60e51b8152602060048201526024808201527f45524332303a20617070726f76652066726f6d20746865207a65726f206164646044820152637265737360e01b60648201526084016103d6565b6001600160a01b0382166106555760405162461bcd60e51b815260206004820152602260248201527f45524332303a20617070726f766520746f20746865207a65726f206164647265604482015261737360f01b60648201526084016103d6565b6001600160a01b0383811660008181526001602090815260408083209487168084529482529182902085905590518481527f8c5be1e5ebec7d5bd14f71427d1e84f3dd0314c0f7b2291e5b200ac8c7c3b925910160405180910390a3505050565b6001600160a01b03831661071a5760405162461bcd60e51b815260206004820152602560248201527f45524332303a207472616e736665722066726f6d20746865207a65726f206164604482015264647265737360d81b60648201526084016103d6565b6001600160a01b03821661077c5760405162461bcd60e51b815260206004820152602360248201527f45524332303a207472616e7366657220746f20746865207a65726f206164647260448201526265737360e81b60648201526084016103d6565b610787838383610b03565b6001600160a01b038316600090815260208190526040902054818110156107ff5760405162461bcd60e51b815260206004820152602660248201527f45524332303a207472616e7366657220616d6f756e7420657863656564732062604482015265616c616e636560d01b60648201526084016103d6565b6001600160a01b03808516600090815260208190526040808220858503905591851681529081208054849290610836908490610e77565b92505081905550826001600160a01b0316846001600160a01b03167fddf252ad1be2c89b69c2b068fc378daa952ba7f163c4a11628f55a4df523b3ef8460405161088291815260200190565b60405180910390a3610895848484610bf4565b50505050565b6001600160a01b0382166108f15760405162461bcd60e51b815260206004820152601f60248201527f45524332303a206d696e7420746f20746865207a65726f20616464726573730060448201526064016103d6565b6108fd60008383610b03565b806002600082825461090f9190610e77565b90915550506001600160a01b0382166000908152602081905260408120805483929061093c908490610e77565b90915550506040518181526001600160a01b038316906000907fddf252ad1be2c89b69c2b068fc378daa952ba7f163c4a11628f55a4df523b3ef9060200160405180910390a361048660008383610bf4565b6060600480546102af90610ea6565b6001600160a01b0382166109fd5760405162461bcd60e51b815260206004820152602160248201527f45524332303a206275726e2066726f6d20746865207a65726f206164647265736044820152607360f81b60648201526084016103d6565b610a0982600083610b03565b6001600160a01b03821660009081526020819052604090205481811015610a7d5760405162461bcd60e51b815260206004820152602260248201527f45524332303a206275726e20616d6f756e7420657863656564732062616c616e604482015261636560f01b60648201526084016103d6565b6001600160a01b0383166000908152602081905260408120838303905560028054849290610aac908490610e8f565b90915550506040518281526000906001600160a01b038516907fddf252ad1be2c89b69c2b068fc378daa952ba7f163c4a11628f55a4df523b3ef9060200160405180910390a3610afe83600084610bf4565b505050565b610b0d8383610d07565b610b1657505050565b60405163a6e08aa160e01b81526001600160a01b037f00000000000000000000000000000000000000000000000000000000000000008116600483015283811660248301527f0000000000000000000000000000000000000000000000000000000000000000169063a6e08aa19060440160206040518083038186803b158015610b9f57600080fd5b505afa158015610bb3573d6000803e3d6000fd5b505050506040513d601f19601f82011682018060405250810190610bd79190610e00565b610afe576040516349bb6ced60e11b815260040160405180910390fd5b610bfe8383610d07565b15610afe576040516338b51ce160e01b81526001600160a01b0384811660048301527f000000000000000000000000000000000000000000000000000000000000000016906338b51ce19060240160206040518083038186803b158015610c6457600080fd5b505afa158015610c78573d6000803e3d6000fd5b505050506040513d601f19601f82011682018060405250810190610c9c9190610e00565b610afe5760405162461bcd60e51b815260206004820152603660248201527f5472616e7366657220436f6c6c61746572616c3a2073656e646572206e6f742060448201527539b7b63b32b73a1030b33a32b9103a3930b739b332b960511b60648201526084016103d6565b60006001600160a01b03831615801590610d2957506001600160a01b03821615155b9392505050565b80356001600160a01b0381168114610d4757600080fd5b919050565b600060208284031215610d5e57600080fd5b610d2982610d30565b60008060408385031215610d7a57600080fd5b610d8383610d30565b9150610d9160208401610d30565b90509250929050565b600080600060608486031215610daf57600080fd5b610db884610d30565b9250610dc660208501610d30565b9150604084013590509250925092565b60008060408385031215610de957600080fd5b610df283610d30565b946020939093013593505050565b600060208284031215610e1257600080fd5b81518015158114610d2957600080fd5b600060208083528351808285015260005b81811015610e4f57858101830151858201604001528201610e33565b81811115610e61576000604083870101525b50601f01601f1916929092016040019392505050565b60008219821115610e8a57610e8a610ee1565b500190565b600082821015610ea157610ea1610ee1565b500390565b600181811c90821680610eba57607f821691505b60208210811415610edb57634e487b7160e01b600052602260045260246000fd5b50919050565b634e487b7160e01b600052601160045260246000fdfea2646970667358221220367a3166783311d744c422ffd4b271ffe599fec83c42ea39e4bbfc8ff4845a3964736f6c63430008070033a2646970667358221220f6187c5d171f6a5fd95531a59cf170349a2e4fdf080da965edfa4184945dc86d64736f6c63430008070033",
  "devdoc": {
    "kind": "dev",
    "methods": {},
    "version": 1
  },
  "userdoc": {
    "kind": "user",
    "methods": {},
    "version": 1
  },
  "storageLayout": {
    "storage": [],
    "types": null
  }
}